{
	"contracts/milestone_distribution.sol": {
		"DistributionContract": {
			"abi": [
				{
					"anonymous": false,
					"inputs": [
						{
							"indexed": false,
							"internalType": "uint256",
							"name": "charityID",
							"type": "uint256"
						},
						{
							"indexed": false,
							"internalType": "string",
							"name": "name",
							"type": "string"
						},
						{
							"indexed": false,
							"internalType": "address",
							"name": "charityAddress",
							"type": "address"
						},
						{
							"indexed": false,
							"internalType": "uint256",
							"name": "totalRaised",
							"type": "uint256"
						},
						{
							"indexed": false,
							"internalType": "uint256",
							"name": "targetDonation",
							"type": "uint256"
						},
						{
							"indexed": false,
							"internalType": "bool",
							"name": "fundsLocked",
							"type": "bool"
						}
					],
					"name": "CharityCreated",
					"type": "event"
				},
				{
					"inputs": [
						{
							"internalType": "string",
							"name": "_name",
							"type": "string"
						},
						{
							"internalType": "address",
							"name": "_charityAddress",
							"type": "address"
						},
						{
							"internalType": "string",
							"name": "_milestoneDescription",
							"type": "string"
						}
					],
					"name": "addCharity",
					"outputs": [],
					"stateMutability": "nonpayable",
					"type": "function"
				},
				{
					"inputs": [],
					"name": "charityCount",
					"outputs": [
						{
							"internalType": "uint256",
							"name": "",
							"type": "uint256"
						}
					],
					"stateMutability": "view",
					"type": "function"
				},
				{
					"inputs": [
						{
							"internalType": "string",
							"name": "_charity",
							"type": "string"
						}
					],
					"name": "charityExists",
					"outputs": [
						{
							"internalType": "int256",
							"name": "",
							"type": "int256"
						}
					],
					"stateMutability": "view",
					"type": "function"
				},
				{
					"inputs": [
						{
							"internalType": "string",
							"name": "_charity",
							"type": "string"
						},
						{
							"internalType": "uint256",
							"name": "_amount",
							"type": "uint256"
						}
					],
					"name": "contributeFunds",
					"outputs": [],
					"stateMutability": "nonpayable",
					"type": "function"
				},
				{
					"inputs": [
						{
							"internalType": "uint256",
							"name": "id",
							"type": "uint256"
						}
					],
					"name": "getCharityById",
					"outputs": [
						{
							"internalType": "string",
							"name": "name",
							"type": "string"
						},
						{
							"internalType": "address",
							"name": "charityAddress",
							"type": "address"
						},
						{
							"internalType": "uint256",
							"name": "totalRaised",
							"type": "uint256"
						},
						{
							"internalType": "uint256",
							"name": "targetDonation",
							"type": "uint256"
						},
						{
							"internalType": "bool",
							"name": "fundsLocked",
							"type": "bool"
						},
						{
							"internalType": "string",
							"name": "milestoneDescription",
							"type": "string"
						},
						{
							"internalType": "bool",
							"name": "isMilestoneComplete",
							"type": "bool"
						}
					],
					"stateMutability": "view",
					"type": "function"
				},
				{
					"inputs": [
						{
							"internalType": "uint256",
							"name": "charityID",
							"type": "uint256"
						}
					],
					"name": "markMilestoneComplete",
					"outputs": [],
					"stateMutability": "nonpayable",
					"type": "function"
				},
				{
					"inputs": [
						{
							"internalType": "uint256",
							"name": "charityID",
							"type": "uint256"
						},
						{
							"internalType": "string",
							"name": "newDescription",
							"type": "string"
						}
					],
					"name": "updateMilestone",
					"outputs": [],
					"stateMutability": "nonpayable",
					"type": "function"
				}
			],
			"devdoc": {
				"kind": "dev",
				"methods": {},
				"version": 1
			},
			"evm": {
				"assembly": "    /* \"contracts/milestone_distribution.sol\":60:3872  contract DistributionContract {... */\n  mstore(0x40, 0x80)\n  callvalue\n  dup1\n  iszero\n  tag_1\n  jumpi\n  revert(0x00, 0x00)\ntag_1:\n  pop\n  dataSize(sub_0)\n  dup1\n  dataOffset(sub_0)\n  0x00\n  codecopy\n  0x00\n  return\nstop\n\nsub_0: assembly {\n        /* \"contracts/milestone_distribution.sol\":60:3872  contract DistributionContract {... */\n      mstore(0x40, 0x80)\n      callvalue\n      dup1\n      iszero\n      tag_1\n      jumpi\n      revert(0x00, 0x00)\n    tag_1:\n      pop\n      jumpi(tag_2, lt(calldatasize, 0x04))\n      shr(0xe0, calldataload(0x00))\n      dup1\n      0x91329493\n      gt\n      tag_10\n      jumpi\n      dup1\n      0x91329493\n      eq\n      tag_6\n      jumpi\n      dup1\n      0x9d32c186\n      eq\n      tag_7\n      jumpi\n      dup1\n      0xee9a5432\n      eq\n      tag_8\n      jumpi\n      dup1\n      0xf25d75e7\n      eq\n      tag_9\n      jumpi\n      jump(tag_2)\n    tag_10:\n      dup1\n      0x14932c6b\n      eq\n      tag_3\n      jumpi\n      dup1\n      0x21b914bc\n      eq\n      tag_4\n      jumpi\n      dup1\n      0x46877a38\n      eq\n      tag_5\n      jumpi\n    tag_2:\n      revert(0x00, 0x00)\n        /* \"contracts/milestone_distribution.sol\":795:1449  function addCharity(string memory _name, address _charityAddress, string memory _milestoneDescription) public {... */\n    tag_3:\n      tag_11\n      0x04\n      dup1\n      calldatasize\n      sub\n      dup2\n      add\n      swap1\n      tag_12\n      swap2\n      swap1\n      tag_13\n      jump\t// in\n    tag_12:\n      tag_14\n      jump\t// in\n    tag_11:\n      stop\n        /* \"contracts/milestone_distribution.sol\":2876:3400  function getCharityById(uint256 id) public view returns (string memory name, address charityAddress, uint256 totalRaised, uint256 targetDonation, bool fundsLocked, string memory milestoneDescription, bool isMilestoneComplete){... */\n    tag_4:\n      tag_15\n      0x04\n      dup1\n      calldatasize\n      sub\n      dup2\n      add\n      swap1\n      tag_16\n      swap2\n      swap1\n      tag_17\n      jump\t// in\n    tag_16:\n      tag_18\n      jump\t// in\n    tag_15:\n      mload(0x40)\n      tag_19\n      swap8\n      swap7\n      swap6\n      swap5\n      swap4\n      swap3\n      swap2\n      swap1\n      tag_20\n      jump\t// in\n    tag_19:\n      mload(0x40)\n      dup1\n      swap2\n      sub\n      swap1\n      return\n        /* \"contracts/milestone_distribution.sol\":2557:2839  function updateMilestone(uint256 charityID, string memory newDescription) public {... */\n    tag_5:\n      tag_21\n      0x04\n      dup1\n      calldatasize\n      sub\n      dup2\n      add\n      swap1\n      tag_22\n      swap2\n      swap1\n      tag_23\n      jump\t// in\n    tag_22:\n      tag_24\n      jump\t// in\n    tag_21:\n      stop\n        /* \"contracts/milestone_distribution.sol\":133:160  uint256 public charityCount */\n    tag_6:\n      tag_25\n      tag_26\n      jump\t// in\n    tag_25:\n      mload(0x40)\n      tag_27\n      swap2\n      swap1\n      tag_28\n      jump\t// in\n    tag_27:\n      mload(0x40)\n      dup1\n      swap2\n      sub\n      swap1\n      return\n        /* \"contracts/milestone_distribution.sol\":3492:3869  function charityExists(string memory _charity) public view returns (int256) {... */\n    tag_7:\n      tag_29\n      0x04\n      dup1\n      calldatasize\n      sub\n      dup2\n      add\n      swap1\n      tag_30\n      swap2\n      swap1\n      tag_31\n      jump\t// in\n    tag_30:\n      tag_32\n      jump\t// in\n    tag_29:\n      mload(0x40)\n      tag_33\n      swap2\n      swap1\n      tag_34\n      jump\t// in\n    tag_33:\n      mload(0x40)\n      dup1\n      swap2\n      sub\n      swap1\n      return\n        /* \"contracts/milestone_distribution.sol\":2191:2497  function markMilestoneComplete(uint256 charityID) public {... */\n    tag_8:\n      tag_35\n      0x04\n      dup1\n      calldatasize\n      sub\n      dup2\n      add\n      swap1\n      tag_36\n      swap2\n      swap1\n      tag_17\n      jump\t// in\n    tag_36:\n      tag_37\n      jump\t// in\n    tag_35:\n      stop\n        /* \"contracts/milestone_distribution.sol\":1461:2108  function contributeFunds(string memory _charity, uint256 _amount) external {... */\n    tag_9:\n      tag_38\n      0x04\n      dup1\n      calldatasize\n      sub\n      dup2\n      add\n      swap1\n      tag_39\n      swap2\n      swap1\n      tag_40\n      jump\t// in\n    tag_39:\n      tag_41\n      jump\t// in\n    tag_38:\n      stop\n        /* \"contracts/milestone_distribution.sol\":795:1449  function addCharity(string memory _name, address _charityAddress, string memory _milestoneDescription) public {... */\n    tag_14:\n        /* \"contracts/milestone_distribution.sol\":1015:1027  charityCount */\n      0x00\n      0x00\n        /* \"contracts/milestone_distribution.sol\":1015:1029  charityCount++ */\n      dup2\n      sload\n      dup1\n      swap3\n      swap2\n      swap1\n      tag_43\n      swap1\n      tag_44\n      jump\t// in\n    tag_43:\n      swap2\n      swap1\n      pop\n      sstore\n      pop\n        /* \"contracts/milestone_distribution.sol\":1066:1268  CharityDetails(... */\n      mload(0x40)\n      dup1\n      0xe0\n      add\n      0x40\n      mstore\n      dup1\n        /* \"contracts/milestone_distribution.sol\":1095:1100  _name */\n      dup5\n        /* \"contracts/milestone_distribution.sol\":1066:1268  CharityDetails(... */\n      dup2\n      mstore\n      0x20\n      add\n        /* \"contracts/milestone_distribution.sol\":1115:1130  _charityAddress */\n      dup4\n        /* \"contracts/milestone_distribution.sol\":1066:1268  CharityDetails(... */\n      0xffffffffffffffffffffffffffffffffffffffff\n      and\n      dup2\n      mstore\n      0x20\n      add\n        /* \"contracts/milestone_distribution.sol\":1145:1146  0 */\n      0x00\n        /* \"contracts/milestone_distribution.sol\":1066:1268  CharityDetails(... */\n      dup2\n      mstore\n      0x20\n      add\n        /* \"contracts/milestone_distribution.sol\":1161:1164  100 */\n      0x64\n        /* \"contracts/milestone_distribution.sol\":1066:1268  CharityDetails(... */\n      dup2\n      mstore\n      0x20\n      add\n        /* \"contracts/milestone_distribution.sol\":1197:1201  true */\n      0x01\n        /* \"contracts/milestone_distribution.sol\":1066:1268  CharityDetails(... */\n      iszero\n      iszero\n      dup2\n      mstore\n      0x20\n      add\n        /* \"contracts/milestone_distribution.sol\":1216:1237  _milestoneDescription */\n      dup3\n        /* \"contracts/milestone_distribution.sol\":1066:1268  CharityDetails(... */\n      dup2\n      mstore\n      0x20\n      add\n        /* \"contracts/milestone_distribution.sol\":1252:1257  false */\n      0x00\n        /* \"contracts/milestone_distribution.sol\":1066:1268  CharityDetails(... */\n      iszero\n      iszero\n      dup2\n      mstore\n      pop\n        /* \"contracts/milestone_distribution.sol\":1040:1049  charities */\n      0x01\n        /* \"contracts/milestone_distribution.sol\":1040:1063  charities[charityCount] */\n      0x00\n        /* \"contracts/milestone_distribution.sol\":1050:1062  charityCount */\n      sload(0x00)\n        /* \"contracts/milestone_distribution.sol\":1040:1063  charities[charityCount] */\n      dup2\n      mstore\n      0x20\n      add\n      swap1\n      dup2\n      mstore\n      0x20\n      add\n      0x00\n      keccak256\n        /* \"contracts/milestone_distribution.sol\":1040:1268  charities[charityCount] = CharityDetails(... */\n      0x00\n      dup3\n      add\n      mload\n      dup2\n      0x00\n      add\n      swap1\n      dup2\n      tag_45\n      swap2\n      swap1\n      tag_46\n      jump\t// in\n    tag_45:\n      pop\n      0x20\n      dup3\n      add\n      mload\n      dup2\n      0x01\n      add\n      exp(0x0100, 0x00)\n      dup2\n      sload\n      dup2\n      0xffffffffffffffffffffffffffffffffffffffff\n      mul\n      not\n      and\n      swap1\n      dup4\n      0xffffffffffffffffffffffffffffffffffffffff\n      and\n      mul\n      or\n      swap1\n      sstore\n      pop\n      0x40\n      dup3\n      add\n      mload\n      dup2\n      0x02\n      add\n      sstore\n      0x60\n      dup3\n      add\n      mload\n      dup2\n      0x03\n      add\n      sstore\n      0x80\n      dup3\n      add\n      mload\n      dup2\n      0x04\n      add\n      exp(0x0100, 0x00)\n      dup2\n      sload\n      dup2\n      0xff\n      mul\n      not\n      and\n      swap1\n      dup4\n      iszero\n      iszero\n      mul\n      or\n      swap1\n      sstore\n      pop\n      0xa0\n      dup3\n      add\n      mload\n      dup2\n      0x05\n      add\n      swap1\n      dup2\n      tag_47\n      swap2\n      swap1\n      tag_46\n      jump\t// in\n    tag_47:\n      pop\n      0xc0\n      dup3\n      add\n      mload\n      dup2\n      0x06\n      add\n      exp(0x0100, 0x00)\n      dup2\n      sload\n      dup2\n      0xff\n      mul\n      not\n      and\n      swap1\n      dup4\n      iszero\n      iszero\n      mul\n      or\n      swap1\n      sstore\n      pop\n      swap1\n      pop\n      pop\n        /* \"contracts/milestone_distribution.sol\":1286:1441  CharityCreated(... */\n      0x9738ee50ef49bc3ba8025ef429ffc26a3c6427e51abca46e5ea80429f1c17b4b\n        /* \"contracts/milestone_distribution.sol\":1315:1327  charityCount */\n      sload(0x00)\n        /* \"contracts/milestone_distribution.sol\":1342:1347  _name */\n      dup5\n        /* \"contracts/milestone_distribution.sol\":1362:1377  _charityAddress */\n      dup5\n        /* \"contracts/milestone_distribution.sol\":1392:1393  0 */\n      0x00\n        /* \"contracts/milestone_distribution.sol\":1408:1411  100 */\n      0x64\n        /* \"contracts/milestone_distribution.sol\":1426:1430  true */\n      0x01\n        /* \"contracts/milestone_distribution.sol\":1286:1441  CharityCreated(... */\n      mload(0x40)\n      tag_48\n      swap7\n      swap6\n      swap5\n      swap4\n      swap3\n      swap2\n      swap1\n      tag_49\n      jump\t// in\n    tag_48:\n      mload(0x40)\n      dup1\n      swap2\n      sub\n      swap1\n      log1\n        /* \"contracts/milestone_distribution.sol\":795:1449  function addCharity(string memory _name, address _charityAddress, string memory _milestoneDescription) public {... */\n      pop\n      pop\n      pop\n      jump\t// out\n        /* \"contracts/milestone_distribution.sol\":2876:3400  function getCharityById(uint256 id) public view returns (string memory name, address charityAddress, uint256 totalRaised, uint256 targetDonation, bool fundsLocked, string memory milestoneDescription, bool isMilestoneComplete){... */\n    tag_18:\n        /* \"contracts/milestone_distribution.sol\":2933:2951  string memory name */\n      0x60\n        /* \"contracts/milestone_distribution.sol\":2953:2975  address charityAddress */\n      0x00\n        /* \"contracts/milestone_distribution.sol\":2977:2996  uint256 totalRaised */\n      0x00\n        /* \"contracts/milestone_distribution.sol\":2998:3020  uint256 targetDonation */\n      0x00\n        /* \"contracts/milestone_distribution.sol\":3022:3038  bool fundsLocked */\n      0x00\n        /* \"contracts/milestone_distribution.sol\":3040:3074  string memory milestoneDescription */\n      0x60\n        /* \"contracts/milestone_distribution.sol\":3076:3100  bool isMilestoneComplete */\n      0x00\n        /* \"contracts/milestone_distribution.sol\":3112:3135  CharityDetails memory c */\n      0x00\n        /* \"contracts/milestone_distribution.sol\":3138:3147  charities */\n      0x01\n        /* \"contracts/milestone_distribution.sol\":3138:3151  charities[id] */\n      0x00\n        /* \"contracts/milestone_distribution.sol\":3148:3150  id */\n      dup11\n        /* \"contracts/milestone_distribution.sol\":3138:3151  charities[id] */\n      dup2\n      mstore\n      0x20\n      add\n      swap1\n      dup2\n      mstore\n      0x20\n      add\n      0x00\n      keccak256\n        /* \"contracts/milestone_distribution.sol\":3112:3151  CharityDetails memory c = charities[id] */\n      mload(0x40)\n      dup1\n      0xe0\n      add\n      0x40\n      mstore\n      swap1\n      dup2\n      0x00\n      dup3\n      add\n      dup1\n      sload\n      tag_51\n      swap1\n      tag_52\n      jump\t// in\n    tag_51:\n      dup1\n      0x1f\n      add\n      0x20\n      dup1\n      swap2\n      div\n      mul\n      0x20\n      add\n      mload(0x40)\n      swap1\n      dup2\n      add\n      0x40\n      mstore\n      dup1\n      swap3\n      swap2\n      swap1\n      dup2\n      dup2\n      mstore\n      0x20\n      add\n      dup3\n      dup1\n      sload\n      tag_53\n      swap1\n      tag_52\n      jump\t// in\n    tag_53:\n      dup1\n      iszero\n      tag_54\n      jumpi\n      dup1\n      0x1f\n      lt\n      tag_55\n      jumpi\n      0x0100\n      dup1\n      dup4\n      sload\n      div\n      mul\n      dup4\n      mstore\n      swap2\n      0x20\n      add\n      swap2\n      jump(tag_54)\n    tag_55:\n      dup3\n      add\n      swap2\n      swap1\n      0x00\n      mstore\n      keccak256(0x00, 0x20)\n      swap1\n    tag_56:\n      dup2\n      sload\n      dup2\n      mstore\n      swap1\n      0x01\n      add\n      swap1\n      0x20\n      add\n      dup1\n      dup4\n      gt\n      tag_56\n      jumpi\n      dup3\n      swap1\n      sub\n      0x1f\n      and\n      dup3\n      add\n      swap2\n    tag_54:\n      pop\n      pop\n      pop\n      pop\n      pop\n      dup2\n      mstore\n      0x20\n      add\n      0x01\n      dup3\n      add\n      0x00\n      swap1\n      sload\n      swap1\n      0x0100\n      exp\n      swap1\n      div\n      0xffffffffffffffffffffffffffffffffffffffff\n      and\n      0xffffffffffffffffffffffffffffffffffffffff\n      and\n      0xffffffffffffffffffffffffffffffffffffffff\n      and\n      dup2\n      mstore\n      0x20\n      add\n      0x02\n      dup3\n      add\n      sload\n      dup2\n      mstore\n      0x20\n      add\n      0x03\n      dup3\n      add\n      sload\n      dup2\n      mstore\n      0x20\n      add\n      0x04\n      dup3\n      add\n      0x00\n      swap1\n      sload\n      swap1\n      0x0100\n      exp\n      swap1\n      div\n      0xff\n      and\n      iszero\n      iszero\n      iszero\n      iszero\n      dup2\n      mstore\n      0x20\n      add\n      0x05\n      dup3\n      add\n      dup1\n      sload\n      tag_57\n      swap1\n      tag_52\n      jump\t// in\n    tag_57:\n      dup1\n      0x1f\n      add\n      0x20\n      dup1\n      swap2\n      div\n      mul\n      0x20\n      add\n      mload(0x40)\n      swap1\n      dup2\n      add\n      0x40\n      mstore\n      dup1\n      swap3\n      swap2\n      swap1\n      dup2\n      dup2\n      mstore\n      0x20\n      add\n      dup3\n      dup1\n      sload\n      tag_58\n      swap1\n      tag_52\n      jump\t// in\n    tag_58:\n      dup1\n      iszero\n      tag_59\n      jumpi\n      dup1\n      0x1f\n      lt\n      tag_60\n      jumpi\n      0x0100\n      dup1\n      dup4\n      sload\n      div\n      mul\n      dup4\n      mstore\n      swap2\n      0x20\n      add\n      swap2\n      jump(tag_59)\n    tag_60:\n      dup3\n      add\n      swap2\n      swap1\n      0x00\n      mstore\n      keccak256(0x00, 0x20)\n      swap1\n    tag_61:\n      dup2\n      sload\n      dup2\n      mstore\n      swap1\n      0x01\n      add\n      swap1\n      0x20\n      add\n      dup1\n      dup4\n      gt\n      tag_61\n      jumpi\n      dup3\n      swap1\n      sub\n      0x1f\n      and\n      dup3\n      add\n      swap2\n    tag_59:\n      pop\n      pop\n      pop\n      pop\n      pop\n      dup2\n      mstore\n      0x20\n      add\n      0x06\n      dup3\n      add\n      0x00\n      swap1\n      sload\n      swap1\n      0x0100\n      exp\n      swap1\n      div\n      0xff\n      and\n      iszero\n      iszero\n      iszero\n      iszero\n      dup2\n      mstore\n      pop\n      pop\n      swap1\n      pop\n        /* \"contracts/milestone_distribution.sol\":3184:3185  c */\n      dup1\n        /* \"contracts/milestone_distribution.sol\":3184:3190  c.name */\n      0x00\n      add\n      mload\n        /* \"contracts/milestone_distribution.sol\":3205:3206  c */\n      dup2\n        /* \"contracts/milestone_distribution.sol\":3205:3221  c.charityAddress */\n      0x20\n      add\n      mload\n        /* \"contracts/milestone_distribution.sol\":3236:3237  c */\n      dup3\n        /* \"contracts/milestone_distribution.sol\":3236:3249  c.totalRaised */\n      0x40\n      add\n      mload\n        /* \"contracts/milestone_distribution.sol\":3264:3265  c */\n      dup4\n        /* \"contracts/milestone_distribution.sol\":3264:3280  c.targetDonation */\n      0x60\n      add\n      mload\n        /* \"contracts/milestone_distribution.sol\":3295:3296  c */\n      dup5\n        /* \"contracts/milestone_distribution.sol\":3295:3308  c.fundsLocked */\n      0x80\n      add\n      mload\n        /* \"contracts/milestone_distribution.sol\":3323:3324  c */\n      dup6\n        /* \"contracts/milestone_distribution.sol\":3323:3345  c.milestoneDescription */\n      0xa0\n      add\n      mload\n        /* \"contracts/milestone_distribution.sol\":3360:3361  c */\n      dup7\n        /* \"contracts/milestone_distribution.sol\":3360:3381  c.isMilestoneComplete */\n      0xc0\n      add\n      mload\n        /* \"contracts/milestone_distribution.sol\":3162:3392  return (... */\n      swap8\n      pop\n      swap8\n      pop\n      swap8\n      pop\n      swap8\n      pop\n      swap8\n      pop\n      swap8\n      pop\n      swap8\n      pop\n      pop\n        /* \"contracts/milestone_distribution.sol\":2876:3400  function getCharityById(uint256 id) public view returns (string memory name, address charityAddress, uint256 totalRaised, uint256 targetDonation, bool fundsLocked, string memory milestoneDescription, bool isMilestoneComplete){... */\n      swap2\n      swap4\n      swap6\n      swap8\n      swap1\n      swap3\n      swap5\n      swap7\n      pop\n      jump\t// out\n        /* \"contracts/milestone_distribution.sol\":2557:2839  function updateMilestone(uint256 charityID, string memory newDescription) public {... */\n    tag_24:\n        /* \"contracts/milestone_distribution.sol\":2685:2694  charities */\n      0x01\n        /* \"contracts/milestone_distribution.sol\":2685:2705  charities[charityID] */\n      0x00\n        /* \"contracts/milestone_distribution.sol\":2695:2704  charityID */\n      dup4\n        /* \"contracts/milestone_distribution.sol\":2685:2705  charities[charityID] */\n      dup2\n      mstore\n      0x20\n      add\n      swap1\n      dup2\n      mstore\n      0x20\n      add\n      0x00\n      keccak256\n        /* \"contracts/milestone_distribution.sol\":2685:2720  charities[charityID].charityAddress */\n      0x01\n      add\n      0x00\n      swap1\n      sload\n      swap1\n      0x0100\n      exp\n      swap1\n      div\n      0xffffffffffffffffffffffffffffffffffffffff\n      and\n        /* \"contracts/milestone_distribution.sol\":2671:2720  msg.sender == charities[charityID].charityAddress */\n      0xffffffffffffffffffffffffffffffffffffffff\n      and\n        /* \"contracts/milestone_distribution.sol\":2671:2681  msg.sender */\n      caller\n        /* \"contracts/milestone_distribution.sol\":2671:2720  msg.sender == charities[charityID].charityAddress */\n      0xffffffffffffffffffffffffffffffffffffffff\n      and\n      eq\n        /* \"contracts/milestone_distribution.sol\":2649:2762  require(... */\n      tag_63\n      jumpi\n      mload(0x40)\n      0x08c379a000000000000000000000000000000000000000000000000000000000\n      dup2\n      mstore\n      0x04\n      add\n      tag_64\n      swap1\n      tag_65\n      jump\t// in\n    tag_64:\n      mload(0x40)\n      dup1\n      swap2\n      sub\n      swap1\n      revert\n    tag_63:\n        /* \"contracts/milestone_distribution.sol\":2817:2831  newDescription */\n      dup1\n        /* \"contracts/milestone_distribution.sol\":2773:2782  charities */\n      0x01\n        /* \"contracts/milestone_distribution.sol\":2773:2793  charities[charityID] */\n      0x00\n        /* \"contracts/milestone_distribution.sol\":2783:2792  charityID */\n      dup5\n        /* \"contracts/milestone_distribution.sol\":2773:2793  charities[charityID] */\n      dup2\n      mstore\n      0x20\n      add\n      swap1\n      dup2\n      mstore\n      0x20\n      add\n      0x00\n      keccak256\n        /* \"contracts/milestone_distribution.sol\":2773:2814  charities[charityID].milestoneDescription */\n      0x05\n      add\n        /* \"contracts/milestone_distribution.sol\":2773:2831  charities[charityID].milestoneDescription = newDescription */\n      swap1\n      dup2\n      tag_66\n      swap2\n      swap1\n      tag_46\n      jump\t// in\n    tag_66:\n      pop\n        /* \"contracts/milestone_distribution.sol\":2557:2839  function updateMilestone(uint256 charityID, string memory newDescription) public {... */\n      pop\n      pop\n      jump\t// out\n        /* \"contracts/milestone_distribution.sol\":133:160  uint256 public charityCount */\n    tag_26:\n      sload(0x00)\n      dup2\n      jump\t// out\n        /* \"contracts/milestone_distribution.sol\":3492:3869  function charityExists(string memory _charity) public view returns (int256) {... */\n    tag_32:\n        /* \"contracts/milestone_distribution.sol\":3560:3566  int256 */\n      0x00\n        /* \"contracts/milestone_distribution.sol\":3584:3593  uint256 i */\n      0x00\n        /* \"contracts/milestone_distribution.sol\":3596:3597  1 */\n      0x01\n        /* \"contracts/milestone_distribution.sol\":3584:3597  uint256 i = 1 */\n      swap1\n      pop\n        /* \"contracts/milestone_distribution.sol\":3579:3842  for (uint256 i = 1; i <= charityCount; i++) {... */\n    tag_68:\n        /* \"contracts/milestone_distribution.sol\":3604:3616  charityCount */\n      sload(0x00)\n        /* \"contracts/milestone_distribution.sol\":3599:3600  i */\n      dup2\n        /* \"contracts/milestone_distribution.sol\":3599:3616  i <= charityCount */\n      gt\n        /* \"contracts/milestone_distribution.sol\":3579:3842  for (uint256 i = 1; i <= charityCount; i++) {... */\n      tag_69\n      jumpi\n        /* \"contracts/milestone_distribution.sol\":3754:3762  _charity */\n      dup3\n        /* \"contracts/milestone_distribution.sol\":3737:3763  abi.encodePacked(_charity) */\n      add(0x20, mload(0x40))\n      tag_71\n      swap2\n      swap1\n      tag_72\n      jump\t// in\n    tag_71:\n      mload(0x40)\n      0x20\n      dup2\n      dup4\n      sub\n      sub\n      dup2\n      mstore\n      swap1\n      0x40\n      mstore\n        /* \"contracts/milestone_distribution.sol\":3727:3764  keccak256(abi.encodePacked(_charity)) */\n      dup1\n      mload\n      swap1\n      0x20\n      add\n      keccak256\n        /* \"contracts/milestone_distribution.sol\":3687:3696  charities */\n      0x01\n        /* \"contracts/milestone_distribution.sol\":3687:3699  charities[i] */\n      0x00\n        /* \"contracts/milestone_distribution.sol\":3697:3698  i */\n      dup4\n        /* \"contracts/milestone_distribution.sol\":3687:3699  charities[i] */\n      dup2\n      mstore\n      0x20\n      add\n      swap1\n      dup2\n      mstore\n      0x20\n      add\n      0x00\n      keccak256\n        /* \"contracts/milestone_distribution.sol\":3687:3704  charities[i].name */\n      0x00\n      add\n        /* \"contracts/milestone_distribution.sol\":3670:3705  abi.encodePacked(charities[i].name) */\n      add(0x20, mload(0x40))\n      tag_73\n      swap2\n      swap1\n      tag_74\n      jump\t// in\n    tag_73:\n      mload(0x40)\n      0x20\n      dup2\n      dup4\n      sub\n      sub\n      dup2\n      mstore\n      swap1\n      0x40\n      mstore\n        /* \"contracts/milestone_distribution.sol\":3660:3706  keccak256(abi.encodePacked(charities[i].name)) */\n      dup1\n      mload\n      swap1\n      0x20\n      add\n      keccak256\n        /* \"contracts/milestone_distribution.sol\":3660:3764  keccak256(abi.encodePacked(charities[i].name)) ==... */\n      sub\n        /* \"contracts/milestone_distribution.sol\":3638:3831  if (... */\n      tag_75\n      jumpi\n        /* \"contracts/milestone_distribution.sol\":3813:3814  i */\n      dup1\n        /* \"contracts/milestone_distribution.sol\":3799:3815  return int256(i) */\n      swap2\n      pop\n      pop\n      jump(tag_67)\n        /* \"contracts/milestone_distribution.sol\":3638:3831  if (... */\n    tag_75:\n        /* \"contracts/milestone_distribution.sol\":3618:3621  i++ */\n      dup1\n      dup1\n      tag_76\n      swap1\n      tag_44\n      jump\t// in\n    tag_76:\n      swap2\n      pop\n      pop\n        /* \"contracts/milestone_distribution.sol\":3579:3842  for (uint256 i = 1; i <= charityCount; i++) {... */\n      jump(tag_68)\n    tag_69:\n      pop\n        /* \"contracts/milestone_distribution.sol\":3859:3861  -1 */\n      0xffffffffffffffffffffffffffffffffffffffffffffffffffffffffffffffff\n        /* \"contracts/milestone_distribution.sol\":3852:3861  return -1 */\n      swap1\n      pop\n        /* \"contracts/milestone_distribution.sol\":3492:3869  function charityExists(string memory _charity) public view returns (int256) {... */\n    tag_67:\n      swap2\n      swap1\n      pop\n      jump\t// out\n        /* \"contracts/milestone_distribution.sol\":2191:2497  function markMilestoneComplete(uint256 charityID) public {... */\n    tag_37:\n        /* \"contracts/milestone_distribution.sol\":2298:2307  charities */\n      0x01\n        /* \"contracts/milestone_distribution.sol\":2298:2318  charities[charityID] */\n      0x00\n        /* \"contracts/milestone_distribution.sol\":2308:2317  charityID */\n      dup3\n        /* \"contracts/milestone_distribution.sol\":2298:2318  charities[charityID] */\n      dup2\n      mstore\n      0x20\n      add\n      swap1\n      dup2\n      mstore\n      0x20\n      add\n      0x00\n      keccak256\n        /* \"contracts/milestone_distribution.sol\":2298:2333  charities[charityID].targetDonation */\n      0x03\n      add\n      sload\n        /* \"contracts/milestone_distribution.sol\":2262:2271  charities */\n      0x01\n        /* \"contracts/milestone_distribution.sol\":2262:2282  charities[charityID] */\n      0x00\n        /* \"contracts/milestone_distribution.sol\":2272:2281  charityID */\n      dup4\n        /* \"contracts/milestone_distribution.sol\":2262:2282  charities[charityID] */\n      dup2\n      mstore\n      0x20\n      add\n      swap1\n      dup2\n      mstore\n      0x20\n      add\n      0x00\n      keccak256\n        /* \"contracts/milestone_distribution.sol\":2262:2294  charities[charityID].totalRaised */\n      0x02\n      add\n      sload\n        /* \"contracts/milestone_distribution.sol\":2262:2333  charities[charityID].totalRaised >= charities[charityID].targetDonation */\n      lt\n        /* \"contracts/milestone_distribution.sol\":2259:2490  if(charities[charityID].totalRaised >= charities[charityID].targetDonation) {... */\n      tag_78\n      jumpi\n        /* \"contracts/milestone_distribution.sol\":2393:2397  true */\n      0x01\n        /* \"contracts/milestone_distribution.sol\":2350:2359  charities */\n      dup1\n        /* \"contracts/milestone_distribution.sol\":2350:2370  charities[charityID] */\n      0x00\n        /* \"contracts/milestone_distribution.sol\":2360:2369  charityID */\n      dup4\n        /* \"contracts/milestone_distribution.sol\":2350:2370  charities[charityID] */\n      dup2\n      mstore\n      0x20\n      add\n      swap1\n      dup2\n      mstore\n      0x20\n      add\n      0x00\n      keccak256\n        /* \"contracts/milestone_distribution.sol\":2350:2390  charities[charityID].isMilestoneComplete */\n      0x06\n      add\n      0x00\n        /* \"contracts/milestone_distribution.sol\":2350:2397  charities[charityID].isMilestoneComplete = true */\n      0x0100\n      exp\n      dup2\n      sload\n      dup2\n      0xff\n      mul\n      not\n      and\n      swap1\n      dup4\n      iszero\n      iszero\n      mul\n      or\n      swap1\n      sstore\n      pop\n        /* \"contracts/milestone_distribution.sol\":2259:2490  if(charities[charityID].totalRaised >= charities[charityID].targetDonation) {... */\n      jump(tag_79)\n    tag_78:\n        /* \"contracts/milestone_distribution.sol\":2473:2478  false */\n      0x00\n        /* \"contracts/milestone_distribution.sol\":2430:2439  charities */\n      0x01\n        /* \"contracts/milestone_distribution.sol\":2430:2450  charities[charityID] */\n      0x00\n        /* \"contracts/milestone_distribution.sol\":2440:2449  charityID */\n      dup4\n        /* \"contracts/milestone_distribution.sol\":2430:2450  charities[charityID] */\n      dup2\n      mstore\n      0x20\n      add\n      swap1\n      dup2\n      mstore\n      0x20\n      add\n      0x00\n      keccak256\n        /* \"contracts/milestone_distribution.sol\":2430:2470  charities[charityID].isMilestoneComplete */\n      0x06\n      add\n      0x00\n        /* \"contracts/milestone_distribution.sol\":2430:2478  charities[charityID].isMilestoneComplete = false */\n      0x0100\n      exp\n      dup2\n      sload\n      dup2\n      0xff\n      mul\n      not\n      and\n      swap1\n      dup4\n      iszero\n      iszero\n      mul\n      or\n      swap1\n      sstore\n      pop\n        /* \"contracts/milestone_distribution.sol\":2259:2490  if(charities[charityID].totalRaised >= charities[charityID].targetDonation) {... */\n    tag_79:\n        /* \"contracts/milestone_distribution.sol\":2191:2497  function markMilestoneComplete(uint256 charityID) public {... */\n      pop\n      jump\t// out\n        /* \"contracts/milestone_distribution.sol\":1461:2108  function contributeFunds(string memory _charity, uint256 _amount) external {... */\n    tag_41:\n        /* \"contracts/milestone_distribution.sol\":1607:1619  int256 index */\n      0x00\n        /* \"contracts/milestone_distribution.sol\":1622:1645  charityExists(_charity) */\n      tag_81\n        /* \"contracts/milestone_distribution.sol\":1636:1644  _charity */\n      dup4\n        /* \"contracts/milestone_distribution.sol\":1622:1635  charityExists */\n      tag_32\n        /* \"contracts/milestone_distribution.sol\":1622:1645  charityExists(_charity) */\n      jump\t// in\n    tag_81:\n        /* \"contracts/milestone_distribution.sol\":1607:1645  int256 index = charityExists(_charity) */\n      swap1\n      pop\n        /* \"contracts/milestone_distribution.sol\":1673:1675  -1 */\n      0xffffffffffffffffffffffffffffffffffffffffffffffffffffffffffffffff\n        /* \"contracts/milestone_distribution.sol\":1664:1669  index */\n      dup2\n        /* \"contracts/milestone_distribution.sol\":1664:1675  index != -1 */\n      sub\n        /* \"contracts/milestone_distribution.sol\":1656:1702  require(index != -1, \"Charity does not exist\") */\n      tag_82\n      jumpi\n      mload(0x40)\n      0x08c379a000000000000000000000000000000000000000000000000000000000\n      dup2\n      mstore\n      0x04\n      add\n      tag_83\n      swap1\n      tag_84\n      jump\t// in\n    tag_83:\n      mload(0x40)\n      dup1\n      swap2\n      sub\n      swap1\n      revert\n    tag_82:\n        /* \"contracts/milestone_distribution.sol\":1821:1851  CharityDetails storage charity */\n      0x00\n        /* \"contracts/milestone_distribution.sol\":1854:1863  charities */\n      0x01\n        /* \"contracts/milestone_distribution.sol\":1854:1879  charities[uint256(index)] */\n      0x00\n        /* \"contracts/milestone_distribution.sol\":1872:1877  index */\n      dup4\n        /* \"contracts/milestone_distribution.sol\":1854:1879  charities[uint256(index)] */\n      dup2\n      mstore\n      0x20\n      add\n      swap1\n      dup2\n      mstore\n      0x20\n      add\n      0x00\n      keccak256\n        /* \"contracts/milestone_distribution.sol\":1821:1879  CharityDetails storage charity = charities[uint256(index)] */\n      swap1\n      pop\n        /* \"contracts/milestone_distribution.sol\":1913:1920  _amount */\n      dup3\n        /* \"contracts/milestone_distribution.sol\":1890:1897  charity */\n      dup2\n        /* \"contracts/milestone_distribution.sol\":1890:1909  charity.totalRaised */\n      0x02\n      add\n      0x00\n        /* \"contracts/milestone_distribution.sol\":1890:1920  charity.totalRaised += _amount */\n      dup3\n      dup3\n      sload\n      tag_85\n      swap2\n      swap1\n      tag_86\n      jump\t// in\n    tag_85:\n      swap3\n      pop\n      pop\n      dup2\n      swap1\n      sstore\n      pop\n        /* \"contracts/milestone_distribution.sol\":2023:2030  charity */\n      dup1\n        /* \"contracts/milestone_distribution.sol\":2023:2045  charity.targetDonation */\n      0x03\n      add\n      sload\n        /* \"contracts/milestone_distribution.sol\":2000:2007  charity */\n      dup2\n        /* \"contracts/milestone_distribution.sol\":2000:2019  charity.totalRaised */\n      0x02\n      add\n      sload\n        /* \"contracts/milestone_distribution.sol\":2000:2045  charity.totalRaised >= charity.targetDonation */\n      lt\n        /* \"contracts/milestone_distribution.sol\":1996:2101  if (charity.totalRaised >= charity.targetDonation) {... */\n      tag_87\n      jumpi\n        /* \"contracts/milestone_distribution.sol\":2084:2089  false */\n      0x00\n        /* \"contracts/milestone_distribution.sol\":2062:2069  charity */\n      dup2\n        /* \"contracts/milestone_distribution.sol\":2062:2081  charity.fundsLocked */\n      0x04\n      add\n      0x00\n        /* \"contracts/milestone_distribution.sol\":2062:2089  charity.fundsLocked = false */\n      0x0100\n      exp\n      dup2\n      sload\n      dup2\n      0xff\n      mul\n      not\n      and\n      swap1\n      dup4\n      iszero\n      iszero\n      mul\n      or\n      swap1\n      sstore\n      pop\n        /* \"contracts/milestone_distribution.sol\":1996:2101  if (charity.totalRaised >= charity.targetDonation) {... */\n    tag_87:\n        /* \"contracts/milestone_distribution.sol\":1536:2108  {... */\n      pop\n      pop\n        /* \"contracts/milestone_distribution.sol\":1461:2108  function contributeFunds(string memory _charity, uint256 _amount) external {... */\n      pop\n      pop\n      jump\t// out\n        /* \"#utility.yul\":7:82   */\n    tag_88:\n        /* \"#utility.yul\":40:46   */\n      0x00\n        /* \"#utility.yul\":73:75   */\n      0x40\n        /* \"#utility.yul\":67:76   */\n      mload\n        /* \"#utility.yul\":57:76   */\n      swap1\n      pop\n        /* \"#utility.yul\":7:82   */\n      swap1\n      jump\t// out\n        /* \"#utility.yul\":88:205   */\n    tag_89:\n        /* \"#utility.yul\":197:198   */\n      0x00\n        /* \"#utility.yul\":194:195   */\n      0x00\n        /* \"#utility.yul\":187:199   */\n      revert\n        /* \"#utility.yul\":211:328   */\n    tag_90:\n        /* \"#utility.yul\":320:321   */\n      0x00\n        /* \"#utility.yul\":317:318   */\n      0x00\n        /* \"#utility.yul\":310:322   */\n      revert\n        /* \"#utility.yul\":334:451   */\n    tag_91:\n        /* \"#utility.yul\":443:444   */\n      0x00\n        /* \"#utility.yul\":440:441   */\n      0x00\n        /* \"#utility.yul\":433:445   */\n      revert\n        /* \"#utility.yul\":457:574   */\n    tag_92:\n        /* \"#utility.yul\":566:567   */\n      0x00\n        /* \"#utility.yul\":563:564   */\n      0x00\n        /* \"#utility.yul\":556:568   */\n      revert\n        /* \"#utility.yul\":580:682   */\n    tag_93:\n        /* \"#utility.yul\":621:627   */\n      0x00\n        /* \"#utility.yul\":672:674   */\n      0x1f\n        /* \"#utility.yul\":668:675   */\n      not\n        /* \"#utility.yul\":663:665   */\n      0x1f\n        /* \"#utility.yul\":656:661   */\n      dup4\n        /* \"#utility.yul\":652:666   */\n      add\n        /* \"#utility.yul\":648:676   */\n      and\n        /* \"#utility.yul\":638:676   */\n      swap1\n      pop\n        /* \"#utility.yul\":580:682   */\n      swap2\n      swap1\n      pop\n      jump\t// out\n        /* \"#utility.yul\":688:868   */\n    tag_94:\n        /* \"#utility.yul\":736:813   */\n      0x4e487b7100000000000000000000000000000000000000000000000000000000\n        /* \"#utility.yul\":733:734   */\n      0x00\n        /* \"#utility.yul\":726:814   */\n      mstore\n        /* \"#utility.yul\":833:837   */\n      0x41\n        /* \"#utility.yul\":830:831   */\n      0x04\n        /* \"#utility.yul\":823:838   */\n      mstore\n        /* \"#utility.yul\":857:861   */\n      0x24\n        /* \"#utility.yul\":854:855   */\n      0x00\n        /* \"#utility.yul\":847:862   */\n      revert\n        /* \"#utility.yul\":874:1155   */\n    tag_95:\n        /* \"#utility.yul\":957:984   */\n      tag_157\n        /* \"#utility.yul\":979:983   */\n      dup3\n        /* \"#utility.yul\":957:984   */\n      tag_93\n      jump\t// in\n    tag_157:\n        /* \"#utility.yul\":949:955   */\n      dup2\n        /* \"#utility.yul\":945:985   */\n      add\n        /* \"#utility.yul\":1087:1093   */\n      dup2\n        /* \"#utility.yul\":1075:1085   */\n      dup2\n        /* \"#utility.yul\":1072:1094   */\n      lt\n        /* \"#utility.yul\":1051:1069   */\n      0xffffffffffffffff\n        /* \"#utility.yul\":1039:1049   */\n      dup3\n        /* \"#utility.yul\":1036:1070   */\n      gt\n        /* \"#utility.yul\":1033:1095   */\n      or\n        /* \"#utility.yul\":1030:1118   */\n      iszero\n      tag_158\n      jumpi\n        /* \"#utility.yul\":1098:1116   */\n      tag_159\n      tag_94\n      jump\t// in\n    tag_159:\n        /* \"#utility.yul\":1030:1118   */\n    tag_158:\n        /* \"#utility.yul\":1138:1148   */\n      dup1\n        /* \"#utility.yul\":1134:1136   */\n      0x40\n        /* \"#utility.yul\":1127:1149   */\n      mstore\n        /* \"#utility.yul\":917:1155   */\n      pop\n        /* \"#utility.yul\":874:1155   */\n      pop\n      pop\n      jump\t// out\n        /* \"#utility.yul\":1161:1290   */\n    tag_96:\n        /* \"#utility.yul\":1195:1201   */\n      0x00\n        /* \"#utility.yul\":1222:1242   */\n      tag_161\n      tag_88\n      jump\t// in\n    tag_161:\n        /* \"#utility.yul\":1212:1242   */\n      swap1\n      pop\n        /* \"#utility.yul\":1251:1284   */\n      tag_162\n        /* \"#utility.yul\":1279:1283   */\n      dup3\n        /* \"#utility.yul\":1271:1277   */\n      dup3\n        /* \"#utility.yul\":1251:1284   */\n      tag_95\n      jump\t// in\n    tag_162:\n        /* \"#utility.yul\":1161:1290   */\n      swap2\n      swap1\n      pop\n      jump\t// out\n        /* \"#utility.yul\":1296:1604   */\n    tag_97:\n        /* \"#utility.yul\":1358:1362   */\n      0x00\n        /* \"#utility.yul\":1448:1466   */\n      0xffffffffffffffff\n        /* \"#utility.yul\":1440:1446   */\n      dup3\n        /* \"#utility.yul\":1437:1467   */\n      gt\n        /* \"#utility.yul\":1434:1490   */\n      iszero\n      tag_164\n      jumpi\n        /* \"#utility.yul\":1470:1488   */\n      tag_165\n      tag_94\n      jump\t// in\n    tag_165:\n        /* \"#utility.yul\":1434:1490   */\n    tag_164:\n        /* \"#utility.yul\":1508:1537   */\n      tag_166\n        /* \"#utility.yul\":1530:1536   */\n      dup3\n        /* \"#utility.yul\":1508:1537   */\n      tag_93\n      jump\t// in\n    tag_166:\n        /* \"#utility.yul\":1500:1537   */\n      swap1\n      pop\n        /* \"#utility.yul\":1592:1596   */\n      0x20\n        /* \"#utility.yul\":1586:1590   */\n      dup2\n        /* \"#utility.yul\":1582:1597   */\n      add\n        /* \"#utility.yul\":1574:1597   */\n      swap1\n      pop\n        /* \"#utility.yul\":1296:1604   */\n      swap2\n      swap1\n      pop\n      jump\t// out\n        /* \"#utility.yul\":1610:1758   */\n    tag_98:\n        /* \"#utility.yul\":1708:1714   */\n      dup3\n        /* \"#utility.yul\":1703:1706   */\n      dup2\n        /* \"#utility.yul\":1698:1701   */\n      dup4\n        /* \"#utility.yul\":1685:1715   */\n      calldatacopy\n        /* \"#utility.yul\":1749:1750   */\n      0x00\n        /* \"#utility.yul\":1740:1746   */\n      dup4\n        /* \"#utility.yul\":1735:1738   */\n      dup4\n        /* \"#utility.yul\":1731:1747   */\n      add\n        /* \"#utility.yul\":1724:1751   */\n      mstore\n        /* \"#utility.yul\":1610:1758   */\n      pop\n      pop\n      pop\n      jump\t// out\n        /* \"#utility.yul\":1764:2189   */\n    tag_99:\n        /* \"#utility.yul\":1842:1847   */\n      0x00\n        /* \"#utility.yul\":1867:1933   */\n      tag_169\n        /* \"#utility.yul\":1883:1932   */\n      tag_170\n        /* \"#utility.yul\":1925:1931   */\n      dup5\n        /* \"#utility.yul\":1883:1932   */\n      tag_97\n      jump\t// in\n    tag_170:\n        /* \"#utility.yul\":1867:1933   */\n      tag_96\n      jump\t// in\n    tag_169:\n        /* \"#utility.yul\":1858:1933   */\n      swap1\n      pop\n        /* \"#utility.yul\":1956:1962   */\n      dup3\n        /* \"#utility.yul\":1949:1954   */\n      dup2\n        /* \"#utility.yul\":1942:1963   */\n      mstore\n        /* \"#utility.yul\":1994:1998   */\n      0x20\n        /* \"#utility.yul\":1987:1992   */\n      dup2\n        /* \"#utility.yul\":1983:1999   */\n      add\n        /* \"#utility.yul\":2032:2035   */\n      dup5\n        /* \"#utility.yul\":2023:2029   */\n      dup5\n        /* \"#utility.yul\":2018:2021   */\n      dup5\n        /* \"#utility.yul\":2014:2030   */\n      add\n        /* \"#utility.yul\":2011:2036   */\n      gt\n        /* \"#utility.yul\":2008:2120   */\n      iszero\n      tag_171\n      jumpi\n        /* \"#utility.yul\":2039:2118   */\n      tag_172\n      tag_92\n      jump\t// in\n    tag_172:\n        /* \"#utility.yul\":2008:2120   */\n    tag_171:\n        /* \"#utility.yul\":2129:2183   */\n      tag_173\n        /* \"#utility.yul\":2176:2182   */\n      dup5\n        /* \"#utility.yul\":2171:2174   */\n      dup3\n        /* \"#utility.yul\":2166:2169   */\n      dup6\n        /* \"#utility.yul\":2129:2183   */\n      tag_98\n      jump\t// in\n    tag_173:\n        /* \"#utility.yul\":1848:2189   */\n      pop\n        /* \"#utility.yul\":1764:2189   */\n      swap4\n      swap3\n      pop\n      pop\n      pop\n      jump\t// out\n        /* \"#utility.yul\":2209:2549   */\n    tag_100:\n        /* \"#utility.yul\":2265:2270   */\n      0x00\n        /* \"#utility.yul\":2314:2317   */\n      dup3\n        /* \"#utility.yul\":2307:2311   */\n      0x1f\n        /* \"#utility.yul\":2299:2305   */\n      dup4\n        /* \"#utility.yul\":2295:2312   */\n      add\n        /* \"#utility.yul\":2291:2318   */\n      slt\n        /* \"#utility.yul\":2281:2403   */\n      tag_175\n      jumpi\n        /* \"#utility.yul\":2322:2401   */\n      tag_176\n      tag_91\n      jump\t// in\n    tag_176:\n        /* \"#utility.yul\":2281:2403   */\n    tag_175:\n        /* \"#utility.yul\":2439:2445   */\n      dup2\n        /* \"#utility.yul\":2426:2446   */\n      calldataload\n        /* \"#utility.yul\":2464:2543   */\n      tag_177\n        /* \"#utility.yul\":2539:2542   */\n      dup5\n        /* \"#utility.yul\":2531:2537   */\n      dup3\n        /* \"#utility.yul\":2524:2528   */\n      0x20\n        /* \"#utility.yul\":2516:2522   */\n      dup7\n        /* \"#utility.yul\":2512:2529   */\n      add\n        /* \"#utility.yul\":2464:2543   */\n      tag_99\n      jump\t// in\n    tag_177:\n        /* \"#utility.yul\":2455:2543   */\n      swap2\n      pop\n        /* \"#utility.yul\":2271:2549   */\n      pop\n        /* \"#utility.yul\":2209:2549   */\n      swap3\n      swap2\n      pop\n      pop\n      jump\t// out\n        /* \"#utility.yul\":2555:2681   */\n    tag_101:\n        /* \"#utility.yul\":2592:2599   */\n      0x00\n        /* \"#utility.yul\":2632:2674   */\n      0xffffffffffffffffffffffffffffffffffffffff\n        /* \"#utility.yul\":2625:2630   */\n      dup3\n        /* \"#utility.yul\":2621:2675   */\n      and\n        /* \"#utility.yul\":2610:2675   */\n      swap1\n      pop\n        /* \"#utility.yul\":2555:2681   */\n      swap2\n      swap1\n      pop\n      jump\t// out\n        /* \"#utility.yul\":2687:2783   */\n    tag_102:\n        /* \"#utility.yul\":2724:2731   */\n      0x00\n        /* \"#utility.yul\":2753:2777   */\n      tag_180\n        /* \"#utility.yul\":2771:2776   */\n      dup3\n        /* \"#utility.yul\":2753:2777   */\n      tag_101\n      jump\t// in\n    tag_180:\n        /* \"#utility.yul\":2742:2777   */\n      swap1\n      pop\n        /* \"#utility.yul\":2687:2783   */\n      swap2\n      swap1\n      pop\n      jump\t// out\n        /* \"#utility.yul\":2789:2911   */\n    tag_103:\n        /* \"#utility.yul\":2862:2886   */\n      tag_182\n        /* \"#utility.yul\":2880:2885   */\n      dup2\n        /* \"#utility.yul\":2862:2886   */\n      tag_102\n      jump\t// in\n    tag_182:\n        /* \"#utility.yul\":2855:2860   */\n      dup2\n        /* \"#utility.yul\":2852:2887   */\n      eq\n        /* \"#utility.yul\":2842:2905   */\n      tag_183\n      jumpi\n        /* \"#utility.yul\":2901:2902   */\n      0x00\n        /* \"#utility.yul\":2898:2899   */\n      0x00\n        /* \"#utility.yul\":2891:2903   */\n      revert\n        /* \"#utility.yul\":2842:2905   */\n    tag_183:\n        /* \"#utility.yul\":2789:2911   */\n      pop\n      jump\t// out\n        /* \"#utility.yul\":2917:3056   */\n    tag_104:\n        /* \"#utility.yul\":2963:2968   */\n      0x00\n        /* \"#utility.yul\":3001:3007   */\n      dup2\n        /* \"#utility.yul\":2988:3008   */\n      calldataload\n        /* \"#utility.yul\":2979:3008   */\n      swap1\n      pop\n        /* \"#utility.yul\":3017:3050   */\n      tag_185\n        /* \"#utility.yul\":3044:3049   */\n      dup2\n        /* \"#utility.yul\":3017:3050   */\n      tag_103\n      jump\t// in\n    tag_185:\n        /* \"#utility.yul\":2917:3056   */\n      swap3\n      swap2\n      pop\n      pop\n      jump\t// out\n        /* \"#utility.yul\":3062:4041   */\n    tag_13:\n        /* \"#utility.yul\":3159:3165   */\n      0x00\n        /* \"#utility.yul\":3167:3173   */\n      0x00\n        /* \"#utility.yul\":3175:3181   */\n      0x00\n        /* \"#utility.yul\":3224:3226   */\n      0x60\n        /* \"#utility.yul\":3212:3221   */\n      dup5\n        /* \"#utility.yul\":3203:3210   */\n      dup7\n        /* \"#utility.yul\":3199:3222   */\n      sub\n        /* \"#utility.yul\":3195:3227   */\n      slt\n        /* \"#utility.yul\":3192:3311   */\n      iszero\n      tag_187\n      jumpi\n        /* \"#utility.yul\":3230:3309   */\n      tag_188\n      tag_89\n      jump\t// in\n    tag_188:\n        /* \"#utility.yul\":3192:3311   */\n    tag_187:\n        /* \"#utility.yul\":3378:3379   */\n      0x00\n        /* \"#utility.yul\":3367:3376   */\n      dup5\n        /* \"#utility.yul\":3363:3380   */\n      add\n        /* \"#utility.yul\":3350:3381   */\n      calldataload\n        /* \"#utility.yul\":3408:3426   */\n      0xffffffffffffffff\n        /* \"#utility.yul\":3400:3406   */\n      dup2\n        /* \"#utility.yul\":3397:3427   */\n      gt\n        /* \"#utility.yul\":3394:3511   */\n      iszero\n      tag_189\n      jumpi\n        /* \"#utility.yul\":3430:3509   */\n      tag_190\n      tag_90\n      jump\t// in\n    tag_190:\n        /* \"#utility.yul\":3394:3511   */\n    tag_189:\n        /* \"#utility.yul\":3535:3598   */\n      tag_191\n        /* \"#utility.yul\":3590:3597   */\n      dup7\n        /* \"#utility.yul\":3581:3587   */\n      dup3\n        /* \"#utility.yul\":3570:3579   */\n      dup8\n        /* \"#utility.yul\":3566:3588   */\n      add\n        /* \"#utility.yul\":3535:3598   */\n      tag_100\n      jump\t// in\n    tag_191:\n        /* \"#utility.yul\":3525:3598   */\n      swap4\n      pop\n        /* \"#utility.yul\":3321:3608   */\n      pop\n        /* \"#utility.yul\":3647:3649   */\n      0x20\n        /* \"#utility.yul\":3673:3726   */\n      tag_192\n        /* \"#utility.yul\":3718:3725   */\n      dup7\n        /* \"#utility.yul\":3709:3715   */\n      dup3\n        /* \"#utility.yul\":3698:3707   */\n      dup8\n        /* \"#utility.yul\":3694:3716   */\n      add\n        /* \"#utility.yul\":3673:3726   */\n      tag_104\n      jump\t// in\n    tag_192:\n        /* \"#utility.yul\":3663:3726   */\n      swap3\n      pop\n        /* \"#utility.yul\":3618:3736   */\n      pop\n        /* \"#utility.yul\":3803:3805   */\n      0x40\n        /* \"#utility.yul\":3792:3801   */\n      dup5\n        /* \"#utility.yul\":3788:3806   */\n      add\n        /* \"#utility.yul\":3775:3807   */\n      calldataload\n        /* \"#utility.yul\":3834:3852   */\n      0xffffffffffffffff\n        /* \"#utility.yul\":3826:3832   */\n      dup2\n        /* \"#utility.yul\":3823:3853   */\n      gt\n        /* \"#utility.yul\":3820:3937   */\n      iszero\n      tag_193\n      jumpi\n        /* \"#utility.yul\":3856:3935   */\n      tag_194\n      tag_90\n      jump\t// in\n    tag_194:\n        /* \"#utility.yul\":3820:3937   */\n    tag_193:\n        /* \"#utility.yul\":3961:4024   */\n      tag_195\n        /* \"#utility.yul\":4016:4023   */\n      dup7\n        /* \"#utility.yul\":4007:4013   */\n      dup3\n        /* \"#utility.yul\":3996:4005   */\n      dup8\n        /* \"#utility.yul\":3992:4014   */\n      add\n        /* \"#utility.yul\":3961:4024   */\n      tag_100\n      jump\t// in\n    tag_195:\n        /* \"#utility.yul\":3951:4024   */\n      swap2\n      pop\n        /* \"#utility.yul\":3746:4034   */\n      pop\n        /* \"#utility.yul\":3062:4041   */\n      swap3\n      pop\n      swap3\n      pop\n      swap3\n      jump\t// out\n        /* \"#utility.yul\":4047:4124   */\n    tag_105:\n        /* \"#utility.yul\":4084:4091   */\n      0x00\n        /* \"#utility.yul\":4113:4118   */\n      dup2\n        /* \"#utility.yul\":4102:4118   */\n      swap1\n      pop\n        /* \"#utility.yul\":4047:4124   */\n      swap2\n      swap1\n      pop\n      jump\t// out\n        /* \"#utility.yul\":4130:4252   */\n    tag_106:\n        /* \"#utility.yul\":4203:4227   */\n      tag_198\n        /* \"#utility.yul\":4221:4226   */\n      dup2\n        /* \"#utility.yul\":4203:4227   */\n      tag_105\n      jump\t// in\n    tag_198:\n        /* \"#utility.yul\":4196:4201   */\n      dup2\n        /* \"#utility.yul\":4193:4228   */\n      eq\n        /* \"#utility.yul\":4183:4246   */\n      tag_199\n      jumpi\n        /* \"#utility.yul\":4242:4243   */\n      0x00\n        /* \"#utility.yul\":4239:4240   */\n      0x00\n        /* \"#utility.yul\":4232:4244   */\n      revert\n        /* \"#utility.yul\":4183:4246   */\n    tag_199:\n        /* \"#utility.yul\":4130:4252   */\n      pop\n      jump\t// out\n        /* \"#utility.yul\":4258:4397   */\n    tag_107:\n        /* \"#utility.yul\":4304:4309   */\n      0x00\n        /* \"#utility.yul\":4342:4348   */\n      dup2\n        /* \"#utility.yul\":4329:4349   */\n      calldataload\n        /* \"#utility.yul\":4320:4349   */\n      swap1\n      pop\n        /* \"#utility.yul\":4358:4391   */\n      tag_201\n        /* \"#utility.yul\":4385:4390   */\n      dup2\n        /* \"#utility.yul\":4358:4391   */\n      tag_106\n      jump\t// in\n    tag_201:\n        /* \"#utility.yul\":4258:4397   */\n      swap3\n      swap2\n      pop\n      pop\n      jump\t// out\n        /* \"#utility.yul\":4403:4732   */\n    tag_17:\n        /* \"#utility.yul\":4462:4468   */\n      0x00\n        /* \"#utility.yul\":4511:4513   */\n      0x20\n        /* \"#utility.yul\":4499:4508   */\n      dup3\n        /* \"#utility.yul\":4490:4497   */\n      dup5\n        /* \"#utility.yul\":4486:4509   */\n      sub\n        /* \"#utility.yul\":4482:4514   */\n      slt\n        /* \"#utility.yul\":4479:4598   */\n      iszero\n      tag_203\n      jumpi\n        /* \"#utility.yul\":4517:4596   */\n      tag_204\n      tag_89\n      jump\t// in\n    tag_204:\n        /* \"#utility.yul\":4479:4598   */\n    tag_203:\n        /* \"#utility.yul\":4637:4638   */\n      0x00\n        /* \"#utility.yul\":4662:4715   */\n      tag_205\n        /* \"#utility.yul\":4707:4714   */\n      dup5\n        /* \"#utility.yul\":4698:4704   */\n      dup3\n        /* \"#utility.yul\":4687:4696   */\n      dup6\n        /* \"#utility.yul\":4683:4705   */\n      add\n        /* \"#utility.yul\":4662:4715   */\n      tag_107\n      jump\t// in\n    tag_205:\n        /* \"#utility.yul\":4652:4715   */\n      swap2\n      pop\n        /* \"#utility.yul\":4608:4725   */\n      pop\n        /* \"#utility.yul\":4403:4732   */\n      swap3\n      swap2\n      pop\n      pop\n      jump\t// out\n        /* \"#utility.yul\":4738:4837   */\n    tag_108:\n        /* \"#utility.yul\":4790:4796   */\n      0x00\n        /* \"#utility.yul\":4824:4829   */\n      dup2\n        /* \"#utility.yul\":4818:4830   */\n      mload\n        /* \"#utility.yul\":4808:4830   */\n      swap1\n      pop\n        /* \"#utility.yul\":4738:4837   */\n      swap2\n      swap1\n      pop\n      jump\t// out\n        /* \"#utility.yul\":4843:5012   */\n    tag_109:\n        /* \"#utility.yul\":4927:4938   */\n      0x00\n        /* \"#utility.yul\":4961:4967   */\n      dup3\n        /* \"#utility.yul\":4956:4959   */\n      dup3\n        /* \"#utility.yul\":4949:4968   */\n      mstore\n        /* \"#utility.yul\":5001:5005   */\n      0x20\n        /* \"#utility.yul\":4996:4999   */\n      dup3\n        /* \"#utility.yul\":4992:5006   */\n      add\n        /* \"#utility.yul\":4977:5006   */\n      swap1\n      pop\n        /* \"#utility.yul\":4843:5012   */\n      swap3\n      swap2\n      pop\n      pop\n      jump\t// out\n        /* \"#utility.yul\":5018:5157   */\n    tag_110:\n        /* \"#utility.yul\":5107:5113   */\n      dup3\n        /* \"#utility.yul\":5102:5105   */\n      dup2\n        /* \"#utility.yul\":5097:5100   */\n      dup4\n        /* \"#utility.yul\":5091:5114   */\n      mcopy\n        /* \"#utility.yul\":5148:5149   */\n      0x00\n        /* \"#utility.yul\":5139:5145   */\n      dup4\n        /* \"#utility.yul\":5134:5137   */\n      dup4\n        /* \"#utility.yul\":5130:5146   */\n      add\n        /* \"#utility.yul\":5123:5150   */\n      mstore\n        /* \"#utility.yul\":5018:5157   */\n      pop\n      pop\n      pop\n      jump\t// out\n        /* \"#utility.yul\":5163:5540   */\n    tag_111:\n        /* \"#utility.yul\":5251:5254   */\n      0x00\n        /* \"#utility.yul\":5279:5318   */\n      tag_210\n        /* \"#utility.yul\":5312:5317   */\n      dup3\n        /* \"#utility.yul\":5279:5318   */\n      tag_108\n      jump\t// in\n    tag_210:\n        /* \"#utility.yul\":5334:5405   */\n      tag_211\n        /* \"#utility.yul\":5398:5404   */\n      dup2\n        /* \"#utility.yul\":5393:5396   */\n      dup6\n        /* \"#utility.yul\":5334:5405   */\n      tag_109\n      jump\t// in\n    tag_211:\n        /* \"#utility.yul\":5327:5405   */\n      swap4\n      pop\n        /* \"#utility.yul\":5414:5479   */\n      tag_212\n        /* \"#utility.yul\":5472:5478   */\n      dup2\n        /* \"#utility.yul\":5467:5470   */\n      dup6\n        /* \"#utility.yul\":5460:5464   */\n      0x20\n        /* \"#utility.yul\":5453:5458   */\n      dup7\n        /* \"#utility.yul\":5449:5465   */\n      add\n        /* \"#utility.yul\":5414:5479   */\n      tag_110\n      jump\t// in\n    tag_212:\n        /* \"#utility.yul\":5504:5533   */\n      tag_213\n        /* \"#utility.yul\":5526:5532   */\n      dup2\n        /* \"#utility.yul\":5504:5533   */\n      tag_93\n      jump\t// in\n    tag_213:\n        /* \"#utility.yul\":5499:5502   */\n      dup5\n        /* \"#utility.yul\":5495:5534   */\n      add\n        /* \"#utility.yul\":5488:5534   */\n      swap2\n      pop\n        /* \"#utility.yul\":5255:5540   */\n      pop\n        /* \"#utility.yul\":5163:5540   */\n      swap3\n      swap2\n      pop\n      pop\n      jump\t// out\n        /* \"#utility.yul\":5546:5664   */\n    tag_112:\n        /* \"#utility.yul\":5633:5657   */\n      tag_215\n        /* \"#utility.yul\":5651:5656   */\n      dup2\n        /* \"#utility.yul\":5633:5657   */\n      tag_102\n      jump\t// in\n    tag_215:\n        /* \"#utility.yul\":5628:5631   */\n      dup3\n        /* \"#utility.yul\":5621:5658   */\n      mstore\n        /* \"#utility.yul\":5546:5664   */\n      pop\n      pop\n      jump\t// out\n        /* \"#utility.yul\":5670:5788   */\n    tag_113:\n        /* \"#utility.yul\":5757:5781   */\n      tag_217\n        /* \"#utility.yul\":5775:5780   */\n      dup2\n        /* \"#utility.yul\":5757:5781   */\n      tag_105\n      jump\t// in\n    tag_217:\n        /* \"#utility.yul\":5752:5755   */\n      dup3\n        /* \"#utility.yul\":5745:5782   */\n      mstore\n        /* \"#utility.yul\":5670:5788   */\n      pop\n      pop\n      jump\t// out\n        /* \"#utility.yul\":5794:5884   */\n    tag_114:\n        /* \"#utility.yul\":5828:5835   */\n      0x00\n        /* \"#utility.yul\":5871:5876   */\n      dup2\n        /* \"#utility.yul\":5864:5877   */\n      iszero\n        /* \"#utility.yul\":5857:5878   */\n      iszero\n        /* \"#utility.yul\":5846:5878   */\n      swap1\n      pop\n        /* \"#utility.yul\":5794:5884   */\n      swap2\n      swap1\n      pop\n      jump\t// out\n        /* \"#utility.yul\":5890:5999   */\n    tag_115:\n        /* \"#utility.yul\":5971:5992   */\n      tag_220\n        /* \"#utility.yul\":5986:5991   */\n      dup2\n        /* \"#utility.yul\":5971:5992   */\n      tag_114\n      jump\t// in\n    tag_220:\n        /* \"#utility.yul\":5966:5969   */\n      dup3\n        /* \"#utility.yul\":5959:5993   */\n      mstore\n        /* \"#utility.yul\":5890:5999   */\n      pop\n      pop\n      jump\t// out\n        /* \"#utility.yul\":6005:7049   */\n    tag_20:\n        /* \"#utility.yul\":6294:6298   */\n      0x00\n        /* \"#utility.yul\":6332:6335   */\n      0xe0\n        /* \"#utility.yul\":6321:6330   */\n      dup3\n        /* \"#utility.yul\":6317:6336   */\n      add\n        /* \"#utility.yul\":6309:6336   */\n      swap1\n      pop\n        /* \"#utility.yul\":6382:6391   */\n      dup2\n        /* \"#utility.yul\":6376:6380   */\n      dup2\n        /* \"#utility.yul\":6372:6392   */\n      sub\n        /* \"#utility.yul\":6368:6369   */\n      0x00\n        /* \"#utility.yul\":6357:6366   */\n      dup4\n        /* \"#utility.yul\":6353:6370   */\n      add\n        /* \"#utility.yul\":6346:6393   */\n      mstore\n        /* \"#utility.yul\":6410:6488   */\n      tag_222\n        /* \"#utility.yul\":6483:6487   */\n      dup2\n        /* \"#utility.yul\":6474:6480   */\n      dup11\n        /* \"#utility.yul\":6410:6488   */\n      tag_111\n      jump\t// in\n    tag_222:\n        /* \"#utility.yul\":6402:6488   */\n      swap1\n      pop\n        /* \"#utility.yul\":6498:6570   */\n      tag_223\n        /* \"#utility.yul\":6566:6568   */\n      0x20\n        /* \"#utility.yul\":6555:6564   */\n      dup4\n        /* \"#utility.yul\":6551:6569   */\n      add\n        /* \"#utility.yul\":6542:6548   */\n      dup10\n        /* \"#utility.yul\":6498:6570   */\n      tag_112\n      jump\t// in\n    tag_223:\n        /* \"#utility.yul\":6580:6652   */\n      tag_224\n        /* \"#utility.yul\":6648:6650   */\n      0x40\n        /* \"#utility.yul\":6637:6646   */\n      dup4\n        /* \"#utility.yul\":6633:6651   */\n      add\n        /* \"#utility.yul\":6624:6630   */\n      dup9\n        /* \"#utility.yul\":6580:6652   */\n      tag_113\n      jump\t// in\n    tag_224:\n        /* \"#utility.yul\":6662:6734   */\n      tag_225\n        /* \"#utility.yul\":6730:6732   */\n      0x60\n        /* \"#utility.yul\":6719:6728   */\n      dup4\n        /* \"#utility.yul\":6715:6733   */\n      add\n        /* \"#utility.yul\":6706:6712   */\n      dup8\n        /* \"#utility.yul\":6662:6734   */\n      tag_113\n      jump\t// in\n    tag_225:\n        /* \"#utility.yul\":6744:6811   */\n      tag_226\n        /* \"#utility.yul\":6806:6809   */\n      0x80\n        /* \"#utility.yul\":6795:6804   */\n      dup4\n        /* \"#utility.yul\":6791:6810   */\n      add\n        /* \"#utility.yul\":6782:6788   */\n      dup7\n        /* \"#utility.yul\":6744:6811   */\n      tag_115\n      jump\t// in\n    tag_226:\n        /* \"#utility.yul\":6859:6868   */\n      dup2\n        /* \"#utility.yul\":6853:6857   */\n      dup2\n        /* \"#utility.yul\":6849:6869   */\n      sub\n        /* \"#utility.yul\":6843:6846   */\n      0xa0\n        /* \"#utility.yul\":6832:6841   */\n      dup4\n        /* \"#utility.yul\":6828:6847   */\n      add\n        /* \"#utility.yul\":6821:6870   */\n      mstore\n        /* \"#utility.yul\":6887:6965   */\n      tag_227\n        /* \"#utility.yul\":6960:6964   */\n      dup2\n        /* \"#utility.yul\":6951:6957   */\n      dup6\n        /* \"#utility.yul\":6887:6965   */\n      tag_111\n      jump\t// in\n    tag_227:\n        /* \"#utility.yul\":6879:6965   */\n      swap1\n      pop\n        /* \"#utility.yul\":6975:7042   */\n      tag_228\n        /* \"#utility.yul\":7037:7040   */\n      0xc0\n        /* \"#utility.yul\":7026:7035   */\n      dup4\n        /* \"#utility.yul\":7022:7041   */\n      add\n        /* \"#utility.yul\":7013:7019   */\n      dup5\n        /* \"#utility.yul\":6975:7042   */\n      tag_115\n      jump\t// in\n    tag_228:\n        /* \"#utility.yul\":6005:7049   */\n      swap9\n      swap8\n      pop\n      pop\n      pop\n      pop\n      pop\n      pop\n      pop\n      pop\n      jump\t// out\n        /* \"#utility.yul\":7055:7709   */\n    tag_23:\n        /* \"#utility.yul\":7133:7139   */\n      0x00\n        /* \"#utility.yul\":7141:7147   */\n      0x00\n        /* \"#utility.yul\":7190:7192   */\n      0x40\n        /* \"#utility.yul\":7178:7187   */\n      dup4\n        /* \"#utility.yul\":7169:7176   */\n      dup6\n        /* \"#utility.yul\":7165:7188   */\n      sub\n        /* \"#utility.yul\":7161:7193   */\n      slt\n        /* \"#utility.yul\":7158:7277   */\n      iszero\n      tag_230\n      jumpi\n        /* \"#utility.yul\":7196:7275   */\n      tag_231\n      tag_89\n      jump\t// in\n    tag_231:\n        /* \"#utility.yul\":7158:7277   */\n    tag_230:\n        /* \"#utility.yul\":7316:7317   */\n      0x00\n        /* \"#utility.yul\":7341:7394   */\n      tag_232\n        /* \"#utility.yul\":7386:7393   */\n      dup6\n        /* \"#utility.yul\":7377:7383   */\n      dup3\n        /* \"#utility.yul\":7366:7375   */\n      dup7\n        /* \"#utility.yul\":7362:7384   */\n      add\n        /* \"#utility.yul\":7341:7394   */\n      tag_107\n      jump\t// in\n    tag_232:\n        /* \"#utility.yul\":7331:7394   */\n      swap3\n      pop\n        /* \"#utility.yul\":7287:7404   */\n      pop\n        /* \"#utility.yul\":7471:7473   */\n      0x20\n        /* \"#utility.yul\":7460:7469   */\n      dup4\n        /* \"#utility.yul\":7456:7474   */\n      add\n        /* \"#utility.yul\":7443:7475   */\n      calldataload\n        /* \"#utility.yul\":7502:7520   */\n      0xffffffffffffffff\n        /* \"#utility.yul\":7494:7500   */\n      dup2\n        /* \"#utility.yul\":7491:7521   */\n      gt\n        /* \"#utility.yul\":7488:7605   */\n      iszero\n      tag_233\n      jumpi\n        /* \"#utility.yul\":7524:7603   */\n      tag_234\n      tag_90\n      jump\t// in\n    tag_234:\n        /* \"#utility.yul\":7488:7605   */\n    tag_233:\n        /* \"#utility.yul\":7629:7692   */\n      tag_235\n        /* \"#utility.yul\":7684:7691   */\n      dup6\n        /* \"#utility.yul\":7675:7681   */\n      dup3\n        /* \"#utility.yul\":7664:7673   */\n      dup7\n        /* \"#utility.yul\":7660:7682   */\n      add\n        /* \"#utility.yul\":7629:7692   */\n      tag_100\n      jump\t// in\n    tag_235:\n        /* \"#utility.yul\":7619:7692   */\n      swap2\n      pop\n        /* \"#utility.yul\":7414:7702   */\n      pop\n        /* \"#utility.yul\":7055:7709   */\n      swap3\n      pop\n      swap3\n      swap1\n      pop\n      jump\t// out\n        /* \"#utility.yul\":7715:7937   */\n    tag_28:\n        /* \"#utility.yul\":7808:7812   */\n      0x00\n        /* \"#utility.yul\":7846:7848   */\n      0x20\n        /* \"#utility.yul\":7835:7844   */\n      dup3\n        /* \"#utility.yul\":7831:7849   */\n      add\n        /* \"#utility.yul\":7823:7849   */\n      swap1\n      pop\n        /* \"#utility.yul\":7859:7930   */\n      tag_237\n        /* \"#utility.yul\":7927:7928   */\n      0x00\n        /* \"#utility.yul\":7916:7925   */\n      dup4\n        /* \"#utility.yul\":7912:7929   */\n      add\n        /* \"#utility.yul\":7903:7909   */\n      dup5\n        /* \"#utility.yul\":7859:7930   */\n      tag_113\n      jump\t// in\n    tag_237:\n        /* \"#utility.yul\":7715:7937   */\n      swap3\n      swap2\n      pop\n      pop\n      jump\t// out\n        /* \"#utility.yul\":7943:8452   */\n    tag_31:\n        /* \"#utility.yul\":8012:8018   */\n      0x00\n        /* \"#utility.yul\":8061:8063   */\n      0x20\n        /* \"#utility.yul\":8049:8058   */\n      dup3\n        /* \"#utility.yul\":8040:8047   */\n      dup5\n        /* \"#utility.yul\":8036:8059   */\n      sub\n        /* \"#utility.yul\":8032:8064   */\n      slt\n        /* \"#utility.yul\":8029:8148   */\n      iszero\n      tag_239\n      jumpi\n        /* \"#utility.yul\":8067:8146   */\n      tag_240\n      tag_89\n      jump\t// in\n    tag_240:\n        /* \"#utility.yul\":8029:8148   */\n    tag_239:\n        /* \"#utility.yul\":8215:8216   */\n      0x00\n        /* \"#utility.yul\":8204:8213   */\n      dup3\n        /* \"#utility.yul\":8200:8217   */\n      add\n        /* \"#utility.yul\":8187:8218   */\n      calldataload\n        /* \"#utility.yul\":8245:8263   */\n      0xffffffffffffffff\n        /* \"#utility.yul\":8237:8243   */\n      dup2\n        /* \"#utility.yul\":8234:8264   */\n      gt\n        /* \"#utility.yul\":8231:8348   */\n      iszero\n      tag_241\n      jumpi\n        /* \"#utility.yul\":8267:8346   */\n      tag_242\n      tag_90\n      jump\t// in\n    tag_242:\n        /* \"#utility.yul\":8231:8348   */\n    tag_241:\n        /* \"#utility.yul\":8372:8435   */\n      tag_243\n        /* \"#utility.yul\":8427:8434   */\n      dup5\n        /* \"#utility.yul\":8418:8424   */\n      dup3\n        /* \"#utility.yul\":8407:8416   */\n      dup6\n        /* \"#utility.yul\":8403:8425   */\n      add\n        /* \"#utility.yul\":8372:8435   */\n      tag_100\n      jump\t// in\n    tag_243:\n        /* \"#utility.yul\":8362:8435   */\n      swap2\n      pop\n        /* \"#utility.yul\":8158:8445   */\n      pop\n        /* \"#utility.yul\":7943:8452   */\n      swap3\n      swap2\n      pop\n      pop\n      jump\t// out\n        /* \"#utility.yul\":8458:8534   */\n    tag_116:\n        /* \"#utility.yul\":8494:8501   */\n      0x00\n        /* \"#utility.yul\":8523:8528   */\n      dup2\n        /* \"#utility.yul\":8512:8528   */\n      swap1\n      pop\n        /* \"#utility.yul\":8458:8534   */\n      swap2\n      swap1\n      pop\n      jump\t// out\n        /* \"#utility.yul\":8540:8655   */\n    tag_117:\n        /* \"#utility.yul\":8625:8648   */\n      tag_246\n        /* \"#utility.yul\":8642:8647   */\n      dup2\n        /* \"#utility.yul\":8625:8648   */\n      tag_116\n      jump\t// in\n    tag_246:\n        /* \"#utility.yul\":8620:8623   */\n      dup3\n        /* \"#utility.yul\":8613:8649   */\n      mstore\n        /* \"#utility.yul\":8540:8655   */\n      pop\n      pop\n      jump\t// out\n        /* \"#utility.yul\":8661:8879   */\n    tag_34:\n        /* \"#utility.yul\":8752:8756   */\n      0x00\n        /* \"#utility.yul\":8790:8792   */\n      0x20\n        /* \"#utility.yul\":8779:8788   */\n      dup3\n        /* \"#utility.yul\":8775:8793   */\n      add\n        /* \"#utility.yul\":8767:8793   */\n      swap1\n      pop\n        /* \"#utility.yul\":8803:8872   */\n      tag_248\n        /* \"#utility.yul\":8869:8870   */\n      0x00\n        /* \"#utility.yul\":8858:8867   */\n      dup4\n        /* \"#utility.yul\":8854:8871   */\n      add\n        /* \"#utility.yul\":8845:8851   */\n      dup5\n        /* \"#utility.yul\":8803:8872   */\n      tag_117\n      jump\t// in\n    tag_248:\n        /* \"#utility.yul\":8661:8879   */\n      swap3\n      swap2\n      pop\n      pop\n      jump\t// out\n        /* \"#utility.yul\":8885:9539   */\n    tag_40:\n        /* \"#utility.yul\":8963:8969   */\n      0x00\n        /* \"#utility.yul\":8971:8977   */\n      0x00\n        /* \"#utility.yul\":9020:9022   */\n      0x40\n        /* \"#utility.yul\":9008:9017   */\n      dup4\n        /* \"#utility.yul\":8999:9006   */\n      dup6\n        /* \"#utility.yul\":8995:9018   */\n      sub\n        /* \"#utility.yul\":8991:9023   */\n      slt\n        /* \"#utility.yul\":8988:9107   */\n      iszero\n      tag_250\n      jumpi\n        /* \"#utility.yul\":9026:9105   */\n      tag_251\n      tag_89\n      jump\t// in\n    tag_251:\n        /* \"#utility.yul\":8988:9107   */\n    tag_250:\n        /* \"#utility.yul\":9174:9175   */\n      0x00\n        /* \"#utility.yul\":9163:9172   */\n      dup4\n        /* \"#utility.yul\":9159:9176   */\n      add\n        /* \"#utility.yul\":9146:9177   */\n      calldataload\n        /* \"#utility.yul\":9204:9222   */\n      0xffffffffffffffff\n        /* \"#utility.yul\":9196:9202   */\n      dup2\n        /* \"#utility.yul\":9193:9223   */\n      gt\n        /* \"#utility.yul\":9190:9307   */\n      iszero\n      tag_252\n      jumpi\n        /* \"#utility.yul\":9226:9305   */\n      tag_253\n      tag_90\n      jump\t// in\n    tag_253:\n        /* \"#utility.yul\":9190:9307   */\n    tag_252:\n        /* \"#utility.yul\":9331:9394   */\n      tag_254\n        /* \"#utility.yul\":9386:9393   */\n      dup6\n        /* \"#utility.yul\":9377:9383   */\n      dup3\n        /* \"#utility.yul\":9366:9375   */\n      dup7\n        /* \"#utility.yul\":9362:9384   */\n      add\n        /* \"#utility.yul\":9331:9394   */\n      tag_100\n      jump\t// in\n    tag_254:\n        /* \"#utility.yul\":9321:9394   */\n      swap3\n      pop\n        /* \"#utility.yul\":9117:9404   */\n      pop\n        /* \"#utility.yul\":9443:9445   */\n      0x20\n        /* \"#utility.yul\":9469:9522   */\n      tag_255\n        /* \"#utility.yul\":9514:9521   */\n      dup6\n        /* \"#utility.yul\":9505:9511   */\n      dup3\n        /* \"#utility.yul\":9494:9503   */\n      dup7\n        /* \"#utility.yul\":9490:9512   */\n      add\n        /* \"#utility.yul\":9469:9522   */\n      tag_107\n      jump\t// in\n    tag_255:\n        /* \"#utility.yul\":9459:9522   */\n      swap2\n      pop\n        /* \"#utility.yul\":9414:9532   */\n      pop\n        /* \"#utility.yul\":8885:9539   */\n      swap3\n      pop\n      swap3\n      swap1\n      pop\n      jump\t// out\n        /* \"#utility.yul\":9545:9725   */\n    tag_118:\n        /* \"#utility.yul\":9593:9670   */\n      0x4e487b7100000000000000000000000000000000000000000000000000000000\n        /* \"#utility.yul\":9590:9591   */\n      0x00\n        /* \"#utility.yul\":9583:9671   */\n      mstore\n        /* \"#utility.yul\":9690:9694   */\n      0x11\n        /* \"#utility.yul\":9687:9688   */\n      0x04\n        /* \"#utility.yul\":9680:9695   */\n      mstore\n        /* \"#utility.yul\":9714:9718   */\n      0x24\n        /* \"#utility.yul\":9711:9712   */\n      0x00\n        /* \"#utility.yul\":9704:9719   */\n      revert\n        /* \"#utility.yul\":9731:9964   */\n    tag_44:\n        /* \"#utility.yul\":9770:9773   */\n      0x00\n        /* \"#utility.yul\":9793:9817   */\n      tag_258\n        /* \"#utility.yul\":9811:9816   */\n      dup3\n        /* \"#utility.yul\":9793:9817   */\n      tag_105\n      jump\t// in\n    tag_258:\n        /* \"#utility.yul\":9784:9817   */\n      swap2\n      pop\n        /* \"#utility.yul\":9839:9905   */\n      0xffffffffffffffffffffffffffffffffffffffffffffffffffffffffffffffff\n        /* \"#utility.yul\":9832:9837   */\n      dup3\n        /* \"#utility.yul\":9829:9906   */\n      sub\n        /* \"#utility.yul\":9826:9929   */\n      tag_259\n      jumpi\n        /* \"#utility.yul\":9909:9927   */\n      tag_260\n      tag_118\n      jump\t// in\n    tag_260:\n        /* \"#utility.yul\":9826:9929   */\n    tag_259:\n        /* \"#utility.yul\":9956:9957   */\n      0x01\n        /* \"#utility.yul\":9949:9954   */\n      dup3\n        /* \"#utility.yul\":9945:9958   */\n      add\n        /* \"#utility.yul\":9938:9958   */\n      swap1\n      pop\n        /* \"#utility.yul\":9731:9964   */\n      swap2\n      swap1\n      pop\n      jump\t// out\n        /* \"#utility.yul\":9970:10150   */\n    tag_119:\n        /* \"#utility.yul\":10018:10095   */\n      0x4e487b7100000000000000000000000000000000000000000000000000000000\n        /* \"#utility.yul\":10015:10016   */\n      0x00\n        /* \"#utility.yul\":10008:10096   */\n      mstore\n        /* \"#utility.yul\":10115:10119   */\n      0x22\n        /* \"#utility.yul\":10112:10113   */\n      0x04\n        /* \"#utility.yul\":10105:10120   */\n      mstore\n        /* \"#utility.yul\":10139:10143   */\n      0x24\n        /* \"#utility.yul\":10136:10137   */\n      0x00\n        /* \"#utility.yul\":10129:10144   */\n      revert\n        /* \"#utility.yul\":10156:10476   */\n    tag_52:\n        /* \"#utility.yul\":10200:10206   */\n      0x00\n        /* \"#utility.yul\":10237:10238   */\n      0x02\n        /* \"#utility.yul\":10231:10235   */\n      dup3\n        /* \"#utility.yul\":10227:10239   */\n      div\n        /* \"#utility.yul\":10217:10239   */\n      swap1\n      pop\n        /* \"#utility.yul\":10284:10285   */\n      0x01\n        /* \"#utility.yul\":10278:10282   */\n      dup3\n        /* \"#utility.yul\":10274:10286   */\n      and\n        /* \"#utility.yul\":10305:10323   */\n      dup1\n        /* \"#utility.yul\":10295:10376   */\n      tag_263\n      jumpi\n        /* \"#utility.yul\":10361:10365   */\n      0x7f\n        /* \"#utility.yul\":10353:10359   */\n      dup3\n        /* \"#utility.yul\":10349:10366   */\n      and\n        /* \"#utility.yul\":10339:10366   */\n      swap2\n      pop\n        /* \"#utility.yul\":10295:10376   */\n    tag_263:\n        /* \"#utility.yul\":10423:10425   */\n      0x20\n        /* \"#utility.yul\":10415:10421   */\n      dup3\n        /* \"#utility.yul\":10412:10426   */\n      lt\n        /* \"#utility.yul\":10392:10410   */\n      dup2\n        /* \"#utility.yul\":10389:10427   */\n      sub\n        /* \"#utility.yul\":10386:10470   */\n      tag_264\n      jumpi\n        /* \"#utility.yul\":10442:10460   */\n      tag_265\n      tag_119\n      jump\t// in\n    tag_265:\n        /* \"#utility.yul\":10386:10470   */\n    tag_264:\n        /* \"#utility.yul\":10207:10476   */\n      pop\n        /* \"#utility.yul\":10156:10476   */\n      swap2\n      swap1\n      pop\n      jump\t// out\n        /* \"#utility.yul\":10482:10623   */\n    tag_120:\n        /* \"#utility.yul\":10531:10535   */\n      0x00\n        /* \"#utility.yul\":10554:10557   */\n      dup2\n        /* \"#utility.yul\":10546:10557   */\n      swap1\n      pop\n        /* \"#utility.yul\":10577:10580   */\n      dup2\n        /* \"#utility.yul\":10574:10575   */\n      0x00\n        /* \"#utility.yul\":10567:10581   */\n      mstore\n        /* \"#utility.yul\":10611:10615   */\n      0x20\n        /* \"#utility.yul\":10608:10609   */\n      0x00\n        /* \"#utility.yul\":10598:10616   */\n      keccak256\n        /* \"#utility.yul\":10590:10616   */\n      swap1\n      pop\n        /* \"#utility.yul\":10482:10623   */\n      swap2\n      swap1\n      pop\n      jump\t// out\n        /* \"#utility.yul\":10629:10722   */\n    tag_121:\n        /* \"#utility.yul\":10666:10672   */\n      0x00\n        /* \"#utility.yul\":10713:10715   */\n      0x20\n        /* \"#utility.yul\":10708:10710   */\n      0x1f\n        /* \"#utility.yul\":10701:10706   */\n      dup4\n        /* \"#utility.yul\":10697:10711   */\n      add\n        /* \"#utility.yul\":10693:10716   */\n      div\n        /* \"#utility.yul\":10683:10716   */\n      swap1\n      pop\n        /* \"#utility.yul\":10629:10722   */\n      swap2\n      swap1\n      pop\n      jump\t// out\n        /* \"#utility.yul\":10728:10835   */\n    tag_122:\n        /* \"#utility.yul\":10772:10780   */\n      0x00\n        /* \"#utility.yul\":10822:10827   */\n      dup3\n        /* \"#utility.yul\":10816:10820   */\n      dup3\n        /* \"#utility.yul\":10812:10828   */\n      shl\n        /* \"#utility.yul\":10791:10828   */\n      swap1\n      pop\n        /* \"#utility.yul\":10728:10835   */\n      swap3\n      swap2\n      pop\n      pop\n      jump\t// out\n        /* \"#utility.yul\":10841:11234   */\n    tag_123:\n        /* \"#utility.yul\":10910:10916   */\n      0x00\n        /* \"#utility.yul\":10960:10961   */\n      0x08\n        /* \"#utility.yul\":10948:10958   */\n      dup4\n        /* \"#utility.yul\":10944:10962   */\n      mul\n        /* \"#utility.yul\":10983:11080   */\n      tag_270\n        /* \"#utility.yul\":11013:11079   */\n      0xffffffffffffffffffffffffffffffffffffffffffffffffffffffffffffffff\n        /* \"#utility.yul\":11002:11011   */\n      dup3\n        /* \"#utility.yul\":10983:11080   */\n      tag_122\n      jump\t// in\n    tag_270:\n        /* \"#utility.yul\":11101:11140   */\n      tag_271\n        /* \"#utility.yul\":11131:11139   */\n      dup7\n        /* \"#utility.yul\":11120:11129   */\n      dup4\n        /* \"#utility.yul\":11101:11140   */\n      tag_122\n      jump\t// in\n    tag_271:\n        /* \"#utility.yul\":11089:11140   */\n      swap6\n      pop\n        /* \"#utility.yul\":11173:11177   */\n      dup1\n        /* \"#utility.yul\":11169:11178   */\n      not\n        /* \"#utility.yul\":11162:11167   */\n      dup5\n        /* \"#utility.yul\":11158:11179   */\n      and\n        /* \"#utility.yul\":11149:11179   */\n      swap4\n      pop\n        /* \"#utility.yul\":11222:11226   */\n      dup1\n        /* \"#utility.yul\":11212:11220   */\n      dup7\n        /* \"#utility.yul\":11208:11227   */\n      and\n        /* \"#utility.yul\":11201:11206   */\n      dup5\n        /* \"#utility.yul\":11198:11228   */\n      or\n        /* \"#utility.yul\":11188:11228   */\n      swap3\n      pop\n        /* \"#utility.yul\":10917:11234   */\n      pop\n      pop\n        /* \"#utility.yul\":10841:11234   */\n      swap4\n      swap3\n      pop\n      pop\n      pop\n      jump\t// out\n        /* \"#utility.yul\":11240:11300   */\n    tag_124:\n        /* \"#utility.yul\":11268:11271   */\n      0x00\n        /* \"#utility.yul\":11289:11294   */\n      dup2\n        /* \"#utility.yul\":11282:11294   */\n      swap1\n      pop\n        /* \"#utility.yul\":11240:11300   */\n      swap2\n      swap1\n      pop\n      jump\t// out\n        /* \"#utility.yul\":11306:11448   */\n    tag_125:\n        /* \"#utility.yul\":11356:11365   */\n      0x00\n        /* \"#utility.yul\":11389:11442   */\n      tag_274\n        /* \"#utility.yul\":11407:11441   */\n      tag_275\n        /* \"#utility.yul\":11416:11440   */\n      tag_276\n        /* \"#utility.yul\":11434:11439   */\n      dup5\n        /* \"#utility.yul\":11416:11440   */\n      tag_105\n      jump\t// in\n    tag_276:\n        /* \"#utility.yul\":11407:11441   */\n      tag_124\n      jump\t// in\n    tag_275:\n        /* \"#utility.yul\":11389:11442   */\n      tag_105\n      jump\t// in\n    tag_274:\n        /* \"#utility.yul\":11376:11442   */\n      swap1\n      pop\n        /* \"#utility.yul\":11306:11448   */\n      swap2\n      swap1\n      pop\n      jump\t// out\n        /* \"#utility.yul\":11454:11529   */\n    tag_126:\n        /* \"#utility.yul\":11497:11500   */\n      0x00\n        /* \"#utility.yul\":11518:11523   */\n      dup2\n        /* \"#utility.yul\":11511:11523   */\n      swap1\n      pop\n        /* \"#utility.yul\":11454:11529   */\n      swap2\n      swap1\n      pop\n      jump\t// out\n        /* \"#utility.yul\":11535:11804   */\n    tag_127:\n        /* \"#utility.yul\":11645:11684   */\n      tag_279\n        /* \"#utility.yul\":11676:11683   */\n      dup4\n        /* \"#utility.yul\":11645:11684   */\n      tag_125\n      jump\t// in\n    tag_279:\n        /* \"#utility.yul\":11706:11797   */\n      tag_280\n        /* \"#utility.yul\":11755:11796   */\n      tag_281\n        /* \"#utility.yul\":11779:11795   */\n      dup3\n        /* \"#utility.yul\":11755:11796   */\n      tag_126\n      jump\t// in\n    tag_281:\n        /* \"#utility.yul\":11747:11753   */\n      dup5\n        /* \"#utility.yul\":11740:11744   */\n      dup5\n        /* \"#utility.yul\":11734:11745   */\n      sload\n        /* \"#utility.yul\":11706:11797   */\n      tag_123\n      jump\t// in\n    tag_280:\n        /* \"#utility.yul\":11700:11704   */\n      dup3\n        /* \"#utility.yul\":11693:11798   */\n      sstore\n        /* \"#utility.yul\":11611:11804   */\n      pop\n        /* \"#utility.yul\":11535:11804   */\n      pop\n      pop\n      pop\n      jump\t// out\n        /* \"#utility.yul\":11810:11883   */\n    tag_128:\n        /* \"#utility.yul\":11855:11858   */\n      0x00\n        /* \"#utility.yul\":11876:11877   */\n      0x00\n        /* \"#utility.yul\":11869:11877   */\n      swap1\n      pop\n        /* \"#utility.yul\":11810:11883   */\n      swap1\n      jump\t// out\n        /* \"#utility.yul\":11889:12078   */\n    tag_129:\n        /* \"#utility.yul\":11966:11998   */\n      tag_284\n      tag_128\n      jump\t// in\n    tag_284:\n        /* \"#utility.yul\":12007:12072   */\n      tag_285\n        /* \"#utility.yul\":12065:12071   */\n      dup2\n        /* \"#utility.yul\":12057:12063   */\n      dup5\n        /* \"#utility.yul\":12051:12055   */\n      dup5\n        /* \"#utility.yul\":12007:12072   */\n      tag_127\n      jump\t// in\n    tag_285:\n        /* \"#utility.yul\":11942:12078   */\n      pop\n        /* \"#utility.yul\":11889:12078   */\n      pop\n      pop\n      jump\t// out\n        /* \"#utility.yul\":12084:12270   */\n    tag_130:\n        /* \"#utility.yul\":12144:12264   */\n    tag_287:\n        /* \"#utility.yul\":12161:12164   */\n      dup2\n        /* \"#utility.yul\":12154:12159   */\n      dup2\n        /* \"#utility.yul\":12151:12165   */\n      lt\n        /* \"#utility.yul\":12144:12264   */\n      iszero\n      tag_289\n      jumpi\n        /* \"#utility.yul\":12215:12254   */\n      tag_290\n        /* \"#utility.yul\":12252:12253   */\n      0x00\n        /* \"#utility.yul\":12245:12250   */\n      dup3\n        /* \"#utility.yul\":12215:12254   */\n      tag_129\n      jump\t// in\n    tag_290:\n        /* \"#utility.yul\":12188:12189   */\n      0x01\n        /* \"#utility.yul\":12181:12186   */\n      dup2\n        /* \"#utility.yul\":12177:12190   */\n      add\n        /* \"#utility.yul\":12168:12190   */\n      swap1\n      pop\n        /* \"#utility.yul\":12144:12264   */\n      jump(tag_287)\n    tag_289:\n        /* \"#utility.yul\":12084:12270   */\n      pop\n      pop\n      jump\t// out\n        /* \"#utility.yul\":12276:12819   */\n    tag_131:\n        /* \"#utility.yul\":12377:12379   */\n      0x1f\n        /* \"#utility.yul\":12372:12375   */\n      dup3\n        /* \"#utility.yul\":12369:12380   */\n      gt\n        /* \"#utility.yul\":12366:12812   */\n      iszero\n      tag_292\n      jumpi\n        /* \"#utility.yul\":12411:12449   */\n      tag_293\n        /* \"#utility.yul\":12443:12448   */\n      dup2\n        /* \"#utility.yul\":12411:12449   */\n      tag_120\n      jump\t// in\n    tag_293:\n        /* \"#utility.yul\":12495:12524   */\n      tag_294\n        /* \"#utility.yul\":12513:12523   */\n      dup5\n        /* \"#utility.yul\":12495:12524   */\n      tag_121\n      jump\t// in\n    tag_294:\n        /* \"#utility.yul\":12485:12493   */\n      dup2\n        /* \"#utility.yul\":12481:12525   */\n      add\n        /* \"#utility.yul\":12678:12680   */\n      0x20\n        /* \"#utility.yul\":12666:12676   */\n      dup6\n        /* \"#utility.yul\":12663:12681   */\n      lt\n        /* \"#utility.yul\":12660:12709   */\n      iszero\n      tag_295\n      jumpi\n        /* \"#utility.yul\":12699:12707   */\n      dup2\n        /* \"#utility.yul\":12684:12707   */\n      swap1\n      pop\n        /* \"#utility.yul\":12660:12709   */\n    tag_295:\n        /* \"#utility.yul\":12722:12802   */\n      tag_296\n        /* \"#utility.yul\":12778:12800   */\n      tag_297\n        /* \"#utility.yul\":12796:12799   */\n      dup6\n        /* \"#utility.yul\":12778:12800   */\n      tag_121\n      jump\t// in\n    tag_297:\n        /* \"#utility.yul\":12768:12776   */\n      dup4\n        /* \"#utility.yul\":12764:12801   */\n      add\n        /* \"#utility.yul\":12751:12762   */\n      dup3\n        /* \"#utility.yul\":12722:12802   */\n      tag_130\n      jump\t// in\n    tag_296:\n        /* \"#utility.yul\":12381:12812   */\n      pop\n      pop\n        /* \"#utility.yul\":12366:12812   */\n    tag_292:\n        /* \"#utility.yul\":12276:12819   */\n      pop\n      pop\n      pop\n      jump\t// out\n        /* \"#utility.yul\":12825:12942   */\n    tag_132:\n        /* \"#utility.yul\":12879:12887   */\n      0x00\n        /* \"#utility.yul\":12929:12934   */\n      dup3\n        /* \"#utility.yul\":12923:12927   */\n      dup3\n        /* \"#utility.yul\":12919:12935   */\n      shr\n        /* \"#utility.yul\":12898:12935   */\n      swap1\n      pop\n        /* \"#utility.yul\":12825:12942   */\n      swap3\n      swap2\n      pop\n      pop\n      jump\t// out\n        /* \"#utility.yul\":12948:13117   */\n    tag_133:\n        /* \"#utility.yul\":12992:12998   */\n      0x00\n        /* \"#utility.yul\":13025:13076   */\n      tag_300\n        /* \"#utility.yul\":13073:13074   */\n      0x00\n        /* \"#utility.yul\":13069:13075   */\n      not\n        /* \"#utility.yul\":13061:13066   */\n      dup5\n        /* \"#utility.yul\":13058:13059   */\n      0x08\n        /* \"#utility.yul\":13054:13067   */\n      mul\n        /* \"#utility.yul\":13025:13076   */\n      tag_132\n      jump\t// in\n    tag_300:\n        /* \"#utility.yul\":13021:13077   */\n      not\n        /* \"#utility.yul\":13106:13110   */\n      dup1\n        /* \"#utility.yul\":13100:13104   */\n      dup4\n        /* \"#utility.yul\":13096:13111   */\n      and\n        /* \"#utility.yul\":13086:13111   */\n      swap2\n      pop\n        /* \"#utility.yul\":12999:13117   */\n      pop\n        /* \"#utility.yul\":12948:13117   */\n      swap3\n      swap2\n      pop\n      pop\n      jump\t// out\n        /* \"#utility.yul\":13122:13417   */\n    tag_134:\n        /* \"#utility.yul\":13198:13202   */\n      0x00\n        /* \"#utility.yul\":13344:13373   */\n      tag_302\n        /* \"#utility.yul\":13369:13372   */\n      dup4\n        /* \"#utility.yul\":13363:13367   */\n      dup4\n        /* \"#utility.yul\":13344:13373   */\n      tag_133\n      jump\t// in\n    tag_302:\n        /* \"#utility.yul\":13336:13373   */\n      swap2\n      pop\n        /* \"#utility.yul\":13406:13409   */\n      dup3\n        /* \"#utility.yul\":13403:13404   */\n      0x02\n        /* \"#utility.yul\":13399:13410   */\n      mul\n        /* \"#utility.yul\":13393:13397   */\n      dup3\n        /* \"#utility.yul\":13390:13411   */\n      or\n        /* \"#utility.yul\":13382:13411   */\n      swap1\n      pop\n        /* \"#utility.yul\":13122:13417   */\n      swap3\n      swap2\n      pop\n      pop\n      jump\t// out\n        /* \"#utility.yul\":13422:14817   */\n    tag_46:\n        /* \"#utility.yul\":13539:13576   */\n      tag_304\n        /* \"#utility.yul\":13572:13575   */\n      dup3\n        /* \"#utility.yul\":13539:13576   */\n      tag_108\n      jump\t// in\n    tag_304:\n        /* \"#utility.yul\":13641:13659   */\n      0xffffffffffffffff\n        /* \"#utility.yul\":13633:13639   */\n      dup2\n        /* \"#utility.yul\":13630:13660   */\n      gt\n        /* \"#utility.yul\":13627:13683   */\n      iszero\n      tag_305\n      jumpi\n        /* \"#utility.yul\":13663:13681   */\n      tag_306\n      tag_94\n      jump\t// in\n    tag_306:\n        /* \"#utility.yul\":13627:13683   */\n    tag_305:\n        /* \"#utility.yul\":13707:13745   */\n      tag_307\n        /* \"#utility.yul\":13739:13743   */\n      dup3\n        /* \"#utility.yul\":13733:13744   */\n      sload\n        /* \"#utility.yul\":13707:13745   */\n      tag_52\n      jump\t// in\n    tag_307:\n        /* \"#utility.yul\":13792:13859   */\n      tag_308\n        /* \"#utility.yul\":13852:13858   */\n      dup3\n        /* \"#utility.yul\":13844:13850   */\n      dup3\n        /* \"#utility.yul\":13838:13842   */\n      dup6\n        /* \"#utility.yul\":13792:13859   */\n      tag_131\n      jump\t// in\n    tag_308:\n        /* \"#utility.yul\":13886:13887   */\n      0x00\n        /* \"#utility.yul\":13910:13914   */\n      0x20\n        /* \"#utility.yul\":13897:13914   */\n      swap1\n      pop\n        /* \"#utility.yul\":13942:13944   */\n      0x1f\n        /* \"#utility.yul\":13934:13940   */\n      dup4\n        /* \"#utility.yul\":13931:13945   */\n      gt\n        /* \"#utility.yul\":13959:13960   */\n      0x01\n        /* \"#utility.yul\":13954:14572   */\n      dup2\n      eq\n      tag_310\n      jumpi\n        /* \"#utility.yul\":14616:14617   */\n      0x00\n        /* \"#utility.yul\":14633:14639   */\n      dup5\n        /* \"#utility.yul\":14630:14707   */\n      iszero\n      tag_311\n      jumpi\n        /* \"#utility.yul\":14682:14691   */\n      dup3\n        /* \"#utility.yul\":14677:14680   */\n      dup8\n        /* \"#utility.yul\":14673:14692   */\n      add\n        /* \"#utility.yul\":14667:14693   */\n      mload\n        /* \"#utility.yul\":14658:14693   */\n      swap1\n      pop\n        /* \"#utility.yul\":14630:14707   */\n    tag_311:\n        /* \"#utility.yul\":14733:14800   */\n      tag_312\n        /* \"#utility.yul\":14793:14799   */\n      dup6\n        /* \"#utility.yul\":14786:14791   */\n      dup3\n        /* \"#utility.yul\":14733:14800   */\n      tag_134\n      jump\t// in\n    tag_312:\n        /* \"#utility.yul\":14727:14731   */\n      dup7\n        /* \"#utility.yul\":14720:14801   */\n      sstore\n        /* \"#utility.yul\":14589:14811   */\n      pop\n        /* \"#utility.yul\":13924:14811   */\n      jump(tag_309)\n        /* \"#utility.yul\":13954:14572   */\n    tag_310:\n        /* \"#utility.yul\":14006:14010   */\n      0x1f\n        /* \"#utility.yul\":14002:14011   */\n      not\n        /* \"#utility.yul\":13994:14000   */\n      dup5\n        /* \"#utility.yul\":13990:14012   */\n      and\n        /* \"#utility.yul\":14040:14077   */\n      tag_313\n        /* \"#utility.yul\":14072:14076   */\n      dup7\n        /* \"#utility.yul\":14040:14077   */\n      tag_120\n      jump\t// in\n    tag_313:\n        /* \"#utility.yul\":14099:14100   */\n      0x00\n        /* \"#utility.yul\":14113:14321   */\n    tag_314:\n        /* \"#utility.yul\":14127:14134   */\n      dup3\n        /* \"#utility.yul\":14124:14125   */\n      dup2\n        /* \"#utility.yul\":14121:14135   */\n      lt\n        /* \"#utility.yul\":14113:14321   */\n      iszero\n      tag_316\n      jumpi\n        /* \"#utility.yul\":14206:14215   */\n      dup5\n        /* \"#utility.yul\":14201:14204   */\n      dup10\n        /* \"#utility.yul\":14197:14216   */\n      add\n        /* \"#utility.yul\":14191:14217   */\n      mload\n        /* \"#utility.yul\":14183:14189   */\n      dup3\n        /* \"#utility.yul\":14176:14218   */\n      sstore\n        /* \"#utility.yul\":14257:14258   */\n      0x01\n        /* \"#utility.yul\":14249:14255   */\n      dup3\n        /* \"#utility.yul\":14245:14259   */\n      add\n        /* \"#utility.yul\":14235:14259   */\n      swap2\n      pop\n        /* \"#utility.yul\":14304:14306   */\n      0x20\n        /* \"#utility.yul\":14293:14302   */\n      dup6\n        /* \"#utility.yul\":14289:14307   */\n      add\n        /* \"#utility.yul\":14276:14307   */\n      swap5\n      pop\n        /* \"#utility.yul\":14150:14154   */\n      0x20\n        /* \"#utility.yul\":14147:14148   */\n      dup2\n        /* \"#utility.yul\":14143:14155   */\n      add\n        /* \"#utility.yul\":14138:14155   */\n      swap1\n      pop\n        /* \"#utility.yul\":14113:14321   */\n      jump(tag_314)\n    tag_316:\n        /* \"#utility.yul\":14349:14355   */\n      dup7\n        /* \"#utility.yul\":14340:14347   */\n      dup4\n        /* \"#utility.yul\":14337:14356   */\n      lt\n        /* \"#utility.yul\":14334:14513   */\n      iszero\n      tag_317\n      jumpi\n        /* \"#utility.yul\":14407:14416   */\n      dup5\n        /* \"#utility.yul\":14402:14405   */\n      dup10\n        /* \"#utility.yul\":14398:14417   */\n      add\n        /* \"#utility.yul\":14392:14418   */\n      mload\n        /* \"#utility.yul\":14450:14498   */\n      tag_318\n        /* \"#utility.yul\":14492:14496   */\n      0x1f\n        /* \"#utility.yul\":14484:14490   */\n      dup10\n        /* \"#utility.yul\":14480:14497   */\n      and\n        /* \"#utility.yul\":14469:14478   */\n      dup3\n        /* \"#utility.yul\":14450:14498   */\n      tag_133\n      jump\t// in\n    tag_318:\n        /* \"#utility.yul\":14442:14448   */\n      dup4\n        /* \"#utility.yul\":14435:14499   */\n      sstore\n        /* \"#utility.yul\":14357:14513   */\n      pop\n        /* \"#utility.yul\":14334:14513   */\n    tag_317:\n        /* \"#utility.yul\":14559:14560   */\n      0x01\n        /* \"#utility.yul\":14555:14556   */\n      0x02\n        /* \"#utility.yul\":14547:14553   */\n      dup9\n        /* \"#utility.yul\":14543:14557   */\n      mul\n        /* \"#utility.yul\":14539:14561   */\n      add\n        /* \"#utility.yul\":14533:14537   */\n      dup9\n        /* \"#utility.yul\":14526:14562   */\n      sstore\n        /* \"#utility.yul\":13961:14572   */\n      pop\n      pop\n      pop\n        /* \"#utility.yul\":13924:14811   */\n    tag_309:\n      pop\n        /* \"#utility.yul\":13514:14817   */\n      pop\n      pop\n      pop\n        /* \"#utility.yul\":13422:14817   */\n      pop\n      pop\n      jump\t// out\n        /* \"#utility.yul\":14823:14908   */\n    tag_135:\n        /* \"#utility.yul\":14868:14875   */\n      0x00\n        /* \"#utility.yul\":14897:14902   */\n      dup2\n        /* \"#utility.yul\":14886:14902   */\n      swap1\n      pop\n        /* \"#utility.yul\":14823:14908   */\n      swap2\n      swap1\n      pop\n      jump\t// out\n        /* \"#utility.yul\":14914:15072   */\n    tag_136:\n        /* \"#utility.yul\":14972:14981   */\n      0x00\n        /* \"#utility.yul\":15005:15066   */\n      tag_321\n        /* \"#utility.yul\":15023:15065   */\n      tag_322\n        /* \"#utility.yul\":15032:15064   */\n      tag_323\n        /* \"#utility.yul\":15058:15063   */\n      dup5\n        /* \"#utility.yul\":15032:15064   */\n      tag_135\n      jump\t// in\n    tag_323:\n        /* \"#utility.yul\":15023:15065   */\n      tag_124\n      jump\t// in\n    tag_322:\n        /* \"#utility.yul\":15005:15066   */\n      tag_105\n      jump\t// in\n    tag_321:\n        /* \"#utility.yul\":14992:15066   */\n      swap1\n      pop\n        /* \"#utility.yul\":14914:15072   */\n      swap2\n      swap1\n      pop\n      jump\t// out\n        /* \"#utility.yul\":15078:15225   */\n    tag_137:\n        /* \"#utility.yul\":15173:15218   */\n      tag_325\n        /* \"#utility.yul\":15212:15217   */\n      dup2\n        /* \"#utility.yul\":15173:15218   */\n      tag_136\n      jump\t// in\n    tag_325:\n        /* \"#utility.yul\":15168:15171   */\n      dup3\n        /* \"#utility.yul\":15161:15219   */\n      mstore\n        /* \"#utility.yul\":15078:15225   */\n      pop\n      pop\n      jump\t// out\n        /* \"#utility.yul\":15231:15318   */\n    tag_138:\n        /* \"#utility.yul\":15278:15285   */\n      0x00\n        /* \"#utility.yul\":15307:15312   */\n      dup2\n        /* \"#utility.yul\":15296:15312   */\n      swap1\n      pop\n        /* \"#utility.yul\":15231:15318   */\n      swap2\n      swap1\n      pop\n      jump\t// out\n        /* \"#utility.yul\":15324:15486   */\n    tag_139:\n        /* \"#utility.yul\":15384:15393   */\n      0x00\n        /* \"#utility.yul\":15417:15480   */\n      tag_328\n        /* \"#utility.yul\":15435:15479   */\n      tag_329\n        /* \"#utility.yul\":15444:15478   */\n      tag_330\n        /* \"#utility.yul\":15472:15477   */\n      dup5\n        /* \"#utility.yul\":15444:15478   */\n      tag_138\n      jump\t// in\n    tag_330:\n        /* \"#utility.yul\":15435:15479   */\n      tag_124\n      jump\t// in\n    tag_329:\n        /* \"#utility.yul\":15417:15480   */\n      tag_105\n      jump\t// in\n    tag_328:\n        /* \"#utility.yul\":15404:15480   */\n      swap1\n      pop\n        /* \"#utility.yul\":15324:15486   */\n      swap2\n      swap1\n      pop\n      jump\t// out\n        /* \"#utility.yul\":15492:15643   */\n    tag_140:\n        /* \"#utility.yul\":15589:15636   */\n      tag_332\n        /* \"#utility.yul\":15630:15635   */\n      dup2\n        /* \"#utility.yul\":15589:15636   */\n      tag_139\n      jump\t// in\n    tag_332:\n        /* \"#utility.yul\":15584:15587   */\n      dup3\n        /* \"#utility.yul\":15577:15637   */\n      mstore\n        /* \"#utility.yul\":15492:15643   */\n      pop\n      pop\n      jump\t// out\n        /* \"#utility.yul\":15649:16539   */\n    tag_49:\n        /* \"#utility.yul\":15914:15918   */\n      0x00\n        /* \"#utility.yul\":15952:15955   */\n      0xc0\n        /* \"#utility.yul\":15941:15950   */\n      dup3\n        /* \"#utility.yul\":15937:15956   */\n      add\n        /* \"#utility.yul\":15929:15956   */\n      swap1\n      pop\n        /* \"#utility.yul\":15966:16037   */\n      tag_334\n        /* \"#utility.yul\":16034:16035   */\n      0x00\n        /* \"#utility.yul\":16023:16032   */\n      dup4\n        /* \"#utility.yul\":16019:16036   */\n      add\n        /* \"#utility.yul\":16010:16016   */\n      dup10\n        /* \"#utility.yul\":15966:16037   */\n      tag_113\n      jump\t// in\n    tag_334:\n        /* \"#utility.yul\":16084:16093   */\n      dup2\n        /* \"#utility.yul\":16078:16082   */\n      dup2\n        /* \"#utility.yul\":16074:16094   */\n      sub\n        /* \"#utility.yul\":16069:16071   */\n      0x20\n        /* \"#utility.yul\":16058:16067   */\n      dup4\n        /* \"#utility.yul\":16054:16072   */\n      add\n        /* \"#utility.yul\":16047:16095   */\n      mstore\n        /* \"#utility.yul\":16112:16190   */\n      tag_335\n        /* \"#utility.yul\":16185:16189   */\n      dup2\n        /* \"#utility.yul\":16176:16182   */\n      dup9\n        /* \"#utility.yul\":16112:16190   */\n      tag_111\n      jump\t// in\n    tag_335:\n        /* \"#utility.yul\":16104:16190   */\n      swap1\n      pop\n        /* \"#utility.yul\":16200:16272   */\n      tag_336\n        /* \"#utility.yul\":16268:16270   */\n      0x40\n        /* \"#utility.yul\":16257:16266   */\n      dup4\n        /* \"#utility.yul\":16253:16271   */\n      add\n        /* \"#utility.yul\":16244:16250   */\n      dup8\n        /* \"#utility.yul\":16200:16272   */\n      tag_112\n      jump\t// in\n    tag_336:\n        /* \"#utility.yul\":16282:16362   */\n      tag_337\n        /* \"#utility.yul\":16358:16360   */\n      0x60\n        /* \"#utility.yul\":16347:16356   */\n      dup4\n        /* \"#utility.yul\":16343:16361   */\n      add\n        /* \"#utility.yul\":16334:16340   */\n      dup7\n        /* \"#utility.yul\":16282:16362   */\n      tag_137\n      jump\t// in\n    tag_337:\n        /* \"#utility.yul\":16372:16455   */\n      tag_338\n        /* \"#utility.yul\":16450:16453   */\n      0x80\n        /* \"#utility.yul\":16439:16448   */\n      dup4\n        /* \"#utility.yul\":16435:16454   */\n      add\n        /* \"#utility.yul\":16426:16432   */\n      dup6\n        /* \"#utility.yul\":16372:16455   */\n      tag_140\n      jump\t// in\n    tag_338:\n        /* \"#utility.yul\":16465:16532   */\n      tag_339\n        /* \"#utility.yul\":16527:16530   */\n      0xa0\n        /* \"#utility.yul\":16516:16525   */\n      dup4\n        /* \"#utility.yul\":16512:16531   */\n      add\n        /* \"#utility.yul\":16503:16509   */\n      dup5\n        /* \"#utility.yul\":16465:16532   */\n      tag_115\n      jump\t// in\n    tag_339:\n        /* \"#utility.yul\":15649:16539   */\n      swap8\n      swap7\n      pop\n      pop\n      pop\n      pop\n      pop\n      pop\n      pop\n      jump\t// out\n        /* \"#utility.yul\":16545:16709   */\n    tag_141:\n        /* \"#utility.yul\":16685:16701   */\n      0x4e6f7420617574686f72697a6564000000000000000000000000000000000000\n        /* \"#utility.yul\":16681:16682   */\n      0x00\n        /* \"#utility.yul\":16673:16679   */\n      dup3\n        /* \"#utility.yul\":16669:16683   */\n      add\n        /* \"#utility.yul\":16662:16702   */\n      mstore\n        /* \"#utility.yul\":16545:16709   */\n      pop\n      jump\t// out\n        /* \"#utility.yul\":16715:17081   */\n    tag_142:\n        /* \"#utility.yul\":16857:16860   */\n      0x00\n        /* \"#utility.yul\":16878:16945   */\n      tag_342\n        /* \"#utility.yul\":16942:16944   */\n      0x0e\n        /* \"#utility.yul\":16937:16940   */\n      dup4\n        /* \"#utility.yul\":16878:16945   */\n      tag_109\n      jump\t// in\n    tag_342:\n        /* \"#utility.yul\":16871:16945   */\n      swap2\n      pop\n        /* \"#utility.yul\":16954:17047   */\n      tag_343\n        /* \"#utility.yul\":17043:17046   */\n      dup3\n        /* \"#utility.yul\":16954:17047   */\n      tag_141\n      jump\t// in\n    tag_343:\n        /* \"#utility.yul\":17072:17074   */\n      0x20\n        /* \"#utility.yul\":17067:17070   */\n      dup3\n        /* \"#utility.yul\":17063:17075   */\n      add\n        /* \"#utility.yul\":17056:17075   */\n      swap1\n      pop\n        /* \"#utility.yul\":16715:17081   */\n      swap2\n      swap1\n      pop\n      jump\t// out\n        /* \"#utility.yul\":17087:17506   */\n    tag_65:\n        /* \"#utility.yul\":17253:17257   */\n      0x00\n        /* \"#utility.yul\":17291:17293   */\n      0x20\n        /* \"#utility.yul\":17280:17289   */\n      dup3\n        /* \"#utility.yul\":17276:17294   */\n      add\n        /* \"#utility.yul\":17268:17294   */\n      swap1\n      pop\n        /* \"#utility.yul\":17340:17349   */\n      dup2\n        /* \"#utility.yul\":17334:17338   */\n      dup2\n        /* \"#utility.yul\":17330:17350   */\n      sub\n        /* \"#utility.yul\":17326:17327   */\n      0x00\n        /* \"#utility.yul\":17315:17324   */\n      dup4\n        /* \"#utility.yul\":17311:17328   */\n      add\n        /* \"#utility.yul\":17304:17351   */\n      mstore\n        /* \"#utility.yul\":17368:17499   */\n      tag_345\n        /* \"#utility.yul\":17494:17498   */\n      dup2\n        /* \"#utility.yul\":17368:17499   */\n      tag_142\n      jump\t// in\n    tag_345:\n        /* \"#utility.yul\":17360:17499   */\n      swap1\n      pop\n        /* \"#utility.yul\":17087:17506   */\n      swap2\n      swap1\n      pop\n      jump\t// out\n        /* \"#utility.yul\":17512:17660   */\n    tag_143:\n        /* \"#utility.yul\":17614:17625   */\n      0x00\n        /* \"#utility.yul\":17651:17654   */\n      dup2\n        /* \"#utility.yul\":17636:17654   */\n      swap1\n      pop\n        /* \"#utility.yul\":17512:17660   */\n      swap3\n      swap2\n      pop\n      pop\n      jump\t// out\n        /* \"#utility.yul\":17666:18056   */\n    tag_144:\n        /* \"#utility.yul\":17772:17775   */\n      0x00\n        /* \"#utility.yul\":17800:17839   */\n      tag_348\n        /* \"#utility.yul\":17833:17838   */\n      dup3\n        /* \"#utility.yul\":17800:17839   */\n      tag_108\n      jump\t// in\n    tag_348:\n        /* \"#utility.yul\":17855:17944   */\n      tag_349\n        /* \"#utility.yul\":17937:17943   */\n      dup2\n        /* \"#utility.yul\":17932:17935   */\n      dup6\n        /* \"#utility.yul\":17855:17944   */\n      tag_143\n      jump\t// in\n    tag_349:\n        /* \"#utility.yul\":17848:17944   */\n      swap4\n      pop\n        /* \"#utility.yul\":17953:18018   */\n      tag_350\n        /* \"#utility.yul\":18011:18017   */\n      dup2\n        /* \"#utility.yul\":18006:18009   */\n      dup6\n        /* \"#utility.yul\":17999:18003   */\n      0x20\n        /* \"#utility.yul\":17992:17997   */\n      dup7\n        /* \"#utility.yul\":17988:18004   */\n      add\n        /* \"#utility.yul\":17953:18018   */\n      tag_110\n      jump\t// in\n    tag_350:\n        /* \"#utility.yul\":18043:18049   */\n      dup1\n        /* \"#utility.yul\":18038:18041   */\n      dup5\n        /* \"#utility.yul\":18034:18050   */\n      add\n        /* \"#utility.yul\":18027:18050   */\n      swap2\n      pop\n        /* \"#utility.yul\":17776:18056   */\n      pop\n        /* \"#utility.yul\":17666:18056   */\n      swap3\n      swap2\n      pop\n      pop\n      jump\t// out\n        /* \"#utility.yul\":18062:18337   */\n    tag_72:\n        /* \"#utility.yul\":18194:18197   */\n      0x00\n        /* \"#utility.yul\":18216:18311   */\n      tag_352\n        /* \"#utility.yul\":18307:18310   */\n      dup3\n        /* \"#utility.yul\":18298:18304   */\n      dup5\n        /* \"#utility.yul\":18216:18311   */\n      tag_144\n      jump\t// in\n    tag_352:\n        /* \"#utility.yul\":18209:18311   */\n      swap2\n      pop\n        /* \"#utility.yul\":18328:18331   */\n      dup2\n        /* \"#utility.yul\":18321:18331   */\n      swap1\n      pop\n        /* \"#utility.yul\":18062:18337   */\n      swap3\n      swap2\n      pop\n      pop\n      jump\t// out\n        /* \"#utility.yul\":18367:19241   */\n    tag_145:\n        /* \"#utility.yul\":18470:18473   */\n      0x00\n        /* \"#utility.yul\":18507:18512   */\n      dup2\n        /* \"#utility.yul\":18501:18513   */\n      sload\n        /* \"#utility.yul\":18536:18572   */\n      tag_354\n        /* \"#utility.yul\":18562:18571   */\n      dup2\n        /* \"#utility.yul\":18536:18572   */\n      tag_52\n      jump\t// in\n    tag_354:\n        /* \"#utility.yul\":18588:18677   */\n      tag_355\n        /* \"#utility.yul\":18670:18676   */\n      dup2\n        /* \"#utility.yul\":18665:18668   */\n      dup7\n        /* \"#utility.yul\":18588:18677   */\n      tag_143\n      jump\t// in\n    tag_355:\n        /* \"#utility.yul\":18581:18677   */\n      swap5\n      pop\n        /* \"#utility.yul\":18708:18709   */\n      0x01\n        /* \"#utility.yul\":18697:18706   */\n      dup3\n        /* \"#utility.yul\":18693:18710   */\n      and\n        /* \"#utility.yul\":18724:18725   */\n      0x00\n        /* \"#utility.yul\":18719:18885   */\n      dup2\n      eq\n      tag_357\n      jumpi\n        /* \"#utility.yul\":18899:18900   */\n      0x01\n        /* \"#utility.yul\":18894:19235   */\n      dup2\n      eq\n      tag_358\n      jumpi\n        /* \"#utility.yul\":18686:19235   */\n      jump(tag_356)\n        /* \"#utility.yul\":18719:18885   */\n    tag_357:\n        /* \"#utility.yul\":18803:18807   */\n      0xff\n        /* \"#utility.yul\":18799:18808   */\n      not\n        /* \"#utility.yul\":18788:18797   */\n      dup4\n        /* \"#utility.yul\":18784:18809   */\n      and\n        /* \"#utility.yul\":18779:18782   */\n      dup7\n        /* \"#utility.yul\":18772:18810   */\n      mstore\n        /* \"#utility.yul\":18865:18871   */\n      dup2\n        /* \"#utility.yul\":18858:18872   */\n      iszero\n        /* \"#utility.yul\":18851:18873   */\n      iszero\n        /* \"#utility.yul\":18843:18849   */\n      dup3\n        /* \"#utility.yul\":18839:18874   */\n      mul\n        /* \"#utility.yul\":18834:18837   */\n      dup7\n        /* \"#utility.yul\":18830:18875   */\n      add\n        /* \"#utility.yul\":18823:18875   */\n      swap4\n      pop\n        /* \"#utility.yul\":18719:18885   */\n      jump(tag_356)\n        /* \"#utility.yul\":18894:19235   */\n    tag_358:\n        /* \"#utility.yul\":18961:18999   */\n      tag_359\n        /* \"#utility.yul\":18993:18998   */\n      dup6\n        /* \"#utility.yul\":18961:18999   */\n      tag_120\n      jump\t// in\n    tag_359:\n        /* \"#utility.yul\":19021:19022   */\n      0x00\n        /* \"#utility.yul\":19035:19189   */\n    tag_360:\n        /* \"#utility.yul\":19049:19055   */\n      dup4\n        /* \"#utility.yul\":19046:19047   */\n      dup2\n        /* \"#utility.yul\":19043:19056   */\n      lt\n        /* \"#utility.yul\":19035:19189   */\n      iszero\n      tag_362\n      jumpi\n        /* \"#utility.yul\":19123:19130   */\n      dup2\n        /* \"#utility.yul\":19117:19131   */\n      sload\n        /* \"#utility.yul\":19113:19114   */\n      dup2\n        /* \"#utility.yul\":19108:19111   */\n      dup10\n        /* \"#utility.yul\":19104:19115   */\n      add\n        /* \"#utility.yul\":19097:19132   */\n      mstore\n        /* \"#utility.yul\":19173:19174   */\n      0x01\n        /* \"#utility.yul\":19164:19171   */\n      dup3\n        /* \"#utility.yul\":19160:19175   */\n      add\n        /* \"#utility.yul\":19149:19175   */\n      swap2\n      pop\n        /* \"#utility.yul\":19071:19075   */\n      0x20\n        /* \"#utility.yul\":19068:19069   */\n      dup2\n        /* \"#utility.yul\":19064:19076   */\n      add\n        /* \"#utility.yul\":19059:19076   */\n      swap1\n      pop\n        /* \"#utility.yul\":19035:19189   */\n      jump(tag_360)\n    tag_362:\n        /* \"#utility.yul\":19218:19224   */\n      dup4\n        /* \"#utility.yul\":19213:19216   */\n      dup9\n        /* \"#utility.yul\":19209:19225   */\n      add\n        /* \"#utility.yul\":19202:19225   */\n      swap6\n      pop\n        /* \"#utility.yul\":18901:19235   */\n      pop\n      pop\n        /* \"#utility.yul\":18686:19235   */\n    tag_356:\n      pop\n        /* \"#utility.yul\":18474:19241   */\n      pop\n      pop\n        /* \"#utility.yul\":18367:19241   */\n      swap3\n      swap2\n      pop\n      pop\n      jump\t// out\n        /* \"#utility.yul\":19247:19516   */\n    tag_74:\n        /* \"#utility.yul\":19376:19379   */\n      0x00\n        /* \"#utility.yul\":19398:19490   */\n      tag_364\n        /* \"#utility.yul\":19486:19489   */\n      dup3\n        /* \"#utility.yul\":19477:19483   */\n      dup5\n        /* \"#utility.yul\":19398:19490   */\n      tag_145\n      jump\t// in\n    tag_364:\n        /* \"#utility.yul\":19391:19490   */\n      swap2\n      pop\n        /* \"#utility.yul\":19507:19510   */\n      dup2\n        /* \"#utility.yul\":19500:19510   */\n      swap1\n      pop\n        /* \"#utility.yul\":19247:19516   */\n      swap3\n      swap2\n      pop\n      pop\n      jump\t// out\n        /* \"#utility.yul\":19522:19694   */\n    tag_146:\n        /* \"#utility.yul\":19662:19686   */\n      0x4368617269747920646f6573206e6f7420657869737400000000000000000000\n        /* \"#utility.yul\":19658:19659   */\n      0x00\n        /* \"#utility.yul\":19650:19656   */\n      dup3\n        /* \"#utility.yul\":19646:19660   */\n      add\n        /* \"#utility.yul\":19639:19687   */\n      mstore\n        /* \"#utility.yul\":19522:19694   */\n      pop\n      jump\t// out\n        /* \"#utility.yul\":19700:20066   */\n    tag_147:\n        /* \"#utility.yul\":19842:19845   */\n      0x00\n        /* \"#utility.yul\":19863:19930   */\n      tag_367\n        /* \"#utility.yul\":19927:19929   */\n      0x16\n        /* \"#utility.yul\":19922:19925   */\n      dup4\n        /* \"#utility.yul\":19863:19930   */\n      tag_109\n      jump\t// in\n    tag_367:\n        /* \"#utility.yul\":19856:19930   */\n      swap2\n      pop\n        /* \"#utility.yul\":19939:20032   */\n      tag_368\n        /* \"#utility.yul\":20028:20031   */\n      dup3\n        /* \"#utility.yul\":19939:20032   */\n      tag_146\n      jump\t// in\n    tag_368:\n        /* \"#utility.yul\":20057:20059   */\n      0x20\n        /* \"#utility.yul\":20052:20055   */\n      dup3\n        /* \"#utility.yul\":20048:20060   */\n      add\n        /* \"#utility.yul\":20041:20060   */\n      swap1\n      pop\n        /* \"#utility.yul\":19700:20066   */\n      swap2\n      swap1\n      pop\n      jump\t// out\n        /* \"#utility.yul\":20072:20491   */\n    tag_84:\n        /* \"#utility.yul\":20238:20242   */\n      0x00\n        /* \"#utility.yul\":20276:20278   */\n      0x20\n        /* \"#utility.yul\":20265:20274   */\n      dup3\n        /* \"#utility.yul\":20261:20279   */\n      add\n        /* \"#utility.yul\":20253:20279   */\n      swap1\n      pop\n        /* \"#utility.yul\":20325:20334   */\n      dup2\n        /* \"#utility.yul\":20319:20323   */\n      dup2\n        /* \"#utility.yul\":20315:20335   */\n      sub\n        /* \"#utility.yul\":20311:20312   */\n      0x00\n        /* \"#utility.yul\":20300:20309   */\n      dup4\n        /* \"#utility.yul\":20296:20313   */\n      add\n        /* \"#utility.yul\":20289:20336   */\n      mstore\n        /* \"#utility.yul\":20353:20484   */\n      tag_370\n        /* \"#utility.yul\":20479:20483   */\n      dup2\n        /* \"#utility.yul\":20353:20484   */\n      tag_147\n      jump\t// in\n    tag_370:\n        /* \"#utility.yul\":20345:20484   */\n      swap1\n      pop\n        /* \"#utility.yul\":20072:20491   */\n      swap2\n      swap1\n      pop\n      jump\t// out\n        /* \"#utility.yul\":20497:20688   */\n    tag_86:\n        /* \"#utility.yul\":20537:20540   */\n      0x00\n        /* \"#utility.yul\":20556:20576   */\n      tag_372\n        /* \"#utility.yul\":20574:20575   */\n      dup3\n        /* \"#utility.yul\":20556:20576   */\n      tag_105\n      jump\t// in\n    tag_372:\n        /* \"#utility.yul\":20551:20576   */\n      swap2\n      pop\n        /* \"#utility.yul\":20590:20610   */\n      tag_373\n        /* \"#utility.yul\":20608:20609   */\n      dup4\n        /* \"#utility.yul\":20590:20610   */\n      tag_105\n      jump\t// in\n    tag_373:\n        /* \"#utility.yul\":20585:20610   */\n      swap3\n      pop\n        /* \"#utility.yul\":20633:20634   */\n      dup3\n        /* \"#utility.yul\":20630:20631   */\n      dup3\n        /* \"#utility.yul\":20626:20635   */\n      add\n        /* \"#utility.yul\":20619:20635   */\n      swap1\n      pop\n        /* \"#utility.yul\":20654:20657   */\n      dup1\n        /* \"#utility.yul\":20651:20652   */\n      dup3\n        /* \"#utility.yul\":20648:20658   */\n      gt\n        /* \"#utility.yul\":20645:20681   */\n      iszero\n      tag_374\n      jumpi\n        /* \"#utility.yul\":20661:20679   */\n      tag_375\n      tag_118\n      jump\t// in\n    tag_375:\n        /* \"#utility.yul\":20645:20681   */\n    tag_374:\n        /* \"#utility.yul\":20497:20688   */\n      swap3\n      swap2\n      pop\n      pop\n      jump\t// out\n\n    auxdata: 0xa264697066735822122081b1c449e64790cf663969465fcad5027a80c8fd7bc1e8426dd9de68d10f98e164736f6c634300081e0033\n}\n",
				"bytecode": {
					"linkReferences": {},
					"object": "6080604052348015600e575f5ffd5b506113158061001c5f395ff3fe608060405234801561000f575f5ffd5b506004361061007b575f3560e01c8063913294931161005957806391329493146100ed5780639d32c1861461010b578063ee9a54321461013b578063f25d75e7146101575761007b565b806314932c6b1461007f57806321b914bc1461009b57806346877a38146100d1575b5f5ffd5b610099600480360381019061009491906109a0565b610173565b005b6100b560048036038101906100b09190610a5b565b6102f8565b6040516100c89796959493929190610b1e565b60405180910390f35b6100eb60048036038101906100e69190610b99565b610518565b005b6100f56105df565b6040516101029190610bf3565b60405180910390f35b61012560048036038101906101209190610c0c565b6105e4565b6040516101329190610c6b565b60405180910390f35b61015560048036038101906101509190610a5b565b61069e565b005b610171600480360381019061016c9190610c84565b61072c565b005b5f5f81548092919061018490610d0b565b91905055506040518060e001604052808481526020018373ffffffffffffffffffffffffffffffffffffffff1681526020015f8152602001606481526020016001151581526020018281526020015f151581525060015f5f5481526020019081526020015f205f820151815f0190816101fd9190610f4f565b506020820151816001015f6101000a81548173ffffffffffffffffffffffffffffffffffffffff021916908373ffffffffffffffffffffffffffffffffffffffff16021790555060408201518160020155606082015181600301556080820151816004015f6101000a81548160ff02191690831515021790555060a082015181600501908161028c9190610f4f565b5060c0820151816006015f6101000a81548160ff0219169083151502179055509050507f9738ee50ef49bc3ba8025ef429ffc26a3c6427e51abca46e5ea80429f1c17b4b5f5484845f606460016040516102eb96959493929190611090565b60405180910390a1505050565b60605f5f5f5f60605f5f60015f8a81526020019081526020015f206040518060e00160405290815f8201805461032d90610d7f565b80601f016020809104026020016040519081016040528092919081815260200182805461035990610d7f565b80156103a45780601f1061037b576101008083540402835291602001916103a4565b820191905f5260205f20905b81548152906001019060200180831161038757829003601f168201915b50505050508152602001600182015f9054906101000a900473ffffffffffffffffffffffffffffffffffffffff1673ffffffffffffffffffffffffffffffffffffffff1673ffffffffffffffffffffffffffffffffffffffff1681526020016002820154815260200160038201548152602001600482015f9054906101000a900460ff1615151515815260200160058201805461044090610d7f565b80601f016020809104026020016040519081016040528092919081815260200182805461046c90610d7f565b80156104b75780601f1061048e576101008083540402835291602001916104b7565b820191905f5260205f20905b81548152906001019060200180831161049a57829003601f168201915b50505050508152602001600682015f9054906101000a900460ff1615151515815250509050805f015181602001518260400151836060015184608001518560a001518660c00151975097509750975097509750975050919395979092949650565b60015f8381526020019081526020015f206001015f9054906101000a900473ffffffffffffffffffffffffffffffffffffffff1673ffffffffffffffffffffffffffffffffffffffff163373ffffffffffffffffffffffffffffffffffffffff16146105b9576040517f08c379a00000000000000000000000000000000000000000000000000000000081526004016105b090611140565b60405180910390fd5b8060015f8481526020019081526020015f2060050190816105da9190610f4f565b505050565b5f5481565b5f5f600190505b5f54811161067457826040516020016106049190611198565b6040516020818303038152906040528051906020012060015f8381526020019081526020015f205f0160405160200161063d919061122e565b60405160208183030381529060405280519060200120036106615780915050610699565b808061066c90610d0b565b9150506105eb565b507fffffffffffffffffffffffffffffffffffffffffffffffffffffffffffffffff90505b919050565b60015f8281526020019081526020015f206003015460015f8381526020019081526020015f2060020154106106fd576001805f8381526020019081526020015f206006015f6101000a81548160ff021916908315150217905550610729565b5f60015f8381526020019081526020015f206006015f6101000a81548160ff0219169083151502179055505b50565b5f610736836105e4565b90507fffffffffffffffffffffffffffffffffffffffffffffffffffffffffffffffff810361079a576040517f08c379a00000000000000000000000000000000000000000000000000000000081526004016107919061128e565b60405180910390fd5b5f60015f8381526020019081526020015f20905082816002015f8282546107c191906112ac565b9250508190555080600301548160020154106107f3575f816004015f6101000a81548160ff0219169083151502179055505b50505050565b5f604051905090565b5f5ffd5b5f5ffd5b5f5ffd5b5f5ffd5b5f601f19601f8301169050919050565b7f4e487b71000000000000000000000000000000000000000000000000000000005f52604160045260245ffd5b61085882610812565b810181811067ffffffffffffffff8211171561087757610876610822565b5b80604052505050565b5f6108896107f9565b9050610895828261084f565b919050565b5f67ffffffffffffffff8211156108b4576108b3610822565b5b6108bd82610812565b9050602081019050919050565b828183375f83830152505050565b5f6108ea6108e58461089a565b610880565b9050828152602081018484840111156109065761090561080e565b5b6109118482856108ca565b509392505050565b5f82601f83011261092d5761092c61080a565b5b813561093d8482602086016108d8565b91505092915050565b5f73ffffffffffffffffffffffffffffffffffffffff82169050919050565b5f61096f82610946565b9050919050565b61097f81610965565b8114610989575f5ffd5b50565b5f8135905061099a81610976565b92915050565b5f5f5f606084860312156109b7576109b6610802565b5b5f84013567ffffffffffffffff8111156109d4576109d3610806565b5b6109e086828701610919565b93505060206109f18682870161098c565b925050604084013567ffffffffffffffff811115610a1257610a11610806565b5b610a1e86828701610919565b9150509250925092565b5f819050919050565b610a3a81610a28565b8114610a44575f5ffd5b50565b5f81359050610a5581610a31565b92915050565b5f60208284031215610a7057610a6f610802565b5b5f610a7d84828501610a47565b91505092915050565b5f81519050919050565b5f82825260208201905092915050565b8281835e5f83830152505050565b5f610ab882610a86565b610ac28185610a90565b9350610ad2818560208601610aa0565b610adb81610812565b840191505092915050565b610aef81610965565b82525050565b610afe81610a28565b82525050565b5f8115159050919050565b610b1881610b04565b82525050565b5f60e0820190508181035f830152610b36818a610aae565b9050610b456020830189610ae6565b610b526040830188610af5565b610b5f6060830187610af5565b610b6c6080830186610b0f565b81810360a0830152610b7e8185610aae565b9050610b8d60c0830184610b0f565b98975050505050505050565b5f5f60408385031215610baf57610bae610802565b5b5f610bbc85828601610a47565b925050602083013567ffffffffffffffff811115610bdd57610bdc610806565b5b610be985828601610919565b9150509250929050565b5f602082019050610c065f830184610af5565b92915050565b5f60208284031215610c2157610c20610802565b5b5f82013567ffffffffffffffff811115610c3e57610c3d610806565b5b610c4a84828501610919565b91505092915050565b5f819050919050565b610c6581610c53565b82525050565b5f602082019050610c7e5f830184610c5c565b92915050565b5f5f60408385031215610c9a57610c99610802565b5b5f83013567ffffffffffffffff811115610cb757610cb6610806565b5b610cc385828601610919565b9250506020610cd485828601610a47565b9150509250929050565b7f4e487b71000000000000000000000000000000000000000000000000000000005f52601160045260245ffd5b5f610d1582610a28565b91507fffffffffffffffffffffffffffffffffffffffffffffffffffffffffffffffff8203610d4757610d46610cde565b5b600182019050919050565b7f4e487b71000000000000000000000000000000000000000000000000000000005f52602260045260245ffd5b5f6002820490506001821680610d9657607f821691505b602082108103610da957610da8610d52565b5b50919050565b5f819050815f5260205f209050919050565b5f6020601f8301049050919050565b5f82821b905092915050565b5f60088302610e0b7fffffffffffffffffffffffffffffffffffffffffffffffffffffffffffffffff82610dd0565b610e158683610dd0565b95508019841693508086168417925050509392505050565b5f819050919050565b5f610e50610e4b610e4684610a28565b610e2d565b610a28565b9050919050565b5f819050919050565b610e6983610e36565b610e7d610e7582610e57565b848454610ddc565b825550505050565b5f5f905090565b610e94610e85565b610e9f818484610e60565b505050565b5b81811015610ec257610eb75f82610e8c565b600181019050610ea5565b5050565b601f821115610f0757610ed881610daf565b610ee184610dc1565b81016020851015610ef0578190505b610f04610efc85610dc1565b830182610ea4565b50505b505050565b5f82821c905092915050565b5f610f275f1984600802610f0c565b1980831691505092915050565b5f610f3f8383610f18565b9150826002028217905092915050565b610f5882610a86565b67ffffffffffffffff811115610f7157610f70610822565b5b610f7b8254610d7f565b610f86828285610ec6565b5f60209050601f831160018114610fb7575f8415610fa5578287015190505b610faf8582610f34565b865550611016565b601f198416610fc586610daf565b5f5b82811015610fec57848901518255600182019150602085019450602081019050610fc7565b868310156110095784890151611005601f891682610f18565b8355505b6001600288020188555050505b505050505050565b5f819050919050565b5f61104161103c6110378461101e565b610e2d565b610a28565b9050919050565b61105181611027565b82525050565b5f819050919050565b5f61107a61107561107084611057565b610e2d565b610a28565b9050919050565b61108a81611060565b82525050565b5f60c0820190506110a35f830189610af5565b81810360208301526110b58188610aae565b90506110c46040830187610ae6565b6110d16060830186611048565b6110de6080830185611081565b6110eb60a0830184610b0f565b979650505050505050565b7f4e6f7420617574686f72697a65640000000000000000000000000000000000005f82015250565b5f61112a600e83610a90565b9150611135826110f6565b602082019050919050565b5f6020820190508181035f8301526111578161111e565b9050919050565b5f81905092915050565b5f61117282610a86565b61117c818561115e565b935061118c818560208601610aa0565b80840191505092915050565b5f6111a38284611168565b915081905092915050565b5f81546111ba81610d7f565b6111c4818661115e565b9450600182165f81146111de57600181146111f357611225565b60ff1983168652811515820286019350611225565b6111fc85610daf565b5f5b8381101561121d578154818901526001820191506020810190506111fe565b838801955050505b50505092915050565b5f61123982846111ae565b915081905092915050565b7f4368617269747920646f6573206e6f74206578697374000000000000000000005f82015250565b5f611278601683610a90565b915061128382611244565b602082019050919050565b5f6020820190508181035f8301526112a58161126c565b9050919050565b5f6112b682610a28565b91506112c183610a28565b92508282019050808211156112d9576112d8610cde565b5b9291505056fea264697066735822122081b1c449e64790cf663969465fcad5027a80c8fd7bc1e8426dd9de68d10f98e164736f6c634300081e0033",
					"opcodes": "PUSH1 0x80 PUSH1 0x40 MSTORE CALLVALUE DUP1 ISZERO PUSH1 0xE JUMPI PUSH0 PUSH0 REVERT JUMPDEST POP PUSH2 0x1315 DUP1 PUSH2 0x1C PUSH0 CODECOPY PUSH0 RETURN INVALID PUSH1 0x80 PUSH1 0x40 MSTORE CALLVALUE DUP1 ISZERO PUSH2 0xF JUMPI PUSH0 PUSH0 REVERT JUMPDEST POP PUSH1 0x4 CALLDATASIZE LT PUSH2 0x7B JUMPI PUSH0 CALLDATALOAD PUSH1 0xE0 SHR DUP1 PUSH4 0x91329493 GT PUSH2 0x59 JUMPI DUP1 PUSH4 0x91329493 EQ PUSH2 0xED JUMPI DUP1 PUSH4 0x9D32C186 EQ PUSH2 0x10B JUMPI DUP1 PUSH4 0xEE9A5432 EQ PUSH2 0x13B JUMPI DUP1 PUSH4 0xF25D75E7 EQ PUSH2 0x157 JUMPI PUSH2 0x7B JUMP JUMPDEST DUP1 PUSH4 0x14932C6B EQ PUSH2 0x7F JUMPI DUP1 PUSH4 0x21B914BC EQ PUSH2 0x9B JUMPI DUP1 PUSH4 0x46877A38 EQ PUSH2 0xD1 JUMPI JUMPDEST PUSH0 PUSH0 REVERT JUMPDEST PUSH2 0x99 PUSH1 0x4 DUP1 CALLDATASIZE SUB DUP2 ADD SWAP1 PUSH2 0x94 SWAP2 SWAP1 PUSH2 0x9A0 JUMP JUMPDEST PUSH2 0x173 JUMP JUMPDEST STOP JUMPDEST PUSH2 0xB5 PUSH1 0x4 DUP1 CALLDATASIZE SUB DUP2 ADD SWAP1 PUSH2 0xB0 SWAP2 SWAP1 PUSH2 0xA5B JUMP JUMPDEST PUSH2 0x2F8 JUMP JUMPDEST PUSH1 0x40 MLOAD PUSH2 0xC8 SWAP8 SWAP7 SWAP6 SWAP5 SWAP4 SWAP3 SWAP2 SWAP1 PUSH2 0xB1E JUMP JUMPDEST PUSH1 0x40 MLOAD DUP1 SWAP2 SUB SWAP1 RETURN JUMPDEST PUSH2 0xEB PUSH1 0x4 DUP1 CALLDATASIZE SUB DUP2 ADD SWAP1 PUSH2 0xE6 SWAP2 SWAP1 PUSH2 0xB99 JUMP JUMPDEST PUSH2 0x518 JUMP JUMPDEST STOP JUMPDEST PUSH2 0xF5 PUSH2 0x5DF JUMP JUMPDEST PUSH1 0x40 MLOAD PUSH2 0x102 SWAP2 SWAP1 PUSH2 0xBF3 JUMP JUMPDEST PUSH1 0x40 MLOAD DUP1 SWAP2 SUB SWAP1 RETURN JUMPDEST PUSH2 0x125 PUSH1 0x4 DUP1 CALLDATASIZE SUB DUP2 ADD SWAP1 PUSH2 0x120 SWAP2 SWAP1 PUSH2 0xC0C JUMP JUMPDEST PUSH2 0x5E4 JUMP JUMPDEST PUSH1 0x40 MLOAD PUSH2 0x132 SWAP2 SWAP1 PUSH2 0xC6B JUMP JUMPDEST PUSH1 0x40 MLOAD DUP1 SWAP2 SUB SWAP1 RETURN JUMPDEST PUSH2 0x155 PUSH1 0x4 DUP1 CALLDATASIZE SUB DUP2 ADD SWAP1 PUSH2 0x150 SWAP2 SWAP1 PUSH2 0xA5B JUMP JUMPDEST PUSH2 0x69E JUMP JUMPDEST STOP JUMPDEST PUSH2 0x171 PUSH1 0x4 DUP1 CALLDATASIZE SUB DUP2 ADD SWAP1 PUSH2 0x16C SWAP2 SWAP1 PUSH2 0xC84 JUMP JUMPDEST PUSH2 0x72C JUMP JUMPDEST STOP JUMPDEST PUSH0 PUSH0 DUP2 SLOAD DUP1 SWAP3 SWAP2 SWAP1 PUSH2 0x184 SWAP1 PUSH2 0xD0B JUMP JUMPDEST SWAP2 SWAP1 POP SSTORE POP PUSH1 0x40 MLOAD DUP1 PUSH1 0xE0 ADD PUSH1 0x40 MSTORE DUP1 DUP5 DUP2 MSTORE PUSH1 0x20 ADD DUP4 PUSH20 0xFFFFFFFFFFFFFFFFFFFFFFFFFFFFFFFFFFFFFFFF AND DUP2 MSTORE PUSH1 0x20 ADD PUSH0 DUP2 MSTORE PUSH1 0x20 ADD PUSH1 0x64 DUP2 MSTORE PUSH1 0x20 ADD PUSH1 0x1 ISZERO ISZERO DUP2 MSTORE PUSH1 0x20 ADD DUP3 DUP2 MSTORE PUSH1 0x20 ADD PUSH0 ISZERO ISZERO DUP2 MSTORE POP PUSH1 0x1 PUSH0 PUSH0 SLOAD DUP2 MSTORE PUSH1 0x20 ADD SWAP1 DUP2 MSTORE PUSH1 0x20 ADD PUSH0 KECCAK256 PUSH0 DUP3 ADD MLOAD DUP2 PUSH0 ADD SWAP1 DUP2 PUSH2 0x1FD SWAP2 SWAP1 PUSH2 0xF4F JUMP JUMPDEST POP PUSH1 0x20 DUP3 ADD MLOAD DUP2 PUSH1 0x1 ADD PUSH0 PUSH2 0x100 EXP DUP2 SLOAD DUP2 PUSH20 0xFFFFFFFFFFFFFFFFFFFFFFFFFFFFFFFFFFFFFFFF MUL NOT AND SWAP1 DUP4 PUSH20 0xFFFFFFFFFFFFFFFFFFFFFFFFFFFFFFFFFFFFFFFF AND MUL OR SWAP1 SSTORE POP PUSH1 0x40 DUP3 ADD MLOAD DUP2 PUSH1 0x2 ADD SSTORE PUSH1 0x60 DUP3 ADD MLOAD DUP2 PUSH1 0x3 ADD SSTORE PUSH1 0x80 DUP3 ADD MLOAD DUP2 PUSH1 0x4 ADD PUSH0 PUSH2 0x100 EXP DUP2 SLOAD DUP2 PUSH1 0xFF MUL NOT AND SWAP1 DUP4 ISZERO ISZERO MUL OR SWAP1 SSTORE POP PUSH1 0xA0 DUP3 ADD MLOAD DUP2 PUSH1 0x5 ADD SWAP1 DUP2 PUSH2 0x28C SWAP2 SWAP1 PUSH2 0xF4F JUMP JUMPDEST POP PUSH1 0xC0 DUP3 ADD MLOAD DUP2 PUSH1 0x6 ADD PUSH0 PUSH2 0x100 EXP DUP2 SLOAD DUP2 PUSH1 0xFF MUL NOT AND SWAP1 DUP4 ISZERO ISZERO MUL OR SWAP1 SSTORE POP SWAP1 POP POP PUSH32 0x9738EE50EF49BC3BA8025EF429FFC26A3C6427E51ABCA46E5EA80429F1C17B4B PUSH0 SLOAD DUP5 DUP5 PUSH0 PUSH1 0x64 PUSH1 0x1 PUSH1 0x40 MLOAD PUSH2 0x2EB SWAP7 SWAP6 SWAP5 SWAP4 SWAP3 SWAP2 SWAP1 PUSH2 0x1090 JUMP JUMPDEST PUSH1 0x40 MLOAD DUP1 SWAP2 SUB SWAP1 LOG1 POP POP POP JUMP JUMPDEST PUSH1 0x60 PUSH0 PUSH0 PUSH0 PUSH0 PUSH1 0x60 PUSH0 PUSH0 PUSH1 0x1 PUSH0 DUP11 DUP2 MSTORE PUSH1 0x20 ADD SWAP1 DUP2 MSTORE PUSH1 0x20 ADD PUSH0 KECCAK256 PUSH1 0x40 MLOAD DUP1 PUSH1 0xE0 ADD PUSH1 0x40 MSTORE SWAP1 DUP2 PUSH0 DUP3 ADD DUP1 SLOAD PUSH2 0x32D SWAP1 PUSH2 0xD7F JUMP JUMPDEST DUP1 PUSH1 0x1F ADD PUSH1 0x20 DUP1 SWAP2 DIV MUL PUSH1 0x20 ADD PUSH1 0x40 MLOAD SWAP1 DUP2 ADD PUSH1 0x40 MSTORE DUP1 SWAP3 SWAP2 SWAP1 DUP2 DUP2 MSTORE PUSH1 0x20 ADD DUP3 DUP1 SLOAD PUSH2 0x359 SWAP1 PUSH2 0xD7F JUMP JUMPDEST DUP1 ISZERO PUSH2 0x3A4 JUMPI DUP1 PUSH1 0x1F LT PUSH2 0x37B JUMPI PUSH2 0x100 DUP1 DUP4 SLOAD DIV MUL DUP4 MSTORE SWAP2 PUSH1 0x20 ADD SWAP2 PUSH2 0x3A4 JUMP JUMPDEST DUP3 ADD SWAP2 SWAP1 PUSH0 MSTORE PUSH1 0x20 PUSH0 KECCAK256 SWAP1 JUMPDEST DUP2 SLOAD DUP2 MSTORE SWAP1 PUSH1 0x1 ADD SWAP1 PUSH1 0x20 ADD DUP1 DUP4 GT PUSH2 0x387 JUMPI DUP3 SWAP1 SUB PUSH1 0x1F AND DUP3 ADD SWAP2 JUMPDEST POP POP POP POP POP DUP2 MSTORE PUSH1 0x20 ADD PUSH1 0x1 DUP3 ADD PUSH0 SWAP1 SLOAD SWAP1 PUSH2 0x100 EXP SWAP1 DIV PUSH20 0xFFFFFFFFFFFFFFFFFFFFFFFFFFFFFFFFFFFFFFFF AND PUSH20 0xFFFFFFFFFFFFFFFFFFFFFFFFFFFFFFFFFFFFFFFF AND PUSH20 0xFFFFFFFFFFFFFFFFFFFFFFFFFFFFFFFFFFFFFFFF AND DUP2 MSTORE PUSH1 0x20 ADD PUSH1 0x2 DUP3 ADD SLOAD DUP2 MSTORE PUSH1 0x20 ADD PUSH1 0x3 DUP3 ADD SLOAD DUP2 MSTORE PUSH1 0x20 ADD PUSH1 0x4 DUP3 ADD PUSH0 SWAP1 SLOAD SWAP1 PUSH2 0x100 EXP SWAP1 DIV PUSH1 0xFF AND ISZERO ISZERO ISZERO ISZERO DUP2 MSTORE PUSH1 0x20 ADD PUSH1 0x5 DUP3 ADD DUP1 SLOAD PUSH2 0x440 SWAP1 PUSH2 0xD7F JUMP JUMPDEST DUP1 PUSH1 0x1F ADD PUSH1 0x20 DUP1 SWAP2 DIV MUL PUSH1 0x20 ADD PUSH1 0x40 MLOAD SWAP1 DUP2 ADD PUSH1 0x40 MSTORE DUP1 SWAP3 SWAP2 SWAP1 DUP2 DUP2 MSTORE PUSH1 0x20 ADD DUP3 DUP1 SLOAD PUSH2 0x46C SWAP1 PUSH2 0xD7F JUMP JUMPDEST DUP1 ISZERO PUSH2 0x4B7 JUMPI DUP1 PUSH1 0x1F LT PUSH2 0x48E JUMPI PUSH2 0x100 DUP1 DUP4 SLOAD DIV MUL DUP4 MSTORE SWAP2 PUSH1 0x20 ADD SWAP2 PUSH2 0x4B7 JUMP JUMPDEST DUP3 ADD SWAP2 SWAP1 PUSH0 MSTORE PUSH1 0x20 PUSH0 KECCAK256 SWAP1 JUMPDEST DUP2 SLOAD DUP2 MSTORE SWAP1 PUSH1 0x1 ADD SWAP1 PUSH1 0x20 ADD DUP1 DUP4 GT PUSH2 0x49A JUMPI DUP3 SWAP1 SUB PUSH1 0x1F AND DUP3 ADD SWAP2 JUMPDEST POP POP POP POP POP DUP2 MSTORE PUSH1 0x20 ADD PUSH1 0x6 DUP3 ADD PUSH0 SWAP1 SLOAD SWAP1 PUSH2 0x100 EXP SWAP1 DIV PUSH1 0xFF AND ISZERO ISZERO ISZERO ISZERO DUP2 MSTORE POP POP SWAP1 POP DUP1 PUSH0 ADD MLOAD DUP2 PUSH1 0x20 ADD MLOAD DUP3 PUSH1 0x40 ADD MLOAD DUP4 PUSH1 0x60 ADD MLOAD DUP5 PUSH1 0x80 ADD MLOAD DUP6 PUSH1 0xA0 ADD MLOAD DUP7 PUSH1 0xC0 ADD MLOAD SWAP8 POP SWAP8 POP SWAP8 POP SWAP8 POP SWAP8 POP SWAP8 POP SWAP8 POP POP SWAP2 SWAP4 SWAP6 SWAP8 SWAP1 SWAP3 SWAP5 SWAP7 POP JUMP JUMPDEST PUSH1 0x1 PUSH0 DUP4 DUP2 MSTORE PUSH1 0x20 ADD SWAP1 DUP2 MSTORE PUSH1 0x20 ADD PUSH0 KECCAK256 PUSH1 0x1 ADD PUSH0 SWAP1 SLOAD SWAP1 PUSH2 0x100 EXP SWAP1 DIV PUSH20 0xFFFFFFFFFFFFFFFFFFFFFFFFFFFFFFFFFFFFFFFF AND PUSH20 0xFFFFFFFFFFFFFFFFFFFFFFFFFFFFFFFFFFFFFFFF AND CALLER PUSH20 0xFFFFFFFFFFFFFFFFFFFFFFFFFFFFFFFFFFFFFFFF AND EQ PUSH2 0x5B9 JUMPI PUSH1 0x40 MLOAD PUSH32 0x8C379A000000000000000000000000000000000000000000000000000000000 DUP2 MSTORE PUSH1 0x4 ADD PUSH2 0x5B0 SWAP1 PUSH2 0x1140 JUMP JUMPDEST PUSH1 0x40 MLOAD DUP1 SWAP2 SUB SWAP1 REVERT JUMPDEST DUP1 PUSH1 0x1 PUSH0 DUP5 DUP2 MSTORE PUSH1 0x20 ADD SWAP1 DUP2 MSTORE PUSH1 0x20 ADD PUSH0 KECCAK256 PUSH1 0x5 ADD SWAP1 DUP2 PUSH2 0x5DA SWAP2 SWAP1 PUSH2 0xF4F JUMP JUMPDEST POP POP POP JUMP JUMPDEST PUSH0 SLOAD DUP2 JUMP JUMPDEST PUSH0 PUSH0 PUSH1 0x1 SWAP1 POP JUMPDEST PUSH0 SLOAD DUP2 GT PUSH2 0x674 JUMPI DUP3 PUSH1 0x40 MLOAD PUSH1 0x20 ADD PUSH2 0x604 SWAP2 SWAP1 PUSH2 0x1198 JUMP JUMPDEST PUSH1 0x40 MLOAD PUSH1 0x20 DUP2 DUP4 SUB SUB DUP2 MSTORE SWAP1 PUSH1 0x40 MSTORE DUP1 MLOAD SWAP1 PUSH1 0x20 ADD KECCAK256 PUSH1 0x1 PUSH0 DUP4 DUP2 MSTORE PUSH1 0x20 ADD SWAP1 DUP2 MSTORE PUSH1 0x20 ADD PUSH0 KECCAK256 PUSH0 ADD PUSH1 0x40 MLOAD PUSH1 0x20 ADD PUSH2 0x63D SWAP2 SWAP1 PUSH2 0x122E JUMP JUMPDEST PUSH1 0x40 MLOAD PUSH1 0x20 DUP2 DUP4 SUB SUB DUP2 MSTORE SWAP1 PUSH1 0x40 MSTORE DUP1 MLOAD SWAP1 PUSH1 0x20 ADD KECCAK256 SUB PUSH2 0x661 JUMPI DUP1 SWAP2 POP POP PUSH2 0x699 JUMP JUMPDEST DUP1 DUP1 PUSH2 0x66C SWAP1 PUSH2 0xD0B JUMP JUMPDEST SWAP2 POP POP PUSH2 0x5EB JUMP JUMPDEST POP PUSH32 0xFFFFFFFFFFFFFFFFFFFFFFFFFFFFFFFFFFFFFFFFFFFFFFFFFFFFFFFFFFFFFFFF SWAP1 POP JUMPDEST SWAP2 SWAP1 POP JUMP JUMPDEST PUSH1 0x1 PUSH0 DUP3 DUP2 MSTORE PUSH1 0x20 ADD SWAP1 DUP2 MSTORE PUSH1 0x20 ADD PUSH0 KECCAK256 PUSH1 0x3 ADD SLOAD PUSH1 0x1 PUSH0 DUP4 DUP2 MSTORE PUSH1 0x20 ADD SWAP1 DUP2 MSTORE PUSH1 0x20 ADD PUSH0 KECCAK256 PUSH1 0x2 ADD SLOAD LT PUSH2 0x6FD JUMPI PUSH1 0x1 DUP1 PUSH0 DUP4 DUP2 MSTORE PUSH1 0x20 ADD SWAP1 DUP2 MSTORE PUSH1 0x20 ADD PUSH0 KECCAK256 PUSH1 0x6 ADD PUSH0 PUSH2 0x100 EXP DUP2 SLOAD DUP2 PUSH1 0xFF MUL NOT AND SWAP1 DUP4 ISZERO ISZERO MUL OR SWAP1 SSTORE POP PUSH2 0x729 JUMP JUMPDEST PUSH0 PUSH1 0x1 PUSH0 DUP4 DUP2 MSTORE PUSH1 0x20 ADD SWAP1 DUP2 MSTORE PUSH1 0x20 ADD PUSH0 KECCAK256 PUSH1 0x6 ADD PUSH0 PUSH2 0x100 EXP DUP2 SLOAD DUP2 PUSH1 0xFF MUL NOT AND SWAP1 DUP4 ISZERO ISZERO MUL OR SWAP1 SSTORE POP JUMPDEST POP JUMP JUMPDEST PUSH0 PUSH2 0x736 DUP4 PUSH2 0x5E4 JUMP JUMPDEST SWAP1 POP PUSH32 0xFFFFFFFFFFFFFFFFFFFFFFFFFFFFFFFFFFFFFFFFFFFFFFFFFFFFFFFFFFFFFFFF DUP2 SUB PUSH2 0x79A JUMPI PUSH1 0x40 MLOAD PUSH32 0x8C379A000000000000000000000000000000000000000000000000000000000 DUP2 MSTORE PUSH1 0x4 ADD PUSH2 0x791 SWAP1 PUSH2 0x128E JUMP JUMPDEST PUSH1 0x40 MLOAD DUP1 SWAP2 SUB SWAP1 REVERT JUMPDEST PUSH0 PUSH1 0x1 PUSH0 DUP4 DUP2 MSTORE PUSH1 0x20 ADD SWAP1 DUP2 MSTORE PUSH1 0x20 ADD PUSH0 KECCAK256 SWAP1 POP DUP3 DUP2 PUSH1 0x2 ADD PUSH0 DUP3 DUP3 SLOAD PUSH2 0x7C1 SWAP2 SWAP1 PUSH2 0x12AC JUMP JUMPDEST SWAP3 POP POP DUP2 SWAP1 SSTORE POP DUP1 PUSH1 0x3 ADD SLOAD DUP2 PUSH1 0x2 ADD SLOAD LT PUSH2 0x7F3 JUMPI PUSH0 DUP2 PUSH1 0x4 ADD PUSH0 PUSH2 0x100 EXP DUP2 SLOAD DUP2 PUSH1 0xFF MUL NOT AND SWAP1 DUP4 ISZERO ISZERO MUL OR SWAP1 SSTORE POP JUMPDEST POP POP POP POP JUMP JUMPDEST PUSH0 PUSH1 0x40 MLOAD SWAP1 POP SWAP1 JUMP JUMPDEST PUSH0 PUSH0 REVERT JUMPDEST PUSH0 PUSH0 REVERT JUMPDEST PUSH0 PUSH0 REVERT JUMPDEST PUSH0 PUSH0 REVERT JUMPDEST PUSH0 PUSH1 0x1F NOT PUSH1 0x1F DUP4 ADD AND SWAP1 POP SWAP2 SWAP1 POP JUMP JUMPDEST PUSH32 0x4E487B7100000000000000000000000000000000000000000000000000000000 PUSH0 MSTORE PUSH1 0x41 PUSH1 0x4 MSTORE PUSH1 0x24 PUSH0 REVERT JUMPDEST PUSH2 0x858 DUP3 PUSH2 0x812 JUMP JUMPDEST DUP2 ADD DUP2 DUP2 LT PUSH8 0xFFFFFFFFFFFFFFFF DUP3 GT OR ISZERO PUSH2 0x877 JUMPI PUSH2 0x876 PUSH2 0x822 JUMP JUMPDEST JUMPDEST DUP1 PUSH1 0x40 MSTORE POP POP POP JUMP JUMPDEST PUSH0 PUSH2 0x889 PUSH2 0x7F9 JUMP JUMPDEST SWAP1 POP PUSH2 0x895 DUP3 DUP3 PUSH2 0x84F JUMP JUMPDEST SWAP2 SWAP1 POP JUMP JUMPDEST PUSH0 PUSH8 0xFFFFFFFFFFFFFFFF DUP3 GT ISZERO PUSH2 0x8B4 JUMPI PUSH2 0x8B3 PUSH2 0x822 JUMP JUMPDEST JUMPDEST PUSH2 0x8BD DUP3 PUSH2 0x812 JUMP JUMPDEST SWAP1 POP PUSH1 0x20 DUP2 ADD SWAP1 POP SWAP2 SWAP1 POP JUMP JUMPDEST DUP3 DUP2 DUP4 CALLDATACOPY PUSH0 DUP4 DUP4 ADD MSTORE POP POP POP JUMP JUMPDEST PUSH0 PUSH2 0x8EA PUSH2 0x8E5 DUP5 PUSH2 0x89A JUMP JUMPDEST PUSH2 0x880 JUMP JUMPDEST SWAP1 POP DUP3 DUP2 MSTORE PUSH1 0x20 DUP2 ADD DUP5 DUP5 DUP5 ADD GT ISZERO PUSH2 0x906 JUMPI PUSH2 0x905 PUSH2 0x80E JUMP JUMPDEST JUMPDEST PUSH2 0x911 DUP5 DUP3 DUP6 PUSH2 0x8CA JUMP JUMPDEST POP SWAP4 SWAP3 POP POP POP JUMP JUMPDEST PUSH0 DUP3 PUSH1 0x1F DUP4 ADD SLT PUSH2 0x92D JUMPI PUSH2 0x92C PUSH2 0x80A JUMP JUMPDEST JUMPDEST DUP2 CALLDATALOAD PUSH2 0x93D DUP5 DUP3 PUSH1 0x20 DUP7 ADD PUSH2 0x8D8 JUMP JUMPDEST SWAP2 POP POP SWAP3 SWAP2 POP POP JUMP JUMPDEST PUSH0 PUSH20 0xFFFFFFFFFFFFFFFFFFFFFFFFFFFFFFFFFFFFFFFF DUP3 AND SWAP1 POP SWAP2 SWAP1 POP JUMP JUMPDEST PUSH0 PUSH2 0x96F DUP3 PUSH2 0x946 JUMP JUMPDEST SWAP1 POP SWAP2 SWAP1 POP JUMP JUMPDEST PUSH2 0x97F DUP2 PUSH2 0x965 JUMP JUMPDEST DUP2 EQ PUSH2 0x989 JUMPI PUSH0 PUSH0 REVERT JUMPDEST POP JUMP JUMPDEST PUSH0 DUP2 CALLDATALOAD SWAP1 POP PUSH2 0x99A DUP2 PUSH2 0x976 JUMP JUMPDEST SWAP3 SWAP2 POP POP JUMP JUMPDEST PUSH0 PUSH0 PUSH0 PUSH1 0x60 DUP5 DUP7 SUB SLT ISZERO PUSH2 0x9B7 JUMPI PUSH2 0x9B6 PUSH2 0x802 JUMP JUMPDEST JUMPDEST PUSH0 DUP5 ADD CALLDATALOAD PUSH8 0xFFFFFFFFFFFFFFFF DUP2 GT ISZERO PUSH2 0x9D4 JUMPI PUSH2 0x9D3 PUSH2 0x806 JUMP JUMPDEST JUMPDEST PUSH2 0x9E0 DUP7 DUP3 DUP8 ADD PUSH2 0x919 JUMP JUMPDEST SWAP4 POP POP PUSH1 0x20 PUSH2 0x9F1 DUP7 DUP3 DUP8 ADD PUSH2 0x98C JUMP JUMPDEST SWAP3 POP POP PUSH1 0x40 DUP5 ADD CALLDATALOAD PUSH8 0xFFFFFFFFFFFFFFFF DUP2 GT ISZERO PUSH2 0xA12 JUMPI PUSH2 0xA11 PUSH2 0x806 JUMP JUMPDEST JUMPDEST PUSH2 0xA1E DUP7 DUP3 DUP8 ADD PUSH2 0x919 JUMP JUMPDEST SWAP2 POP POP SWAP3 POP SWAP3 POP SWAP3 JUMP JUMPDEST PUSH0 DUP2 SWAP1 POP SWAP2 SWAP1 POP JUMP JUMPDEST PUSH2 0xA3A DUP2 PUSH2 0xA28 JUMP JUMPDEST DUP2 EQ PUSH2 0xA44 JUMPI PUSH0 PUSH0 REVERT JUMPDEST POP JUMP JUMPDEST PUSH0 DUP2 CALLDATALOAD SWAP1 POP PUSH2 0xA55 DUP2 PUSH2 0xA31 JUMP JUMPDEST SWAP3 SWAP2 POP POP JUMP JUMPDEST PUSH0 PUSH1 0x20 DUP3 DUP5 SUB SLT ISZERO PUSH2 0xA70 JUMPI PUSH2 0xA6F PUSH2 0x802 JUMP JUMPDEST JUMPDEST PUSH0 PUSH2 0xA7D DUP5 DUP3 DUP6 ADD PUSH2 0xA47 JUMP JUMPDEST SWAP2 POP POP SWAP3 SWAP2 POP POP JUMP JUMPDEST PUSH0 DUP2 MLOAD SWAP1 POP SWAP2 SWAP1 POP JUMP JUMPDEST PUSH0 DUP3 DUP3 MSTORE PUSH1 0x20 DUP3 ADD SWAP1 POP SWAP3 SWAP2 POP POP JUMP JUMPDEST DUP3 DUP2 DUP4 MCOPY PUSH0 DUP4 DUP4 ADD MSTORE POP POP POP JUMP JUMPDEST PUSH0 PUSH2 0xAB8 DUP3 PUSH2 0xA86 JUMP JUMPDEST PUSH2 0xAC2 DUP2 DUP6 PUSH2 0xA90 JUMP JUMPDEST SWAP4 POP PUSH2 0xAD2 DUP2 DUP6 PUSH1 0x20 DUP7 ADD PUSH2 0xAA0 JUMP JUMPDEST PUSH2 0xADB DUP2 PUSH2 0x812 JUMP JUMPDEST DUP5 ADD SWAP2 POP POP SWAP3 SWAP2 POP POP JUMP JUMPDEST PUSH2 0xAEF DUP2 PUSH2 0x965 JUMP JUMPDEST DUP3 MSTORE POP POP JUMP JUMPDEST PUSH2 0xAFE DUP2 PUSH2 0xA28 JUMP JUMPDEST DUP3 MSTORE POP POP JUMP JUMPDEST PUSH0 DUP2 ISZERO ISZERO SWAP1 POP SWAP2 SWAP1 POP JUMP JUMPDEST PUSH2 0xB18 DUP2 PUSH2 0xB04 JUMP JUMPDEST DUP3 MSTORE POP POP JUMP JUMPDEST PUSH0 PUSH1 0xE0 DUP3 ADD SWAP1 POP DUP2 DUP2 SUB PUSH0 DUP4 ADD MSTORE PUSH2 0xB36 DUP2 DUP11 PUSH2 0xAAE JUMP JUMPDEST SWAP1 POP PUSH2 0xB45 PUSH1 0x20 DUP4 ADD DUP10 PUSH2 0xAE6 JUMP JUMPDEST PUSH2 0xB52 PUSH1 0x40 DUP4 ADD DUP9 PUSH2 0xAF5 JUMP JUMPDEST PUSH2 0xB5F PUSH1 0x60 DUP4 ADD DUP8 PUSH2 0xAF5 JUMP JUMPDEST PUSH2 0xB6C PUSH1 0x80 DUP4 ADD DUP7 PUSH2 0xB0F JUMP JUMPDEST DUP2 DUP2 SUB PUSH1 0xA0 DUP4 ADD MSTORE PUSH2 0xB7E DUP2 DUP6 PUSH2 0xAAE JUMP JUMPDEST SWAP1 POP PUSH2 0xB8D PUSH1 0xC0 DUP4 ADD DUP5 PUSH2 0xB0F JUMP JUMPDEST SWAP9 SWAP8 POP POP POP POP POP POP POP POP JUMP JUMPDEST PUSH0 PUSH0 PUSH1 0x40 DUP4 DUP6 SUB SLT ISZERO PUSH2 0xBAF JUMPI PUSH2 0xBAE PUSH2 0x802 JUMP JUMPDEST JUMPDEST PUSH0 PUSH2 0xBBC DUP6 DUP3 DUP7 ADD PUSH2 0xA47 JUMP JUMPDEST SWAP3 POP POP PUSH1 0x20 DUP4 ADD CALLDATALOAD PUSH8 0xFFFFFFFFFFFFFFFF DUP2 GT ISZERO PUSH2 0xBDD JUMPI PUSH2 0xBDC PUSH2 0x806 JUMP JUMPDEST JUMPDEST PUSH2 0xBE9 DUP6 DUP3 DUP7 ADD PUSH2 0x919 JUMP JUMPDEST SWAP2 POP POP SWAP3 POP SWAP3 SWAP1 POP JUMP JUMPDEST PUSH0 PUSH1 0x20 DUP3 ADD SWAP1 POP PUSH2 0xC06 PUSH0 DUP4 ADD DUP5 PUSH2 0xAF5 JUMP JUMPDEST SWAP3 SWAP2 POP POP JUMP JUMPDEST PUSH0 PUSH1 0x20 DUP3 DUP5 SUB SLT ISZERO PUSH2 0xC21 JUMPI PUSH2 0xC20 PUSH2 0x802 JUMP JUMPDEST JUMPDEST PUSH0 DUP3 ADD CALLDATALOAD PUSH8 0xFFFFFFFFFFFFFFFF DUP2 GT ISZERO PUSH2 0xC3E JUMPI PUSH2 0xC3D PUSH2 0x806 JUMP JUMPDEST JUMPDEST PUSH2 0xC4A DUP5 DUP3 DUP6 ADD PUSH2 0x919 JUMP JUMPDEST SWAP2 POP POP SWAP3 SWAP2 POP POP JUMP JUMPDEST PUSH0 DUP2 SWAP1 POP SWAP2 SWAP1 POP JUMP JUMPDEST PUSH2 0xC65 DUP2 PUSH2 0xC53 JUMP JUMPDEST DUP3 MSTORE POP POP JUMP JUMPDEST PUSH0 PUSH1 0x20 DUP3 ADD SWAP1 POP PUSH2 0xC7E PUSH0 DUP4 ADD DUP5 PUSH2 0xC5C JUMP JUMPDEST SWAP3 SWAP2 POP POP JUMP JUMPDEST PUSH0 PUSH0 PUSH1 0x40 DUP4 DUP6 SUB SLT ISZERO PUSH2 0xC9A JUMPI PUSH2 0xC99 PUSH2 0x802 JUMP JUMPDEST JUMPDEST PUSH0 DUP4 ADD CALLDATALOAD PUSH8 0xFFFFFFFFFFFFFFFF DUP2 GT ISZERO PUSH2 0xCB7 JUMPI PUSH2 0xCB6 PUSH2 0x806 JUMP JUMPDEST JUMPDEST PUSH2 0xCC3 DUP6 DUP3 DUP7 ADD PUSH2 0x919 JUMP JUMPDEST SWAP3 POP POP PUSH1 0x20 PUSH2 0xCD4 DUP6 DUP3 DUP7 ADD PUSH2 0xA47 JUMP JUMPDEST SWAP2 POP POP SWAP3 POP SWAP3 SWAP1 POP JUMP JUMPDEST PUSH32 0x4E487B7100000000000000000000000000000000000000000000000000000000 PUSH0 MSTORE PUSH1 0x11 PUSH1 0x4 MSTORE PUSH1 0x24 PUSH0 REVERT JUMPDEST PUSH0 PUSH2 0xD15 DUP3 PUSH2 0xA28 JUMP JUMPDEST SWAP2 POP PUSH32 0xFFFFFFFFFFFFFFFFFFFFFFFFFFFFFFFFFFFFFFFFFFFFFFFFFFFFFFFFFFFFFFFF DUP3 SUB PUSH2 0xD47 JUMPI PUSH2 0xD46 PUSH2 0xCDE JUMP JUMPDEST JUMPDEST PUSH1 0x1 DUP3 ADD SWAP1 POP SWAP2 SWAP1 POP JUMP JUMPDEST PUSH32 0x4E487B7100000000000000000000000000000000000000000000000000000000 PUSH0 MSTORE PUSH1 0x22 PUSH1 0x4 MSTORE PUSH1 0x24 PUSH0 REVERT JUMPDEST PUSH0 PUSH1 0x2 DUP3 DIV SWAP1 POP PUSH1 0x1 DUP3 AND DUP1 PUSH2 0xD96 JUMPI PUSH1 0x7F DUP3 AND SWAP2 POP JUMPDEST PUSH1 0x20 DUP3 LT DUP2 SUB PUSH2 0xDA9 JUMPI PUSH2 0xDA8 PUSH2 0xD52 JUMP JUMPDEST JUMPDEST POP SWAP2 SWAP1 POP JUMP JUMPDEST PUSH0 DUP2 SWAP1 POP DUP2 PUSH0 MSTORE PUSH1 0x20 PUSH0 KECCAK256 SWAP1 POP SWAP2 SWAP1 POP JUMP JUMPDEST PUSH0 PUSH1 0x20 PUSH1 0x1F DUP4 ADD DIV SWAP1 POP SWAP2 SWAP1 POP JUMP JUMPDEST PUSH0 DUP3 DUP3 SHL SWAP1 POP SWAP3 SWAP2 POP POP JUMP JUMPDEST PUSH0 PUSH1 0x8 DUP4 MUL PUSH2 0xE0B PUSH32 0xFFFFFFFFFFFFFFFFFFFFFFFFFFFFFFFFFFFFFFFFFFFFFFFFFFFFFFFFFFFFFFFF DUP3 PUSH2 0xDD0 JUMP JUMPDEST PUSH2 0xE15 DUP7 DUP4 PUSH2 0xDD0 JUMP JUMPDEST SWAP6 POP DUP1 NOT DUP5 AND SWAP4 POP DUP1 DUP7 AND DUP5 OR SWAP3 POP POP POP SWAP4 SWAP3 POP POP POP JUMP JUMPDEST PUSH0 DUP2 SWAP1 POP SWAP2 SWAP1 POP JUMP JUMPDEST PUSH0 PUSH2 0xE50 PUSH2 0xE4B PUSH2 0xE46 DUP5 PUSH2 0xA28 JUMP JUMPDEST PUSH2 0xE2D JUMP JUMPDEST PUSH2 0xA28 JUMP JUMPDEST SWAP1 POP SWAP2 SWAP1 POP JUMP JUMPDEST PUSH0 DUP2 SWAP1 POP SWAP2 SWAP1 POP JUMP JUMPDEST PUSH2 0xE69 DUP4 PUSH2 0xE36 JUMP JUMPDEST PUSH2 0xE7D PUSH2 0xE75 DUP3 PUSH2 0xE57 JUMP JUMPDEST DUP5 DUP5 SLOAD PUSH2 0xDDC JUMP JUMPDEST DUP3 SSTORE POP POP POP POP JUMP JUMPDEST PUSH0 PUSH0 SWAP1 POP SWAP1 JUMP JUMPDEST PUSH2 0xE94 PUSH2 0xE85 JUMP JUMPDEST PUSH2 0xE9F DUP2 DUP5 DUP5 PUSH2 0xE60 JUMP JUMPDEST POP POP POP JUMP JUMPDEST JUMPDEST DUP2 DUP2 LT ISZERO PUSH2 0xEC2 JUMPI PUSH2 0xEB7 PUSH0 DUP3 PUSH2 0xE8C JUMP JUMPDEST PUSH1 0x1 DUP2 ADD SWAP1 POP PUSH2 0xEA5 JUMP JUMPDEST POP POP JUMP JUMPDEST PUSH1 0x1F DUP3 GT ISZERO PUSH2 0xF07 JUMPI PUSH2 0xED8 DUP2 PUSH2 0xDAF JUMP JUMPDEST PUSH2 0xEE1 DUP5 PUSH2 0xDC1 JUMP JUMPDEST DUP2 ADD PUSH1 0x20 DUP6 LT ISZERO PUSH2 0xEF0 JUMPI DUP2 SWAP1 POP JUMPDEST PUSH2 0xF04 PUSH2 0xEFC DUP6 PUSH2 0xDC1 JUMP JUMPDEST DUP4 ADD DUP3 PUSH2 0xEA4 JUMP JUMPDEST POP POP JUMPDEST POP POP POP JUMP JUMPDEST PUSH0 DUP3 DUP3 SHR SWAP1 POP SWAP3 SWAP2 POP POP JUMP JUMPDEST PUSH0 PUSH2 0xF27 PUSH0 NOT DUP5 PUSH1 0x8 MUL PUSH2 0xF0C JUMP JUMPDEST NOT DUP1 DUP4 AND SWAP2 POP POP SWAP3 SWAP2 POP POP JUMP JUMPDEST PUSH0 PUSH2 0xF3F DUP4 DUP4 PUSH2 0xF18 JUMP JUMPDEST SWAP2 POP DUP3 PUSH1 0x2 MUL DUP3 OR SWAP1 POP SWAP3 SWAP2 POP POP JUMP JUMPDEST PUSH2 0xF58 DUP3 PUSH2 0xA86 JUMP JUMPDEST PUSH8 0xFFFFFFFFFFFFFFFF DUP2 GT ISZERO PUSH2 0xF71 JUMPI PUSH2 0xF70 PUSH2 0x822 JUMP JUMPDEST JUMPDEST PUSH2 0xF7B DUP3 SLOAD PUSH2 0xD7F JUMP JUMPDEST PUSH2 0xF86 DUP3 DUP3 DUP6 PUSH2 0xEC6 JUMP JUMPDEST PUSH0 PUSH1 0x20 SWAP1 POP PUSH1 0x1F DUP4 GT PUSH1 0x1 DUP2 EQ PUSH2 0xFB7 JUMPI PUSH0 DUP5 ISZERO PUSH2 0xFA5 JUMPI DUP3 DUP8 ADD MLOAD SWAP1 POP JUMPDEST PUSH2 0xFAF DUP6 DUP3 PUSH2 0xF34 JUMP JUMPDEST DUP7 SSTORE POP PUSH2 0x1016 JUMP JUMPDEST PUSH1 0x1F NOT DUP5 AND PUSH2 0xFC5 DUP7 PUSH2 0xDAF JUMP JUMPDEST PUSH0 JUMPDEST DUP3 DUP2 LT ISZERO PUSH2 0xFEC JUMPI DUP5 DUP10 ADD MLOAD DUP3 SSTORE PUSH1 0x1 DUP3 ADD SWAP2 POP PUSH1 0x20 DUP6 ADD SWAP5 POP PUSH1 0x20 DUP2 ADD SWAP1 POP PUSH2 0xFC7 JUMP JUMPDEST DUP7 DUP4 LT ISZERO PUSH2 0x1009 JUMPI DUP5 DUP10 ADD MLOAD PUSH2 0x1005 PUSH1 0x1F DUP10 AND DUP3 PUSH2 0xF18 JUMP JUMPDEST DUP4 SSTORE POP JUMPDEST PUSH1 0x1 PUSH1 0x2 DUP9 MUL ADD DUP9 SSTORE POP POP POP JUMPDEST POP POP POP POP POP POP JUMP JUMPDEST PUSH0 DUP2 SWAP1 POP SWAP2 SWAP1 POP JUMP JUMPDEST PUSH0 PUSH2 0x1041 PUSH2 0x103C PUSH2 0x1037 DUP5 PUSH2 0x101E JUMP JUMPDEST PUSH2 0xE2D JUMP JUMPDEST PUSH2 0xA28 JUMP JUMPDEST SWAP1 POP SWAP2 SWAP1 POP JUMP JUMPDEST PUSH2 0x1051 DUP2 PUSH2 0x1027 JUMP JUMPDEST DUP3 MSTORE POP POP JUMP JUMPDEST PUSH0 DUP2 SWAP1 POP SWAP2 SWAP1 POP JUMP JUMPDEST PUSH0 PUSH2 0x107A PUSH2 0x1075 PUSH2 0x1070 DUP5 PUSH2 0x1057 JUMP JUMPDEST PUSH2 0xE2D JUMP JUMPDEST PUSH2 0xA28 JUMP JUMPDEST SWAP1 POP SWAP2 SWAP1 POP JUMP JUMPDEST PUSH2 0x108A DUP2 PUSH2 0x1060 JUMP JUMPDEST DUP3 MSTORE POP POP JUMP JUMPDEST PUSH0 PUSH1 0xC0 DUP3 ADD SWAP1 POP PUSH2 0x10A3 PUSH0 DUP4 ADD DUP10 PUSH2 0xAF5 JUMP JUMPDEST DUP2 DUP2 SUB PUSH1 0x20 DUP4 ADD MSTORE PUSH2 0x10B5 DUP2 DUP9 PUSH2 0xAAE JUMP JUMPDEST SWAP1 POP PUSH2 0x10C4 PUSH1 0x40 DUP4 ADD DUP8 PUSH2 0xAE6 JUMP JUMPDEST PUSH2 0x10D1 PUSH1 0x60 DUP4 ADD DUP7 PUSH2 0x1048 JUMP JUMPDEST PUSH2 0x10DE PUSH1 0x80 DUP4 ADD DUP6 PUSH2 0x1081 JUMP JUMPDEST PUSH2 0x10EB PUSH1 0xA0 DUP4 ADD DUP5 PUSH2 0xB0F JUMP JUMPDEST SWAP8 SWAP7 POP POP POP POP POP POP POP JUMP JUMPDEST PUSH32 0x4E6F7420617574686F72697A6564000000000000000000000000000000000000 PUSH0 DUP3 ADD MSTORE POP JUMP JUMPDEST PUSH0 PUSH2 0x112A PUSH1 0xE DUP4 PUSH2 0xA90 JUMP JUMPDEST SWAP2 POP PUSH2 0x1135 DUP3 PUSH2 0x10F6 JUMP JUMPDEST PUSH1 0x20 DUP3 ADD SWAP1 POP SWAP2 SWAP1 POP JUMP JUMPDEST PUSH0 PUSH1 0x20 DUP3 ADD SWAP1 POP DUP2 DUP2 SUB PUSH0 DUP4 ADD MSTORE PUSH2 0x1157 DUP2 PUSH2 0x111E JUMP JUMPDEST SWAP1 POP SWAP2 SWAP1 POP JUMP JUMPDEST PUSH0 DUP2 SWAP1 POP SWAP3 SWAP2 POP POP JUMP JUMPDEST PUSH0 PUSH2 0x1172 DUP3 PUSH2 0xA86 JUMP JUMPDEST PUSH2 0x117C DUP2 DUP6 PUSH2 0x115E JUMP JUMPDEST SWAP4 POP PUSH2 0x118C DUP2 DUP6 PUSH1 0x20 DUP7 ADD PUSH2 0xAA0 JUMP JUMPDEST DUP1 DUP5 ADD SWAP2 POP POP SWAP3 SWAP2 POP POP JUMP JUMPDEST PUSH0 PUSH2 0x11A3 DUP3 DUP5 PUSH2 0x1168 JUMP JUMPDEST SWAP2 POP DUP2 SWAP1 POP SWAP3 SWAP2 POP POP JUMP JUMPDEST PUSH0 DUP2 SLOAD PUSH2 0x11BA DUP2 PUSH2 0xD7F JUMP JUMPDEST PUSH2 0x11C4 DUP2 DUP7 PUSH2 0x115E JUMP JUMPDEST SWAP5 POP PUSH1 0x1 DUP3 AND PUSH0 DUP2 EQ PUSH2 0x11DE JUMPI PUSH1 0x1 DUP2 EQ PUSH2 0x11F3 JUMPI PUSH2 0x1225 JUMP JUMPDEST PUSH1 0xFF NOT DUP4 AND DUP7 MSTORE DUP2 ISZERO ISZERO DUP3 MUL DUP7 ADD SWAP4 POP PUSH2 0x1225 JUMP JUMPDEST PUSH2 0x11FC DUP6 PUSH2 0xDAF JUMP JUMPDEST PUSH0 JUMPDEST DUP4 DUP2 LT ISZERO PUSH2 0x121D JUMPI DUP2 SLOAD DUP2 DUP10 ADD MSTORE PUSH1 0x1 DUP3 ADD SWAP2 POP PUSH1 0x20 DUP2 ADD SWAP1 POP PUSH2 0x11FE JUMP JUMPDEST DUP4 DUP9 ADD SWAP6 POP POP POP JUMPDEST POP POP POP SWAP3 SWAP2 POP POP JUMP JUMPDEST PUSH0 PUSH2 0x1239 DUP3 DUP5 PUSH2 0x11AE JUMP JUMPDEST SWAP2 POP DUP2 SWAP1 POP SWAP3 SWAP2 POP POP JUMP JUMPDEST PUSH32 0x4368617269747920646F6573206E6F7420657869737400000000000000000000 PUSH0 DUP3 ADD MSTORE POP JUMP JUMPDEST PUSH0 PUSH2 0x1278 PUSH1 0x16 DUP4 PUSH2 0xA90 JUMP JUMPDEST SWAP2 POP PUSH2 0x1283 DUP3 PUSH2 0x1244 JUMP JUMPDEST PUSH1 0x20 DUP3 ADD SWAP1 POP SWAP2 SWAP1 POP JUMP JUMPDEST PUSH0 PUSH1 0x20 DUP3 ADD SWAP1 POP DUP2 DUP2 SUB PUSH0 DUP4 ADD MSTORE PUSH2 0x12A5 DUP2 PUSH2 0x126C JUMP JUMPDEST SWAP1 POP SWAP2 SWAP1 POP JUMP JUMPDEST PUSH0 PUSH2 0x12B6 DUP3 PUSH2 0xA28 JUMP JUMPDEST SWAP2 POP PUSH2 0x12C1 DUP4 PUSH2 0xA28 JUMP JUMPDEST SWAP3 POP DUP3 DUP3 ADD SWAP1 POP DUP1 DUP3 GT ISZERO PUSH2 0x12D9 JUMPI PUSH2 0x12D8 PUSH2 0xCDE JUMP JUMPDEST JUMPDEST SWAP3 SWAP2 POP POP JUMP INVALID LOG2 PUSH5 0x6970667358 0x22 SLT KECCAK256 DUP2 0xB1 0xC4 BLOBHASH DUPN 0x47 SWAP1 0xCF PUSH7 0x3969465FCAD502 PUSH27 0x80C8FD7BC1E8426DD9DE68D10F98E164736F6C634300081E003300 "
				},
				"gasEstimates": {
					"creation": {
						"codeDepositCost": "977000",
						"executionCost": "1012",
						"totalCost": "978012"
					},
					"external": {
						"addCharity(string,address,string)": "infinite",
						"charityCount()": "2424",
						"charityExists(string)": "infinite",
						"contributeFunds(string,uint256)": "infinite",
						"getCharityById(uint256)": "infinite",
						"markMilestoneComplete(uint256)": "29191",
						"updateMilestone(uint256,string)": "infinite"
					}
				},
				"methodIdentifiers": {
					"addCharity(string,address,string)": "14932c6b",
					"charityCount()": "91329493",
					"charityExists(string)": "9d32c186",
					"contributeFunds(string,uint256)": "f25d75e7",
					"getCharityById(uint256)": "21b914bc",
					"markMilestoneComplete(uint256)": "ee9a5432",
					"updateMilestone(uint256,string)": "46877a38"
				}
			},
			"storageLayout": {
				"storage": [
					{
						"astId": 3,
						"contract": "contracts/milestone_distribution.sol:DistributionContract",
						"label": "charityCount",
						"offset": 0,
						"slot": "0",
						"type": "t_uint256"
					},
					{
						"astId": 23,
						"contract": "contracts/milestone_distribution.sol:DistributionContract",
						"label": "charities",
						"offset": 0,
						"slot": "1",
						"type": "t_mapping(t_uint256,t_struct(CharityDetails)18_storage)"
					}
				],
				"types": {
					"t_address": {
						"encoding": "inplace",
						"label": "address",
						"numberOfBytes": "20"
					},
					"t_bool": {
						"encoding": "inplace",
						"label": "bool",
						"numberOfBytes": "1"
					},
					"t_mapping(t_uint256,t_struct(CharityDetails)18_storage)": {
						"encoding": "mapping",
						"key": "t_uint256",
						"label": "mapping(uint256 => struct DistributionContract.CharityDetails)",
						"numberOfBytes": "32",
						"value": "t_struct(CharityDetails)18_storage"
					},
					"t_string_storage": {
						"encoding": "bytes",
						"label": "string",
						"numberOfBytes": "32"
					},
					"t_struct(CharityDetails)18_storage": {
						"encoding": "inplace",
						"label": "struct DistributionContract.CharityDetails",
						"members": [
							{
								"astId": 5,
								"contract": "contracts/milestone_distribution.sol:DistributionContract",
								"label": "name",
								"offset": 0,
								"slot": "0",
								"type": "t_string_storage"
							},
							{
								"astId": 7,
								"contract": "contracts/milestone_distribution.sol:DistributionContract",
								"label": "charityAddress",
								"offset": 0,
								"slot": "1",
								"type": "t_address"
							},
							{
								"astId": 9,
								"contract": "contracts/milestone_distribution.sol:DistributionContract",
								"label": "totalRaised",
								"offset": 0,
								"slot": "2",
								"type": "t_uint256"
							},
							{
								"astId": 11,
								"contract": "contracts/milestone_distribution.sol:DistributionContract",
								"label": "targetDonation",
								"offset": 0,
								"slot": "3",
								"type": "t_uint256"
							},
							{
								"astId": 13,
								"contract": "contracts/milestone_distribution.sol:DistributionContract",
								"label": "fundsLocked",
								"offset": 0,
								"slot": "4",
								"type": "t_bool"
							},
							{
								"astId": 15,
								"contract": "contracts/milestone_distribution.sol:DistributionContract",
								"label": "milestoneDescription",
								"offset": 0,
								"slot": "5",
								"type": "t_string_storage"
							},
							{
								"astId": 17,
								"contract": "contracts/milestone_distribution.sol:DistributionContract",
								"label": "isMilestoneComplete",
								"offset": 0,
								"slot": "6",
								"type": "t_bool"
							}
						],
						"numberOfBytes": "224"
					},
					"t_uint256": {
						"encoding": "inplace",
						"label": "uint256",
						"numberOfBytes": "32"
					}
				}
			},
			"userdoc": {
				"kind": "user",
				"methods": {},
				"version": 1
			}
		}
	}
}