{
	"contracts/donation.sol": {
		"DonationContract": {
			"abi": [
				{
					"inputs": [
						{
							"internalType": "address",
							"name": "_verify",
							"type": "address"
						},
						{
							"internalType": "address",
							"name": "_milestone",
							"type": "address"
						},
						{
							"internalType": "address",
							"name": "_roleContract",
							"type": "address"
						}
					],
					"stateMutability": "nonpayable",
					"type": "constructor"
				},
				{
					"anonymous": false,
					"inputs": [
						{
							"indexed": false,
							"internalType": "uint256",
							"name": "donationID",
							"type": "uint256"
						},
						{
							"indexed": false,
							"internalType": "string",
							"name": "charity",
							"type": "string"
						},
						{
							"indexed": false,
							"internalType": "address",
							"name": "charityAdd",
							"type": "address"
						},
						{
							"indexed": false,
							"internalType": "address",
							"name": "donorAdd",
							"type": "address"
						},
						{
							"indexed": false,
							"internalType": "uint256",
							"name": "donationAmount",
							"type": "uint256"
						}
					],
					"name": "DonationCreated",
					"type": "event"
				},
				{
					"inputs": [
						{
							"internalType": "string",
							"name": "_charity",
							"type": "string"
						},
						{
							"internalType": "address",
							"name": "charityAdd",
							"type": "address"
						},
						{
							"internalType": "address",
							"name": "donorAdd",
							"type": "address"
						},
						{
							"internalType": "uint256",
							"name": "_donationAmount",
							"type": "uint256"
						}
					],
					"name": "donate",
					"outputs": [],
					"stateMutability": "nonpayable",
					"type": "function"
				},
				{
					"inputs": [],
					"name": "donationCount",
					"outputs": [
						{
							"internalType": "uint256",
							"name": "",
							"type": "uint256"
						}
					],
					"stateMutability": "view",
					"type": "function"
				},
				{
					"inputs": [
						{
							"internalType": "uint256",
							"name": "",
							"type": "uint256"
						}
					],
					"name": "donations",
					"outputs": [
						{
							"internalType": "string",
							"name": "charity",
							"type": "string"
						},
						{
							"internalType": "address",
							"name": "charityAdd",
							"type": "address"
						},
						{
							"internalType": "address",
							"name": "donorAdd",
							"type": "address"
						},
						{
							"internalType": "uint256",
							"name": "donationAmount",
							"type": "uint256"
						}
					],
					"stateMutability": "view",
					"type": "function"
				},
				{
					"inputs": [],
					"name": "getAllDonations",
					"outputs": [
						{
							"components": [
								{
									"internalType": "string",
									"name": "charity",
									"type": "string"
								},
								{
									"internalType": "address",
									"name": "charityAdd",
									"type": "address"
								},
								{
									"internalType": "address",
									"name": "donorAdd",
									"type": "address"
								},
								{
									"internalType": "uint256",
									"name": "donationAmount",
									"type": "uint256"
								}
							],
							"internalType": "struct DonationContract.Donation[]",
							"name": "",
							"type": "tuple[]"
						}
					],
					"stateMutability": "view",
					"type": "function"
				},
				{
					"inputs": [
						{
							"internalType": "address",
							"name": "_charityAddress",
							"type": "address"
						}
					],
					"name": "getDonationsByAddress",
					"outputs": [
						{
							"components": [
								{
									"internalType": "string",
									"name": "charity",
									"type": "string"
								},
								{
									"internalType": "address",
									"name": "charityAdd",
									"type": "address"
								},
								{
									"internalType": "address",
									"name": "donorAdd",
									"type": "address"
								},
								{
									"internalType": "uint256",
									"name": "donationAmount",
									"type": "uint256"
								}
							],
							"internalType": "struct DonationContract.Donation[]",
							"name": "",
							"type": "tuple[]"
						}
					],
					"stateMutability": "view",
					"type": "function"
				},
				{
					"inputs": [
						{
							"internalType": "string",
							"name": "_charity",
							"type": "string"
						}
					],
					"name": "getDonationsByName",
					"outputs": [
						{
							"components": [
								{
									"internalType": "string",
									"name": "charity",
									"type": "string"
								},
								{
									"internalType": "address",
									"name": "charityAdd",
									"type": "address"
								},
								{
									"internalType": "address",
									"name": "donorAdd",
									"type": "address"
								},
								{
									"internalType": "uint256",
									"name": "donationAmount",
									"type": "uint256"
								}
							],
							"internalType": "struct DonationContract.Donation[]",
							"name": "",
							"type": "tuple[]"
						}
					],
					"stateMutability": "view",
					"type": "function"
				}
			],
			"devdoc": {
				"kind": "dev",
				"methods": {},
				"version": 1
			},
			"evm": {
				"assembly": "    /* \"contracts/donation.sol\":372:4811  contract DonationContract {... */\n  mstore(0x40, 0x80)\n    /* \"contracts/donation.sol\":1212:1445  constructor(address _verify, address _milestone, address _roleContract) {... */\n  callvalue\n  dup1\n  iszero\n  tag_1\n  jumpi\n  revert(0x00, 0x00)\ntag_1:\n  pop\n  mload(0x40)\n  sub(codesize, bytecodeSize)\n  dup1\n  bytecodeSize\n  dup4\n  codecopy\n  dup2\n  dup2\n  add\n  0x40\n  mstore\n  dup2\n  add\n  swap1\n  tag_2\n  swap2\n  swap1\n  tag_3\n  jump\t// in\ntag_2:\n    /* \"contracts/donation.sol\":1323:1330  _verify */\n  dup3\n    /* \"contracts/donation.sol\":1295:1312  verifyContractAdd */\n  0x00\n  0x00\n    /* \"contracts/donation.sol\":1295:1331  verifyContractAdd = address(_verify) */\n  0x0100\n  exp\n  dup2\n  sload\n  dup2\n  0xffffffffffffffffffffffffffffffffffffffff\n  mul\n  not\n  and\n  swap1\n  dup4\n  0xffffffffffffffffffffffffffffffffffffffff\n  and\n  mul\n  or\n  swap1\n  sstore\n  pop\n    /* \"contracts/donation.sol\":1365:1375  _milestone */\n  dup2\n    /* \"contracts/donation.sol\":1342:1354  milestoneAdd */\n  0x01\n  0x00\n    /* \"contracts/donation.sol\":1342:1376  milestoneAdd = address(_milestone) */\n  0x0100\n  exp\n  dup2\n  sload\n  dup2\n  0xffffffffffffffffffffffffffffffffffffffff\n  mul\n  not\n  and\n  swap1\n  dup4\n  0xffffffffffffffffffffffffffffffffffffffff\n  and\n  mul\n  or\n  swap1\n  sstore\n  pop\n    /* \"contracts/donation.sol\":1413:1426  _roleContract */\n  dup1\n    /* \"contracts/donation.sol\":1387:1402  roleContractAdd */\n  0x02\n  0x00\n    /* \"contracts/donation.sol\":1387:1427  roleContractAdd = address(_roleContract) */\n  0x0100\n  exp\n  dup2\n  sload\n  dup2\n  0xffffffffffffffffffffffffffffffffffffffff\n  mul\n  not\n  and\n  swap1\n  dup4\n  0xffffffffffffffffffffffffffffffffffffffff\n  and\n  mul\n  or\n  swap1\n  sstore\n  pop\n    /* \"contracts/donation.sol\":1212:1445  constructor(address _verify, address _milestone, address _roleContract) {... */\n  pop\n  pop\n  pop\n    /* \"contracts/donation.sol\":372:4811  contract DonationContract {... */\n  jump(tag_6)\n    /* \"#utility.yul\":88:205   */\ntag_8:\n    /* \"#utility.yul\":197:198   */\n  0x00\n    /* \"#utility.yul\":194:195   */\n  0x00\n    /* \"#utility.yul\":187:199   */\n  revert\n    /* \"#utility.yul\":334:460   */\ntag_10:\n    /* \"#utility.yul\":371:378   */\n  0x00\n    /* \"#utility.yul\":411:453   */\n  0xffffffffffffffffffffffffffffffffffffffff\n    /* \"#utility.yul\":404:409   */\n  dup3\n    /* \"#utility.yul\":400:454   */\n  and\n    /* \"#utility.yul\":389:454   */\n  swap1\n  pop\n    /* \"#utility.yul\":334:460   */\n  swap2\n  swap1\n  pop\n  jump\t// out\n    /* \"#utility.yul\":466:562   */\ntag_11:\n    /* \"#utility.yul\":503:510   */\n  0x00\n    /* \"#utility.yul\":532:556   */\n  tag_20\n    /* \"#utility.yul\":550:555   */\n  dup3\n    /* \"#utility.yul\":532:556   */\n  tag_10\n  jump\t// in\ntag_20:\n    /* \"#utility.yul\":521:556   */\n  swap1\n  pop\n    /* \"#utility.yul\":466:562   */\n  swap2\n  swap1\n  pop\n  jump\t// out\n    /* \"#utility.yul\":568:690   */\ntag_12:\n    /* \"#utility.yul\":641:665   */\n  tag_22\n    /* \"#utility.yul\":659:664   */\n  dup2\n    /* \"#utility.yul\":641:665   */\n  tag_11\n  jump\t// in\ntag_22:\n    /* \"#utility.yul\":634:639   */\n  dup2\n    /* \"#utility.yul\":631:666   */\n  eq\n    /* \"#utility.yul\":621:684   */\n  tag_23\n  jumpi\n    /* \"#utility.yul\":680:681   */\n  0x00\n    /* \"#utility.yul\":677:678   */\n  0x00\n    /* \"#utility.yul\":670:682   */\n  revert\n    /* \"#utility.yul\":621:684   */\ntag_23:\n    /* \"#utility.yul\":568:690   */\n  pop\n  jump\t// out\n    /* \"#utility.yul\":696:839   */\ntag_13:\n    /* \"#utility.yul\":753:758   */\n  0x00\n    /* \"#utility.yul\":784:790   */\n  dup2\n    /* \"#utility.yul\":778:791   */\n  mload\n    /* \"#utility.yul\":769:791   */\n  swap1\n  pop\n    /* \"#utility.yul\":800:833   */\n  tag_25\n    /* \"#utility.yul\":827:832   */\n  dup2\n    /* \"#utility.yul\":800:833   */\n  tag_12\n  jump\t// in\ntag_25:\n    /* \"#utility.yul\":696:839   */\n  swap3\n  swap2\n  pop\n  pop\n  jump\t// out\n    /* \"#utility.yul\":845:1508   */\ntag_3:\n    /* \"#utility.yul\":933:939   */\n  0x00\n    /* \"#utility.yul\":941:947   */\n  0x00\n    /* \"#utility.yul\":949:955   */\n  0x00\n    /* \"#utility.yul\":998:1000   */\n  0x60\n    /* \"#utility.yul\":986:995   */\n  dup5\n    /* \"#utility.yul\":977:984   */\n  dup7\n    /* \"#utility.yul\":973:996   */\n  sub\n    /* \"#utility.yul\":969:1001   */\n  slt\n    /* \"#utility.yul\":966:1085   */\n  iszero\n  tag_27\n  jumpi\n    /* \"#utility.yul\":1004:1083   */\n  tag_28\n  tag_8\n  jump\t// in\ntag_28:\n    /* \"#utility.yul\":966:1085   */\ntag_27:\n    /* \"#utility.yul\":1124:1125   */\n  0x00\n    /* \"#utility.yul\":1149:1213   */\n  tag_29\n    /* \"#utility.yul\":1205:1212   */\n  dup7\n    /* \"#utility.yul\":1196:1202   */\n  dup3\n    /* \"#utility.yul\":1185:1194   */\n  dup8\n    /* \"#utility.yul\":1181:1203   */\n  add\n    /* \"#utility.yul\":1149:1213   */\n  tag_13\n  jump\t// in\ntag_29:\n    /* \"#utility.yul\":1139:1213   */\n  swap4\n  pop\n    /* \"#utility.yul\":1095:1223   */\n  pop\n    /* \"#utility.yul\":1262:1264   */\n  0x20\n    /* \"#utility.yul\":1288:1352   */\n  tag_30\n    /* \"#utility.yul\":1344:1351   */\n  dup7\n    /* \"#utility.yul\":1335:1341   */\n  dup3\n    /* \"#utility.yul\":1324:1333   */\n  dup8\n    /* \"#utility.yul\":1320:1342   */\n  add\n    /* \"#utility.yul\":1288:1352   */\n  tag_13\n  jump\t// in\ntag_30:\n    /* \"#utility.yul\":1278:1352   */\n  swap3\n  pop\n    /* \"#utility.yul\":1233:1362   */\n  pop\n    /* \"#utility.yul\":1401:1403   */\n  0x40\n    /* \"#utility.yul\":1427:1491   */\n  tag_31\n    /* \"#utility.yul\":1483:1490   */\n  dup7\n    /* \"#utility.yul\":1474:1480   */\n  dup3\n    /* \"#utility.yul\":1463:1472   */\n  dup8\n    /* \"#utility.yul\":1459:1481   */\n  add\n    /* \"#utility.yul\":1427:1491   */\n  tag_13\n  jump\t// in\ntag_31:\n    /* \"#utility.yul\":1417:1491   */\n  swap2\n  pop\n    /* \"#utility.yul\":1372:1501   */\n  pop\n    /* \"#utility.yul\":845:1508   */\n  swap3\n  pop\n  swap3\n  pop\n  swap3\n  jump\t// out\n    /* \"contracts/donation.sol\":372:4811  contract DonationContract {... */\ntag_6:\n  dataSize(sub_0)\n  dup1\n  dataOffset(sub_0)\n  0x00\n  codecopy\n  0x00\n  return\nstop\n\nsub_0: assembly {\n        /* \"contracts/donation.sol\":372:4811  contract DonationContract {... */\n      mstore(0x40, 0x80)\n      callvalue\n      dup1\n      iszero\n      tag_1\n      jumpi\n      revert(0x00, 0x00)\n    tag_1:\n      pop\n      jumpi(tag_2, lt(calldatasize, 0x04))\n      shr(0xe0, calldataload(0x00))\n      dup1\n      0x20894977\n      eq\n      tag_3\n      jumpi\n      dup1\n      0x2abfab4d\n      eq\n      tag_4\n      jumpi\n      dup1\n      0x38a59a07\n      eq\n      tag_5\n      jumpi\n      dup1\n      0x9c9c2a0f\n      eq\n      tag_6\n      jumpi\n      dup1\n      0xbf8c0325\n      eq\n      tag_7\n      jumpi\n      dup1\n      0xf8626af8\n      eq\n      tag_8\n      jumpi\n    tag_2:\n      revert(0x00, 0x00)\n        /* \"contracts/donation.sol\":2712:3605  function getDonationsByName(string memory _charity) public view returns (Donation[] memory) {... */\n    tag_3:\n      tag_9\n      0x04\n      dup1\n      calldatasize\n      sub\n      dup2\n      add\n      swap1\n      tag_10\n      swap2\n      swap1\n      tag_11\n      jump\t// in\n    tag_10:\n      tag_12\n      jump\t// in\n    tag_9:\n      mload(0x40)\n      tag_13\n      swap2\n      swap1\n      tag_14\n      jump\t// in\n    tag_13:\n      mload(0x40)\n      dup1\n      swap2\n      sub\n      swap1\n      return\n        /* \"contracts/donation.sol\":920:948  uint256 public donationCount */\n    tag_4:\n      tag_15\n      tag_16\n      jump\t// in\n    tag_15:\n      mload(0x40)\n      tag_17\n      swap2\n      swap1\n      tag_18\n      jump\t// in\n    tag_17:\n      mload(0x40)\n      dup1\n      swap2\n      sub\n      swap1\n      return\n        /* \"contracts/donation.sol\":4428:4806  function getAllDonations() public view returns (Donation[] memory) {... */\n    tag_5:\n      tag_19\n      tag_20\n      jump\t// in\n    tag_19:\n      mload(0x40)\n      tag_21\n      swap2\n      swap1\n      tag_14\n      jump\t// in\n    tag_21:\n      mload(0x40)\n      dup1\n      swap2\n      sub\n      swap1\n      return\n        /* \"contracts/donation.sol\":3613:4414  function getDonationsByAddress(address _charityAddress) public view returns (Donation[] memory) {... */\n    tag_6:\n      tag_22\n      0x04\n      dup1\n      calldatasize\n      sub\n      dup2\n      add\n      swap1\n      tag_23\n      swap2\n      swap1\n      tag_24\n      jump\t// in\n    tag_23:\n      tag_25\n      jump\t// in\n    tag_22:\n      mload(0x40)\n      tag_26\n      swap2\n      swap1\n      tag_14\n      jump\t// in\n    tag_26:\n      mload(0x40)\n      dup1\n      swap2\n      sub\n      swap1\n      return\n        /* \"contracts/donation.sol\":1915:2704  function donate(string memory _charity, address charityAdd, address donorAdd, uint _donationAmount) public {... */\n    tag_7:\n      tag_27\n      0x04\n      dup1\n      calldatasize\n      sub\n      dup2\n      add\n      swap1\n      tag_28\n      swap2\n      swap1\n      tag_29\n      jump\t// in\n    tag_28:\n      tag_30\n      jump\t// in\n    tag_27:\n      stop\n        /* \"contracts/donation.sol\":796:842  mapping (uint256 => Donation) public donations */\n    tag_8:\n      tag_31\n      0x04\n      dup1\n      calldatasize\n      sub\n      dup2\n      add\n      swap1\n      tag_32\n      swap2\n      swap1\n      tag_33\n      jump\t// in\n    tag_32:\n      tag_34\n      jump\t// in\n    tag_31:\n      mload(0x40)\n      tag_35\n      swap5\n      swap4\n      swap3\n      swap2\n      swap1\n      tag_36\n      jump\t// in\n    tag_35:\n      mload(0x40)\n      dup1\n      swap2\n      sub\n      swap1\n      return\n        /* \"contracts/donation.sol\":2712:3605  function getDonationsByName(string memory _charity) public view returns (Donation[] memory) {... */\n    tag_12:\n        /* \"contracts/donation.sol\":2785:2802  Donation[] memory */\n      0x60\n        /* \"contracts/donation.sol\":2815:2825  uint count */\n      0x00\n        /* \"contracts/donation.sol\":2828:2829  0 */\n      0x00\n        /* \"contracts/donation.sol\":2815:2829  uint count = 0 */\n      swap1\n      pop\n        /* \"contracts/donation.sol\":2901:2907  uint i */\n      0x00\n        /* \"contracts/donation.sol\":2910:2911  1 */\n      0x01\n        /* \"contracts/donation.sol\":2901:2911  uint i = 1 */\n      swap1\n      pop\n        /* \"contracts/donation.sol\":2896:3102  for (uint i = 1; i <= donationCount; i++) {... */\n    tag_38:\n        /* \"contracts/donation.sol\":2918:2931  donationCount */\n      sload(0x04)\n        /* \"contracts/donation.sol\":2913:2914  i */\n      dup2\n        /* \"contracts/donation.sol\":2913:2931  i <= donationCount */\n      gt\n        /* \"contracts/donation.sol\":2896:3102  for (uint i = 1; i <= donationCount; i++) {... */\n      tag_39\n      jumpi\n        /* \"contracts/donation.sol\":3037:3045  _charity */\n      dup4\n        /* \"contracts/donation.sol\":3020:3046  abi.encodePacked(_charity) */\n      add(0x20, mload(0x40))\n      tag_41\n      swap2\n      swap1\n      tag_42\n      jump\t// in\n    tag_41:\n      mload(0x40)\n      0x20\n      dup2\n      dup4\n      sub\n      sub\n      dup2\n      mstore\n      swap1\n      0x40\n      mstore\n        /* \"contracts/donation.sol\":3010:3047  keccak256(abi.encodePacked(_charity)) */\n      dup1\n      mload\n      swap1\n      0x20\n      add\n      keccak256\n        /* \"contracts/donation.sol\":2984:2993  donations */\n      0x03\n        /* \"contracts/donation.sol\":2984:2996  donations[i] */\n      0x00\n        /* \"contracts/donation.sol\":2994:2995  i */\n      dup4\n        /* \"contracts/donation.sol\":2984:2996  donations[i] */\n      dup2\n      mstore\n      0x20\n      add\n      swap1\n      dup2\n      mstore\n      0x20\n      add\n      0x00\n      keccak256\n        /* \"contracts/donation.sol\":2984:3004  donations[i].charity */\n      0x00\n      add\n        /* \"contracts/donation.sol\":2967:3005  abi.encodePacked(donations[i].charity) */\n      add(0x20, mload(0x40))\n      tag_43\n      swap2\n      swap1\n      tag_44\n      jump\t// in\n    tag_43:\n      mload(0x40)\n      0x20\n      dup2\n      dup4\n      sub\n      sub\n      dup2\n      mstore\n      swap1\n      0x40\n      mstore\n        /* \"contracts/donation.sol\":2957:3006  keccak256(abi.encodePacked(donations[i].charity)) */\n      dup1\n      mload\n      swap1\n      0x20\n      add\n      keccak256\n        /* \"contracts/donation.sol\":2957:3047  keccak256(abi.encodePacked(donations[i].charity)) == keccak256(abi.encodePacked(_charity)) */\n      sub\n        /* \"contracts/donation.sol\":2953:3091  if (keccak256(abi.encodePacked(donations[i].charity)) == keccak256(abi.encodePacked(_charity))) {... */\n      tag_45\n      jumpi\n        /* \"contracts/donation.sol\":3068:3075  count++ */\n      dup2\n      dup1\n      tag_46\n      swap1\n      tag_47\n      jump\t// in\n    tag_46:\n      swap3\n      pop\n      pop\n        /* \"contracts/donation.sol\":2953:3091  if (keccak256(abi.encodePacked(donations[i].charity)) == keccak256(abi.encodePacked(_charity))) {... */\n    tag_45:\n        /* \"contracts/donation.sol\":2933:2936  i++ */\n      dup1\n      dup1\n      tag_48\n      swap1\n      tag_47\n      jump\t// in\n    tag_48:\n      swap2\n      pop\n      pop\n        /* \"contracts/donation.sol\":2896:3102  for (uint i = 1; i <= donationCount; i++) {... */\n      jump(tag_38)\n    tag_39:\n      pop\n        /* \"contracts/donation.sol\":3177:3209  Donation[] memory donationsArray */\n      0x00\n        /* \"contracts/donation.sol\":3227:3232  count */\n      dup2\n        /* \"contracts/donation.sol\":3212:3233  new Donation[](count) */\n      0xffffffffffffffff\n      dup2\n      gt\n      iszero\n      tag_49\n      jumpi\n      tag_50\n      tag_51\n      jump\t// in\n    tag_50:\n    tag_49:\n      mload(0x40)\n      swap1\n      dup1\n      dup3\n      mstore\n      dup1\n      0x20\n      mul\n      0x20\n      add\n      dup3\n      add\n      0x40\n      mstore\n      dup1\n      iszero\n      tag_52\n      jumpi\n      dup2\n      0x20\n      add\n    tag_53:\n      tag_54\n      tag_55\n      jump\t// in\n    tag_54:\n      dup2\n      mstore\n      0x20\n      add\n      swap1\n      0x01\n      swap1\n      sub\n      swap1\n      dup2\n      tag_53\n      jumpi\n      swap1\n      pop\n    tag_52:\n      pop\n        /* \"contracts/donation.sol\":3177:3233  Donation[] memory donationsArray = new Donation[](count) */\n      swap1\n      pop\n        /* \"contracts/donation.sol\":3244:3254  uint index */\n      0x00\n        /* \"contracts/donation.sol\":3257:3258  0 */\n      0x00\n        /* \"contracts/donation.sol\":3244:3258  uint index = 0 */\n      swap1\n      pop\n        /* \"contracts/donation.sol\":3308:3314  uint i */\n      0x00\n        /* \"contracts/donation.sol\":3317:3318  1 */\n      0x01\n        /* \"contracts/donation.sol\":3308:3318  uint i = 1 */\n      swap1\n      pop\n        /* \"contracts/donation.sol\":3303:3564  for (uint i = 1; i <= donationCount; ++i) {... */\n    tag_56:\n        /* \"contracts/donation.sol\":3325:3338  donationCount */\n      sload(0x04)\n        /* \"contracts/donation.sol\":3320:3321  i */\n      dup2\n        /* \"contracts/donation.sol\":3320:3338  i <= donationCount */\n      gt\n        /* \"contracts/donation.sol\":3303:3564  for (uint i = 1; i <= donationCount; ++i) {... */\n      tag_57\n      jumpi\n        /* \"contracts/donation.sol\":3444:3452  _charity */\n      dup6\n        /* \"contracts/donation.sol\":3427:3453  abi.encodePacked(_charity) */\n      add(0x20, mload(0x40))\n      tag_59\n      swap2\n      swap1\n      tag_42\n      jump\t// in\n    tag_59:\n      mload(0x40)\n      0x20\n      dup2\n      dup4\n      sub\n      sub\n      dup2\n      mstore\n      swap1\n      0x40\n      mstore\n        /* \"contracts/donation.sol\":3417:3454  keccak256(abi.encodePacked(_charity)) */\n      dup1\n      mload\n      swap1\n      0x20\n      add\n      keccak256\n        /* \"contracts/donation.sol\":3391:3400  donations */\n      0x03\n        /* \"contracts/donation.sol\":3391:3403  donations[i] */\n      0x00\n        /* \"contracts/donation.sol\":3401:3402  i */\n      dup4\n        /* \"contracts/donation.sol\":3391:3403  donations[i] */\n      dup2\n      mstore\n      0x20\n      add\n      swap1\n      dup2\n      mstore\n      0x20\n      add\n      0x00\n      keccak256\n        /* \"contracts/donation.sol\":3391:3411  donations[i].charity */\n      0x00\n      add\n        /* \"contracts/donation.sol\":3374:3412  abi.encodePacked(donations[i].charity) */\n      add(0x20, mload(0x40))\n      tag_60\n      swap2\n      swap1\n      tag_44\n      jump\t// in\n    tag_60:\n      mload(0x40)\n      0x20\n      dup2\n      dup4\n      sub\n      sub\n      dup2\n      mstore\n      swap1\n      0x40\n      mstore\n        /* \"contracts/donation.sol\":3364:3413  keccak256(abi.encodePacked(donations[i].charity)) */\n      dup1\n      mload\n      swap1\n      0x20\n      add\n      keccak256\n        /* \"contracts/donation.sol\":3364:3454  keccak256(abi.encodePacked(donations[i].charity)) == keccak256(abi.encodePacked(_charity)) */\n      sub\n        /* \"contracts/donation.sol\":3360:3553  if (keccak256(abi.encodePacked(donations[i].charity)) == keccak256(abi.encodePacked(_charity))) {... */\n      tag_61\n      jumpi\n        /* \"contracts/donation.sol\":3499:3508  donations */\n      0x03\n        /* \"contracts/donation.sol\":3499:3511  donations[i] */\n      0x00\n        /* \"contracts/donation.sol\":3509:3510  i */\n      dup3\n        /* \"contracts/donation.sol\":3499:3511  donations[i] */\n      dup2\n      mstore\n      0x20\n      add\n      swap1\n      dup2\n      mstore\n      0x20\n      add\n      0x00\n      keccak256\n        /* \"contracts/donation.sol\":3475:3511  donationsArray[index] = donations[i] */\n      mload(0x40)\n      dup1\n      0x80\n      add\n      0x40\n      mstore\n      swap1\n      dup2\n      0x00\n      dup3\n      add\n      dup1\n      sload\n      tag_62\n      swap1\n      tag_63\n      jump\t// in\n    tag_62:\n      dup1\n      0x1f\n      add\n      0x20\n      dup1\n      swap2\n      div\n      mul\n      0x20\n      add\n      mload(0x40)\n      swap1\n      dup2\n      add\n      0x40\n      mstore\n      dup1\n      swap3\n      swap2\n      swap1\n      dup2\n      dup2\n      mstore\n      0x20\n      add\n      dup3\n      dup1\n      sload\n      tag_64\n      swap1\n      tag_63\n      jump\t// in\n    tag_64:\n      dup1\n      iszero\n      tag_65\n      jumpi\n      dup1\n      0x1f\n      lt\n      tag_66\n      jumpi\n      0x0100\n      dup1\n      dup4\n      sload\n      div\n      mul\n      dup4\n      mstore\n      swap2\n      0x20\n      add\n      swap2\n      jump(tag_65)\n    tag_66:\n      dup3\n      add\n      swap2\n      swap1\n      0x00\n      mstore\n      keccak256(0x00, 0x20)\n      swap1\n    tag_67:\n      dup2\n      sload\n      dup2\n      mstore\n      swap1\n      0x01\n      add\n      swap1\n      0x20\n      add\n      dup1\n      dup4\n      gt\n      tag_67\n      jumpi\n      dup3\n      swap1\n      sub\n      0x1f\n      and\n      dup3\n      add\n      swap2\n    tag_65:\n      pop\n      pop\n      pop\n      pop\n      pop\n      dup2\n      mstore\n      0x20\n      add\n      0x01\n      dup3\n      add\n      0x00\n      swap1\n      sload\n      swap1\n      0x0100\n      exp\n      swap1\n      div\n      0xffffffffffffffffffffffffffffffffffffffff\n      and\n      0xffffffffffffffffffffffffffffffffffffffff\n      and\n      0xffffffffffffffffffffffffffffffffffffffff\n      and\n      dup2\n      mstore\n      0x20\n      add\n      0x02\n      dup3\n      add\n      0x00\n      swap1\n      sload\n      swap1\n      0x0100\n      exp\n      swap1\n      div\n      0xffffffffffffffffffffffffffffffffffffffff\n      and\n      0xffffffffffffffffffffffffffffffffffffffff\n      and\n      0xffffffffffffffffffffffffffffffffffffffff\n      and\n      dup2\n      mstore\n      0x20\n      add\n      0x03\n      dup3\n      add\n      sload\n      dup2\n      mstore\n      pop\n      pop\n        /* \"contracts/donation.sol\":3475:3489  donationsArray */\n      dup4\n        /* \"contracts/donation.sol\":3490:3495  index */\n      dup4\n        /* \"contracts/donation.sol\":3475:3496  donationsArray[index] */\n      dup2\n      mload\n      dup2\n      lt\n      tag_68\n      jumpi\n      tag_69\n      tag_70\n      jump\t// in\n    tag_69:\n    tag_68:\n      0x20\n      mul\n      0x20\n      add\n      add\n        /* \"contracts/donation.sol\":3475:3511  donationsArray[index] = donations[i] */\n      dup2\n      swap1\n      mstore\n      pop\n        /* \"contracts/donation.sol\":3530:3537  index++ */\n      dup2\n      dup1\n      tag_71\n      swap1\n      tag_47\n      jump\t// in\n    tag_71:\n      swap3\n      pop\n      pop\n        /* \"contracts/donation.sol\":3360:3553  if (keccak256(abi.encodePacked(donations[i].charity)) == keccak256(abi.encodePacked(_charity))) {... */\n    tag_61:\n        /* \"contracts/donation.sol\":3340:3343  ++i */\n      dup1\n      tag_72\n      swap1\n      tag_47\n      jump\t// in\n    tag_72:\n      swap1\n      pop\n        /* \"contracts/donation.sol\":3303:3564  for (uint i = 1; i <= donationCount; ++i) {... */\n      jump(tag_56)\n    tag_57:\n      pop\n        /* \"contracts/donation.sol\":3583:3597  donationsArray */\n      dup2\n        /* \"contracts/donation.sol\":3576:3597  return donationsArray */\n      swap4\n      pop\n      pop\n      pop\n      pop\n        /* \"contracts/donation.sol\":2712:3605  function getDonationsByName(string memory _charity) public view returns (Donation[] memory) {... */\n      swap2\n      swap1\n      pop\n      jump\t// out\n        /* \"contracts/donation.sol\":920:948  uint256 public donationCount */\n    tag_16:\n      sload(0x04)\n      dup2\n      jump\t// out\n        /* \"contracts/donation.sol\":4428:4806  function getAllDonations() public view returns (Donation[] memory) {... */\n    tag_20:\n        /* \"contracts/donation.sol\":4476:4493  Donation[] memory */\n      0x60\n        /* \"contracts/donation.sol\":4549:4581  Donation[] memory donationsArray */\n      0x00\n        /* \"contracts/donation.sol\":4599:4612  donationCount */\n      sload(0x04)\n        /* \"contracts/donation.sol\":4584:4613  new Donation[](donationCount) */\n      0xffffffffffffffff\n      dup2\n      gt\n      iszero\n      tag_74\n      jumpi\n      tag_75\n      tag_51\n      jump\t// in\n    tag_75:\n    tag_74:\n      mload(0x40)\n      swap1\n      dup1\n      dup3\n      mstore\n      dup1\n      0x20\n      mul\n      0x20\n      add\n      dup3\n      add\n      0x40\n      mstore\n      dup1\n      iszero\n      tag_76\n      jumpi\n      dup2\n      0x20\n      add\n    tag_77:\n      tag_78\n      tag_55\n      jump\t// in\n    tag_78:\n      dup2\n      mstore\n      0x20\n      add\n      swap1\n      0x01\n      swap1\n      sub\n      swap1\n      dup2\n      tag_77\n      jumpi\n      swap1\n      pop\n    tag_76:\n      pop\n        /* \"contracts/donation.sol\":4549:4613  Donation[] memory donationsArray = new Donation[](donationCount) */\n      swap1\n      pop\n        /* \"contracts/donation.sol\":4665:4671  uint i */\n      0x00\n        /* \"contracts/donation.sol\":4674:4675  1 */\n      0x01\n        /* \"contracts/donation.sol\":4665:4675  uint i = 1 */\n      swap1\n      pop\n        /* \"contracts/donation.sol\":4660:4765  for (uint i = 1; i <= donationCount; ++i) {... */\n    tag_79:\n        /* \"contracts/donation.sol\":4682:4695  donationCount */\n      sload(0x04)\n        /* \"contracts/donation.sol\":4677:4678  i */\n      dup2\n        /* \"contracts/donation.sol\":4677:4695  i <= donationCount */\n      gt\n        /* \"contracts/donation.sol\":4660:4765  for (uint i = 1; i <= donationCount; ++i) {... */\n      tag_80\n      jumpi\n        /* \"contracts/donation.sol\":4741:4750  donations */\n      0x03\n        /* \"contracts/donation.sol\":4741:4753  donations[i] */\n      0x00\n        /* \"contracts/donation.sol\":4751:4752  i */\n      dup3\n        /* \"contracts/donation.sol\":4741:4753  donations[i] */\n      dup2\n      mstore\n      0x20\n      add\n      swap1\n      dup2\n      mstore\n      0x20\n      add\n      0x00\n      keccak256\n        /* \"contracts/donation.sol\":4717:4753  donationsArray[(i-1)] = donations[i] */\n      mload(0x40)\n      dup1\n      0x80\n      add\n      0x40\n      mstore\n      swap1\n      dup2\n      0x00\n      dup3\n      add\n      dup1\n      sload\n      tag_82\n      swap1\n      tag_63\n      jump\t// in\n    tag_82:\n      dup1\n      0x1f\n      add\n      0x20\n      dup1\n      swap2\n      div\n      mul\n      0x20\n      add\n      mload(0x40)\n      swap1\n      dup2\n      add\n      0x40\n      mstore\n      dup1\n      swap3\n      swap2\n      swap1\n      dup2\n      dup2\n      mstore\n      0x20\n      add\n      dup3\n      dup1\n      sload\n      tag_83\n      swap1\n      tag_63\n      jump\t// in\n    tag_83:\n      dup1\n      iszero\n      tag_84\n      jumpi\n      dup1\n      0x1f\n      lt\n      tag_85\n      jumpi\n      0x0100\n      dup1\n      dup4\n      sload\n      div\n      mul\n      dup4\n      mstore\n      swap2\n      0x20\n      add\n      swap2\n      jump(tag_84)\n    tag_85:\n      dup3\n      add\n      swap2\n      swap1\n      0x00\n      mstore\n      keccak256(0x00, 0x20)\n      swap1\n    tag_86:\n      dup2\n      sload\n      dup2\n      mstore\n      swap1\n      0x01\n      add\n      swap1\n      0x20\n      add\n      dup1\n      dup4\n      gt\n      tag_86\n      jumpi\n      dup3\n      swap1\n      sub\n      0x1f\n      and\n      dup3\n      add\n      swap2\n    tag_84:\n      pop\n      pop\n      pop\n      pop\n      pop\n      dup2\n      mstore\n      0x20\n      add\n      0x01\n      dup3\n      add\n      0x00\n      swap1\n      sload\n      swap1\n      0x0100\n      exp\n      swap1\n      div\n      0xffffffffffffffffffffffffffffffffffffffff\n      and\n      0xffffffffffffffffffffffffffffffffffffffff\n      and\n      0xffffffffffffffffffffffffffffffffffffffff\n      and\n      dup2\n      mstore\n      0x20\n      add\n      0x02\n      dup3\n      add\n      0x00\n      swap1\n      sload\n      swap1\n      0x0100\n      exp\n      swap1\n      div\n      0xffffffffffffffffffffffffffffffffffffffff\n      and\n      0xffffffffffffffffffffffffffffffffffffffff\n      and\n      0xffffffffffffffffffffffffffffffffffffffff\n      and\n      dup2\n      mstore\n      0x20\n      add\n      0x03\n      dup3\n      add\n      sload\n      dup2\n      mstore\n      pop\n      pop\n        /* \"contracts/donation.sol\":4717:4731  donationsArray */\n      dup3\n        /* \"contracts/donation.sol\":4735:4736  1 */\n      0x01\n        /* \"contracts/donation.sol\":4733:4734  i */\n      dup4\n        /* \"contracts/donation.sol\":4733:4736  i-1 */\n      tag_87\n      swap2\n      swap1\n      tag_88\n      jump\t// in\n    tag_87:\n        /* \"contracts/donation.sol\":4717:4738  donationsArray[(i-1)] */\n      dup2\n      mload\n      dup2\n      lt\n      tag_89\n      jumpi\n      tag_90\n      tag_70\n      jump\t// in\n    tag_90:\n    tag_89:\n      0x20\n      mul\n      0x20\n      add\n      add\n        /* \"contracts/donation.sol\":4717:4753  donationsArray[(i-1)] = donations[i] */\n      dup2\n      swap1\n      mstore\n      pop\n        /* \"contracts/donation.sol\":4697:4700  ++i */\n      dup1\n      tag_91\n      swap1\n      tag_47\n      jump\t// in\n    tag_91:\n      swap1\n      pop\n        /* \"contracts/donation.sol\":4660:4765  for (uint i = 1; i <= donationCount; ++i) {... */\n      jump(tag_79)\n    tag_80:\n      pop\n        /* \"contracts/donation.sol\":4784:4798  donationsArray */\n      dup1\n        /* \"contracts/donation.sol\":4777:4798  return donationsArray */\n      swap2\n      pop\n      pop\n        /* \"contracts/donation.sol\":4428:4806  function getAllDonations() public view returns (Donation[] memory) {... */\n      swap1\n      jump\t// out\n        /* \"contracts/donation.sol\":3613:4414  function getDonationsByAddress(address _charityAddress) public view returns (Donation[] memory) {... */\n    tag_25:\n        /* \"contracts/donation.sol\":3690:3707  Donation[] memory */\n      0x60\n        /* \"contracts/donation.sol\":3720:3730  uint count */\n      0x00\n        /* \"contracts/donation.sol\":3733:3734  0 */\n      0x00\n        /* \"contracts/donation.sol\":3720:3734  uint count = 0 */\n      swap1\n      pop\n        /* \"contracts/donation.sol\":3806:3812  uint i */\n      0x00\n        /* \"contracts/donation.sol\":3815:3816  1 */\n      0x01\n        /* \"contracts/donation.sol\":3806:3816  uint i = 1 */\n      swap1\n      pop\n        /* \"contracts/donation.sol\":3801:3959  for (uint i = 1; i <= donationCount; i++) {... */\n    tag_93:\n        /* \"contracts/donation.sol\":3823:3836  donationCount */\n      sload(0x04)\n        /* \"contracts/donation.sol\":3818:3819  i */\n      dup2\n        /* \"contracts/donation.sol\":3818:3836  i <= donationCount */\n      gt\n        /* \"contracts/donation.sol\":3801:3959  for (uint i = 1; i <= donationCount; i++) {... */\n      tag_94\n      jumpi\n        /* \"contracts/donation.sol\":3889:3904  _charityAddress */\n      dup4\n        /* \"contracts/donation.sol\":3862:3904  donations[i].charityAdd == _charityAddress */\n      0xffffffffffffffffffffffffffffffffffffffff\n      and\n        /* \"contracts/donation.sol\":3862:3871  donations */\n      0x03\n        /* \"contracts/donation.sol\":3862:3874  donations[i] */\n      0x00\n        /* \"contracts/donation.sol\":3872:3873  i */\n      dup4\n        /* \"contracts/donation.sol\":3862:3874  donations[i] */\n      dup2\n      mstore\n      0x20\n      add\n      swap1\n      dup2\n      mstore\n      0x20\n      add\n      0x00\n      keccak256\n        /* \"contracts/donation.sol\":3862:3885  donations[i].charityAdd */\n      0x01\n      add\n      0x00\n      swap1\n      sload\n      swap1\n      0x0100\n      exp\n      swap1\n      div\n      0xffffffffffffffffffffffffffffffffffffffff\n      and\n        /* \"contracts/donation.sol\":3862:3904  donations[i].charityAdd == _charityAddress */\n      0xffffffffffffffffffffffffffffffffffffffff\n      and\n      sub\n        /* \"contracts/donation.sol\":3858:3948  if (donations[i].charityAdd == _charityAddress) {... */\n      tag_96\n      jumpi\n        /* \"contracts/donation.sol\":3925:3932  count++ */\n      dup2\n      dup1\n      tag_97\n      swap1\n      tag_47\n      jump\t// in\n    tag_97:\n      swap3\n      pop\n      pop\n        /* \"contracts/donation.sol\":3858:3948  if (donations[i].charityAdd == _charityAddress) {... */\n    tag_96:\n        /* \"contracts/donation.sol\":3838:3841  i++ */\n      dup1\n      dup1\n      tag_98\n      swap1\n      tag_47\n      jump\t// in\n    tag_98:\n      swap2\n      pop\n      pop\n        /* \"contracts/donation.sol\":3801:3959  for (uint i = 1; i <= donationCount; i++) {... */\n      jump(tag_93)\n    tag_94:\n      pop\n        /* \"contracts/donation.sol\":4034:4066  Donation[] memory donationsArray */\n      0x00\n        /* \"contracts/donation.sol\":4084:4089  count */\n      dup2\n        /* \"contracts/donation.sol\":4069:4090  new Donation[](count) */\n      0xffffffffffffffff\n      dup2\n      gt\n      iszero\n      tag_99\n      jumpi\n      tag_100\n      tag_51\n      jump\t// in\n    tag_100:\n    tag_99:\n      mload(0x40)\n      swap1\n      dup1\n      dup3\n      mstore\n      dup1\n      0x20\n      mul\n      0x20\n      add\n      dup3\n      add\n      0x40\n      mstore\n      dup1\n      iszero\n      tag_101\n      jumpi\n      dup2\n      0x20\n      add\n    tag_102:\n      tag_103\n      tag_55\n      jump\t// in\n    tag_103:\n      dup2\n      mstore\n      0x20\n      add\n      swap1\n      0x01\n      swap1\n      sub\n      swap1\n      dup2\n      tag_102\n      jumpi\n      swap1\n      pop\n    tag_101:\n      pop\n        /* \"contracts/donation.sol\":4034:4090  Donation[] memory donationsArray = new Donation[](count) */\n      swap1\n      pop\n        /* \"contracts/donation.sol\":4101:4111  uint index */\n      0x00\n        /* \"contracts/donation.sol\":4114:4115  0 */\n      0x00\n        /* \"contracts/donation.sol\":4101:4115  uint index = 0 */\n      swap1\n      pop\n        /* \"contracts/donation.sol\":4165:4171  uint i */\n      0x00\n        /* \"contracts/donation.sol\":4174:4175  1 */\n      0x01\n        /* \"contracts/donation.sol\":4165:4175  uint i = 1 */\n      swap1\n      pop\n        /* \"contracts/donation.sol\":4160:4373  for (uint i = 1; i <= donationCount; ++i) {... */\n    tag_104:\n        /* \"contracts/donation.sol\":4182:4195  donationCount */\n      sload(0x04)\n        /* \"contracts/donation.sol\":4177:4178  i */\n      dup2\n        /* \"contracts/donation.sol\":4177:4195  i <= donationCount */\n      gt\n        /* \"contracts/donation.sol\":4160:4373  for (uint i = 1; i <= donationCount; ++i) {... */\n      tag_105\n      jumpi\n        /* \"contracts/donation.sol\":4248:4263  _charityAddress */\n      dup6\n        /* \"contracts/donation.sol\":4221:4263  donations[i].charityAdd == _charityAddress */\n      0xffffffffffffffffffffffffffffffffffffffff\n      and\n        /* \"contracts/donation.sol\":4221:4230  donations */\n      0x03\n        /* \"contracts/donation.sol\":4221:4233  donations[i] */\n      0x00\n        /* \"contracts/donation.sol\":4231:4232  i */\n      dup4\n        /* \"contracts/donation.sol\":4221:4233  donations[i] */\n      dup2\n      mstore\n      0x20\n      add\n      swap1\n      dup2\n      mstore\n      0x20\n      add\n      0x00\n      keccak256\n        /* \"contracts/donation.sol\":4221:4244  donations[i].charityAdd */\n      0x01\n      add\n      0x00\n      swap1\n      sload\n      swap1\n      0x0100\n      exp\n      swap1\n      div\n      0xffffffffffffffffffffffffffffffffffffffff\n      and\n        /* \"contracts/donation.sol\":4221:4263  donations[i].charityAdd == _charityAddress */\n      0xffffffffffffffffffffffffffffffffffffffff\n      and\n      sub\n        /* \"contracts/donation.sol\":4217:4362  if (donations[i].charityAdd == _charityAddress) {... */\n      tag_107\n      jumpi\n        /* \"contracts/donation.sol\":4308:4317  donations */\n      0x03\n        /* \"contracts/donation.sol\":4308:4320  donations[i] */\n      0x00\n        /* \"contracts/donation.sol\":4318:4319  i */\n      dup3\n        /* \"contracts/donation.sol\":4308:4320  donations[i] */\n      dup2\n      mstore\n      0x20\n      add\n      swap1\n      dup2\n      mstore\n      0x20\n      add\n      0x00\n      keccak256\n        /* \"contracts/donation.sol\":4284:4320  donationsArray[index] = donations[i] */\n      mload(0x40)\n      dup1\n      0x80\n      add\n      0x40\n      mstore\n      swap1\n      dup2\n      0x00\n      dup3\n      add\n      dup1\n      sload\n      tag_108\n      swap1\n      tag_63\n      jump\t// in\n    tag_108:\n      dup1\n      0x1f\n      add\n      0x20\n      dup1\n      swap2\n      div\n      mul\n      0x20\n      add\n      mload(0x40)\n      swap1\n      dup2\n      add\n      0x40\n      mstore\n      dup1\n      swap3\n      swap2\n      swap1\n      dup2\n      dup2\n      mstore\n      0x20\n      add\n      dup3\n      dup1\n      sload\n      tag_109\n      swap1\n      tag_63\n      jump\t// in\n    tag_109:\n      dup1\n      iszero\n      tag_110\n      jumpi\n      dup1\n      0x1f\n      lt\n      tag_111\n      jumpi\n      0x0100\n      dup1\n      dup4\n      sload\n      div\n      mul\n      dup4\n      mstore\n      swap2\n      0x20\n      add\n      swap2\n      jump(tag_110)\n    tag_111:\n      dup3\n      add\n      swap2\n      swap1\n      0x00\n      mstore\n      keccak256(0x00, 0x20)\n      swap1\n    tag_112:\n      dup2\n      sload\n      dup2\n      mstore\n      swap1\n      0x01\n      add\n      swap1\n      0x20\n      add\n      dup1\n      dup4\n      gt\n      tag_112\n      jumpi\n      dup3\n      swap1\n      sub\n      0x1f\n      and\n      dup3\n      add\n      swap2\n    tag_110:\n      pop\n      pop\n      pop\n      pop\n      pop\n      dup2\n      mstore\n      0x20\n      add\n      0x01\n      dup3\n      add\n      0x00\n      swap1\n      sload\n      swap1\n      0x0100\n      exp\n      swap1\n      div\n      0xffffffffffffffffffffffffffffffffffffffff\n      and\n      0xffffffffffffffffffffffffffffffffffffffff\n      and\n      0xffffffffffffffffffffffffffffffffffffffff\n      and\n      dup2\n      mstore\n      0x20\n      add\n      0x02\n      dup3\n      add\n      0x00\n      swap1\n      sload\n      swap1\n      0x0100\n      exp\n      swap1\n      div\n      0xffffffffffffffffffffffffffffffffffffffff\n      and\n      0xffffffffffffffffffffffffffffffffffffffff\n      and\n      0xffffffffffffffffffffffffffffffffffffffff\n      and\n      dup2\n      mstore\n      0x20\n      add\n      0x03\n      dup3\n      add\n      sload\n      dup2\n      mstore\n      pop\n      pop\n        /* \"contracts/donation.sol\":4284:4298  donationsArray */\n      dup4\n        /* \"contracts/donation.sol\":4299:4304  index */\n      dup4\n        /* \"contracts/donation.sol\":4284:4305  donationsArray[index] */\n      dup2\n      mload\n      dup2\n      lt\n      tag_113\n      jumpi\n      tag_114\n      tag_70\n      jump\t// in\n    tag_114:\n    tag_113:\n      0x20\n      mul\n      0x20\n      add\n      add\n        /* \"contracts/donation.sol\":4284:4320  donationsArray[index] = donations[i] */\n      dup2\n      swap1\n      mstore\n      pop\n        /* \"contracts/donation.sol\":4339:4346  index++ */\n      dup2\n      dup1\n      tag_115\n      swap1\n      tag_47\n      jump\t// in\n    tag_115:\n      swap3\n      pop\n      pop\n        /* \"contracts/donation.sol\":4217:4362  if (donations[i].charityAdd == _charityAddress) {... */\n    tag_107:\n        /* \"contracts/donation.sol\":4197:4200  ++i */\n      dup1\n      tag_116\n      swap1\n      tag_47\n      jump\t// in\n    tag_116:\n      swap1\n      pop\n        /* \"contracts/donation.sol\":4160:4373  for (uint i = 1; i <= donationCount; ++i) {... */\n      jump(tag_104)\n    tag_105:\n      pop\n        /* \"contracts/donation.sol\":4392:4406  donationsArray */\n      dup2\n        /* \"contracts/donation.sol\":4385:4406  return donationsArray */\n      swap4\n      pop\n      pop\n      pop\n      pop\n        /* \"contracts/donation.sol\":3613:4414  function getDonationsByAddress(address _charityAddress) public view returns (Donation[] memory) {... */\n      swap2\n      swap1\n      pop\n      jump\t// out\n        /* \"contracts/donation.sol\":1915:2704  function donate(string memory _charity, address charityAdd, address donorAdd, uint _donationAmount) public {... */\n    tag_30:\n        /* \"contracts/donation.sol\":2053:2070  verifyContractAdd */\n      0x00\n      0x00\n      swap1\n      sload\n      swap1\n      0x0100\n      exp\n      swap1\n      div\n      0xffffffffffffffffffffffffffffffffffffffff\n      and\n        /* \"contracts/donation.sol\":2038:2085  ICharityVerify(verifyContractAdd).verifyCharity */\n      0xffffffffffffffffffffffffffffffffffffffff\n      and\n      0xdd308cb8\n        /* \"contracts/donation.sol\":2086:2096  charityAdd */\n      dup5\n        /* \"contracts/donation.sol\":2098:2106  _charity */\n      dup7\n        /* \"contracts/donation.sol\":2038:2107  ICharityVerify(verifyContractAdd).verifyCharity(charityAdd, _charity) */\n      mload(0x40)\n      dup4\n      0xffffffff\n      and\n      0xe0\n      shl\n      dup2\n      mstore\n      0x04\n      add\n      tag_118\n      swap3\n      swap2\n      swap1\n      tag_119\n      jump\t// in\n    tag_118:\n      0x20\n      mload(0x40)\n      dup1\n      dup4\n      sub\n      dup2\n      dup7\n      gas\n      staticcall\n      iszero\n      dup1\n      iszero\n      tag_121\n      jumpi\n      returndatacopy(0x00, 0x00, returndatasize)\n      revert(0x00, returndatasize)\n    tag_121:\n      pop\n      pop\n      pop\n      pop\n      mload(0x40)\n      returndatasize\n      not(0x1f)\n      0x1f\n      dup3\n      add\n      and\n      dup3\n      add\n      dup1\n      0x40\n      mstore\n      pop\n      dup2\n      add\n      swap1\n      tag_122\n      swap2\n      swap1\n      tag_123\n      jump\t// in\n    tag_122:\n        /* \"contracts/donation.sol\":2033:2155  if(!(ICharityVerify(verifyContractAdd).verifyCharity(charityAdd, _charity))){... */\n      tag_124\n      jumpi\n        /* \"contracts/donation.sol\":2124:2143  revert(\"not valid\") */\n      mload(0x40)\n      0x08c379a000000000000000000000000000000000000000000000000000000000\n      dup2\n      mstore\n      0x04\n      add\n      tag_125\n      swap1\n      tag_126\n      jump\t// in\n    tag_125:\n      mload(0x40)\n      dup1\n      swap2\n      sub\n      swap1\n      revert\n        /* \"contracts/donation.sol\":2033:2155  if(!(ICharityVerify(verifyContractAdd).verifyCharity(charityAdd, _charity))){... */\n    tag_124:\n        /* \"contracts/donation.sol\":2178:2190  milestoneAdd */\n      0x01\n      0x00\n      swap1\n      sload\n      swap1\n      0x0100\n      exp\n      swap1\n      div\n      0xffffffffffffffffffffffffffffffffffffffff\n      and\n        /* \"contracts/donation.sol\":2167:2207  IMilestone(milestoneAdd).contributeFunds */\n      0xffffffffffffffffffffffffffffffffffffffff\n      and\n      0xf25d75e7\n        /* \"contracts/donation.sol\":2208:2216  _charity */\n      dup6\n        /* \"contracts/donation.sol\":2218:2233  _donationAmount */\n      dup4\n        /* \"contracts/donation.sol\":2167:2234  IMilestone(milestoneAdd).contributeFunds(_charity, _donationAmount) */\n      mload(0x40)\n      dup4\n      0xffffffff\n      and\n      0xe0\n      shl\n      dup2\n      mstore\n      0x04\n      add\n      tag_127\n      swap3\n      swap2\n      swap1\n      tag_128\n      jump\t// in\n    tag_127:\n      0x00\n      mload(0x40)\n      dup1\n      dup4\n      sub\n      dup2\n      0x00\n      dup8\n      dup1\n      extcodesize\n      iszero\n      dup1\n      iszero\n      tag_129\n      jumpi\n      revert(0x00, 0x00)\n    tag_129:\n      pop\n      gas\n      call\n      iszero\n      dup1\n      iszero\n      tag_131\n      jumpi\n      returndatacopy(0x00, 0x00, returndatasize)\n      revert(0x00, returndatasize)\n    tag_131:\n      pop\n      pop\n      pop\n      pop\n        /* \"contracts/donation.sol\":2324:2337  donationCount */\n      0x04\n      0x00\n        /* \"contracts/donation.sol\":2324:2339  donationCount++ */\n      dup2\n      sload\n      dup1\n      swap3\n      swap2\n      swap1\n      tag_132\n      swap1\n      tag_47\n      jump\t// in\n    tag_132:\n      swap2\n      swap1\n      pop\n      sstore\n      pop\n        /* \"contracts/donation.sol\":2466:2523  Donation(_charity, charityAdd, donorAdd, _donationAmount) */\n      mload(0x40)\n      dup1\n      0x80\n      add\n      0x40\n      mstore\n      dup1\n        /* \"contracts/donation.sol\":2475:2483  _charity */\n      dup6\n        /* \"contracts/donation.sol\":2466:2523  Donation(_charity, charityAdd, donorAdd, _donationAmount) */\n      dup2\n      mstore\n      0x20\n      add\n        /* \"contracts/donation.sol\":2485:2495  charityAdd */\n      dup5\n        /* \"contracts/donation.sol\":2466:2523  Donation(_charity, charityAdd, donorAdd, _donationAmount) */\n      0xffffffffffffffffffffffffffffffffffffffff\n      and\n      dup2\n      mstore\n      0x20\n      add\n        /* \"contracts/donation.sol\":2497:2505  donorAdd */\n      dup4\n        /* \"contracts/donation.sol\":2466:2523  Donation(_charity, charityAdd, donorAdd, _donationAmount) */\n      0xffffffffffffffffffffffffffffffffffffffff\n      and\n      dup2\n      mstore\n      0x20\n      add\n        /* \"contracts/donation.sol\":2507:2522  _donationAmount */\n      dup3\n        /* \"contracts/donation.sol\":2466:2523  Donation(_charity, charityAdd, donorAdd, _donationAmount) */\n      dup2\n      mstore\n      pop\n        /* \"contracts/donation.sol\":2439:2448  donations */\n      0x03\n        /* \"contracts/donation.sol\":2439:2463  donations[donationCount] */\n      0x00\n        /* \"contracts/donation.sol\":2449:2462  donationCount */\n      sload(0x04)\n        /* \"contracts/donation.sol\":2439:2463  donations[donationCount] */\n      dup2\n      mstore\n      0x20\n      add\n      swap1\n      dup2\n      mstore\n      0x20\n      add\n      0x00\n      keccak256\n        /* \"contracts/donation.sol\":2439:2523  donations[donationCount] = Donation(_charity, charityAdd, donorAdd, _donationAmount) */\n      0x00\n      dup3\n      add\n      mload\n      dup2\n      0x00\n      add\n      swap1\n      dup2\n      tag_133\n      swap2\n      swap1\n      tag_134\n      jump\t// in\n    tag_133:\n      pop\n      0x20\n      dup3\n      add\n      mload\n      dup2\n      0x01\n      add\n      exp(0x0100, 0x00)\n      dup2\n      sload\n      dup2\n      0xffffffffffffffffffffffffffffffffffffffff\n      mul\n      not\n      and\n      swap1\n      dup4\n      0xffffffffffffffffffffffffffffffffffffffff\n      and\n      mul\n      or\n      swap1\n      sstore\n      pop\n      0x40\n      dup3\n      add\n      mload\n      dup2\n      0x02\n      add\n      exp(0x0100, 0x00)\n      dup2\n      sload\n      dup2\n      0xffffffffffffffffffffffffffffffffffffffff\n      mul\n      not\n      and\n      swap1\n      dup4\n      0xffffffffffffffffffffffffffffffffffffffff\n      and\n      mul\n      or\n      swap1\n      sstore\n      pop\n      0x60\n      dup3\n      add\n      mload\n      dup2\n      0x03\n      add\n      sstore\n      swap1\n      pop\n      pop\n        /* \"contracts/donation.sol\":2617:2696  DonationCreated(donationCount, _charity, charityAdd, donorAdd, _donationAmount) */\n      0x879f7dd974eda17f1fccff5a63a47d118c632796970e5f357de16aa91c9eb796\n        /* \"contracts/donation.sol\":2633:2646  donationCount */\n      sload(0x04)\n        /* \"contracts/donation.sol\":2648:2656  _charity */\n      dup6\n        /* \"contracts/donation.sol\":2658:2668  charityAdd */\n      dup6\n        /* \"contracts/donation.sol\":2670:2678  donorAdd */\n      dup6\n        /* \"contracts/donation.sol\":2680:2695  _donationAmount */\n      dup6\n        /* \"contracts/donation.sol\":2617:2696  DonationCreated(donationCount, _charity, charityAdd, donorAdd, _donationAmount) */\n      mload(0x40)\n      tag_135\n      swap6\n      swap5\n      swap4\n      swap3\n      swap2\n      swap1\n      tag_136\n      jump\t// in\n    tag_135:\n      mload(0x40)\n      dup1\n      swap2\n      sub\n      swap1\n      log1\n        /* \"contracts/donation.sol\":1915:2704  function donate(string memory _charity, address charityAdd, address donorAdd, uint _donationAmount) public {... */\n      pop\n      pop\n      pop\n      pop\n      jump\t// out\n        /* \"contracts/donation.sol\":796:842  mapping (uint256 => Donation) public donations */\n    tag_34:\n      mstore(0x20, 0x03)\n      dup1\n      0x00\n      mstore\n      keccak256(0x00, 0x40)\n      0x00\n      swap2\n      pop\n      swap1\n      pop\n      dup1\n      0x00\n      add\n      dup1\n      sload\n      tag_137\n      swap1\n      tag_63\n      jump\t// in\n    tag_137:\n      dup1\n      0x1f\n      add\n      0x20\n      dup1\n      swap2\n      div\n      mul\n      0x20\n      add\n      mload(0x40)\n      swap1\n      dup2\n      add\n      0x40\n      mstore\n      dup1\n      swap3\n      swap2\n      swap1\n      dup2\n      dup2\n      mstore\n      0x20\n      add\n      dup3\n      dup1\n      sload\n      tag_138\n      swap1\n      tag_63\n      jump\t// in\n    tag_138:\n      dup1\n      iszero\n      tag_139\n      jumpi\n      dup1\n      0x1f\n      lt\n      tag_140\n      jumpi\n      0x0100\n      dup1\n      dup4\n      sload\n      div\n      mul\n      dup4\n      mstore\n      swap2\n      0x20\n      add\n      swap2\n      jump(tag_139)\n    tag_140:\n      dup3\n      add\n      swap2\n      swap1\n      0x00\n      mstore\n      keccak256(0x00, 0x20)\n      swap1\n    tag_141:\n      dup2\n      sload\n      dup2\n      mstore\n      swap1\n      0x01\n      add\n      swap1\n      0x20\n      add\n      dup1\n      dup4\n      gt\n      tag_141\n      jumpi\n      dup3\n      swap1\n      sub\n      0x1f\n      and\n      dup3\n      add\n      swap2\n    tag_139:\n      pop\n      pop\n      pop\n      pop\n      pop\n      swap1\n      dup1\n      0x01\n      add\n      0x00\n      swap1\n      sload\n      swap1\n      0x0100\n      exp\n      swap1\n      div\n      0xffffffffffffffffffffffffffffffffffffffff\n      and\n      swap1\n      dup1\n      0x02\n      add\n      0x00\n      swap1\n      sload\n      swap1\n      0x0100\n      exp\n      swap1\n      div\n      0xffffffffffffffffffffffffffffffffffffffff\n      and\n      swap1\n      dup1\n      0x03\n      add\n      sload\n      swap1\n      pop\n      dup5\n      jump\t// out\n    tag_55:\n      mload(0x40)\n      dup1\n      0x80\n      add\n      0x40\n      mstore\n      dup1\n      0x60\n      dup2\n      mstore\n      0x20\n      add\n      and(0xffffffffffffffffffffffffffffffffffffffff, 0x00)\n      dup2\n      mstore\n      0x20\n      add\n      and(0xffffffffffffffffffffffffffffffffffffffff, 0x00)\n      dup2\n      mstore\n      0x20\n      add\n      0x00\n      dup2\n      mstore\n      pop\n      swap1\n      jump\t// out\n        /* \"#utility.yul\":7:82   */\n    tag_142:\n        /* \"#utility.yul\":40:46   */\n      0x00\n        /* \"#utility.yul\":73:75   */\n      0x40\n        /* \"#utility.yul\":67:76   */\n      mload\n        /* \"#utility.yul\":57:76   */\n      swap1\n      pop\n        /* \"#utility.yul\":7:82   */\n      swap1\n      jump\t// out\n        /* \"#utility.yul\":88:205   */\n    tag_143:\n        /* \"#utility.yul\":197:198   */\n      0x00\n        /* \"#utility.yul\":194:195   */\n      0x00\n        /* \"#utility.yul\":187:199   */\n      revert\n        /* \"#utility.yul\":211:328   */\n    tag_144:\n        /* \"#utility.yul\":320:321   */\n      0x00\n        /* \"#utility.yul\":317:318   */\n      0x00\n        /* \"#utility.yul\":310:322   */\n      revert\n        /* \"#utility.yul\":334:451   */\n    tag_145:\n        /* \"#utility.yul\":443:444   */\n      0x00\n        /* \"#utility.yul\":440:441   */\n      0x00\n        /* \"#utility.yul\":433:445   */\n      revert\n        /* \"#utility.yul\":457:574   */\n    tag_146:\n        /* \"#utility.yul\":566:567   */\n      0x00\n        /* \"#utility.yul\":563:564   */\n      0x00\n        /* \"#utility.yul\":556:568   */\n      revert\n        /* \"#utility.yul\":580:682   */\n    tag_147:\n        /* \"#utility.yul\":621:627   */\n      0x00\n        /* \"#utility.yul\":672:674   */\n      0x1f\n        /* \"#utility.yul\":668:675   */\n      not\n        /* \"#utility.yul\":663:665   */\n      0x1f\n        /* \"#utility.yul\":656:661   */\n      dup4\n        /* \"#utility.yul\":652:666   */\n      add\n        /* \"#utility.yul\":648:676   */\n      and\n        /* \"#utility.yul\":638:676   */\n      swap1\n      pop\n        /* \"#utility.yul\":580:682   */\n      swap2\n      swap1\n      pop\n      jump\t// out\n        /* \"#utility.yul\":688:868   */\n    tag_51:\n        /* \"#utility.yul\":736:813   */\n      0x4e487b7100000000000000000000000000000000000000000000000000000000\n        /* \"#utility.yul\":733:734   */\n      0x00\n        /* \"#utility.yul\":726:814   */\n      mstore\n        /* \"#utility.yul\":833:837   */\n      0x41\n        /* \"#utility.yul\":830:831   */\n      0x04\n        /* \"#utility.yul\":823:838   */\n      mstore\n        /* \"#utility.yul\":857:861   */\n      0x24\n        /* \"#utility.yul\":854:855   */\n      0x00\n        /* \"#utility.yul\":847:862   */\n      revert\n        /* \"#utility.yul\":874:1155   */\n    tag_148:\n        /* \"#utility.yul\":957:984   */\n      tag_212\n        /* \"#utility.yul\":979:983   */\n      dup3\n        /* \"#utility.yul\":957:984   */\n      tag_147\n      jump\t// in\n    tag_212:\n        /* \"#utility.yul\":949:955   */\n      dup2\n        /* \"#utility.yul\":945:985   */\n      add\n        /* \"#utility.yul\":1087:1093   */\n      dup2\n        /* \"#utility.yul\":1075:1085   */\n      dup2\n        /* \"#utility.yul\":1072:1094   */\n      lt\n        /* \"#utility.yul\":1051:1069   */\n      0xffffffffffffffff\n        /* \"#utility.yul\":1039:1049   */\n      dup3\n        /* \"#utility.yul\":1036:1070   */\n      gt\n        /* \"#utility.yul\":1033:1095   */\n      or\n        /* \"#utility.yul\":1030:1118   */\n      iszero\n      tag_213\n      jumpi\n        /* \"#utility.yul\":1098:1116   */\n      tag_214\n      tag_51\n      jump\t// in\n    tag_214:\n        /* \"#utility.yul\":1030:1118   */\n    tag_213:\n        /* \"#utility.yul\":1138:1148   */\n      dup1\n        /* \"#utility.yul\":1134:1136   */\n      0x40\n        /* \"#utility.yul\":1127:1149   */\n      mstore\n        /* \"#utility.yul\":917:1155   */\n      pop\n        /* \"#utility.yul\":874:1155   */\n      pop\n      pop\n      jump\t// out\n        /* \"#utility.yul\":1161:1290   */\n    tag_149:\n        /* \"#utility.yul\":1195:1201   */\n      0x00\n        /* \"#utility.yul\":1222:1242   */\n      tag_216\n      tag_142\n      jump\t// in\n    tag_216:\n        /* \"#utility.yul\":1212:1242   */\n      swap1\n      pop\n        /* \"#utility.yul\":1251:1284   */\n      tag_217\n        /* \"#utility.yul\":1279:1283   */\n      dup3\n        /* \"#utility.yul\":1271:1277   */\n      dup3\n        /* \"#utility.yul\":1251:1284   */\n      tag_148\n      jump\t// in\n    tag_217:\n        /* \"#utility.yul\":1161:1290   */\n      swap2\n      swap1\n      pop\n      jump\t// out\n        /* \"#utility.yul\":1296:1604   */\n    tag_150:\n        /* \"#utility.yul\":1358:1362   */\n      0x00\n        /* \"#utility.yul\":1448:1466   */\n      0xffffffffffffffff\n        /* \"#utility.yul\":1440:1446   */\n      dup3\n        /* \"#utility.yul\":1437:1467   */\n      gt\n        /* \"#utility.yul\":1434:1490   */\n      iszero\n      tag_219\n      jumpi\n        /* \"#utility.yul\":1470:1488   */\n      tag_220\n      tag_51\n      jump\t// in\n    tag_220:\n        /* \"#utility.yul\":1434:1490   */\n    tag_219:\n        /* \"#utility.yul\":1508:1537   */\n      tag_221\n        /* \"#utility.yul\":1530:1536   */\n      dup3\n        /* \"#utility.yul\":1508:1537   */\n      tag_147\n      jump\t// in\n    tag_221:\n        /* \"#utility.yul\":1500:1537   */\n      swap1\n      pop\n        /* \"#utility.yul\":1592:1596   */\n      0x20\n        /* \"#utility.yul\":1586:1590   */\n      dup2\n        /* \"#utility.yul\":1582:1597   */\n      add\n        /* \"#utility.yul\":1574:1597   */\n      swap1\n      pop\n        /* \"#utility.yul\":1296:1604   */\n      swap2\n      swap1\n      pop\n      jump\t// out\n        /* \"#utility.yul\":1610:1758   */\n    tag_151:\n        /* \"#utility.yul\":1708:1714   */\n      dup3\n        /* \"#utility.yul\":1703:1706   */\n      dup2\n        /* \"#utility.yul\":1698:1701   */\n      dup4\n        /* \"#utility.yul\":1685:1715   */\n      calldatacopy\n        /* \"#utility.yul\":1749:1750   */\n      0x00\n        /* \"#utility.yul\":1740:1746   */\n      dup4\n        /* \"#utility.yul\":1735:1738   */\n      dup4\n        /* \"#utility.yul\":1731:1747   */\n      add\n        /* \"#utility.yul\":1724:1751   */\n      mstore\n        /* \"#utility.yul\":1610:1758   */\n      pop\n      pop\n      pop\n      jump\t// out\n        /* \"#utility.yul\":1764:2189   */\n    tag_152:\n        /* \"#utility.yul\":1842:1847   */\n      0x00\n        /* \"#utility.yul\":1867:1933   */\n      tag_224\n        /* \"#utility.yul\":1883:1932   */\n      tag_225\n        /* \"#utility.yul\":1925:1931   */\n      dup5\n        /* \"#utility.yul\":1883:1932   */\n      tag_150\n      jump\t// in\n    tag_225:\n        /* \"#utility.yul\":1867:1933   */\n      tag_149\n      jump\t// in\n    tag_224:\n        /* \"#utility.yul\":1858:1933   */\n      swap1\n      pop\n        /* \"#utility.yul\":1956:1962   */\n      dup3\n        /* \"#utility.yul\":1949:1954   */\n      dup2\n        /* \"#utility.yul\":1942:1963   */\n      mstore\n        /* \"#utility.yul\":1994:1998   */\n      0x20\n        /* \"#utility.yul\":1987:1992   */\n      dup2\n        /* \"#utility.yul\":1983:1999   */\n      add\n        /* \"#utility.yul\":2032:2035   */\n      dup5\n        /* \"#utility.yul\":2023:2029   */\n      dup5\n        /* \"#utility.yul\":2018:2021   */\n      dup5\n        /* \"#utility.yul\":2014:2030   */\n      add\n        /* \"#utility.yul\":2011:2036   */\n      gt\n        /* \"#utility.yul\":2008:2120   */\n      iszero\n      tag_226\n      jumpi\n        /* \"#utility.yul\":2039:2118   */\n      tag_227\n      tag_146\n      jump\t// in\n    tag_227:\n        /* \"#utility.yul\":2008:2120   */\n    tag_226:\n        /* \"#utility.yul\":2129:2183   */\n      tag_228\n        /* \"#utility.yul\":2176:2182   */\n      dup5\n        /* \"#utility.yul\":2171:2174   */\n      dup3\n        /* \"#utility.yul\":2166:2169   */\n      dup6\n        /* \"#utility.yul\":2129:2183   */\n      tag_151\n      jump\t// in\n    tag_228:\n        /* \"#utility.yul\":1848:2189   */\n      pop\n        /* \"#utility.yul\":1764:2189   */\n      swap4\n      swap3\n      pop\n      pop\n      pop\n      jump\t// out\n        /* \"#utility.yul\":2209:2549   */\n    tag_153:\n        /* \"#utility.yul\":2265:2270   */\n      0x00\n        /* \"#utility.yul\":2314:2317   */\n      dup3\n        /* \"#utility.yul\":2307:2311   */\n      0x1f\n        /* \"#utility.yul\":2299:2305   */\n      dup4\n        /* \"#utility.yul\":2295:2312   */\n      add\n        /* \"#utility.yul\":2291:2318   */\n      slt\n        /* \"#utility.yul\":2281:2403   */\n      tag_230\n      jumpi\n        /* \"#utility.yul\":2322:2401   */\n      tag_231\n      tag_145\n      jump\t// in\n    tag_231:\n        /* \"#utility.yul\":2281:2403   */\n    tag_230:\n        /* \"#utility.yul\":2439:2445   */\n      dup2\n        /* \"#utility.yul\":2426:2446   */\n      calldataload\n        /* \"#utility.yul\":2464:2543   */\n      tag_232\n        /* \"#utility.yul\":2539:2542   */\n      dup5\n        /* \"#utility.yul\":2531:2537   */\n      dup3\n        /* \"#utility.yul\":2524:2528   */\n      0x20\n        /* \"#utility.yul\":2516:2522   */\n      dup7\n        /* \"#utility.yul\":2512:2529   */\n      add\n        /* \"#utility.yul\":2464:2543   */\n      tag_152\n      jump\t// in\n    tag_232:\n        /* \"#utility.yul\":2455:2543   */\n      swap2\n      pop\n        /* \"#utility.yul\":2271:2549   */\n      pop\n        /* \"#utility.yul\":2209:2549   */\n      swap3\n      swap2\n      pop\n      pop\n      jump\t// out\n        /* \"#utility.yul\":2555:3064   */\n    tag_11:\n        /* \"#utility.yul\":2624:2630   */\n      0x00\n        /* \"#utility.yul\":2673:2675   */\n      0x20\n        /* \"#utility.yul\":2661:2670   */\n      dup3\n        /* \"#utility.yul\":2652:2659   */\n      dup5\n        /* \"#utility.yul\":2648:2671   */\n      sub\n        /* \"#utility.yul\":2644:2676   */\n      slt\n        /* \"#utility.yul\":2641:2760   */\n      iszero\n      tag_234\n      jumpi\n        /* \"#utility.yul\":2679:2758   */\n      tag_235\n      tag_143\n      jump\t// in\n    tag_235:\n        /* \"#utility.yul\":2641:2760   */\n    tag_234:\n        /* \"#utility.yul\":2827:2828   */\n      0x00\n        /* \"#utility.yul\":2816:2825   */\n      dup3\n        /* \"#utility.yul\":2812:2829   */\n      add\n        /* \"#utility.yul\":2799:2830   */\n      calldataload\n        /* \"#utility.yul\":2857:2875   */\n      0xffffffffffffffff\n        /* \"#utility.yul\":2849:2855   */\n      dup2\n        /* \"#utility.yul\":2846:2876   */\n      gt\n        /* \"#utility.yul\":2843:2960   */\n      iszero\n      tag_236\n      jumpi\n        /* \"#utility.yul\":2879:2958   */\n      tag_237\n      tag_144\n      jump\t// in\n    tag_237:\n        /* \"#utility.yul\":2843:2960   */\n    tag_236:\n        /* \"#utility.yul\":2984:3047   */\n      tag_238\n        /* \"#utility.yul\":3039:3046   */\n      dup5\n        /* \"#utility.yul\":3030:3036   */\n      dup3\n        /* \"#utility.yul\":3019:3028   */\n      dup6\n        /* \"#utility.yul\":3015:3037   */\n      add\n        /* \"#utility.yul\":2984:3047   */\n      tag_153\n      jump\t// in\n    tag_238:\n        /* \"#utility.yul\":2974:3047   */\n      swap2\n      pop\n        /* \"#utility.yul\":2770:3057   */\n      pop\n        /* \"#utility.yul\":2555:3064   */\n      swap3\n      swap2\n      pop\n      pop\n      jump\t// out\n        /* \"#utility.yul\":3070:3208   */\n    tag_154:\n        /* \"#utility.yul\":3161:3167   */\n      0x00\n        /* \"#utility.yul\":3195:3200   */\n      dup2\n        /* \"#utility.yul\":3189:3201   */\n      mload\n        /* \"#utility.yul\":3179:3201   */\n      swap1\n      pop\n        /* \"#utility.yul\":3070:3208   */\n      swap2\n      swap1\n      pop\n      jump\t// out\n        /* \"#utility.yul\":3214:3422   */\n    tag_155:\n        /* \"#utility.yul\":3337:3348   */\n      0x00\n        /* \"#utility.yul\":3371:3377   */\n      dup3\n        /* \"#utility.yul\":3366:3369   */\n      dup3\n        /* \"#utility.yul\":3359:3378   */\n      mstore\n        /* \"#utility.yul\":3411:3415   */\n      0x20\n        /* \"#utility.yul\":3406:3409   */\n      dup3\n        /* \"#utility.yul\":3402:3416   */\n      add\n        /* \"#utility.yul\":3387:3416   */\n      swap1\n      pop\n        /* \"#utility.yul\":3214:3422   */\n      swap3\n      swap2\n      pop\n      pop\n      jump\t// out\n        /* \"#utility.yul\":3428:3584   */\n    tag_156:\n        /* \"#utility.yul\":3519:3523   */\n      0x00\n        /* \"#utility.yul\":3542:3545   */\n      dup2\n        /* \"#utility.yul\":3534:3545   */\n      swap1\n      pop\n        /* \"#utility.yul\":3572:3576   */\n      0x20\n        /* \"#utility.yul\":3567:3570   */\n      dup3\n        /* \"#utility.yul\":3563:3577   */\n      add\n        /* \"#utility.yul\":3555:3577   */\n      swap1\n      pop\n        /* \"#utility.yul\":3428:3584   */\n      swap2\n      swap1\n      pop\n      jump\t// out\n        /* \"#utility.yul\":3590:3689   */\n    tag_157:\n        /* \"#utility.yul\":3642:3648   */\n      0x00\n        /* \"#utility.yul\":3676:3681   */\n      dup2\n        /* \"#utility.yul\":3670:3682   */\n      mload\n        /* \"#utility.yul\":3660:3682   */\n      swap1\n      pop\n        /* \"#utility.yul\":3590:3689   */\n      swap2\n      swap1\n      pop\n      jump\t// out\n        /* \"#utility.yul\":3695:3854   */\n    tag_158:\n        /* \"#utility.yul\":3769:3780   */\n      0x00\n        /* \"#utility.yul\":3803:3809   */\n      dup3\n        /* \"#utility.yul\":3798:3801   */\n      dup3\n        /* \"#utility.yul\":3791:3810   */\n      mstore\n        /* \"#utility.yul\":3843:3847   */\n      0x20\n        /* \"#utility.yul\":3838:3841   */\n      dup3\n        /* \"#utility.yul\":3834:3848   */\n      add\n        /* \"#utility.yul\":3819:3848   */\n      swap1\n      pop\n        /* \"#utility.yul\":3695:3854   */\n      swap3\n      swap2\n      pop\n      pop\n      jump\t// out\n        /* \"#utility.yul\":3860:3999   */\n    tag_159:\n        /* \"#utility.yul\":3949:3955   */\n      dup3\n        /* \"#utility.yul\":3944:3947   */\n      dup2\n        /* \"#utility.yul\":3939:3942   */\n      dup4\n        /* \"#utility.yul\":3933:3956   */\n      mcopy\n        /* \"#utility.yul\":3990:3991   */\n      0x00\n        /* \"#utility.yul\":3981:3987   */\n      dup4\n        /* \"#utility.yul\":3976:3979   */\n      dup4\n        /* \"#utility.yul\":3972:3988   */\n      add\n        /* \"#utility.yul\":3965:3992   */\n      mstore\n        /* \"#utility.yul\":3860:3999   */\n      pop\n      pop\n      pop\n      jump\t// out\n        /* \"#utility.yul\":4005:4362   */\n    tag_160:\n        /* \"#utility.yul\":4083:4086   */\n      0x00\n        /* \"#utility.yul\":4111:4150   */\n      tag_246\n        /* \"#utility.yul\":4144:4149   */\n      dup3\n        /* \"#utility.yul\":4111:4150   */\n      tag_157\n      jump\t// in\n    tag_246:\n        /* \"#utility.yul\":4166:4227   */\n      tag_247\n        /* \"#utility.yul\":4220:4226   */\n      dup2\n        /* \"#utility.yul\":4215:4218   */\n      dup6\n        /* \"#utility.yul\":4166:4227   */\n      tag_158\n      jump\t// in\n    tag_247:\n        /* \"#utility.yul\":4159:4227   */\n      swap4\n      pop\n        /* \"#utility.yul\":4236:4301   */\n      tag_248\n        /* \"#utility.yul\":4294:4300   */\n      dup2\n        /* \"#utility.yul\":4289:4292   */\n      dup6\n        /* \"#utility.yul\":4282:4286   */\n      0x20\n        /* \"#utility.yul\":4275:4280   */\n      dup7\n        /* \"#utility.yul\":4271:4287   */\n      add\n        /* \"#utility.yul\":4236:4301   */\n      tag_159\n      jump\t// in\n    tag_248:\n        /* \"#utility.yul\":4326:4355   */\n      tag_249\n        /* \"#utility.yul\":4348:4354   */\n      dup2\n        /* \"#utility.yul\":4326:4355   */\n      tag_147\n      jump\t// in\n    tag_249:\n        /* \"#utility.yul\":4321:4324   */\n      dup5\n        /* \"#utility.yul\":4317:4356   */\n      add\n        /* \"#utility.yul\":4310:4356   */\n      swap2\n      pop\n        /* \"#utility.yul\":4087:4362   */\n      pop\n        /* \"#utility.yul\":4005:4362   */\n      swap3\n      swap2\n      pop\n      pop\n      jump\t// out\n        /* \"#utility.yul\":4368:4494   */\n    tag_161:\n        /* \"#utility.yul\":4405:4412   */\n      0x00\n        /* \"#utility.yul\":4445:4487   */\n      0xffffffffffffffffffffffffffffffffffffffff\n        /* \"#utility.yul\":4438:4443   */\n      dup3\n        /* \"#utility.yul\":4434:4488   */\n      and\n        /* \"#utility.yul\":4423:4488   */\n      swap1\n      pop\n        /* \"#utility.yul\":4368:4494   */\n      swap2\n      swap1\n      pop\n      jump\t// out\n        /* \"#utility.yul\":4500:4596   */\n    tag_162:\n        /* \"#utility.yul\":4537:4544   */\n      0x00\n        /* \"#utility.yul\":4566:4590   */\n      tag_252\n        /* \"#utility.yul\":4584:4589   */\n      dup3\n        /* \"#utility.yul\":4566:4590   */\n      tag_161\n      jump\t// in\n    tag_252:\n        /* \"#utility.yul\":4555:4590   */\n      swap1\n      pop\n        /* \"#utility.yul\":4500:4596   */\n      swap2\n      swap1\n      pop\n      jump\t// out\n        /* \"#utility.yul\":4602:4710   */\n    tag_163:\n        /* \"#utility.yul\":4679:4703   */\n      tag_254\n        /* \"#utility.yul\":4697:4702   */\n      dup2\n        /* \"#utility.yul\":4679:4703   */\n      tag_162\n      jump\t// in\n    tag_254:\n        /* \"#utility.yul\":4674:4677   */\n      dup3\n        /* \"#utility.yul\":4667:4704   */\n      mstore\n        /* \"#utility.yul\":4602:4710   */\n      pop\n      pop\n      jump\t// out\n        /* \"#utility.yul\":4716:4793   */\n    tag_164:\n        /* \"#utility.yul\":4753:4760   */\n      0x00\n        /* \"#utility.yul\":4782:4787   */\n      dup2\n        /* \"#utility.yul\":4771:4787   */\n      swap1\n      pop\n        /* \"#utility.yul\":4716:4793   */\n      swap2\n      swap1\n      pop\n      jump\t// out\n        /* \"#utility.yul\":4799:4907   */\n    tag_165:\n        /* \"#utility.yul\":4876:4900   */\n      tag_257\n        /* \"#utility.yul\":4894:4899   */\n      dup2\n        /* \"#utility.yul\":4876:4900   */\n      tag_164\n      jump\t// in\n    tag_257:\n        /* \"#utility.yul\":4871:4874   */\n      dup3\n        /* \"#utility.yul\":4864:4901   */\n      mstore\n        /* \"#utility.yul\":4799:4907   */\n      pop\n      pop\n      jump\t// out\n        /* \"#utility.yul\":4989:5954   */\n    tag_166:\n        /* \"#utility.yul\":5096:5099   */\n      0x00\n        /* \"#utility.yul\":5132:5136   */\n      0x80\n        /* \"#utility.yul\":5127:5130   */\n      dup4\n        /* \"#utility.yul\":5123:5137   */\n      add\n        /* \"#utility.yul\":5222:5226   */\n      0x00\n        /* \"#utility.yul\":5215:5220   */\n      dup4\n        /* \"#utility.yul\":5211:5227   */\n      add\n        /* \"#utility.yul\":5205:5228   */\n      mload\n        /* \"#utility.yul\":5275:5278   */\n      dup5\n        /* \"#utility.yul\":5269:5273   */\n      dup3\n        /* \"#utility.yul\":5265:5279   */\n      sub\n        /* \"#utility.yul\":5258:5262   */\n      0x00\n        /* \"#utility.yul\":5253:5256   */\n      dup7\n        /* \"#utility.yul\":5249:5263   */\n      add\n        /* \"#utility.yul\":5242:5280   */\n      mstore\n        /* \"#utility.yul\":5301:5374   */\n      tag_259\n        /* \"#utility.yul\":5369:5373   */\n      dup3\n        /* \"#utility.yul\":5355:5367   */\n      dup3\n        /* \"#utility.yul\":5301:5374   */\n      tag_160\n      jump\t// in\n    tag_259:\n        /* \"#utility.yul\":5293:5374   */\n      swap2\n      pop\n        /* \"#utility.yul\":5147:5385   */\n      pop\n        /* \"#utility.yul\":5473:5477   */\n      0x20\n        /* \"#utility.yul\":5466:5471   */\n      dup4\n        /* \"#utility.yul\":5462:5478   */\n      add\n        /* \"#utility.yul\":5456:5479   */\n      mload\n        /* \"#utility.yul\":5492:5555   */\n      tag_260\n        /* \"#utility.yul\":5549:5553   */\n      0x20\n        /* \"#utility.yul\":5544:5547   */\n      dup7\n        /* \"#utility.yul\":5540:5554   */\n      add\n        /* \"#utility.yul\":5526:5538   */\n      dup3\n        /* \"#utility.yul\":5492:5555   */\n      tag_163\n      jump\t// in\n    tag_260:\n        /* \"#utility.yul\":5395:5565   */\n      pop\n        /* \"#utility.yul\":5651:5655   */\n      0x40\n        /* \"#utility.yul\":5644:5649   */\n      dup4\n        /* \"#utility.yul\":5640:5656   */\n      add\n        /* \"#utility.yul\":5634:5657   */\n      mload\n        /* \"#utility.yul\":5670:5733   */\n      tag_261\n        /* \"#utility.yul\":5727:5731   */\n      0x40\n        /* \"#utility.yul\":5722:5725   */\n      dup7\n        /* \"#utility.yul\":5718:5732   */\n      add\n        /* \"#utility.yul\":5704:5716   */\n      dup3\n        /* \"#utility.yul\":5670:5733   */\n      tag_163\n      jump\t// in\n    tag_261:\n        /* \"#utility.yul\":5575:5743   */\n      pop\n        /* \"#utility.yul\":5835:5839   */\n      0x60\n        /* \"#utility.yul\":5828:5833   */\n      dup4\n        /* \"#utility.yul\":5824:5840   */\n      add\n        /* \"#utility.yul\":5818:5841   */\n      mload\n        /* \"#utility.yul\":5854:5917   */\n      tag_262\n        /* \"#utility.yul\":5911:5915   */\n      0x60\n        /* \"#utility.yul\":5906:5909   */\n      dup7\n        /* \"#utility.yul\":5902:5916   */\n      add\n        /* \"#utility.yul\":5888:5900   */\n      dup3\n        /* \"#utility.yul\":5854:5917   */\n      tag_165\n      jump\t// in\n    tag_262:\n        /* \"#utility.yul\":5753:5927   */\n      pop\n        /* \"#utility.yul\":5944:5948   */\n      dup1\n        /* \"#utility.yul\":5937:5948   */\n      swap2\n      pop\n        /* \"#utility.yul\":5101:5954   */\n      pop\n        /* \"#utility.yul\":4989:5954   */\n      swap3\n      swap2\n      pop\n      pop\n      jump\t// out\n        /* \"#utility.yul\":5960:6212   */\n    tag_167:\n        /* \"#utility.yul\":6077:6087   */\n      0x00\n        /* \"#utility.yul\":6112:6206   */\n      tag_264\n        /* \"#utility.yul\":6202:6205   */\n      dup4\n        /* \"#utility.yul\":6194:6200   */\n      dup4\n        /* \"#utility.yul\":6112:6206   */\n      tag_166\n      jump\t// in\n    tag_264:\n        /* \"#utility.yul\":6098:6206   */\n      swap1\n      pop\n        /* \"#utility.yul\":5960:6212   */\n      swap3\n      swap2\n      pop\n      pop\n      jump\t// out\n        /* \"#utility.yul\":6218:6355   */\n    tag_168:\n        /* \"#utility.yul\":6312:6316   */\n      0x00\n        /* \"#utility.yul\":6344:6348   */\n      0x20\n        /* \"#utility.yul\":6339:6342   */\n      dup3\n        /* \"#utility.yul\":6335:6349   */\n      add\n        /* \"#utility.yul\":6327:6349   */\n      swap1\n      pop\n        /* \"#utility.yul\":6218:6355   */\n      swap2\n      swap1\n      pop\n      jump\t// out\n        /* \"#utility.yul\":6441:7544   */\n    tag_169:\n        /* \"#utility.yul\":6608:6611   */\n      0x00\n        /* \"#utility.yul\":6637:6715   */\n      tag_267\n        /* \"#utility.yul\":6709:6714   */\n      dup3\n        /* \"#utility.yul\":6637:6715   */\n      tag_154\n      jump\t// in\n    tag_267:\n        /* \"#utility.yul\":6731:6841   */\n      tag_268\n        /* \"#utility.yul\":6834:6840   */\n      dup2\n        /* \"#utility.yul\":6829:6832   */\n      dup6\n        /* \"#utility.yul\":6731:6841   */\n      tag_155\n      jump\t// in\n    tag_268:\n        /* \"#utility.yul\":6724:6841   */\n      swap4\n      pop\n        /* \"#utility.yul\":6867:6870   */\n      dup4\n        /* \"#utility.yul\":6912:6916   */\n      0x20\n        /* \"#utility.yul\":6904:6910   */\n      dup3\n        /* \"#utility.yul\":6900:6917   */\n      mul\n        /* \"#utility.yul\":6895:6898   */\n      dup6\n        /* \"#utility.yul\":6891:6918   */\n      add\n        /* \"#utility.yul\":6942:7022   */\n      tag_269\n        /* \"#utility.yul\":7016:7021   */\n      dup6\n        /* \"#utility.yul\":6942:7022   */\n      tag_156\n      jump\t// in\n    tag_269:\n        /* \"#utility.yul\":7045:7052   */\n      dup1\n        /* \"#utility.yul\":7076:7077   */\n      0x00\n        /* \"#utility.yul\":7061:7499   */\n    tag_270:\n        /* \"#utility.yul\":7086:7092   */\n      dup6\n        /* \"#utility.yul\":7083:7084   */\n      dup2\n        /* \"#utility.yul\":7080:7093   */\n      lt\n        /* \"#utility.yul\":7061:7499   */\n      iszero\n      tag_272\n      jumpi\n        /* \"#utility.yul\":7157:7166   */\n      dup5\n        /* \"#utility.yul\":7151:7155   */\n      dup5\n        /* \"#utility.yul\":7147:7167   */\n      sub\n        /* \"#utility.yul\":7142:7145   */\n      dup10\n        /* \"#utility.yul\":7135:7168   */\n      mstore\n        /* \"#utility.yul\":7208:7214   */\n      dup2\n        /* \"#utility.yul\":7202:7215   */\n      mload\n        /* \"#utility.yul\":7236:7348   */\n      tag_273\n        /* \"#utility.yul\":7343:7347   */\n      dup6\n        /* \"#utility.yul\":7328:7341   */\n      dup3\n        /* \"#utility.yul\":7236:7348   */\n      tag_167\n      jump\t// in\n    tag_273:\n        /* \"#utility.yul\":7228:7348   */\n      swap5\n      pop\n        /* \"#utility.yul\":7371:7455   */\n      tag_274\n        /* \"#utility.yul\":7448:7454   */\n      dup4\n        /* \"#utility.yul\":7371:7455   */\n      tag_168\n      jump\t// in\n    tag_274:\n        /* \"#utility.yul\":7361:7455   */\n      swap3\n      pop\n        /* \"#utility.yul\":7484:7488   */\n      0x20\n        /* \"#utility.yul\":7479:7482   */\n      dup11\n        /* \"#utility.yul\":7475:7489   */\n      add\n        /* \"#utility.yul\":7468:7489   */\n      swap10\n      pop\n        /* \"#utility.yul\":7121:7499   */\n      pop\n        /* \"#utility.yul\":7108:7109   */\n      0x01\n        /* \"#utility.yul\":7105:7106   */\n      dup2\n        /* \"#utility.yul\":7101:7110   */\n      add\n        /* \"#utility.yul\":7096:7110   */\n      swap1\n      pop\n        /* \"#utility.yul\":7061:7499   */\n      jump(tag_270)\n    tag_272:\n        /* \"#utility.yul\":7065:7079   */\n      pop\n        /* \"#utility.yul\":7515:7519   */\n      dup3\n        /* \"#utility.yul\":7508:7519   */\n      swap8\n      pop\n        /* \"#utility.yul\":7535:7538   */\n      dup8\n        /* \"#utility.yul\":7528:7538   */\n      swap6\n      pop\n        /* \"#utility.yul\":6613:7544   */\n      pop\n      pop\n      pop\n      pop\n      pop\n        /* \"#utility.yul\":6441:7544   */\n      swap3\n      swap2\n      pop\n      pop\n      jump\t// out\n        /* \"#utility.yul\":7550:8019   */\n    tag_14:\n        /* \"#utility.yul\":7741:7745   */\n      0x00\n        /* \"#utility.yul\":7779:7781   */\n      0x20\n        /* \"#utility.yul\":7768:7777   */\n      dup3\n        /* \"#utility.yul\":7764:7782   */\n      add\n        /* \"#utility.yul\":7756:7782   */\n      swap1\n      pop\n        /* \"#utility.yul\":7828:7837   */\n      dup2\n        /* \"#utility.yul\":7822:7826   */\n      dup2\n        /* \"#utility.yul\":7818:7838   */\n      sub\n        /* \"#utility.yul\":7814:7815   */\n      0x00\n        /* \"#utility.yul\":7803:7812   */\n      dup4\n        /* \"#utility.yul\":7799:7816   */\n      add\n        /* \"#utility.yul\":7792:7839   */\n      mstore\n        /* \"#utility.yul\":7856:8012   */\n      tag_276\n        /* \"#utility.yul\":8007:8011   */\n      dup2\n        /* \"#utility.yul\":7998:8004   */\n      dup5\n        /* \"#utility.yul\":7856:8012   */\n      tag_169\n      jump\t// in\n    tag_276:\n        /* \"#utility.yul\":7848:8012   */\n      swap1\n      pop\n        /* \"#utility.yul\":7550:8019   */\n      swap3\n      swap2\n      pop\n      pop\n      jump\t// out\n        /* \"#utility.yul\":8025:8143   */\n    tag_170:\n        /* \"#utility.yul\":8112:8136   */\n      tag_278\n        /* \"#utility.yul\":8130:8135   */\n      dup2\n        /* \"#utility.yul\":8112:8136   */\n      tag_164\n      jump\t// in\n    tag_278:\n        /* \"#utility.yul\":8107:8110   */\n      dup3\n        /* \"#utility.yul\":8100:8137   */\n      mstore\n        /* \"#utility.yul\":8025:8143   */\n      pop\n      pop\n      jump\t// out\n        /* \"#utility.yul\":8149:8371   */\n    tag_18:\n        /* \"#utility.yul\":8242:8246   */\n      0x00\n        /* \"#utility.yul\":8280:8282   */\n      0x20\n        /* \"#utility.yul\":8269:8278   */\n      dup3\n        /* \"#utility.yul\":8265:8283   */\n      add\n        /* \"#utility.yul\":8257:8283   */\n      swap1\n      pop\n        /* \"#utility.yul\":8293:8364   */\n      tag_280\n        /* \"#utility.yul\":8361:8362   */\n      0x00\n        /* \"#utility.yul\":8350:8359   */\n      dup4\n        /* \"#utility.yul\":8346:8363   */\n      add\n        /* \"#utility.yul\":8337:8343   */\n      dup5\n        /* \"#utility.yul\":8293:8364   */\n      tag_170\n      jump\t// in\n    tag_280:\n        /* \"#utility.yul\":8149:8371   */\n      swap3\n      swap2\n      pop\n      pop\n      jump\t// out\n        /* \"#utility.yul\":8377:8499   */\n    tag_171:\n        /* \"#utility.yul\":8450:8474   */\n      tag_282\n        /* \"#utility.yul\":8468:8473   */\n      dup2\n        /* \"#utility.yul\":8450:8474   */\n      tag_162\n      jump\t// in\n    tag_282:\n        /* \"#utility.yul\":8443:8448   */\n      dup2\n        /* \"#utility.yul\":8440:8475   */\n      eq\n        /* \"#utility.yul\":8430:8493   */\n      tag_283\n      jumpi\n        /* \"#utility.yul\":8489:8490   */\n      0x00\n        /* \"#utility.yul\":8486:8487   */\n      0x00\n        /* \"#utility.yul\":8479:8491   */\n      revert\n        /* \"#utility.yul\":8430:8493   */\n    tag_283:\n        /* \"#utility.yul\":8377:8499   */\n      pop\n      jump\t// out\n        /* \"#utility.yul\":8505:8644   */\n    tag_172:\n        /* \"#utility.yul\":8551:8556   */\n      0x00\n        /* \"#utility.yul\":8589:8595   */\n      dup2\n        /* \"#utility.yul\":8576:8596   */\n      calldataload\n        /* \"#utility.yul\":8567:8596   */\n      swap1\n      pop\n        /* \"#utility.yul\":8605:8638   */\n      tag_285\n        /* \"#utility.yul\":8632:8637   */\n      dup2\n        /* \"#utility.yul\":8605:8638   */\n      tag_171\n      jump\t// in\n    tag_285:\n        /* \"#utility.yul\":8505:8644   */\n      swap3\n      swap2\n      pop\n      pop\n      jump\t// out\n        /* \"#utility.yul\":8650:8979   */\n    tag_24:\n        /* \"#utility.yul\":8709:8715   */\n      0x00\n        /* \"#utility.yul\":8758:8760   */\n      0x20\n        /* \"#utility.yul\":8746:8755   */\n      dup3\n        /* \"#utility.yul\":8737:8744   */\n      dup5\n        /* \"#utility.yul\":8733:8756   */\n      sub\n        /* \"#utility.yul\":8729:8761   */\n      slt\n        /* \"#utility.yul\":8726:8845   */\n      iszero\n      tag_287\n      jumpi\n        /* \"#utility.yul\":8764:8843   */\n      tag_288\n      tag_143\n      jump\t// in\n    tag_288:\n        /* \"#utility.yul\":8726:8845   */\n    tag_287:\n        /* \"#utility.yul\":8884:8885   */\n      0x00\n        /* \"#utility.yul\":8909:8962   */\n      tag_289\n        /* \"#utility.yul\":8954:8961   */\n      dup5\n        /* \"#utility.yul\":8945:8951   */\n      dup3\n        /* \"#utility.yul\":8934:8943   */\n      dup6\n        /* \"#utility.yul\":8930:8952   */\n      add\n        /* \"#utility.yul\":8909:8962   */\n      tag_172\n      jump\t// in\n    tag_289:\n        /* \"#utility.yul\":8899:8962   */\n      swap2\n      pop\n        /* \"#utility.yul\":8855:8972   */\n      pop\n        /* \"#utility.yul\":8650:8979   */\n      swap3\n      swap2\n      pop\n      pop\n      jump\t// out\n        /* \"#utility.yul\":8985:9107   */\n    tag_173:\n        /* \"#utility.yul\":9058:9082   */\n      tag_291\n        /* \"#utility.yul\":9076:9081   */\n      dup2\n        /* \"#utility.yul\":9058:9082   */\n      tag_164\n      jump\t// in\n    tag_291:\n        /* \"#utility.yul\":9051:9056   */\n      dup2\n        /* \"#utility.yul\":9048:9083   */\n      eq\n        /* \"#utility.yul\":9038:9101   */\n      tag_292\n      jumpi\n        /* \"#utility.yul\":9097:9098   */\n      0x00\n        /* \"#utility.yul\":9094:9095   */\n      0x00\n        /* \"#utility.yul\":9087:9099   */\n      revert\n        /* \"#utility.yul\":9038:9101   */\n    tag_292:\n        /* \"#utility.yul\":8985:9107   */\n      pop\n      jump\t// out\n        /* \"#utility.yul\":9113:9252   */\n    tag_174:\n        /* \"#utility.yul\":9159:9164   */\n      0x00\n        /* \"#utility.yul\":9197:9203   */\n      dup2\n        /* \"#utility.yul\":9184:9204   */\n      calldataload\n        /* \"#utility.yul\":9175:9204   */\n      swap1\n      pop\n        /* \"#utility.yul\":9213:9246   */\n      tag_294\n        /* \"#utility.yul\":9240:9245   */\n      dup2\n        /* \"#utility.yul\":9213:9246   */\n      tag_173\n      jump\t// in\n    tag_294:\n        /* \"#utility.yul\":9113:9252   */\n      swap3\n      swap2\n      pop\n      pop\n      jump\t// out\n        /* \"#utility.yul\":9258:10203   */\n    tag_29:\n        /* \"#utility.yul\":9354:9360   */\n      0x00\n        /* \"#utility.yul\":9362:9368   */\n      0x00\n        /* \"#utility.yul\":9370:9376   */\n      0x00\n        /* \"#utility.yul\":9378:9384   */\n      0x00\n        /* \"#utility.yul\":9427:9430   */\n      0x80\n        /* \"#utility.yul\":9415:9424   */\n      dup6\n        /* \"#utility.yul\":9406:9413   */\n      dup8\n        /* \"#utility.yul\":9402:9425   */\n      sub\n        /* \"#utility.yul\":9398:9431   */\n      slt\n        /* \"#utility.yul\":9395:9515   */\n      iszero\n      tag_296\n      jumpi\n        /* \"#utility.yul\":9434:9513   */\n      tag_297\n      tag_143\n      jump\t// in\n    tag_297:\n        /* \"#utility.yul\":9395:9515   */\n    tag_296:\n        /* \"#utility.yul\":9582:9583   */\n      0x00\n        /* \"#utility.yul\":9571:9580   */\n      dup6\n        /* \"#utility.yul\":9567:9584   */\n      add\n        /* \"#utility.yul\":9554:9585   */\n      calldataload\n        /* \"#utility.yul\":9612:9630   */\n      0xffffffffffffffff\n        /* \"#utility.yul\":9604:9610   */\n      dup2\n        /* \"#utility.yul\":9601:9631   */\n      gt\n        /* \"#utility.yul\":9598:9715   */\n      iszero\n      tag_298\n      jumpi\n        /* \"#utility.yul\":9634:9713   */\n      tag_299\n      tag_144\n      jump\t// in\n    tag_299:\n        /* \"#utility.yul\":9598:9715   */\n    tag_298:\n        /* \"#utility.yul\":9739:9802   */\n      tag_300\n        /* \"#utility.yul\":9794:9801   */\n      dup8\n        /* \"#utility.yul\":9785:9791   */\n      dup3\n        /* \"#utility.yul\":9774:9783   */\n      dup9\n        /* \"#utility.yul\":9770:9792   */\n      add\n        /* \"#utility.yul\":9739:9802   */\n      tag_153\n      jump\t// in\n    tag_300:\n        /* \"#utility.yul\":9729:9802   */\n      swap5\n      pop\n        /* \"#utility.yul\":9525:9812   */\n      pop\n        /* \"#utility.yul\":9851:9853   */\n      0x20\n        /* \"#utility.yul\":9877:9930   */\n      tag_301\n        /* \"#utility.yul\":9922:9929   */\n      dup8\n        /* \"#utility.yul\":9913:9919   */\n      dup3\n        /* \"#utility.yul\":9902:9911   */\n      dup9\n        /* \"#utility.yul\":9898:9920   */\n      add\n        /* \"#utility.yul\":9877:9930   */\n      tag_172\n      jump\t// in\n    tag_301:\n        /* \"#utility.yul\":9867:9930   */\n      swap4\n      pop\n        /* \"#utility.yul\":9822:9940   */\n      pop\n        /* \"#utility.yul\":9979:9981   */\n      0x40\n        /* \"#utility.yul\":10005:10058   */\n      tag_302\n        /* \"#utility.yul\":10050:10057   */\n      dup8\n        /* \"#utility.yul\":10041:10047   */\n      dup3\n        /* \"#utility.yul\":10030:10039   */\n      dup9\n        /* \"#utility.yul\":10026:10048   */\n      add\n        /* \"#utility.yul\":10005:10058   */\n      tag_172\n      jump\t// in\n    tag_302:\n        /* \"#utility.yul\":9995:10058   */\n      swap3\n      pop\n        /* \"#utility.yul\":9950:10068   */\n      pop\n        /* \"#utility.yul\":10107:10109   */\n      0x60\n        /* \"#utility.yul\":10133:10186   */\n      tag_303\n        /* \"#utility.yul\":10178:10185   */\n      dup8\n        /* \"#utility.yul\":10169:10175   */\n      dup3\n        /* \"#utility.yul\":10158:10167   */\n      dup9\n        /* \"#utility.yul\":10154:10176   */\n      add\n        /* \"#utility.yul\":10133:10186   */\n      tag_174\n      jump\t// in\n    tag_303:\n        /* \"#utility.yul\":10123:10186   */\n      swap2\n      pop\n        /* \"#utility.yul\":10078:10196   */\n      pop\n        /* \"#utility.yul\":9258:10203   */\n      swap3\n      swap6\n      swap2\n      swap5\n      pop\n      swap3\n      pop\n      jump\t// out\n        /* \"#utility.yul\":10209:10538   */\n    tag_33:\n        /* \"#utility.yul\":10268:10274   */\n      0x00\n        /* \"#utility.yul\":10317:10319   */\n      0x20\n        /* \"#utility.yul\":10305:10314   */\n      dup3\n        /* \"#utility.yul\":10296:10303   */\n      dup5\n        /* \"#utility.yul\":10292:10315   */\n      sub\n        /* \"#utility.yul\":10288:10320   */\n      slt\n        /* \"#utility.yul\":10285:10404   */\n      iszero\n      tag_305\n      jumpi\n        /* \"#utility.yul\":10323:10402   */\n      tag_306\n      tag_143\n      jump\t// in\n    tag_306:\n        /* \"#utility.yul\":10285:10404   */\n    tag_305:\n        /* \"#utility.yul\":10443:10444   */\n      0x00\n        /* \"#utility.yul\":10468:10521   */\n      tag_307\n        /* \"#utility.yul\":10513:10520   */\n      dup5\n        /* \"#utility.yul\":10504:10510   */\n      dup3\n        /* \"#utility.yul\":10493:10502   */\n      dup6\n        /* \"#utility.yul\":10489:10511   */\n      add\n        /* \"#utility.yul\":10468:10521   */\n      tag_174\n      jump\t// in\n    tag_307:\n        /* \"#utility.yul\":10458:10521   */\n      swap2\n      pop\n        /* \"#utility.yul\":10414:10531   */\n      pop\n        /* \"#utility.yul\":10209:10538   */\n      swap3\n      swap2\n      pop\n      pop\n      jump\t// out\n        /* \"#utility.yul\":10544:10713   */\n    tag_175:\n        /* \"#utility.yul\":10628:10639   */\n      0x00\n        /* \"#utility.yul\":10662:10668   */\n      dup3\n        /* \"#utility.yul\":10657:10660   */\n      dup3\n        /* \"#utility.yul\":10650:10669   */\n      mstore\n        /* \"#utility.yul\":10702:10706   */\n      0x20\n        /* \"#utility.yul\":10697:10700   */\n      dup3\n        /* \"#utility.yul\":10693:10707   */\n      add\n        /* \"#utility.yul\":10678:10707   */\n      swap1\n      pop\n        /* \"#utility.yul\":10544:10713   */\n      swap3\n      swap2\n      pop\n      pop\n      jump\t// out\n        /* \"#utility.yul\":10719:11096   */\n    tag_176:\n        /* \"#utility.yul\":10807:10810   */\n      0x00\n        /* \"#utility.yul\":10835:10874   */\n      tag_310\n        /* \"#utility.yul\":10868:10873   */\n      dup3\n        /* \"#utility.yul\":10835:10874   */\n      tag_157\n      jump\t// in\n    tag_310:\n        /* \"#utility.yul\":10890:10961   */\n      tag_311\n        /* \"#utility.yul\":10954:10960   */\n      dup2\n        /* \"#utility.yul\":10949:10952   */\n      dup6\n        /* \"#utility.yul\":10890:10961   */\n      tag_175\n      jump\t// in\n    tag_311:\n        /* \"#utility.yul\":10883:10961   */\n      swap4\n      pop\n        /* \"#utility.yul\":10970:11035   */\n      tag_312\n        /* \"#utility.yul\":11028:11034   */\n      dup2\n        /* \"#utility.yul\":11023:11026   */\n      dup6\n        /* \"#utility.yul\":11016:11020   */\n      0x20\n        /* \"#utility.yul\":11009:11014   */\n      dup7\n        /* \"#utility.yul\":11005:11021   */\n      add\n        /* \"#utility.yul\":10970:11035   */\n      tag_159\n      jump\t// in\n    tag_312:\n        /* \"#utility.yul\":11060:11089   */\n      tag_313\n        /* \"#utility.yul\":11082:11088   */\n      dup2\n        /* \"#utility.yul\":11060:11089   */\n      tag_147\n      jump\t// in\n    tag_313:\n        /* \"#utility.yul\":11055:11058   */\n      dup5\n        /* \"#utility.yul\":11051:11090   */\n      add\n        /* \"#utility.yul\":11044:11090   */\n      swap2\n      pop\n        /* \"#utility.yul\":10811:11096   */\n      pop\n        /* \"#utility.yul\":10719:11096   */\n      swap3\n      swap2\n      pop\n      pop\n      jump\t// out\n        /* \"#utility.yul\":11102:11220   */\n    tag_177:\n        /* \"#utility.yul\":11189:11213   */\n      tag_315\n        /* \"#utility.yul\":11207:11212   */\n      dup2\n        /* \"#utility.yul\":11189:11213   */\n      tag_162\n      jump\t// in\n    tag_315:\n        /* \"#utility.yul\":11184:11187   */\n      dup3\n        /* \"#utility.yul\":11177:11214   */\n      mstore\n        /* \"#utility.yul\":11102:11220   */\n      pop\n      pop\n      jump\t// out\n        /* \"#utility.yul\":11226:11870   */\n    tag_36:\n        /* \"#utility.yul\":11423:11427   */\n      0x00\n        /* \"#utility.yul\":11461:11464   */\n      0x80\n        /* \"#utility.yul\":11450:11459   */\n      dup3\n        /* \"#utility.yul\":11446:11465   */\n      add\n        /* \"#utility.yul\":11438:11465   */\n      swap1\n      pop\n        /* \"#utility.yul\":11511:11520   */\n      dup2\n        /* \"#utility.yul\":11505:11509   */\n      dup2\n        /* \"#utility.yul\":11501:11521   */\n      sub\n        /* \"#utility.yul\":11497:11498   */\n      0x00\n        /* \"#utility.yul\":11486:11495   */\n      dup4\n        /* \"#utility.yul\":11482:11499   */\n      add\n        /* \"#utility.yul\":11475:11522   */\n      mstore\n        /* \"#utility.yul\":11539:11617   */\n      tag_317\n        /* \"#utility.yul\":11612:11616   */\n      dup2\n        /* \"#utility.yul\":11603:11609   */\n      dup8\n        /* \"#utility.yul\":11539:11617   */\n      tag_176\n      jump\t// in\n    tag_317:\n        /* \"#utility.yul\":11531:11617   */\n      swap1\n      pop\n        /* \"#utility.yul\":11627:11699   */\n      tag_318\n        /* \"#utility.yul\":11695:11697   */\n      0x20\n        /* \"#utility.yul\":11684:11693   */\n      dup4\n        /* \"#utility.yul\":11680:11698   */\n      add\n        /* \"#utility.yul\":11671:11677   */\n      dup7\n        /* \"#utility.yul\":11627:11699   */\n      tag_177\n      jump\t// in\n    tag_318:\n        /* \"#utility.yul\":11709:11781   */\n      tag_319\n        /* \"#utility.yul\":11777:11779   */\n      0x40\n        /* \"#utility.yul\":11766:11775   */\n      dup4\n        /* \"#utility.yul\":11762:11780   */\n      add\n        /* \"#utility.yul\":11753:11759   */\n      dup6\n        /* \"#utility.yul\":11709:11781   */\n      tag_177\n      jump\t// in\n    tag_319:\n        /* \"#utility.yul\":11791:11863   */\n      tag_320\n        /* \"#utility.yul\":11859:11861   */\n      0x60\n        /* \"#utility.yul\":11848:11857   */\n      dup4\n        /* \"#utility.yul\":11844:11862   */\n      add\n        /* \"#utility.yul\":11835:11841   */\n      dup5\n        /* \"#utility.yul\":11791:11863   */\n      tag_170\n      jump\t// in\n    tag_320:\n        /* \"#utility.yul\":11226:11870   */\n      swap6\n      swap5\n      pop\n      pop\n      pop\n      pop\n      pop\n      jump\t// out\n        /* \"#utility.yul\":11876:12024   */\n    tag_178:\n        /* \"#utility.yul\":11978:11989   */\n      0x00\n        /* \"#utility.yul\":12015:12018   */\n      dup2\n        /* \"#utility.yul\":12000:12018   */\n      swap1\n      pop\n        /* \"#utility.yul\":11876:12024   */\n      swap3\n      swap2\n      pop\n      pop\n      jump\t// out\n        /* \"#utility.yul\":12030:12420   */\n    tag_179:\n        /* \"#utility.yul\":12136:12139   */\n      0x00\n        /* \"#utility.yul\":12164:12203   */\n      tag_323\n        /* \"#utility.yul\":12197:12202   */\n      dup3\n        /* \"#utility.yul\":12164:12203   */\n      tag_157\n      jump\t// in\n    tag_323:\n        /* \"#utility.yul\":12219:12308   */\n      tag_324\n        /* \"#utility.yul\":12301:12307   */\n      dup2\n        /* \"#utility.yul\":12296:12299   */\n      dup6\n        /* \"#utility.yul\":12219:12308   */\n      tag_178\n      jump\t// in\n    tag_324:\n        /* \"#utility.yul\":12212:12308   */\n      swap4\n      pop\n        /* \"#utility.yul\":12317:12382   */\n      tag_325\n        /* \"#utility.yul\":12375:12381   */\n      dup2\n        /* \"#utility.yul\":12370:12373   */\n      dup6\n        /* \"#utility.yul\":12363:12367   */\n      0x20\n        /* \"#utility.yul\":12356:12361   */\n      dup7\n        /* \"#utility.yul\":12352:12368   */\n      add\n        /* \"#utility.yul\":12317:12382   */\n      tag_159\n      jump\t// in\n    tag_325:\n        /* \"#utility.yul\":12407:12413   */\n      dup1\n        /* \"#utility.yul\":12402:12405   */\n      dup5\n        /* \"#utility.yul\":12398:12414   */\n      add\n        /* \"#utility.yul\":12391:12414   */\n      swap2\n      pop\n        /* \"#utility.yul\":12140:12420   */\n      pop\n        /* \"#utility.yul\":12030:12420   */\n      swap3\n      swap2\n      pop\n      pop\n      jump\t// out\n        /* \"#utility.yul\":12426:12701   */\n    tag_42:\n        /* \"#utility.yul\":12558:12561   */\n      0x00\n        /* \"#utility.yul\":12580:12675   */\n      tag_327\n        /* \"#utility.yul\":12671:12674   */\n      dup3\n        /* \"#utility.yul\":12662:12668   */\n      dup5\n        /* \"#utility.yul\":12580:12675   */\n      tag_179\n      jump\t// in\n    tag_327:\n        /* \"#utility.yul\":12573:12675   */\n      swap2\n      pop\n        /* \"#utility.yul\":12692:12695   */\n      dup2\n        /* \"#utility.yul\":12685:12695   */\n      swap1\n      pop\n        /* \"#utility.yul\":12426:12701   */\n      swap3\n      swap2\n      pop\n      pop\n      jump\t// out\n        /* \"#utility.yul\":12707:12887   */\n    tag_180:\n        /* \"#utility.yul\":12755:12832   */\n      0x4e487b7100000000000000000000000000000000000000000000000000000000\n        /* \"#utility.yul\":12752:12753   */\n      0x00\n        /* \"#utility.yul\":12745:12833   */\n      mstore\n        /* \"#utility.yul\":12852:12856   */\n      0x22\n        /* \"#utility.yul\":12849:12850   */\n      0x04\n        /* \"#utility.yul\":12842:12857   */\n      mstore\n        /* \"#utility.yul\":12876:12880   */\n      0x24\n        /* \"#utility.yul\":12873:12874   */\n      0x00\n        /* \"#utility.yul\":12866:12881   */\n      revert\n        /* \"#utility.yul\":12893:13213   */\n    tag_63:\n        /* \"#utility.yul\":12937:12943   */\n      0x00\n        /* \"#utility.yul\":12974:12975   */\n      0x02\n        /* \"#utility.yul\":12968:12972   */\n      dup3\n        /* \"#utility.yul\":12964:12976   */\n      div\n        /* \"#utility.yul\":12954:12976   */\n      swap1\n      pop\n        /* \"#utility.yul\":13021:13022   */\n      0x01\n        /* \"#utility.yul\":13015:13019   */\n      dup3\n        /* \"#utility.yul\":13011:13023   */\n      and\n        /* \"#utility.yul\":13042:13060   */\n      dup1\n        /* \"#utility.yul\":13032:13113   */\n      tag_330\n      jumpi\n        /* \"#utility.yul\":13098:13102   */\n      0x7f\n        /* \"#utility.yul\":13090:13096   */\n      dup3\n        /* \"#utility.yul\":13086:13103   */\n      and\n        /* \"#utility.yul\":13076:13103   */\n      swap2\n      pop\n        /* \"#utility.yul\":13032:13113   */\n    tag_330:\n        /* \"#utility.yul\":13160:13162   */\n      0x20\n        /* \"#utility.yul\":13152:13158   */\n      dup3\n        /* \"#utility.yul\":13149:13163   */\n      lt\n        /* \"#utility.yul\":13129:13147   */\n      dup2\n        /* \"#utility.yul\":13126:13164   */\n      sub\n        /* \"#utility.yul\":13123:13207   */\n      tag_331\n      jumpi\n        /* \"#utility.yul\":13179:13197   */\n      tag_332\n      tag_180\n      jump\t// in\n    tag_332:\n        /* \"#utility.yul\":13123:13207   */\n    tag_331:\n        /* \"#utility.yul\":12944:13213   */\n      pop\n        /* \"#utility.yul\":12893:13213   */\n      swap2\n      swap1\n      pop\n      jump\t// out\n        /* \"#utility.yul\":13219:13360   */\n    tag_181:\n        /* \"#utility.yul\":13268:13272   */\n      0x00\n        /* \"#utility.yul\":13291:13294   */\n      dup2\n        /* \"#utility.yul\":13283:13294   */\n      swap1\n      pop\n        /* \"#utility.yul\":13314:13317   */\n      dup2\n        /* \"#utility.yul\":13311:13312   */\n      0x00\n        /* \"#utility.yul\":13304:13318   */\n      mstore\n        /* \"#utility.yul\":13348:13352   */\n      0x20\n        /* \"#utility.yul\":13345:13346   */\n      0x00\n        /* \"#utility.yul\":13335:13353   */\n      keccak256\n        /* \"#utility.yul\":13327:13353   */\n      swap1\n      pop\n        /* \"#utility.yul\":13219:13360   */\n      swap2\n      swap1\n      pop\n      jump\t// out\n        /* \"#utility.yul\":13390:14264   */\n    tag_182:\n        /* \"#utility.yul\":13493:13496   */\n      0x00\n        /* \"#utility.yul\":13530:13535   */\n      dup2\n        /* \"#utility.yul\":13524:13536   */\n      sload\n        /* \"#utility.yul\":13559:13595   */\n      tag_335\n        /* \"#utility.yul\":13585:13594   */\n      dup2\n        /* \"#utility.yul\":13559:13595   */\n      tag_63\n      jump\t// in\n    tag_335:\n        /* \"#utility.yul\":13611:13700   */\n      tag_336\n        /* \"#utility.yul\":13693:13699   */\n      dup2\n        /* \"#utility.yul\":13688:13691   */\n      dup7\n        /* \"#utility.yul\":13611:13700   */\n      tag_178\n      jump\t// in\n    tag_336:\n        /* \"#utility.yul\":13604:13700   */\n      swap5\n      pop\n        /* \"#utility.yul\":13731:13732   */\n      0x01\n        /* \"#utility.yul\":13720:13729   */\n      dup3\n        /* \"#utility.yul\":13716:13733   */\n      and\n        /* \"#utility.yul\":13747:13748   */\n      0x00\n        /* \"#utility.yul\":13742:13908   */\n      dup2\n      eq\n      tag_338\n      jumpi\n        /* \"#utility.yul\":13922:13923   */\n      0x01\n        /* \"#utility.yul\":13917:14258   */\n      dup2\n      eq\n      tag_339\n      jumpi\n        /* \"#utility.yul\":13709:14258   */\n      jump(tag_337)\n        /* \"#utility.yul\":13742:13908   */\n    tag_338:\n        /* \"#utility.yul\":13826:13830   */\n      0xff\n        /* \"#utility.yul\":13822:13831   */\n      not\n        /* \"#utility.yul\":13811:13820   */\n      dup4\n        /* \"#utility.yul\":13807:13832   */\n      and\n        /* \"#utility.yul\":13802:13805   */\n      dup7\n        /* \"#utility.yul\":13795:13833   */\n      mstore\n        /* \"#utility.yul\":13888:13894   */\n      dup2\n        /* \"#utility.yul\":13881:13895   */\n      iszero\n        /* \"#utility.yul\":13874:13896   */\n      iszero\n        /* \"#utility.yul\":13866:13872   */\n      dup3\n        /* \"#utility.yul\":13862:13897   */\n      mul\n        /* \"#utility.yul\":13857:13860   */\n      dup7\n        /* \"#utility.yul\":13853:13898   */\n      add\n        /* \"#utility.yul\":13846:13898   */\n      swap4\n      pop\n        /* \"#utility.yul\":13742:13908   */\n      jump(tag_337)\n        /* \"#utility.yul\":13917:14258   */\n    tag_339:\n        /* \"#utility.yul\":13984:14022   */\n      tag_340\n        /* \"#utility.yul\":14016:14021   */\n      dup6\n        /* \"#utility.yul\":13984:14022   */\n      tag_181\n      jump\t// in\n    tag_340:\n        /* \"#utility.yul\":14044:14045   */\n      0x00\n        /* \"#utility.yul\":14058:14212   */\n    tag_341:\n        /* \"#utility.yul\":14072:14078   */\n      dup4\n        /* \"#utility.yul\":14069:14070   */\n      dup2\n        /* \"#utility.yul\":14066:14079   */\n      lt\n        /* \"#utility.yul\":14058:14212   */\n      iszero\n      tag_343\n      jumpi\n        /* \"#utility.yul\":14146:14153   */\n      dup2\n        /* \"#utility.yul\":14140:14154   */\n      sload\n        /* \"#utility.yul\":14136:14137   */\n      dup2\n        /* \"#utility.yul\":14131:14134   */\n      dup10\n        /* \"#utility.yul\":14127:14138   */\n      add\n        /* \"#utility.yul\":14120:14155   */\n      mstore\n        /* \"#utility.yul\":14196:14197   */\n      0x01\n        /* \"#utility.yul\":14187:14194   */\n      dup3\n        /* \"#utility.yul\":14183:14198   */\n      add\n        /* \"#utility.yul\":14172:14198   */\n      swap2\n      pop\n        /* \"#utility.yul\":14094:14098   */\n      0x20\n        /* \"#utility.yul\":14091:14092   */\n      dup2\n        /* \"#utility.yul\":14087:14099   */\n      add\n        /* \"#utility.yul\":14082:14099   */\n      swap1\n      pop\n        /* \"#utility.yul\":14058:14212   */\n      jump(tag_341)\n    tag_343:\n        /* \"#utility.yul\":14241:14247   */\n      dup4\n        /* \"#utility.yul\":14236:14239   */\n      dup9\n        /* \"#utility.yul\":14232:14248   */\n      add\n        /* \"#utility.yul\":14225:14248   */\n      swap6\n      pop\n        /* \"#utility.yul\":13924:14258   */\n      pop\n      pop\n        /* \"#utility.yul\":13709:14258   */\n    tag_337:\n      pop\n        /* \"#utility.yul\":13497:14264   */\n      pop\n      pop\n        /* \"#utility.yul\":13390:14264   */\n      swap3\n      swap2\n      pop\n      pop\n      jump\t// out\n        /* \"#utility.yul\":14270:14539   */\n    tag_44:\n        /* \"#utility.yul\":14399:14402   */\n      0x00\n        /* \"#utility.yul\":14421:14513   */\n      tag_345\n        /* \"#utility.yul\":14509:14512   */\n      dup3\n        /* \"#utility.yul\":14500:14506   */\n      dup5\n        /* \"#utility.yul\":14421:14513   */\n      tag_182\n      jump\t// in\n    tag_345:\n        /* \"#utility.yul\":14414:14513   */\n      swap2\n      pop\n        /* \"#utility.yul\":14530:14533   */\n      dup2\n        /* \"#utility.yul\":14523:14533   */\n      swap1\n      pop\n        /* \"#utility.yul\":14270:14539   */\n      swap3\n      swap2\n      pop\n      pop\n      jump\t// out\n        /* \"#utility.yul\":14545:14725   */\n    tag_183:\n        /* \"#utility.yul\":14593:14670   */\n      0x4e487b7100000000000000000000000000000000000000000000000000000000\n        /* \"#utility.yul\":14590:14591   */\n      0x00\n        /* \"#utility.yul\":14583:14671   */\n      mstore\n        /* \"#utility.yul\":14690:14694   */\n      0x11\n        /* \"#utility.yul\":14687:14688   */\n      0x04\n        /* \"#utility.yul\":14680:14695   */\n      mstore\n        /* \"#utility.yul\":14714:14718   */\n      0x24\n        /* \"#utility.yul\":14711:14712   */\n      0x00\n        /* \"#utility.yul\":14704:14719   */\n      revert\n        /* \"#utility.yul\":14731:14964   */\n    tag_47:\n        /* \"#utility.yul\":14770:14773   */\n      0x00\n        /* \"#utility.yul\":14793:14817   */\n      tag_348\n        /* \"#utility.yul\":14811:14816   */\n      dup3\n        /* \"#utility.yul\":14793:14817   */\n      tag_164\n      jump\t// in\n    tag_348:\n        /* \"#utility.yul\":14784:14817   */\n      swap2\n      pop\n        /* \"#utility.yul\":14839:14905   */\n      0xffffffffffffffffffffffffffffffffffffffffffffffffffffffffffffffff\n        /* \"#utility.yul\":14832:14837   */\n      dup3\n        /* \"#utility.yul\":14829:14906   */\n      sub\n        /* \"#utility.yul\":14826:14929   */\n      tag_349\n      jumpi\n        /* \"#utility.yul\":14909:14927   */\n      tag_350\n      tag_183\n      jump\t// in\n    tag_350:\n        /* \"#utility.yul\":14826:14929   */\n    tag_349:\n        /* \"#utility.yul\":14956:14957   */\n      0x01\n        /* \"#utility.yul\":14949:14954   */\n      dup3\n        /* \"#utility.yul\":14945:14958   */\n      add\n        /* \"#utility.yul\":14938:14958   */\n      swap1\n      pop\n        /* \"#utility.yul\":14731:14964   */\n      swap2\n      swap1\n      pop\n      jump\t// out\n        /* \"#utility.yul\":14970:15150   */\n    tag_70:\n        /* \"#utility.yul\":15018:15095   */\n      0x4e487b7100000000000000000000000000000000000000000000000000000000\n        /* \"#utility.yul\":15015:15016   */\n      0x00\n        /* \"#utility.yul\":15008:15096   */\n      mstore\n        /* \"#utility.yul\":15115:15119   */\n      0x32\n        /* \"#utility.yul\":15112:15113   */\n      0x04\n        /* \"#utility.yul\":15105:15120   */\n      mstore\n        /* \"#utility.yul\":15139:15143   */\n      0x24\n        /* \"#utility.yul\":15136:15137   */\n      0x00\n        /* \"#utility.yul\":15129:15144   */\n      revert\n        /* \"#utility.yul\":15156:15350   */\n    tag_88:\n        /* \"#utility.yul\":15196:15200   */\n      0x00\n        /* \"#utility.yul\":15216:15236   */\n      tag_353\n        /* \"#utility.yul\":15234:15235   */\n      dup3\n        /* \"#utility.yul\":15216:15236   */\n      tag_164\n      jump\t// in\n    tag_353:\n        /* \"#utility.yul\":15211:15236   */\n      swap2\n      pop\n        /* \"#utility.yul\":15250:15270   */\n      tag_354\n        /* \"#utility.yul\":15268:15269   */\n      dup4\n        /* \"#utility.yul\":15250:15270   */\n      tag_164\n      jump\t// in\n    tag_354:\n        /* \"#utility.yul\":15245:15270   */\n      swap3\n      pop\n        /* \"#utility.yul\":15294:15295   */\n      dup3\n        /* \"#utility.yul\":15291:15292   */\n      dup3\n        /* \"#utility.yul\":15287:15296   */\n      sub\n        /* \"#utility.yul\":15279:15296   */\n      swap1\n      pop\n        /* \"#utility.yul\":15318:15319   */\n      dup2\n        /* \"#utility.yul\":15312:15316   */\n      dup2\n        /* \"#utility.yul\":15309:15320   */\n      gt\n        /* \"#utility.yul\":15306:15343   */\n      iszero\n      tag_355\n      jumpi\n        /* \"#utility.yul\":15323:15341   */\n      tag_356\n      tag_183\n      jump\t// in\n    tag_356:\n        /* \"#utility.yul\":15306:15343   */\n    tag_355:\n        /* \"#utility.yul\":15156:15350   */\n      swap3\n      swap2\n      pop\n      pop\n      jump\t// out\n        /* \"#utility.yul\":15356:15779   */\n    tag_119:\n        /* \"#utility.yul\":15497:15501   */\n      0x00\n        /* \"#utility.yul\":15535:15537   */\n      0x40\n        /* \"#utility.yul\":15524:15533   */\n      dup3\n        /* \"#utility.yul\":15520:15538   */\n      add\n        /* \"#utility.yul\":15512:15538   */\n      swap1\n      pop\n        /* \"#utility.yul\":15548:15619   */\n      tag_358\n        /* \"#utility.yul\":15616:15617   */\n      0x00\n        /* \"#utility.yul\":15605:15614   */\n      dup4\n        /* \"#utility.yul\":15601:15618   */\n      add\n        /* \"#utility.yul\":15592:15598   */\n      dup6\n        /* \"#utility.yul\":15548:15619   */\n      tag_177\n      jump\t// in\n    tag_358:\n        /* \"#utility.yul\":15666:15675   */\n      dup2\n        /* \"#utility.yul\":15660:15664   */\n      dup2\n        /* \"#utility.yul\":15656:15676   */\n      sub\n        /* \"#utility.yul\":15651:15653   */\n      0x20\n        /* \"#utility.yul\":15640:15649   */\n      dup4\n        /* \"#utility.yul\":15636:15654   */\n      add\n        /* \"#utility.yul\":15629:15677   */\n      mstore\n        /* \"#utility.yul\":15694:15772   */\n      tag_359\n        /* \"#utility.yul\":15767:15771   */\n      dup2\n        /* \"#utility.yul\":15758:15764   */\n      dup5\n        /* \"#utility.yul\":15694:15772   */\n      tag_176\n      jump\t// in\n    tag_359:\n        /* \"#utility.yul\":15686:15772   */\n      swap1\n      pop\n        /* \"#utility.yul\":15356:15779   */\n      swap4\n      swap3\n      pop\n      pop\n      pop\n      jump\t// out\n        /* \"#utility.yul\":15785:15875   */\n    tag_184:\n        /* \"#utility.yul\":15819:15826   */\n      0x00\n        /* \"#utility.yul\":15862:15867   */\n      dup2\n        /* \"#utility.yul\":15855:15868   */\n      iszero\n        /* \"#utility.yul\":15848:15869   */\n      iszero\n        /* \"#utility.yul\":15837:15869   */\n      swap1\n      pop\n        /* \"#utility.yul\":15785:15875   */\n      swap2\n      swap1\n      pop\n      jump\t// out\n        /* \"#utility.yul\":15881:15997   */\n    tag_185:\n        /* \"#utility.yul\":15951:15972   */\n      tag_362\n        /* \"#utility.yul\":15966:15971   */\n      dup2\n        /* \"#utility.yul\":15951:15972   */\n      tag_184\n      jump\t// in\n    tag_362:\n        /* \"#utility.yul\":15944:15949   */\n      dup2\n        /* \"#utility.yul\":15941:15973   */\n      eq\n        /* \"#utility.yul\":15931:15991   */\n      tag_363\n      jumpi\n        /* \"#utility.yul\":15987:15988   */\n      0x00\n        /* \"#utility.yul\":15984:15985   */\n      0x00\n        /* \"#utility.yul\":15977:15989   */\n      revert\n        /* \"#utility.yul\":15931:15991   */\n    tag_363:\n        /* \"#utility.yul\":15881:15997   */\n      pop\n      jump\t// out\n        /* \"#utility.yul\":16003:16140   */\n    tag_186:\n        /* \"#utility.yul\":16057:16062   */\n      0x00\n        /* \"#utility.yul\":16088:16094   */\n      dup2\n        /* \"#utility.yul\":16082:16095   */\n      mload\n        /* \"#utility.yul\":16073:16095   */\n      swap1\n      pop\n        /* \"#utility.yul\":16104:16134   */\n      tag_365\n        /* \"#utility.yul\":16128:16133   */\n      dup2\n        /* \"#utility.yul\":16104:16134   */\n      tag_185\n      jump\t// in\n    tag_365:\n        /* \"#utility.yul\":16003:16140   */\n      swap3\n      swap2\n      pop\n      pop\n      jump\t// out\n        /* \"#utility.yul\":16146:16491   */\n    tag_123:\n        /* \"#utility.yul\":16213:16219   */\n      0x00\n        /* \"#utility.yul\":16262:16264   */\n      0x20\n        /* \"#utility.yul\":16250:16259   */\n      dup3\n        /* \"#utility.yul\":16241:16248   */\n      dup5\n        /* \"#utility.yul\":16237:16260   */\n      sub\n        /* \"#utility.yul\":16233:16265   */\n      slt\n        /* \"#utility.yul\":16230:16349   */\n      iszero\n      tag_367\n      jumpi\n        /* \"#utility.yul\":16268:16347   */\n      tag_368\n      tag_143\n      jump\t// in\n    tag_368:\n        /* \"#utility.yul\":16230:16349   */\n    tag_367:\n        /* \"#utility.yul\":16388:16389   */\n      0x00\n        /* \"#utility.yul\":16413:16474   */\n      tag_369\n        /* \"#utility.yul\":16466:16473   */\n      dup5\n        /* \"#utility.yul\":16457:16463   */\n      dup3\n        /* \"#utility.yul\":16446:16455   */\n      dup6\n        /* \"#utility.yul\":16442:16464   */\n      add\n        /* \"#utility.yul\":16413:16474   */\n      tag_186\n      jump\t// in\n    tag_369:\n        /* \"#utility.yul\":16403:16474   */\n      swap2\n      pop\n        /* \"#utility.yul\":16359:16484   */\n      pop\n        /* \"#utility.yul\":16146:16491   */\n      swap3\n      swap2\n      pop\n      pop\n      jump\t// out\n        /* \"#utility.yul\":16497:16656   */\n    tag_187:\n        /* \"#utility.yul\":16637:16648   */\n      0x6e6f742076616c69640000000000000000000000000000000000000000000000\n        /* \"#utility.yul\":16633:16634   */\n      0x00\n        /* \"#utility.yul\":16625:16631   */\n      dup3\n        /* \"#utility.yul\":16621:16635   */\n      add\n        /* \"#utility.yul\":16614:16649   */\n      mstore\n        /* \"#utility.yul\":16497:16656   */\n      pop\n      jump\t// out\n        /* \"#utility.yul\":16662:17027   */\n    tag_188:\n        /* \"#utility.yul\":16804:16807   */\n      0x00\n        /* \"#utility.yul\":16825:16891   */\n      tag_372\n        /* \"#utility.yul\":16889:16890   */\n      0x09\n        /* \"#utility.yul\":16884:16887   */\n      dup4\n        /* \"#utility.yul\":16825:16891   */\n      tag_175\n      jump\t// in\n    tag_372:\n        /* \"#utility.yul\":16818:16891   */\n      swap2\n      pop\n        /* \"#utility.yul\":16900:16993   */\n      tag_373\n        /* \"#utility.yul\":16989:16992   */\n      dup3\n        /* \"#utility.yul\":16900:16993   */\n      tag_187\n      jump\t// in\n    tag_373:\n        /* \"#utility.yul\":17018:17020   */\n      0x20\n        /* \"#utility.yul\":17013:17016   */\n      dup3\n        /* \"#utility.yul\":17009:17021   */\n      add\n        /* \"#utility.yul\":17002:17021   */\n      swap1\n      pop\n        /* \"#utility.yul\":16662:17027   */\n      swap2\n      swap1\n      pop\n      jump\t// out\n        /* \"#utility.yul\":17033:17452   */\n    tag_126:\n        /* \"#utility.yul\":17199:17203   */\n      0x00\n        /* \"#utility.yul\":17237:17239   */\n      0x20\n        /* \"#utility.yul\":17226:17235   */\n      dup3\n        /* \"#utility.yul\":17222:17240   */\n      add\n        /* \"#utility.yul\":17214:17240   */\n      swap1\n      pop\n        /* \"#utility.yul\":17286:17295   */\n      dup2\n        /* \"#utility.yul\":17280:17284   */\n      dup2\n        /* \"#utility.yul\":17276:17296   */\n      sub\n        /* \"#utility.yul\":17272:17273   */\n      0x00\n        /* \"#utility.yul\":17261:17270   */\n      dup4\n        /* \"#utility.yul\":17257:17274   */\n      add\n        /* \"#utility.yul\":17250:17297   */\n      mstore\n        /* \"#utility.yul\":17314:17445   */\n      tag_375\n        /* \"#utility.yul\":17440:17444   */\n      dup2\n        /* \"#utility.yul\":17314:17445   */\n      tag_188\n      jump\t// in\n    tag_375:\n        /* \"#utility.yul\":17306:17445   */\n      swap1\n      pop\n        /* \"#utility.yul\":17033:17452   */\n      swap2\n      swap1\n      pop\n      jump\t// out\n        /* \"#utility.yul\":17458:17881   */\n    tag_128:\n        /* \"#utility.yul\":17599:17603   */\n      0x00\n        /* \"#utility.yul\":17637:17639   */\n      0x40\n        /* \"#utility.yul\":17626:17635   */\n      dup3\n        /* \"#utility.yul\":17622:17640   */\n      add\n        /* \"#utility.yul\":17614:17640   */\n      swap1\n      pop\n        /* \"#utility.yul\":17686:17695   */\n      dup2\n        /* \"#utility.yul\":17680:17684   */\n      dup2\n        /* \"#utility.yul\":17676:17696   */\n      sub\n        /* \"#utility.yul\":17672:17673   */\n      0x00\n        /* \"#utility.yul\":17661:17670   */\n      dup4\n        /* \"#utility.yul\":17657:17674   */\n      add\n        /* \"#utility.yul\":17650:17697   */\n      mstore\n        /* \"#utility.yul\":17714:17792   */\n      tag_377\n        /* \"#utility.yul\":17787:17791   */\n      dup2\n        /* \"#utility.yul\":17778:17784   */\n      dup6\n        /* \"#utility.yul\":17714:17792   */\n      tag_176\n      jump\t// in\n    tag_377:\n        /* \"#utility.yul\":17706:17792   */\n      swap1\n      pop\n        /* \"#utility.yul\":17802:17874   */\n      tag_378\n        /* \"#utility.yul\":17870:17872   */\n      0x20\n        /* \"#utility.yul\":17859:17868   */\n      dup4\n        /* \"#utility.yul\":17855:17873   */\n      add\n        /* \"#utility.yul\":17846:17852   */\n      dup5\n        /* \"#utility.yul\":17802:17874   */\n      tag_170\n      jump\t// in\n    tag_378:\n        /* \"#utility.yul\":17458:17881   */\n      swap4\n      swap3\n      pop\n      pop\n      pop\n      jump\t// out\n        /* \"#utility.yul\":17887:17980   */\n    tag_189:\n        /* \"#utility.yul\":17924:17930   */\n      0x00\n        /* \"#utility.yul\":17971:17973   */\n      0x20\n        /* \"#utility.yul\":17966:17968   */\n      0x1f\n        /* \"#utility.yul\":17959:17964   */\n      dup4\n        /* \"#utility.yul\":17955:17969   */\n      add\n        /* \"#utility.yul\":17951:17974   */\n      div\n        /* \"#utility.yul\":17941:17974   */\n      swap1\n      pop\n        /* \"#utility.yul\":17887:17980   */\n      swap2\n      swap1\n      pop\n      jump\t// out\n        /* \"#utility.yul\":17986:18093   */\n    tag_190:\n        /* \"#utility.yul\":18030:18038   */\n      0x00\n        /* \"#utility.yul\":18080:18085   */\n      dup3\n        /* \"#utility.yul\":18074:18078   */\n      dup3\n        /* \"#utility.yul\":18070:18086   */\n      shl\n        /* \"#utility.yul\":18049:18086   */\n      swap1\n      pop\n        /* \"#utility.yul\":17986:18093   */\n      swap3\n      swap2\n      pop\n      pop\n      jump\t// out\n        /* \"#utility.yul\":18099:18492   */\n    tag_191:\n        /* \"#utility.yul\":18168:18174   */\n      0x00\n        /* \"#utility.yul\":18218:18219   */\n      0x08\n        /* \"#utility.yul\":18206:18216   */\n      dup4\n        /* \"#utility.yul\":18202:18220   */\n      mul\n        /* \"#utility.yul\":18241:18338   */\n      tag_382\n        /* \"#utility.yul\":18271:18337   */\n      0xffffffffffffffffffffffffffffffffffffffffffffffffffffffffffffffff\n        /* \"#utility.yul\":18260:18269   */\n      dup3\n        /* \"#utility.yul\":18241:18338   */\n      tag_190\n      jump\t// in\n    tag_382:\n        /* \"#utility.yul\":18359:18398   */\n      tag_383\n        /* \"#utility.yul\":18389:18397   */\n      dup7\n        /* \"#utility.yul\":18378:18387   */\n      dup4\n        /* \"#utility.yul\":18359:18398   */\n      tag_190\n      jump\t// in\n    tag_383:\n        /* \"#utility.yul\":18347:18398   */\n      swap6\n      pop\n        /* \"#utility.yul\":18431:18435   */\n      dup1\n        /* \"#utility.yul\":18427:18436   */\n      not\n        /* \"#utility.yul\":18420:18425   */\n      dup5\n        /* \"#utility.yul\":18416:18437   */\n      and\n        /* \"#utility.yul\":18407:18437   */\n      swap4\n      pop\n        /* \"#utility.yul\":18480:18484   */\n      dup1\n        /* \"#utility.yul\":18470:18478   */\n      dup7\n        /* \"#utility.yul\":18466:18485   */\n      and\n        /* \"#utility.yul\":18459:18464   */\n      dup5\n        /* \"#utility.yul\":18456:18486   */\n      or\n        /* \"#utility.yul\":18446:18486   */\n      swap3\n      pop\n        /* \"#utility.yul\":18175:18492   */\n      pop\n      pop\n        /* \"#utility.yul\":18099:18492   */\n      swap4\n      swap3\n      pop\n      pop\n      pop\n      jump\t// out\n        /* \"#utility.yul\":18498:18558   */\n    tag_192:\n        /* \"#utility.yul\":18526:18529   */\n      0x00\n        /* \"#utility.yul\":18547:18552   */\n      dup2\n        /* \"#utility.yul\":18540:18552   */\n      swap1\n      pop\n        /* \"#utility.yul\":18498:18558   */\n      swap2\n      swap1\n      pop\n      jump\t// out\n        /* \"#utility.yul\":18564:18706   */\n    tag_193:\n        /* \"#utility.yul\":18614:18623   */\n      0x00\n        /* \"#utility.yul\":18647:18700   */\n      tag_386\n        /* \"#utility.yul\":18665:18699   */\n      tag_387\n        /* \"#utility.yul\":18674:18698   */\n      tag_388\n        /* \"#utility.yul\":18692:18697   */\n      dup5\n        /* \"#utility.yul\":18674:18698   */\n      tag_164\n      jump\t// in\n    tag_388:\n        /* \"#utility.yul\":18665:18699   */\n      tag_192\n      jump\t// in\n    tag_387:\n        /* \"#utility.yul\":18647:18700   */\n      tag_164\n      jump\t// in\n    tag_386:\n        /* \"#utility.yul\":18634:18700   */\n      swap1\n      pop\n        /* \"#utility.yul\":18564:18706   */\n      swap2\n      swap1\n      pop\n      jump\t// out\n        /* \"#utility.yul\":18712:18787   */\n    tag_194:\n        /* \"#utility.yul\":18755:18758   */\n      0x00\n        /* \"#utility.yul\":18776:18781   */\n      dup2\n        /* \"#utility.yul\":18769:18781   */\n      swap1\n      pop\n        /* \"#utility.yul\":18712:18787   */\n      swap2\n      swap1\n      pop\n      jump\t// out\n        /* \"#utility.yul\":18793:19062   */\n    tag_195:\n        /* \"#utility.yul\":18903:18942   */\n      tag_391\n        /* \"#utility.yul\":18934:18941   */\n      dup4\n        /* \"#utility.yul\":18903:18942   */\n      tag_193\n      jump\t// in\n    tag_391:\n        /* \"#utility.yul\":18964:19055   */\n      tag_392\n        /* \"#utility.yul\":19013:19054   */\n      tag_393\n        /* \"#utility.yul\":19037:19053   */\n      dup3\n        /* \"#utility.yul\":19013:19054   */\n      tag_194\n      jump\t// in\n    tag_393:\n        /* \"#utility.yul\":19005:19011   */\n      dup5\n        /* \"#utility.yul\":18998:19002   */\n      dup5\n        /* \"#utility.yul\":18992:19003   */\n      sload\n        /* \"#utility.yul\":18964:19055   */\n      tag_191\n      jump\t// in\n    tag_392:\n        /* \"#utility.yul\":18958:18962   */\n      dup3\n        /* \"#utility.yul\":18951:19056   */\n      sstore\n        /* \"#utility.yul\":18869:19062   */\n      pop\n        /* \"#utility.yul\":18793:19062   */\n      pop\n      pop\n      pop\n      jump\t// out\n        /* \"#utility.yul\":19068:19141   */\n    tag_196:\n        /* \"#utility.yul\":19113:19116   */\n      0x00\n        /* \"#utility.yul\":19134:19135   */\n      0x00\n        /* \"#utility.yul\":19127:19135   */\n      swap1\n      pop\n        /* \"#utility.yul\":19068:19141   */\n      swap1\n      jump\t// out\n        /* \"#utility.yul\":19147:19336   */\n    tag_197:\n        /* \"#utility.yul\":19224:19256   */\n      tag_396\n      tag_196\n      jump\t// in\n    tag_396:\n        /* \"#utility.yul\":19265:19330   */\n      tag_397\n        /* \"#utility.yul\":19323:19329   */\n      dup2\n        /* \"#utility.yul\":19315:19321   */\n      dup5\n        /* \"#utility.yul\":19309:19313   */\n      dup5\n        /* \"#utility.yul\":19265:19330   */\n      tag_195\n      jump\t// in\n    tag_397:\n        /* \"#utility.yul\":19200:19336   */\n      pop\n        /* \"#utility.yul\":19147:19336   */\n      pop\n      pop\n      jump\t// out\n        /* \"#utility.yul\":19342:19528   */\n    tag_198:\n        /* \"#utility.yul\":19402:19522   */\n    tag_399:\n        /* \"#utility.yul\":19419:19422   */\n      dup2\n        /* \"#utility.yul\":19412:19417   */\n      dup2\n        /* \"#utility.yul\":19409:19423   */\n      lt\n        /* \"#utility.yul\":19402:19522   */\n      iszero\n      tag_401\n      jumpi\n        /* \"#utility.yul\":19473:19512   */\n      tag_402\n        /* \"#utility.yul\":19510:19511   */\n      0x00\n        /* \"#utility.yul\":19503:19508   */\n      dup3\n        /* \"#utility.yul\":19473:19512   */\n      tag_197\n      jump\t// in\n    tag_402:\n        /* \"#utility.yul\":19446:19447   */\n      0x01\n        /* \"#utility.yul\":19439:19444   */\n      dup2\n        /* \"#utility.yul\":19435:19448   */\n      add\n        /* \"#utility.yul\":19426:19448   */\n      swap1\n      pop\n        /* \"#utility.yul\":19402:19522   */\n      jump(tag_399)\n    tag_401:\n        /* \"#utility.yul\":19342:19528   */\n      pop\n      pop\n      jump\t// out\n        /* \"#utility.yul\":19534:20077   */\n    tag_199:\n        /* \"#utility.yul\":19635:19637   */\n      0x1f\n        /* \"#utility.yul\":19630:19633   */\n      dup3\n        /* \"#utility.yul\":19627:19638   */\n      gt\n        /* \"#utility.yul\":19624:20070   */\n      iszero\n      tag_404\n      jumpi\n        /* \"#utility.yul\":19669:19707   */\n      tag_405\n        /* \"#utility.yul\":19701:19706   */\n      dup2\n        /* \"#utility.yul\":19669:19707   */\n      tag_181\n      jump\t// in\n    tag_405:\n        /* \"#utility.yul\":19753:19782   */\n      tag_406\n        /* \"#utility.yul\":19771:19781   */\n      dup5\n        /* \"#utility.yul\":19753:19782   */\n      tag_189\n      jump\t// in\n    tag_406:\n        /* \"#utility.yul\":19743:19751   */\n      dup2\n        /* \"#utility.yul\":19739:19783   */\n      add\n        /* \"#utility.yul\":19936:19938   */\n      0x20\n        /* \"#utility.yul\":19924:19934   */\n      dup6\n        /* \"#utility.yul\":19921:19939   */\n      lt\n        /* \"#utility.yul\":19918:19967   */\n      iszero\n      tag_407\n      jumpi\n        /* \"#utility.yul\":19957:19965   */\n      dup2\n        /* \"#utility.yul\":19942:19965   */\n      swap1\n      pop\n        /* \"#utility.yul\":19918:19967   */\n    tag_407:\n        /* \"#utility.yul\":19980:20060   */\n      tag_408\n        /* \"#utility.yul\":20036:20058   */\n      tag_409\n        /* \"#utility.yul\":20054:20057   */\n      dup6\n        /* \"#utility.yul\":20036:20058   */\n      tag_189\n      jump\t// in\n    tag_409:\n        /* \"#utility.yul\":20026:20034   */\n      dup4\n        /* \"#utility.yul\":20022:20059   */\n      add\n        /* \"#utility.yul\":20009:20020   */\n      dup3\n        /* \"#utility.yul\":19980:20060   */\n      tag_198\n      jump\t// in\n    tag_408:\n        /* \"#utility.yul\":19639:20070   */\n      pop\n      pop\n        /* \"#utility.yul\":19624:20070   */\n    tag_404:\n        /* \"#utility.yul\":19534:20077   */\n      pop\n      pop\n      pop\n      jump\t// out\n        /* \"#utility.yul\":20083:20200   */\n    tag_200:\n        /* \"#utility.yul\":20137:20145   */\n      0x00\n        /* \"#utility.yul\":20187:20192   */\n      dup3\n        /* \"#utility.yul\":20181:20185   */\n      dup3\n        /* \"#utility.yul\":20177:20193   */\n      shr\n        /* \"#utility.yul\":20156:20193   */\n      swap1\n      pop\n        /* \"#utility.yul\":20083:20200   */\n      swap3\n      swap2\n      pop\n      pop\n      jump\t// out\n        /* \"#utility.yul\":20206:20375   */\n    tag_201:\n        /* \"#utility.yul\":20250:20256   */\n      0x00\n        /* \"#utility.yul\":20283:20334   */\n      tag_412\n        /* \"#utility.yul\":20331:20332   */\n      0x00\n        /* \"#utility.yul\":20327:20333   */\n      not\n        /* \"#utility.yul\":20319:20324   */\n      dup5\n        /* \"#utility.yul\":20316:20317   */\n      0x08\n        /* \"#utility.yul\":20312:20325   */\n      mul\n        /* \"#utility.yul\":20283:20334   */\n      tag_200\n      jump\t// in\n    tag_412:\n        /* \"#utility.yul\":20279:20335   */\n      not\n        /* \"#utility.yul\":20364:20368   */\n      dup1\n        /* \"#utility.yul\":20358:20362   */\n      dup4\n        /* \"#utility.yul\":20354:20369   */\n      and\n        /* \"#utility.yul\":20344:20369   */\n      swap2\n      pop\n        /* \"#utility.yul\":20257:20375   */\n      pop\n        /* \"#utility.yul\":20206:20375   */\n      swap3\n      swap2\n      pop\n      pop\n      jump\t// out\n        /* \"#utility.yul\":20380:20675   */\n    tag_202:\n        /* \"#utility.yul\":20456:20460   */\n      0x00\n        /* \"#utility.yul\":20602:20631   */\n      tag_414\n        /* \"#utility.yul\":20627:20630   */\n      dup4\n        /* \"#utility.yul\":20621:20625   */\n      dup4\n        /* \"#utility.yul\":20602:20631   */\n      tag_201\n      jump\t// in\n    tag_414:\n        /* \"#utility.yul\":20594:20631   */\n      swap2\n      pop\n        /* \"#utility.yul\":20664:20667   */\n      dup3\n        /* \"#utility.yul\":20661:20662   */\n      0x02\n        /* \"#utility.yul\":20657:20668   */\n      mul\n        /* \"#utility.yul\":20651:20655   */\n      dup3\n        /* \"#utility.yul\":20648:20669   */\n      or\n        /* \"#utility.yul\":20640:20669   */\n      swap1\n      pop\n        /* \"#utility.yul\":20380:20675   */\n      swap3\n      swap2\n      pop\n      pop\n      jump\t// out\n        /* \"#utility.yul\":20680:22075   */\n    tag_134:\n        /* \"#utility.yul\":20797:20834   */\n      tag_416\n        /* \"#utility.yul\":20830:20833   */\n      dup3\n        /* \"#utility.yul\":20797:20834   */\n      tag_157\n      jump\t// in\n    tag_416:\n        /* \"#utility.yul\":20899:20917   */\n      0xffffffffffffffff\n        /* \"#utility.yul\":20891:20897   */\n      dup2\n        /* \"#utility.yul\":20888:20918   */\n      gt\n        /* \"#utility.yul\":20885:20941   */\n      iszero\n      tag_417\n      jumpi\n        /* \"#utility.yul\":20921:20939   */\n      tag_418\n      tag_51\n      jump\t// in\n    tag_418:\n        /* \"#utility.yul\":20885:20941   */\n    tag_417:\n        /* \"#utility.yul\":20965:21003   */\n      tag_419\n        /* \"#utility.yul\":20997:21001   */\n      dup3\n        /* \"#utility.yul\":20991:21002   */\n      sload\n        /* \"#utility.yul\":20965:21003   */\n      tag_63\n      jump\t// in\n    tag_419:\n        /* \"#utility.yul\":21050:21117   */\n      tag_420\n        /* \"#utility.yul\":21110:21116   */\n      dup3\n        /* \"#utility.yul\":21102:21108   */\n      dup3\n        /* \"#utility.yul\":21096:21100   */\n      dup6\n        /* \"#utility.yul\":21050:21117   */\n      tag_199\n      jump\t// in\n    tag_420:\n        /* \"#utility.yul\":21144:21145   */\n      0x00\n        /* \"#utility.yul\":21168:21172   */\n      0x20\n        /* \"#utility.yul\":21155:21172   */\n      swap1\n      pop\n        /* \"#utility.yul\":21200:21202   */\n      0x1f\n        /* \"#utility.yul\":21192:21198   */\n      dup4\n        /* \"#utility.yul\":21189:21203   */\n      gt\n        /* \"#utility.yul\":21217:21218   */\n      0x01\n        /* \"#utility.yul\":21212:21830   */\n      dup2\n      eq\n      tag_422\n      jumpi\n        /* \"#utility.yul\":21874:21875   */\n      0x00\n        /* \"#utility.yul\":21891:21897   */\n      dup5\n        /* \"#utility.yul\":21888:21965   */\n      iszero\n      tag_423\n      jumpi\n        /* \"#utility.yul\":21940:21949   */\n      dup3\n        /* \"#utility.yul\":21935:21938   */\n      dup8\n        /* \"#utility.yul\":21931:21950   */\n      add\n        /* \"#utility.yul\":21925:21951   */\n      mload\n        /* \"#utility.yul\":21916:21951   */\n      swap1\n      pop\n        /* \"#utility.yul\":21888:21965   */\n    tag_423:\n        /* \"#utility.yul\":21991:22058   */\n      tag_424\n        /* \"#utility.yul\":22051:22057   */\n      dup6\n        /* \"#utility.yul\":22044:22049   */\n      dup3\n        /* \"#utility.yul\":21991:22058   */\n      tag_202\n      jump\t// in\n    tag_424:\n        /* \"#utility.yul\":21985:21989   */\n      dup7\n        /* \"#utility.yul\":21978:22059   */\n      sstore\n        /* \"#utility.yul\":21847:22069   */\n      pop\n        /* \"#utility.yul\":21182:22069   */\n      jump(tag_421)\n        /* \"#utility.yul\":21212:21830   */\n    tag_422:\n        /* \"#utility.yul\":21264:21268   */\n      0x1f\n        /* \"#utility.yul\":21260:21269   */\n      not\n        /* \"#utility.yul\":21252:21258   */\n      dup5\n        /* \"#utility.yul\":21248:21270   */\n      and\n        /* \"#utility.yul\":21298:21335   */\n      tag_425\n        /* \"#utility.yul\":21330:21334   */\n      dup7\n        /* \"#utility.yul\":21298:21335   */\n      tag_181\n      jump\t// in\n    tag_425:\n        /* \"#utility.yul\":21357:21358   */\n      0x00\n        /* \"#utility.yul\":21371:21579   */\n    tag_426:\n        /* \"#utility.yul\":21385:21392   */\n      dup3\n        /* \"#utility.yul\":21382:21383   */\n      dup2\n        /* \"#utility.yul\":21379:21393   */\n      lt\n        /* \"#utility.yul\":21371:21579   */\n      iszero\n      tag_428\n      jumpi\n        /* \"#utility.yul\":21464:21473   */\n      dup5\n        /* \"#utility.yul\":21459:21462   */\n      dup10\n        /* \"#utility.yul\":21455:21474   */\n      add\n        /* \"#utility.yul\":21449:21475   */\n      mload\n        /* \"#utility.yul\":21441:21447   */\n      dup3\n        /* \"#utility.yul\":21434:21476   */\n      sstore\n        /* \"#utility.yul\":21515:21516   */\n      0x01\n        /* \"#utility.yul\":21507:21513   */\n      dup3\n        /* \"#utility.yul\":21503:21517   */\n      add\n        /* \"#utility.yul\":21493:21517   */\n      swap2\n      pop\n        /* \"#utility.yul\":21562:21564   */\n      0x20\n        /* \"#utility.yul\":21551:21560   */\n      dup6\n        /* \"#utility.yul\":21547:21565   */\n      add\n        /* \"#utility.yul\":21534:21565   */\n      swap5\n      pop\n        /* \"#utility.yul\":21408:21412   */\n      0x20\n        /* \"#utility.yul\":21405:21406   */\n      dup2\n        /* \"#utility.yul\":21401:21413   */\n      add\n        /* \"#utility.yul\":21396:21413   */\n      swap1\n      pop\n        /* \"#utility.yul\":21371:21579   */\n      jump(tag_426)\n    tag_428:\n        /* \"#utility.yul\":21607:21613   */\n      dup7\n        /* \"#utility.yul\":21598:21605   */\n      dup4\n        /* \"#utility.yul\":21595:21614   */\n      lt\n        /* \"#utility.yul\":21592:21771   */\n      iszero\n      tag_429\n      jumpi\n        /* \"#utility.yul\":21665:21674   */\n      dup5\n        /* \"#utility.yul\":21660:21663   */\n      dup10\n        /* \"#utility.yul\":21656:21675   */\n      add\n        /* \"#utility.yul\":21650:21676   */\n      mload\n        /* \"#utility.yul\":21708:21756   */\n      tag_430\n        /* \"#utility.yul\":21750:21754   */\n      0x1f\n        /* \"#utility.yul\":21742:21748   */\n      dup10\n        /* \"#utility.yul\":21738:21755   */\n      and\n        /* \"#utility.yul\":21727:21736   */\n      dup3\n        /* \"#utility.yul\":21708:21756   */\n      tag_201\n      jump\t// in\n    tag_430:\n        /* \"#utility.yul\":21700:21706   */\n      dup4\n        /* \"#utility.yul\":21693:21757   */\n      sstore\n        /* \"#utility.yul\":21615:21771   */\n      pop\n        /* \"#utility.yul\":21592:21771   */\n    tag_429:\n        /* \"#utility.yul\":21817:21818   */\n      0x01\n        /* \"#utility.yul\":21813:21814   */\n      0x02\n        /* \"#utility.yul\":21805:21811   */\n      dup9\n        /* \"#utility.yul\":21801:21815   */\n      mul\n        /* \"#utility.yul\":21797:21819   */\n      add\n        /* \"#utility.yul\":21791:21795   */\n      dup9\n        /* \"#utility.yul\":21784:21820   */\n      sstore\n        /* \"#utility.yul\":21219:21830   */\n      pop\n      pop\n      pop\n        /* \"#utility.yul\":21182:22069   */\n    tag_421:\n      pop\n        /* \"#utility.yul\":20772:22075   */\n      pop\n      pop\n      pop\n        /* \"#utility.yul\":20680:22075   */\n      pop\n      pop\n      jump\t// out\n        /* \"#utility.yul\":22081:22836   */\n    tag_136:\n        /* \"#utility.yul\":22306:22310   */\n      0x00\n        /* \"#utility.yul\":22344:22347   */\n      0xa0\n        /* \"#utility.yul\":22333:22342   */\n      dup3\n        /* \"#utility.yul\":22329:22348   */\n      add\n        /* \"#utility.yul\":22321:22348   */\n      swap1\n      pop\n        /* \"#utility.yul\":22358:22429   */\n      tag_432\n        /* \"#utility.yul\":22426:22427   */\n      0x00\n        /* \"#utility.yul\":22415:22424   */\n      dup4\n        /* \"#utility.yul\":22411:22428   */\n      add\n        /* \"#utility.yul\":22402:22408   */\n      dup9\n        /* \"#utility.yul\":22358:22429   */\n      tag_170\n      jump\t// in\n    tag_432:\n        /* \"#utility.yul\":22476:22485   */\n      dup2\n        /* \"#utility.yul\":22470:22474   */\n      dup2\n        /* \"#utility.yul\":22466:22486   */\n      sub\n        /* \"#utility.yul\":22461:22463   */\n      0x20\n        /* \"#utility.yul\":22450:22459   */\n      dup4\n        /* \"#utility.yul\":22446:22464   */\n      add\n        /* \"#utility.yul\":22439:22487   */\n      mstore\n        /* \"#utility.yul\":22504:22582   */\n      tag_433\n        /* \"#utility.yul\":22577:22581   */\n      dup2\n        /* \"#utility.yul\":22568:22574   */\n      dup8\n        /* \"#utility.yul\":22504:22582   */\n      tag_176\n      jump\t// in\n    tag_433:\n        /* \"#utility.yul\":22496:22582   */\n      swap1\n      pop\n        /* \"#utility.yul\":22592:22664   */\n      tag_434\n        /* \"#utility.yul\":22660:22662   */\n      0x40\n        /* \"#utility.yul\":22649:22658   */\n      dup4\n        /* \"#utility.yul\":22645:22663   */\n      add\n        /* \"#utility.yul\":22636:22642   */\n      dup7\n        /* \"#utility.yul\":22592:22664   */\n      tag_177\n      jump\t// in\n    tag_434:\n        /* \"#utility.yul\":22674:22746   */\n      tag_435\n        /* \"#utility.yul\":22742:22744   */\n      0x60\n        /* \"#utility.yul\":22731:22740   */\n      dup4\n        /* \"#utility.yul\":22727:22745   */\n      add\n        /* \"#utility.yul\":22718:22724   */\n      dup6\n        /* \"#utility.yul\":22674:22746   */\n      tag_177\n      jump\t// in\n    tag_435:\n        /* \"#utility.yul\":22756:22829   */\n      tag_436\n        /* \"#utility.yul\":22824:22827   */\n      0x80\n        /* \"#utility.yul\":22813:22822   */\n      dup4\n        /* \"#utility.yul\":22809:22828   */\n      add\n        /* \"#utility.yul\":22800:22806   */\n      dup5\n        /* \"#utility.yul\":22756:22829   */\n      tag_170\n      jump\t// in\n    tag_436:\n        /* \"#utility.yul\":22081:22836   */\n      swap7\n      swap6\n      pop\n      pop\n      pop\n      pop\n      pop\n      pop\n      jump\t// out\n\n    auxdata: 0xa26469706673582212208d946dd94f8adf5d7ee9b6b9b9d81cbcca669ba39cc4b09aee522688ac446f0264736f6c634300081e0033\n}\n",
				"bytecode": {
					"linkReferences": {},
					"object": "608060405234801561000f575f5ffd5b50604051611aff380380611aff83398181016040528101906100319190610156565b825f5f6101000a81548173ffffffffffffffffffffffffffffffffffffffff021916908373ffffffffffffffffffffffffffffffffffffffff1602179055508160015f6101000a81548173ffffffffffffffffffffffffffffffffffffffff021916908373ffffffffffffffffffffffffffffffffffffffff1602179055508060025f6101000a81548173ffffffffffffffffffffffffffffffffffffffff021916908373ffffffffffffffffffffffffffffffffffffffff1602179055505050506101a6565b5f5ffd5b5f73ffffffffffffffffffffffffffffffffffffffff82169050919050565b5f610125826100fc565b9050919050565b6101358161011b565b811461013f575f5ffd5b50565b5f815190506101508161012c565b92915050565b5f5f5f6060848603121561016d5761016c6100f8565b5b5f61017a86828701610142565b935050602061018b86828701610142565b925050604061019c86828701610142565b9150509250925092565b61194c806101b35f395ff3fe608060405234801561000f575f5ffd5b5060043610610060575f3560e01c806320894977146100645780632abfab4d1461009457806338a59a07146100b25780639c9c2a0f146100d0578063bf8c032514610100578063f8626af81461011c575b5f5ffd5b61007e60048036038101906100799190610ee8565b61014f565b60405161008b9190611101565b60405180910390f35b61009c610464565b6040516100a99190611130565b60405180910390f35b6100ba61046a565b6040516100c79190611101565b60405180910390f35b6100ea60048036038101906100e59190611173565b610676565b6040516100f79190611101565b60405180910390f35b61011a600480360381019061011591906111c8565b61098d565b005b61013660048036038101906101319190611248565b610c5a565b60405161014694939291906112ca565b60405180910390f35b60605f5f90505f600190505b60045481116101eb5783604051602001610175919061134e565b6040516020818303038152906040528051906020012060035f8381526020019081526020015f205f016040516020016101ae9190611453565b60405160208183030381529060405280519060200120036101d85781806101d490611496565b9250505b80806101e390611496565b91505061015b565b505f8167ffffffffffffffff81111561020757610206610dc4565b5b60405190808252806020026020018201604052801561024057816020015b61022d610d4a565b8152602001906001900390816102255790505b5090505f5f90505f600190505b60045481116104585785604051602001610267919061134e565b6040516020818303038152906040528051906020012060035f8381526020019081526020015f205f016040516020016102a09190611453565b60405160208183030381529060405280519060200120036104475760035f8281526020019081526020015f206040518060800160405290815f820180546102e690611391565b80601f016020809104026020016040519081016040528092919081815260200182805461031290611391565b801561035d5780601f106103345761010080835404028352916020019161035d565b820191905f5260205f20905b81548152906001019060200180831161034057829003601f168201915b50505050508152602001600182015f9054906101000a900473ffffffffffffffffffffffffffffffffffffffff1673ffffffffffffffffffffffffffffffffffffffff1673ffffffffffffffffffffffffffffffffffffffff168152602001600282015f9054906101000a900473ffffffffffffffffffffffffffffffffffffffff1673ffffffffffffffffffffffffffffffffffffffff1673ffffffffffffffffffffffffffffffffffffffff16815260200160038201548152505083838151811061042d5761042c6114dd565b5b6020026020010181905250818061044390611496565b9250505b8061045190611496565b905061024d565b50819350505050919050565b60045481565b60605f60045467ffffffffffffffff81111561048957610488610dc4565b5b6040519080825280602002602001820160405280156104c257816020015b6104af610d4a565b8152602001906001900390816104a75790505b5090505f600190505b600454811161066e5760035f8281526020019081526020015f206040518060800160405290815f820180546104ff90611391565b80601f016020809104026020016040519081016040528092919081815260200182805461052b90611391565b80156105765780601f1061054d57610100808354040283529160200191610576565b820191905f5260205f20905b81548152906001019060200180831161055957829003601f168201915b50505050508152602001600182015f9054906101000a900473ffffffffffffffffffffffffffffffffffffffff1673ffffffffffffffffffffffffffffffffffffffff1673ffffffffffffffffffffffffffffffffffffffff168152602001600282015f9054906101000a900473ffffffffffffffffffffffffffffffffffffffff1673ffffffffffffffffffffffffffffffffffffffff1673ffffffffffffffffffffffffffffffffffffffff16815260200160038201548152505082600183610641919061150a565b81518110610652576106516114dd565b5b60200260200101819052508061066790611496565b90506104cb565b508091505090565b60605f5f90505f600190505b6004548111610713578373ffffffffffffffffffffffffffffffffffffffff1660035f8381526020019081526020015f206001015f9054906101000a900473ffffffffffffffffffffffffffffffffffffffff1673ffffffffffffffffffffffffffffffffffffffff16036107005781806106fc90611496565b9250505b808061070b90611496565b915050610682565b505f8167ffffffffffffffff81111561072f5761072e610dc4565b5b60405190808252806020026020018201604052801561076857816020015b610755610d4a565b81526020019060019003908161074d5790505b5090505f5f90505f600190505b6004548111610981578573ffffffffffffffffffffffffffffffffffffffff1660035f8381526020019081526020015f206001015f9054906101000a900473ffffffffffffffffffffffffffffffffffffffff1673ffffffffffffffffffffffffffffffffffffffff16036109705760035f8281526020019081526020015f206040518060800160405290815f8201805461080f90611391565b80601f016020809104026020016040519081016040528092919081815260200182805461083b90611391565b80156108865780601f1061085d57610100808354040283529160200191610886565b820191905f5260205f20905b81548152906001019060200180831161086957829003601f168201915b50505050508152602001600182015f9054906101000a900473ffffffffffffffffffffffffffffffffffffffff1673ffffffffffffffffffffffffffffffffffffffff1673ffffffffffffffffffffffffffffffffffffffff168152602001600282015f9054906101000a900473ffffffffffffffffffffffffffffffffffffffff1673ffffffffffffffffffffffffffffffffffffffff1673ffffffffffffffffffffffffffffffffffffffff168152602001600382015481525050838381518110610956576109556114dd565b5b6020026020010181905250818061096c90611496565b9250505b8061097a90611496565b9050610775565b50819350505050919050565b5f5f9054906101000a900473ffffffffffffffffffffffffffffffffffffffff1673ffffffffffffffffffffffffffffffffffffffff1663dd308cb884866040518363ffffffff1660e01b81526004016109e892919061153d565b602060405180830381865afa158015610a03573d5f5f3e3d5ffd5b505050506040513d601f19601f82011682018060405250810190610a2791906115a0565b610a66576040517f08c379a0000000000000000000000000000000000000000000000000000000008152600401610a5d90611615565b60405180910390fd5b60015f9054906101000a900473ffffffffffffffffffffffffffffffffffffffff1673ffffffffffffffffffffffffffffffffffffffff1663f25d75e785836040518363ffffffff1660e01b8152600401610ac2929190611633565b5f604051808303815f87803b158015610ad9575f5ffd5b505af1158015610aeb573d5f5f3e3d5ffd5b5050505060045f815480929190610b0190611496565b919050555060405180608001604052808581526020018473ffffffffffffffffffffffffffffffffffffffff1681526020018373ffffffffffffffffffffffffffffffffffffffff1681526020018281525060035f60045481526020019081526020015f205f820151815f019081610b7991906117ef565b506020820151816001015f6101000a81548173ffffffffffffffffffffffffffffffffffffffff021916908373ffffffffffffffffffffffffffffffffffffffff1602179055506040820151816002015f6101000a81548173ffffffffffffffffffffffffffffffffffffffff021916908373ffffffffffffffffffffffffffffffffffffffff160217905550606082015181600301559050507f879f7dd974eda17f1fccff5a63a47d118c632796970e5f357de16aa91c9eb79660045485858585604051610c4c9594939291906118be565b60405180910390a150505050565b6003602052805f5260405f205f91509050805f018054610c7990611391565b80601f0160208091040260200160405190810160405280929190818152602001828054610ca590611391565b8015610cf05780601f10610cc757610100808354040283529160200191610cf0565b820191905f5260205f20905b815481529060010190602001808311610cd357829003601f168201915b505050505090806001015f9054906101000a900473ffffffffffffffffffffffffffffffffffffffff1690806002015f9054906101000a900473ffffffffffffffffffffffffffffffffffffffff16908060030154905084565b6040518060800160405280606081526020015f73ffffffffffffffffffffffffffffffffffffffff1681526020015f73ffffffffffffffffffffffffffffffffffffffff1681526020015f81525090565b5f604051905090565b5f5ffd5b5f5ffd5b5f5ffd5b5f5ffd5b5f601f19601f8301169050919050565b7f4e487b71000000000000000000000000000000000000000000000000000000005f52604160045260245ffd5b610dfa82610db4565b810181811067ffffffffffffffff82111715610e1957610e18610dc4565b5b80604052505050565b5f610e2b610d9b565b9050610e378282610df1565b919050565b5f67ffffffffffffffff821115610e5657610e55610dc4565b5b610e5f82610db4565b9050602081019050919050565b828183375f83830152505050565b5f610e8c610e8784610e3c565b610e22565b905082815260208101848484011115610ea857610ea7610db0565b5b610eb3848285610e6c565b509392505050565b5f82601f830112610ecf57610ece610dac565b5b8135610edf848260208601610e7a565b91505092915050565b5f60208284031215610efd57610efc610da4565b5b5f82013567ffffffffffffffff811115610f1a57610f19610da8565b5b610f2684828501610ebb565b91505092915050565b5f81519050919050565b5f82825260208201905092915050565b5f819050602082019050919050565b5f81519050919050565b5f82825260208201905092915050565b8281835e5f83830152505050565b5f610f8a82610f58565b610f948185610f62565b9350610fa4818560208601610f72565b610fad81610db4565b840191505092915050565b5f73ffffffffffffffffffffffffffffffffffffffff82169050919050565b5f610fe182610fb8565b9050919050565b610ff181610fd7565b82525050565b5f819050919050565b61100981610ff7565b82525050565b5f608083015f8301518482035f8601526110298282610f80565b915050602083015161103e6020860182610fe8565b5060408301516110516040860182610fe8565b5060608301516110646060860182611000565b508091505092915050565b5f61107a838361100f565b905092915050565b5f602082019050919050565b5f61109882610f2f565b6110a28185610f39565b9350836020820285016110b485610f49565b805f5b858110156110ef57848403895281516110d0858261106f565b94506110db83611082565b925060208a019950506001810190506110b7565b50829750879550505050505092915050565b5f6020820190508181035f830152611119818461108e565b905092915050565b61112a81610ff7565b82525050565b5f6020820190506111435f830184611121565b92915050565b61115281610fd7565b811461115c575f5ffd5b50565b5f8135905061116d81611149565b92915050565b5f6020828403121561118857611187610da4565b5b5f6111958482850161115f565b91505092915050565b6111a781610ff7565b81146111b1575f5ffd5b50565b5f813590506111c28161119e565b92915050565b5f5f5f5f608085870312156111e0576111df610da4565b5b5f85013567ffffffffffffffff8111156111fd576111fc610da8565b5b61120987828801610ebb565b945050602061121a8782880161115f565b935050604061122b8782880161115f565b925050606061123c878288016111b4565b91505092959194509250565b5f6020828403121561125d5761125c610da4565b5b5f61126a848285016111b4565b91505092915050565b5f82825260208201905092915050565b5f61128d82610f58565b6112978185611273565b93506112a7818560208601610f72565b6112b081610db4565b840191505092915050565b6112c481610fd7565b82525050565b5f6080820190508181035f8301526112e28187611283565b90506112f160208301866112bb565b6112fe60408301856112bb565b61130b6060830184611121565b95945050505050565b5f81905092915050565b5f61132882610f58565b6113328185611314565b9350611342818560208601610f72565b80840191505092915050565b5f611359828461131e565b915081905092915050565b7f4e487b71000000000000000000000000000000000000000000000000000000005f52602260045260245ffd5b5f60028204905060018216806113a857607f821691505b6020821081036113bb576113ba611364565b5b50919050565b5f819050815f5260205f209050919050565b5f81546113df81611391565b6113e98186611314565b9450600182165f811461140357600181146114185761144a565b60ff198316865281151582028601935061144a565b611421856113c1565b5f5b8381101561144257815481890152600182019150602081019050611423565b838801955050505b50505092915050565b5f61145e82846113d3565b915081905092915050565b7f4e487b71000000000000000000000000000000000000000000000000000000005f52601160045260245ffd5b5f6114a082610ff7565b91507fffffffffffffffffffffffffffffffffffffffffffffffffffffffffffffffff82036114d2576114d1611469565b5b600182019050919050565b7f4e487b71000000000000000000000000000000000000000000000000000000005f52603260045260245ffd5b5f61151482610ff7565b915061151f83610ff7565b925082820390508181111561153757611536611469565b5b92915050565b5f6040820190506115505f8301856112bb565b81810360208301526115628184611283565b90509392505050565b5f8115159050919050565b61157f8161156b565b8114611589575f5ffd5b50565b5f8151905061159a81611576565b92915050565b5f602082840312156115b5576115b4610da4565b5b5f6115c28482850161158c565b91505092915050565b7f6e6f742076616c696400000000000000000000000000000000000000000000005f82015250565b5f6115ff600983611273565b915061160a826115cb565b602082019050919050565b5f6020820190508181035f83015261162c816115f3565b9050919050565b5f6040820190508181035f83015261164b8185611283565b905061165a6020830184611121565b9392505050565b5f6020601f8301049050919050565b5f82821b905092915050565b5f600883026116ab7fffffffffffffffffffffffffffffffffffffffffffffffffffffffffffffffff82611670565b6116b58683611670565b95508019841693508086168417925050509392505050565b5f819050919050565b5f6116f06116eb6116e684610ff7565b6116cd565b610ff7565b9050919050565b5f819050919050565b611709836116d6565b61171d611715826116f7565b84845461167c565b825550505050565b5f5f905090565b611734611725565b61173f818484611700565b505050565b5b81811015611762576117575f8261172c565b600181019050611745565b5050565b601f8211156117a757611778816113c1565b61178184611661565b81016020851015611790578190505b6117a461179c85611661565b830182611744565b50505b505050565b5f82821c905092915050565b5f6117c75f19846008026117ac565b1980831691505092915050565b5f6117df83836117b8565b9150826002028217905092915050565b6117f882610f58565b67ffffffffffffffff81111561181157611810610dc4565b5b61181b8254611391565b611826828285611766565b5f60209050601f831160018114611857575f8415611845578287015190505b61184f85826117d4565b8655506118b6565b601f198416611865866113c1565b5f5b8281101561188c57848901518255600182019150602085019450602081019050611867565b868310156118a957848901516118a5601f8916826117b8565b8355505b6001600288020188555050505b505050505050565b5f60a0820190506118d15f830188611121565b81810360208301526118e38187611283565b90506118f260408301866112bb565b6118ff60608301856112bb565b61190c6080830184611121565b969550505050505056fea26469706673582212208d946dd94f8adf5d7ee9b6b9b9d81cbcca669ba39cc4b09aee522688ac446f0264736f6c634300081e0033",
					"opcodes": "PUSH1 0x80 PUSH1 0x40 MSTORE CALLVALUE DUP1 ISZERO PUSH2 0xF JUMPI PUSH0 PUSH0 REVERT JUMPDEST POP PUSH1 0x40 MLOAD PUSH2 0x1AFF CODESIZE SUB DUP1 PUSH2 0x1AFF DUP4 CODECOPY DUP2 DUP2 ADD PUSH1 0x40 MSTORE DUP2 ADD SWAP1 PUSH2 0x31 SWAP2 SWAP1 PUSH2 0x156 JUMP JUMPDEST DUP3 PUSH0 PUSH0 PUSH2 0x100 EXP DUP2 SLOAD DUP2 PUSH20 0xFFFFFFFFFFFFFFFFFFFFFFFFFFFFFFFFFFFFFFFF MUL NOT AND SWAP1 DUP4 PUSH20 0xFFFFFFFFFFFFFFFFFFFFFFFFFFFFFFFFFFFFFFFF AND MUL OR SWAP1 SSTORE POP DUP2 PUSH1 0x1 PUSH0 PUSH2 0x100 EXP DUP2 SLOAD DUP2 PUSH20 0xFFFFFFFFFFFFFFFFFFFFFFFFFFFFFFFFFFFFFFFF MUL NOT AND SWAP1 DUP4 PUSH20 0xFFFFFFFFFFFFFFFFFFFFFFFFFFFFFFFFFFFFFFFF AND MUL OR SWAP1 SSTORE POP DUP1 PUSH1 0x2 PUSH0 PUSH2 0x100 EXP DUP2 SLOAD DUP2 PUSH20 0xFFFFFFFFFFFFFFFFFFFFFFFFFFFFFFFFFFFFFFFF MUL NOT AND SWAP1 DUP4 PUSH20 0xFFFFFFFFFFFFFFFFFFFFFFFFFFFFFFFFFFFFFFFF AND MUL OR SWAP1 SSTORE POP POP POP POP PUSH2 0x1A6 JUMP JUMPDEST PUSH0 PUSH0 REVERT JUMPDEST PUSH0 PUSH20 0xFFFFFFFFFFFFFFFFFFFFFFFFFFFFFFFFFFFFFFFF DUP3 AND SWAP1 POP SWAP2 SWAP1 POP JUMP JUMPDEST PUSH0 PUSH2 0x125 DUP3 PUSH2 0xFC JUMP JUMPDEST SWAP1 POP SWAP2 SWAP1 POP JUMP JUMPDEST PUSH2 0x135 DUP2 PUSH2 0x11B JUMP JUMPDEST DUP2 EQ PUSH2 0x13F JUMPI PUSH0 PUSH0 REVERT JUMPDEST POP JUMP JUMPDEST PUSH0 DUP2 MLOAD SWAP1 POP PUSH2 0x150 DUP2 PUSH2 0x12C JUMP JUMPDEST SWAP3 SWAP2 POP POP JUMP JUMPDEST PUSH0 PUSH0 PUSH0 PUSH1 0x60 DUP5 DUP7 SUB SLT ISZERO PUSH2 0x16D JUMPI PUSH2 0x16C PUSH2 0xF8 JUMP JUMPDEST JUMPDEST PUSH0 PUSH2 0x17A DUP7 DUP3 DUP8 ADD PUSH2 0x142 JUMP JUMPDEST SWAP4 POP POP PUSH1 0x20 PUSH2 0x18B DUP7 DUP3 DUP8 ADD PUSH2 0x142 JUMP JUMPDEST SWAP3 POP POP PUSH1 0x40 PUSH2 0x19C DUP7 DUP3 DUP8 ADD PUSH2 0x142 JUMP JUMPDEST SWAP2 POP POP SWAP3 POP SWAP3 POP SWAP3 JUMP JUMPDEST PUSH2 0x194C DUP1 PUSH2 0x1B3 PUSH0 CODECOPY PUSH0 RETURN INVALID PUSH1 0x80 PUSH1 0x40 MSTORE CALLVALUE DUP1 ISZERO PUSH2 0xF JUMPI PUSH0 PUSH0 REVERT JUMPDEST POP PUSH1 0x4 CALLDATASIZE LT PUSH2 0x60 JUMPI PUSH0 CALLDATALOAD PUSH1 0xE0 SHR DUP1 PUSH4 0x20894977 EQ PUSH2 0x64 JUMPI DUP1 PUSH4 0x2ABFAB4D EQ PUSH2 0x94 JUMPI DUP1 PUSH4 0x38A59A07 EQ PUSH2 0xB2 JUMPI DUP1 PUSH4 0x9C9C2A0F EQ PUSH2 0xD0 JUMPI DUP1 PUSH4 0xBF8C0325 EQ PUSH2 0x100 JUMPI DUP1 PUSH4 0xF8626AF8 EQ PUSH2 0x11C JUMPI JUMPDEST PUSH0 PUSH0 REVERT JUMPDEST PUSH2 0x7E PUSH1 0x4 DUP1 CALLDATASIZE SUB DUP2 ADD SWAP1 PUSH2 0x79 SWAP2 SWAP1 PUSH2 0xEE8 JUMP JUMPDEST PUSH2 0x14F JUMP JUMPDEST PUSH1 0x40 MLOAD PUSH2 0x8B SWAP2 SWAP1 PUSH2 0x1101 JUMP JUMPDEST PUSH1 0x40 MLOAD DUP1 SWAP2 SUB SWAP1 RETURN JUMPDEST PUSH2 0x9C PUSH2 0x464 JUMP JUMPDEST PUSH1 0x40 MLOAD PUSH2 0xA9 SWAP2 SWAP1 PUSH2 0x1130 JUMP JUMPDEST PUSH1 0x40 MLOAD DUP1 SWAP2 SUB SWAP1 RETURN JUMPDEST PUSH2 0xBA PUSH2 0x46A JUMP JUMPDEST PUSH1 0x40 MLOAD PUSH2 0xC7 SWAP2 SWAP1 PUSH2 0x1101 JUMP JUMPDEST PUSH1 0x40 MLOAD DUP1 SWAP2 SUB SWAP1 RETURN JUMPDEST PUSH2 0xEA PUSH1 0x4 DUP1 CALLDATASIZE SUB DUP2 ADD SWAP1 PUSH2 0xE5 SWAP2 SWAP1 PUSH2 0x1173 JUMP JUMPDEST PUSH2 0x676 JUMP JUMPDEST PUSH1 0x40 MLOAD PUSH2 0xF7 SWAP2 SWAP1 PUSH2 0x1101 JUMP JUMPDEST PUSH1 0x40 MLOAD DUP1 SWAP2 SUB SWAP1 RETURN JUMPDEST PUSH2 0x11A PUSH1 0x4 DUP1 CALLDATASIZE SUB DUP2 ADD SWAP1 PUSH2 0x115 SWAP2 SWAP1 PUSH2 0x11C8 JUMP JUMPDEST PUSH2 0x98D JUMP JUMPDEST STOP JUMPDEST PUSH2 0x136 PUSH1 0x4 DUP1 CALLDATASIZE SUB DUP2 ADD SWAP1 PUSH2 0x131 SWAP2 SWAP1 PUSH2 0x1248 JUMP JUMPDEST PUSH2 0xC5A JUMP JUMPDEST PUSH1 0x40 MLOAD PUSH2 0x146 SWAP5 SWAP4 SWAP3 SWAP2 SWAP1 PUSH2 0x12CA JUMP JUMPDEST PUSH1 0x40 MLOAD DUP1 SWAP2 SUB SWAP1 RETURN JUMPDEST PUSH1 0x60 PUSH0 PUSH0 SWAP1 POP PUSH0 PUSH1 0x1 SWAP1 POP JUMPDEST PUSH1 0x4 SLOAD DUP2 GT PUSH2 0x1EB JUMPI DUP4 PUSH1 0x40 MLOAD PUSH1 0x20 ADD PUSH2 0x175 SWAP2 SWAP1 PUSH2 0x134E JUMP JUMPDEST PUSH1 0x40 MLOAD PUSH1 0x20 DUP2 DUP4 SUB SUB DUP2 MSTORE SWAP1 PUSH1 0x40 MSTORE DUP1 MLOAD SWAP1 PUSH1 0x20 ADD KECCAK256 PUSH1 0x3 PUSH0 DUP4 DUP2 MSTORE PUSH1 0x20 ADD SWAP1 DUP2 MSTORE PUSH1 0x20 ADD PUSH0 KECCAK256 PUSH0 ADD PUSH1 0x40 MLOAD PUSH1 0x20 ADD PUSH2 0x1AE SWAP2 SWAP1 PUSH2 0x1453 JUMP JUMPDEST PUSH1 0x40 MLOAD PUSH1 0x20 DUP2 DUP4 SUB SUB DUP2 MSTORE SWAP1 PUSH1 0x40 MSTORE DUP1 MLOAD SWAP1 PUSH1 0x20 ADD KECCAK256 SUB PUSH2 0x1D8 JUMPI DUP2 DUP1 PUSH2 0x1D4 SWAP1 PUSH2 0x1496 JUMP JUMPDEST SWAP3 POP POP JUMPDEST DUP1 DUP1 PUSH2 0x1E3 SWAP1 PUSH2 0x1496 JUMP JUMPDEST SWAP2 POP POP PUSH2 0x15B JUMP JUMPDEST POP PUSH0 DUP2 PUSH8 0xFFFFFFFFFFFFFFFF DUP2 GT ISZERO PUSH2 0x207 JUMPI PUSH2 0x206 PUSH2 0xDC4 JUMP JUMPDEST JUMPDEST PUSH1 0x40 MLOAD SWAP1 DUP1 DUP3 MSTORE DUP1 PUSH1 0x20 MUL PUSH1 0x20 ADD DUP3 ADD PUSH1 0x40 MSTORE DUP1 ISZERO PUSH2 0x240 JUMPI DUP2 PUSH1 0x20 ADD JUMPDEST PUSH2 0x22D PUSH2 0xD4A JUMP JUMPDEST DUP2 MSTORE PUSH1 0x20 ADD SWAP1 PUSH1 0x1 SWAP1 SUB SWAP1 DUP2 PUSH2 0x225 JUMPI SWAP1 POP JUMPDEST POP SWAP1 POP PUSH0 PUSH0 SWAP1 POP PUSH0 PUSH1 0x1 SWAP1 POP JUMPDEST PUSH1 0x4 SLOAD DUP2 GT PUSH2 0x458 JUMPI DUP6 PUSH1 0x40 MLOAD PUSH1 0x20 ADD PUSH2 0x267 SWAP2 SWAP1 PUSH2 0x134E JUMP JUMPDEST PUSH1 0x40 MLOAD PUSH1 0x20 DUP2 DUP4 SUB SUB DUP2 MSTORE SWAP1 PUSH1 0x40 MSTORE DUP1 MLOAD SWAP1 PUSH1 0x20 ADD KECCAK256 PUSH1 0x3 PUSH0 DUP4 DUP2 MSTORE PUSH1 0x20 ADD SWAP1 DUP2 MSTORE PUSH1 0x20 ADD PUSH0 KECCAK256 PUSH0 ADD PUSH1 0x40 MLOAD PUSH1 0x20 ADD PUSH2 0x2A0 SWAP2 SWAP1 PUSH2 0x1453 JUMP JUMPDEST PUSH1 0x40 MLOAD PUSH1 0x20 DUP2 DUP4 SUB SUB DUP2 MSTORE SWAP1 PUSH1 0x40 MSTORE DUP1 MLOAD SWAP1 PUSH1 0x20 ADD KECCAK256 SUB PUSH2 0x447 JUMPI PUSH1 0x3 PUSH0 DUP3 DUP2 MSTORE PUSH1 0x20 ADD SWAP1 DUP2 MSTORE PUSH1 0x20 ADD PUSH0 KECCAK256 PUSH1 0x40 MLOAD DUP1 PUSH1 0x80 ADD PUSH1 0x40 MSTORE SWAP1 DUP2 PUSH0 DUP3 ADD DUP1 SLOAD PUSH2 0x2E6 SWAP1 PUSH2 0x1391 JUMP JUMPDEST DUP1 PUSH1 0x1F ADD PUSH1 0x20 DUP1 SWAP2 DIV MUL PUSH1 0x20 ADD PUSH1 0x40 MLOAD SWAP1 DUP2 ADD PUSH1 0x40 MSTORE DUP1 SWAP3 SWAP2 SWAP1 DUP2 DUP2 MSTORE PUSH1 0x20 ADD DUP3 DUP1 SLOAD PUSH2 0x312 SWAP1 PUSH2 0x1391 JUMP JUMPDEST DUP1 ISZERO PUSH2 0x35D JUMPI DUP1 PUSH1 0x1F LT PUSH2 0x334 JUMPI PUSH2 0x100 DUP1 DUP4 SLOAD DIV MUL DUP4 MSTORE SWAP2 PUSH1 0x20 ADD SWAP2 PUSH2 0x35D JUMP JUMPDEST DUP3 ADD SWAP2 SWAP1 PUSH0 MSTORE PUSH1 0x20 PUSH0 KECCAK256 SWAP1 JUMPDEST DUP2 SLOAD DUP2 MSTORE SWAP1 PUSH1 0x1 ADD SWAP1 PUSH1 0x20 ADD DUP1 DUP4 GT PUSH2 0x340 JUMPI DUP3 SWAP1 SUB PUSH1 0x1F AND DUP3 ADD SWAP2 JUMPDEST POP POP POP POP POP DUP2 MSTORE PUSH1 0x20 ADD PUSH1 0x1 DUP3 ADD PUSH0 SWAP1 SLOAD SWAP1 PUSH2 0x100 EXP SWAP1 DIV PUSH20 0xFFFFFFFFFFFFFFFFFFFFFFFFFFFFFFFFFFFFFFFF AND PUSH20 0xFFFFFFFFFFFFFFFFFFFFFFFFFFFFFFFFFFFFFFFF AND PUSH20 0xFFFFFFFFFFFFFFFFFFFFFFFFFFFFFFFFFFFFFFFF AND DUP2 MSTORE PUSH1 0x20 ADD PUSH1 0x2 DUP3 ADD PUSH0 SWAP1 SLOAD SWAP1 PUSH2 0x100 EXP SWAP1 DIV PUSH20 0xFFFFFFFFFFFFFFFFFFFFFFFFFFFFFFFFFFFFFFFF AND PUSH20 0xFFFFFFFFFFFFFFFFFFFFFFFFFFFFFFFFFFFFFFFF AND PUSH20 0xFFFFFFFFFFFFFFFFFFFFFFFFFFFFFFFFFFFFFFFF AND DUP2 MSTORE PUSH1 0x20 ADD PUSH1 0x3 DUP3 ADD SLOAD DUP2 MSTORE POP POP DUP4 DUP4 DUP2 MLOAD DUP2 LT PUSH2 0x42D JUMPI PUSH2 0x42C PUSH2 0x14DD JUMP JUMPDEST JUMPDEST PUSH1 0x20 MUL PUSH1 0x20 ADD ADD DUP2 SWAP1 MSTORE POP DUP2 DUP1 PUSH2 0x443 SWAP1 PUSH2 0x1496 JUMP JUMPDEST SWAP3 POP POP JUMPDEST DUP1 PUSH2 0x451 SWAP1 PUSH2 0x1496 JUMP JUMPDEST SWAP1 POP PUSH2 0x24D JUMP JUMPDEST POP DUP2 SWAP4 POP POP POP POP SWAP2 SWAP1 POP JUMP JUMPDEST PUSH1 0x4 SLOAD DUP2 JUMP JUMPDEST PUSH1 0x60 PUSH0 PUSH1 0x4 SLOAD PUSH8 0xFFFFFFFFFFFFFFFF DUP2 GT ISZERO PUSH2 0x489 JUMPI PUSH2 0x488 PUSH2 0xDC4 JUMP JUMPDEST JUMPDEST PUSH1 0x40 MLOAD SWAP1 DUP1 DUP3 MSTORE DUP1 PUSH1 0x20 MUL PUSH1 0x20 ADD DUP3 ADD PUSH1 0x40 MSTORE DUP1 ISZERO PUSH2 0x4C2 JUMPI DUP2 PUSH1 0x20 ADD JUMPDEST PUSH2 0x4AF PUSH2 0xD4A JUMP JUMPDEST DUP2 MSTORE PUSH1 0x20 ADD SWAP1 PUSH1 0x1 SWAP1 SUB SWAP1 DUP2 PUSH2 0x4A7 JUMPI SWAP1 POP JUMPDEST POP SWAP1 POP PUSH0 PUSH1 0x1 SWAP1 POP JUMPDEST PUSH1 0x4 SLOAD DUP2 GT PUSH2 0x66E JUMPI PUSH1 0x3 PUSH0 DUP3 DUP2 MSTORE PUSH1 0x20 ADD SWAP1 DUP2 MSTORE PUSH1 0x20 ADD PUSH0 KECCAK256 PUSH1 0x40 MLOAD DUP1 PUSH1 0x80 ADD PUSH1 0x40 MSTORE SWAP1 DUP2 PUSH0 DUP3 ADD DUP1 SLOAD PUSH2 0x4FF SWAP1 PUSH2 0x1391 JUMP JUMPDEST DUP1 PUSH1 0x1F ADD PUSH1 0x20 DUP1 SWAP2 DIV MUL PUSH1 0x20 ADD PUSH1 0x40 MLOAD SWAP1 DUP2 ADD PUSH1 0x40 MSTORE DUP1 SWAP3 SWAP2 SWAP1 DUP2 DUP2 MSTORE PUSH1 0x20 ADD DUP3 DUP1 SLOAD PUSH2 0x52B SWAP1 PUSH2 0x1391 JUMP JUMPDEST DUP1 ISZERO PUSH2 0x576 JUMPI DUP1 PUSH1 0x1F LT PUSH2 0x54D JUMPI PUSH2 0x100 DUP1 DUP4 SLOAD DIV MUL DUP4 MSTORE SWAP2 PUSH1 0x20 ADD SWAP2 PUSH2 0x576 JUMP JUMPDEST DUP3 ADD SWAP2 SWAP1 PUSH0 MSTORE PUSH1 0x20 PUSH0 KECCAK256 SWAP1 JUMPDEST DUP2 SLOAD DUP2 MSTORE SWAP1 PUSH1 0x1 ADD SWAP1 PUSH1 0x20 ADD DUP1 DUP4 GT PUSH2 0x559 JUMPI DUP3 SWAP1 SUB PUSH1 0x1F AND DUP3 ADD SWAP2 JUMPDEST POP POP POP POP POP DUP2 MSTORE PUSH1 0x20 ADD PUSH1 0x1 DUP3 ADD PUSH0 SWAP1 SLOAD SWAP1 PUSH2 0x100 EXP SWAP1 DIV PUSH20 0xFFFFFFFFFFFFFFFFFFFFFFFFFFFFFFFFFFFFFFFF AND PUSH20 0xFFFFFFFFFFFFFFFFFFFFFFFFFFFFFFFFFFFFFFFF AND PUSH20 0xFFFFFFFFFFFFFFFFFFFFFFFFFFFFFFFFFFFFFFFF AND DUP2 MSTORE PUSH1 0x20 ADD PUSH1 0x2 DUP3 ADD PUSH0 SWAP1 SLOAD SWAP1 PUSH2 0x100 EXP SWAP1 DIV PUSH20 0xFFFFFFFFFFFFFFFFFFFFFFFFFFFFFFFFFFFFFFFF AND PUSH20 0xFFFFFFFFFFFFFFFFFFFFFFFFFFFFFFFFFFFFFFFF AND PUSH20 0xFFFFFFFFFFFFFFFFFFFFFFFFFFFFFFFFFFFFFFFF AND DUP2 MSTORE PUSH1 0x20 ADD PUSH1 0x3 DUP3 ADD SLOAD DUP2 MSTORE POP POP DUP3 PUSH1 0x1 DUP4 PUSH2 0x641 SWAP2 SWAP1 PUSH2 0x150A JUMP JUMPDEST DUP2 MLOAD DUP2 LT PUSH2 0x652 JUMPI PUSH2 0x651 PUSH2 0x14DD JUMP JUMPDEST JUMPDEST PUSH1 0x20 MUL PUSH1 0x20 ADD ADD DUP2 SWAP1 MSTORE POP DUP1 PUSH2 0x667 SWAP1 PUSH2 0x1496 JUMP JUMPDEST SWAP1 POP PUSH2 0x4CB JUMP JUMPDEST POP DUP1 SWAP2 POP POP SWAP1 JUMP JUMPDEST PUSH1 0x60 PUSH0 PUSH0 SWAP1 POP PUSH0 PUSH1 0x1 SWAP1 POP JUMPDEST PUSH1 0x4 SLOAD DUP2 GT PUSH2 0x713 JUMPI DUP4 PUSH20 0xFFFFFFFFFFFFFFFFFFFFFFFFFFFFFFFFFFFFFFFF AND PUSH1 0x3 PUSH0 DUP4 DUP2 MSTORE PUSH1 0x20 ADD SWAP1 DUP2 MSTORE PUSH1 0x20 ADD PUSH0 KECCAK256 PUSH1 0x1 ADD PUSH0 SWAP1 SLOAD SWAP1 PUSH2 0x100 EXP SWAP1 DIV PUSH20 0xFFFFFFFFFFFFFFFFFFFFFFFFFFFFFFFFFFFFFFFF AND PUSH20 0xFFFFFFFFFFFFFFFFFFFFFFFFFFFFFFFFFFFFFFFF AND SUB PUSH2 0x700 JUMPI DUP2 DUP1 PUSH2 0x6FC SWAP1 PUSH2 0x1496 JUMP JUMPDEST SWAP3 POP POP JUMPDEST DUP1 DUP1 PUSH2 0x70B SWAP1 PUSH2 0x1496 JUMP JUMPDEST SWAP2 POP POP PUSH2 0x682 JUMP JUMPDEST POP PUSH0 DUP2 PUSH8 0xFFFFFFFFFFFFFFFF DUP2 GT ISZERO PUSH2 0x72F JUMPI PUSH2 0x72E PUSH2 0xDC4 JUMP JUMPDEST JUMPDEST PUSH1 0x40 MLOAD SWAP1 DUP1 DUP3 MSTORE DUP1 PUSH1 0x20 MUL PUSH1 0x20 ADD DUP3 ADD PUSH1 0x40 MSTORE DUP1 ISZERO PUSH2 0x768 JUMPI DUP2 PUSH1 0x20 ADD JUMPDEST PUSH2 0x755 PUSH2 0xD4A JUMP JUMPDEST DUP2 MSTORE PUSH1 0x20 ADD SWAP1 PUSH1 0x1 SWAP1 SUB SWAP1 DUP2 PUSH2 0x74D JUMPI SWAP1 POP JUMPDEST POP SWAP1 POP PUSH0 PUSH0 SWAP1 POP PUSH0 PUSH1 0x1 SWAP1 POP JUMPDEST PUSH1 0x4 SLOAD DUP2 GT PUSH2 0x981 JUMPI DUP6 PUSH20 0xFFFFFFFFFFFFFFFFFFFFFFFFFFFFFFFFFFFFFFFF AND PUSH1 0x3 PUSH0 DUP4 DUP2 MSTORE PUSH1 0x20 ADD SWAP1 DUP2 MSTORE PUSH1 0x20 ADD PUSH0 KECCAK256 PUSH1 0x1 ADD PUSH0 SWAP1 SLOAD SWAP1 PUSH2 0x100 EXP SWAP1 DIV PUSH20 0xFFFFFFFFFFFFFFFFFFFFFFFFFFFFFFFFFFFFFFFF AND PUSH20 0xFFFFFFFFFFFFFFFFFFFFFFFFFFFFFFFFFFFFFFFF AND SUB PUSH2 0x970 JUMPI PUSH1 0x3 PUSH0 DUP3 DUP2 MSTORE PUSH1 0x20 ADD SWAP1 DUP2 MSTORE PUSH1 0x20 ADD PUSH0 KECCAK256 PUSH1 0x40 MLOAD DUP1 PUSH1 0x80 ADD PUSH1 0x40 MSTORE SWAP1 DUP2 PUSH0 DUP3 ADD DUP1 SLOAD PUSH2 0x80F SWAP1 PUSH2 0x1391 JUMP JUMPDEST DUP1 PUSH1 0x1F ADD PUSH1 0x20 DUP1 SWAP2 DIV MUL PUSH1 0x20 ADD PUSH1 0x40 MLOAD SWAP1 DUP2 ADD PUSH1 0x40 MSTORE DUP1 SWAP3 SWAP2 SWAP1 DUP2 DUP2 MSTORE PUSH1 0x20 ADD DUP3 DUP1 SLOAD PUSH2 0x83B SWAP1 PUSH2 0x1391 JUMP JUMPDEST DUP1 ISZERO PUSH2 0x886 JUMPI DUP1 PUSH1 0x1F LT PUSH2 0x85D JUMPI PUSH2 0x100 DUP1 DUP4 SLOAD DIV MUL DUP4 MSTORE SWAP2 PUSH1 0x20 ADD SWAP2 PUSH2 0x886 JUMP JUMPDEST DUP3 ADD SWAP2 SWAP1 PUSH0 MSTORE PUSH1 0x20 PUSH0 KECCAK256 SWAP1 JUMPDEST DUP2 SLOAD DUP2 MSTORE SWAP1 PUSH1 0x1 ADD SWAP1 PUSH1 0x20 ADD DUP1 DUP4 GT PUSH2 0x869 JUMPI DUP3 SWAP1 SUB PUSH1 0x1F AND DUP3 ADD SWAP2 JUMPDEST POP POP POP POP POP DUP2 MSTORE PUSH1 0x20 ADD PUSH1 0x1 DUP3 ADD PUSH0 SWAP1 SLOAD SWAP1 PUSH2 0x100 EXP SWAP1 DIV PUSH20 0xFFFFFFFFFFFFFFFFFFFFFFFFFFFFFFFFFFFFFFFF AND PUSH20 0xFFFFFFFFFFFFFFFFFFFFFFFFFFFFFFFFFFFFFFFF AND PUSH20 0xFFFFFFFFFFFFFFFFFFFFFFFFFFFFFFFFFFFFFFFF AND DUP2 MSTORE PUSH1 0x20 ADD PUSH1 0x2 DUP3 ADD PUSH0 SWAP1 SLOAD SWAP1 PUSH2 0x100 EXP SWAP1 DIV PUSH20 0xFFFFFFFFFFFFFFFFFFFFFFFFFFFFFFFFFFFFFFFF AND PUSH20 0xFFFFFFFFFFFFFFFFFFFFFFFFFFFFFFFFFFFFFFFF AND PUSH20 0xFFFFFFFFFFFFFFFFFFFFFFFFFFFFFFFFFFFFFFFF AND DUP2 MSTORE PUSH1 0x20 ADD PUSH1 0x3 DUP3 ADD SLOAD DUP2 MSTORE POP POP DUP4 DUP4 DUP2 MLOAD DUP2 LT PUSH2 0x956 JUMPI PUSH2 0x955 PUSH2 0x14DD JUMP JUMPDEST JUMPDEST PUSH1 0x20 MUL PUSH1 0x20 ADD ADD DUP2 SWAP1 MSTORE POP DUP2 DUP1 PUSH2 0x96C SWAP1 PUSH2 0x1496 JUMP JUMPDEST SWAP3 POP POP JUMPDEST DUP1 PUSH2 0x97A SWAP1 PUSH2 0x1496 JUMP JUMPDEST SWAP1 POP PUSH2 0x775 JUMP JUMPDEST POP DUP2 SWAP4 POP POP POP POP SWAP2 SWAP1 POP JUMP JUMPDEST PUSH0 PUSH0 SWAP1 SLOAD SWAP1 PUSH2 0x100 EXP SWAP1 DIV PUSH20 0xFFFFFFFFFFFFFFFFFFFFFFFFFFFFFFFFFFFFFFFF AND PUSH20 0xFFFFFFFFFFFFFFFFFFFFFFFFFFFFFFFFFFFFFFFF AND PUSH4 0xDD308CB8 DUP5 DUP7 PUSH1 0x40 MLOAD DUP4 PUSH4 0xFFFFFFFF AND PUSH1 0xE0 SHL DUP2 MSTORE PUSH1 0x4 ADD PUSH2 0x9E8 SWAP3 SWAP2 SWAP1 PUSH2 0x153D JUMP JUMPDEST PUSH1 0x20 PUSH1 0x40 MLOAD DUP1 DUP4 SUB DUP2 DUP7 GAS STATICCALL ISZERO DUP1 ISZERO PUSH2 0xA03 JUMPI RETURNDATASIZE PUSH0 PUSH0 RETURNDATACOPY RETURNDATASIZE PUSH0 REVERT JUMPDEST POP POP POP POP PUSH1 0x40 MLOAD RETURNDATASIZE PUSH1 0x1F NOT PUSH1 0x1F DUP3 ADD AND DUP3 ADD DUP1 PUSH1 0x40 MSTORE POP DUP2 ADD SWAP1 PUSH2 0xA27 SWAP2 SWAP1 PUSH2 0x15A0 JUMP JUMPDEST PUSH2 0xA66 JUMPI PUSH1 0x40 MLOAD PUSH32 0x8C379A000000000000000000000000000000000000000000000000000000000 DUP2 MSTORE PUSH1 0x4 ADD PUSH2 0xA5D SWAP1 PUSH2 0x1615 JUMP JUMPDEST PUSH1 0x40 MLOAD DUP1 SWAP2 SUB SWAP1 REVERT JUMPDEST PUSH1 0x1 PUSH0 SWAP1 SLOAD SWAP1 PUSH2 0x100 EXP SWAP1 DIV PUSH20 0xFFFFFFFFFFFFFFFFFFFFFFFFFFFFFFFFFFFFFFFF AND PUSH20 0xFFFFFFFFFFFFFFFFFFFFFFFFFFFFFFFFFFFFFFFF AND PUSH4 0xF25D75E7 DUP6 DUP4 PUSH1 0x40 MLOAD DUP4 PUSH4 0xFFFFFFFF AND PUSH1 0xE0 SHL DUP2 MSTORE PUSH1 0x4 ADD PUSH2 0xAC2 SWAP3 SWAP2 SWAP1 PUSH2 0x1633 JUMP JUMPDEST PUSH0 PUSH1 0x40 MLOAD DUP1 DUP4 SUB DUP2 PUSH0 DUP8 DUP1 EXTCODESIZE ISZERO DUP1 ISZERO PUSH2 0xAD9 JUMPI PUSH0 PUSH0 REVERT JUMPDEST POP GAS CALL ISZERO DUP1 ISZERO PUSH2 0xAEB JUMPI RETURNDATASIZE PUSH0 PUSH0 RETURNDATACOPY RETURNDATASIZE PUSH0 REVERT JUMPDEST POP POP POP POP PUSH1 0x4 PUSH0 DUP2 SLOAD DUP1 SWAP3 SWAP2 SWAP1 PUSH2 0xB01 SWAP1 PUSH2 0x1496 JUMP JUMPDEST SWAP2 SWAP1 POP SSTORE POP PUSH1 0x40 MLOAD DUP1 PUSH1 0x80 ADD PUSH1 0x40 MSTORE DUP1 DUP6 DUP2 MSTORE PUSH1 0x20 ADD DUP5 PUSH20 0xFFFFFFFFFFFFFFFFFFFFFFFFFFFFFFFFFFFFFFFF AND DUP2 MSTORE PUSH1 0x20 ADD DUP4 PUSH20 0xFFFFFFFFFFFFFFFFFFFFFFFFFFFFFFFFFFFFFFFF AND DUP2 MSTORE PUSH1 0x20 ADD DUP3 DUP2 MSTORE POP PUSH1 0x3 PUSH0 PUSH1 0x4 SLOAD DUP2 MSTORE PUSH1 0x20 ADD SWAP1 DUP2 MSTORE PUSH1 0x20 ADD PUSH0 KECCAK256 PUSH0 DUP3 ADD MLOAD DUP2 PUSH0 ADD SWAP1 DUP2 PUSH2 0xB79 SWAP2 SWAP1 PUSH2 0x17EF JUMP JUMPDEST POP PUSH1 0x20 DUP3 ADD MLOAD DUP2 PUSH1 0x1 ADD PUSH0 PUSH2 0x100 EXP DUP2 SLOAD DUP2 PUSH20 0xFFFFFFFFFFFFFFFFFFFFFFFFFFFFFFFFFFFFFFFF MUL NOT AND SWAP1 DUP4 PUSH20 0xFFFFFFFFFFFFFFFFFFFFFFFFFFFFFFFFFFFFFFFF AND MUL OR SWAP1 SSTORE POP PUSH1 0x40 DUP3 ADD MLOAD DUP2 PUSH1 0x2 ADD PUSH0 PUSH2 0x100 EXP DUP2 SLOAD DUP2 PUSH20 0xFFFFFFFFFFFFFFFFFFFFFFFFFFFFFFFFFFFFFFFF MUL NOT AND SWAP1 DUP4 PUSH20 0xFFFFFFFFFFFFFFFFFFFFFFFFFFFFFFFFFFFFFFFF AND MUL OR SWAP1 SSTORE POP PUSH1 0x60 DUP3 ADD MLOAD DUP2 PUSH1 0x3 ADD SSTORE SWAP1 POP POP PUSH32 0x879F7DD974EDA17F1FCCFF5A63A47D118C632796970E5F357DE16AA91C9EB796 PUSH1 0x4 SLOAD DUP6 DUP6 DUP6 DUP6 PUSH1 0x40 MLOAD PUSH2 0xC4C SWAP6 SWAP5 SWAP4 SWAP3 SWAP2 SWAP1 PUSH2 0x18BE JUMP JUMPDEST PUSH1 0x40 MLOAD DUP1 SWAP2 SUB SWAP1 LOG1 POP POP POP POP JUMP JUMPDEST PUSH1 0x3 PUSH1 0x20 MSTORE DUP1 PUSH0 MSTORE PUSH1 0x40 PUSH0 KECCAK256 PUSH0 SWAP2 POP SWAP1 POP DUP1 PUSH0 ADD DUP1 SLOAD PUSH2 0xC79 SWAP1 PUSH2 0x1391 JUMP JUMPDEST DUP1 PUSH1 0x1F ADD PUSH1 0x20 DUP1 SWAP2 DIV MUL PUSH1 0x20 ADD PUSH1 0x40 MLOAD SWAP1 DUP2 ADD PUSH1 0x40 MSTORE DUP1 SWAP3 SWAP2 SWAP1 DUP2 DUP2 MSTORE PUSH1 0x20 ADD DUP3 DUP1 SLOAD PUSH2 0xCA5 SWAP1 PUSH2 0x1391 JUMP JUMPDEST DUP1 ISZERO PUSH2 0xCF0 JUMPI DUP1 PUSH1 0x1F LT PUSH2 0xCC7 JUMPI PUSH2 0x100 DUP1 DUP4 SLOAD DIV MUL DUP4 MSTORE SWAP2 PUSH1 0x20 ADD SWAP2 PUSH2 0xCF0 JUMP JUMPDEST DUP3 ADD SWAP2 SWAP1 PUSH0 MSTORE PUSH1 0x20 PUSH0 KECCAK256 SWAP1 JUMPDEST DUP2 SLOAD DUP2 MSTORE SWAP1 PUSH1 0x1 ADD SWAP1 PUSH1 0x20 ADD DUP1 DUP4 GT PUSH2 0xCD3 JUMPI DUP3 SWAP1 SUB PUSH1 0x1F AND DUP3 ADD SWAP2 JUMPDEST POP POP POP POP POP SWAP1 DUP1 PUSH1 0x1 ADD PUSH0 SWAP1 SLOAD SWAP1 PUSH2 0x100 EXP SWAP1 DIV PUSH20 0xFFFFFFFFFFFFFFFFFFFFFFFFFFFFFFFFFFFFFFFF AND SWAP1 DUP1 PUSH1 0x2 ADD PUSH0 SWAP1 SLOAD SWAP1 PUSH2 0x100 EXP SWAP1 DIV PUSH20 0xFFFFFFFFFFFFFFFFFFFFFFFFFFFFFFFFFFFFFFFF AND SWAP1 DUP1 PUSH1 0x3 ADD SLOAD SWAP1 POP DUP5 JUMP JUMPDEST PUSH1 0x40 MLOAD DUP1 PUSH1 0x80 ADD PUSH1 0x40 MSTORE DUP1 PUSH1 0x60 DUP2 MSTORE PUSH1 0x20 ADD PUSH0 PUSH20 0xFFFFFFFFFFFFFFFFFFFFFFFFFFFFFFFFFFFFFFFF AND DUP2 MSTORE PUSH1 0x20 ADD PUSH0 PUSH20 0xFFFFFFFFFFFFFFFFFFFFFFFFFFFFFFFFFFFFFFFF AND DUP2 MSTORE PUSH1 0x20 ADD PUSH0 DUP2 MSTORE POP SWAP1 JUMP JUMPDEST PUSH0 PUSH1 0x40 MLOAD SWAP1 POP SWAP1 JUMP JUMPDEST PUSH0 PUSH0 REVERT JUMPDEST PUSH0 PUSH0 REVERT JUMPDEST PUSH0 PUSH0 REVERT JUMPDEST PUSH0 PUSH0 REVERT JUMPDEST PUSH0 PUSH1 0x1F NOT PUSH1 0x1F DUP4 ADD AND SWAP1 POP SWAP2 SWAP1 POP JUMP JUMPDEST PUSH32 0x4E487B7100000000000000000000000000000000000000000000000000000000 PUSH0 MSTORE PUSH1 0x41 PUSH1 0x4 MSTORE PUSH1 0x24 PUSH0 REVERT JUMPDEST PUSH2 0xDFA DUP3 PUSH2 0xDB4 JUMP JUMPDEST DUP2 ADD DUP2 DUP2 LT PUSH8 0xFFFFFFFFFFFFFFFF DUP3 GT OR ISZERO PUSH2 0xE19 JUMPI PUSH2 0xE18 PUSH2 0xDC4 JUMP JUMPDEST JUMPDEST DUP1 PUSH1 0x40 MSTORE POP POP POP JUMP JUMPDEST PUSH0 PUSH2 0xE2B PUSH2 0xD9B JUMP JUMPDEST SWAP1 POP PUSH2 0xE37 DUP3 DUP3 PUSH2 0xDF1 JUMP JUMPDEST SWAP2 SWAP1 POP JUMP JUMPDEST PUSH0 PUSH8 0xFFFFFFFFFFFFFFFF DUP3 GT ISZERO PUSH2 0xE56 JUMPI PUSH2 0xE55 PUSH2 0xDC4 JUMP JUMPDEST JUMPDEST PUSH2 0xE5F DUP3 PUSH2 0xDB4 JUMP JUMPDEST SWAP1 POP PUSH1 0x20 DUP2 ADD SWAP1 POP SWAP2 SWAP1 POP JUMP JUMPDEST DUP3 DUP2 DUP4 CALLDATACOPY PUSH0 DUP4 DUP4 ADD MSTORE POP POP POP JUMP JUMPDEST PUSH0 PUSH2 0xE8C PUSH2 0xE87 DUP5 PUSH2 0xE3C JUMP JUMPDEST PUSH2 0xE22 JUMP JUMPDEST SWAP1 POP DUP3 DUP2 MSTORE PUSH1 0x20 DUP2 ADD DUP5 DUP5 DUP5 ADD GT ISZERO PUSH2 0xEA8 JUMPI PUSH2 0xEA7 PUSH2 0xDB0 JUMP JUMPDEST JUMPDEST PUSH2 0xEB3 DUP5 DUP3 DUP6 PUSH2 0xE6C JUMP JUMPDEST POP SWAP4 SWAP3 POP POP POP JUMP JUMPDEST PUSH0 DUP3 PUSH1 0x1F DUP4 ADD SLT PUSH2 0xECF JUMPI PUSH2 0xECE PUSH2 0xDAC JUMP JUMPDEST JUMPDEST DUP2 CALLDATALOAD PUSH2 0xEDF DUP5 DUP3 PUSH1 0x20 DUP7 ADD PUSH2 0xE7A JUMP JUMPDEST SWAP2 POP POP SWAP3 SWAP2 POP POP JUMP JUMPDEST PUSH0 PUSH1 0x20 DUP3 DUP5 SUB SLT ISZERO PUSH2 0xEFD JUMPI PUSH2 0xEFC PUSH2 0xDA4 JUMP JUMPDEST JUMPDEST PUSH0 DUP3 ADD CALLDATALOAD PUSH8 0xFFFFFFFFFFFFFFFF DUP2 GT ISZERO PUSH2 0xF1A JUMPI PUSH2 0xF19 PUSH2 0xDA8 JUMP JUMPDEST JUMPDEST PUSH2 0xF26 DUP5 DUP3 DUP6 ADD PUSH2 0xEBB JUMP JUMPDEST SWAP2 POP POP SWAP3 SWAP2 POP POP JUMP JUMPDEST PUSH0 DUP2 MLOAD SWAP1 POP SWAP2 SWAP1 POP JUMP JUMPDEST PUSH0 DUP3 DUP3 MSTORE PUSH1 0x20 DUP3 ADD SWAP1 POP SWAP3 SWAP2 POP POP JUMP JUMPDEST PUSH0 DUP2 SWAP1 POP PUSH1 0x20 DUP3 ADD SWAP1 POP SWAP2 SWAP1 POP JUMP JUMPDEST PUSH0 DUP2 MLOAD SWAP1 POP SWAP2 SWAP1 POP JUMP JUMPDEST PUSH0 DUP3 DUP3 MSTORE PUSH1 0x20 DUP3 ADD SWAP1 POP SWAP3 SWAP2 POP POP JUMP JUMPDEST DUP3 DUP2 DUP4 MCOPY PUSH0 DUP4 DUP4 ADD MSTORE POP POP POP JUMP JUMPDEST PUSH0 PUSH2 0xF8A DUP3 PUSH2 0xF58 JUMP JUMPDEST PUSH2 0xF94 DUP2 DUP6 PUSH2 0xF62 JUMP JUMPDEST SWAP4 POP PUSH2 0xFA4 DUP2 DUP6 PUSH1 0x20 DUP7 ADD PUSH2 0xF72 JUMP JUMPDEST PUSH2 0xFAD DUP2 PUSH2 0xDB4 JUMP JUMPDEST DUP5 ADD SWAP2 POP POP SWAP3 SWAP2 POP POP JUMP JUMPDEST PUSH0 PUSH20 0xFFFFFFFFFFFFFFFFFFFFFFFFFFFFFFFFFFFFFFFF DUP3 AND SWAP1 POP SWAP2 SWAP1 POP JUMP JUMPDEST PUSH0 PUSH2 0xFE1 DUP3 PUSH2 0xFB8 JUMP JUMPDEST SWAP1 POP SWAP2 SWAP1 POP JUMP JUMPDEST PUSH2 0xFF1 DUP2 PUSH2 0xFD7 JUMP JUMPDEST DUP3 MSTORE POP POP JUMP JUMPDEST PUSH0 DUP2 SWAP1 POP SWAP2 SWAP1 POP JUMP JUMPDEST PUSH2 0x1009 DUP2 PUSH2 0xFF7 JUMP JUMPDEST DUP3 MSTORE POP POP JUMP JUMPDEST PUSH0 PUSH1 0x80 DUP4 ADD PUSH0 DUP4 ADD MLOAD DUP5 DUP3 SUB PUSH0 DUP7 ADD MSTORE PUSH2 0x1029 DUP3 DUP3 PUSH2 0xF80 JUMP JUMPDEST SWAP2 POP POP PUSH1 0x20 DUP4 ADD MLOAD PUSH2 0x103E PUSH1 0x20 DUP7 ADD DUP3 PUSH2 0xFE8 JUMP JUMPDEST POP PUSH1 0x40 DUP4 ADD MLOAD PUSH2 0x1051 PUSH1 0x40 DUP7 ADD DUP3 PUSH2 0xFE8 JUMP JUMPDEST POP PUSH1 0x60 DUP4 ADD MLOAD PUSH2 0x1064 PUSH1 0x60 DUP7 ADD DUP3 PUSH2 0x1000 JUMP JUMPDEST POP DUP1 SWAP2 POP POP SWAP3 SWAP2 POP POP JUMP JUMPDEST PUSH0 PUSH2 0x107A DUP4 DUP4 PUSH2 0x100F JUMP JUMPDEST SWAP1 POP SWAP3 SWAP2 POP POP JUMP JUMPDEST PUSH0 PUSH1 0x20 DUP3 ADD SWAP1 POP SWAP2 SWAP1 POP JUMP JUMPDEST PUSH0 PUSH2 0x1098 DUP3 PUSH2 0xF2F JUMP JUMPDEST PUSH2 0x10A2 DUP2 DUP6 PUSH2 0xF39 JUMP JUMPDEST SWAP4 POP DUP4 PUSH1 0x20 DUP3 MUL DUP6 ADD PUSH2 0x10B4 DUP6 PUSH2 0xF49 JUMP JUMPDEST DUP1 PUSH0 JUMPDEST DUP6 DUP2 LT ISZERO PUSH2 0x10EF JUMPI DUP5 DUP5 SUB DUP10 MSTORE DUP2 MLOAD PUSH2 0x10D0 DUP6 DUP3 PUSH2 0x106F JUMP JUMPDEST SWAP5 POP PUSH2 0x10DB DUP4 PUSH2 0x1082 JUMP JUMPDEST SWAP3 POP PUSH1 0x20 DUP11 ADD SWAP10 POP POP PUSH1 0x1 DUP2 ADD SWAP1 POP PUSH2 0x10B7 JUMP JUMPDEST POP DUP3 SWAP8 POP DUP8 SWAP6 POP POP POP POP POP POP SWAP3 SWAP2 POP POP JUMP JUMPDEST PUSH0 PUSH1 0x20 DUP3 ADD SWAP1 POP DUP2 DUP2 SUB PUSH0 DUP4 ADD MSTORE PUSH2 0x1119 DUP2 DUP5 PUSH2 0x108E JUMP JUMPDEST SWAP1 POP SWAP3 SWAP2 POP POP JUMP JUMPDEST PUSH2 0x112A DUP2 PUSH2 0xFF7 JUMP JUMPDEST DUP3 MSTORE POP POP JUMP JUMPDEST PUSH0 PUSH1 0x20 DUP3 ADD SWAP1 POP PUSH2 0x1143 PUSH0 DUP4 ADD DUP5 PUSH2 0x1121 JUMP JUMPDEST SWAP3 SWAP2 POP POP JUMP JUMPDEST PUSH2 0x1152 DUP2 PUSH2 0xFD7 JUMP JUMPDEST DUP2 EQ PUSH2 0x115C JUMPI PUSH0 PUSH0 REVERT JUMPDEST POP JUMP JUMPDEST PUSH0 DUP2 CALLDATALOAD SWAP1 POP PUSH2 0x116D DUP2 PUSH2 0x1149 JUMP JUMPDEST SWAP3 SWAP2 POP POP JUMP JUMPDEST PUSH0 PUSH1 0x20 DUP3 DUP5 SUB SLT ISZERO PUSH2 0x1188 JUMPI PUSH2 0x1187 PUSH2 0xDA4 JUMP JUMPDEST JUMPDEST PUSH0 PUSH2 0x1195 DUP5 DUP3 DUP6 ADD PUSH2 0x115F JUMP JUMPDEST SWAP2 POP POP SWAP3 SWAP2 POP POP JUMP JUMPDEST PUSH2 0x11A7 DUP2 PUSH2 0xFF7 JUMP JUMPDEST DUP2 EQ PUSH2 0x11B1 JUMPI PUSH0 PUSH0 REVERT JUMPDEST POP JUMP JUMPDEST PUSH0 DUP2 CALLDATALOAD SWAP1 POP PUSH2 0x11C2 DUP2 PUSH2 0x119E JUMP JUMPDEST SWAP3 SWAP2 POP POP JUMP JUMPDEST PUSH0 PUSH0 PUSH0 PUSH0 PUSH1 0x80 DUP6 DUP8 SUB SLT ISZERO PUSH2 0x11E0 JUMPI PUSH2 0x11DF PUSH2 0xDA4 JUMP JUMPDEST JUMPDEST PUSH0 DUP6 ADD CALLDATALOAD PUSH8 0xFFFFFFFFFFFFFFFF DUP2 GT ISZERO PUSH2 0x11FD JUMPI PUSH2 0x11FC PUSH2 0xDA8 JUMP JUMPDEST JUMPDEST PUSH2 0x1209 DUP8 DUP3 DUP9 ADD PUSH2 0xEBB JUMP JUMPDEST SWAP5 POP POP PUSH1 0x20 PUSH2 0x121A DUP8 DUP3 DUP9 ADD PUSH2 0x115F JUMP JUMPDEST SWAP4 POP POP PUSH1 0x40 PUSH2 0x122B DUP8 DUP3 DUP9 ADD PUSH2 0x115F JUMP JUMPDEST SWAP3 POP POP PUSH1 0x60 PUSH2 0x123C DUP8 DUP3 DUP9 ADD PUSH2 0x11B4 JUMP JUMPDEST SWAP2 POP POP SWAP3 SWAP6 SWAP2 SWAP5 POP SWAP3 POP JUMP JUMPDEST PUSH0 PUSH1 0x20 DUP3 DUP5 SUB SLT ISZERO PUSH2 0x125D JUMPI PUSH2 0x125C PUSH2 0xDA4 JUMP JUMPDEST JUMPDEST PUSH0 PUSH2 0x126A DUP5 DUP3 DUP6 ADD PUSH2 0x11B4 JUMP JUMPDEST SWAP2 POP POP SWAP3 SWAP2 POP POP JUMP JUMPDEST PUSH0 DUP3 DUP3 MSTORE PUSH1 0x20 DUP3 ADD SWAP1 POP SWAP3 SWAP2 POP POP JUMP JUMPDEST PUSH0 PUSH2 0x128D DUP3 PUSH2 0xF58 JUMP JUMPDEST PUSH2 0x1297 DUP2 DUP6 PUSH2 0x1273 JUMP JUMPDEST SWAP4 POP PUSH2 0x12A7 DUP2 DUP6 PUSH1 0x20 DUP7 ADD PUSH2 0xF72 JUMP JUMPDEST PUSH2 0x12B0 DUP2 PUSH2 0xDB4 JUMP JUMPDEST DUP5 ADD SWAP2 POP POP SWAP3 SWAP2 POP POP JUMP JUMPDEST PUSH2 0x12C4 DUP2 PUSH2 0xFD7 JUMP JUMPDEST DUP3 MSTORE POP POP JUMP JUMPDEST PUSH0 PUSH1 0x80 DUP3 ADD SWAP1 POP DUP2 DUP2 SUB PUSH0 DUP4 ADD MSTORE PUSH2 0x12E2 DUP2 DUP8 PUSH2 0x1283 JUMP JUMPDEST SWAP1 POP PUSH2 0x12F1 PUSH1 0x20 DUP4 ADD DUP7 PUSH2 0x12BB JUMP JUMPDEST PUSH2 0x12FE PUSH1 0x40 DUP4 ADD DUP6 PUSH2 0x12BB JUMP JUMPDEST PUSH2 0x130B PUSH1 0x60 DUP4 ADD DUP5 PUSH2 0x1121 JUMP JUMPDEST SWAP6 SWAP5 POP POP POP POP POP JUMP JUMPDEST PUSH0 DUP2 SWAP1 POP SWAP3 SWAP2 POP POP JUMP JUMPDEST PUSH0 PUSH2 0x1328 DUP3 PUSH2 0xF58 JUMP JUMPDEST PUSH2 0x1332 DUP2 DUP6 PUSH2 0x1314 JUMP JUMPDEST SWAP4 POP PUSH2 0x1342 DUP2 DUP6 PUSH1 0x20 DUP7 ADD PUSH2 0xF72 JUMP JUMPDEST DUP1 DUP5 ADD SWAP2 POP POP SWAP3 SWAP2 POP POP JUMP JUMPDEST PUSH0 PUSH2 0x1359 DUP3 DUP5 PUSH2 0x131E JUMP JUMPDEST SWAP2 POP DUP2 SWAP1 POP SWAP3 SWAP2 POP POP JUMP JUMPDEST PUSH32 0x4E487B7100000000000000000000000000000000000000000000000000000000 PUSH0 MSTORE PUSH1 0x22 PUSH1 0x4 MSTORE PUSH1 0x24 PUSH0 REVERT JUMPDEST PUSH0 PUSH1 0x2 DUP3 DIV SWAP1 POP PUSH1 0x1 DUP3 AND DUP1 PUSH2 0x13A8 JUMPI PUSH1 0x7F DUP3 AND SWAP2 POP JUMPDEST PUSH1 0x20 DUP3 LT DUP2 SUB PUSH2 0x13BB JUMPI PUSH2 0x13BA PUSH2 0x1364 JUMP JUMPDEST JUMPDEST POP SWAP2 SWAP1 POP JUMP JUMPDEST PUSH0 DUP2 SWAP1 POP DUP2 PUSH0 MSTORE PUSH1 0x20 PUSH0 KECCAK256 SWAP1 POP SWAP2 SWAP1 POP JUMP JUMPDEST PUSH0 DUP2 SLOAD PUSH2 0x13DF DUP2 PUSH2 0x1391 JUMP JUMPDEST PUSH2 0x13E9 DUP2 DUP7 PUSH2 0x1314 JUMP JUMPDEST SWAP5 POP PUSH1 0x1 DUP3 AND PUSH0 DUP2 EQ PUSH2 0x1403 JUMPI PUSH1 0x1 DUP2 EQ PUSH2 0x1418 JUMPI PUSH2 0x144A JUMP JUMPDEST PUSH1 0xFF NOT DUP4 AND DUP7 MSTORE DUP2 ISZERO ISZERO DUP3 MUL DUP7 ADD SWAP4 POP PUSH2 0x144A JUMP JUMPDEST PUSH2 0x1421 DUP6 PUSH2 0x13C1 JUMP JUMPDEST PUSH0 JUMPDEST DUP4 DUP2 LT ISZERO PUSH2 0x1442 JUMPI DUP2 SLOAD DUP2 DUP10 ADD MSTORE PUSH1 0x1 DUP3 ADD SWAP2 POP PUSH1 0x20 DUP2 ADD SWAP1 POP PUSH2 0x1423 JUMP JUMPDEST DUP4 DUP9 ADD SWAP6 POP POP POP JUMPDEST POP POP POP SWAP3 SWAP2 POP POP JUMP JUMPDEST PUSH0 PUSH2 0x145E DUP3 DUP5 PUSH2 0x13D3 JUMP JUMPDEST SWAP2 POP DUP2 SWAP1 POP SWAP3 SWAP2 POP POP JUMP JUMPDEST PUSH32 0x4E487B7100000000000000000000000000000000000000000000000000000000 PUSH0 MSTORE PUSH1 0x11 PUSH1 0x4 MSTORE PUSH1 0x24 PUSH0 REVERT JUMPDEST PUSH0 PUSH2 0x14A0 DUP3 PUSH2 0xFF7 JUMP JUMPDEST SWAP2 POP PUSH32 0xFFFFFFFFFFFFFFFFFFFFFFFFFFFFFFFFFFFFFFFFFFFFFFFFFFFFFFFFFFFFFFFF DUP3 SUB PUSH2 0x14D2 JUMPI PUSH2 0x14D1 PUSH2 0x1469 JUMP JUMPDEST JUMPDEST PUSH1 0x1 DUP3 ADD SWAP1 POP SWAP2 SWAP1 POP JUMP JUMPDEST PUSH32 0x4E487B7100000000000000000000000000000000000000000000000000000000 PUSH0 MSTORE PUSH1 0x32 PUSH1 0x4 MSTORE PUSH1 0x24 PUSH0 REVERT JUMPDEST PUSH0 PUSH2 0x1514 DUP3 PUSH2 0xFF7 JUMP JUMPDEST SWAP2 POP PUSH2 0x151F DUP4 PUSH2 0xFF7 JUMP JUMPDEST SWAP3 POP DUP3 DUP3 SUB SWAP1 POP DUP2 DUP2 GT ISZERO PUSH2 0x1537 JUMPI PUSH2 0x1536 PUSH2 0x1469 JUMP JUMPDEST JUMPDEST SWAP3 SWAP2 POP POP JUMP JUMPDEST PUSH0 PUSH1 0x40 DUP3 ADD SWAP1 POP PUSH2 0x1550 PUSH0 DUP4 ADD DUP6 PUSH2 0x12BB JUMP JUMPDEST DUP2 DUP2 SUB PUSH1 0x20 DUP4 ADD MSTORE PUSH2 0x1562 DUP2 DUP5 PUSH2 0x1283 JUMP JUMPDEST SWAP1 POP SWAP4 SWAP3 POP POP POP JUMP JUMPDEST PUSH0 DUP2 ISZERO ISZERO SWAP1 POP SWAP2 SWAP1 POP JUMP JUMPDEST PUSH2 0x157F DUP2 PUSH2 0x156B JUMP JUMPDEST DUP2 EQ PUSH2 0x1589 JUMPI PUSH0 PUSH0 REVERT JUMPDEST POP JUMP JUMPDEST PUSH0 DUP2 MLOAD SWAP1 POP PUSH2 0x159A DUP2 PUSH2 0x1576 JUMP JUMPDEST SWAP3 SWAP2 POP POP JUMP JUMPDEST PUSH0 PUSH1 0x20 DUP3 DUP5 SUB SLT ISZERO PUSH2 0x15B5 JUMPI PUSH2 0x15B4 PUSH2 0xDA4 JUMP JUMPDEST JUMPDEST PUSH0 PUSH2 0x15C2 DUP5 DUP3 DUP6 ADD PUSH2 0x158C JUMP JUMPDEST SWAP2 POP POP SWAP3 SWAP2 POP POP JUMP JUMPDEST PUSH32 0x6E6F742076616C69640000000000000000000000000000000000000000000000 PUSH0 DUP3 ADD MSTORE POP JUMP JUMPDEST PUSH0 PUSH2 0x15FF PUSH1 0x9 DUP4 PUSH2 0x1273 JUMP JUMPDEST SWAP2 POP PUSH2 0x160A DUP3 PUSH2 0x15CB JUMP JUMPDEST PUSH1 0x20 DUP3 ADD SWAP1 POP SWAP2 SWAP1 POP JUMP JUMPDEST PUSH0 PUSH1 0x20 DUP3 ADD SWAP1 POP DUP2 DUP2 SUB PUSH0 DUP4 ADD MSTORE PUSH2 0x162C DUP2 PUSH2 0x15F3 JUMP JUMPDEST SWAP1 POP SWAP2 SWAP1 POP JUMP JUMPDEST PUSH0 PUSH1 0x40 DUP3 ADD SWAP1 POP DUP2 DUP2 SUB PUSH0 DUP4 ADD MSTORE PUSH2 0x164B DUP2 DUP6 PUSH2 0x1283 JUMP JUMPDEST SWAP1 POP PUSH2 0x165A PUSH1 0x20 DUP4 ADD DUP5 PUSH2 0x1121 JUMP JUMPDEST SWAP4 SWAP3 POP POP POP JUMP JUMPDEST PUSH0 PUSH1 0x20 PUSH1 0x1F DUP4 ADD DIV SWAP1 POP SWAP2 SWAP1 POP JUMP JUMPDEST PUSH0 DUP3 DUP3 SHL SWAP1 POP SWAP3 SWAP2 POP POP JUMP JUMPDEST PUSH0 PUSH1 0x8 DUP4 MUL PUSH2 0x16AB PUSH32 0xFFFFFFFFFFFFFFFFFFFFFFFFFFFFFFFFFFFFFFFFFFFFFFFFFFFFFFFFFFFFFFFF DUP3 PUSH2 0x1670 JUMP JUMPDEST PUSH2 0x16B5 DUP7 DUP4 PUSH2 0x1670 JUMP JUMPDEST SWAP6 POP DUP1 NOT DUP5 AND SWAP4 POP DUP1 DUP7 AND DUP5 OR SWAP3 POP POP POP SWAP4 SWAP3 POP POP POP JUMP JUMPDEST PUSH0 DUP2 SWAP1 POP SWAP2 SWAP1 POP JUMP JUMPDEST PUSH0 PUSH2 0x16F0 PUSH2 0x16EB PUSH2 0x16E6 DUP5 PUSH2 0xFF7 JUMP JUMPDEST PUSH2 0x16CD JUMP JUMPDEST PUSH2 0xFF7 JUMP JUMPDEST SWAP1 POP SWAP2 SWAP1 POP JUMP JUMPDEST PUSH0 DUP2 SWAP1 POP SWAP2 SWAP1 POP JUMP JUMPDEST PUSH2 0x1709 DUP4 PUSH2 0x16D6 JUMP JUMPDEST PUSH2 0x171D PUSH2 0x1715 DUP3 PUSH2 0x16F7 JUMP JUMPDEST DUP5 DUP5 SLOAD PUSH2 0x167C JUMP JUMPDEST DUP3 SSTORE POP POP POP POP JUMP JUMPDEST PUSH0 PUSH0 SWAP1 POP SWAP1 JUMP JUMPDEST PUSH2 0x1734 PUSH2 0x1725 JUMP JUMPDEST PUSH2 0x173F DUP2 DUP5 DUP5 PUSH2 0x1700 JUMP JUMPDEST POP POP POP JUMP JUMPDEST JUMPDEST DUP2 DUP2 LT ISZERO PUSH2 0x1762 JUMPI PUSH2 0x1757 PUSH0 DUP3 PUSH2 0x172C JUMP JUMPDEST PUSH1 0x1 DUP2 ADD SWAP1 POP PUSH2 0x1745 JUMP JUMPDEST POP POP JUMP JUMPDEST PUSH1 0x1F DUP3 GT ISZERO PUSH2 0x17A7 JUMPI PUSH2 0x1778 DUP2 PUSH2 0x13C1 JUMP JUMPDEST PUSH2 0x1781 DUP5 PUSH2 0x1661 JUMP JUMPDEST DUP2 ADD PUSH1 0x20 DUP6 LT ISZERO PUSH2 0x1790 JUMPI DUP2 SWAP1 POP JUMPDEST PUSH2 0x17A4 PUSH2 0x179C DUP6 PUSH2 0x1661 JUMP JUMPDEST DUP4 ADD DUP3 PUSH2 0x1744 JUMP JUMPDEST POP POP JUMPDEST POP POP POP JUMP JUMPDEST PUSH0 DUP3 DUP3 SHR SWAP1 POP SWAP3 SWAP2 POP POP JUMP JUMPDEST PUSH0 PUSH2 0x17C7 PUSH0 NOT DUP5 PUSH1 0x8 MUL PUSH2 0x17AC JUMP JUMPDEST NOT DUP1 DUP4 AND SWAP2 POP POP SWAP3 SWAP2 POP POP JUMP JUMPDEST PUSH0 PUSH2 0x17DF DUP4 DUP4 PUSH2 0x17B8 JUMP JUMPDEST SWAP2 POP DUP3 PUSH1 0x2 MUL DUP3 OR SWAP1 POP SWAP3 SWAP2 POP POP JUMP JUMPDEST PUSH2 0x17F8 DUP3 PUSH2 0xF58 JUMP JUMPDEST PUSH8 0xFFFFFFFFFFFFFFFF DUP2 GT ISZERO PUSH2 0x1811 JUMPI PUSH2 0x1810 PUSH2 0xDC4 JUMP JUMPDEST JUMPDEST PUSH2 0x181B DUP3 SLOAD PUSH2 0x1391 JUMP JUMPDEST PUSH2 0x1826 DUP3 DUP3 DUP6 PUSH2 0x1766 JUMP JUMPDEST PUSH0 PUSH1 0x20 SWAP1 POP PUSH1 0x1F DUP4 GT PUSH1 0x1 DUP2 EQ PUSH2 0x1857 JUMPI PUSH0 DUP5 ISZERO PUSH2 0x1845 JUMPI DUP3 DUP8 ADD MLOAD SWAP1 POP JUMPDEST PUSH2 0x184F DUP6 DUP3 PUSH2 0x17D4 JUMP JUMPDEST DUP7 SSTORE POP PUSH2 0x18B6 JUMP JUMPDEST PUSH1 0x1F NOT DUP5 AND PUSH2 0x1865 DUP7 PUSH2 0x13C1 JUMP JUMPDEST PUSH0 JUMPDEST DUP3 DUP2 LT ISZERO PUSH2 0x188C JUMPI DUP5 DUP10 ADD MLOAD DUP3 SSTORE PUSH1 0x1 DUP3 ADD SWAP2 POP PUSH1 0x20 DUP6 ADD SWAP5 POP PUSH1 0x20 DUP2 ADD SWAP1 POP PUSH2 0x1867 JUMP JUMPDEST DUP7 DUP4 LT ISZERO PUSH2 0x18A9 JUMPI DUP5 DUP10 ADD MLOAD PUSH2 0x18A5 PUSH1 0x1F DUP10 AND DUP3 PUSH2 0x17B8 JUMP JUMPDEST DUP4 SSTORE POP JUMPDEST PUSH1 0x1 PUSH1 0x2 DUP9 MUL ADD DUP9 SSTORE POP POP POP JUMPDEST POP POP POP POP POP POP JUMP JUMPDEST PUSH0 PUSH1 0xA0 DUP3 ADD SWAP1 POP PUSH2 0x18D1 PUSH0 DUP4 ADD DUP9 PUSH2 0x1121 JUMP JUMPDEST DUP2 DUP2 SUB PUSH1 0x20 DUP4 ADD MSTORE PUSH2 0x18E3 DUP2 DUP8 PUSH2 0x1283 JUMP JUMPDEST SWAP1 POP PUSH2 0x18F2 PUSH1 0x40 DUP4 ADD DUP7 PUSH2 0x12BB JUMP JUMPDEST PUSH2 0x18FF PUSH1 0x60 DUP4 ADD DUP6 PUSH2 0x12BB JUMP JUMPDEST PUSH2 0x190C PUSH1 0x80 DUP4 ADD DUP5 PUSH2 0x1121 JUMP JUMPDEST SWAP7 SWAP6 POP POP POP POP POP POP JUMP INVALID LOG2 PUSH5 0x6970667358 0x22 SLT KECCAK256 DUP14 SWAP5 PUSH14 0xD94F8ADF5D7EE9B6B9B9D81CBCCA PUSH7 0x9BA39CC4B09AEE MSTORE 0x26 DUP9 0xAC PREVRANDAO PUSH16 0x264736F6C634300081E003300000000 "
				},
				"gasEstimates": {
					"creation": {
						"codeDepositCost": "1295200",
						"executionCost": "infinite",
						"totalCost": "infinite"
					},
					"external": {
						"donate(string,address,address,uint256)": "infinite",
						"donationCount()": "2425",
						"donations(uint256)": "infinite",
						"getAllDonations()": "infinite",
						"getDonationsByAddress(address)": "infinite",
						"getDonationsByName(string)": "infinite"
					}
				},
				"methodIdentifiers": {
					"donate(string,address,address,uint256)": "bf8c0325",
					"donationCount()": "2abfab4d",
					"donations(uint256)": "f8626af8",
					"getAllDonations()": "38a59a07",
					"getDonationsByAddress(address)": "9c9c2a0f",
					"getDonationsByName(string)": "20894977"
				}
			},
			"storageLayout": {
				"storage": [
					{
						"astId": 27,
						"contract": "contracts/donation.sol:DonationContract",
						"label": "verifyContractAdd",
						"offset": 0,
						"slot": "0",
						"type": "t_address"
					},
					{
						"astId": 29,
						"contract": "contracts/donation.sol:DonationContract",
						"label": "milestoneAdd",
						"offset": 0,
						"slot": "1",
						"type": "t_address"
					},
					{
						"astId": 31,
						"contract": "contracts/donation.sol:DonationContract",
						"label": "roleContractAdd",
						"offset": 0,
						"slot": "2",
						"type": "t_address"
					},
					{
						"astId": 45,
						"contract": "contracts/donation.sol:DonationContract",
						"label": "donations",
						"offset": 0,
						"slot": "3",
						"type": "t_mapping(t_uint256,t_struct(Donation)40_storage)"
					},
					{
						"astId": 47,
						"contract": "contracts/donation.sol:DonationContract",
						"label": "donationCount",
						"offset": 0,
						"slot": "4",
						"type": "t_uint256"
					}
				],
				"types": {
					"t_address": {
						"encoding": "inplace",
						"label": "address",
						"numberOfBytes": "20"
					},
					"t_mapping(t_uint256,t_struct(Donation)40_storage)": {
						"encoding": "mapping",
						"key": "t_uint256",
						"label": "mapping(uint256 => struct DonationContract.Donation)",
						"numberOfBytes": "32",
						"value": "t_struct(Donation)40_storage"
					},
					"t_string_storage": {
						"encoding": "bytes",
						"label": "string",
						"numberOfBytes": "32"
					},
					"t_struct(Donation)40_storage": {
						"encoding": "inplace",
						"label": "struct DonationContract.Donation",
						"members": [
							{
								"astId": 33,
								"contract": "contracts/donation.sol:DonationContract",
								"label": "charity",
								"offset": 0,
								"slot": "0",
								"type": "t_string_storage"
							},
							{
								"astId": 35,
								"contract": "contracts/donation.sol:DonationContract",
								"label": "charityAdd",
								"offset": 0,
								"slot": "1",
								"type": "t_address"
							},
							{
								"astId": 37,
								"contract": "contracts/donation.sol:DonationContract",
								"label": "donorAdd",
								"offset": 0,
								"slot": "2",
								"type": "t_address"
							},
							{
								"astId": 39,
								"contract": "contracts/donation.sol:DonationContract",
								"label": "donationAmount",
								"offset": 0,
								"slot": "3",
								"type": "t_uint256"
							}
						],
						"numberOfBytes": "128"
					},
					"t_uint256": {
						"encoding": "inplace",
						"label": "uint256",
						"numberOfBytes": "32"
					}
				}
			},
			"userdoc": {
				"kind": "user",
				"methods": {},
				"version": 1
			}
		}
	}
}