{
	"contracts/milestone_distribution.sol": {
		"DistributionContract": {
			"abi": [
				{
					"anonymous": false,
					"inputs": [
						{
							"indexed": false,
							"internalType": "uint256",
							"name": "charityID",
							"type": "uint256"
						},
						{
							"indexed": false,
							"internalType": "string",
							"name": "name",
							"type": "string"
						},
						{
							"indexed": false,
							"internalType": "address",
							"name": "charityAddress",
							"type": "address"
						},
						{
							"indexed": false,
							"internalType": "uint256",
							"name": "totalRaised",
							"type": "uint256"
						},
						{
							"indexed": false,
							"internalType": "uint256",
							"name": "targetDonation",
							"type": "uint256"
						},
						{
							"indexed": false,
							"internalType": "bool",
							"name": "fundsLocked",
							"type": "bool"
						}
					],
					"name": "CharityCreated",
					"type": "event"
				},
				{
					"inputs": [
						{
							"internalType": "string",
							"name": "_name",
							"type": "string"
						},
						{
							"internalType": "address",
							"name": "_charityAddress",
							"type": "address"
						},
						{
							"internalType": "string",
							"name": "_milestoneDescription",
							"type": "string"
						}
					],
					"name": "addCharity",
					"outputs": [],
					"stateMutability": "nonpayable",
					"type": "function"
				},
				{
					"inputs": [],
					"name": "charityCount",
					"outputs": [
						{
							"internalType": "uint256",
							"name": "",
							"type": "uint256"
						}
					],
					"stateMutability": "view",
					"type": "function"
				},
				{
					"inputs": [
						{
							"internalType": "string",
							"name": "_charity",
							"type": "string"
						}
					],
					"name": "charityExists",
					"outputs": [
						{
							"internalType": "int256",
							"name": "",
							"type": "int256"
						}
					],
					"stateMutability": "view",
					"type": "function"
				},
				{
					"inputs": [
						{
							"internalType": "string",
							"name": "_charity",
							"type": "string"
						},
						{
							"internalType": "uint256",
							"name": "_amount",
							"type": "uint256"
						}
					],
					"name": "contributeFunds",
					"outputs": [],
					"stateMutability": "nonpayable",
					"type": "function"
				},
				{
					"inputs": [
						{
							"internalType": "uint256",
							"name": "id",
							"type": "uint256"
						}
					],
					"name": "getCharityById",
					"outputs": [
						{
							"internalType": "string",
							"name": "name",
							"type": "string"
						},
						{
							"internalType": "address",
							"name": "charityAddress",
							"type": "address"
						},
						{
							"internalType": "uint256",
							"name": "totalRaised",
							"type": "uint256"
						},
						{
							"internalType": "uint256",
							"name": "targetDonation",
							"type": "uint256"
						},
						{
							"internalType": "bool",
							"name": "fundsLocked",
							"type": "bool"
						},
						{
							"internalType": "string",
							"name": "milestoneDescription",
							"type": "string"
						},
						{
							"internalType": "bool",
							"name": "isMilestoneComplete",
							"type": "bool"
						}
					],
					"stateMutability": "view",
					"type": "function"
				},
				{
					"inputs": [
						{
							"internalType": "uint256",
							"name": "charityID",
							"type": "uint256"
						}
					],
					"name": "markMilestoneComplete",
					"outputs": [],
					"stateMutability": "nonpayable",
					"type": "function"
				},
				{
					"inputs": [],
					"name": "roleContractAdd",
					"outputs": [
						{
							"internalType": "address",
							"name": "",
							"type": "address"
						}
					],
					"stateMutability": "view",
					"type": "function"
				},
				{
					"inputs": [
						{
							"internalType": "uint256",
							"name": "charityID",
							"type": "uint256"
						},
						{
							"internalType": "string",
							"name": "newDescription",
							"type": "string"
						}
					],
					"name": "updateMilestone",
					"outputs": [],
					"stateMutability": "nonpayable",
					"type": "function"
				}
			],
			"devdoc": {
				"kind": "dev",
				"methods": {},
				"version": 1
			},
			"evm": {
				"assembly": "    /* \"contracts/milestone_distribution.sol\":60:3390  contract DistributionContract {... */\n  mstore(0x40, 0x80)\n  callvalue\n  dup1\n  iszero\n  tag_1\n  jumpi\n  revert(0x00, 0x00)\ntag_1:\n  pop\n  dataSize(sub_0)\n  dup1\n  dataOffset(sub_0)\n  0x00\n  codecopy\n  0x00\n  return\nstop\n\nsub_0: assembly {\n        /* \"contracts/milestone_distribution.sol\":60:3390  contract DistributionContract {... */\n      mstore(0x40, 0x80)\n      callvalue\n      dup1\n      iszero\n      tag_1\n      jumpi\n      revert(0x00, 0x00)\n    tag_1:\n      pop\n      jumpi(tag_2, lt(calldatasize, 0x04))\n      shr(0xe0, calldataload(0x00))\n      dup1\n      0x91329493\n      gt\n      tag_11\n      jumpi\n      dup1\n      0x91329493\n      eq\n      tag_7\n      jumpi\n      dup1\n      0x9d32c186\n      eq\n      tag_8\n      jumpi\n      dup1\n      0xee9a5432\n      eq\n      tag_9\n      jumpi\n      dup1\n      0xf25d75e7\n      eq\n      tag_10\n      jumpi\n      jump(tag_2)\n    tag_11:\n      dup1\n      0x14932c6b\n      eq\n      tag_3\n      jumpi\n      dup1\n      0x21b914bc\n      eq\n      tag_4\n      jumpi\n      dup1\n      0x46877a38\n      eq\n      tag_5\n      jumpi\n      dup1\n      0x4e4f4f28\n      eq\n      tag_6\n      jumpi\n    tag_2:\n      revert(0x00, 0x00)\n        /* \"contracts/milestone_distribution.sol\":696:1307  function addCharity(... */\n    tag_3:\n      tag_12\n      0x04\n      dup1\n      calldatasize\n      sub\n      dup2\n      add\n      swap1\n      tag_13\n      swap2\n      swap1\n      tag_14\n      jump\t// in\n    tag_13:\n      tag_15\n      jump\t// in\n    tag_12:\n      stop\n        /* \"contracts/milestone_distribution.sol\":2343:3002  function getCharityById(uint256 id)... */\n    tag_4:\n      tag_16\n      0x04\n      dup1\n      calldatasize\n      sub\n      dup2\n      add\n      swap1\n      tag_17\n      swap2\n      swap1\n      tag_18\n      jump\t// in\n    tag_17:\n      tag_19\n      jump\t// in\n    tag_16:\n      mload(0x40)\n      tag_20\n      swap8\n      swap7\n      swap6\n      swap5\n      swap4\n      swap3\n      swap2\n      swap1\n      tag_21\n      jump\t// in\n    tag_20:\n      mload(0x40)\n      dup1\n      swap2\n      sub\n      swap1\n      return\n        /* \"contracts/milestone_distribution.sol\":2053:2335  function updateMilestone(uint256 charityID, string memory newDescription) public {... */\n    tag_5:\n      tag_22\n      0x04\n      dup1\n      calldatasize\n      sub\n      dup2\n      add\n      swap1\n      tag_23\n      swap2\n      swap1\n      tag_24\n      jump\t// in\n    tag_23:\n      tag_25\n      jump\t// in\n    tag_22:\n      stop\n        /* \"contracts/milestone_distribution.sol\":131:161  address public roleContractAdd */\n    tag_6:\n      tag_26\n      tag_27\n      jump\t// in\n    tag_26:\n      mload(0x40)\n      tag_28\n      swap2\n      swap1\n      tag_29\n      jump\t// in\n    tag_28:\n      mload(0x40)\n      dup1\n      swap2\n      sub\n      swap1\n      return\n        /* \"contracts/milestone_distribution.sol\":97:124  uint256 public charityCount */\n    tag_7:\n      tag_30\n      tag_31\n      jump\t// in\n    tag_30:\n      mload(0x40)\n      tag_32\n      swap2\n      swap1\n      tag_33\n      jump\t// in\n    tag_32:\n      mload(0x40)\n      dup1\n      swap2\n      sub\n      swap1\n      return\n        /* \"contracts/milestone_distribution.sol\":3010:3387  function charityExists(string memory _charity) public view returns (int256) {... */\n    tag_8:\n      tag_34\n      0x04\n      dup1\n      calldatasize\n      sub\n      dup2\n      add\n      swap1\n      tag_35\n      swap2\n      swap1\n      tag_36\n      jump\t// in\n    tag_35:\n      tag_37\n      jump\t// in\n    tag_34:\n      mload(0x40)\n      tag_38\n      swap2\n      swap1\n      tag_39\n      jump\t// in\n    tag_38:\n      mload(0x40)\n      dup1\n      swap2\n      sub\n      swap1\n      return\n        /* \"contracts/milestone_distribution.sol\":1739:2045  function markMilestoneComplete(uint256 charityID) public {... */\n    tag_9:\n      tag_40\n      0x04\n      dup1\n      calldatasize\n      sub\n      dup2\n      add\n      swap1\n      tag_41\n      swap2\n      swap1\n      tag_18\n      jump\t// in\n    tag_41:\n      tag_42\n      jump\t// in\n    tag_40:\n      stop\n        /* \"contracts/milestone_distribution.sol\":1315:1731  function contributeFunds(string memory _charity, uint256 _amount) external {... */\n    tag_10:\n      tag_43\n      0x04\n      dup1\n      calldatasize\n      sub\n      dup2\n      add\n      swap1\n      tag_44\n      swap2\n      swap1\n      tag_45\n      jump\t// in\n    tag_44:\n      tag_46\n      jump\t// in\n    tag_43:\n      stop\n        /* \"contracts/milestone_distribution.sol\":696:1307  function addCharity(... */\n    tag_15:\n        /* \"contracts/milestone_distribution.sol\":871:883  charityCount */\n      0x00\n      0x00\n        /* \"contracts/milestone_distribution.sol\":871:885  charityCount++ */\n      dup2\n      sload\n      dup1\n      swap3\n      swap2\n      swap1\n      tag_48\n      swap1\n      tag_49\n      jump\t// in\n    tag_48:\n      swap2\n      swap1\n      pop\n      sstore\n      pop\n        /* \"contracts/milestone_distribution.sol\":924:1126  CharityDetails(... */\n      mload(0x40)\n      dup1\n      0xe0\n      add\n      0x40\n      mstore\n      dup1\n        /* \"contracts/milestone_distribution.sol\":953:958  _name */\n      dup5\n        /* \"contracts/milestone_distribution.sol\":924:1126  CharityDetails(... */\n      dup2\n      mstore\n      0x20\n      add\n        /* \"contracts/milestone_distribution.sol\":973:988  _charityAddress */\n      dup4\n        /* \"contracts/milestone_distribution.sol\":924:1126  CharityDetails(... */\n      0xffffffffffffffffffffffffffffffffffffffff\n      and\n      dup2\n      mstore\n      0x20\n      add\n        /* \"contracts/milestone_distribution.sol\":1003:1004  0 */\n      0x00\n        /* \"contracts/milestone_distribution.sol\":924:1126  CharityDetails(... */\n      dup2\n      mstore\n      0x20\n      add\n        /* \"contracts/milestone_distribution.sol\":1019:1022  100 */\n      0x64\n        /* \"contracts/milestone_distribution.sol\":924:1126  CharityDetails(... */\n      dup2\n      mstore\n      0x20\n      add\n        /* \"contracts/milestone_distribution.sol\":1055:1059  true */\n      0x01\n        /* \"contracts/milestone_distribution.sol\":924:1126  CharityDetails(... */\n      iszero\n      iszero\n      dup2\n      mstore\n      0x20\n      add\n        /* \"contracts/milestone_distribution.sol\":1074:1095  _milestoneDescription */\n      dup3\n        /* \"contracts/milestone_distribution.sol\":924:1126  CharityDetails(... */\n      dup2\n      mstore\n      0x20\n      add\n        /* \"contracts/milestone_distribution.sol\":1110:1115  false */\n      0x00\n        /* \"contracts/milestone_distribution.sol\":924:1126  CharityDetails(... */\n      iszero\n      iszero\n      dup2\n      mstore\n      pop\n        /* \"contracts/milestone_distribution.sol\":898:907  charities */\n      0x02\n        /* \"contracts/milestone_distribution.sol\":898:921  charities[charityCount] */\n      0x00\n        /* \"contracts/milestone_distribution.sol\":908:920  charityCount */\n      sload(0x00)\n        /* \"contracts/milestone_distribution.sol\":898:921  charities[charityCount] */\n      dup2\n      mstore\n      0x20\n      add\n      swap1\n      dup2\n      mstore\n      0x20\n      add\n      0x00\n      keccak256\n        /* \"contracts/milestone_distribution.sol\":898:1126  charities[charityCount] = CharityDetails(... */\n      0x00\n      dup3\n      add\n      mload\n      dup2\n      0x00\n      add\n      swap1\n      dup2\n      tag_50\n      swap2\n      swap1\n      tag_51\n      jump\t// in\n    tag_50:\n      pop\n      0x20\n      dup3\n      add\n      mload\n      dup2\n      0x01\n      add\n      exp(0x0100, 0x00)\n      dup2\n      sload\n      dup2\n      0xffffffffffffffffffffffffffffffffffffffff\n      mul\n      not\n      and\n      swap1\n      dup4\n      0xffffffffffffffffffffffffffffffffffffffff\n      and\n      mul\n      or\n      swap1\n      sstore\n      pop\n      0x40\n      dup3\n      add\n      mload\n      dup2\n      0x02\n      add\n      sstore\n      0x60\n      dup3\n      add\n      mload\n      dup2\n      0x03\n      add\n      sstore\n      0x80\n      dup3\n      add\n      mload\n      dup2\n      0x04\n      add\n      exp(0x0100, 0x00)\n      dup2\n      sload\n      dup2\n      0xff\n      mul\n      not\n      and\n      swap1\n      dup4\n      iszero\n      iszero\n      mul\n      or\n      swap1\n      sstore\n      pop\n      0xa0\n      dup3\n      add\n      mload\n      dup2\n      0x05\n      add\n      swap1\n      dup2\n      tag_52\n      swap2\n      swap1\n      tag_51\n      jump\t// in\n    tag_52:\n      pop\n      0xc0\n      dup3\n      add\n      mload\n      dup2\n      0x06\n      add\n      exp(0x0100, 0x00)\n      dup2\n      sload\n      dup2\n      0xff\n      mul\n      not\n      and\n      swap1\n      dup4\n      iszero\n      iszero\n      mul\n      or\n      swap1\n      sstore\n      pop\n      swap1\n      pop\n      pop\n        /* \"contracts/milestone_distribution.sol\":1144:1299  CharityCreated(... */\n      0x9738ee50ef49bc3ba8025ef429ffc26a3c6427e51abca46e5ea80429f1c17b4b\n        /* \"contracts/milestone_distribution.sol\":1173:1185  charityCount */\n      sload(0x00)\n        /* \"contracts/milestone_distribution.sol\":1200:1205  _name */\n      dup5\n        /* \"contracts/milestone_distribution.sol\":1220:1235  _charityAddress */\n      dup5\n        /* \"contracts/milestone_distribution.sol\":1250:1251  0 */\n      0x00\n        /* \"contracts/milestone_distribution.sol\":1266:1269  100 */\n      0x64\n        /* \"contracts/milestone_distribution.sol\":1284:1288  true */\n      0x01\n        /* \"contracts/milestone_distribution.sol\":1144:1299  CharityCreated(... */\n      mload(0x40)\n      tag_53\n      swap7\n      swap6\n      swap5\n      swap4\n      swap3\n      swap2\n      swap1\n      tag_54\n      jump\t// in\n    tag_53:\n      mload(0x40)\n      dup1\n      swap2\n      sub\n      swap1\n      log1\n        /* \"contracts/milestone_distribution.sol\":696:1307  function addCharity(... */\n      pop\n      pop\n      pop\n      jump\t// out\n        /* \"contracts/milestone_distribution.sol\":2343:3002  function getCharityById(uint256 id)... */\n    tag_19:\n        /* \"contracts/milestone_distribution.sol\":2441:2459  string memory name */\n      0x60\n        /* \"contracts/milestone_distribution.sol\":2474:2496  address charityAddress */\n      0x00\n        /* \"contracts/milestone_distribution.sol\":2511:2530  uint256 totalRaised */\n      0x00\n        /* \"contracts/milestone_distribution.sol\":2545:2567  uint256 targetDonation */\n      0x00\n        /* \"contracts/milestone_distribution.sol\":2582:2598  bool fundsLocked */\n      0x00\n        /* \"contracts/milestone_distribution.sol\":2613:2647  string memory milestoneDescription */\n      0x60\n        /* \"contracts/milestone_distribution.sol\":2662:2686  bool isMilestoneComplete */\n      0x00\n        /* \"contracts/milestone_distribution.sol\":2714:2737  CharityDetails memory c */\n      0x00\n        /* \"contracts/milestone_distribution.sol\":2740:2749  charities */\n      0x02\n        /* \"contracts/milestone_distribution.sol\":2740:2753  charities[id] */\n      0x00\n        /* \"contracts/milestone_distribution.sol\":2750:2752  id */\n      dup11\n        /* \"contracts/milestone_distribution.sol\":2740:2753  charities[id] */\n      dup2\n      mstore\n      0x20\n      add\n      swap1\n      dup2\n      mstore\n      0x20\n      add\n      0x00\n      keccak256\n        /* \"contracts/milestone_distribution.sol\":2714:2753  CharityDetails memory c = charities[id] */\n      mload(0x40)\n      dup1\n      0xe0\n      add\n      0x40\n      mstore\n      swap1\n      dup2\n      0x00\n      dup3\n      add\n      dup1\n      sload\n      tag_56\n      swap1\n      tag_57\n      jump\t// in\n    tag_56:\n      dup1\n      0x1f\n      add\n      0x20\n      dup1\n      swap2\n      div\n      mul\n      0x20\n      add\n      mload(0x40)\n      swap1\n      dup2\n      add\n      0x40\n      mstore\n      dup1\n      swap3\n      swap2\n      swap1\n      dup2\n      dup2\n      mstore\n      0x20\n      add\n      dup3\n      dup1\n      sload\n      tag_58\n      swap1\n      tag_57\n      jump\t// in\n    tag_58:\n      dup1\n      iszero\n      tag_59\n      jumpi\n      dup1\n      0x1f\n      lt\n      tag_60\n      jumpi\n      0x0100\n      dup1\n      dup4\n      sload\n      div\n      mul\n      dup4\n      mstore\n      swap2\n      0x20\n      add\n      swap2\n      jump(tag_59)\n    tag_60:\n      dup3\n      add\n      swap2\n      swap1\n      0x00\n      mstore\n      keccak256(0x00, 0x20)\n      swap1\n    tag_61:\n      dup2\n      sload\n      dup2\n      mstore\n      swap1\n      0x01\n      add\n      swap1\n      0x20\n      add\n      dup1\n      dup4\n      gt\n      tag_61\n      jumpi\n      dup3\n      swap1\n      sub\n      0x1f\n      and\n      dup3\n      add\n      swap2\n    tag_59:\n      pop\n      pop\n      pop\n      pop\n      pop\n      dup2\n      mstore\n      0x20\n      add\n      0x01\n      dup3\n      add\n      0x00\n      swap1\n      sload\n      swap1\n      0x0100\n      exp\n      swap1\n      div\n      0xffffffffffffffffffffffffffffffffffffffff\n      and\n      0xffffffffffffffffffffffffffffffffffffffff\n      and\n      0xffffffffffffffffffffffffffffffffffffffff\n      and\n      dup2\n      mstore\n      0x20\n      add\n      0x02\n      dup3\n      add\n      sload\n      dup2\n      mstore\n      0x20\n      add\n      0x03\n      dup3\n      add\n      sload\n      dup2\n      mstore\n      0x20\n      add\n      0x04\n      dup3\n      add\n      0x00\n      swap1\n      sload\n      swap1\n      0x0100\n      exp\n      swap1\n      div\n      0xff\n      and\n      iszero\n      iszero\n      iszero\n      iszero\n      dup2\n      mstore\n      0x20\n      add\n      0x05\n      dup3\n      add\n      dup1\n      sload\n      tag_62\n      swap1\n      tag_57\n      jump\t// in\n    tag_62:\n      dup1\n      0x1f\n      add\n      0x20\n      dup1\n      swap2\n      div\n      mul\n      0x20\n      add\n      mload(0x40)\n      swap1\n      dup2\n      add\n      0x40\n      mstore\n      dup1\n      swap3\n      swap2\n      swap1\n      dup2\n      dup2\n      mstore\n      0x20\n      add\n      dup3\n      dup1\n      sload\n      tag_63\n      swap1\n      tag_57\n      jump\t// in\n    tag_63:\n      dup1\n      iszero\n      tag_64\n      jumpi\n      dup1\n      0x1f\n      lt\n      tag_65\n      jumpi\n      0x0100\n      dup1\n      dup4\n      sload\n      div\n      mul\n      dup4\n      mstore\n      swap2\n      0x20\n      add\n      swap2\n      jump(tag_64)\n    tag_65:\n      dup3\n      add\n      swap2\n      swap1\n      0x00\n      mstore\n      keccak256(0x00, 0x20)\n      swap1\n    tag_66:\n      dup2\n      sload\n      dup2\n      mstore\n      swap1\n      0x01\n      add\n      swap1\n      0x20\n      add\n      dup1\n      dup4\n      gt\n      tag_66\n      jumpi\n      dup3\n      swap1\n      sub\n      0x1f\n      and\n      dup3\n      add\n      swap2\n    tag_64:\n      pop\n      pop\n      pop\n      pop\n      pop\n      dup2\n      mstore\n      0x20\n      add\n      0x06\n      dup3\n      add\n      0x00\n      swap1\n      sload\n      swap1\n      0x0100\n      exp\n      swap1\n      div\n      0xff\n      and\n      iszero\n      iszero\n      iszero\n      iszero\n      dup2\n      mstore\n      pop\n      pop\n      swap1\n      pop\n        /* \"contracts/milestone_distribution.sol\":2786:2787  c */\n      dup1\n        /* \"contracts/milestone_distribution.sol\":2786:2792  c.name */\n      0x00\n      add\n      mload\n        /* \"contracts/milestone_distribution.sol\":2807:2808  c */\n      dup2\n        /* \"contracts/milestone_distribution.sol\":2807:2823  c.charityAddress */\n      0x20\n      add\n      mload\n        /* \"contracts/milestone_distribution.sol\":2838:2839  c */\n      dup3\n        /* \"contracts/milestone_distribution.sol\":2838:2851  c.totalRaised */\n      0x40\n      add\n      mload\n        /* \"contracts/milestone_distribution.sol\":2866:2867  c */\n      dup4\n        /* \"contracts/milestone_distribution.sol\":2866:2882  c.targetDonation */\n      0x60\n      add\n      mload\n        /* \"contracts/milestone_distribution.sol\":2897:2898  c */\n      dup5\n        /* \"contracts/milestone_distribution.sol\":2897:2910  c.fundsLocked */\n      0x80\n      add\n      mload\n        /* \"contracts/milestone_distribution.sol\":2925:2926  c */\n      dup6\n        /* \"contracts/milestone_distribution.sol\":2925:2947  c.milestoneDescription */\n      0xa0\n      add\n      mload\n        /* \"contracts/milestone_distribution.sol\":2962:2963  c */\n      dup7\n        /* \"contracts/milestone_distribution.sol\":2962:2983  c.isMilestoneComplete */\n      0xc0\n      add\n      mload\n        /* \"contracts/milestone_distribution.sol\":2764:2994  return (... */\n      swap8\n      pop\n      swap8\n      pop\n      swap8\n      pop\n      swap8\n      pop\n      swap8\n      pop\n      swap8\n      pop\n      swap8\n      pop\n      pop\n        /* \"contracts/milestone_distribution.sol\":2343:3002  function getCharityById(uint256 id)... */\n      swap2\n      swap4\n      swap6\n      swap8\n      swap1\n      swap3\n      swap5\n      swap7\n      pop\n      jump\t// out\n        /* \"contracts/milestone_distribution.sol\":2053:2335  function updateMilestone(uint256 charityID, string memory newDescription) public {... */\n    tag_25:\n        /* \"contracts/milestone_distribution.sol\":2181:2190  charities */\n      0x02\n        /* \"contracts/milestone_distribution.sol\":2181:2201  charities[charityID] */\n      0x00\n        /* \"contracts/milestone_distribution.sol\":2191:2200  charityID */\n      dup4\n        /* \"contracts/milestone_distribution.sol\":2181:2201  charities[charityID] */\n      dup2\n      mstore\n      0x20\n      add\n      swap1\n      dup2\n      mstore\n      0x20\n      add\n      0x00\n      keccak256\n        /* \"contracts/milestone_distribution.sol\":2181:2216  charities[charityID].charityAddress */\n      0x01\n      add\n      0x00\n      swap1\n      sload\n      swap1\n      0x0100\n      exp\n      swap1\n      div\n      0xffffffffffffffffffffffffffffffffffffffff\n      and\n        /* \"contracts/milestone_distribution.sol\":2167:2216  msg.sender == charities[charityID].charityAddress */\n      0xffffffffffffffffffffffffffffffffffffffff\n      and\n        /* \"contracts/milestone_distribution.sol\":2167:2177  msg.sender */\n      caller\n        /* \"contracts/milestone_distribution.sol\":2167:2216  msg.sender == charities[charityID].charityAddress */\n      0xffffffffffffffffffffffffffffffffffffffff\n      and\n      eq\n        /* \"contracts/milestone_distribution.sol\":2145:2258  require(... */\n      tag_68\n      jumpi\n      mload(0x40)\n      0x08c379a000000000000000000000000000000000000000000000000000000000\n      dup2\n      mstore\n      0x04\n      add\n      tag_69\n      swap1\n      tag_70\n      jump\t// in\n    tag_69:\n      mload(0x40)\n      dup1\n      swap2\n      sub\n      swap1\n      revert\n    tag_68:\n        /* \"contracts/milestone_distribution.sol\":2313:2327  newDescription */\n      dup1\n        /* \"contracts/milestone_distribution.sol\":2269:2278  charities */\n      0x02\n        /* \"contracts/milestone_distribution.sol\":2269:2289  charities[charityID] */\n      0x00\n        /* \"contracts/milestone_distribution.sol\":2279:2288  charityID */\n      dup5\n        /* \"contracts/milestone_distribution.sol\":2269:2289  charities[charityID] */\n      dup2\n      mstore\n      0x20\n      add\n      swap1\n      dup2\n      mstore\n      0x20\n      add\n      0x00\n      keccak256\n        /* \"contracts/milestone_distribution.sol\":2269:2310  charities[charityID].milestoneDescription */\n      0x05\n      add\n        /* \"contracts/milestone_distribution.sol\":2269:2327  charities[charityID].milestoneDescription = newDescription */\n      swap1\n      dup2\n      tag_71\n      swap2\n      swap1\n      tag_51\n      jump\t// in\n    tag_71:\n      pop\n        /* \"contracts/milestone_distribution.sol\":2053:2335  function updateMilestone(uint256 charityID, string memory newDescription) public {... */\n      pop\n      pop\n      jump\t// out\n        /* \"contracts/milestone_distribution.sol\":131:161  address public roleContractAdd */\n    tag_27:\n      0x01\n      0x00\n      swap1\n      sload\n      swap1\n      0x0100\n      exp\n      swap1\n      div\n      0xffffffffffffffffffffffffffffffffffffffff\n      and\n      dup2\n      jump\t// out\n        /* \"contracts/milestone_distribution.sol\":97:124  uint256 public charityCount */\n    tag_31:\n      sload(0x00)\n      dup2\n      jump\t// out\n        /* \"contracts/milestone_distribution.sol\":3010:3387  function charityExists(string memory _charity) public view returns (int256) {... */\n    tag_37:\n        /* \"contracts/milestone_distribution.sol\":3078:3084  int256 */\n      0x00\n        /* \"contracts/milestone_distribution.sol\":3102:3111  uint256 i */\n      0x00\n        /* \"contracts/milestone_distribution.sol\":3114:3115  1 */\n      0x01\n        /* \"contracts/milestone_distribution.sol\":3102:3115  uint256 i = 1 */\n      swap1\n      pop\n        /* \"contracts/milestone_distribution.sol\":3097:3360  for (uint256 i = 1; i <= charityCount; i++) {... */\n    tag_73:\n        /* \"contracts/milestone_distribution.sol\":3122:3134  charityCount */\n      sload(0x00)\n        /* \"contracts/milestone_distribution.sol\":3117:3118  i */\n      dup2\n        /* \"contracts/milestone_distribution.sol\":3117:3134  i <= charityCount */\n      gt\n        /* \"contracts/milestone_distribution.sol\":3097:3360  for (uint256 i = 1; i <= charityCount; i++) {... */\n      tag_74\n      jumpi\n        /* \"contracts/milestone_distribution.sol\":3272:3280  _charity */\n      dup3\n        /* \"contracts/milestone_distribution.sol\":3255:3281  abi.encodePacked(_charity) */\n      add(0x20, mload(0x40))\n      tag_76\n      swap2\n      swap1\n      tag_77\n      jump\t// in\n    tag_76:\n      mload(0x40)\n      0x20\n      dup2\n      dup4\n      sub\n      sub\n      dup2\n      mstore\n      swap1\n      0x40\n      mstore\n        /* \"contracts/milestone_distribution.sol\":3245:3282  keccak256(abi.encodePacked(_charity)) */\n      dup1\n      mload\n      swap1\n      0x20\n      add\n      keccak256\n        /* \"contracts/milestone_distribution.sol\":3205:3214  charities */\n      0x02\n        /* \"contracts/milestone_distribution.sol\":3205:3217  charities[i] */\n      0x00\n        /* \"contracts/milestone_distribution.sol\":3215:3216  i */\n      dup4\n        /* \"contracts/milestone_distribution.sol\":3205:3217  charities[i] */\n      dup2\n      mstore\n      0x20\n      add\n      swap1\n      dup2\n      mstore\n      0x20\n      add\n      0x00\n      keccak256\n        /* \"contracts/milestone_distribution.sol\":3205:3222  charities[i].name */\n      0x00\n      add\n        /* \"contracts/milestone_distribution.sol\":3188:3223  abi.encodePacked(charities[i].name) */\n      add(0x20, mload(0x40))\n      tag_78\n      swap2\n      swap1\n      tag_79\n      jump\t// in\n    tag_78:\n      mload(0x40)\n      0x20\n      dup2\n      dup4\n      sub\n      sub\n      dup2\n      mstore\n      swap1\n      0x40\n      mstore\n        /* \"contracts/milestone_distribution.sol\":3178:3224  keccak256(abi.encodePacked(charities[i].name)) */\n      dup1\n      mload\n      swap1\n      0x20\n      add\n      keccak256\n        /* \"contracts/milestone_distribution.sol\":3178:3282  keccak256(abi.encodePacked(charities[i].name)) ==... */\n      sub\n        /* \"contracts/milestone_distribution.sol\":3156:3349  if (... */\n      tag_80\n      jumpi\n        /* \"contracts/milestone_distribution.sol\":3331:3332  i */\n      dup1\n        /* \"contracts/milestone_distribution.sol\":3317:3333  return int256(i) */\n      swap2\n      pop\n      pop\n      jump(tag_72)\n        /* \"contracts/milestone_distribution.sol\":3156:3349  if (... */\n    tag_80:\n        /* \"contracts/milestone_distribution.sol\":3136:3139  i++ */\n      dup1\n      dup1\n      tag_81\n      swap1\n      tag_49\n      jump\t// in\n    tag_81:\n      swap2\n      pop\n      pop\n        /* \"contracts/milestone_distribution.sol\":3097:3360  for (uint256 i = 1; i <= charityCount; i++) {... */\n      jump(tag_73)\n    tag_74:\n      pop\n        /* \"contracts/milestone_distribution.sol\":3377:3379  -1 */\n      0xffffffffffffffffffffffffffffffffffffffffffffffffffffffffffffffff\n        /* \"contracts/milestone_distribution.sol\":3370:3379  return -1 */\n      swap1\n      pop\n        /* \"contracts/milestone_distribution.sol\":3010:3387  function charityExists(string memory _charity) public view returns (int256) {... */\n    tag_72:\n      swap2\n      swap1\n      pop\n      jump\t// out\n        /* \"contracts/milestone_distribution.sol\":1739:2045  function markMilestoneComplete(uint256 charityID) public {... */\n    tag_42:\n        /* \"contracts/milestone_distribution.sol\":1846:1855  charities */\n      0x02\n        /* \"contracts/milestone_distribution.sol\":1846:1866  charities[charityID] */\n      0x00\n        /* \"contracts/milestone_distribution.sol\":1856:1865  charityID */\n      dup3\n        /* \"contracts/milestone_distribution.sol\":1846:1866  charities[charityID] */\n      dup2\n      mstore\n      0x20\n      add\n      swap1\n      dup2\n      mstore\n      0x20\n      add\n      0x00\n      keccak256\n        /* \"contracts/milestone_distribution.sol\":1846:1881  charities[charityID].targetDonation */\n      0x03\n      add\n      sload\n        /* \"contracts/milestone_distribution.sol\":1810:1819  charities */\n      0x02\n        /* \"contracts/milestone_distribution.sol\":1810:1830  charities[charityID] */\n      0x00\n        /* \"contracts/milestone_distribution.sol\":1820:1829  charityID */\n      dup4\n        /* \"contracts/milestone_distribution.sol\":1810:1830  charities[charityID] */\n      dup2\n      mstore\n      0x20\n      add\n      swap1\n      dup2\n      mstore\n      0x20\n      add\n      0x00\n      keccak256\n        /* \"contracts/milestone_distribution.sol\":1810:1842  charities[charityID].totalRaised */\n      0x02\n      add\n      sload\n        /* \"contracts/milestone_distribution.sol\":1810:1881  charities[charityID].totalRaised >= charities[charityID].targetDonation */\n      lt\n        /* \"contracts/milestone_distribution.sol\":1807:2038  if(charities[charityID].totalRaised >= charities[charityID].targetDonation) {... */\n      tag_83\n      jumpi\n        /* \"contracts/milestone_distribution.sol\":1941:1945  true */\n      0x01\n        /* \"contracts/milestone_distribution.sol\":1898:1907  charities */\n      0x02\n        /* \"contracts/milestone_distribution.sol\":1898:1918  charities[charityID] */\n      0x00\n        /* \"contracts/milestone_distribution.sol\":1908:1917  charityID */\n      dup4\n        /* \"contracts/milestone_distribution.sol\":1898:1918  charities[charityID] */\n      dup2\n      mstore\n      0x20\n      add\n      swap1\n      dup2\n      mstore\n      0x20\n      add\n      0x00\n      keccak256\n        /* \"contracts/milestone_distribution.sol\":1898:1938  charities[charityID].isMilestoneComplete */\n      0x06\n      add\n      0x00\n        /* \"contracts/milestone_distribution.sol\":1898:1945  charities[charityID].isMilestoneComplete = true */\n      0x0100\n      exp\n      dup2\n      sload\n      dup2\n      0xff\n      mul\n      not\n      and\n      swap1\n      dup4\n      iszero\n      iszero\n      mul\n      or\n      swap1\n      sstore\n      pop\n        /* \"contracts/milestone_distribution.sol\":1807:2038  if(charities[charityID].totalRaised >= charities[charityID].targetDonation) {... */\n      jump(tag_84)\n    tag_83:\n        /* \"contracts/milestone_distribution.sol\":2021:2026  false */\n      0x00\n        /* \"contracts/milestone_distribution.sol\":1978:1987  charities */\n      0x02\n        /* \"contracts/milestone_distribution.sol\":1978:1998  charities[charityID] */\n      0x00\n        /* \"contracts/milestone_distribution.sol\":1988:1997  charityID */\n      dup4\n        /* \"contracts/milestone_distribution.sol\":1978:1998  charities[charityID] */\n      dup2\n      mstore\n      0x20\n      add\n      swap1\n      dup2\n      mstore\n      0x20\n      add\n      0x00\n      keccak256\n        /* \"contracts/milestone_distribution.sol\":1978:2018  charities[charityID].isMilestoneComplete */\n      0x06\n      add\n      0x00\n        /* \"contracts/milestone_distribution.sol\":1978:2026  charities[charityID].isMilestoneComplete = false */\n      0x0100\n      exp\n      dup2\n      sload\n      dup2\n      0xff\n      mul\n      not\n      and\n      swap1\n      dup4\n      iszero\n      iszero\n      mul\n      or\n      swap1\n      sstore\n      pop\n        /* \"contracts/milestone_distribution.sol\":1807:2038  if(charities[charityID].totalRaised >= charities[charityID].targetDonation) {... */\n    tag_84:\n        /* \"contracts/milestone_distribution.sol\":1739:2045  function markMilestoneComplete(uint256 charityID) public {... */\n      pop\n      jump\t// out\n        /* \"contracts/milestone_distribution.sol\":1315:1731  function contributeFunds(string memory _charity, uint256 _amount) external {... */\n    tag_46:\n        /* \"contracts/milestone_distribution.sol\":1401:1413  int256 index */\n      0x00\n        /* \"contracts/milestone_distribution.sol\":1416:1439  charityExists(_charity) */\n      tag_86\n        /* \"contracts/milestone_distribution.sol\":1430:1438  _charity */\n      dup4\n        /* \"contracts/milestone_distribution.sol\":1416:1429  charityExists */\n      tag_37\n        /* \"contracts/milestone_distribution.sol\":1416:1439  charityExists(_charity) */\n      jump\t// in\n    tag_86:\n        /* \"contracts/milestone_distribution.sol\":1401:1439  int256 index = charityExists(_charity) */\n      swap1\n      pop\n        /* \"contracts/milestone_distribution.sol\":1467:1469  -1 */\n      0xffffffffffffffffffffffffffffffffffffffffffffffffffffffffffffffff\n        /* \"contracts/milestone_distribution.sol\":1458:1463  index */\n      dup2\n        /* \"contracts/milestone_distribution.sol\":1458:1469  index != -1 */\n      sub\n        /* \"contracts/milestone_distribution.sol\":1450:1496  require(index != -1, \"Charity does not exist\") */\n      tag_87\n      jumpi\n      mload(0x40)\n      0x08c379a000000000000000000000000000000000000000000000000000000000\n      dup2\n      mstore\n      0x04\n      add\n      tag_88\n      swap1\n      tag_89\n      jump\t// in\n    tag_88:\n      mload(0x40)\n      dup1\n      swap2\n      sub\n      swap1\n      revert\n    tag_87:\n        /* \"contracts/milestone_distribution.sol\":1507:1537  CharityDetails storage charity */\n      0x00\n        /* \"contracts/milestone_distribution.sol\":1540:1549  charities */\n      0x02\n        /* \"contracts/milestone_distribution.sol\":1540:1565  charities[uint256(index)] */\n      0x00\n        /* \"contracts/milestone_distribution.sol\":1558:1563  index */\n      dup4\n        /* \"contracts/milestone_distribution.sol\":1540:1565  charities[uint256(index)] */\n      dup2\n      mstore\n      0x20\n      add\n      swap1\n      dup2\n      mstore\n      0x20\n      add\n      0x00\n      keccak256\n        /* \"contracts/milestone_distribution.sol\":1507:1565  CharityDetails storage charity = charities[uint256(index)] */\n      swap1\n      pop\n        /* \"contracts/milestone_distribution.sol\":1599:1606  _amount */\n      dup3\n        /* \"contracts/milestone_distribution.sol\":1576:1583  charity */\n      dup2\n        /* \"contracts/milestone_distribution.sol\":1576:1595  charity.totalRaised */\n      0x02\n      add\n      0x00\n        /* \"contracts/milestone_distribution.sol\":1576:1606  charity.totalRaised += _amount */\n      dup3\n      dup3\n      sload\n      tag_90\n      swap2\n      swap1\n      tag_91\n      jump\t// in\n    tag_90:\n      swap3\n      pop\n      pop\n      dup2\n      swap1\n      sstore\n      pop\n        /* \"contracts/milestone_distribution.sol\":1646:1653  charity */\n      dup1\n        /* \"contracts/milestone_distribution.sol\":1646:1668  charity.targetDonation */\n      0x03\n      add\n      sload\n        /* \"contracts/milestone_distribution.sol\":1623:1630  charity */\n      dup2\n        /* \"contracts/milestone_distribution.sol\":1623:1642  charity.totalRaised */\n      0x02\n      add\n      sload\n        /* \"contracts/milestone_distribution.sol\":1623:1668  charity.totalRaised >= charity.targetDonation */\n      lt\n        /* \"contracts/milestone_distribution.sol\":1619:1724  if (charity.totalRaised >= charity.targetDonation) {... */\n      tag_92\n      jumpi\n        /* \"contracts/milestone_distribution.sol\":1707:1712  false */\n      0x00\n        /* \"contracts/milestone_distribution.sol\":1685:1692  charity */\n      dup2\n        /* \"contracts/milestone_distribution.sol\":1685:1704  charity.fundsLocked */\n      0x04\n      add\n      0x00\n        /* \"contracts/milestone_distribution.sol\":1685:1712  charity.fundsLocked = false */\n      0x0100\n      exp\n      dup2\n      sload\n      dup2\n      0xff\n      mul\n      not\n      and\n      swap1\n      dup4\n      iszero\n      iszero\n      mul\n      or\n      swap1\n      sstore\n      pop\n        /* \"contracts/milestone_distribution.sol\":1619:1724  if (charity.totalRaised >= charity.targetDonation) {... */\n    tag_92:\n        /* \"contracts/milestone_distribution.sol\":1390:1731  {... */\n      pop\n      pop\n        /* \"contracts/milestone_distribution.sol\":1315:1731  function contributeFunds(string memory _charity, uint256 _amount) external {... */\n      pop\n      pop\n      jump\t// out\n        /* \"#utility.yul\":7:82   */\n    tag_93:\n        /* \"#utility.yul\":40:46   */\n      0x00\n        /* \"#utility.yul\":73:75   */\n      0x40\n        /* \"#utility.yul\":67:76   */\n      mload\n        /* \"#utility.yul\":57:76   */\n      swap1\n      pop\n        /* \"#utility.yul\":7:82   */\n      swap1\n      jump\t// out\n        /* \"#utility.yul\":88:205   */\n    tag_94:\n        /* \"#utility.yul\":197:198   */\n      0x00\n        /* \"#utility.yul\":194:195   */\n      0x00\n        /* \"#utility.yul\":187:199   */\n      revert\n        /* \"#utility.yul\":211:328   */\n    tag_95:\n        /* \"#utility.yul\":320:321   */\n      0x00\n        /* \"#utility.yul\":317:318   */\n      0x00\n        /* \"#utility.yul\":310:322   */\n      revert\n        /* \"#utility.yul\":334:451   */\n    tag_96:\n        /* \"#utility.yul\":443:444   */\n      0x00\n        /* \"#utility.yul\":440:441   */\n      0x00\n        /* \"#utility.yul\":433:445   */\n      revert\n        /* \"#utility.yul\":457:574   */\n    tag_97:\n        /* \"#utility.yul\":566:567   */\n      0x00\n        /* \"#utility.yul\":563:564   */\n      0x00\n        /* \"#utility.yul\":556:568   */\n      revert\n        /* \"#utility.yul\":580:682   */\n    tag_98:\n        /* \"#utility.yul\":621:627   */\n      0x00\n        /* \"#utility.yul\":672:674   */\n      0x1f\n        /* \"#utility.yul\":668:675   */\n      not\n        /* \"#utility.yul\":663:665   */\n      0x1f\n        /* \"#utility.yul\":656:661   */\n      dup4\n        /* \"#utility.yul\":652:666   */\n      add\n        /* \"#utility.yul\":648:676   */\n      and\n        /* \"#utility.yul\":638:676   */\n      swap1\n      pop\n        /* \"#utility.yul\":580:682   */\n      swap2\n      swap1\n      pop\n      jump\t// out\n        /* \"#utility.yul\":688:868   */\n    tag_99:\n        /* \"#utility.yul\":736:813   */\n      0x4e487b7100000000000000000000000000000000000000000000000000000000\n        /* \"#utility.yul\":733:734   */\n      0x00\n        /* \"#utility.yul\":726:814   */\n      mstore\n        /* \"#utility.yul\":833:837   */\n      0x41\n        /* \"#utility.yul\":830:831   */\n      0x04\n        /* \"#utility.yul\":823:838   */\n      mstore\n        /* \"#utility.yul\":857:861   */\n      0x24\n        /* \"#utility.yul\":854:855   */\n      0x00\n        /* \"#utility.yul\":847:862   */\n      revert\n        /* \"#utility.yul\":874:1155   */\n    tag_100:\n        /* \"#utility.yul\":957:984   */\n      tag_162\n        /* \"#utility.yul\":979:983   */\n      dup3\n        /* \"#utility.yul\":957:984   */\n      tag_98\n      jump\t// in\n    tag_162:\n        /* \"#utility.yul\":949:955   */\n      dup2\n        /* \"#utility.yul\":945:985   */\n      add\n        /* \"#utility.yul\":1087:1093   */\n      dup2\n        /* \"#utility.yul\":1075:1085   */\n      dup2\n        /* \"#utility.yul\":1072:1094   */\n      lt\n        /* \"#utility.yul\":1051:1069   */\n      0xffffffffffffffff\n        /* \"#utility.yul\":1039:1049   */\n      dup3\n        /* \"#utility.yul\":1036:1070   */\n      gt\n        /* \"#utility.yul\":1033:1095   */\n      or\n        /* \"#utility.yul\":1030:1118   */\n      iszero\n      tag_163\n      jumpi\n        /* \"#utility.yul\":1098:1116   */\n      tag_164\n      tag_99\n      jump\t// in\n    tag_164:\n        /* \"#utility.yul\":1030:1118   */\n    tag_163:\n        /* \"#utility.yul\":1138:1148   */\n      dup1\n        /* \"#utility.yul\":1134:1136   */\n      0x40\n        /* \"#utility.yul\":1127:1149   */\n      mstore\n        /* \"#utility.yul\":917:1155   */\n      pop\n        /* \"#utility.yul\":874:1155   */\n      pop\n      pop\n      jump\t// out\n        /* \"#utility.yul\":1161:1290   */\n    tag_101:\n        /* \"#utility.yul\":1195:1201   */\n      0x00\n        /* \"#utility.yul\":1222:1242   */\n      tag_166\n      tag_93\n      jump\t// in\n    tag_166:\n        /* \"#utility.yul\":1212:1242   */\n      swap1\n      pop\n        /* \"#utility.yul\":1251:1284   */\n      tag_167\n        /* \"#utility.yul\":1279:1283   */\n      dup3\n        /* \"#utility.yul\":1271:1277   */\n      dup3\n        /* \"#utility.yul\":1251:1284   */\n      tag_100\n      jump\t// in\n    tag_167:\n        /* \"#utility.yul\":1161:1290   */\n      swap2\n      swap1\n      pop\n      jump\t// out\n        /* \"#utility.yul\":1296:1604   */\n    tag_102:\n        /* \"#utility.yul\":1358:1362   */\n      0x00\n        /* \"#utility.yul\":1448:1466   */\n      0xffffffffffffffff\n        /* \"#utility.yul\":1440:1446   */\n      dup3\n        /* \"#utility.yul\":1437:1467   */\n      gt\n        /* \"#utility.yul\":1434:1490   */\n      iszero\n      tag_169\n      jumpi\n        /* \"#utility.yul\":1470:1488   */\n      tag_170\n      tag_99\n      jump\t// in\n    tag_170:\n        /* \"#utility.yul\":1434:1490   */\n    tag_169:\n        /* \"#utility.yul\":1508:1537   */\n      tag_171\n        /* \"#utility.yul\":1530:1536   */\n      dup3\n        /* \"#utility.yul\":1508:1537   */\n      tag_98\n      jump\t// in\n    tag_171:\n        /* \"#utility.yul\":1500:1537   */\n      swap1\n      pop\n        /* \"#utility.yul\":1592:1596   */\n      0x20\n        /* \"#utility.yul\":1586:1590   */\n      dup2\n        /* \"#utility.yul\":1582:1597   */\n      add\n        /* \"#utility.yul\":1574:1597   */\n      swap1\n      pop\n        /* \"#utility.yul\":1296:1604   */\n      swap2\n      swap1\n      pop\n      jump\t// out\n        /* \"#utility.yul\":1610:1758   */\n    tag_103:\n        /* \"#utility.yul\":1708:1714   */\n      dup3\n        /* \"#utility.yul\":1703:1706   */\n      dup2\n        /* \"#utility.yul\":1698:1701   */\n      dup4\n        /* \"#utility.yul\":1685:1715   */\n      calldatacopy\n        /* \"#utility.yul\":1749:1750   */\n      0x00\n        /* \"#utility.yul\":1740:1746   */\n      dup4\n        /* \"#utility.yul\":1735:1738   */\n      dup4\n        /* \"#utility.yul\":1731:1747   */\n      add\n        /* \"#utility.yul\":1724:1751   */\n      mstore\n        /* \"#utility.yul\":1610:1758   */\n      pop\n      pop\n      pop\n      jump\t// out\n        /* \"#utility.yul\":1764:2189   */\n    tag_104:\n        /* \"#utility.yul\":1842:1847   */\n      0x00\n        /* \"#utility.yul\":1867:1933   */\n      tag_174\n        /* \"#utility.yul\":1883:1932   */\n      tag_175\n        /* \"#utility.yul\":1925:1931   */\n      dup5\n        /* \"#utility.yul\":1883:1932   */\n      tag_102\n      jump\t// in\n    tag_175:\n        /* \"#utility.yul\":1867:1933   */\n      tag_101\n      jump\t// in\n    tag_174:\n        /* \"#utility.yul\":1858:1933   */\n      swap1\n      pop\n        /* \"#utility.yul\":1956:1962   */\n      dup3\n        /* \"#utility.yul\":1949:1954   */\n      dup2\n        /* \"#utility.yul\":1942:1963   */\n      mstore\n        /* \"#utility.yul\":1994:1998   */\n      0x20\n        /* \"#utility.yul\":1987:1992   */\n      dup2\n        /* \"#utility.yul\":1983:1999   */\n      add\n        /* \"#utility.yul\":2032:2035   */\n      dup5\n        /* \"#utility.yul\":2023:2029   */\n      dup5\n        /* \"#utility.yul\":2018:2021   */\n      dup5\n        /* \"#utility.yul\":2014:2030   */\n      add\n        /* \"#utility.yul\":2011:2036   */\n      gt\n        /* \"#utility.yul\":2008:2120   */\n      iszero\n      tag_176\n      jumpi\n        /* \"#utility.yul\":2039:2118   */\n      tag_177\n      tag_97\n      jump\t// in\n    tag_177:\n        /* \"#utility.yul\":2008:2120   */\n    tag_176:\n        /* \"#utility.yul\":2129:2183   */\n      tag_178\n        /* \"#utility.yul\":2176:2182   */\n      dup5\n        /* \"#utility.yul\":2171:2174   */\n      dup3\n        /* \"#utility.yul\":2166:2169   */\n      dup6\n        /* \"#utility.yul\":2129:2183   */\n      tag_103\n      jump\t// in\n    tag_178:\n        /* \"#utility.yul\":1848:2189   */\n      pop\n        /* \"#utility.yul\":1764:2189   */\n      swap4\n      swap3\n      pop\n      pop\n      pop\n      jump\t// out\n        /* \"#utility.yul\":2209:2549   */\n    tag_105:\n        /* \"#utility.yul\":2265:2270   */\n      0x00\n        /* \"#utility.yul\":2314:2317   */\n      dup3\n        /* \"#utility.yul\":2307:2311   */\n      0x1f\n        /* \"#utility.yul\":2299:2305   */\n      dup4\n        /* \"#utility.yul\":2295:2312   */\n      add\n        /* \"#utility.yul\":2291:2318   */\n      slt\n        /* \"#utility.yul\":2281:2403   */\n      tag_180\n      jumpi\n        /* \"#utility.yul\":2322:2401   */\n      tag_181\n      tag_96\n      jump\t// in\n    tag_181:\n        /* \"#utility.yul\":2281:2403   */\n    tag_180:\n        /* \"#utility.yul\":2439:2445   */\n      dup2\n        /* \"#utility.yul\":2426:2446   */\n      calldataload\n        /* \"#utility.yul\":2464:2543   */\n      tag_182\n        /* \"#utility.yul\":2539:2542   */\n      dup5\n        /* \"#utility.yul\":2531:2537   */\n      dup3\n        /* \"#utility.yul\":2524:2528   */\n      0x20\n        /* \"#utility.yul\":2516:2522   */\n      dup7\n        /* \"#utility.yul\":2512:2529   */\n      add\n        /* \"#utility.yul\":2464:2543   */\n      tag_104\n      jump\t// in\n    tag_182:\n        /* \"#utility.yul\":2455:2543   */\n      swap2\n      pop\n        /* \"#utility.yul\":2271:2549   */\n      pop\n        /* \"#utility.yul\":2209:2549   */\n      swap3\n      swap2\n      pop\n      pop\n      jump\t// out\n        /* \"#utility.yul\":2555:2681   */\n    tag_106:\n        /* \"#utility.yul\":2592:2599   */\n      0x00\n        /* \"#utility.yul\":2632:2674   */\n      0xffffffffffffffffffffffffffffffffffffffff\n        /* \"#utility.yul\":2625:2630   */\n      dup3\n        /* \"#utility.yul\":2621:2675   */\n      and\n        /* \"#utility.yul\":2610:2675   */\n      swap1\n      pop\n        /* \"#utility.yul\":2555:2681   */\n      swap2\n      swap1\n      pop\n      jump\t// out\n        /* \"#utility.yul\":2687:2783   */\n    tag_107:\n        /* \"#utility.yul\":2724:2731   */\n      0x00\n        /* \"#utility.yul\":2753:2777   */\n      tag_185\n        /* \"#utility.yul\":2771:2776   */\n      dup3\n        /* \"#utility.yul\":2753:2777   */\n      tag_106\n      jump\t// in\n    tag_185:\n        /* \"#utility.yul\":2742:2777   */\n      swap1\n      pop\n        /* \"#utility.yul\":2687:2783   */\n      swap2\n      swap1\n      pop\n      jump\t// out\n        /* \"#utility.yul\":2789:2911   */\n    tag_108:\n        /* \"#utility.yul\":2862:2886   */\n      tag_187\n        /* \"#utility.yul\":2880:2885   */\n      dup2\n        /* \"#utility.yul\":2862:2886   */\n      tag_107\n      jump\t// in\n    tag_187:\n        /* \"#utility.yul\":2855:2860   */\n      dup2\n        /* \"#utility.yul\":2852:2887   */\n      eq\n        /* \"#utility.yul\":2842:2905   */\n      tag_188\n      jumpi\n        /* \"#utility.yul\":2901:2902   */\n      0x00\n        /* \"#utility.yul\":2898:2899   */\n      0x00\n        /* \"#utility.yul\":2891:2903   */\n      revert\n        /* \"#utility.yul\":2842:2905   */\n    tag_188:\n        /* \"#utility.yul\":2789:2911   */\n      pop\n      jump\t// out\n        /* \"#utility.yul\":2917:3056   */\n    tag_109:\n        /* \"#utility.yul\":2963:2968   */\n      0x00\n        /* \"#utility.yul\":3001:3007   */\n      dup2\n        /* \"#utility.yul\":2988:3008   */\n      calldataload\n        /* \"#utility.yul\":2979:3008   */\n      swap1\n      pop\n        /* \"#utility.yul\":3017:3050   */\n      tag_190\n        /* \"#utility.yul\":3044:3049   */\n      dup2\n        /* \"#utility.yul\":3017:3050   */\n      tag_108\n      jump\t// in\n    tag_190:\n        /* \"#utility.yul\":2917:3056   */\n      swap3\n      swap2\n      pop\n      pop\n      jump\t// out\n        /* \"#utility.yul\":3062:4041   */\n    tag_14:\n        /* \"#utility.yul\":3159:3165   */\n      0x00\n        /* \"#utility.yul\":3167:3173   */\n      0x00\n        /* \"#utility.yul\":3175:3181   */\n      0x00\n        /* \"#utility.yul\":3224:3226   */\n      0x60\n        /* \"#utility.yul\":3212:3221   */\n      dup5\n        /* \"#utility.yul\":3203:3210   */\n      dup7\n        /* \"#utility.yul\":3199:3222   */\n      sub\n        /* \"#utility.yul\":3195:3227   */\n      slt\n        /* \"#utility.yul\":3192:3311   */\n      iszero\n      tag_192\n      jumpi\n        /* \"#utility.yul\":3230:3309   */\n      tag_193\n      tag_94\n      jump\t// in\n    tag_193:\n        /* \"#utility.yul\":3192:3311   */\n    tag_192:\n        /* \"#utility.yul\":3378:3379   */\n      0x00\n        /* \"#utility.yul\":3367:3376   */\n      dup5\n        /* \"#utility.yul\":3363:3380   */\n      add\n        /* \"#utility.yul\":3350:3381   */\n      calldataload\n        /* \"#utility.yul\":3408:3426   */\n      0xffffffffffffffff\n        /* \"#utility.yul\":3400:3406   */\n      dup2\n        /* \"#utility.yul\":3397:3427   */\n      gt\n        /* \"#utility.yul\":3394:3511   */\n      iszero\n      tag_194\n      jumpi\n        /* \"#utility.yul\":3430:3509   */\n      tag_195\n      tag_95\n      jump\t// in\n    tag_195:\n        /* \"#utility.yul\":3394:3511   */\n    tag_194:\n        /* \"#utility.yul\":3535:3598   */\n      tag_196\n        /* \"#utility.yul\":3590:3597   */\n      dup7\n        /* \"#utility.yul\":3581:3587   */\n      dup3\n        /* \"#utility.yul\":3570:3579   */\n      dup8\n        /* \"#utility.yul\":3566:3588   */\n      add\n        /* \"#utility.yul\":3535:3598   */\n      tag_105\n      jump\t// in\n    tag_196:\n        /* \"#utility.yul\":3525:3598   */\n      swap4\n      pop\n        /* \"#utility.yul\":3321:3608   */\n      pop\n        /* \"#utility.yul\":3647:3649   */\n      0x20\n        /* \"#utility.yul\":3673:3726   */\n      tag_197\n        /* \"#utility.yul\":3718:3725   */\n      dup7\n        /* \"#utility.yul\":3709:3715   */\n      dup3\n        /* \"#utility.yul\":3698:3707   */\n      dup8\n        /* \"#utility.yul\":3694:3716   */\n      add\n        /* \"#utility.yul\":3673:3726   */\n      tag_109\n      jump\t// in\n    tag_197:\n        /* \"#utility.yul\":3663:3726   */\n      swap3\n      pop\n        /* \"#utility.yul\":3618:3736   */\n      pop\n        /* \"#utility.yul\":3803:3805   */\n      0x40\n        /* \"#utility.yul\":3792:3801   */\n      dup5\n        /* \"#utility.yul\":3788:3806   */\n      add\n        /* \"#utility.yul\":3775:3807   */\n      calldataload\n        /* \"#utility.yul\":3834:3852   */\n      0xffffffffffffffff\n        /* \"#utility.yul\":3826:3832   */\n      dup2\n        /* \"#utility.yul\":3823:3853   */\n      gt\n        /* \"#utility.yul\":3820:3937   */\n      iszero\n      tag_198\n      jumpi\n        /* \"#utility.yul\":3856:3935   */\n      tag_199\n      tag_95\n      jump\t// in\n    tag_199:\n        /* \"#utility.yul\":3820:3937   */\n    tag_198:\n        /* \"#utility.yul\":3961:4024   */\n      tag_200\n        /* \"#utility.yul\":4016:4023   */\n      dup7\n        /* \"#utility.yul\":4007:4013   */\n      dup3\n        /* \"#utility.yul\":3996:4005   */\n      dup8\n        /* \"#utility.yul\":3992:4014   */\n      add\n        /* \"#utility.yul\":3961:4024   */\n      tag_105\n      jump\t// in\n    tag_200:\n        /* \"#utility.yul\":3951:4024   */\n      swap2\n      pop\n        /* \"#utility.yul\":3746:4034   */\n      pop\n        /* \"#utility.yul\":3062:4041   */\n      swap3\n      pop\n      swap3\n      pop\n      swap3\n      jump\t// out\n        /* \"#utility.yul\":4047:4124   */\n    tag_110:\n        /* \"#utility.yul\":4084:4091   */\n      0x00\n        /* \"#utility.yul\":4113:4118   */\n      dup2\n        /* \"#utility.yul\":4102:4118   */\n      swap1\n      pop\n        /* \"#utility.yul\":4047:4124   */\n      swap2\n      swap1\n      pop\n      jump\t// out\n        /* \"#utility.yul\":4130:4252   */\n    tag_111:\n        /* \"#utility.yul\":4203:4227   */\n      tag_203\n        /* \"#utility.yul\":4221:4226   */\n      dup2\n        /* \"#utility.yul\":4203:4227   */\n      tag_110\n      jump\t// in\n    tag_203:\n        /* \"#utility.yul\":4196:4201   */\n      dup2\n        /* \"#utility.yul\":4193:4228   */\n      eq\n        /* \"#utility.yul\":4183:4246   */\n      tag_204\n      jumpi\n        /* \"#utility.yul\":4242:4243   */\n      0x00\n        /* \"#utility.yul\":4239:4240   */\n      0x00\n        /* \"#utility.yul\":4232:4244   */\n      revert\n        /* \"#utility.yul\":4183:4246   */\n    tag_204:\n        /* \"#utility.yul\":4130:4252   */\n      pop\n      jump\t// out\n        /* \"#utility.yul\":4258:4397   */\n    tag_112:\n        /* \"#utility.yul\":4304:4309   */\n      0x00\n        /* \"#utility.yul\":4342:4348   */\n      dup2\n        /* \"#utility.yul\":4329:4349   */\n      calldataload\n        /* \"#utility.yul\":4320:4349   */\n      swap1\n      pop\n        /* \"#utility.yul\":4358:4391   */\n      tag_206\n        /* \"#utility.yul\":4385:4390   */\n      dup2\n        /* \"#utility.yul\":4358:4391   */\n      tag_111\n      jump\t// in\n    tag_206:\n        /* \"#utility.yul\":4258:4397   */\n      swap3\n      swap2\n      pop\n      pop\n      jump\t// out\n        /* \"#utility.yul\":4403:4732   */\n    tag_18:\n        /* \"#utility.yul\":4462:4468   */\n      0x00\n        /* \"#utility.yul\":4511:4513   */\n      0x20\n        /* \"#utility.yul\":4499:4508   */\n      dup3\n        /* \"#utility.yul\":4490:4497   */\n      dup5\n        /* \"#utility.yul\":4486:4509   */\n      sub\n        /* \"#utility.yul\":4482:4514   */\n      slt\n        /* \"#utility.yul\":4479:4598   */\n      iszero\n      tag_208\n      jumpi\n        /* \"#utility.yul\":4517:4596   */\n      tag_209\n      tag_94\n      jump\t// in\n    tag_209:\n        /* \"#utility.yul\":4479:4598   */\n    tag_208:\n        /* \"#utility.yul\":4637:4638   */\n      0x00\n        /* \"#utility.yul\":4662:4715   */\n      tag_210\n        /* \"#utility.yul\":4707:4714   */\n      dup5\n        /* \"#utility.yul\":4698:4704   */\n      dup3\n        /* \"#utility.yul\":4687:4696   */\n      dup6\n        /* \"#utility.yul\":4683:4705   */\n      add\n        /* \"#utility.yul\":4662:4715   */\n      tag_112\n      jump\t// in\n    tag_210:\n        /* \"#utility.yul\":4652:4715   */\n      swap2\n      pop\n        /* \"#utility.yul\":4608:4725   */\n      pop\n        /* \"#utility.yul\":4403:4732   */\n      swap3\n      swap2\n      pop\n      pop\n      jump\t// out\n        /* \"#utility.yul\":4738:4837   */\n    tag_113:\n        /* \"#utility.yul\":4790:4796   */\n      0x00\n        /* \"#utility.yul\":4824:4829   */\n      dup2\n        /* \"#utility.yul\":4818:4830   */\n      mload\n        /* \"#utility.yul\":4808:4830   */\n      swap1\n      pop\n        /* \"#utility.yul\":4738:4837   */\n      swap2\n      swap1\n      pop\n      jump\t// out\n        /* \"#utility.yul\":4843:5012   */\n    tag_114:\n        /* \"#utility.yul\":4927:4938   */\n      0x00\n        /* \"#utility.yul\":4961:4967   */\n      dup3\n        /* \"#utility.yul\":4956:4959   */\n      dup3\n        /* \"#utility.yul\":4949:4968   */\n      mstore\n        /* \"#utility.yul\":5001:5005   */\n      0x20\n        /* \"#utility.yul\":4996:4999   */\n      dup3\n        /* \"#utility.yul\":4992:5006   */\n      add\n        /* \"#utility.yul\":4977:5006   */\n      swap1\n      pop\n        /* \"#utility.yul\":4843:5012   */\n      swap3\n      swap2\n      pop\n      pop\n      jump\t// out\n        /* \"#utility.yul\":5018:5157   */\n    tag_115:\n        /* \"#utility.yul\":5107:5113   */\n      dup3\n        /* \"#utility.yul\":5102:5105   */\n      dup2\n        /* \"#utility.yul\":5097:5100   */\n      dup4\n        /* \"#utility.yul\":5091:5114   */\n      mcopy\n        /* \"#utility.yul\":5148:5149   */\n      0x00\n        /* \"#utility.yul\":5139:5145   */\n      dup4\n        /* \"#utility.yul\":5134:5137   */\n      dup4\n        /* \"#utility.yul\":5130:5146   */\n      add\n        /* \"#utility.yul\":5123:5150   */\n      mstore\n        /* \"#utility.yul\":5018:5157   */\n      pop\n      pop\n      pop\n      jump\t// out\n        /* \"#utility.yul\":5163:5540   */\n    tag_116:\n        /* \"#utility.yul\":5251:5254   */\n      0x00\n        /* \"#utility.yul\":5279:5318   */\n      tag_215\n        /* \"#utility.yul\":5312:5317   */\n      dup3\n        /* \"#utility.yul\":5279:5318   */\n      tag_113\n      jump\t// in\n    tag_215:\n        /* \"#utility.yul\":5334:5405   */\n      tag_216\n        /* \"#utility.yul\":5398:5404   */\n      dup2\n        /* \"#utility.yul\":5393:5396   */\n      dup6\n        /* \"#utility.yul\":5334:5405   */\n      tag_114\n      jump\t// in\n    tag_216:\n        /* \"#utility.yul\":5327:5405   */\n      swap4\n      pop\n        /* \"#utility.yul\":5414:5479   */\n      tag_217\n        /* \"#utility.yul\":5472:5478   */\n      dup2\n        /* \"#utility.yul\":5467:5470   */\n      dup6\n        /* \"#utility.yul\":5460:5464   */\n      0x20\n        /* \"#utility.yul\":5453:5458   */\n      dup7\n        /* \"#utility.yul\":5449:5465   */\n      add\n        /* \"#utility.yul\":5414:5479   */\n      tag_115\n      jump\t// in\n    tag_217:\n        /* \"#utility.yul\":5504:5533   */\n      tag_218\n        /* \"#utility.yul\":5526:5532   */\n      dup2\n        /* \"#utility.yul\":5504:5533   */\n      tag_98\n      jump\t// in\n    tag_218:\n        /* \"#utility.yul\":5499:5502   */\n      dup5\n        /* \"#utility.yul\":5495:5534   */\n      add\n        /* \"#utility.yul\":5488:5534   */\n      swap2\n      pop\n        /* \"#utility.yul\":5255:5540   */\n      pop\n        /* \"#utility.yul\":5163:5540   */\n      swap3\n      swap2\n      pop\n      pop\n      jump\t// out\n        /* \"#utility.yul\":5546:5664   */\n    tag_117:\n        /* \"#utility.yul\":5633:5657   */\n      tag_220\n        /* \"#utility.yul\":5651:5656   */\n      dup2\n        /* \"#utility.yul\":5633:5657   */\n      tag_107\n      jump\t// in\n    tag_220:\n        /* \"#utility.yul\":5628:5631   */\n      dup3\n        /* \"#utility.yul\":5621:5658   */\n      mstore\n        /* \"#utility.yul\":5546:5664   */\n      pop\n      pop\n      jump\t// out\n        /* \"#utility.yul\":5670:5788   */\n    tag_118:\n        /* \"#utility.yul\":5757:5781   */\n      tag_222\n        /* \"#utility.yul\":5775:5780   */\n      dup2\n        /* \"#utility.yul\":5757:5781   */\n      tag_110\n      jump\t// in\n    tag_222:\n        /* \"#utility.yul\":5752:5755   */\n      dup3\n        /* \"#utility.yul\":5745:5782   */\n      mstore\n        /* \"#utility.yul\":5670:5788   */\n      pop\n      pop\n      jump\t// out\n        /* \"#utility.yul\":5794:5884   */\n    tag_119:\n        /* \"#utility.yul\":5828:5835   */\n      0x00\n        /* \"#utility.yul\":5871:5876   */\n      dup2\n        /* \"#utility.yul\":5864:5877   */\n      iszero\n        /* \"#utility.yul\":5857:5878   */\n      iszero\n        /* \"#utility.yul\":5846:5878   */\n      swap1\n      pop\n        /* \"#utility.yul\":5794:5884   */\n      swap2\n      swap1\n      pop\n      jump\t// out\n        /* \"#utility.yul\":5890:5999   */\n    tag_120:\n        /* \"#utility.yul\":5971:5992   */\n      tag_225\n        /* \"#utility.yul\":5986:5991   */\n      dup2\n        /* \"#utility.yul\":5971:5992   */\n      tag_119\n      jump\t// in\n    tag_225:\n        /* \"#utility.yul\":5966:5969   */\n      dup3\n        /* \"#utility.yul\":5959:5993   */\n      mstore\n        /* \"#utility.yul\":5890:5999   */\n      pop\n      pop\n      jump\t// out\n        /* \"#utility.yul\":6005:7049   */\n    tag_21:\n        /* \"#utility.yul\":6294:6298   */\n      0x00\n        /* \"#utility.yul\":6332:6335   */\n      0xe0\n        /* \"#utility.yul\":6321:6330   */\n      dup3\n        /* \"#utility.yul\":6317:6336   */\n      add\n        /* \"#utility.yul\":6309:6336   */\n      swap1\n      pop\n        /* \"#utility.yul\":6382:6391   */\n      dup2\n        /* \"#utility.yul\":6376:6380   */\n      dup2\n        /* \"#utility.yul\":6372:6392   */\n      sub\n        /* \"#utility.yul\":6368:6369   */\n      0x00\n        /* \"#utility.yul\":6357:6366   */\n      dup4\n        /* \"#utility.yul\":6353:6370   */\n      add\n        /* \"#utility.yul\":6346:6393   */\n      mstore\n        /* \"#utility.yul\":6410:6488   */\n      tag_227\n        /* \"#utility.yul\":6483:6487   */\n      dup2\n        /* \"#utility.yul\":6474:6480   */\n      dup11\n        /* \"#utility.yul\":6410:6488   */\n      tag_116\n      jump\t// in\n    tag_227:\n        /* \"#utility.yul\":6402:6488   */\n      swap1\n      pop\n        /* \"#utility.yul\":6498:6570   */\n      tag_228\n        /* \"#utility.yul\":6566:6568   */\n      0x20\n        /* \"#utility.yul\":6555:6564   */\n      dup4\n        /* \"#utility.yul\":6551:6569   */\n      add\n        /* \"#utility.yul\":6542:6548   */\n      dup10\n        /* \"#utility.yul\":6498:6570   */\n      tag_117\n      jump\t// in\n    tag_228:\n        /* \"#utility.yul\":6580:6652   */\n      tag_229\n        /* \"#utility.yul\":6648:6650   */\n      0x40\n        /* \"#utility.yul\":6637:6646   */\n      dup4\n        /* \"#utility.yul\":6633:6651   */\n      add\n        /* \"#utility.yul\":6624:6630   */\n      dup9\n        /* \"#utility.yul\":6580:6652   */\n      tag_118\n      jump\t// in\n    tag_229:\n        /* \"#utility.yul\":6662:6734   */\n      tag_230\n        /* \"#utility.yul\":6730:6732   */\n      0x60\n        /* \"#utility.yul\":6719:6728   */\n      dup4\n        /* \"#utility.yul\":6715:6733   */\n      add\n        /* \"#utility.yul\":6706:6712   */\n      dup8\n        /* \"#utility.yul\":6662:6734   */\n      tag_118\n      jump\t// in\n    tag_230:\n        /* \"#utility.yul\":6744:6811   */\n      tag_231\n        /* \"#utility.yul\":6806:6809   */\n      0x80\n        /* \"#utility.yul\":6795:6804   */\n      dup4\n        /* \"#utility.yul\":6791:6810   */\n      add\n        /* \"#utility.yul\":6782:6788   */\n      dup7\n        /* \"#utility.yul\":6744:6811   */\n      tag_120\n      jump\t// in\n    tag_231:\n        /* \"#utility.yul\":6859:6868   */\n      dup2\n        /* \"#utility.yul\":6853:6857   */\n      dup2\n        /* \"#utility.yul\":6849:6869   */\n      sub\n        /* \"#utility.yul\":6843:6846   */\n      0xa0\n        /* \"#utility.yul\":6832:6841   */\n      dup4\n        /* \"#utility.yul\":6828:6847   */\n      add\n        /* \"#utility.yul\":6821:6870   */\n      mstore\n        /* \"#utility.yul\":6887:6965   */\n      tag_232\n        /* \"#utility.yul\":6960:6964   */\n      dup2\n        /* \"#utility.yul\":6951:6957   */\n      dup6\n        /* \"#utility.yul\":6887:6965   */\n      tag_116\n      jump\t// in\n    tag_232:\n        /* \"#utility.yul\":6879:6965   */\n      swap1\n      pop\n        /* \"#utility.yul\":6975:7042   */\n      tag_233\n        /* \"#utility.yul\":7037:7040   */\n      0xc0\n        /* \"#utility.yul\":7026:7035   */\n      dup4\n        /* \"#utility.yul\":7022:7041   */\n      add\n        /* \"#utility.yul\":7013:7019   */\n      dup5\n        /* \"#utility.yul\":6975:7042   */\n      tag_120\n      jump\t// in\n    tag_233:\n        /* \"#utility.yul\":6005:7049   */\n      swap9\n      swap8\n      pop\n      pop\n      pop\n      pop\n      pop\n      pop\n      pop\n      pop\n      jump\t// out\n        /* \"#utility.yul\":7055:7709   */\n    tag_24:\n        /* \"#utility.yul\":7133:7139   */\n      0x00\n        /* \"#utility.yul\":7141:7147   */\n      0x00\n        /* \"#utility.yul\":7190:7192   */\n      0x40\n        /* \"#utility.yul\":7178:7187   */\n      dup4\n        /* \"#utility.yul\":7169:7176   */\n      dup6\n        /* \"#utility.yul\":7165:7188   */\n      sub\n        /* \"#utility.yul\":7161:7193   */\n      slt\n        /* \"#utility.yul\":7158:7277   */\n      iszero\n      tag_235\n      jumpi\n        /* \"#utility.yul\":7196:7275   */\n      tag_236\n      tag_94\n      jump\t// in\n    tag_236:\n        /* \"#utility.yul\":7158:7277   */\n    tag_235:\n        /* \"#utility.yul\":7316:7317   */\n      0x00\n        /* \"#utility.yul\":7341:7394   */\n      tag_237\n        /* \"#utility.yul\":7386:7393   */\n      dup6\n        /* \"#utility.yul\":7377:7383   */\n      dup3\n        /* \"#utility.yul\":7366:7375   */\n      dup7\n        /* \"#utility.yul\":7362:7384   */\n      add\n        /* \"#utility.yul\":7341:7394   */\n      tag_112\n      jump\t// in\n    tag_237:\n        /* \"#utility.yul\":7331:7394   */\n      swap3\n      pop\n        /* \"#utility.yul\":7287:7404   */\n      pop\n        /* \"#utility.yul\":7471:7473   */\n      0x20\n        /* \"#utility.yul\":7460:7469   */\n      dup4\n        /* \"#utility.yul\":7456:7474   */\n      add\n        /* \"#utility.yul\":7443:7475   */\n      calldataload\n        /* \"#utility.yul\":7502:7520   */\n      0xffffffffffffffff\n        /* \"#utility.yul\":7494:7500   */\n      dup2\n        /* \"#utility.yul\":7491:7521   */\n      gt\n        /* \"#utility.yul\":7488:7605   */\n      iszero\n      tag_238\n      jumpi\n        /* \"#utility.yul\":7524:7603   */\n      tag_239\n      tag_95\n      jump\t// in\n    tag_239:\n        /* \"#utility.yul\":7488:7605   */\n    tag_238:\n        /* \"#utility.yul\":7629:7692   */\n      tag_240\n        /* \"#utility.yul\":7684:7691   */\n      dup6\n        /* \"#utility.yul\":7675:7681   */\n      dup3\n        /* \"#utility.yul\":7664:7673   */\n      dup7\n        /* \"#utility.yul\":7660:7682   */\n      add\n        /* \"#utility.yul\":7629:7692   */\n      tag_105\n      jump\t// in\n    tag_240:\n        /* \"#utility.yul\":7619:7692   */\n      swap2\n      pop\n        /* \"#utility.yul\":7414:7702   */\n      pop\n        /* \"#utility.yul\":7055:7709   */\n      swap3\n      pop\n      swap3\n      swap1\n      pop\n      jump\t// out\n        /* \"#utility.yul\":7715:7937   */\n    tag_29:\n        /* \"#utility.yul\":7808:7812   */\n      0x00\n        /* \"#utility.yul\":7846:7848   */\n      0x20\n        /* \"#utility.yul\":7835:7844   */\n      dup3\n        /* \"#utility.yul\":7831:7849   */\n      add\n        /* \"#utility.yul\":7823:7849   */\n      swap1\n      pop\n        /* \"#utility.yul\":7859:7930   */\n      tag_242\n        /* \"#utility.yul\":7927:7928   */\n      0x00\n        /* \"#utility.yul\":7916:7925   */\n      dup4\n        /* \"#utility.yul\":7912:7929   */\n      add\n        /* \"#utility.yul\":7903:7909   */\n      dup5\n        /* \"#utility.yul\":7859:7930   */\n      tag_117\n      jump\t// in\n    tag_242:\n        /* \"#utility.yul\":7715:7937   */\n      swap3\n      swap2\n      pop\n      pop\n      jump\t// out\n        /* \"#utility.yul\":7943:8165   */\n    tag_33:\n        /* \"#utility.yul\":8036:8040   */\n      0x00\n        /* \"#utility.yul\":8074:8076   */\n      0x20\n        /* \"#utility.yul\":8063:8072   */\n      dup3\n        /* \"#utility.yul\":8059:8077   */\n      add\n        /* \"#utility.yul\":8051:8077   */\n      swap1\n      pop\n        /* \"#utility.yul\":8087:8158   */\n      tag_244\n        /* \"#utility.yul\":8155:8156   */\n      0x00\n        /* \"#utility.yul\":8144:8153   */\n      dup4\n        /* \"#utility.yul\":8140:8157   */\n      add\n        /* \"#utility.yul\":8131:8137   */\n      dup5\n        /* \"#utility.yul\":8087:8158   */\n      tag_118\n      jump\t// in\n    tag_244:\n        /* \"#utility.yul\":7943:8165   */\n      swap3\n      swap2\n      pop\n      pop\n      jump\t// out\n        /* \"#utility.yul\":8171:8680   */\n    tag_36:\n        /* \"#utility.yul\":8240:8246   */\n      0x00\n        /* \"#utility.yul\":8289:8291   */\n      0x20\n        /* \"#utility.yul\":8277:8286   */\n      dup3\n        /* \"#utility.yul\":8268:8275   */\n      dup5\n        /* \"#utility.yul\":8264:8287   */\n      sub\n        /* \"#utility.yul\":8260:8292   */\n      slt\n        /* \"#utility.yul\":8257:8376   */\n      iszero\n      tag_246\n      jumpi\n        /* \"#utility.yul\":8295:8374   */\n      tag_247\n      tag_94\n      jump\t// in\n    tag_247:\n        /* \"#utility.yul\":8257:8376   */\n    tag_246:\n        /* \"#utility.yul\":8443:8444   */\n      0x00\n        /* \"#utility.yul\":8432:8441   */\n      dup3\n        /* \"#utility.yul\":8428:8445   */\n      add\n        /* \"#utility.yul\":8415:8446   */\n      calldataload\n        /* \"#utility.yul\":8473:8491   */\n      0xffffffffffffffff\n        /* \"#utility.yul\":8465:8471   */\n      dup2\n        /* \"#utility.yul\":8462:8492   */\n      gt\n        /* \"#utility.yul\":8459:8576   */\n      iszero\n      tag_248\n      jumpi\n        /* \"#utility.yul\":8495:8574   */\n      tag_249\n      tag_95\n      jump\t// in\n    tag_249:\n        /* \"#utility.yul\":8459:8576   */\n    tag_248:\n        /* \"#utility.yul\":8600:8663   */\n      tag_250\n        /* \"#utility.yul\":8655:8662   */\n      dup5\n        /* \"#utility.yul\":8646:8652   */\n      dup3\n        /* \"#utility.yul\":8635:8644   */\n      dup6\n        /* \"#utility.yul\":8631:8653   */\n      add\n        /* \"#utility.yul\":8600:8663   */\n      tag_105\n      jump\t// in\n    tag_250:\n        /* \"#utility.yul\":8590:8663   */\n      swap2\n      pop\n        /* \"#utility.yul\":8386:8673   */\n      pop\n        /* \"#utility.yul\":8171:8680   */\n      swap3\n      swap2\n      pop\n      pop\n      jump\t// out\n        /* \"#utility.yul\":8686:8762   */\n    tag_121:\n        /* \"#utility.yul\":8722:8729   */\n      0x00\n        /* \"#utility.yul\":8751:8756   */\n      dup2\n        /* \"#utility.yul\":8740:8756   */\n      swap1\n      pop\n        /* \"#utility.yul\":8686:8762   */\n      swap2\n      swap1\n      pop\n      jump\t// out\n        /* \"#utility.yul\":8768:8883   */\n    tag_122:\n        /* \"#utility.yul\":8853:8876   */\n      tag_253\n        /* \"#utility.yul\":8870:8875   */\n      dup2\n        /* \"#utility.yul\":8853:8876   */\n      tag_121\n      jump\t// in\n    tag_253:\n        /* \"#utility.yul\":8848:8851   */\n      dup3\n        /* \"#utility.yul\":8841:8877   */\n      mstore\n        /* \"#utility.yul\":8768:8883   */\n      pop\n      pop\n      jump\t// out\n        /* \"#utility.yul\":8889:9107   */\n    tag_39:\n        /* \"#utility.yul\":8980:8984   */\n      0x00\n        /* \"#utility.yul\":9018:9020   */\n      0x20\n        /* \"#utility.yul\":9007:9016   */\n      dup3\n        /* \"#utility.yul\":9003:9021   */\n      add\n        /* \"#utility.yul\":8995:9021   */\n      swap1\n      pop\n        /* \"#utility.yul\":9031:9100   */\n      tag_255\n        /* \"#utility.yul\":9097:9098   */\n      0x00\n        /* \"#utility.yul\":9086:9095   */\n      dup4\n        /* \"#utility.yul\":9082:9099   */\n      add\n        /* \"#utility.yul\":9073:9079   */\n      dup5\n        /* \"#utility.yul\":9031:9100   */\n      tag_122\n      jump\t// in\n    tag_255:\n        /* \"#utility.yul\":8889:9107   */\n      swap3\n      swap2\n      pop\n      pop\n      jump\t// out\n        /* \"#utility.yul\":9113:9767   */\n    tag_45:\n        /* \"#utility.yul\":9191:9197   */\n      0x00\n        /* \"#utility.yul\":9199:9205   */\n      0x00\n        /* \"#utility.yul\":9248:9250   */\n      0x40\n        /* \"#utility.yul\":9236:9245   */\n      dup4\n        /* \"#utility.yul\":9227:9234   */\n      dup6\n        /* \"#utility.yul\":9223:9246   */\n      sub\n        /* \"#utility.yul\":9219:9251   */\n      slt\n        /* \"#utility.yul\":9216:9335   */\n      iszero\n      tag_257\n      jumpi\n        /* \"#utility.yul\":9254:9333   */\n      tag_258\n      tag_94\n      jump\t// in\n    tag_258:\n        /* \"#utility.yul\":9216:9335   */\n    tag_257:\n        /* \"#utility.yul\":9402:9403   */\n      0x00\n        /* \"#utility.yul\":9391:9400   */\n      dup4\n        /* \"#utility.yul\":9387:9404   */\n      add\n        /* \"#utility.yul\":9374:9405   */\n      calldataload\n        /* \"#utility.yul\":9432:9450   */\n      0xffffffffffffffff\n        /* \"#utility.yul\":9424:9430   */\n      dup2\n        /* \"#utility.yul\":9421:9451   */\n      gt\n        /* \"#utility.yul\":9418:9535   */\n      iszero\n      tag_259\n      jumpi\n        /* \"#utility.yul\":9454:9533   */\n      tag_260\n      tag_95\n      jump\t// in\n    tag_260:\n        /* \"#utility.yul\":9418:9535   */\n    tag_259:\n        /* \"#utility.yul\":9559:9622   */\n      tag_261\n        /* \"#utility.yul\":9614:9621   */\n      dup6\n        /* \"#utility.yul\":9605:9611   */\n      dup3\n        /* \"#utility.yul\":9594:9603   */\n      dup7\n        /* \"#utility.yul\":9590:9612   */\n      add\n        /* \"#utility.yul\":9559:9622   */\n      tag_105\n      jump\t// in\n    tag_261:\n        /* \"#utility.yul\":9549:9622   */\n      swap3\n      pop\n        /* \"#utility.yul\":9345:9632   */\n      pop\n        /* \"#utility.yul\":9671:9673   */\n      0x20\n        /* \"#utility.yul\":9697:9750   */\n      tag_262\n        /* \"#utility.yul\":9742:9749   */\n      dup6\n        /* \"#utility.yul\":9733:9739   */\n      dup3\n        /* \"#utility.yul\":9722:9731   */\n      dup7\n        /* \"#utility.yul\":9718:9740   */\n      add\n        /* \"#utility.yul\":9697:9750   */\n      tag_112\n      jump\t// in\n    tag_262:\n        /* \"#utility.yul\":9687:9750   */\n      swap2\n      pop\n        /* \"#utility.yul\":9642:9760   */\n      pop\n        /* \"#utility.yul\":9113:9767   */\n      swap3\n      pop\n      swap3\n      swap1\n      pop\n      jump\t// out\n        /* \"#utility.yul\":9773:9953   */\n    tag_123:\n        /* \"#utility.yul\":9821:9898   */\n      0x4e487b7100000000000000000000000000000000000000000000000000000000\n        /* \"#utility.yul\":9818:9819   */\n      0x00\n        /* \"#utility.yul\":9811:9899   */\n      mstore\n        /* \"#utility.yul\":9918:9922   */\n      0x11\n        /* \"#utility.yul\":9915:9916   */\n      0x04\n        /* \"#utility.yul\":9908:9923   */\n      mstore\n        /* \"#utility.yul\":9942:9946   */\n      0x24\n        /* \"#utility.yul\":9939:9940   */\n      0x00\n        /* \"#utility.yul\":9932:9947   */\n      revert\n        /* \"#utility.yul\":9959:10192   */\n    tag_49:\n        /* \"#utility.yul\":9998:10001   */\n      0x00\n        /* \"#utility.yul\":10021:10045   */\n      tag_265\n        /* \"#utility.yul\":10039:10044   */\n      dup3\n        /* \"#utility.yul\":10021:10045   */\n      tag_110\n      jump\t// in\n    tag_265:\n        /* \"#utility.yul\":10012:10045   */\n      swap2\n      pop\n        /* \"#utility.yul\":10067:10133   */\n      0xffffffffffffffffffffffffffffffffffffffffffffffffffffffffffffffff\n        /* \"#utility.yul\":10060:10065   */\n      dup3\n        /* \"#utility.yul\":10057:10134   */\n      sub\n        /* \"#utility.yul\":10054:10157   */\n      tag_266\n      jumpi\n        /* \"#utility.yul\":10137:10155   */\n      tag_267\n      tag_123\n      jump\t// in\n    tag_267:\n        /* \"#utility.yul\":10054:10157   */\n    tag_266:\n        /* \"#utility.yul\":10184:10185   */\n      0x01\n        /* \"#utility.yul\":10177:10182   */\n      dup3\n        /* \"#utility.yul\":10173:10186   */\n      add\n        /* \"#utility.yul\":10166:10186   */\n      swap1\n      pop\n        /* \"#utility.yul\":9959:10192   */\n      swap2\n      swap1\n      pop\n      jump\t// out\n        /* \"#utility.yul\":10198:10378   */\n    tag_124:\n        /* \"#utility.yul\":10246:10323   */\n      0x4e487b7100000000000000000000000000000000000000000000000000000000\n        /* \"#utility.yul\":10243:10244   */\n      0x00\n        /* \"#utility.yul\":10236:10324   */\n      mstore\n        /* \"#utility.yul\":10343:10347   */\n      0x22\n        /* \"#utility.yul\":10340:10341   */\n      0x04\n        /* \"#utility.yul\":10333:10348   */\n      mstore\n        /* \"#utility.yul\":10367:10371   */\n      0x24\n        /* \"#utility.yul\":10364:10365   */\n      0x00\n        /* \"#utility.yul\":10357:10372   */\n      revert\n        /* \"#utility.yul\":10384:10704   */\n    tag_57:\n        /* \"#utility.yul\":10428:10434   */\n      0x00\n        /* \"#utility.yul\":10465:10466   */\n      0x02\n        /* \"#utility.yul\":10459:10463   */\n      dup3\n        /* \"#utility.yul\":10455:10467   */\n      div\n        /* \"#utility.yul\":10445:10467   */\n      swap1\n      pop\n        /* \"#utility.yul\":10512:10513   */\n      0x01\n        /* \"#utility.yul\":10506:10510   */\n      dup3\n        /* \"#utility.yul\":10502:10514   */\n      and\n        /* \"#utility.yul\":10533:10551   */\n      dup1\n        /* \"#utility.yul\":10523:10604   */\n      tag_270\n      jumpi\n        /* \"#utility.yul\":10589:10593   */\n      0x7f\n        /* \"#utility.yul\":10581:10587   */\n      dup3\n        /* \"#utility.yul\":10577:10594   */\n      and\n        /* \"#utility.yul\":10567:10594   */\n      swap2\n      pop\n        /* \"#utility.yul\":10523:10604   */\n    tag_270:\n        /* \"#utility.yul\":10651:10653   */\n      0x20\n        /* \"#utility.yul\":10643:10649   */\n      dup3\n        /* \"#utility.yul\":10640:10654   */\n      lt\n        /* \"#utility.yul\":10620:10638   */\n      dup2\n        /* \"#utility.yul\":10617:10655   */\n      sub\n        /* \"#utility.yul\":10614:10698   */\n      tag_271\n      jumpi\n        /* \"#utility.yul\":10670:10688   */\n      tag_272\n      tag_124\n      jump\t// in\n    tag_272:\n        /* \"#utility.yul\":10614:10698   */\n    tag_271:\n        /* \"#utility.yul\":10435:10704   */\n      pop\n        /* \"#utility.yul\":10384:10704   */\n      swap2\n      swap1\n      pop\n      jump\t// out\n        /* \"#utility.yul\":10710:10851   */\n    tag_125:\n        /* \"#utility.yul\":10759:10763   */\n      0x00\n        /* \"#utility.yul\":10782:10785   */\n      dup2\n        /* \"#utility.yul\":10774:10785   */\n      swap1\n      pop\n        /* \"#utility.yul\":10805:10808   */\n      dup2\n        /* \"#utility.yul\":10802:10803   */\n      0x00\n        /* \"#utility.yul\":10795:10809   */\n      mstore\n        /* \"#utility.yul\":10839:10843   */\n      0x20\n        /* \"#utility.yul\":10836:10837   */\n      0x00\n        /* \"#utility.yul\":10826:10844   */\n      keccak256\n        /* \"#utility.yul\":10818:10844   */\n      swap1\n      pop\n        /* \"#utility.yul\":10710:10851   */\n      swap2\n      swap1\n      pop\n      jump\t// out\n        /* \"#utility.yul\":10857:10950   */\n    tag_126:\n        /* \"#utility.yul\":10894:10900   */\n      0x00\n        /* \"#utility.yul\":10941:10943   */\n      0x20\n        /* \"#utility.yul\":10936:10938   */\n      0x1f\n        /* \"#utility.yul\":10929:10934   */\n      dup4\n        /* \"#utility.yul\":10925:10939   */\n      add\n        /* \"#utility.yul\":10921:10944   */\n      div\n        /* \"#utility.yul\":10911:10944   */\n      swap1\n      pop\n        /* \"#utility.yul\":10857:10950   */\n      swap2\n      swap1\n      pop\n      jump\t// out\n        /* \"#utility.yul\":10956:11063   */\n    tag_127:\n        /* \"#utility.yul\":11000:11008   */\n      0x00\n        /* \"#utility.yul\":11050:11055   */\n      dup3\n        /* \"#utility.yul\":11044:11048   */\n      dup3\n        /* \"#utility.yul\":11040:11056   */\n      shl\n        /* \"#utility.yul\":11019:11056   */\n      swap1\n      pop\n        /* \"#utility.yul\":10956:11063   */\n      swap3\n      swap2\n      pop\n      pop\n      jump\t// out\n        /* \"#utility.yul\":11069:11462   */\n    tag_128:\n        /* \"#utility.yul\":11138:11144   */\n      0x00\n        /* \"#utility.yul\":11188:11189   */\n      0x08\n        /* \"#utility.yul\":11176:11186   */\n      dup4\n        /* \"#utility.yul\":11172:11190   */\n      mul\n        /* \"#utility.yul\":11211:11308   */\n      tag_277\n        /* \"#utility.yul\":11241:11307   */\n      0xffffffffffffffffffffffffffffffffffffffffffffffffffffffffffffffff\n        /* \"#utility.yul\":11230:11239   */\n      dup3\n        /* \"#utility.yul\":11211:11308   */\n      tag_127\n      jump\t// in\n    tag_277:\n        /* \"#utility.yul\":11329:11368   */\n      tag_278\n        /* \"#utility.yul\":11359:11367   */\n      dup7\n        /* \"#utility.yul\":11348:11357   */\n      dup4\n        /* \"#utility.yul\":11329:11368   */\n      tag_127\n      jump\t// in\n    tag_278:\n        /* \"#utility.yul\":11317:11368   */\n      swap6\n      pop\n        /* \"#utility.yul\":11401:11405   */\n      dup1\n        /* \"#utility.yul\":11397:11406   */\n      not\n        /* \"#utility.yul\":11390:11395   */\n      dup5\n        /* \"#utility.yul\":11386:11407   */\n      and\n        /* \"#utility.yul\":11377:11407   */\n      swap4\n      pop\n        /* \"#utility.yul\":11450:11454   */\n      dup1\n        /* \"#utility.yul\":11440:11448   */\n      dup7\n        /* \"#utility.yul\":11436:11455   */\n      and\n        /* \"#utility.yul\":11429:11434   */\n      dup5\n        /* \"#utility.yul\":11426:11456   */\n      or\n        /* \"#utility.yul\":11416:11456   */\n      swap3\n      pop\n        /* \"#utility.yul\":11145:11462   */\n      pop\n      pop\n        /* \"#utility.yul\":11069:11462   */\n      swap4\n      swap3\n      pop\n      pop\n      pop\n      jump\t// out\n        /* \"#utility.yul\":11468:11528   */\n    tag_129:\n        /* \"#utility.yul\":11496:11499   */\n      0x00\n        /* \"#utility.yul\":11517:11522   */\n      dup2\n        /* \"#utility.yul\":11510:11522   */\n      swap1\n      pop\n        /* \"#utility.yul\":11468:11528   */\n      swap2\n      swap1\n      pop\n      jump\t// out\n        /* \"#utility.yul\":11534:11676   */\n    tag_130:\n        /* \"#utility.yul\":11584:11593   */\n      0x00\n        /* \"#utility.yul\":11617:11670   */\n      tag_281\n        /* \"#utility.yul\":11635:11669   */\n      tag_282\n        /* \"#utility.yul\":11644:11668   */\n      tag_283\n        /* \"#utility.yul\":11662:11667   */\n      dup5\n        /* \"#utility.yul\":11644:11668   */\n      tag_110\n      jump\t// in\n    tag_283:\n        /* \"#utility.yul\":11635:11669   */\n      tag_129\n      jump\t// in\n    tag_282:\n        /* \"#utility.yul\":11617:11670   */\n      tag_110\n      jump\t// in\n    tag_281:\n        /* \"#utility.yul\":11604:11670   */\n      swap1\n      pop\n        /* \"#utility.yul\":11534:11676   */\n      swap2\n      swap1\n      pop\n      jump\t// out\n        /* \"#utility.yul\":11682:11757   */\n    tag_131:\n        /* \"#utility.yul\":11725:11728   */\n      0x00\n        /* \"#utility.yul\":11746:11751   */\n      dup2\n        /* \"#utility.yul\":11739:11751   */\n      swap1\n      pop\n        /* \"#utility.yul\":11682:11757   */\n      swap2\n      swap1\n      pop\n      jump\t// out\n        /* \"#utility.yul\":11763:12032   */\n    tag_132:\n        /* \"#utility.yul\":11873:11912   */\n      tag_286\n        /* \"#utility.yul\":11904:11911   */\n      dup4\n        /* \"#utility.yul\":11873:11912   */\n      tag_130\n      jump\t// in\n    tag_286:\n        /* \"#utility.yul\":11934:12025   */\n      tag_287\n        /* \"#utility.yul\":11983:12024   */\n      tag_288\n        /* \"#utility.yul\":12007:12023   */\n      dup3\n        /* \"#utility.yul\":11983:12024   */\n      tag_131\n      jump\t// in\n    tag_288:\n        /* \"#utility.yul\":11975:11981   */\n      dup5\n        /* \"#utility.yul\":11968:11972   */\n      dup5\n        /* \"#utility.yul\":11962:11973   */\n      sload\n        /* \"#utility.yul\":11934:12025   */\n      tag_128\n      jump\t// in\n    tag_287:\n        /* \"#utility.yul\":11928:11932   */\n      dup3\n        /* \"#utility.yul\":11921:12026   */\n      sstore\n        /* \"#utility.yul\":11839:12032   */\n      pop\n        /* \"#utility.yul\":11763:12032   */\n      pop\n      pop\n      pop\n      jump\t// out\n        /* \"#utility.yul\":12038:12111   */\n    tag_133:\n        /* \"#utility.yul\":12083:12086   */\n      0x00\n        /* \"#utility.yul\":12104:12105   */\n      0x00\n        /* \"#utility.yul\":12097:12105   */\n      swap1\n      pop\n        /* \"#utility.yul\":12038:12111   */\n      swap1\n      jump\t// out\n        /* \"#utility.yul\":12117:12306   */\n    tag_134:\n        /* \"#utility.yul\":12194:12226   */\n      tag_291\n      tag_133\n      jump\t// in\n    tag_291:\n        /* \"#utility.yul\":12235:12300   */\n      tag_292\n        /* \"#utility.yul\":12293:12299   */\n      dup2\n        /* \"#utility.yul\":12285:12291   */\n      dup5\n        /* \"#utility.yul\":12279:12283   */\n      dup5\n        /* \"#utility.yul\":12235:12300   */\n      tag_132\n      jump\t// in\n    tag_292:\n        /* \"#utility.yul\":12170:12306   */\n      pop\n        /* \"#utility.yul\":12117:12306   */\n      pop\n      pop\n      jump\t// out\n        /* \"#utility.yul\":12312:12498   */\n    tag_135:\n        /* \"#utility.yul\":12372:12492   */\n    tag_294:\n        /* \"#utility.yul\":12389:12392   */\n      dup2\n        /* \"#utility.yul\":12382:12387   */\n      dup2\n        /* \"#utility.yul\":12379:12393   */\n      lt\n        /* \"#utility.yul\":12372:12492   */\n      iszero\n      tag_296\n      jumpi\n        /* \"#utility.yul\":12443:12482   */\n      tag_297\n        /* \"#utility.yul\":12480:12481   */\n      0x00\n        /* \"#utility.yul\":12473:12478   */\n      dup3\n        /* \"#utility.yul\":12443:12482   */\n      tag_134\n      jump\t// in\n    tag_297:\n        /* \"#utility.yul\":12416:12417   */\n      0x01\n        /* \"#utility.yul\":12409:12414   */\n      dup2\n        /* \"#utility.yul\":12405:12418   */\n      add\n        /* \"#utility.yul\":12396:12418   */\n      swap1\n      pop\n        /* \"#utility.yul\":12372:12492   */\n      jump(tag_294)\n    tag_296:\n        /* \"#utility.yul\":12312:12498   */\n      pop\n      pop\n      jump\t// out\n        /* \"#utility.yul\":12504:13047   */\n    tag_136:\n        /* \"#utility.yul\":12605:12607   */\n      0x1f\n        /* \"#utility.yul\":12600:12603   */\n      dup3\n        /* \"#utility.yul\":12597:12608   */\n      gt\n        /* \"#utility.yul\":12594:13040   */\n      iszero\n      tag_299\n      jumpi\n        /* \"#utility.yul\":12639:12677   */\n      tag_300\n        /* \"#utility.yul\":12671:12676   */\n      dup2\n        /* \"#utility.yul\":12639:12677   */\n      tag_125\n      jump\t// in\n    tag_300:\n        /* \"#utility.yul\":12723:12752   */\n      tag_301\n        /* \"#utility.yul\":12741:12751   */\n      dup5\n        /* \"#utility.yul\":12723:12752   */\n      tag_126\n      jump\t// in\n    tag_301:\n        /* \"#utility.yul\":12713:12721   */\n      dup2\n        /* \"#utility.yul\":12709:12753   */\n      add\n        /* \"#utility.yul\":12906:12908   */\n      0x20\n        /* \"#utility.yul\":12894:12904   */\n      dup6\n        /* \"#utility.yul\":12891:12909   */\n      lt\n        /* \"#utility.yul\":12888:12937   */\n      iszero\n      tag_302\n      jumpi\n        /* \"#utility.yul\":12927:12935   */\n      dup2\n        /* \"#utility.yul\":12912:12935   */\n      swap1\n      pop\n        /* \"#utility.yul\":12888:12937   */\n    tag_302:\n        /* \"#utility.yul\":12950:13030   */\n      tag_303\n        /* \"#utility.yul\":13006:13028   */\n      tag_304\n        /* \"#utility.yul\":13024:13027   */\n      dup6\n        /* \"#utility.yul\":13006:13028   */\n      tag_126\n      jump\t// in\n    tag_304:\n        /* \"#utility.yul\":12996:13004   */\n      dup4\n        /* \"#utility.yul\":12992:13029   */\n      add\n        /* \"#utility.yul\":12979:12990   */\n      dup3\n        /* \"#utility.yul\":12950:13030   */\n      tag_135\n      jump\t// in\n    tag_303:\n        /* \"#utility.yul\":12609:13040   */\n      pop\n      pop\n        /* \"#utility.yul\":12594:13040   */\n    tag_299:\n        /* \"#utility.yul\":12504:13047   */\n      pop\n      pop\n      pop\n      jump\t// out\n        /* \"#utility.yul\":13053:13170   */\n    tag_137:\n        /* \"#utility.yul\":13107:13115   */\n      0x00\n        /* \"#utility.yul\":13157:13162   */\n      dup3\n        /* \"#utility.yul\":13151:13155   */\n      dup3\n        /* \"#utility.yul\":13147:13163   */\n      shr\n        /* \"#utility.yul\":13126:13163   */\n      swap1\n      pop\n        /* \"#utility.yul\":13053:13170   */\n      swap3\n      swap2\n      pop\n      pop\n      jump\t// out\n        /* \"#utility.yul\":13176:13345   */\n    tag_138:\n        /* \"#utility.yul\":13220:13226   */\n      0x00\n        /* \"#utility.yul\":13253:13304   */\n      tag_307\n        /* \"#utility.yul\":13301:13302   */\n      0x00\n        /* \"#utility.yul\":13297:13303   */\n      not\n        /* \"#utility.yul\":13289:13294   */\n      dup5\n        /* \"#utility.yul\":13286:13287   */\n      0x08\n        /* \"#utility.yul\":13282:13295   */\n      mul\n        /* \"#utility.yul\":13253:13304   */\n      tag_137\n      jump\t// in\n    tag_307:\n        /* \"#utility.yul\":13249:13305   */\n      not\n        /* \"#utility.yul\":13334:13338   */\n      dup1\n        /* \"#utility.yul\":13328:13332   */\n      dup4\n        /* \"#utility.yul\":13324:13339   */\n      and\n        /* \"#utility.yul\":13314:13339   */\n      swap2\n      pop\n        /* \"#utility.yul\":13227:13345   */\n      pop\n        /* \"#utility.yul\":13176:13345   */\n      swap3\n      swap2\n      pop\n      pop\n      jump\t// out\n        /* \"#utility.yul\":13350:13645   */\n    tag_139:\n        /* \"#utility.yul\":13426:13430   */\n      0x00\n        /* \"#utility.yul\":13572:13601   */\n      tag_309\n        /* \"#utility.yul\":13597:13600   */\n      dup4\n        /* \"#utility.yul\":13591:13595   */\n      dup4\n        /* \"#utility.yul\":13572:13601   */\n      tag_138\n      jump\t// in\n    tag_309:\n        /* \"#utility.yul\":13564:13601   */\n      swap2\n      pop\n        /* \"#utility.yul\":13634:13637   */\n      dup3\n        /* \"#utility.yul\":13631:13632   */\n      0x02\n        /* \"#utility.yul\":13627:13638   */\n      mul\n        /* \"#utility.yul\":13621:13625   */\n      dup3\n        /* \"#utility.yul\":13618:13639   */\n      or\n        /* \"#utility.yul\":13610:13639   */\n      swap1\n      pop\n        /* \"#utility.yul\":13350:13645   */\n      swap3\n      swap2\n      pop\n      pop\n      jump\t// out\n        /* \"#utility.yul\":13650:15045   */\n    tag_51:\n        /* \"#utility.yul\":13767:13804   */\n      tag_311\n        /* \"#utility.yul\":13800:13803   */\n      dup3\n        /* \"#utility.yul\":13767:13804   */\n      tag_113\n      jump\t// in\n    tag_311:\n        /* \"#utility.yul\":13869:13887   */\n      0xffffffffffffffff\n        /* \"#utility.yul\":13861:13867   */\n      dup2\n        /* \"#utility.yul\":13858:13888   */\n      gt\n        /* \"#utility.yul\":13855:13911   */\n      iszero\n      tag_312\n      jumpi\n        /* \"#utility.yul\":13891:13909   */\n      tag_313\n      tag_99\n      jump\t// in\n    tag_313:\n        /* \"#utility.yul\":13855:13911   */\n    tag_312:\n        /* \"#utility.yul\":13935:13973   */\n      tag_314\n        /* \"#utility.yul\":13967:13971   */\n      dup3\n        /* \"#utility.yul\":13961:13972   */\n      sload\n        /* \"#utility.yul\":13935:13973   */\n      tag_57\n      jump\t// in\n    tag_314:\n        /* \"#utility.yul\":14020:14087   */\n      tag_315\n        /* \"#utility.yul\":14080:14086   */\n      dup3\n        /* \"#utility.yul\":14072:14078   */\n      dup3\n        /* \"#utility.yul\":14066:14070   */\n      dup6\n        /* \"#utility.yul\":14020:14087   */\n      tag_136\n      jump\t// in\n    tag_315:\n        /* \"#utility.yul\":14114:14115   */\n      0x00\n        /* \"#utility.yul\":14138:14142   */\n      0x20\n        /* \"#utility.yul\":14125:14142   */\n      swap1\n      pop\n        /* \"#utility.yul\":14170:14172   */\n      0x1f\n        /* \"#utility.yul\":14162:14168   */\n      dup4\n        /* \"#utility.yul\":14159:14173   */\n      gt\n        /* \"#utility.yul\":14187:14188   */\n      0x01\n        /* \"#utility.yul\":14182:14800   */\n      dup2\n      eq\n      tag_317\n      jumpi\n        /* \"#utility.yul\":14844:14845   */\n      0x00\n        /* \"#utility.yul\":14861:14867   */\n      dup5\n        /* \"#utility.yul\":14858:14935   */\n      iszero\n      tag_318\n      jumpi\n        /* \"#utility.yul\":14910:14919   */\n      dup3\n        /* \"#utility.yul\":14905:14908   */\n      dup8\n        /* \"#utility.yul\":14901:14920   */\n      add\n        /* \"#utility.yul\":14895:14921   */\n      mload\n        /* \"#utility.yul\":14886:14921   */\n      swap1\n      pop\n        /* \"#utility.yul\":14858:14935   */\n    tag_318:\n        /* \"#utility.yul\":14961:15028   */\n      tag_319\n        /* \"#utility.yul\":15021:15027   */\n      dup6\n        /* \"#utility.yul\":15014:15019   */\n      dup3\n        /* \"#utility.yul\":14961:15028   */\n      tag_139\n      jump\t// in\n    tag_319:\n        /* \"#utility.yul\":14955:14959   */\n      dup7\n        /* \"#utility.yul\":14948:15029   */\n      sstore\n        /* \"#utility.yul\":14817:15039   */\n      pop\n        /* \"#utility.yul\":14152:15039   */\n      jump(tag_316)\n        /* \"#utility.yul\":14182:14800   */\n    tag_317:\n        /* \"#utility.yul\":14234:14238   */\n      0x1f\n        /* \"#utility.yul\":14230:14239   */\n      not\n        /* \"#utility.yul\":14222:14228   */\n      dup5\n        /* \"#utility.yul\":14218:14240   */\n      and\n        /* \"#utility.yul\":14268:14305   */\n      tag_320\n        /* \"#utility.yul\":14300:14304   */\n      dup7\n        /* \"#utility.yul\":14268:14305   */\n      tag_125\n      jump\t// in\n    tag_320:\n        /* \"#utility.yul\":14327:14328   */\n      0x00\n        /* \"#utility.yul\":14341:14549   */\n    tag_321:\n        /* \"#utility.yul\":14355:14362   */\n      dup3\n        /* \"#utility.yul\":14352:14353   */\n      dup2\n        /* \"#utility.yul\":14349:14363   */\n      lt\n        /* \"#utility.yul\":14341:14549   */\n      iszero\n      tag_323\n      jumpi\n        /* \"#utility.yul\":14434:14443   */\n      dup5\n        /* \"#utility.yul\":14429:14432   */\n      dup10\n        /* \"#utility.yul\":14425:14444   */\n      add\n        /* \"#utility.yul\":14419:14445   */\n      mload\n        /* \"#utility.yul\":14411:14417   */\n      dup3\n        /* \"#utility.yul\":14404:14446   */\n      sstore\n        /* \"#utility.yul\":14485:14486   */\n      0x01\n        /* \"#utility.yul\":14477:14483   */\n      dup3\n        /* \"#utility.yul\":14473:14487   */\n      add\n        /* \"#utility.yul\":14463:14487   */\n      swap2\n      pop\n        /* \"#utility.yul\":14532:14534   */\n      0x20\n        /* \"#utility.yul\":14521:14530   */\n      dup6\n        /* \"#utility.yul\":14517:14535   */\n      add\n        /* \"#utility.yul\":14504:14535   */\n      swap5\n      pop\n        /* \"#utility.yul\":14378:14382   */\n      0x20\n        /* \"#utility.yul\":14375:14376   */\n      dup2\n        /* \"#utility.yul\":14371:14383   */\n      add\n        /* \"#utility.yul\":14366:14383   */\n      swap1\n      pop\n        /* \"#utility.yul\":14341:14549   */\n      jump(tag_321)\n    tag_323:\n        /* \"#utility.yul\":14577:14583   */\n      dup7\n        /* \"#utility.yul\":14568:14575   */\n      dup4\n        /* \"#utility.yul\":14565:14584   */\n      lt\n        /* \"#utility.yul\":14562:14741   */\n      iszero\n      tag_324\n      jumpi\n        /* \"#utility.yul\":14635:14644   */\n      dup5\n        /* \"#utility.yul\":14630:14633   */\n      dup10\n        /* \"#utility.yul\":14626:14645   */\n      add\n        /* \"#utility.yul\":14620:14646   */\n      mload\n        /* \"#utility.yul\":14678:14726   */\n      tag_325\n        /* \"#utility.yul\":14720:14724   */\n      0x1f\n        /* \"#utility.yul\":14712:14718   */\n      dup10\n        /* \"#utility.yul\":14708:14725   */\n      and\n        /* \"#utility.yul\":14697:14706   */\n      dup3\n        /* \"#utility.yul\":14678:14726   */\n      tag_138\n      jump\t// in\n    tag_325:\n        /* \"#utility.yul\":14670:14676   */\n      dup4\n        /* \"#utility.yul\":14663:14727   */\n      sstore\n        /* \"#utility.yul\":14585:14741   */\n      pop\n        /* \"#utility.yul\":14562:14741   */\n    tag_324:\n        /* \"#utility.yul\":14787:14788   */\n      0x01\n        /* \"#utility.yul\":14783:14784   */\n      0x02\n        /* \"#utility.yul\":14775:14781   */\n      dup9\n        /* \"#utility.yul\":14771:14785   */\n      mul\n        /* \"#utility.yul\":14767:14789   */\n      add\n        /* \"#utility.yul\":14761:14765   */\n      dup9\n        /* \"#utility.yul\":14754:14790   */\n      sstore\n        /* \"#utility.yul\":14189:14800   */\n      pop\n      pop\n      pop\n        /* \"#utility.yul\":14152:15039   */\n    tag_316:\n      pop\n        /* \"#utility.yul\":13742:15045   */\n      pop\n      pop\n      pop\n        /* \"#utility.yul\":13650:15045   */\n      pop\n      pop\n      jump\t// out\n        /* \"#utility.yul\":15051:15136   */\n    tag_140:\n        /* \"#utility.yul\":15096:15103   */\n      0x00\n        /* \"#utility.yul\":15125:15130   */\n      dup2\n        /* \"#utility.yul\":15114:15130   */\n      swap1\n      pop\n        /* \"#utility.yul\":15051:15136   */\n      swap2\n      swap1\n      pop\n      jump\t// out\n        /* \"#utility.yul\":15142:15300   */\n    tag_141:\n        /* \"#utility.yul\":15200:15209   */\n      0x00\n        /* \"#utility.yul\":15233:15294   */\n      tag_328\n        /* \"#utility.yul\":15251:15293   */\n      tag_329\n        /* \"#utility.yul\":15260:15292   */\n      tag_330\n        /* \"#utility.yul\":15286:15291   */\n      dup5\n        /* \"#utility.yul\":15260:15292   */\n      tag_140\n      jump\t// in\n    tag_330:\n        /* \"#utility.yul\":15251:15293   */\n      tag_129\n      jump\t// in\n    tag_329:\n        /* \"#utility.yul\":15233:15294   */\n      tag_110\n      jump\t// in\n    tag_328:\n        /* \"#utility.yul\":15220:15294   */\n      swap1\n      pop\n        /* \"#utility.yul\":15142:15300   */\n      swap2\n      swap1\n      pop\n      jump\t// out\n        /* \"#utility.yul\":15306:15453   */\n    tag_142:\n        /* \"#utility.yul\":15401:15446   */\n      tag_332\n        /* \"#utility.yul\":15440:15445   */\n      dup2\n        /* \"#utility.yul\":15401:15446   */\n      tag_141\n      jump\t// in\n    tag_332:\n        /* \"#utility.yul\":15396:15399   */\n      dup3\n        /* \"#utility.yul\":15389:15447   */\n      mstore\n        /* \"#utility.yul\":15306:15453   */\n      pop\n      pop\n      jump\t// out\n        /* \"#utility.yul\":15459:15546   */\n    tag_143:\n        /* \"#utility.yul\":15506:15513   */\n      0x00\n        /* \"#utility.yul\":15535:15540   */\n      dup2\n        /* \"#utility.yul\":15524:15540   */\n      swap1\n      pop\n        /* \"#utility.yul\":15459:15546   */\n      swap2\n      swap1\n      pop\n      jump\t// out\n        /* \"#utility.yul\":15552:15714   */\n    tag_144:\n        /* \"#utility.yul\":15612:15621   */\n      0x00\n        /* \"#utility.yul\":15645:15708   */\n      tag_335\n        /* \"#utility.yul\":15663:15707   */\n      tag_336\n        /* \"#utility.yul\":15672:15706   */\n      tag_337\n        /* \"#utility.yul\":15700:15705   */\n      dup5\n        /* \"#utility.yul\":15672:15706   */\n      tag_143\n      jump\t// in\n    tag_337:\n        /* \"#utility.yul\":15663:15707   */\n      tag_129\n      jump\t// in\n    tag_336:\n        /* \"#utility.yul\":15645:15708   */\n      tag_110\n      jump\t// in\n    tag_335:\n        /* \"#utility.yul\":15632:15708   */\n      swap1\n      pop\n        /* \"#utility.yul\":15552:15714   */\n      swap2\n      swap1\n      pop\n      jump\t// out\n        /* \"#utility.yul\":15720:15871   */\n    tag_145:\n        /* \"#utility.yul\":15817:15864   */\n      tag_339\n        /* \"#utility.yul\":15858:15863   */\n      dup2\n        /* \"#utility.yul\":15817:15864   */\n      tag_144\n      jump\t// in\n    tag_339:\n        /* \"#utility.yul\":15812:15815   */\n      dup3\n        /* \"#utility.yul\":15805:15865   */\n      mstore\n        /* \"#utility.yul\":15720:15871   */\n      pop\n      pop\n      jump\t// out\n        /* \"#utility.yul\":15877:16767   */\n    tag_54:\n        /* \"#utility.yul\":16142:16146   */\n      0x00\n        /* \"#utility.yul\":16180:16183   */\n      0xc0\n        /* \"#utility.yul\":16169:16178   */\n      dup3\n        /* \"#utility.yul\":16165:16184   */\n      add\n        /* \"#utility.yul\":16157:16184   */\n      swap1\n      pop\n        /* \"#utility.yul\":16194:16265   */\n      tag_341\n        /* \"#utility.yul\":16262:16263   */\n      0x00\n        /* \"#utility.yul\":16251:16260   */\n      dup4\n        /* \"#utility.yul\":16247:16264   */\n      add\n        /* \"#utility.yul\":16238:16244   */\n      dup10\n        /* \"#utility.yul\":16194:16265   */\n      tag_118\n      jump\t// in\n    tag_341:\n        /* \"#utility.yul\":16312:16321   */\n      dup2\n        /* \"#utility.yul\":16306:16310   */\n      dup2\n        /* \"#utility.yul\":16302:16322   */\n      sub\n        /* \"#utility.yul\":16297:16299   */\n      0x20\n        /* \"#utility.yul\":16286:16295   */\n      dup4\n        /* \"#utility.yul\":16282:16300   */\n      add\n        /* \"#utility.yul\":16275:16323   */\n      mstore\n        /* \"#utility.yul\":16340:16418   */\n      tag_342\n        /* \"#utility.yul\":16413:16417   */\n      dup2\n        /* \"#utility.yul\":16404:16410   */\n      dup9\n        /* \"#utility.yul\":16340:16418   */\n      tag_116\n      jump\t// in\n    tag_342:\n        /* \"#utility.yul\":16332:16418   */\n      swap1\n      pop\n        /* \"#utility.yul\":16428:16500   */\n      tag_343\n        /* \"#utility.yul\":16496:16498   */\n      0x40\n        /* \"#utility.yul\":16485:16494   */\n      dup4\n        /* \"#utility.yul\":16481:16499   */\n      add\n        /* \"#utility.yul\":16472:16478   */\n      dup8\n        /* \"#utility.yul\":16428:16500   */\n      tag_117\n      jump\t// in\n    tag_343:\n        /* \"#utility.yul\":16510:16590   */\n      tag_344\n        /* \"#utility.yul\":16586:16588   */\n      0x60\n        /* \"#utility.yul\":16575:16584   */\n      dup4\n        /* \"#utility.yul\":16571:16589   */\n      add\n        /* \"#utility.yul\":16562:16568   */\n      dup7\n        /* \"#utility.yul\":16510:16590   */\n      tag_142\n      jump\t// in\n    tag_344:\n        /* \"#utility.yul\":16600:16683   */\n      tag_345\n        /* \"#utility.yul\":16678:16681   */\n      0x80\n        /* \"#utility.yul\":16667:16676   */\n      dup4\n        /* \"#utility.yul\":16663:16682   */\n      add\n        /* \"#utility.yul\":16654:16660   */\n      dup6\n        /* \"#utility.yul\":16600:16683   */\n      tag_145\n      jump\t// in\n    tag_345:\n        /* \"#utility.yul\":16693:16760   */\n      tag_346\n        /* \"#utility.yul\":16755:16758   */\n      0xa0\n        /* \"#utility.yul\":16744:16753   */\n      dup4\n        /* \"#utility.yul\":16740:16759   */\n      add\n        /* \"#utility.yul\":16731:16737   */\n      dup5\n        /* \"#utility.yul\":16693:16760   */\n      tag_120\n      jump\t// in\n    tag_346:\n        /* \"#utility.yul\":15877:16767   */\n      swap8\n      swap7\n      pop\n      pop\n      pop\n      pop\n      pop\n      pop\n      pop\n      jump\t// out\n        /* \"#utility.yul\":16773:16937   */\n    tag_146:\n        /* \"#utility.yul\":16913:16929   */\n      0x4e6f7420617574686f72697a6564000000000000000000000000000000000000\n        /* \"#utility.yul\":16909:16910   */\n      0x00\n        /* \"#utility.yul\":16901:16907   */\n      dup3\n        /* \"#utility.yul\":16897:16911   */\n      add\n        /* \"#utility.yul\":16890:16930   */\n      mstore\n        /* \"#utility.yul\":16773:16937   */\n      pop\n      jump\t// out\n        /* \"#utility.yul\":16943:17309   */\n    tag_147:\n        /* \"#utility.yul\":17085:17088   */\n      0x00\n        /* \"#utility.yul\":17106:17173   */\n      tag_349\n        /* \"#utility.yul\":17170:17172   */\n      0x0e\n        /* \"#utility.yul\":17165:17168   */\n      dup4\n        /* \"#utility.yul\":17106:17173   */\n      tag_114\n      jump\t// in\n    tag_349:\n        /* \"#utility.yul\":17099:17173   */\n      swap2\n      pop\n        /* \"#utility.yul\":17182:17275   */\n      tag_350\n        /* \"#utility.yul\":17271:17274   */\n      dup3\n        /* \"#utility.yul\":17182:17275   */\n      tag_146\n      jump\t// in\n    tag_350:\n        /* \"#utility.yul\":17300:17302   */\n      0x20\n        /* \"#utility.yul\":17295:17298   */\n      dup3\n        /* \"#utility.yul\":17291:17303   */\n      add\n        /* \"#utility.yul\":17284:17303   */\n      swap1\n      pop\n        /* \"#utility.yul\":16943:17309   */\n      swap2\n      swap1\n      pop\n      jump\t// out\n        /* \"#utility.yul\":17315:17734   */\n    tag_70:\n        /* \"#utility.yul\":17481:17485   */\n      0x00\n        /* \"#utility.yul\":17519:17521   */\n      0x20\n        /* \"#utility.yul\":17508:17517   */\n      dup3\n        /* \"#utility.yul\":17504:17522   */\n      add\n        /* \"#utility.yul\":17496:17522   */\n      swap1\n      pop\n        /* \"#utility.yul\":17568:17577   */\n      dup2\n        /* \"#utility.yul\":17562:17566   */\n      dup2\n        /* \"#utility.yul\":17558:17578   */\n      sub\n        /* \"#utility.yul\":17554:17555   */\n      0x00\n        /* \"#utility.yul\":17543:17552   */\n      dup4\n        /* \"#utility.yul\":17539:17556   */\n      add\n        /* \"#utility.yul\":17532:17579   */\n      mstore\n        /* \"#utility.yul\":17596:17727   */\n      tag_352\n        /* \"#utility.yul\":17722:17726   */\n      dup2\n        /* \"#utility.yul\":17596:17727   */\n      tag_147\n      jump\t// in\n    tag_352:\n        /* \"#utility.yul\":17588:17727   */\n      swap1\n      pop\n        /* \"#utility.yul\":17315:17734   */\n      swap2\n      swap1\n      pop\n      jump\t// out\n        /* \"#utility.yul\":17740:17888   */\n    tag_148:\n        /* \"#utility.yul\":17842:17853   */\n      0x00\n        /* \"#utility.yul\":17879:17882   */\n      dup2\n        /* \"#utility.yul\":17864:17882   */\n      swap1\n      pop\n        /* \"#utility.yul\":17740:17888   */\n      swap3\n      swap2\n      pop\n      pop\n      jump\t// out\n        /* \"#utility.yul\":17894:18284   */\n    tag_149:\n        /* \"#utility.yul\":18000:18003   */\n      0x00\n        /* \"#utility.yul\":18028:18067   */\n      tag_355\n        /* \"#utility.yul\":18061:18066   */\n      dup3\n        /* \"#utility.yul\":18028:18067   */\n      tag_113\n      jump\t// in\n    tag_355:\n        /* \"#utility.yul\":18083:18172   */\n      tag_356\n        /* \"#utility.yul\":18165:18171   */\n      dup2\n        /* \"#utility.yul\":18160:18163   */\n      dup6\n        /* \"#utility.yul\":18083:18172   */\n      tag_148\n      jump\t// in\n    tag_356:\n        /* \"#utility.yul\":18076:18172   */\n      swap4\n      pop\n        /* \"#utility.yul\":18181:18246   */\n      tag_357\n        /* \"#utility.yul\":18239:18245   */\n      dup2\n        /* \"#utility.yul\":18234:18237   */\n      dup6\n        /* \"#utility.yul\":18227:18231   */\n      0x20\n        /* \"#utility.yul\":18220:18225   */\n      dup7\n        /* \"#utility.yul\":18216:18232   */\n      add\n        /* \"#utility.yul\":18181:18246   */\n      tag_115\n      jump\t// in\n    tag_357:\n        /* \"#utility.yul\":18271:18277   */\n      dup1\n        /* \"#utility.yul\":18266:18269   */\n      dup5\n        /* \"#utility.yul\":18262:18278   */\n      add\n        /* \"#utility.yul\":18255:18278   */\n      swap2\n      pop\n        /* \"#utility.yul\":18004:18284   */\n      pop\n        /* \"#utility.yul\":17894:18284   */\n      swap3\n      swap2\n      pop\n      pop\n      jump\t// out\n        /* \"#utility.yul\":18290:18565   */\n    tag_77:\n        /* \"#utility.yul\":18422:18425   */\n      0x00\n        /* \"#utility.yul\":18444:18539   */\n      tag_359\n        /* \"#utility.yul\":18535:18538   */\n      dup3\n        /* \"#utility.yul\":18526:18532   */\n      dup5\n        /* \"#utility.yul\":18444:18539   */\n      tag_149\n      jump\t// in\n    tag_359:\n        /* \"#utility.yul\":18437:18539   */\n      swap2\n      pop\n        /* \"#utility.yul\":18556:18559   */\n      dup2\n        /* \"#utility.yul\":18549:18559   */\n      swap1\n      pop\n        /* \"#utility.yul\":18290:18565   */\n      swap3\n      swap2\n      pop\n      pop\n      jump\t// out\n        /* \"#utility.yul\":18595:19469   */\n    tag_150:\n        /* \"#utility.yul\":18698:18701   */\n      0x00\n        /* \"#utility.yul\":18735:18740   */\n      dup2\n        /* \"#utility.yul\":18729:18741   */\n      sload\n        /* \"#utility.yul\":18764:18800   */\n      tag_361\n        /* \"#utility.yul\":18790:18799   */\n      dup2\n        /* \"#utility.yul\":18764:18800   */\n      tag_57\n      jump\t// in\n    tag_361:\n        /* \"#utility.yul\":18816:18905   */\n      tag_362\n        /* \"#utility.yul\":18898:18904   */\n      dup2\n        /* \"#utility.yul\":18893:18896   */\n      dup7\n        /* \"#utility.yul\":18816:18905   */\n      tag_148\n      jump\t// in\n    tag_362:\n        /* \"#utility.yul\":18809:18905   */\n      swap5\n      pop\n        /* \"#utility.yul\":18936:18937   */\n      0x01\n        /* \"#utility.yul\":18925:18934   */\n      dup3\n        /* \"#utility.yul\":18921:18938   */\n      and\n        /* \"#utility.yul\":18952:18953   */\n      0x00\n        /* \"#utility.yul\":18947:19113   */\n      dup2\n      eq\n      tag_364\n      jumpi\n        /* \"#utility.yul\":19127:19128   */\n      0x01\n        /* \"#utility.yul\":19122:19463   */\n      dup2\n      eq\n      tag_365\n      jumpi\n        /* \"#utility.yul\":18914:19463   */\n      jump(tag_363)\n        /* \"#utility.yul\":18947:19113   */\n    tag_364:\n        /* \"#utility.yul\":19031:19035   */\n      0xff\n        /* \"#utility.yul\":19027:19036   */\n      not\n        /* \"#utility.yul\":19016:19025   */\n      dup4\n        /* \"#utility.yul\":19012:19037   */\n      and\n        /* \"#utility.yul\":19007:19010   */\n      dup7\n        /* \"#utility.yul\":19000:19038   */\n      mstore\n        /* \"#utility.yul\":19093:19099   */\n      dup2\n        /* \"#utility.yul\":19086:19100   */\n      iszero\n        /* \"#utility.yul\":19079:19101   */\n      iszero\n        /* \"#utility.yul\":19071:19077   */\n      dup3\n        /* \"#utility.yul\":19067:19102   */\n      mul\n        /* \"#utility.yul\":19062:19065   */\n      dup7\n        /* \"#utility.yul\":19058:19103   */\n      add\n        /* \"#utility.yul\":19051:19103   */\n      swap4\n      pop\n        /* \"#utility.yul\":18947:19113   */\n      jump(tag_363)\n        /* \"#utility.yul\":19122:19463   */\n    tag_365:\n        /* \"#utility.yul\":19189:19227   */\n      tag_366\n        /* \"#utility.yul\":19221:19226   */\n      dup6\n        /* \"#utility.yul\":19189:19227   */\n      tag_125\n      jump\t// in\n    tag_366:\n        /* \"#utility.yul\":19249:19250   */\n      0x00\n        /* \"#utility.yul\":19263:19417   */\n    tag_367:\n        /* \"#utility.yul\":19277:19283   */\n      dup4\n        /* \"#utility.yul\":19274:19275   */\n      dup2\n        /* \"#utility.yul\":19271:19284   */\n      lt\n        /* \"#utility.yul\":19263:19417   */\n      iszero\n      tag_369\n      jumpi\n        /* \"#utility.yul\":19351:19358   */\n      dup2\n        /* \"#utility.yul\":19345:19359   */\n      sload\n        /* \"#utility.yul\":19341:19342   */\n      dup2\n        /* \"#utility.yul\":19336:19339   */\n      dup10\n        /* \"#utility.yul\":19332:19343   */\n      add\n        /* \"#utility.yul\":19325:19360   */\n      mstore\n        /* \"#utility.yul\":19401:19402   */\n      0x01\n        /* \"#utility.yul\":19392:19399   */\n      dup3\n        /* \"#utility.yul\":19388:19403   */\n      add\n        /* \"#utility.yul\":19377:19403   */\n      swap2\n      pop\n        /* \"#utility.yul\":19299:19303   */\n      0x20\n        /* \"#utility.yul\":19296:19297   */\n      dup2\n        /* \"#utility.yul\":19292:19304   */\n      add\n        /* \"#utility.yul\":19287:19304   */\n      swap1\n      pop\n        /* \"#utility.yul\":19263:19417   */\n      jump(tag_367)\n    tag_369:\n        /* \"#utility.yul\":19446:19452   */\n      dup4\n        /* \"#utility.yul\":19441:19444   */\n      dup9\n        /* \"#utility.yul\":19437:19453   */\n      add\n        /* \"#utility.yul\":19430:19453   */\n      swap6\n      pop\n        /* \"#utility.yul\":19129:19463   */\n      pop\n      pop\n        /* \"#utility.yul\":18914:19463   */\n    tag_363:\n      pop\n        /* \"#utility.yul\":18702:19469   */\n      pop\n      pop\n        /* \"#utility.yul\":18595:19469   */\n      swap3\n      swap2\n      pop\n      pop\n      jump\t// out\n        /* \"#utility.yul\":19475:19744   */\n    tag_79:\n        /* \"#utility.yul\":19604:19607   */\n      0x00\n        /* \"#utility.yul\":19626:19718   */\n      tag_371\n        /* \"#utility.yul\":19714:19717   */\n      dup3\n        /* \"#utility.yul\":19705:19711   */\n      dup5\n        /* \"#utility.yul\":19626:19718   */\n      tag_150\n      jump\t// in\n    tag_371:\n        /* \"#utility.yul\":19619:19718   */\n      swap2\n      pop\n        /* \"#utility.yul\":19735:19738   */\n      dup2\n        /* \"#utility.yul\":19728:19738   */\n      swap1\n      pop\n        /* \"#utility.yul\":19475:19744   */\n      swap3\n      swap2\n      pop\n      pop\n      jump\t// out\n        /* \"#utility.yul\":19750:19922   */\n    tag_151:\n        /* \"#utility.yul\":19890:19914   */\n      0x4368617269747920646f6573206e6f7420657869737400000000000000000000\n        /* \"#utility.yul\":19886:19887   */\n      0x00\n        /* \"#utility.yul\":19878:19884   */\n      dup3\n        /* \"#utility.yul\":19874:19888   */\n      add\n        /* \"#utility.yul\":19867:19915   */\n      mstore\n        /* \"#utility.yul\":19750:19922   */\n      pop\n      jump\t// out\n        /* \"#utility.yul\":19928:20294   */\n    tag_152:\n        /* \"#utility.yul\":20070:20073   */\n      0x00\n        /* \"#utility.yul\":20091:20158   */\n      tag_374\n        /* \"#utility.yul\":20155:20157   */\n      0x16\n        /* \"#utility.yul\":20150:20153   */\n      dup4\n        /* \"#utility.yul\":20091:20158   */\n      tag_114\n      jump\t// in\n    tag_374:\n        /* \"#utility.yul\":20084:20158   */\n      swap2\n      pop\n        /* \"#utility.yul\":20167:20260   */\n      tag_375\n        /* \"#utility.yul\":20256:20259   */\n      dup3\n        /* \"#utility.yul\":20167:20260   */\n      tag_151\n      jump\t// in\n    tag_375:\n        /* \"#utility.yul\":20285:20287   */\n      0x20\n        /* \"#utility.yul\":20280:20283   */\n      dup3\n        /* \"#utility.yul\":20276:20288   */\n      add\n        /* \"#utility.yul\":20269:20288   */\n      swap1\n      pop\n        /* \"#utility.yul\":19928:20294   */\n      swap2\n      swap1\n      pop\n      jump\t// out\n        /* \"#utility.yul\":20300:20719   */\n    tag_89:\n        /* \"#utility.yul\":20466:20470   */\n      0x00\n        /* \"#utility.yul\":20504:20506   */\n      0x20\n        /* \"#utility.yul\":20493:20502   */\n      dup3\n        /* \"#utility.yul\":20489:20507   */\n      add\n        /* \"#utility.yul\":20481:20507   */\n      swap1\n      pop\n        /* \"#utility.yul\":20553:20562   */\n      dup2\n        /* \"#utility.yul\":20547:20551   */\n      dup2\n        /* \"#utility.yul\":20543:20563   */\n      sub\n        /* \"#utility.yul\":20539:20540   */\n      0x00\n        /* \"#utility.yul\":20528:20537   */\n      dup4\n        /* \"#utility.yul\":20524:20541   */\n      add\n        /* \"#utility.yul\":20517:20564   */\n      mstore\n        /* \"#utility.yul\":20581:20712   */\n      tag_377\n        /* \"#utility.yul\":20707:20711   */\n      dup2\n        /* \"#utility.yul\":20581:20712   */\n      tag_152\n      jump\t// in\n    tag_377:\n        /* \"#utility.yul\":20573:20712   */\n      swap1\n      pop\n        /* \"#utility.yul\":20300:20719   */\n      swap2\n      swap1\n      pop\n      jump\t// out\n        /* \"#utility.yul\":20725:20916   */\n    tag_91:\n        /* \"#utility.yul\":20765:20768   */\n      0x00\n        /* \"#utility.yul\":20784:20804   */\n      tag_379\n        /* \"#utility.yul\":20802:20803   */\n      dup3\n        /* \"#utility.yul\":20784:20804   */\n      tag_110\n      jump\t// in\n    tag_379:\n        /* \"#utility.yul\":20779:20804   */\n      swap2\n      pop\n        /* \"#utility.yul\":20818:20838   */\n      tag_380\n        /* \"#utility.yul\":20836:20837   */\n      dup4\n        /* \"#utility.yul\":20818:20838   */\n      tag_110\n      jump\t// in\n    tag_380:\n        /* \"#utility.yul\":20813:20838   */\n      swap3\n      pop\n        /* \"#utility.yul\":20861:20862   */\n      dup3\n        /* \"#utility.yul\":20858:20859   */\n      dup3\n        /* \"#utility.yul\":20854:20863   */\n      add\n        /* \"#utility.yul\":20847:20863   */\n      swap1\n      pop\n        /* \"#utility.yul\":20882:20885   */\n      dup1\n        /* \"#utility.yul\":20879:20880   */\n      dup3\n        /* \"#utility.yul\":20876:20886   */\n      gt\n        /* \"#utility.yul\":20873:20909   */\n      iszero\n      tag_381\n      jumpi\n        /* \"#utility.yul\":20889:20907   */\n      tag_382\n      tag_123\n      jump\t// in\n    tag_382:\n        /* \"#utility.yul\":20873:20909   */\n    tag_381:\n        /* \"#utility.yul\":20725:20916   */\n      swap3\n      swap2\n      pop\n      pop\n      jump\t// out\n\n    auxdata: 0xa2646970667358221220d5a9e6c1791524c09ed1275a408bcbf7c521c899ef91e64be86d1d74bc3001bc64736f6c634300081e0033\n}\n",
				"bytecode": {
					"linkReferences": {},
					"object": "6080604052348015600e575f5ffd5b5061137d8061001c5f395ff3fe608060405234801561000f575f5ffd5b5060043610610086575f3560e01c8063913294931161005957806391329493146101165780639d32c18614610134578063ee9a543214610164578063f25d75e71461018057610086565b806314932c6b1461008a57806321b914bc146100a657806346877a38146100dc5780634e4f4f28146100f8575b5f5ffd5b6100a4600480360381019061009f91906109ef565b61019c565b005b6100c060048036038101906100bb9190610aaa565b610321565b6040516100d39796959493929190610b6d565b60405180910390f35b6100f660048036038101906100f19190610be8565b610541565b005b610100610608565b60405161010d9190610c42565b60405180910390f35b61011e61062d565b60405161012b9190610c5b565b60405180910390f35b61014e60048036038101906101499190610c74565b610632565b60405161015b9190610cd3565b60405180910390f35b61017e60048036038101906101799190610aaa565b6106ec565b005b61019a60048036038101906101959190610cec565b61077b565b005b5f5f8154809291906101ad90610d73565b91905055506040518060e001604052808481526020018373ffffffffffffffffffffffffffffffffffffffff1681526020015f8152602001606481526020016001151581526020018281526020015f151581525060025f5f5481526020019081526020015f205f820151815f0190816102269190610fb7565b506020820151816001015f6101000a81548173ffffffffffffffffffffffffffffffffffffffff021916908373ffffffffffffffffffffffffffffffffffffffff16021790555060408201518160020155606082015181600301556080820151816004015f6101000a81548160ff02191690831515021790555060a08201518160050190816102b59190610fb7565b5060c0820151816006015f6101000a81548160ff0219169083151502179055509050507f9738ee50ef49bc3ba8025ef429ffc26a3c6427e51abca46e5ea80429f1c17b4b5f5484845f60646001604051610314969594939291906110f8565b60405180910390a1505050565b60605f5f5f5f60605f5f60025f8a81526020019081526020015f206040518060e00160405290815f8201805461035690610de7565b80601f016020809104026020016040519081016040528092919081815260200182805461038290610de7565b80156103cd5780601f106103a4576101008083540402835291602001916103cd565b820191905f5260205f20905b8154815290600101906020018083116103b057829003601f168201915b50505050508152602001600182015f9054906101000a900473ffffffffffffffffffffffffffffffffffffffff1673ffffffffffffffffffffffffffffffffffffffff1673ffffffffffffffffffffffffffffffffffffffff1681526020016002820154815260200160038201548152602001600482015f9054906101000a900460ff1615151515815260200160058201805461046990610de7565b80601f016020809104026020016040519081016040528092919081815260200182805461049590610de7565b80156104e05780601f106104b7576101008083540402835291602001916104e0565b820191905f5260205f20905b8154815290600101906020018083116104c357829003601f168201915b50505050508152602001600682015f9054906101000a900460ff1615151515815250509050805f015181602001518260400151836060015184608001518560a001518660c00151975097509750975097509750975050919395979092949650565b60025f8381526020019081526020015f206001015f9054906101000a900473ffffffffffffffffffffffffffffffffffffffff1673ffffffffffffffffffffffffffffffffffffffff163373ffffffffffffffffffffffffffffffffffffffff16146105e2576040517f08c379a00000000000000000000000000000000000000000000000000000000081526004016105d9906111a8565b60405180910390fd5b8060025f8481526020019081526020015f2060050190816106039190610fb7565b505050565b60015f9054906101000a900473ffffffffffffffffffffffffffffffffffffffff1681565b5f5481565b5f5f600190505b5f5481116106c257826040516020016106529190611200565b6040516020818303038152906040528051906020012060025f8381526020019081526020015f205f0160405160200161068b9190611296565b60405160208183030381529060405280519060200120036106af57809150506106e7565b80806106ba90610d73565b915050610639565b507fffffffffffffffffffffffffffffffffffffffffffffffffffffffffffffffff90505b919050565b60025f8281526020019081526020015f206003015460025f8381526020019081526020015f20600201541061074c57600160025f8381526020019081526020015f206006015f6101000a81548160ff021916908315150217905550610778565b5f60025f8381526020019081526020015f206006015f6101000a81548160ff0219169083151502179055505b50565b5f61078583610632565b90507fffffffffffffffffffffffffffffffffffffffffffffffffffffffffffffffff81036107e9576040517f08c379a00000000000000000000000000000000000000000000000000000000081526004016107e0906112f6565b60405180910390fd5b5f60025f8381526020019081526020015f20905082816002015f8282546108109190611314565b925050819055508060030154816002015410610842575f816004015f6101000a81548160ff0219169083151502179055505b50505050565b5f604051905090565b5f5ffd5b5f5ffd5b5f5ffd5b5f5ffd5b5f601f19601f8301169050919050565b7f4e487b71000000000000000000000000000000000000000000000000000000005f52604160045260245ffd5b6108a782610861565b810181811067ffffffffffffffff821117156108c6576108c5610871565b5b80604052505050565b5f6108d8610848565b90506108e4828261089e565b919050565b5f67ffffffffffffffff82111561090357610902610871565b5b61090c82610861565b9050602081019050919050565b828183375f83830152505050565b5f610939610934846108e9565b6108cf565b9050828152602081018484840111156109555761095461085d565b5b610960848285610919565b509392505050565b5f82601f83011261097c5761097b610859565b5b813561098c848260208601610927565b91505092915050565b5f73ffffffffffffffffffffffffffffffffffffffff82169050919050565b5f6109be82610995565b9050919050565b6109ce816109b4565b81146109d8575f5ffd5b50565b5f813590506109e9816109c5565b92915050565b5f5f5f60608486031215610a0657610a05610851565b5b5f84013567ffffffffffffffff811115610a2357610a22610855565b5b610a2f86828701610968565b9350506020610a40868287016109db565b925050604084013567ffffffffffffffff811115610a6157610a60610855565b5b610a6d86828701610968565b9150509250925092565b5f819050919050565b610a8981610a77565b8114610a93575f5ffd5b50565b5f81359050610aa481610a80565b92915050565b5f60208284031215610abf57610abe610851565b5b5f610acc84828501610a96565b91505092915050565b5f81519050919050565b5f82825260208201905092915050565b8281835e5f83830152505050565b5f610b0782610ad5565b610b118185610adf565b9350610b21818560208601610aef565b610b2a81610861565b840191505092915050565b610b3e816109b4565b82525050565b610b4d81610a77565b82525050565b5f8115159050919050565b610b6781610b53565b82525050565b5f60e0820190508181035f830152610b85818a610afd565b9050610b946020830189610b35565b610ba16040830188610b44565b610bae6060830187610b44565b610bbb6080830186610b5e565b81810360a0830152610bcd8185610afd565b9050610bdc60c0830184610b5e565b98975050505050505050565b5f5f60408385031215610bfe57610bfd610851565b5b5f610c0b85828601610a96565b925050602083013567ffffffffffffffff811115610c2c57610c2b610855565b5b610c3885828601610968565b9150509250929050565b5f602082019050610c555f830184610b35565b92915050565b5f602082019050610c6e5f830184610b44565b92915050565b5f60208284031215610c8957610c88610851565b5b5f82013567ffffffffffffffff811115610ca657610ca5610855565b5b610cb284828501610968565b91505092915050565b5f819050919050565b610ccd81610cbb565b82525050565b5f602082019050610ce65f830184610cc4565b92915050565b5f5f60408385031215610d0257610d01610851565b5b5f83013567ffffffffffffffff811115610d1f57610d1e610855565b5b610d2b85828601610968565b9250506020610d3c85828601610a96565b9150509250929050565b7f4e487b71000000000000000000000000000000000000000000000000000000005f52601160045260245ffd5b5f610d7d82610a77565b91507fffffffffffffffffffffffffffffffffffffffffffffffffffffffffffffffff8203610daf57610dae610d46565b5b600182019050919050565b7f4e487b71000000000000000000000000000000000000000000000000000000005f52602260045260245ffd5b5f6002820490506001821680610dfe57607f821691505b602082108103610e1157610e10610dba565b5b50919050565b5f819050815f5260205f209050919050565b5f6020601f8301049050919050565b5f82821b905092915050565b5f60088302610e737fffffffffffffffffffffffffffffffffffffffffffffffffffffffffffffffff82610e38565b610e7d8683610e38565b95508019841693508086168417925050509392505050565b5f819050919050565b5f610eb8610eb3610eae84610a77565b610e95565b610a77565b9050919050565b5f819050919050565b610ed183610e9e565b610ee5610edd82610ebf565b848454610e44565b825550505050565b5f5f905090565b610efc610eed565b610f07818484610ec8565b505050565b5b81811015610f2a57610f1f5f82610ef4565b600181019050610f0d565b5050565b601f821115610f6f57610f4081610e17565b610f4984610e29565b81016020851015610f58578190505b610f6c610f6485610e29565b830182610f0c565b50505b505050565b5f82821c905092915050565b5f610f8f5f1984600802610f74565b1980831691505092915050565b5f610fa78383610f80565b9150826002028217905092915050565b610fc082610ad5565b67ffffffffffffffff811115610fd957610fd8610871565b5b610fe38254610de7565b610fee828285610f2e565b5f60209050601f83116001811461101f575f841561100d578287015190505b6110178582610f9c565b86555061107e565b601f19841661102d86610e17565b5f5b828110156110545784890151825560018201915060208501945060208101905061102f565b86831015611071578489015161106d601f891682610f80565b8355505b6001600288020188555050505b505050505050565b5f819050919050565b5f6110a96110a461109f84611086565b610e95565b610a77565b9050919050565b6110b98161108f565b82525050565b5f819050919050565b5f6110e26110dd6110d8846110bf565b610e95565b610a77565b9050919050565b6110f2816110c8565b82525050565b5f60c08201905061110b5f830189610b44565b818103602083015261111d8188610afd565b905061112c6040830187610b35565b61113960608301866110b0565b61114660808301856110e9565b61115360a0830184610b5e565b979650505050505050565b7f4e6f7420617574686f72697a65640000000000000000000000000000000000005f82015250565b5f611192600e83610adf565b915061119d8261115e565b602082019050919050565b5f6020820190508181035f8301526111bf81611186565b9050919050565b5f81905092915050565b5f6111da82610ad5565b6111e481856111c6565b93506111f4818560208601610aef565b80840191505092915050565b5f61120b82846111d0565b915081905092915050565b5f815461122281610de7565b61122c81866111c6565b9450600182165f8114611246576001811461125b5761128d565b60ff198316865281151582028601935061128d565b61126485610e17565b5f5b8381101561128557815481890152600182019150602081019050611266565b838801955050505b50505092915050565b5f6112a18284611216565b915081905092915050565b7f4368617269747920646f6573206e6f74206578697374000000000000000000005f82015250565b5f6112e0601683610adf565b91506112eb826112ac565b602082019050919050565b5f6020820190508181035f83015261130d816112d4565b9050919050565b5f61131e82610a77565b915061132983610a77565b925082820190508082111561134157611340610d46565b5b9291505056fea2646970667358221220d5a9e6c1791524c09ed1275a408bcbf7c521c899ef91e64be86d1d74bc3001bc64736f6c634300081e0033",
					"opcodes": "PUSH1 0x80 PUSH1 0x40 MSTORE CALLVALUE DUP1 ISZERO PUSH1 0xE JUMPI PUSH0 PUSH0 REVERT JUMPDEST POP PUSH2 0x137D DUP1 PUSH2 0x1C PUSH0 CODECOPY PUSH0 RETURN INVALID PUSH1 0x80 PUSH1 0x40 MSTORE CALLVALUE DUP1 ISZERO PUSH2 0xF JUMPI PUSH0 PUSH0 REVERT JUMPDEST POP PUSH1 0x4 CALLDATASIZE LT PUSH2 0x86 JUMPI PUSH0 CALLDATALOAD PUSH1 0xE0 SHR DUP1 PUSH4 0x91329493 GT PUSH2 0x59 JUMPI DUP1 PUSH4 0x91329493 EQ PUSH2 0x116 JUMPI DUP1 PUSH4 0x9D32C186 EQ PUSH2 0x134 JUMPI DUP1 PUSH4 0xEE9A5432 EQ PUSH2 0x164 JUMPI DUP1 PUSH4 0xF25D75E7 EQ PUSH2 0x180 JUMPI PUSH2 0x86 JUMP JUMPDEST DUP1 PUSH4 0x14932C6B EQ PUSH2 0x8A JUMPI DUP1 PUSH4 0x21B914BC EQ PUSH2 0xA6 JUMPI DUP1 PUSH4 0x46877A38 EQ PUSH2 0xDC JUMPI DUP1 PUSH4 0x4E4F4F28 EQ PUSH2 0xF8 JUMPI JUMPDEST PUSH0 PUSH0 REVERT JUMPDEST PUSH2 0xA4 PUSH1 0x4 DUP1 CALLDATASIZE SUB DUP2 ADD SWAP1 PUSH2 0x9F SWAP2 SWAP1 PUSH2 0x9EF JUMP JUMPDEST PUSH2 0x19C JUMP JUMPDEST STOP JUMPDEST PUSH2 0xC0 PUSH1 0x4 DUP1 CALLDATASIZE SUB DUP2 ADD SWAP1 PUSH2 0xBB SWAP2 SWAP1 PUSH2 0xAAA JUMP JUMPDEST PUSH2 0x321 JUMP JUMPDEST PUSH1 0x40 MLOAD PUSH2 0xD3 SWAP8 SWAP7 SWAP6 SWAP5 SWAP4 SWAP3 SWAP2 SWAP1 PUSH2 0xB6D JUMP JUMPDEST PUSH1 0x40 MLOAD DUP1 SWAP2 SUB SWAP1 RETURN JUMPDEST PUSH2 0xF6 PUSH1 0x4 DUP1 CALLDATASIZE SUB DUP2 ADD SWAP1 PUSH2 0xF1 SWAP2 SWAP1 PUSH2 0xBE8 JUMP JUMPDEST PUSH2 0x541 JUMP JUMPDEST STOP JUMPDEST PUSH2 0x100 PUSH2 0x608 JUMP JUMPDEST PUSH1 0x40 MLOAD PUSH2 0x10D SWAP2 SWAP1 PUSH2 0xC42 JUMP JUMPDEST PUSH1 0x40 MLOAD DUP1 SWAP2 SUB SWAP1 RETURN JUMPDEST PUSH2 0x11E PUSH2 0x62D JUMP JUMPDEST PUSH1 0x40 MLOAD PUSH2 0x12B SWAP2 SWAP1 PUSH2 0xC5B JUMP JUMPDEST PUSH1 0x40 MLOAD DUP1 SWAP2 SUB SWAP1 RETURN JUMPDEST PUSH2 0x14E PUSH1 0x4 DUP1 CALLDATASIZE SUB DUP2 ADD SWAP1 PUSH2 0x149 SWAP2 SWAP1 PUSH2 0xC74 JUMP JUMPDEST PUSH2 0x632 JUMP JUMPDEST PUSH1 0x40 MLOAD PUSH2 0x15B SWAP2 SWAP1 PUSH2 0xCD3 JUMP JUMPDEST PUSH1 0x40 MLOAD DUP1 SWAP2 SUB SWAP1 RETURN JUMPDEST PUSH2 0x17E PUSH1 0x4 DUP1 CALLDATASIZE SUB DUP2 ADD SWAP1 PUSH2 0x179 SWAP2 SWAP1 PUSH2 0xAAA JUMP JUMPDEST PUSH2 0x6EC JUMP JUMPDEST STOP JUMPDEST PUSH2 0x19A PUSH1 0x4 DUP1 CALLDATASIZE SUB DUP2 ADD SWAP1 PUSH2 0x195 SWAP2 SWAP1 PUSH2 0xCEC JUMP JUMPDEST PUSH2 0x77B JUMP JUMPDEST STOP JUMPDEST PUSH0 PUSH0 DUP2 SLOAD DUP1 SWAP3 SWAP2 SWAP1 PUSH2 0x1AD SWAP1 PUSH2 0xD73 JUMP JUMPDEST SWAP2 SWAP1 POP SSTORE POP PUSH1 0x40 MLOAD DUP1 PUSH1 0xE0 ADD PUSH1 0x40 MSTORE DUP1 DUP5 DUP2 MSTORE PUSH1 0x20 ADD DUP4 PUSH20 0xFFFFFFFFFFFFFFFFFFFFFFFFFFFFFFFFFFFFFFFF AND DUP2 MSTORE PUSH1 0x20 ADD PUSH0 DUP2 MSTORE PUSH1 0x20 ADD PUSH1 0x64 DUP2 MSTORE PUSH1 0x20 ADD PUSH1 0x1 ISZERO ISZERO DUP2 MSTORE PUSH1 0x20 ADD DUP3 DUP2 MSTORE PUSH1 0x20 ADD PUSH0 ISZERO ISZERO DUP2 MSTORE POP PUSH1 0x2 PUSH0 PUSH0 SLOAD DUP2 MSTORE PUSH1 0x20 ADD SWAP1 DUP2 MSTORE PUSH1 0x20 ADD PUSH0 KECCAK256 PUSH0 DUP3 ADD MLOAD DUP2 PUSH0 ADD SWAP1 DUP2 PUSH2 0x226 SWAP2 SWAP1 PUSH2 0xFB7 JUMP JUMPDEST POP PUSH1 0x20 DUP3 ADD MLOAD DUP2 PUSH1 0x1 ADD PUSH0 PUSH2 0x100 EXP DUP2 SLOAD DUP2 PUSH20 0xFFFFFFFFFFFFFFFFFFFFFFFFFFFFFFFFFFFFFFFF MUL NOT AND SWAP1 DUP4 PUSH20 0xFFFFFFFFFFFFFFFFFFFFFFFFFFFFFFFFFFFFFFFF AND MUL OR SWAP1 SSTORE POP PUSH1 0x40 DUP3 ADD MLOAD DUP2 PUSH1 0x2 ADD SSTORE PUSH1 0x60 DUP3 ADD MLOAD DUP2 PUSH1 0x3 ADD SSTORE PUSH1 0x80 DUP3 ADD MLOAD DUP2 PUSH1 0x4 ADD PUSH0 PUSH2 0x100 EXP DUP2 SLOAD DUP2 PUSH1 0xFF MUL NOT AND SWAP1 DUP4 ISZERO ISZERO MUL OR SWAP1 SSTORE POP PUSH1 0xA0 DUP3 ADD MLOAD DUP2 PUSH1 0x5 ADD SWAP1 DUP2 PUSH2 0x2B5 SWAP2 SWAP1 PUSH2 0xFB7 JUMP JUMPDEST POP PUSH1 0xC0 DUP3 ADD MLOAD DUP2 PUSH1 0x6 ADD PUSH0 PUSH2 0x100 EXP DUP2 SLOAD DUP2 PUSH1 0xFF MUL NOT AND SWAP1 DUP4 ISZERO ISZERO MUL OR SWAP1 SSTORE POP SWAP1 POP POP PUSH32 0x9738EE50EF49BC3BA8025EF429FFC26A3C6427E51ABCA46E5EA80429F1C17B4B PUSH0 SLOAD DUP5 DUP5 PUSH0 PUSH1 0x64 PUSH1 0x1 PUSH1 0x40 MLOAD PUSH2 0x314 SWAP7 SWAP6 SWAP5 SWAP4 SWAP3 SWAP2 SWAP1 PUSH2 0x10F8 JUMP JUMPDEST PUSH1 0x40 MLOAD DUP1 SWAP2 SUB SWAP1 LOG1 POP POP POP JUMP JUMPDEST PUSH1 0x60 PUSH0 PUSH0 PUSH0 PUSH0 PUSH1 0x60 PUSH0 PUSH0 PUSH1 0x2 PUSH0 DUP11 DUP2 MSTORE PUSH1 0x20 ADD SWAP1 DUP2 MSTORE PUSH1 0x20 ADD PUSH0 KECCAK256 PUSH1 0x40 MLOAD DUP1 PUSH1 0xE0 ADD PUSH1 0x40 MSTORE SWAP1 DUP2 PUSH0 DUP3 ADD DUP1 SLOAD PUSH2 0x356 SWAP1 PUSH2 0xDE7 JUMP JUMPDEST DUP1 PUSH1 0x1F ADD PUSH1 0x20 DUP1 SWAP2 DIV MUL PUSH1 0x20 ADD PUSH1 0x40 MLOAD SWAP1 DUP2 ADD PUSH1 0x40 MSTORE DUP1 SWAP3 SWAP2 SWAP1 DUP2 DUP2 MSTORE PUSH1 0x20 ADD DUP3 DUP1 SLOAD PUSH2 0x382 SWAP1 PUSH2 0xDE7 JUMP JUMPDEST DUP1 ISZERO PUSH2 0x3CD JUMPI DUP1 PUSH1 0x1F LT PUSH2 0x3A4 JUMPI PUSH2 0x100 DUP1 DUP4 SLOAD DIV MUL DUP4 MSTORE SWAP2 PUSH1 0x20 ADD SWAP2 PUSH2 0x3CD JUMP JUMPDEST DUP3 ADD SWAP2 SWAP1 PUSH0 MSTORE PUSH1 0x20 PUSH0 KECCAK256 SWAP1 JUMPDEST DUP2 SLOAD DUP2 MSTORE SWAP1 PUSH1 0x1 ADD SWAP1 PUSH1 0x20 ADD DUP1 DUP4 GT PUSH2 0x3B0 JUMPI DUP3 SWAP1 SUB PUSH1 0x1F AND DUP3 ADD SWAP2 JUMPDEST POP POP POP POP POP DUP2 MSTORE PUSH1 0x20 ADD PUSH1 0x1 DUP3 ADD PUSH0 SWAP1 SLOAD SWAP1 PUSH2 0x100 EXP SWAP1 DIV PUSH20 0xFFFFFFFFFFFFFFFFFFFFFFFFFFFFFFFFFFFFFFFF AND PUSH20 0xFFFFFFFFFFFFFFFFFFFFFFFFFFFFFFFFFFFFFFFF AND PUSH20 0xFFFFFFFFFFFFFFFFFFFFFFFFFFFFFFFFFFFFFFFF AND DUP2 MSTORE PUSH1 0x20 ADD PUSH1 0x2 DUP3 ADD SLOAD DUP2 MSTORE PUSH1 0x20 ADD PUSH1 0x3 DUP3 ADD SLOAD DUP2 MSTORE PUSH1 0x20 ADD PUSH1 0x4 DUP3 ADD PUSH0 SWAP1 SLOAD SWAP1 PUSH2 0x100 EXP SWAP1 DIV PUSH1 0xFF AND ISZERO ISZERO ISZERO ISZERO DUP2 MSTORE PUSH1 0x20 ADD PUSH1 0x5 DUP3 ADD DUP1 SLOAD PUSH2 0x469 SWAP1 PUSH2 0xDE7 JUMP JUMPDEST DUP1 PUSH1 0x1F ADD PUSH1 0x20 DUP1 SWAP2 DIV MUL PUSH1 0x20 ADD PUSH1 0x40 MLOAD SWAP1 DUP2 ADD PUSH1 0x40 MSTORE DUP1 SWAP3 SWAP2 SWAP1 DUP2 DUP2 MSTORE PUSH1 0x20 ADD DUP3 DUP1 SLOAD PUSH2 0x495 SWAP1 PUSH2 0xDE7 JUMP JUMPDEST DUP1 ISZERO PUSH2 0x4E0 JUMPI DUP1 PUSH1 0x1F LT PUSH2 0x4B7 JUMPI PUSH2 0x100 DUP1 DUP4 SLOAD DIV MUL DUP4 MSTORE SWAP2 PUSH1 0x20 ADD SWAP2 PUSH2 0x4E0 JUMP JUMPDEST DUP3 ADD SWAP2 SWAP1 PUSH0 MSTORE PUSH1 0x20 PUSH0 KECCAK256 SWAP1 JUMPDEST DUP2 SLOAD DUP2 MSTORE SWAP1 PUSH1 0x1 ADD SWAP1 PUSH1 0x20 ADD DUP1 DUP4 GT PUSH2 0x4C3 JUMPI DUP3 SWAP1 SUB PUSH1 0x1F AND DUP3 ADD SWAP2 JUMPDEST POP POP POP POP POP DUP2 MSTORE PUSH1 0x20 ADD PUSH1 0x6 DUP3 ADD PUSH0 SWAP1 SLOAD SWAP1 PUSH2 0x100 EXP SWAP1 DIV PUSH1 0xFF AND ISZERO ISZERO ISZERO ISZERO DUP2 MSTORE POP POP SWAP1 POP DUP1 PUSH0 ADD MLOAD DUP2 PUSH1 0x20 ADD MLOAD DUP3 PUSH1 0x40 ADD MLOAD DUP4 PUSH1 0x60 ADD MLOAD DUP5 PUSH1 0x80 ADD MLOAD DUP6 PUSH1 0xA0 ADD MLOAD DUP7 PUSH1 0xC0 ADD MLOAD SWAP8 POP SWAP8 POP SWAP8 POP SWAP8 POP SWAP8 POP SWAP8 POP SWAP8 POP POP SWAP2 SWAP4 SWAP6 SWAP8 SWAP1 SWAP3 SWAP5 SWAP7 POP JUMP JUMPDEST PUSH1 0x2 PUSH0 DUP4 DUP2 MSTORE PUSH1 0x20 ADD SWAP1 DUP2 MSTORE PUSH1 0x20 ADD PUSH0 KECCAK256 PUSH1 0x1 ADD PUSH0 SWAP1 SLOAD SWAP1 PUSH2 0x100 EXP SWAP1 DIV PUSH20 0xFFFFFFFFFFFFFFFFFFFFFFFFFFFFFFFFFFFFFFFF AND PUSH20 0xFFFFFFFFFFFFFFFFFFFFFFFFFFFFFFFFFFFFFFFF AND CALLER PUSH20 0xFFFFFFFFFFFFFFFFFFFFFFFFFFFFFFFFFFFFFFFF AND EQ PUSH2 0x5E2 JUMPI PUSH1 0x40 MLOAD PUSH32 0x8C379A000000000000000000000000000000000000000000000000000000000 DUP2 MSTORE PUSH1 0x4 ADD PUSH2 0x5D9 SWAP1 PUSH2 0x11A8 JUMP JUMPDEST PUSH1 0x40 MLOAD DUP1 SWAP2 SUB SWAP1 REVERT JUMPDEST DUP1 PUSH1 0x2 PUSH0 DUP5 DUP2 MSTORE PUSH1 0x20 ADD SWAP1 DUP2 MSTORE PUSH1 0x20 ADD PUSH0 KECCAK256 PUSH1 0x5 ADD SWAP1 DUP2 PUSH2 0x603 SWAP2 SWAP1 PUSH2 0xFB7 JUMP JUMPDEST POP POP POP JUMP JUMPDEST PUSH1 0x1 PUSH0 SWAP1 SLOAD SWAP1 PUSH2 0x100 EXP SWAP1 DIV PUSH20 0xFFFFFFFFFFFFFFFFFFFFFFFFFFFFFFFFFFFFFFFF AND DUP2 JUMP JUMPDEST PUSH0 SLOAD DUP2 JUMP JUMPDEST PUSH0 PUSH0 PUSH1 0x1 SWAP1 POP JUMPDEST PUSH0 SLOAD DUP2 GT PUSH2 0x6C2 JUMPI DUP3 PUSH1 0x40 MLOAD PUSH1 0x20 ADD PUSH2 0x652 SWAP2 SWAP1 PUSH2 0x1200 JUMP JUMPDEST PUSH1 0x40 MLOAD PUSH1 0x20 DUP2 DUP4 SUB SUB DUP2 MSTORE SWAP1 PUSH1 0x40 MSTORE DUP1 MLOAD SWAP1 PUSH1 0x20 ADD KECCAK256 PUSH1 0x2 PUSH0 DUP4 DUP2 MSTORE PUSH1 0x20 ADD SWAP1 DUP2 MSTORE PUSH1 0x20 ADD PUSH0 KECCAK256 PUSH0 ADD PUSH1 0x40 MLOAD PUSH1 0x20 ADD PUSH2 0x68B SWAP2 SWAP1 PUSH2 0x1296 JUMP JUMPDEST PUSH1 0x40 MLOAD PUSH1 0x20 DUP2 DUP4 SUB SUB DUP2 MSTORE SWAP1 PUSH1 0x40 MSTORE DUP1 MLOAD SWAP1 PUSH1 0x20 ADD KECCAK256 SUB PUSH2 0x6AF JUMPI DUP1 SWAP2 POP POP PUSH2 0x6E7 JUMP JUMPDEST DUP1 DUP1 PUSH2 0x6BA SWAP1 PUSH2 0xD73 JUMP JUMPDEST SWAP2 POP POP PUSH2 0x639 JUMP JUMPDEST POP PUSH32 0xFFFFFFFFFFFFFFFFFFFFFFFFFFFFFFFFFFFFFFFFFFFFFFFFFFFFFFFFFFFFFFFF SWAP1 POP JUMPDEST SWAP2 SWAP1 POP JUMP JUMPDEST PUSH1 0x2 PUSH0 DUP3 DUP2 MSTORE PUSH1 0x20 ADD SWAP1 DUP2 MSTORE PUSH1 0x20 ADD PUSH0 KECCAK256 PUSH1 0x3 ADD SLOAD PUSH1 0x2 PUSH0 DUP4 DUP2 MSTORE PUSH1 0x20 ADD SWAP1 DUP2 MSTORE PUSH1 0x20 ADD PUSH0 KECCAK256 PUSH1 0x2 ADD SLOAD LT PUSH2 0x74C JUMPI PUSH1 0x1 PUSH1 0x2 PUSH0 DUP4 DUP2 MSTORE PUSH1 0x20 ADD SWAP1 DUP2 MSTORE PUSH1 0x20 ADD PUSH0 KECCAK256 PUSH1 0x6 ADD PUSH0 PUSH2 0x100 EXP DUP2 SLOAD DUP2 PUSH1 0xFF MUL NOT AND SWAP1 DUP4 ISZERO ISZERO MUL OR SWAP1 SSTORE POP PUSH2 0x778 JUMP JUMPDEST PUSH0 PUSH1 0x2 PUSH0 DUP4 DUP2 MSTORE PUSH1 0x20 ADD SWAP1 DUP2 MSTORE PUSH1 0x20 ADD PUSH0 KECCAK256 PUSH1 0x6 ADD PUSH0 PUSH2 0x100 EXP DUP2 SLOAD DUP2 PUSH1 0xFF MUL NOT AND SWAP1 DUP4 ISZERO ISZERO MUL OR SWAP1 SSTORE POP JUMPDEST POP JUMP JUMPDEST PUSH0 PUSH2 0x785 DUP4 PUSH2 0x632 JUMP JUMPDEST SWAP1 POP PUSH32 0xFFFFFFFFFFFFFFFFFFFFFFFFFFFFFFFFFFFFFFFFFFFFFFFFFFFFFFFFFFFFFFFF DUP2 SUB PUSH2 0x7E9 JUMPI PUSH1 0x40 MLOAD PUSH32 0x8C379A000000000000000000000000000000000000000000000000000000000 DUP2 MSTORE PUSH1 0x4 ADD PUSH2 0x7E0 SWAP1 PUSH2 0x12F6 JUMP JUMPDEST PUSH1 0x40 MLOAD DUP1 SWAP2 SUB SWAP1 REVERT JUMPDEST PUSH0 PUSH1 0x2 PUSH0 DUP4 DUP2 MSTORE PUSH1 0x20 ADD SWAP1 DUP2 MSTORE PUSH1 0x20 ADD PUSH0 KECCAK256 SWAP1 POP DUP3 DUP2 PUSH1 0x2 ADD PUSH0 DUP3 DUP3 SLOAD PUSH2 0x810 SWAP2 SWAP1 PUSH2 0x1314 JUMP JUMPDEST SWAP3 POP POP DUP2 SWAP1 SSTORE POP DUP1 PUSH1 0x3 ADD SLOAD DUP2 PUSH1 0x2 ADD SLOAD LT PUSH2 0x842 JUMPI PUSH0 DUP2 PUSH1 0x4 ADD PUSH0 PUSH2 0x100 EXP DUP2 SLOAD DUP2 PUSH1 0xFF MUL NOT AND SWAP1 DUP4 ISZERO ISZERO MUL OR SWAP1 SSTORE POP JUMPDEST POP POP POP POP JUMP JUMPDEST PUSH0 PUSH1 0x40 MLOAD SWAP1 POP SWAP1 JUMP JUMPDEST PUSH0 PUSH0 REVERT JUMPDEST PUSH0 PUSH0 REVERT JUMPDEST PUSH0 PUSH0 REVERT JUMPDEST PUSH0 PUSH0 REVERT JUMPDEST PUSH0 PUSH1 0x1F NOT PUSH1 0x1F DUP4 ADD AND SWAP1 POP SWAP2 SWAP1 POP JUMP JUMPDEST PUSH32 0x4E487B7100000000000000000000000000000000000000000000000000000000 PUSH0 MSTORE PUSH1 0x41 PUSH1 0x4 MSTORE PUSH1 0x24 PUSH0 REVERT JUMPDEST PUSH2 0x8A7 DUP3 PUSH2 0x861 JUMP JUMPDEST DUP2 ADD DUP2 DUP2 LT PUSH8 0xFFFFFFFFFFFFFFFF DUP3 GT OR ISZERO PUSH2 0x8C6 JUMPI PUSH2 0x8C5 PUSH2 0x871 JUMP JUMPDEST JUMPDEST DUP1 PUSH1 0x40 MSTORE POP POP POP JUMP JUMPDEST PUSH0 PUSH2 0x8D8 PUSH2 0x848 JUMP JUMPDEST SWAP1 POP PUSH2 0x8E4 DUP3 DUP3 PUSH2 0x89E JUMP JUMPDEST SWAP2 SWAP1 POP JUMP JUMPDEST PUSH0 PUSH8 0xFFFFFFFFFFFFFFFF DUP3 GT ISZERO PUSH2 0x903 JUMPI PUSH2 0x902 PUSH2 0x871 JUMP JUMPDEST JUMPDEST PUSH2 0x90C DUP3 PUSH2 0x861 JUMP JUMPDEST SWAP1 POP PUSH1 0x20 DUP2 ADD SWAP1 POP SWAP2 SWAP1 POP JUMP JUMPDEST DUP3 DUP2 DUP4 CALLDATACOPY PUSH0 DUP4 DUP4 ADD MSTORE POP POP POP JUMP JUMPDEST PUSH0 PUSH2 0x939 PUSH2 0x934 DUP5 PUSH2 0x8E9 JUMP JUMPDEST PUSH2 0x8CF JUMP JUMPDEST SWAP1 POP DUP3 DUP2 MSTORE PUSH1 0x20 DUP2 ADD DUP5 DUP5 DUP5 ADD GT ISZERO PUSH2 0x955 JUMPI PUSH2 0x954 PUSH2 0x85D JUMP JUMPDEST JUMPDEST PUSH2 0x960 DUP5 DUP3 DUP6 PUSH2 0x919 JUMP JUMPDEST POP SWAP4 SWAP3 POP POP POP JUMP JUMPDEST PUSH0 DUP3 PUSH1 0x1F DUP4 ADD SLT PUSH2 0x97C JUMPI PUSH2 0x97B PUSH2 0x859 JUMP JUMPDEST JUMPDEST DUP2 CALLDATALOAD PUSH2 0x98C DUP5 DUP3 PUSH1 0x20 DUP7 ADD PUSH2 0x927 JUMP JUMPDEST SWAP2 POP POP SWAP3 SWAP2 POP POP JUMP JUMPDEST PUSH0 PUSH20 0xFFFFFFFFFFFFFFFFFFFFFFFFFFFFFFFFFFFFFFFF DUP3 AND SWAP1 POP SWAP2 SWAP1 POP JUMP JUMPDEST PUSH0 PUSH2 0x9BE DUP3 PUSH2 0x995 JUMP JUMPDEST SWAP1 POP SWAP2 SWAP1 POP JUMP JUMPDEST PUSH2 0x9CE DUP2 PUSH2 0x9B4 JUMP JUMPDEST DUP2 EQ PUSH2 0x9D8 JUMPI PUSH0 PUSH0 REVERT JUMPDEST POP JUMP JUMPDEST PUSH0 DUP2 CALLDATALOAD SWAP1 POP PUSH2 0x9E9 DUP2 PUSH2 0x9C5 JUMP JUMPDEST SWAP3 SWAP2 POP POP JUMP JUMPDEST PUSH0 PUSH0 PUSH0 PUSH1 0x60 DUP5 DUP7 SUB SLT ISZERO PUSH2 0xA06 JUMPI PUSH2 0xA05 PUSH2 0x851 JUMP JUMPDEST JUMPDEST PUSH0 DUP5 ADD CALLDATALOAD PUSH8 0xFFFFFFFFFFFFFFFF DUP2 GT ISZERO PUSH2 0xA23 JUMPI PUSH2 0xA22 PUSH2 0x855 JUMP JUMPDEST JUMPDEST PUSH2 0xA2F DUP7 DUP3 DUP8 ADD PUSH2 0x968 JUMP JUMPDEST SWAP4 POP POP PUSH1 0x20 PUSH2 0xA40 DUP7 DUP3 DUP8 ADD PUSH2 0x9DB JUMP JUMPDEST SWAP3 POP POP PUSH1 0x40 DUP5 ADD CALLDATALOAD PUSH8 0xFFFFFFFFFFFFFFFF DUP2 GT ISZERO PUSH2 0xA61 JUMPI PUSH2 0xA60 PUSH2 0x855 JUMP JUMPDEST JUMPDEST PUSH2 0xA6D DUP7 DUP3 DUP8 ADD PUSH2 0x968 JUMP JUMPDEST SWAP2 POP POP SWAP3 POP SWAP3 POP SWAP3 JUMP JUMPDEST PUSH0 DUP2 SWAP1 POP SWAP2 SWAP1 POP JUMP JUMPDEST PUSH2 0xA89 DUP2 PUSH2 0xA77 JUMP JUMPDEST DUP2 EQ PUSH2 0xA93 JUMPI PUSH0 PUSH0 REVERT JUMPDEST POP JUMP JUMPDEST PUSH0 DUP2 CALLDATALOAD SWAP1 POP PUSH2 0xAA4 DUP2 PUSH2 0xA80 JUMP JUMPDEST SWAP3 SWAP2 POP POP JUMP JUMPDEST PUSH0 PUSH1 0x20 DUP3 DUP5 SUB SLT ISZERO PUSH2 0xABF JUMPI PUSH2 0xABE PUSH2 0x851 JUMP JUMPDEST JUMPDEST PUSH0 PUSH2 0xACC DUP5 DUP3 DUP6 ADD PUSH2 0xA96 JUMP JUMPDEST SWAP2 POP POP SWAP3 SWAP2 POP POP JUMP JUMPDEST PUSH0 DUP2 MLOAD SWAP1 POP SWAP2 SWAP1 POP JUMP JUMPDEST PUSH0 DUP3 DUP3 MSTORE PUSH1 0x20 DUP3 ADD SWAP1 POP SWAP3 SWAP2 POP POP JUMP JUMPDEST DUP3 DUP2 DUP4 MCOPY PUSH0 DUP4 DUP4 ADD MSTORE POP POP POP JUMP JUMPDEST PUSH0 PUSH2 0xB07 DUP3 PUSH2 0xAD5 JUMP JUMPDEST PUSH2 0xB11 DUP2 DUP6 PUSH2 0xADF JUMP JUMPDEST SWAP4 POP PUSH2 0xB21 DUP2 DUP6 PUSH1 0x20 DUP7 ADD PUSH2 0xAEF JUMP JUMPDEST PUSH2 0xB2A DUP2 PUSH2 0x861 JUMP JUMPDEST DUP5 ADD SWAP2 POP POP SWAP3 SWAP2 POP POP JUMP JUMPDEST PUSH2 0xB3E DUP2 PUSH2 0x9B4 JUMP JUMPDEST DUP3 MSTORE POP POP JUMP JUMPDEST PUSH2 0xB4D DUP2 PUSH2 0xA77 JUMP JUMPDEST DUP3 MSTORE POP POP JUMP JUMPDEST PUSH0 DUP2 ISZERO ISZERO SWAP1 POP SWAP2 SWAP1 POP JUMP JUMPDEST PUSH2 0xB67 DUP2 PUSH2 0xB53 JUMP JUMPDEST DUP3 MSTORE POP POP JUMP JUMPDEST PUSH0 PUSH1 0xE0 DUP3 ADD SWAP1 POP DUP2 DUP2 SUB PUSH0 DUP4 ADD MSTORE PUSH2 0xB85 DUP2 DUP11 PUSH2 0xAFD JUMP JUMPDEST SWAP1 POP PUSH2 0xB94 PUSH1 0x20 DUP4 ADD DUP10 PUSH2 0xB35 JUMP JUMPDEST PUSH2 0xBA1 PUSH1 0x40 DUP4 ADD DUP9 PUSH2 0xB44 JUMP JUMPDEST PUSH2 0xBAE PUSH1 0x60 DUP4 ADD DUP8 PUSH2 0xB44 JUMP JUMPDEST PUSH2 0xBBB PUSH1 0x80 DUP4 ADD DUP7 PUSH2 0xB5E JUMP JUMPDEST DUP2 DUP2 SUB PUSH1 0xA0 DUP4 ADD MSTORE PUSH2 0xBCD DUP2 DUP6 PUSH2 0xAFD JUMP JUMPDEST SWAP1 POP PUSH2 0xBDC PUSH1 0xC0 DUP4 ADD DUP5 PUSH2 0xB5E JUMP JUMPDEST SWAP9 SWAP8 POP POP POP POP POP POP POP POP JUMP JUMPDEST PUSH0 PUSH0 PUSH1 0x40 DUP4 DUP6 SUB SLT ISZERO PUSH2 0xBFE JUMPI PUSH2 0xBFD PUSH2 0x851 JUMP JUMPDEST JUMPDEST PUSH0 PUSH2 0xC0B DUP6 DUP3 DUP7 ADD PUSH2 0xA96 JUMP JUMPDEST SWAP3 POP POP PUSH1 0x20 DUP4 ADD CALLDATALOAD PUSH8 0xFFFFFFFFFFFFFFFF DUP2 GT ISZERO PUSH2 0xC2C JUMPI PUSH2 0xC2B PUSH2 0x855 JUMP JUMPDEST JUMPDEST PUSH2 0xC38 DUP6 DUP3 DUP7 ADD PUSH2 0x968 JUMP JUMPDEST SWAP2 POP POP SWAP3 POP SWAP3 SWAP1 POP JUMP JUMPDEST PUSH0 PUSH1 0x20 DUP3 ADD SWAP1 POP PUSH2 0xC55 PUSH0 DUP4 ADD DUP5 PUSH2 0xB35 JUMP JUMPDEST SWAP3 SWAP2 POP POP JUMP JUMPDEST PUSH0 PUSH1 0x20 DUP3 ADD SWAP1 POP PUSH2 0xC6E PUSH0 DUP4 ADD DUP5 PUSH2 0xB44 JUMP JUMPDEST SWAP3 SWAP2 POP POP JUMP JUMPDEST PUSH0 PUSH1 0x20 DUP3 DUP5 SUB SLT ISZERO PUSH2 0xC89 JUMPI PUSH2 0xC88 PUSH2 0x851 JUMP JUMPDEST JUMPDEST PUSH0 DUP3 ADD CALLDATALOAD PUSH8 0xFFFFFFFFFFFFFFFF DUP2 GT ISZERO PUSH2 0xCA6 JUMPI PUSH2 0xCA5 PUSH2 0x855 JUMP JUMPDEST JUMPDEST PUSH2 0xCB2 DUP5 DUP3 DUP6 ADD PUSH2 0x968 JUMP JUMPDEST SWAP2 POP POP SWAP3 SWAP2 POP POP JUMP JUMPDEST PUSH0 DUP2 SWAP1 POP SWAP2 SWAP1 POP JUMP JUMPDEST PUSH2 0xCCD DUP2 PUSH2 0xCBB JUMP JUMPDEST DUP3 MSTORE POP POP JUMP JUMPDEST PUSH0 PUSH1 0x20 DUP3 ADD SWAP1 POP PUSH2 0xCE6 PUSH0 DUP4 ADD DUP5 PUSH2 0xCC4 JUMP JUMPDEST SWAP3 SWAP2 POP POP JUMP JUMPDEST PUSH0 PUSH0 PUSH1 0x40 DUP4 DUP6 SUB SLT ISZERO PUSH2 0xD02 JUMPI PUSH2 0xD01 PUSH2 0x851 JUMP JUMPDEST JUMPDEST PUSH0 DUP4 ADD CALLDATALOAD PUSH8 0xFFFFFFFFFFFFFFFF DUP2 GT ISZERO PUSH2 0xD1F JUMPI PUSH2 0xD1E PUSH2 0x855 JUMP JUMPDEST JUMPDEST PUSH2 0xD2B DUP6 DUP3 DUP7 ADD PUSH2 0x968 JUMP JUMPDEST SWAP3 POP POP PUSH1 0x20 PUSH2 0xD3C DUP6 DUP3 DUP7 ADD PUSH2 0xA96 JUMP JUMPDEST SWAP2 POP POP SWAP3 POP SWAP3 SWAP1 POP JUMP JUMPDEST PUSH32 0x4E487B7100000000000000000000000000000000000000000000000000000000 PUSH0 MSTORE PUSH1 0x11 PUSH1 0x4 MSTORE PUSH1 0x24 PUSH0 REVERT JUMPDEST PUSH0 PUSH2 0xD7D DUP3 PUSH2 0xA77 JUMP JUMPDEST SWAP2 POP PUSH32 0xFFFFFFFFFFFFFFFFFFFFFFFFFFFFFFFFFFFFFFFFFFFFFFFFFFFFFFFFFFFFFFFF DUP3 SUB PUSH2 0xDAF JUMPI PUSH2 0xDAE PUSH2 0xD46 JUMP JUMPDEST JUMPDEST PUSH1 0x1 DUP3 ADD SWAP1 POP SWAP2 SWAP1 POP JUMP JUMPDEST PUSH32 0x4E487B7100000000000000000000000000000000000000000000000000000000 PUSH0 MSTORE PUSH1 0x22 PUSH1 0x4 MSTORE PUSH1 0x24 PUSH0 REVERT JUMPDEST PUSH0 PUSH1 0x2 DUP3 DIV SWAP1 POP PUSH1 0x1 DUP3 AND DUP1 PUSH2 0xDFE JUMPI PUSH1 0x7F DUP3 AND SWAP2 POP JUMPDEST PUSH1 0x20 DUP3 LT DUP2 SUB PUSH2 0xE11 JUMPI PUSH2 0xE10 PUSH2 0xDBA JUMP JUMPDEST JUMPDEST POP SWAP2 SWAP1 POP JUMP JUMPDEST PUSH0 DUP2 SWAP1 POP DUP2 PUSH0 MSTORE PUSH1 0x20 PUSH0 KECCAK256 SWAP1 POP SWAP2 SWAP1 POP JUMP JUMPDEST PUSH0 PUSH1 0x20 PUSH1 0x1F DUP4 ADD DIV SWAP1 POP SWAP2 SWAP1 POP JUMP JUMPDEST PUSH0 DUP3 DUP3 SHL SWAP1 POP SWAP3 SWAP2 POP POP JUMP JUMPDEST PUSH0 PUSH1 0x8 DUP4 MUL PUSH2 0xE73 PUSH32 0xFFFFFFFFFFFFFFFFFFFFFFFFFFFFFFFFFFFFFFFFFFFFFFFFFFFFFFFFFFFFFFFF DUP3 PUSH2 0xE38 JUMP JUMPDEST PUSH2 0xE7D DUP7 DUP4 PUSH2 0xE38 JUMP JUMPDEST SWAP6 POP DUP1 NOT DUP5 AND SWAP4 POP DUP1 DUP7 AND DUP5 OR SWAP3 POP POP POP SWAP4 SWAP3 POP POP POP JUMP JUMPDEST PUSH0 DUP2 SWAP1 POP SWAP2 SWAP1 POP JUMP JUMPDEST PUSH0 PUSH2 0xEB8 PUSH2 0xEB3 PUSH2 0xEAE DUP5 PUSH2 0xA77 JUMP JUMPDEST PUSH2 0xE95 JUMP JUMPDEST PUSH2 0xA77 JUMP JUMPDEST SWAP1 POP SWAP2 SWAP1 POP JUMP JUMPDEST PUSH0 DUP2 SWAP1 POP SWAP2 SWAP1 POP JUMP JUMPDEST PUSH2 0xED1 DUP4 PUSH2 0xE9E JUMP JUMPDEST PUSH2 0xEE5 PUSH2 0xEDD DUP3 PUSH2 0xEBF JUMP JUMPDEST DUP5 DUP5 SLOAD PUSH2 0xE44 JUMP JUMPDEST DUP3 SSTORE POP POP POP POP JUMP JUMPDEST PUSH0 PUSH0 SWAP1 POP SWAP1 JUMP JUMPDEST PUSH2 0xEFC PUSH2 0xEED JUMP JUMPDEST PUSH2 0xF07 DUP2 DUP5 DUP5 PUSH2 0xEC8 JUMP JUMPDEST POP POP POP JUMP JUMPDEST JUMPDEST DUP2 DUP2 LT ISZERO PUSH2 0xF2A JUMPI PUSH2 0xF1F PUSH0 DUP3 PUSH2 0xEF4 JUMP JUMPDEST PUSH1 0x1 DUP2 ADD SWAP1 POP PUSH2 0xF0D JUMP JUMPDEST POP POP JUMP JUMPDEST PUSH1 0x1F DUP3 GT ISZERO PUSH2 0xF6F JUMPI PUSH2 0xF40 DUP2 PUSH2 0xE17 JUMP JUMPDEST PUSH2 0xF49 DUP5 PUSH2 0xE29 JUMP JUMPDEST DUP2 ADD PUSH1 0x20 DUP6 LT ISZERO PUSH2 0xF58 JUMPI DUP2 SWAP1 POP JUMPDEST PUSH2 0xF6C PUSH2 0xF64 DUP6 PUSH2 0xE29 JUMP JUMPDEST DUP4 ADD DUP3 PUSH2 0xF0C JUMP JUMPDEST POP POP JUMPDEST POP POP POP JUMP JUMPDEST PUSH0 DUP3 DUP3 SHR SWAP1 POP SWAP3 SWAP2 POP POP JUMP JUMPDEST PUSH0 PUSH2 0xF8F PUSH0 NOT DUP5 PUSH1 0x8 MUL PUSH2 0xF74 JUMP JUMPDEST NOT DUP1 DUP4 AND SWAP2 POP POP SWAP3 SWAP2 POP POP JUMP JUMPDEST PUSH0 PUSH2 0xFA7 DUP4 DUP4 PUSH2 0xF80 JUMP JUMPDEST SWAP2 POP DUP3 PUSH1 0x2 MUL DUP3 OR SWAP1 POP SWAP3 SWAP2 POP POP JUMP JUMPDEST PUSH2 0xFC0 DUP3 PUSH2 0xAD5 JUMP JUMPDEST PUSH8 0xFFFFFFFFFFFFFFFF DUP2 GT ISZERO PUSH2 0xFD9 JUMPI PUSH2 0xFD8 PUSH2 0x871 JUMP JUMPDEST JUMPDEST PUSH2 0xFE3 DUP3 SLOAD PUSH2 0xDE7 JUMP JUMPDEST PUSH2 0xFEE DUP3 DUP3 DUP6 PUSH2 0xF2E JUMP JUMPDEST PUSH0 PUSH1 0x20 SWAP1 POP PUSH1 0x1F DUP4 GT PUSH1 0x1 DUP2 EQ PUSH2 0x101F JUMPI PUSH0 DUP5 ISZERO PUSH2 0x100D JUMPI DUP3 DUP8 ADD MLOAD SWAP1 POP JUMPDEST PUSH2 0x1017 DUP6 DUP3 PUSH2 0xF9C JUMP JUMPDEST DUP7 SSTORE POP PUSH2 0x107E JUMP JUMPDEST PUSH1 0x1F NOT DUP5 AND PUSH2 0x102D DUP7 PUSH2 0xE17 JUMP JUMPDEST PUSH0 JUMPDEST DUP3 DUP2 LT ISZERO PUSH2 0x1054 JUMPI DUP5 DUP10 ADD MLOAD DUP3 SSTORE PUSH1 0x1 DUP3 ADD SWAP2 POP PUSH1 0x20 DUP6 ADD SWAP5 POP PUSH1 0x20 DUP2 ADD SWAP1 POP PUSH2 0x102F JUMP JUMPDEST DUP7 DUP4 LT ISZERO PUSH2 0x1071 JUMPI DUP5 DUP10 ADD MLOAD PUSH2 0x106D PUSH1 0x1F DUP10 AND DUP3 PUSH2 0xF80 JUMP JUMPDEST DUP4 SSTORE POP JUMPDEST PUSH1 0x1 PUSH1 0x2 DUP9 MUL ADD DUP9 SSTORE POP POP POP JUMPDEST POP POP POP POP POP POP JUMP JUMPDEST PUSH0 DUP2 SWAP1 POP SWAP2 SWAP1 POP JUMP JUMPDEST PUSH0 PUSH2 0x10A9 PUSH2 0x10A4 PUSH2 0x109F DUP5 PUSH2 0x1086 JUMP JUMPDEST PUSH2 0xE95 JUMP JUMPDEST PUSH2 0xA77 JUMP JUMPDEST SWAP1 POP SWAP2 SWAP1 POP JUMP JUMPDEST PUSH2 0x10B9 DUP2 PUSH2 0x108F JUMP JUMPDEST DUP3 MSTORE POP POP JUMP JUMPDEST PUSH0 DUP2 SWAP1 POP SWAP2 SWAP1 POP JUMP JUMPDEST PUSH0 PUSH2 0x10E2 PUSH2 0x10DD PUSH2 0x10D8 DUP5 PUSH2 0x10BF JUMP JUMPDEST PUSH2 0xE95 JUMP JUMPDEST PUSH2 0xA77 JUMP JUMPDEST SWAP1 POP SWAP2 SWAP1 POP JUMP JUMPDEST PUSH2 0x10F2 DUP2 PUSH2 0x10C8 JUMP JUMPDEST DUP3 MSTORE POP POP JUMP JUMPDEST PUSH0 PUSH1 0xC0 DUP3 ADD SWAP1 POP PUSH2 0x110B PUSH0 DUP4 ADD DUP10 PUSH2 0xB44 JUMP JUMPDEST DUP2 DUP2 SUB PUSH1 0x20 DUP4 ADD MSTORE PUSH2 0x111D DUP2 DUP9 PUSH2 0xAFD JUMP JUMPDEST SWAP1 POP PUSH2 0x112C PUSH1 0x40 DUP4 ADD DUP8 PUSH2 0xB35 JUMP JUMPDEST PUSH2 0x1139 PUSH1 0x60 DUP4 ADD DUP7 PUSH2 0x10B0 JUMP JUMPDEST PUSH2 0x1146 PUSH1 0x80 DUP4 ADD DUP6 PUSH2 0x10E9 JUMP JUMPDEST PUSH2 0x1153 PUSH1 0xA0 DUP4 ADD DUP5 PUSH2 0xB5E JUMP JUMPDEST SWAP8 SWAP7 POP POP POP POP POP POP POP JUMP JUMPDEST PUSH32 0x4E6F7420617574686F72697A6564000000000000000000000000000000000000 PUSH0 DUP3 ADD MSTORE POP JUMP JUMPDEST PUSH0 PUSH2 0x1192 PUSH1 0xE DUP4 PUSH2 0xADF JUMP JUMPDEST SWAP2 POP PUSH2 0x119D DUP3 PUSH2 0x115E JUMP JUMPDEST PUSH1 0x20 DUP3 ADD SWAP1 POP SWAP2 SWAP1 POP JUMP JUMPDEST PUSH0 PUSH1 0x20 DUP3 ADD SWAP1 POP DUP2 DUP2 SUB PUSH0 DUP4 ADD MSTORE PUSH2 0x11BF DUP2 PUSH2 0x1186 JUMP JUMPDEST SWAP1 POP SWAP2 SWAP1 POP JUMP JUMPDEST PUSH0 DUP2 SWAP1 POP SWAP3 SWAP2 POP POP JUMP JUMPDEST PUSH0 PUSH2 0x11DA DUP3 PUSH2 0xAD5 JUMP JUMPDEST PUSH2 0x11E4 DUP2 DUP6 PUSH2 0x11C6 JUMP JUMPDEST SWAP4 POP PUSH2 0x11F4 DUP2 DUP6 PUSH1 0x20 DUP7 ADD PUSH2 0xAEF JUMP JUMPDEST DUP1 DUP5 ADD SWAP2 POP POP SWAP3 SWAP2 POP POP JUMP JUMPDEST PUSH0 PUSH2 0x120B DUP3 DUP5 PUSH2 0x11D0 JUMP JUMPDEST SWAP2 POP DUP2 SWAP1 POP SWAP3 SWAP2 POP POP JUMP JUMPDEST PUSH0 DUP2 SLOAD PUSH2 0x1222 DUP2 PUSH2 0xDE7 JUMP JUMPDEST PUSH2 0x122C DUP2 DUP7 PUSH2 0x11C6 JUMP JUMPDEST SWAP5 POP PUSH1 0x1 DUP3 AND PUSH0 DUP2 EQ PUSH2 0x1246 JUMPI PUSH1 0x1 DUP2 EQ PUSH2 0x125B JUMPI PUSH2 0x128D JUMP JUMPDEST PUSH1 0xFF NOT DUP4 AND DUP7 MSTORE DUP2 ISZERO ISZERO DUP3 MUL DUP7 ADD SWAP4 POP PUSH2 0x128D JUMP JUMPDEST PUSH2 0x1264 DUP6 PUSH2 0xE17 JUMP JUMPDEST PUSH0 JUMPDEST DUP4 DUP2 LT ISZERO PUSH2 0x1285 JUMPI DUP2 SLOAD DUP2 DUP10 ADD MSTORE PUSH1 0x1 DUP3 ADD SWAP2 POP PUSH1 0x20 DUP2 ADD SWAP1 POP PUSH2 0x1266 JUMP JUMPDEST DUP4 DUP9 ADD SWAP6 POP POP POP JUMPDEST POP POP POP SWAP3 SWAP2 POP POP JUMP JUMPDEST PUSH0 PUSH2 0x12A1 DUP3 DUP5 PUSH2 0x1216 JUMP JUMPDEST SWAP2 POP DUP2 SWAP1 POP SWAP3 SWAP2 POP POP JUMP JUMPDEST PUSH32 0x4368617269747920646F6573206E6F7420657869737400000000000000000000 PUSH0 DUP3 ADD MSTORE POP JUMP JUMPDEST PUSH0 PUSH2 0x12E0 PUSH1 0x16 DUP4 PUSH2 0xADF JUMP JUMPDEST SWAP2 POP PUSH2 0x12EB DUP3 PUSH2 0x12AC JUMP JUMPDEST PUSH1 0x20 DUP3 ADD SWAP1 POP SWAP2 SWAP1 POP JUMP JUMPDEST PUSH0 PUSH1 0x20 DUP3 ADD SWAP1 POP DUP2 DUP2 SUB PUSH0 DUP4 ADD MSTORE PUSH2 0x130D DUP2 PUSH2 0x12D4 JUMP JUMPDEST SWAP1 POP SWAP2 SWAP1 POP JUMP JUMPDEST PUSH0 PUSH2 0x131E DUP3 PUSH2 0xA77 JUMP JUMPDEST SWAP2 POP PUSH2 0x1329 DUP4 PUSH2 0xA77 JUMP JUMPDEST SWAP3 POP DUP3 DUP3 ADD SWAP1 POP DUP1 DUP3 GT ISZERO PUSH2 0x1341 JUMPI PUSH2 0x1340 PUSH2 0xD46 JUMP JUMPDEST JUMPDEST SWAP3 SWAP2 POP POP JUMP INVALID LOG2 PUSH5 0x6970667358 0x22 SLT KECCAK256 0xD5 0xA9 DUPN 0xC1 PUSH26 0x1524C09ED1275A408BCBF7C521C899EF91E64BE86D1D74BC3001 0xBC PUSH5 0x736F6C6343 STOP ADDMOD 0x1E STOP CALLER "
				},
				"gasEstimates": {
					"creation": {
						"codeDepositCost": "997800",
						"executionCost": "1032",
						"totalCost": "998832"
					},
					"external": {
						"addCharity(string,address,string)": "infinite",
						"charityCount()": "2424",
						"charityExists(string)": "infinite",
						"contributeFunds(string,uint256)": "infinite",
						"getCharityById(uint256)": "infinite",
						"markMilestoneComplete(uint256)": "29191",
						"roleContractAdd()": "2575",
						"updateMilestone(uint256,string)": "infinite"
					}
				},
				"methodIdentifiers": {
					"addCharity(string,address,string)": "14932c6b",
					"charityCount()": "91329493",
					"charityExists(string)": "9d32c186",
					"contributeFunds(string,uint256)": "f25d75e7",
					"getCharityById(uint256)": "21b914bc",
					"markMilestoneComplete(uint256)": "ee9a5432",
					"roleContractAdd()": "4e4f4f28",
					"updateMilestone(uint256,string)": "46877a38"
				}
			},
			"storageLayout": {
				"storage": [
					{
						"astId": 3,
						"contract": "contracts/milestone_distribution.sol:DistributionContract",
						"label": "charityCount",
						"offset": 0,
						"slot": "0",
						"type": "t_uint256"
					},
					{
						"astId": 5,
						"contract": "contracts/milestone_distribution.sol:DistributionContract",
						"label": "roleContractAdd",
						"offset": 0,
						"slot": "1",
						"type": "t_address"
					},
					{
						"astId": 25,
						"contract": "contracts/milestone_distribution.sol:DistributionContract",
						"label": "charities",
						"offset": 0,
						"slot": "2",
						"type": "t_mapping(t_uint256,t_struct(CharityDetails)20_storage)"
					}
				],
				"types": {
					"t_address": {
						"encoding": "inplace",
						"label": "address",
						"numberOfBytes": "20"
					},
					"t_bool": {
						"encoding": "inplace",
						"label": "bool",
						"numberOfBytes": "1"
					},
					"t_mapping(t_uint256,t_struct(CharityDetails)20_storage)": {
						"encoding": "mapping",
						"key": "t_uint256",
						"label": "mapping(uint256 => struct DistributionContract.CharityDetails)",
						"numberOfBytes": "32",
						"value": "t_struct(CharityDetails)20_storage"
					},
					"t_string_storage": {
						"encoding": "bytes",
						"label": "string",
						"numberOfBytes": "32"
					},
					"t_struct(CharityDetails)20_storage": {
						"encoding": "inplace",
						"label": "struct DistributionContract.CharityDetails",
						"members": [
							{
								"astId": 7,
								"contract": "contracts/milestone_distribution.sol:DistributionContract",
								"label": "name",
								"offset": 0,
								"slot": "0",
								"type": "t_string_storage"
							},
							{
								"astId": 9,
								"contract": "contracts/milestone_distribution.sol:DistributionContract",
								"label": "charityAddress",
								"offset": 0,
								"slot": "1",
								"type": "t_address"
							},
							{
								"astId": 11,
								"contract": "contracts/milestone_distribution.sol:DistributionContract",
								"label": "totalRaised",
								"offset": 0,
								"slot": "2",
								"type": "t_uint256"
							},
							{
								"astId": 13,
								"contract": "contracts/milestone_distribution.sol:DistributionContract",
								"label": "targetDonation",
								"offset": 0,
								"slot": "3",
								"type": "t_uint256"
							},
							{
								"astId": 15,
								"contract": "contracts/milestone_distribution.sol:DistributionContract",
								"label": "fundsLocked",
								"offset": 0,
								"slot": "4",
								"type": "t_bool"
							},
							{
								"astId": 17,
								"contract": "contracts/milestone_distribution.sol:DistributionContract",
								"label": "milestoneDescription",
								"offset": 0,
								"slot": "5",
								"type": "t_string_storage"
							},
							{
								"astId": 19,
								"contract": "contracts/milestone_distribution.sol:DistributionContract",
								"label": "isMilestoneComplete",
								"offset": 0,
								"slot": "6",
								"type": "t_bool"
							}
						],
						"numberOfBytes": "224"
					},
					"t_uint256": {
						"encoding": "inplace",
						"label": "uint256",
						"numberOfBytes": "32"
					}
				}
			},
			"userdoc": {
				"kind": "user",
				"methods": {},
				"version": 1
			}
		}
	}
}