{
	"contracts/rolebasedlogin.sol": {
		"RoleBasedLogin": {
			"abi": [
				{
					"anonymous": false,
					"inputs": [
						{
							"indexed": true,
							"internalType": "address",
							"name": "user",
							"type": "address"
						},
						{
							"indexed": false,
							"internalType": "enum RoleBasedLogin.Role",
							"name": "role",
							"type": "uint8"
						}
					],
					"name": "UserLoggedIn",
					"type": "event"
				},
				{
					"anonymous": false,
					"inputs": [
						{
							"indexed": true,
							"internalType": "address",
							"name": "user",
							"type": "address"
						},
						{
							"indexed": false,
							"internalType": "string",
							"name": "username",
							"type": "string"
						},
						{
							"indexed": false,
							"internalType": "enum RoleBasedLogin.Role",
							"name": "role",
							"type": "uint8"
						}
					],
					"name": "UserRegistered",
					"type": "event"
				},
				{
					"inputs": [],
					"name": "getMyDetails",
					"outputs": [
						{
							"components": [
								{
									"internalType": "string",
									"name": "username",
									"type": "string"
								},
								{
									"internalType": "enum RoleBasedLogin.Role",
									"name": "role",
									"type": "uint8"
								},
								{
									"internalType": "bool",
									"name": "isRegistered",
									"type": "bool"
								}
							],
							"internalType": "struct RoleBasedLogin.User",
							"name": "",
							"type": "tuple"
						}
					],
					"stateMutability": "view",
					"type": "function"
				},
				{
					"inputs": [],
					"name": "getMyRole",
					"outputs": [
						{
							"internalType": "string",
							"name": "",
							"type": "string"
						}
					],
					"stateMutability": "view",
					"type": "function"
				},
				{
					"inputs": [],
					"name": "login",
					"outputs": [
						{
							"internalType": "bool",
							"name": "success",
							"type": "bool"
						},
						{
							"internalType": "string",
							"name": "role",
							"type": "string"
						}
					],
					"stateMutability": "view",
					"type": "function"
				},
				{
					"inputs": [],
					"name": "logout",
					"outputs": [
						{
							"internalType": "bool",
							"name": "success",
							"type": "bool"
						}
					],
					"stateMutability": "nonpayable",
					"type": "function"
				},
				{
					"inputs": [
						{
							"internalType": "string",
							"name": "_username",
							"type": "string"
						},
						{
							"internalType": "string",
							"name": "_role",
							"type": "string"
						}
					],
					"name": "register",
					"outputs": [],
					"stateMutability": "nonpayable",
					"type": "function"
				}
			],
			"devdoc": {
				"kind": "dev",
				"methods": {},
				"version": 1
			},
			"evm": {
				"assembly": "    /* \"contracts/rolebasedlogin.sol\":57:3431  contract RoleBasedLogin {... */\n  mstore(0x40, 0x80)\n  callvalue\n  dup1\n  iszero\n  tag_1\n  jumpi\n  revert(0x00, 0x00)\ntag_1:\n  pop\n  dataSize(sub_0)\n  dup1\n  dataOffset(sub_0)\n  0x00\n  codecopy\n  0x00\n  return\nstop\n\nsub_0: assembly {\n        /* \"contracts/rolebasedlogin.sol\":57:3431  contract RoleBasedLogin {... */\n      mstore(0x40, 0x80)\n      callvalue\n      dup1\n      iszero\n      tag_1\n      jumpi\n      revert(0x00, 0x00)\n    tag_1:\n      pop\n      jumpi(tag_2, lt(calldatasize, 0x04))\n      shr(0xe0, calldataload(0x00))\n      dup1\n      0x1f3c99c3\n      eq\n      tag_3\n      jumpi\n      dup1\n      0x3ffbd47f\n      eq\n      tag_4\n      jumpi\n      dup1\n      0x431bbb7e\n      eq\n      tag_5\n      jumpi\n      dup1\n      0x6e3b47fc\n      eq\n      tag_6\n      jumpi\n      dup1\n      0xb34e97e8\n      eq\n      tag_7\n      jumpi\n    tag_2:\n      revert(0x00, 0x00)\n        /* \"contracts/rolebasedlogin.sol\":1833:2222  function logout() public returns (bool success) {... */\n    tag_3:\n      tag_8\n      tag_9\n      jump\t// in\n    tag_8:\n      mload(0x40)\n      tag_10\n      swap2\n      swap1\n      tag_11\n      jump\t// in\n    tag_10:\n      mload(0x40)\n      dup1\n      swap2\n      sub\n      swap1\n      return\n        /* \"contracts/rolebasedlogin.sol\":885:1418  function register(string memory _username, string memory _role) public {... */\n    tag_4:\n      tag_12\n      0x04\n      dup1\n      calldatasize\n      sub\n      dup2\n      add\n      swap1\n      tag_13\n      swap2\n      swap1\n      tag_14\n      jump\t// in\n    tag_13:\n      tag_15\n      jump\t// in\n    tag_12:\n      stop\n        /* \"contracts/rolebasedlogin.sol\":3264:3429  function getMyDetails() public view returns (User memory) {... */\n    tag_5:\n      tag_16\n      tag_17\n      jump\t// in\n    tag_16:\n      mload(0x40)\n      tag_18\n      swap2\n      swap1\n      tag_19\n      jump\t// in\n    tag_18:\n      mload(0x40)\n      dup1\n      swap2\n      sub\n      swap1\n      return\n        /* \"contracts/rolebasedlogin.sol\":3071:3258  function getMyRole() public view returns (string memory) {... */\n    tag_6:\n      tag_20\n      tag_21\n      jump\t// in\n    tag_20:\n      mload(0x40)\n      tag_22\n      swap2\n      swap1\n      tag_23\n      jump\t// in\n    tag_22:\n      mload(0x40)\n      dup1\n      swap2\n      sub\n      swap1\n      return\n        /* \"contracts/rolebasedlogin.sol\":1523:1827  function login() public view returns (bool success, string memory role) {... */\n    tag_7:\n      tag_24\n      tag_25\n      jump\t// in\n    tag_24:\n      mload(0x40)\n      tag_26\n      swap3\n      swap2\n      swap1\n      tag_27\n      jump\t// in\n    tag_26:\n      mload(0x40)\n      dup1\n      swap2\n      sub\n      swap1\n      return\n        /* \"contracts/rolebasedlogin.sol\":1833:2222  function logout() public returns (bool success) {... */\n    tag_9:\n        /* \"contracts/rolebasedlogin.sol\":1867:1879  bool success */\n      0x00\n        /* \"contracts/rolebasedlogin.sol\":1904:1909  users */\n      0x00\n        /* \"contracts/rolebasedlogin.sol\":1904:1921  users[msg.sender] */\n      0x00\n        /* \"contracts/rolebasedlogin.sol\":1910:1920  msg.sender */\n      caller\n        /* \"contracts/rolebasedlogin.sol\":1904:1921  users[msg.sender] */\n      0xffffffffffffffffffffffffffffffffffffffff\n      and\n      0xffffffffffffffffffffffffffffffffffffffff\n      and\n      dup2\n      mstore\n      0x20\n      add\n      swap1\n      dup2\n      mstore\n      0x20\n      add\n      0x00\n      keccak256\n        /* \"contracts/rolebasedlogin.sol\":1904:1934  users[msg.sender].isRegistered */\n      0x01\n      add\n      0x01\n      swap1\n      sload\n      swap1\n      0x0100\n      exp\n      swap1\n      div\n      0xff\n      and\n        /* \"contracts/rolebasedlogin.sol\":1900:1972  if(!users[msg.sender].isRegistered){... */\n      tag_29\n      jumpi\n        /* \"contracts/rolebasedlogin.sol\":1956:1961  false */\n      0x00\n        /* \"contracts/rolebasedlogin.sol\":1949:1961  return false */\n      swap1\n      pop\n      jump(tag_28)\n        /* \"contracts/rolebasedlogin.sol\":1900:1972  if(!users[msg.sender].isRegistered){... */\n    tag_29:\n        /* \"contracts/rolebasedlogin.sol\":2001:2027  User(\"\", Role.None, false) */\n      mload(0x40)\n      dup1\n      0x60\n      add\n      0x40\n      mstore\n      dup1\n      mload(0x40)\n      dup1\n      0x20\n      add\n      0x40\n      mstore\n      dup1\n      0x00\n      dup2\n      mstore\n      pop\n      dup2\n      mstore\n      0x20\n      add\n        /* \"contracts/rolebasedlogin.sol\":2010:2019  Role.None */\n      0x00\n        /* \"contracts/rolebasedlogin.sol\":2001:2027  User(\"\", Role.None, false) */\n      0x02\n      dup2\n      gt\n      iszero\n      tag_30\n      jumpi\n      tag_31\n      tag_32\n      jump\t// in\n    tag_31:\n    tag_30:\n      dup2\n      mstore\n      0x20\n      add\n        /* \"contracts/rolebasedlogin.sol\":2021:2026  false */\n      0x00\n        /* \"contracts/rolebasedlogin.sol\":2001:2027  User(\"\", Role.None, false) */\n      iszero\n      iszero\n      dup2\n      mstore\n      pop\n        /* \"contracts/rolebasedlogin.sol\":1981:1986  users */\n      0x00\n        /* \"contracts/rolebasedlogin.sol\":1981:1998  users[msg.sender] */\n      0x00\n        /* \"contracts/rolebasedlogin.sol\":1987:1997  msg.sender */\n      caller\n        /* \"contracts/rolebasedlogin.sol\":1981:1998  users[msg.sender] */\n      0xffffffffffffffffffffffffffffffffffffffff\n      and\n      0xffffffffffffffffffffffffffffffffffffffff\n      and\n      dup2\n      mstore\n      0x20\n      add\n      swap1\n      dup2\n      mstore\n      0x20\n      add\n      0x00\n      keccak256\n        /* \"contracts/rolebasedlogin.sol\":1981:2027  users[msg.sender] = User(\"\", Role.None, false) */\n      0x00\n      dup3\n      add\n      mload\n      dup2\n      0x00\n      add\n      swap1\n      dup2\n      tag_33\n      swap2\n      swap1\n      tag_34\n      jump\t// in\n    tag_33:\n      pop\n      0x20\n      dup3\n      add\n      mload\n      dup2\n      0x01\n      add\n      exp(0x0100, 0x00)\n      dup2\n      sload\n      dup2\n      0xff\n      mul\n      not\n      and\n      swap1\n      dup4\n      0x02\n      dup2\n      gt\n      iszero\n      tag_35\n      jumpi\n      tag_36\n      tag_32\n      jump\t// in\n    tag_36:\n    tag_35:\n      mul\n      or\n      swap1\n      sstore\n      pop\n      0x40\n      dup3\n      add\n      mload\n      dup2\n      0x01\n      add\n      exp(0x0100, 0x01)\n      dup2\n      sload\n      dup2\n      0xff\n      mul\n      not\n      and\n      swap1\n      dup4\n      iszero\n      iszero\n      mul\n      or\n      swap1\n      sstore\n      pop\n      swap1\n      pop\n      pop\n        /* \"contracts/rolebasedlogin.sol\":2070:2075  false */\n      0x00\n        /* \"contracts/rolebasedlogin.sol\":2037:2042  users */\n      0x00\n        /* \"contracts/rolebasedlogin.sol\":2037:2054  users[msg.sender] */\n      0x00\n        /* \"contracts/rolebasedlogin.sol\":2043:2053  msg.sender */\n      caller\n        /* \"contracts/rolebasedlogin.sol\":2037:2054  users[msg.sender] */\n      0xffffffffffffffffffffffffffffffffffffffff\n      and\n      0xffffffffffffffffffffffffffffffffffffffff\n      and\n      dup2\n      mstore\n      0x20\n      add\n      swap1\n      dup2\n      mstore\n      0x20\n      add\n      0x00\n      keccak256\n        /* \"contracts/rolebasedlogin.sol\":2037:2067  users[msg.sender].isRegistered */\n      0x01\n      add\n      0x01\n        /* \"contracts/rolebasedlogin.sol\":2037:2075  users[msg.sender].isRegistered = false */\n      0x0100\n      exp\n      dup2\n      sload\n      dup2\n      0xff\n      mul\n      not\n      and\n      swap1\n      dup4\n      iszero\n      iszero\n      mul\n      or\n      swap1\n      sstore\n      pop\n        /* \"contracts/rolebasedlogin.sol\":2159:2169  msg.sender */\n      caller\n        /* \"contracts/rolebasedlogin.sol\":2146:2194  UserLoggedIn(msg.sender, users[msg.sender].role) */\n      0xffffffffffffffffffffffffffffffffffffffff\n      and\n      0xc1e1f43082cc0942da58f0dbc1b91c167501c02c01e62ca603480bbded03b5f3\n        /* \"contracts/rolebasedlogin.sol\":2171:2176  users */\n      0x00\n        /* \"contracts/rolebasedlogin.sol\":2171:2188  users[msg.sender] */\n      0x00\n        /* \"contracts/rolebasedlogin.sol\":2177:2187  msg.sender */\n      caller\n        /* \"contracts/rolebasedlogin.sol\":2171:2188  users[msg.sender] */\n      0xffffffffffffffffffffffffffffffffffffffff\n      and\n      0xffffffffffffffffffffffffffffffffffffffff\n      and\n      dup2\n      mstore\n      0x20\n      add\n      swap1\n      dup2\n      mstore\n      0x20\n      add\n      0x00\n      keccak256\n        /* \"contracts/rolebasedlogin.sol\":2171:2193  users[msg.sender].role */\n      0x01\n      add\n      0x00\n      swap1\n      sload\n      swap1\n      0x0100\n      exp\n      swap1\n      div\n      0xff\n      and\n        /* \"contracts/rolebasedlogin.sol\":2146:2194  UserLoggedIn(msg.sender, users[msg.sender].role) */\n      mload(0x40)\n      tag_37\n      swap2\n      swap1\n      tag_38\n      jump\t// in\n    tag_37:\n      mload(0x40)\n      dup1\n      swap2\n      sub\n      swap1\n      log2\n        /* \"contracts/rolebasedlogin.sol\":2211:2215  true */\n      0x01\n        /* \"contracts/rolebasedlogin.sol\":2204:2215  return true */\n      swap1\n      pop\n        /* \"contracts/rolebasedlogin.sol\":1833:2222  function logout() public returns (bool success) {... */\n    tag_28:\n      swap1\n      jump\t// out\n        /* \"contracts/rolebasedlogin.sol\":885:1418  function register(string memory _username, string memory _role) public {... */\n    tag_15:\n        /* \"contracts/rolebasedlogin.sol\":975:980  users */\n      0x00\n        /* \"contracts/rolebasedlogin.sol\":975:992  users[msg.sender] */\n      0x00\n        /* \"contracts/rolebasedlogin.sol\":981:991  msg.sender */\n      caller\n        /* \"contracts/rolebasedlogin.sol\":975:992  users[msg.sender] */\n      0xffffffffffffffffffffffffffffffffffffffff\n      and\n      0xffffffffffffffffffffffffffffffffffffffff\n      and\n      dup2\n      mstore\n      0x20\n      add\n      swap1\n      dup2\n      mstore\n      0x20\n      add\n      0x00\n      keccak256\n        /* \"contracts/rolebasedlogin.sol\":975:1005  users[msg.sender].isRegistered */\n      0x01\n      add\n      0x01\n      swap1\n      sload\n      swap1\n      0x0100\n      exp\n      swap1\n      div\n      0xff\n      and\n        /* \"contracts/rolebasedlogin.sol\":974:1005  !users[msg.sender].isRegistered */\n      iszero\n        /* \"contracts/rolebasedlogin.sol\":966:1028  require(!users[msg.sender].isRegistered, \"Already registered\") */\n      tag_40\n      jumpi\n      mload(0x40)\n      0x08c379a000000000000000000000000000000000000000000000000000000000\n      dup2\n      mstore\n      0x04\n      add\n      tag_41\n      swap1\n      tag_42\n      jump\t// in\n    tag_41:\n      mload(0x40)\n      dup1\n      swap2\n      sub\n      swap1\n      revert\n    tag_40:\n        /* \"contracts/rolebasedlogin.sol\":1095:1112  Role selectedRole */\n      0x00\n        /* \"contracts/rolebasedlogin.sol\":1115:1139  getRoleFromString(_role) */\n      tag_43\n        /* \"contracts/rolebasedlogin.sol\":1133:1138  _role */\n      dup3\n        /* \"contracts/rolebasedlogin.sol\":1115:1132  getRoleFromString */\n      tag_44\n        /* \"contracts/rolebasedlogin.sol\":1115:1139  getRoleFromString(_role) */\n      jump\t// in\n    tag_43:\n        /* \"contracts/rolebasedlogin.sol\":1095:1139  Role selectedRole = getRoleFromString(_role) */\n      swap1\n      pop\n        /* \"contracts/rolebasedlogin.sol\":1173:1182  Role.None */\n      0x00\n        /* \"contracts/rolebasedlogin.sol\":1157:1182  selectedRole != Role.None */\n      0x02\n      dup2\n      gt\n      iszero\n      tag_45\n      jumpi\n      tag_46\n      tag_32\n      jump\t// in\n    tag_46:\n    tag_45:\n        /* \"contracts/rolebasedlogin.sol\":1157:1169  selectedRole */\n      dup2\n        /* \"contracts/rolebasedlogin.sol\":1157:1182  selectedRole != Role.None */\n      0x02\n      dup2\n      gt\n      iszero\n      tag_47\n      jumpi\n      tag_48\n      tag_32\n      jump\t// in\n    tag_48:\n    tag_47:\n      sub\n        /* \"contracts/rolebasedlogin.sol\":1149:1199  require(selectedRole != Role.None, \"Invalid role\") */\n      tag_49\n      jumpi\n      mload(0x40)\n      0x08c379a000000000000000000000000000000000000000000000000000000000\n      dup2\n      mstore\n      0x04\n      add\n      tag_50\n      swap1\n      tag_51\n      jump\t// in\n    tag_50:\n      mload(0x40)\n      dup1\n      swap2\n      sub\n      swap1\n      revert\n    tag_49:\n        /* \"contracts/rolebasedlogin.sol\":1256:1291  User(_username, selectedRole, true) */\n      mload(0x40)\n      dup1\n      0x60\n      add\n      0x40\n      mstore\n      dup1\n        /* \"contracts/rolebasedlogin.sol\":1261:1270  _username */\n      dup5\n        /* \"contracts/rolebasedlogin.sol\":1256:1291  User(_username, selectedRole, true) */\n      dup2\n      mstore\n      0x20\n      add\n        /* \"contracts/rolebasedlogin.sol\":1272:1284  selectedRole */\n      dup3\n        /* \"contracts/rolebasedlogin.sol\":1256:1291  User(_username, selectedRole, true) */\n      0x02\n      dup2\n      gt\n      iszero\n      tag_52\n      jumpi\n      tag_53\n      tag_32\n      jump\t// in\n    tag_53:\n    tag_52:\n      dup2\n      mstore\n      0x20\n      add\n        /* \"contracts/rolebasedlogin.sol\":1286:1290  true */\n      0x01\n        /* \"contracts/rolebasedlogin.sol\":1256:1291  User(_username, selectedRole, true) */\n      iszero\n      iszero\n      dup2\n      mstore\n      pop\n        /* \"contracts/rolebasedlogin.sol\":1236:1241  users */\n      0x00\n        /* \"contracts/rolebasedlogin.sol\":1236:1253  users[msg.sender] */\n      0x00\n        /* \"contracts/rolebasedlogin.sol\":1242:1252  msg.sender */\n      caller\n        /* \"contracts/rolebasedlogin.sol\":1236:1253  users[msg.sender] */\n      0xffffffffffffffffffffffffffffffffffffffff\n      and\n      0xffffffffffffffffffffffffffffffffffffffff\n      and\n      dup2\n      mstore\n      0x20\n      add\n      swap1\n      dup2\n      mstore\n      0x20\n      add\n      0x00\n      keccak256\n        /* \"contracts/rolebasedlogin.sol\":1236:1291  users[msg.sender] = User(_username, selectedRole, true) */\n      0x00\n      dup3\n      add\n      mload\n      dup2\n      0x00\n      add\n      swap1\n      dup2\n      tag_54\n      swap2\n      swap1\n      tag_34\n      jump\t// in\n    tag_54:\n      pop\n      0x20\n      dup3\n      add\n      mload\n      dup2\n      0x01\n      add\n      exp(0x0100, 0x00)\n      dup2\n      sload\n      dup2\n      0xff\n      mul\n      not\n      and\n      swap1\n      dup4\n      0x02\n      dup2\n      gt\n      iszero\n      tag_55\n      jumpi\n      tag_56\n      tag_32\n      jump\t// in\n    tag_56:\n    tag_55:\n      mul\n      or\n      swap1\n      sstore\n      pop\n      0x40\n      dup3\n      add\n      mload\n      dup2\n      0x01\n      add\n      exp(0x0100, 0x01)\n      dup2\n      sload\n      dup2\n      0xff\n      mul\n      not\n      and\n      swap1\n      dup4\n      iszero\n      iszero\n      mul\n      or\n      swap1\n      sstore\n      pop\n      swap1\n      pop\n      pop\n        /* \"contracts/rolebasedlogin.sol\":1375:1385  msg.sender */\n      caller\n        /* \"contracts/rolebasedlogin.sol\":1360:1411  UserRegistered(msg.sender, _username, selectedRole) */\n      0xffffffffffffffffffffffffffffffffffffffff\n      and\n      0xc2e5d5da58bd71d1a2d14cdef02a4256d971b728088f8190d067ccfbae3bd73e\n        /* \"contracts/rolebasedlogin.sol\":1387:1396  _username */\n      dup5\n        /* \"contracts/rolebasedlogin.sol\":1398:1410  selectedRole */\n      dup4\n        /* \"contracts/rolebasedlogin.sol\":1360:1411  UserRegistered(msg.sender, _username, selectedRole) */\n      mload(0x40)\n      tag_57\n      swap3\n      swap2\n      swap1\n      tag_58\n      jump\t// in\n    tag_57:\n      mload(0x40)\n      dup1\n      swap2\n      sub\n      swap1\n      log2\n        /* \"contracts/rolebasedlogin.sol\":956:1418  {... */\n      pop\n        /* \"contracts/rolebasedlogin.sol\":885:1418  function register(string memory _username, string memory _role) public {... */\n      pop\n      pop\n      jump\t// out\n        /* \"contracts/rolebasedlogin.sol\":3264:3429  function getMyDetails() public view returns (User memory) {... */\n    tag_17:\n        /* \"contracts/rolebasedlogin.sol\":3309:3320  User memory */\n      tag_59\n      tag_60\n      jump\t// in\n    tag_59:\n        /* \"contracts/rolebasedlogin.sol\":3340:3345  users */\n      0x00\n        /* \"contracts/rolebasedlogin.sol\":3340:3357  users[msg.sender] */\n      0x00\n        /* \"contracts/rolebasedlogin.sol\":3346:3356  msg.sender */\n      caller\n        /* \"contracts/rolebasedlogin.sol\":3340:3357  users[msg.sender] */\n      0xffffffffffffffffffffffffffffffffffffffff\n      and\n      0xffffffffffffffffffffffffffffffffffffffff\n      and\n      dup2\n      mstore\n      0x20\n      add\n      swap1\n      dup2\n      mstore\n      0x20\n      add\n      0x00\n      keccak256\n        /* \"contracts/rolebasedlogin.sol\":3340:3370  users[msg.sender].isRegistered */\n      0x01\n      add\n      0x01\n      swap1\n      sload\n      swap1\n      0x0100\n      exp\n      swap1\n      div\n      0xff\n      and\n        /* \"contracts/rolebasedlogin.sol\":3332:3388  require(users[msg.sender].isRegistered, \"Not logged in\") */\n      tag_62\n      jumpi\n      mload(0x40)\n      0x08c379a000000000000000000000000000000000000000000000000000000000\n      dup2\n      mstore\n      0x04\n      add\n      tag_63\n      swap1\n      tag_64\n      jump\t// in\n    tag_63:\n      mload(0x40)\n      dup1\n      swap2\n      sub\n      swap1\n      revert\n    tag_62:\n        /* \"contracts/rolebasedlogin.sol\":3405:3410  users */\n      0x00\n        /* \"contracts/rolebasedlogin.sol\":3405:3422  users[msg.sender] */\n      0x00\n        /* \"contracts/rolebasedlogin.sol\":3411:3421  msg.sender */\n      caller\n        /* \"contracts/rolebasedlogin.sol\":3405:3422  users[msg.sender] */\n      0xffffffffffffffffffffffffffffffffffffffff\n      and\n      0xffffffffffffffffffffffffffffffffffffffff\n      and\n      dup2\n      mstore\n      0x20\n      add\n      swap1\n      dup2\n      mstore\n      0x20\n      add\n      0x00\n      keccak256\n        /* \"contracts/rolebasedlogin.sol\":3398:3422  return users[msg.sender] */\n      mload(0x40)\n      dup1\n      0x60\n      add\n      0x40\n      mstore\n      swap1\n      dup2\n      0x00\n      dup3\n      add\n      dup1\n      sload\n      tag_65\n      swap1\n      tag_66\n      jump\t// in\n    tag_65:\n      dup1\n      0x1f\n      add\n      0x20\n      dup1\n      swap2\n      div\n      mul\n      0x20\n      add\n      mload(0x40)\n      swap1\n      dup2\n      add\n      0x40\n      mstore\n      dup1\n      swap3\n      swap2\n      swap1\n      dup2\n      dup2\n      mstore\n      0x20\n      add\n      dup3\n      dup1\n      sload\n      tag_67\n      swap1\n      tag_66\n      jump\t// in\n    tag_67:\n      dup1\n      iszero\n      tag_68\n      jumpi\n      dup1\n      0x1f\n      lt\n      tag_69\n      jumpi\n      0x0100\n      dup1\n      dup4\n      sload\n      div\n      mul\n      dup4\n      mstore\n      swap2\n      0x20\n      add\n      swap2\n      jump(tag_68)\n    tag_69:\n      dup3\n      add\n      swap2\n      swap1\n      0x00\n      mstore\n      keccak256(0x00, 0x20)\n      swap1\n    tag_70:\n      dup2\n      sload\n      dup2\n      mstore\n      swap1\n      0x01\n      add\n      swap1\n      0x20\n      add\n      dup1\n      dup4\n      gt\n      tag_70\n      jumpi\n      dup3\n      swap1\n      sub\n      0x1f\n      and\n      dup3\n      add\n      swap2\n    tag_68:\n      pop\n      pop\n      pop\n      pop\n      pop\n      dup2\n      mstore\n      0x20\n      add\n      0x01\n      dup3\n      add\n      0x00\n      swap1\n      sload\n      swap1\n      0x0100\n      exp\n      swap1\n      div\n      0xff\n      and\n      0x02\n      dup2\n      gt\n      iszero\n      tag_71\n      jumpi\n      tag_72\n      tag_32\n      jump\t// in\n    tag_72:\n    tag_71:\n      0x02\n      dup2\n      gt\n      iszero\n      tag_73\n      jumpi\n      tag_74\n      tag_32\n      jump\t// in\n    tag_74:\n    tag_73:\n      dup2\n      mstore\n      0x20\n      add\n      0x01\n      dup3\n      add\n      0x01\n      swap1\n      sload\n      swap1\n      0x0100\n      exp\n      swap1\n      div\n      0xff\n      and\n      iszero\n      iszero\n      iszero\n      iszero\n      dup2\n      mstore\n      pop\n      pop\n      swap1\n      pop\n        /* \"contracts/rolebasedlogin.sol\":3264:3429  function getMyDetails() public view returns (User memory) {... */\n      swap1\n      jump\t// out\n        /* \"contracts/rolebasedlogin.sol\":3071:3258  function getMyRole() public view returns (string memory) {... */\n    tag_21:\n        /* \"contracts/rolebasedlogin.sol\":3113:3126  string memory */\n      0x60\n        /* \"contracts/rolebasedlogin.sol\":3146:3151  users */\n      0x00\n        /* \"contracts/rolebasedlogin.sol\":3146:3163  users[msg.sender] */\n      0x00\n        /* \"contracts/rolebasedlogin.sol\":3152:3162  msg.sender */\n      caller\n        /* \"contracts/rolebasedlogin.sol\":3146:3163  users[msg.sender] */\n      0xffffffffffffffffffffffffffffffffffffffff\n      and\n      0xffffffffffffffffffffffffffffffffffffffff\n      and\n      dup2\n      mstore\n      0x20\n      add\n      swap1\n      dup2\n      mstore\n      0x20\n      add\n      0x00\n      keccak256\n        /* \"contracts/rolebasedlogin.sol\":3146:3176  users[msg.sender].isRegistered */\n      0x01\n      add\n      0x01\n      swap1\n      sload\n      swap1\n      0x0100\n      exp\n      swap1\n      div\n      0xff\n      and\n        /* \"contracts/rolebasedlogin.sol\":3138:3195  require(users[msg.sender].isRegistered, \"Not registered\") */\n      tag_76\n      jumpi\n      mload(0x40)\n      0x08c379a000000000000000000000000000000000000000000000000000000000\n      dup2\n      mstore\n      0x04\n      add\n      tag_77\n      swap1\n      tag_78\n      jump\t// in\n    tag_77:\n      mload(0x40)\n      dup1\n      swap2\n      sub\n      swap1\n      revert\n    tag_76:\n        /* \"contracts/rolebasedlogin.sol\":3212:3251  getRoleAsString(users[msg.sender].role) */\n      tag_79\n        /* \"contracts/rolebasedlogin.sol\":3228:3233  users */\n      0x00\n        /* \"contracts/rolebasedlogin.sol\":3228:3245  users[msg.sender] */\n      0x00\n        /* \"contracts/rolebasedlogin.sol\":3234:3244  msg.sender */\n      caller\n        /* \"contracts/rolebasedlogin.sol\":3228:3245  users[msg.sender] */\n      0xffffffffffffffffffffffffffffffffffffffff\n      and\n      0xffffffffffffffffffffffffffffffffffffffff\n      and\n      dup2\n      mstore\n      0x20\n      add\n      swap1\n      dup2\n      mstore\n      0x20\n      add\n      0x00\n      keccak256\n        /* \"contracts/rolebasedlogin.sol\":3228:3250  users[msg.sender].role */\n      0x01\n      add\n      0x00\n      swap1\n      sload\n      swap1\n      0x0100\n      exp\n      swap1\n      div\n      0xff\n      and\n        /* \"contracts/rolebasedlogin.sol\":3212:3227  getRoleAsString */\n      tag_80\n        /* \"contracts/rolebasedlogin.sol\":3212:3251  getRoleAsString(users[msg.sender].role) */\n      jump\t// in\n    tag_79:\n        /* \"contracts/rolebasedlogin.sol\":3205:3251  return getRoleAsString(users[msg.sender].role) */\n      swap1\n      pop\n        /* \"contracts/rolebasedlogin.sol\":3071:3258  function getMyRole() public view returns (string memory) {... */\n      swap1\n      jump\t// out\n        /* \"contracts/rolebasedlogin.sol\":1523:1827  function login() public view returns (bool success, string memory role) {... */\n    tag_25:\n        /* \"contracts/rolebasedlogin.sol\":1561:1573  bool success */\n      0x00\n        /* \"contracts/rolebasedlogin.sol\":1575:1593  string memory role */\n      0x60\n        /* \"contracts/rolebasedlogin.sol\":1613:1618  users */\n      0x00\n        /* \"contracts/rolebasedlogin.sol\":1613:1630  users[msg.sender] */\n      0x00\n        /* \"contracts/rolebasedlogin.sol\":1619:1629  msg.sender */\n      caller\n        /* \"contracts/rolebasedlogin.sol\":1613:1630  users[msg.sender] */\n      0xffffffffffffffffffffffffffffffffffffffff\n      and\n      0xffffffffffffffffffffffffffffffffffffffff\n      and\n      dup2\n      mstore\n      0x20\n      add\n      swap1\n      dup2\n      mstore\n      0x20\n      add\n      0x00\n      keccak256\n        /* \"contracts/rolebasedlogin.sol\":1613:1643  users[msg.sender].isRegistered */\n      0x01\n      add\n      0x01\n      swap1\n      sload\n      swap1\n      0x0100\n      exp\n      swap1\n      div\n      0xff\n      and\n        /* \"contracts/rolebasedlogin.sol\":1605:1667  require(users[msg.sender].isRegistered, \"User not registered\") */\n      tag_82\n      jumpi\n      mload(0x40)\n      0x08c379a000000000000000000000000000000000000000000000000000000000\n      dup2\n      mstore\n      0x04\n      add\n      tag_83\n      swap1\n      tag_84\n      jump\t// in\n    tag_83:\n      mload(0x40)\n      dup1\n      swap2\n      sub\n      swap1\n      revert\n    tag_82:\n        /* \"contracts/rolebasedlogin.sol\":1722:1744  string memory userRole */\n      0x00\n        /* \"contracts/rolebasedlogin.sol\":1747:1786  getRoleAsString(users[msg.sender].role) */\n      tag_85\n        /* \"contracts/rolebasedlogin.sol\":1763:1768  users */\n      0x00\n        /* \"contracts/rolebasedlogin.sol\":1763:1780  users[msg.sender] */\n      0x00\n        /* \"contracts/rolebasedlogin.sol\":1769:1779  msg.sender */\n      caller\n        /* \"contracts/rolebasedlogin.sol\":1763:1780  users[msg.sender] */\n      0xffffffffffffffffffffffffffffffffffffffff\n      and\n      0xffffffffffffffffffffffffffffffffffffffff\n      and\n      dup2\n      mstore\n      0x20\n      add\n      swap1\n      dup2\n      mstore\n      0x20\n      add\n      0x00\n      keccak256\n        /* \"contracts/rolebasedlogin.sol\":1763:1785  users[msg.sender].role */\n      0x01\n      add\n      0x00\n      swap1\n      sload\n      swap1\n      0x0100\n      exp\n      swap1\n      div\n      0xff\n      and\n        /* \"contracts/rolebasedlogin.sol\":1747:1762  getRoleAsString */\n      tag_80\n        /* \"contracts/rolebasedlogin.sol\":1747:1786  getRoleAsString(users[msg.sender].role) */\n      jump\t// in\n    tag_85:\n        /* \"contracts/rolebasedlogin.sol\":1722:1786  string memory userRole = getRoleAsString(users[msg.sender].role) */\n      swap1\n      pop\n        /* \"contracts/rolebasedlogin.sol\":1805:1809  true */\n      0x01\n        /* \"contracts/rolebasedlogin.sol\":1811:1819  userRole */\n      dup2\n        /* \"contracts/rolebasedlogin.sol\":1797:1820  return (true, userRole) */\n      swap3\n      pop\n      swap3\n      pop\n      pop\n        /* \"contracts/rolebasedlogin.sol\":1523:1827  function login() public view returns (bool success, string memory role) {... */\n      swap1\n      swap2\n      jump\t// out\n        /* \"contracts/rolebasedlogin.sol\":2341:2692  function getRoleFromString(string memory _role) internal pure returns (Role) {... */\n    tag_44:\n        /* \"contracts/rolebasedlogin.sol\":2412:2416  Role */\n      0x00\n        /* \"contracts/rolebasedlogin.sol\":2428:2444  bytes32 roleHash */\n      0x00\n        /* \"contracts/rolebasedlogin.sol\":2474:2479  _role */\n      dup3\n        /* \"contracts/rolebasedlogin.sol\":2457:2480  abi.encodePacked(_role) */\n      add(0x20, mload(0x40))\n      tag_87\n      swap2\n      swap1\n      tag_88\n      jump\t// in\n    tag_87:\n      mload(0x40)\n      0x20\n      dup2\n      dup4\n      sub\n      sub\n      dup2\n      mstore\n      swap1\n      0x40\n      mstore\n        /* \"contracts/rolebasedlogin.sol\":2447:2481  keccak256(abi.encodePacked(_role)) */\n      dup1\n      mload\n      swap1\n      0x20\n      add\n      keccak256\n        /* \"contracts/rolebasedlogin.sol\":2428:2481  bytes32 roleHash = keccak256(abi.encodePacked(_role)) */\n      swap1\n      pop\n        /* \"contracts/rolebasedlogin.sol\":2516:2534  keccak256(\"donor\") */\n      0xe96c7ffef33869246069ebcb32bc72a59fb488c4893c9eb9b3306de7ba74f6d8\n        /* \"contracts/rolebasedlogin.sol\":2504:2512  roleHash */\n      dup2\n        /* \"contracts/rolebasedlogin.sol\":2504:2534  roleHash == keccak256(\"donor\") */\n      sub\n        /* \"contracts/rolebasedlogin.sol\":2500:2553  if (roleHash == keccak256(\"donor\")) return Role.Donor */\n      tag_89\n      jumpi\n        /* \"contracts/rolebasedlogin.sol\":2543:2553  Role.Donor */\n      0x01\n        /* \"contracts/rolebasedlogin.sol\":2536:2553  return Role.Donor */\n      swap2\n      pop\n      pop\n      jump(tag_86)\n        /* \"contracts/rolebasedlogin.sol\":2500:2553  if (roleHash == keccak256(\"donor\")) return Role.Donor */\n    tag_89:\n        /* \"contracts/rolebasedlogin.sol\":2579:2599  keccak256(\"charity\") */\n      0x2fcba40a1a605acf57a88f10820dd7f474036e9c73660ce1bafdbb9004b92ded\n        /* \"contracts/rolebasedlogin.sol\":2567:2575  roleHash */\n      dup2\n        /* \"contracts/rolebasedlogin.sol\":2567:2599  roleHash == keccak256(\"charity\") */\n      sub\n        /* \"contracts/rolebasedlogin.sol\":2563:2620  if (roleHash == keccak256(\"charity\")) return Role.Charity */\n      tag_90\n      jumpi\n        /* \"contracts/rolebasedlogin.sol\":2608:2620  Role.Charity */\n      0x02\n        /* \"contracts/rolebasedlogin.sol\":2601:2620  return Role.Charity */\n      swap2\n      pop\n      pop\n      jump(tag_86)\n        /* \"contracts/rolebasedlogin.sol\":2563:2620  if (roleHash == keccak256(\"charity\")) return Role.Charity */\n    tag_90:\n        /* \"contracts/rolebasedlogin.sol\":2638:2647  Role.None */\n      0x00\n        /* \"contracts/rolebasedlogin.sol\":2631:2647  return Role.None */\n      swap2\n      pop\n      pop\n        /* \"contracts/rolebasedlogin.sol\":2341:2692  function getRoleFromString(string memory _role) internal pure returns (Role) {... */\n    tag_86:\n      swap2\n      swap1\n      pop\n      jump\t// out\n        /* \"contracts/rolebasedlogin.sol\":2774:2981  function getRoleAsString(Role _role) internal pure returns (string memory) {... */\n    tag_80:\n        /* \"contracts/rolebasedlogin.sol\":2834:2847  string memory */\n      0x60\n        /* \"contracts/rolebasedlogin.sol\":2872:2882  Role.Donor */\n      0x01\n        /* \"contracts/rolebasedlogin.sol\":2863:2882  _role == Role.Donor */\n      0x02\n      dup2\n      gt\n      iszero\n      tag_92\n      jumpi\n      tag_93\n      tag_32\n      jump\t// in\n    tag_93:\n    tag_92:\n        /* \"contracts/rolebasedlogin.sol\":2863:2868  _role */\n      dup3\n        /* \"contracts/rolebasedlogin.sol\":2863:2882  _role == Role.Donor */\n      0x02\n      dup2\n      gt\n      iszero\n      tag_94\n      jumpi\n      tag_95\n      tag_32\n      jump\t// in\n    tag_95:\n    tag_94:\n      sub\n        /* \"contracts/rolebasedlogin.sol\":2859:2898  if (_role == Role.Donor) return \"donor\" */\n      tag_96\n      jumpi\n        /* \"contracts/rolebasedlogin.sol\":2884:2898  return \"donor\" */\n      mload(0x40)\n      dup1\n      0x40\n      add\n      0x40\n      mstore\n      dup1\n      0x05\n      dup2\n      mstore\n      0x20\n      add\n      0x646f6e6f72000000000000000000000000000000000000000000000000000000\n      dup2\n      mstore\n      pop\n      swap1\n      pop\n      jump(tag_91)\n        /* \"contracts/rolebasedlogin.sol\":2859:2898  if (_role == Role.Donor) return \"donor\" */\n    tag_96:\n        /* \"contracts/rolebasedlogin.sol\":2921:2933  Role.Charity */\n      0x02\n        /* \"contracts/rolebasedlogin.sol\":2912:2933  _role == Role.Charity */\n      dup1\n      dup2\n      gt\n      iszero\n      tag_97\n      jumpi\n      tag_98\n      tag_32\n      jump\t// in\n    tag_98:\n    tag_97:\n        /* \"contracts/rolebasedlogin.sol\":2912:2917  _role */\n      dup3\n        /* \"contracts/rolebasedlogin.sol\":2912:2933  _role == Role.Charity */\n      0x02\n      dup2\n      gt\n      iszero\n      tag_99\n      jumpi\n      tag_100\n      tag_32\n      jump\t// in\n    tag_100:\n    tag_99:\n      sub\n        /* \"contracts/rolebasedlogin.sol\":2908:2951  if (_role == Role.Charity) return \"charity\" */\n      tag_101\n      jumpi\n        /* \"contracts/rolebasedlogin.sol\":2935:2951  return \"charity\" */\n      mload(0x40)\n      dup1\n      0x40\n      add\n      0x40\n      mstore\n      dup1\n      0x07\n      dup2\n      mstore\n      0x20\n      add\n      0x6368617269747900000000000000000000000000000000000000000000000000\n      dup2\n      mstore\n      pop\n      swap1\n      pop\n      jump(tag_91)\n        /* \"contracts/rolebasedlogin.sol\":2908:2951  if (_role == Role.Charity) return \"charity\" */\n    tag_101:\n        /* \"contracts/rolebasedlogin.sol\":2961:2974  return \"none\" */\n      mload(0x40)\n      dup1\n      0x40\n      add\n      0x40\n      mstore\n      dup1\n      0x04\n      dup2\n      mstore\n      0x20\n      add\n      0x6e6f6e6500000000000000000000000000000000000000000000000000000000\n      dup2\n      mstore\n      pop\n      swap1\n      pop\n        /* \"contracts/rolebasedlogin.sol\":2774:2981  function getRoleAsString(Role _role) internal pure returns (string memory) {... */\n    tag_91:\n      swap2\n      swap1\n      pop\n      jump\t// out\n    tag_60:\n      mload(0x40)\n      dup1\n      0x60\n      add\n      0x40\n      mstore\n      dup1\n      0x60\n      dup2\n      mstore\n      0x20\n      add\n      0x00\n      0x02\n      dup2\n      gt\n      iszero\n      tag_102\n      jumpi\n      tag_103\n      tag_32\n      jump\t// in\n    tag_103:\n    tag_102:\n      dup2\n      mstore\n      0x20\n      add\n      iszero(iszero(0x00))\n      dup2\n      mstore\n      pop\n      swap1\n      jump\t// out\n        /* \"#utility.yul\":7:97   */\n    tag_104:\n        /* \"#utility.yul\":41:48   */\n      0x00\n        /* \"#utility.yul\":84:89   */\n      dup2\n        /* \"#utility.yul\":77:90   */\n      iszero\n        /* \"#utility.yul\":70:91   */\n      iszero\n        /* \"#utility.yul\":59:91   */\n      swap1\n      pop\n        /* \"#utility.yul\":7:97   */\n      swap2\n      swap1\n      pop\n      jump\t// out\n        /* \"#utility.yul\":103:212   */\n    tag_105:\n        /* \"#utility.yul\":184:205   */\n      tag_164\n        /* \"#utility.yul\":199:204   */\n      dup2\n        /* \"#utility.yul\":184:205   */\n      tag_104\n      jump\t// in\n    tag_164:\n        /* \"#utility.yul\":179:182   */\n      dup3\n        /* \"#utility.yul\":172:206   */\n      mstore\n        /* \"#utility.yul\":103:212   */\n      pop\n      pop\n      jump\t// out\n        /* \"#utility.yul\":218:428   */\n    tag_11:\n        /* \"#utility.yul\":305:309   */\n      0x00\n        /* \"#utility.yul\":343:345   */\n      0x20\n        /* \"#utility.yul\":332:341   */\n      dup3\n        /* \"#utility.yul\":328:346   */\n      add\n        /* \"#utility.yul\":320:346   */\n      swap1\n      pop\n        /* \"#utility.yul\":356:421   */\n      tag_166\n        /* \"#utility.yul\":418:419   */\n      0x00\n        /* \"#utility.yul\":407:416   */\n      dup4\n        /* \"#utility.yul\":403:420   */\n      add\n        /* \"#utility.yul\":394:400   */\n      dup5\n        /* \"#utility.yul\":356:421   */\n      tag_105\n      jump\t// in\n    tag_166:\n        /* \"#utility.yul\":218:428   */\n      swap3\n      swap2\n      pop\n      pop\n      jump\t// out\n        /* \"#utility.yul\":434:509   */\n    tag_106:\n        /* \"#utility.yul\":467:473   */\n      0x00\n        /* \"#utility.yul\":500:502   */\n      0x40\n        /* \"#utility.yul\":494:503   */\n      mload\n        /* \"#utility.yul\":484:503   */\n      swap1\n      pop\n        /* \"#utility.yul\":434:509   */\n      swap1\n      jump\t// out\n        /* \"#utility.yul\":515:632   */\n    tag_107:\n        /* \"#utility.yul\":624:625   */\n      0x00\n        /* \"#utility.yul\":621:622   */\n      0x00\n        /* \"#utility.yul\":614:626   */\n      revert\n        /* \"#utility.yul\":638:755   */\n    tag_108:\n        /* \"#utility.yul\":747:748   */\n      0x00\n        /* \"#utility.yul\":744:745   */\n      0x00\n        /* \"#utility.yul\":737:749   */\n      revert\n        /* \"#utility.yul\":761:878   */\n    tag_109:\n        /* \"#utility.yul\":870:871   */\n      0x00\n        /* \"#utility.yul\":867:868   */\n      0x00\n        /* \"#utility.yul\":860:872   */\n      revert\n        /* \"#utility.yul\":884:1001   */\n    tag_110:\n        /* \"#utility.yul\":993:994   */\n      0x00\n        /* \"#utility.yul\":990:991   */\n      0x00\n        /* \"#utility.yul\":983:995   */\n      revert\n        /* \"#utility.yul\":1007:1109   */\n    tag_111:\n        /* \"#utility.yul\":1048:1054   */\n      0x00\n        /* \"#utility.yul\":1099:1101   */\n      0x1f\n        /* \"#utility.yul\":1095:1102   */\n      not\n        /* \"#utility.yul\":1090:1092   */\n      0x1f\n        /* \"#utility.yul\":1083:1088   */\n      dup4\n        /* \"#utility.yul\":1079:1093   */\n      add\n        /* \"#utility.yul\":1075:1103   */\n      and\n        /* \"#utility.yul\":1065:1103   */\n      swap1\n      pop\n        /* \"#utility.yul\":1007:1109   */\n      swap2\n      swap1\n      pop\n      jump\t// out\n        /* \"#utility.yul\":1115:1295   */\n    tag_112:\n        /* \"#utility.yul\":1163:1240   */\n      0x4e487b7100000000000000000000000000000000000000000000000000000000\n        /* \"#utility.yul\":1160:1161   */\n      0x00\n        /* \"#utility.yul\":1153:1241   */\n      mstore\n        /* \"#utility.yul\":1260:1264   */\n      0x41\n        /* \"#utility.yul\":1257:1258   */\n      0x04\n        /* \"#utility.yul\":1250:1265   */\n      mstore\n        /* \"#utility.yul\":1284:1288   */\n      0x24\n        /* \"#utility.yul\":1281:1282   */\n      0x00\n        /* \"#utility.yul\":1274:1289   */\n      revert\n        /* \"#utility.yul\":1301:1582   */\n    tag_113:\n        /* \"#utility.yul\":1384:1411   */\n      tag_175\n        /* \"#utility.yul\":1406:1410   */\n      dup3\n        /* \"#utility.yul\":1384:1411   */\n      tag_111\n      jump\t// in\n    tag_175:\n        /* \"#utility.yul\":1376:1382   */\n      dup2\n        /* \"#utility.yul\":1372:1412   */\n      add\n        /* \"#utility.yul\":1514:1520   */\n      dup2\n        /* \"#utility.yul\":1502:1512   */\n      dup2\n        /* \"#utility.yul\":1499:1521   */\n      lt\n        /* \"#utility.yul\":1478:1496   */\n      0xffffffffffffffff\n        /* \"#utility.yul\":1466:1476   */\n      dup3\n        /* \"#utility.yul\":1463:1497   */\n      gt\n        /* \"#utility.yul\":1460:1522   */\n      or\n        /* \"#utility.yul\":1457:1545   */\n      iszero\n      tag_176\n      jumpi\n        /* \"#utility.yul\":1525:1543   */\n      tag_177\n      tag_112\n      jump\t// in\n    tag_177:\n        /* \"#utility.yul\":1457:1545   */\n    tag_176:\n        /* \"#utility.yul\":1565:1575   */\n      dup1\n        /* \"#utility.yul\":1561:1563   */\n      0x40\n        /* \"#utility.yul\":1554:1576   */\n      mstore\n        /* \"#utility.yul\":1344:1582   */\n      pop\n        /* \"#utility.yul\":1301:1582   */\n      pop\n      pop\n      jump\t// out\n        /* \"#utility.yul\":1588:1717   */\n    tag_114:\n        /* \"#utility.yul\":1622:1628   */\n      0x00\n        /* \"#utility.yul\":1649:1669   */\n      tag_179\n      tag_106\n      jump\t// in\n    tag_179:\n        /* \"#utility.yul\":1639:1669   */\n      swap1\n      pop\n        /* \"#utility.yul\":1678:1711   */\n      tag_180\n        /* \"#utility.yul\":1706:1710   */\n      dup3\n        /* \"#utility.yul\":1698:1704   */\n      dup3\n        /* \"#utility.yul\":1678:1711   */\n      tag_113\n      jump\t// in\n    tag_180:\n        /* \"#utility.yul\":1588:1717   */\n      swap2\n      swap1\n      pop\n      jump\t// out\n        /* \"#utility.yul\":1723:2031   */\n    tag_115:\n        /* \"#utility.yul\":1785:1789   */\n      0x00\n        /* \"#utility.yul\":1875:1893   */\n      0xffffffffffffffff\n        /* \"#utility.yul\":1867:1873   */\n      dup3\n        /* \"#utility.yul\":1864:1894   */\n      gt\n        /* \"#utility.yul\":1861:1917   */\n      iszero\n      tag_182\n      jumpi\n        /* \"#utility.yul\":1897:1915   */\n      tag_183\n      tag_112\n      jump\t// in\n    tag_183:\n        /* \"#utility.yul\":1861:1917   */\n    tag_182:\n        /* \"#utility.yul\":1935:1964   */\n      tag_184\n        /* \"#utility.yul\":1957:1963   */\n      dup3\n        /* \"#utility.yul\":1935:1964   */\n      tag_111\n      jump\t// in\n    tag_184:\n        /* \"#utility.yul\":1927:1964   */\n      swap1\n      pop\n        /* \"#utility.yul\":2019:2023   */\n      0x20\n        /* \"#utility.yul\":2013:2017   */\n      dup2\n        /* \"#utility.yul\":2009:2024   */\n      add\n        /* \"#utility.yul\":2001:2024   */\n      swap1\n      pop\n        /* \"#utility.yul\":1723:2031   */\n      swap2\n      swap1\n      pop\n      jump\t// out\n        /* \"#utility.yul\":2037:2185   */\n    tag_116:\n        /* \"#utility.yul\":2135:2141   */\n      dup3\n        /* \"#utility.yul\":2130:2133   */\n      dup2\n        /* \"#utility.yul\":2125:2128   */\n      dup4\n        /* \"#utility.yul\":2112:2142   */\n      calldatacopy\n        /* \"#utility.yul\":2176:2177   */\n      0x00\n        /* \"#utility.yul\":2167:2173   */\n      dup4\n        /* \"#utility.yul\":2162:2165   */\n      dup4\n        /* \"#utility.yul\":2158:2174   */\n      add\n        /* \"#utility.yul\":2151:2178   */\n      mstore\n        /* \"#utility.yul\":2037:2185   */\n      pop\n      pop\n      pop\n      jump\t// out\n        /* \"#utility.yul\":2191:2616   */\n    tag_117:\n        /* \"#utility.yul\":2269:2274   */\n      0x00\n        /* \"#utility.yul\":2294:2360   */\n      tag_187\n        /* \"#utility.yul\":2310:2359   */\n      tag_188\n        /* \"#utility.yul\":2352:2358   */\n      dup5\n        /* \"#utility.yul\":2310:2359   */\n      tag_115\n      jump\t// in\n    tag_188:\n        /* \"#utility.yul\":2294:2360   */\n      tag_114\n      jump\t// in\n    tag_187:\n        /* \"#utility.yul\":2285:2360   */\n      swap1\n      pop\n        /* \"#utility.yul\":2383:2389   */\n      dup3\n        /* \"#utility.yul\":2376:2381   */\n      dup2\n        /* \"#utility.yul\":2369:2390   */\n      mstore\n        /* \"#utility.yul\":2421:2425   */\n      0x20\n        /* \"#utility.yul\":2414:2419   */\n      dup2\n        /* \"#utility.yul\":2410:2426   */\n      add\n        /* \"#utility.yul\":2459:2462   */\n      dup5\n        /* \"#utility.yul\":2450:2456   */\n      dup5\n        /* \"#utility.yul\":2445:2448   */\n      dup5\n        /* \"#utility.yul\":2441:2457   */\n      add\n        /* \"#utility.yul\":2438:2463   */\n      gt\n        /* \"#utility.yul\":2435:2547   */\n      iszero\n      tag_189\n      jumpi\n        /* \"#utility.yul\":2466:2545   */\n      tag_190\n      tag_110\n      jump\t// in\n    tag_190:\n        /* \"#utility.yul\":2435:2547   */\n    tag_189:\n        /* \"#utility.yul\":2556:2610   */\n      tag_191\n        /* \"#utility.yul\":2603:2609   */\n      dup5\n        /* \"#utility.yul\":2598:2601   */\n      dup3\n        /* \"#utility.yul\":2593:2596   */\n      dup6\n        /* \"#utility.yul\":2556:2610   */\n      tag_116\n      jump\t// in\n    tag_191:\n        /* \"#utility.yul\":2275:2616   */\n      pop\n        /* \"#utility.yul\":2191:2616   */\n      swap4\n      swap3\n      pop\n      pop\n      pop\n      jump\t// out\n        /* \"#utility.yul\":2636:2976   */\n    tag_118:\n        /* \"#utility.yul\":2692:2697   */\n      0x00\n        /* \"#utility.yul\":2741:2744   */\n      dup3\n        /* \"#utility.yul\":2734:2738   */\n      0x1f\n        /* \"#utility.yul\":2726:2732   */\n      dup4\n        /* \"#utility.yul\":2722:2739   */\n      add\n        /* \"#utility.yul\":2718:2745   */\n      slt\n        /* \"#utility.yul\":2708:2830   */\n      tag_193\n      jumpi\n        /* \"#utility.yul\":2749:2828   */\n      tag_194\n      tag_109\n      jump\t// in\n    tag_194:\n        /* \"#utility.yul\":2708:2830   */\n    tag_193:\n        /* \"#utility.yul\":2866:2872   */\n      dup2\n        /* \"#utility.yul\":2853:2873   */\n      calldataload\n        /* \"#utility.yul\":2891:2970   */\n      tag_195\n        /* \"#utility.yul\":2966:2969   */\n      dup5\n        /* \"#utility.yul\":2958:2964   */\n      dup3\n        /* \"#utility.yul\":2951:2955   */\n      0x20\n        /* \"#utility.yul\":2943:2949   */\n      dup7\n        /* \"#utility.yul\":2939:2956   */\n      add\n        /* \"#utility.yul\":2891:2970   */\n      tag_117\n      jump\t// in\n    tag_195:\n        /* \"#utility.yul\":2882:2970   */\n      swap2\n      pop\n        /* \"#utility.yul\":2698:2976   */\n      pop\n        /* \"#utility.yul\":2636:2976   */\n      swap3\n      swap2\n      pop\n      pop\n      jump\t// out\n        /* \"#utility.yul\":2982:3816   */\n    tag_14:\n        /* \"#utility.yul\":3070:3076   */\n      0x00\n        /* \"#utility.yul\":3078:3084   */\n      0x00\n        /* \"#utility.yul\":3127:3129   */\n      0x40\n        /* \"#utility.yul\":3115:3124   */\n      dup4\n        /* \"#utility.yul\":3106:3113   */\n      dup6\n        /* \"#utility.yul\":3102:3125   */\n      sub\n        /* \"#utility.yul\":3098:3130   */\n      slt\n        /* \"#utility.yul\":3095:3214   */\n      iszero\n      tag_197\n      jumpi\n        /* \"#utility.yul\":3133:3212   */\n      tag_198\n      tag_107\n      jump\t// in\n    tag_198:\n        /* \"#utility.yul\":3095:3214   */\n    tag_197:\n        /* \"#utility.yul\":3281:3282   */\n      0x00\n        /* \"#utility.yul\":3270:3279   */\n      dup4\n        /* \"#utility.yul\":3266:3283   */\n      add\n        /* \"#utility.yul\":3253:3284   */\n      calldataload\n        /* \"#utility.yul\":3311:3329   */\n      0xffffffffffffffff\n        /* \"#utility.yul\":3303:3309   */\n      dup2\n        /* \"#utility.yul\":3300:3330   */\n      gt\n        /* \"#utility.yul\":3297:3414   */\n      iszero\n      tag_199\n      jumpi\n        /* \"#utility.yul\":3333:3412   */\n      tag_200\n      tag_108\n      jump\t// in\n    tag_200:\n        /* \"#utility.yul\":3297:3414   */\n    tag_199:\n        /* \"#utility.yul\":3438:3501   */\n      tag_201\n        /* \"#utility.yul\":3493:3500   */\n      dup6\n        /* \"#utility.yul\":3484:3490   */\n      dup3\n        /* \"#utility.yul\":3473:3482   */\n      dup7\n        /* \"#utility.yul\":3469:3491   */\n      add\n        /* \"#utility.yul\":3438:3501   */\n      tag_118\n      jump\t// in\n    tag_201:\n        /* \"#utility.yul\":3428:3501   */\n      swap3\n      pop\n        /* \"#utility.yul\":3224:3511   */\n      pop\n        /* \"#utility.yul\":3578:3580   */\n      0x20\n        /* \"#utility.yul\":3567:3576   */\n      dup4\n        /* \"#utility.yul\":3563:3581   */\n      add\n        /* \"#utility.yul\":3550:3582   */\n      calldataload\n        /* \"#utility.yul\":3609:3627   */\n      0xffffffffffffffff\n        /* \"#utility.yul\":3601:3607   */\n      dup2\n        /* \"#utility.yul\":3598:3628   */\n      gt\n        /* \"#utility.yul\":3595:3712   */\n      iszero\n      tag_202\n      jumpi\n        /* \"#utility.yul\":3631:3710   */\n      tag_203\n      tag_108\n      jump\t// in\n    tag_203:\n        /* \"#utility.yul\":3595:3712   */\n    tag_202:\n        /* \"#utility.yul\":3736:3799   */\n      tag_204\n        /* \"#utility.yul\":3791:3798   */\n      dup6\n        /* \"#utility.yul\":3782:3788   */\n      dup3\n        /* \"#utility.yul\":3771:3780   */\n      dup7\n        /* \"#utility.yul\":3767:3789   */\n      add\n        /* \"#utility.yul\":3736:3799   */\n      tag_118\n      jump\t// in\n    tag_204:\n        /* \"#utility.yul\":3726:3799   */\n      swap2\n      pop\n        /* \"#utility.yul\":3521:3809   */\n      pop\n        /* \"#utility.yul\":2982:3816   */\n      swap3\n      pop\n      swap3\n      swap1\n      pop\n      jump\t// out\n        /* \"#utility.yul\":3822:3921   */\n    tag_119:\n        /* \"#utility.yul\":3874:3880   */\n      0x00\n        /* \"#utility.yul\":3908:3913   */\n      dup2\n        /* \"#utility.yul\":3902:3914   */\n      mload\n        /* \"#utility.yul\":3892:3914   */\n      swap1\n      pop\n        /* \"#utility.yul\":3822:3921   */\n      swap2\n      swap1\n      pop\n      jump\t// out\n        /* \"#utility.yul\":3927:4086   */\n    tag_120:\n        /* \"#utility.yul\":4001:4012   */\n      0x00\n        /* \"#utility.yul\":4035:4041   */\n      dup3\n        /* \"#utility.yul\":4030:4033   */\n      dup3\n        /* \"#utility.yul\":4023:4042   */\n      mstore\n        /* \"#utility.yul\":4075:4079   */\n      0x20\n        /* \"#utility.yul\":4070:4073   */\n      dup3\n        /* \"#utility.yul\":4066:4080   */\n      add\n        /* \"#utility.yul\":4051:4080   */\n      swap1\n      pop\n        /* \"#utility.yul\":3927:4086   */\n      swap3\n      swap2\n      pop\n      pop\n      jump\t// out\n        /* \"#utility.yul\":4092:4231   */\n    tag_121:\n        /* \"#utility.yul\":4181:4187   */\n      dup3\n        /* \"#utility.yul\":4176:4179   */\n      dup2\n        /* \"#utility.yul\":4171:4174   */\n      dup4\n        /* \"#utility.yul\":4165:4188   */\n      mcopy\n        /* \"#utility.yul\":4222:4223   */\n      0x00\n        /* \"#utility.yul\":4213:4219   */\n      dup4\n        /* \"#utility.yul\":4208:4211   */\n      dup4\n        /* \"#utility.yul\":4204:4220   */\n      add\n        /* \"#utility.yul\":4197:4224   */\n      mstore\n        /* \"#utility.yul\":4092:4231   */\n      pop\n      pop\n      pop\n      jump\t// out\n        /* \"#utility.yul\":4237:4594   */\n    tag_122:\n        /* \"#utility.yul\":4315:4318   */\n      0x00\n        /* \"#utility.yul\":4343:4382   */\n      tag_209\n        /* \"#utility.yul\":4376:4381   */\n      dup3\n        /* \"#utility.yul\":4343:4382   */\n      tag_119\n      jump\t// in\n    tag_209:\n        /* \"#utility.yul\":4398:4459   */\n      tag_210\n        /* \"#utility.yul\":4452:4458   */\n      dup2\n        /* \"#utility.yul\":4447:4450   */\n      dup6\n        /* \"#utility.yul\":4398:4459   */\n      tag_120\n      jump\t// in\n    tag_210:\n        /* \"#utility.yul\":4391:4459   */\n      swap4\n      pop\n        /* \"#utility.yul\":4468:4533   */\n      tag_211\n        /* \"#utility.yul\":4526:4532   */\n      dup2\n        /* \"#utility.yul\":4521:4524   */\n      dup6\n        /* \"#utility.yul\":4514:4518   */\n      0x20\n        /* \"#utility.yul\":4507:4512   */\n      dup7\n        /* \"#utility.yul\":4503:4519   */\n      add\n        /* \"#utility.yul\":4468:4533   */\n      tag_121\n      jump\t// in\n    tag_211:\n        /* \"#utility.yul\":4558:4587   */\n      tag_212\n        /* \"#utility.yul\":4580:4586   */\n      dup2\n        /* \"#utility.yul\":4558:4587   */\n      tag_111\n      jump\t// in\n    tag_212:\n        /* \"#utility.yul\":4553:4556   */\n      dup5\n        /* \"#utility.yul\":4549:4588   */\n      add\n        /* \"#utility.yul\":4542:4588   */\n      swap2\n      pop\n        /* \"#utility.yul\":4319:4594   */\n      pop\n        /* \"#utility.yul\":4237:4594   */\n      swap3\n      swap2\n      pop\n      pop\n      jump\t// out\n        /* \"#utility.yul\":4600:4780   */\n    tag_32:\n        /* \"#utility.yul\":4648:4725   */\n      0x4e487b7100000000000000000000000000000000000000000000000000000000\n        /* \"#utility.yul\":4645:4646   */\n      0x00\n        /* \"#utility.yul\":4638:4726   */\n      mstore\n        /* \"#utility.yul\":4745:4749   */\n      0x21\n        /* \"#utility.yul\":4742:4743   */\n      0x04\n        /* \"#utility.yul\":4735:4750   */\n      mstore\n        /* \"#utility.yul\":4769:4773   */\n      0x24\n        /* \"#utility.yul\":4766:4767   */\n      0x00\n        /* \"#utility.yul\":4759:4774   */\n      revert\n        /* \"#utility.yul\":4786:4897   */\n    tag_123:\n        /* \"#utility.yul\":4865:4866   */\n      0x03\n        /* \"#utility.yul\":4858:4863   */\n      dup2\n        /* \"#utility.yul\":4855:4867   */\n      lt\n        /* \"#utility.yul\":4845:4891   */\n      tag_215\n      jumpi\n        /* \"#utility.yul\":4871:4889   */\n      tag_216\n      tag_32\n      jump\t// in\n    tag_216:\n        /* \"#utility.yul\":4845:4891   */\n    tag_215:\n        /* \"#utility.yul\":4786:4897   */\n      pop\n      jump\t// out\n        /* \"#utility.yul\":4903:5026   */\n    tag_124:\n        /* \"#utility.yul\":4946:4953   */\n      0x00\n        /* \"#utility.yul\":4975:4980   */\n      dup2\n        /* \"#utility.yul\":4964:4980   */\n      swap1\n      pop\n        /* \"#utility.yul\":4981:5020   */\n      tag_218\n        /* \"#utility.yul\":5014:5019   */\n      dup3\n        /* \"#utility.yul\":4981:5020   */\n      tag_123\n      jump\t// in\n    tag_218:\n        /* \"#utility.yul\":4903:5026   */\n      swap2\n      swap1\n      pop\n      jump\t// out\n        /* \"#utility.yul\":5032:5155   */\n    tag_125:\n        /* \"#utility.yul\":5086:5095   */\n      0x00\n        /* \"#utility.yul\":5119:5149   */\n      tag_220\n        /* \"#utility.yul\":5143:5148   */\n      dup3\n        /* \"#utility.yul\":5119:5149   */\n      tag_124\n      jump\t// in\n    tag_220:\n        /* \"#utility.yul\":5106:5149   */\n      swap1\n      pop\n        /* \"#utility.yul\":5032:5155   */\n      swap2\n      swap1\n      pop\n      jump\t// out\n        /* \"#utility.yul\":5161:5290   */\n    tag_126:\n        /* \"#utility.yul\":5242:5283   */\n      tag_222\n        /* \"#utility.yul\":5277:5282   */\n      dup2\n        /* \"#utility.yul\":5242:5283   */\n      tag_125\n      jump\t// in\n    tag_222:\n        /* \"#utility.yul\":5237:5240   */\n      dup3\n        /* \"#utility.yul\":5230:5284   */\n      mstore\n        /* \"#utility.yul\":5161:5290   */\n      pop\n      pop\n      jump\t// out\n        /* \"#utility.yul\":5296:5395   */\n    tag_127:\n        /* \"#utility.yul\":5367:5388   */\n      tag_224\n        /* \"#utility.yul\":5382:5387   */\n      dup2\n        /* \"#utility.yul\":5367:5388   */\n      tag_104\n      jump\t// in\n    tag_224:\n        /* \"#utility.yul\":5362:5365   */\n      dup3\n        /* \"#utility.yul\":5355:5389   */\n      mstore\n        /* \"#utility.yul\":5296:5395   */\n      pop\n      pop\n      jump\t// out\n        /* \"#utility.yul\":5465:6245   */\n    tag_128:\n        /* \"#utility.yul\":5574:5577   */\n      0x00\n        /* \"#utility.yul\":5610:5614   */\n      0x60\n        /* \"#utility.yul\":5605:5608   */\n      dup4\n        /* \"#utility.yul\":5601:5615   */\n      add\n        /* \"#utility.yul\":5701:5705   */\n      0x00\n        /* \"#utility.yul\":5694:5699   */\n      dup4\n        /* \"#utility.yul\":5690:5706   */\n      add\n        /* \"#utility.yul\":5684:5707   */\n      mload\n        /* \"#utility.yul\":5754:5757   */\n      dup5\n        /* \"#utility.yul\":5748:5752   */\n      dup3\n        /* \"#utility.yul\":5744:5758   */\n      sub\n        /* \"#utility.yul\":5737:5741   */\n      0x00\n        /* \"#utility.yul\":5732:5735   */\n      dup7\n        /* \"#utility.yul\":5728:5742   */\n      add\n        /* \"#utility.yul\":5721:5759   */\n      mstore\n        /* \"#utility.yul\":5780:5853   */\n      tag_226\n        /* \"#utility.yul\":5848:5852   */\n      dup3\n        /* \"#utility.yul\":5834:5846   */\n      dup3\n        /* \"#utility.yul\":5780:5853   */\n      tag_122\n      jump\t// in\n    tag_226:\n        /* \"#utility.yul\":5772:5853   */\n      swap2\n      pop\n        /* \"#utility.yul\":5625:5864   */\n      pop\n        /* \"#utility.yul\":5946:5950   */\n      0x20\n        /* \"#utility.yul\":5939:5944   */\n      dup4\n        /* \"#utility.yul\":5935:5951   */\n      add\n        /* \"#utility.yul\":5929:5952   */\n      mload\n        /* \"#utility.yul\":5965:6032   */\n      tag_227\n        /* \"#utility.yul\":6026:6030   */\n      0x20\n        /* \"#utility.yul\":6021:6024   */\n      dup7\n        /* \"#utility.yul\":6017:6031   */\n      add\n        /* \"#utility.yul\":6003:6015   */\n      dup3\n        /* \"#utility.yul\":5965:6032   */\n      tag_126\n      jump\t// in\n    tag_227:\n        /* \"#utility.yul\":5874:6042   */\n      pop\n        /* \"#utility.yul\":6132:6136   */\n      0x40\n        /* \"#utility.yul\":6125:6130   */\n      dup4\n        /* \"#utility.yul\":6121:6137   */\n      add\n        /* \"#utility.yul\":6115:6138   */\n      mload\n        /* \"#utility.yul\":6151:6208   */\n      tag_228\n        /* \"#utility.yul\":6202:6206   */\n      0x40\n        /* \"#utility.yul\":6197:6200   */\n      dup7\n        /* \"#utility.yul\":6193:6207   */\n      add\n        /* \"#utility.yul\":6179:6191   */\n      dup3\n        /* \"#utility.yul\":6151:6208   */\n      tag_127\n      jump\t// in\n    tag_228:\n        /* \"#utility.yul\":6052:6218   */\n      pop\n        /* \"#utility.yul\":6235:6239   */\n      dup1\n        /* \"#utility.yul\":6228:6239   */\n      swap2\n      pop\n        /* \"#utility.yul\":5579:6245   */\n      pop\n        /* \"#utility.yul\":5465:6245   */\n      swap3\n      swap2\n      pop\n      pop\n      jump\t// out\n        /* \"#utility.yul\":6251:6604   */\n    tag_19:\n        /* \"#utility.yul\":6384:6388   */\n      0x00\n        /* \"#utility.yul\":6422:6424   */\n      0x20\n        /* \"#utility.yul\":6411:6420   */\n      dup3\n        /* \"#utility.yul\":6407:6425   */\n      add\n        /* \"#utility.yul\":6399:6425   */\n      swap1\n      pop\n        /* \"#utility.yul\":6471:6480   */\n      dup2\n        /* \"#utility.yul\":6465:6469   */\n      dup2\n        /* \"#utility.yul\":6461:6481   */\n      sub\n        /* \"#utility.yul\":6457:6458   */\n      0x00\n        /* \"#utility.yul\":6446:6455   */\n      dup4\n        /* \"#utility.yul\":6442:6459   */\n      add\n        /* \"#utility.yul\":6435:6482   */\n      mstore\n        /* \"#utility.yul\":6499:6597   */\n      tag_230\n        /* \"#utility.yul\":6592:6596   */\n      dup2\n        /* \"#utility.yul\":6583:6589   */\n      dup5\n        /* \"#utility.yul\":6499:6597   */\n      tag_128\n      jump\t// in\n    tag_230:\n        /* \"#utility.yul\":6491:6597   */\n      swap1\n      pop\n        /* \"#utility.yul\":6251:6604   */\n      swap3\n      swap2\n      pop\n      pop\n      jump\t// out\n        /* \"#utility.yul\":6610:6779   */\n    tag_129:\n        /* \"#utility.yul\":6694:6705   */\n      0x00\n        /* \"#utility.yul\":6728:6734   */\n      dup3\n        /* \"#utility.yul\":6723:6726   */\n      dup3\n        /* \"#utility.yul\":6716:6735   */\n      mstore\n        /* \"#utility.yul\":6768:6772   */\n      0x20\n        /* \"#utility.yul\":6763:6766   */\n      dup3\n        /* \"#utility.yul\":6759:6773   */\n      add\n        /* \"#utility.yul\":6744:6773   */\n      swap1\n      pop\n        /* \"#utility.yul\":6610:6779   */\n      swap3\n      swap2\n      pop\n      pop\n      jump\t// out\n        /* \"#utility.yul\":6785:7162   */\n    tag_130:\n        /* \"#utility.yul\":6873:6876   */\n      0x00\n        /* \"#utility.yul\":6901:6940   */\n      tag_233\n        /* \"#utility.yul\":6934:6939   */\n      dup3\n        /* \"#utility.yul\":6901:6940   */\n      tag_119\n      jump\t// in\n    tag_233:\n        /* \"#utility.yul\":6956:7027   */\n      tag_234\n        /* \"#utility.yul\":7020:7026   */\n      dup2\n        /* \"#utility.yul\":7015:7018   */\n      dup6\n        /* \"#utility.yul\":6956:7027   */\n      tag_129\n      jump\t// in\n    tag_234:\n        /* \"#utility.yul\":6949:7027   */\n      swap4\n      pop\n        /* \"#utility.yul\":7036:7101   */\n      tag_235\n        /* \"#utility.yul\":7094:7100   */\n      dup2\n        /* \"#utility.yul\":7089:7092   */\n      dup6\n        /* \"#utility.yul\":7082:7086   */\n      0x20\n        /* \"#utility.yul\":7075:7080   */\n      dup7\n        /* \"#utility.yul\":7071:7087   */\n      add\n        /* \"#utility.yul\":7036:7101   */\n      tag_121\n      jump\t// in\n    tag_235:\n        /* \"#utility.yul\":7126:7155   */\n      tag_236\n        /* \"#utility.yul\":7148:7154   */\n      dup2\n        /* \"#utility.yul\":7126:7155   */\n      tag_111\n      jump\t// in\n    tag_236:\n        /* \"#utility.yul\":7121:7124   */\n      dup5\n        /* \"#utility.yul\":7117:7156   */\n      add\n        /* \"#utility.yul\":7110:7156   */\n      swap2\n      pop\n        /* \"#utility.yul\":6877:7162   */\n      pop\n        /* \"#utility.yul\":6785:7162   */\n      swap3\n      swap2\n      pop\n      pop\n      jump\t// out\n        /* \"#utility.yul\":7168:7481   */\n    tag_23:\n        /* \"#utility.yul\":7281:7285   */\n      0x00\n        /* \"#utility.yul\":7319:7321   */\n      0x20\n        /* \"#utility.yul\":7308:7317   */\n      dup3\n        /* \"#utility.yul\":7304:7322   */\n      add\n        /* \"#utility.yul\":7296:7322   */\n      swap1\n      pop\n        /* \"#utility.yul\":7368:7377   */\n      dup2\n        /* \"#utility.yul\":7362:7366   */\n      dup2\n        /* \"#utility.yul\":7358:7378   */\n      sub\n        /* \"#utility.yul\":7354:7355   */\n      0x00\n        /* \"#utility.yul\":7343:7352   */\n      dup4\n        /* \"#utility.yul\":7339:7356   */\n      add\n        /* \"#utility.yul\":7332:7379   */\n      mstore\n        /* \"#utility.yul\":7396:7474   */\n      tag_238\n        /* \"#utility.yul\":7469:7473   */\n      dup2\n        /* \"#utility.yul\":7460:7466   */\n      dup5\n        /* \"#utility.yul\":7396:7474   */\n      tag_130\n      jump\t// in\n    tag_238:\n        /* \"#utility.yul\":7388:7474   */\n      swap1\n      pop\n        /* \"#utility.yul\":7168:7481   */\n      swap3\n      swap2\n      pop\n      pop\n      jump\t// out\n        /* \"#utility.yul\":7487:7898   */\n    tag_27:\n        /* \"#utility.yul\":7622:7626   */\n      0x00\n        /* \"#utility.yul\":7660:7662   */\n      0x40\n        /* \"#utility.yul\":7649:7658   */\n      dup3\n        /* \"#utility.yul\":7645:7663   */\n      add\n        /* \"#utility.yul\":7637:7663   */\n      swap1\n      pop\n        /* \"#utility.yul\":7673:7738   */\n      tag_240\n        /* \"#utility.yul\":7735:7736   */\n      0x00\n        /* \"#utility.yul\":7724:7733   */\n      dup4\n        /* \"#utility.yul\":7720:7737   */\n      add\n        /* \"#utility.yul\":7711:7717   */\n      dup6\n        /* \"#utility.yul\":7673:7738   */\n      tag_105\n      jump\t// in\n    tag_240:\n        /* \"#utility.yul\":7785:7794   */\n      dup2\n        /* \"#utility.yul\":7779:7783   */\n      dup2\n        /* \"#utility.yul\":7775:7795   */\n      sub\n        /* \"#utility.yul\":7770:7772   */\n      0x20\n        /* \"#utility.yul\":7759:7768   */\n      dup4\n        /* \"#utility.yul\":7755:7773   */\n      add\n        /* \"#utility.yul\":7748:7796   */\n      mstore\n        /* \"#utility.yul\":7813:7891   */\n      tag_241\n        /* \"#utility.yul\":7886:7890   */\n      dup2\n        /* \"#utility.yul\":7877:7883   */\n      dup5\n        /* \"#utility.yul\":7813:7891   */\n      tag_130\n      jump\t// in\n    tag_241:\n        /* \"#utility.yul\":7805:7891   */\n      swap1\n      pop\n        /* \"#utility.yul\":7487:7898   */\n      swap4\n      swap3\n      pop\n      pop\n      pop\n      jump\t// out\n        /* \"#utility.yul\":7904:8084   */\n    tag_131:\n        /* \"#utility.yul\":7952:8029   */\n      0x4e487b7100000000000000000000000000000000000000000000000000000000\n        /* \"#utility.yul\":7949:7950   */\n      0x00\n        /* \"#utility.yul\":7942:8030   */\n      mstore\n        /* \"#utility.yul\":8049:8053   */\n      0x22\n        /* \"#utility.yul\":8046:8047   */\n      0x04\n        /* \"#utility.yul\":8039:8054   */\n      mstore\n        /* \"#utility.yul\":8073:8077   */\n      0x24\n        /* \"#utility.yul\":8070:8071   */\n      0x00\n        /* \"#utility.yul\":8063:8078   */\n      revert\n        /* \"#utility.yul\":8090:8410   */\n    tag_66:\n        /* \"#utility.yul\":8134:8140   */\n      0x00\n        /* \"#utility.yul\":8171:8172   */\n      0x02\n        /* \"#utility.yul\":8165:8169   */\n      dup3\n        /* \"#utility.yul\":8161:8173   */\n      div\n        /* \"#utility.yul\":8151:8173   */\n      swap1\n      pop\n        /* \"#utility.yul\":8218:8219   */\n      0x01\n        /* \"#utility.yul\":8212:8216   */\n      dup3\n        /* \"#utility.yul\":8208:8220   */\n      and\n        /* \"#utility.yul\":8239:8257   */\n      dup1\n        /* \"#utility.yul\":8229:8310   */\n      tag_244\n      jumpi\n        /* \"#utility.yul\":8295:8299   */\n      0x7f\n        /* \"#utility.yul\":8287:8293   */\n      dup3\n        /* \"#utility.yul\":8283:8300   */\n      and\n        /* \"#utility.yul\":8273:8300   */\n      swap2\n      pop\n        /* \"#utility.yul\":8229:8310   */\n    tag_244:\n        /* \"#utility.yul\":8357:8359   */\n      0x20\n        /* \"#utility.yul\":8349:8355   */\n      dup3\n        /* \"#utility.yul\":8346:8360   */\n      lt\n        /* \"#utility.yul\":8326:8344   */\n      dup2\n        /* \"#utility.yul\":8323:8361   */\n      sub\n        /* \"#utility.yul\":8320:8404   */\n      tag_245\n      jumpi\n        /* \"#utility.yul\":8376:8394   */\n      tag_246\n      tag_131\n      jump\t// in\n    tag_246:\n        /* \"#utility.yul\":8320:8404   */\n    tag_245:\n        /* \"#utility.yul\":8141:8410   */\n      pop\n        /* \"#utility.yul\":8090:8410   */\n      swap2\n      swap1\n      pop\n      jump\t// out\n        /* \"#utility.yul\":8416:8557   */\n    tag_132:\n        /* \"#utility.yul\":8465:8469   */\n      0x00\n        /* \"#utility.yul\":8488:8491   */\n      dup2\n        /* \"#utility.yul\":8480:8491   */\n      swap1\n      pop\n        /* \"#utility.yul\":8511:8514   */\n      dup2\n        /* \"#utility.yul\":8508:8509   */\n      0x00\n        /* \"#utility.yul\":8501:8515   */\n      mstore\n        /* \"#utility.yul\":8545:8549   */\n      0x20\n        /* \"#utility.yul\":8542:8543   */\n      0x00\n        /* \"#utility.yul\":8532:8550   */\n      keccak256\n        /* \"#utility.yul\":8524:8550   */\n      swap1\n      pop\n        /* \"#utility.yul\":8416:8557   */\n      swap2\n      swap1\n      pop\n      jump\t// out\n        /* \"#utility.yul\":8563:8656   */\n    tag_133:\n        /* \"#utility.yul\":8600:8606   */\n      0x00\n        /* \"#utility.yul\":8647:8649   */\n      0x20\n        /* \"#utility.yul\":8642:8644   */\n      0x1f\n        /* \"#utility.yul\":8635:8640   */\n      dup4\n        /* \"#utility.yul\":8631:8645   */\n      add\n        /* \"#utility.yul\":8627:8650   */\n      div\n        /* \"#utility.yul\":8617:8650   */\n      swap1\n      pop\n        /* \"#utility.yul\":8563:8656   */\n      swap2\n      swap1\n      pop\n      jump\t// out\n        /* \"#utility.yul\":8662:8769   */\n    tag_134:\n        /* \"#utility.yul\":8706:8714   */\n      0x00\n        /* \"#utility.yul\":8756:8761   */\n      dup3\n        /* \"#utility.yul\":8750:8754   */\n      dup3\n        /* \"#utility.yul\":8746:8762   */\n      shl\n        /* \"#utility.yul\":8725:8762   */\n      swap1\n      pop\n        /* \"#utility.yul\":8662:8769   */\n      swap3\n      swap2\n      pop\n      pop\n      jump\t// out\n        /* \"#utility.yul\":8775:9168   */\n    tag_135:\n        /* \"#utility.yul\":8844:8850   */\n      0x00\n        /* \"#utility.yul\":8894:8895   */\n      0x08\n        /* \"#utility.yul\":8882:8892   */\n      dup4\n        /* \"#utility.yul\":8878:8896   */\n      mul\n        /* \"#utility.yul\":8917:9014   */\n      tag_251\n        /* \"#utility.yul\":8947:9013   */\n      0xffffffffffffffffffffffffffffffffffffffffffffffffffffffffffffffff\n        /* \"#utility.yul\":8936:8945   */\n      dup3\n        /* \"#utility.yul\":8917:9014   */\n      tag_134\n      jump\t// in\n    tag_251:\n        /* \"#utility.yul\":9035:9074   */\n      tag_252\n        /* \"#utility.yul\":9065:9073   */\n      dup7\n        /* \"#utility.yul\":9054:9063   */\n      dup4\n        /* \"#utility.yul\":9035:9074   */\n      tag_134\n      jump\t// in\n    tag_252:\n        /* \"#utility.yul\":9023:9074   */\n      swap6\n      pop\n        /* \"#utility.yul\":9107:9111   */\n      dup1\n        /* \"#utility.yul\":9103:9112   */\n      not\n        /* \"#utility.yul\":9096:9101   */\n      dup5\n        /* \"#utility.yul\":9092:9113   */\n      and\n        /* \"#utility.yul\":9083:9113   */\n      swap4\n      pop\n        /* \"#utility.yul\":9156:9160   */\n      dup1\n        /* \"#utility.yul\":9146:9154   */\n      dup7\n        /* \"#utility.yul\":9142:9161   */\n      and\n        /* \"#utility.yul\":9135:9140   */\n      dup5\n        /* \"#utility.yul\":9132:9162   */\n      or\n        /* \"#utility.yul\":9122:9162   */\n      swap3\n      pop\n        /* \"#utility.yul\":8851:9168   */\n      pop\n      pop\n        /* \"#utility.yul\":8775:9168   */\n      swap4\n      swap3\n      pop\n      pop\n      pop\n      jump\t// out\n        /* \"#utility.yul\":9174:9251   */\n    tag_136:\n        /* \"#utility.yul\":9211:9218   */\n      0x00\n        /* \"#utility.yul\":9240:9245   */\n      dup2\n        /* \"#utility.yul\":9229:9245   */\n      swap1\n      pop\n        /* \"#utility.yul\":9174:9251   */\n      swap2\n      swap1\n      pop\n      jump\t// out\n        /* \"#utility.yul\":9257:9317   */\n    tag_137:\n        /* \"#utility.yul\":9285:9288   */\n      0x00\n        /* \"#utility.yul\":9306:9311   */\n      dup2\n        /* \"#utility.yul\":9299:9311   */\n      swap1\n      pop\n        /* \"#utility.yul\":9257:9317   */\n      swap2\n      swap1\n      pop\n      jump\t// out\n        /* \"#utility.yul\":9323:9465   */\n    tag_138:\n        /* \"#utility.yul\":9373:9382   */\n      0x00\n        /* \"#utility.yul\":9406:9459   */\n      tag_256\n        /* \"#utility.yul\":9424:9458   */\n      tag_257\n        /* \"#utility.yul\":9433:9457   */\n      tag_258\n        /* \"#utility.yul\":9451:9456   */\n      dup5\n        /* \"#utility.yul\":9433:9457   */\n      tag_136\n      jump\t// in\n    tag_258:\n        /* \"#utility.yul\":9424:9458   */\n      tag_137\n      jump\t// in\n    tag_257:\n        /* \"#utility.yul\":9406:9459   */\n      tag_136\n      jump\t// in\n    tag_256:\n        /* \"#utility.yul\":9393:9459   */\n      swap1\n      pop\n        /* \"#utility.yul\":9323:9465   */\n      swap2\n      swap1\n      pop\n      jump\t// out\n        /* \"#utility.yul\":9471:9546   */\n    tag_139:\n        /* \"#utility.yul\":9514:9517   */\n      0x00\n        /* \"#utility.yul\":9535:9540   */\n      dup2\n        /* \"#utility.yul\":9528:9540   */\n      swap1\n      pop\n        /* \"#utility.yul\":9471:9546   */\n      swap2\n      swap1\n      pop\n      jump\t// out\n        /* \"#utility.yul\":9552:9821   */\n    tag_140:\n        /* \"#utility.yul\":9662:9701   */\n      tag_261\n        /* \"#utility.yul\":9693:9700   */\n      dup4\n        /* \"#utility.yul\":9662:9701   */\n      tag_138\n      jump\t// in\n    tag_261:\n        /* \"#utility.yul\":9723:9814   */\n      tag_262\n        /* \"#utility.yul\":9772:9813   */\n      tag_263\n        /* \"#utility.yul\":9796:9812   */\n      dup3\n        /* \"#utility.yul\":9772:9813   */\n      tag_139\n      jump\t// in\n    tag_263:\n        /* \"#utility.yul\":9764:9770   */\n      dup5\n        /* \"#utility.yul\":9757:9761   */\n      dup5\n        /* \"#utility.yul\":9751:9762   */\n      sload\n        /* \"#utility.yul\":9723:9814   */\n      tag_135\n      jump\t// in\n    tag_262:\n        /* \"#utility.yul\":9717:9721   */\n      dup3\n        /* \"#utility.yul\":9710:9815   */\n      sstore\n        /* \"#utility.yul\":9628:9821   */\n      pop\n        /* \"#utility.yul\":9552:9821   */\n      pop\n      pop\n      pop\n      jump\t// out\n        /* \"#utility.yul\":9827:9900   */\n    tag_141:\n        /* \"#utility.yul\":9872:9875   */\n      0x00\n        /* \"#utility.yul\":9893:9894   */\n      0x00\n        /* \"#utility.yul\":9886:9894   */\n      swap1\n      pop\n        /* \"#utility.yul\":9827:9900   */\n      swap1\n      jump\t// out\n        /* \"#utility.yul\":9906:10095   */\n    tag_142:\n        /* \"#utility.yul\":9983:10015   */\n      tag_266\n      tag_141\n      jump\t// in\n    tag_266:\n        /* \"#utility.yul\":10024:10089   */\n      tag_267\n        /* \"#utility.yul\":10082:10088   */\n      dup2\n        /* \"#utility.yul\":10074:10080   */\n      dup5\n        /* \"#utility.yul\":10068:10072   */\n      dup5\n        /* \"#utility.yul\":10024:10089   */\n      tag_140\n      jump\t// in\n    tag_267:\n        /* \"#utility.yul\":9959:10095   */\n      pop\n        /* \"#utility.yul\":9906:10095   */\n      pop\n      pop\n      jump\t// out\n        /* \"#utility.yul\":10101:10287   */\n    tag_143:\n        /* \"#utility.yul\":10161:10281   */\n    tag_269:\n        /* \"#utility.yul\":10178:10181   */\n      dup2\n        /* \"#utility.yul\":10171:10176   */\n      dup2\n        /* \"#utility.yul\":10168:10182   */\n      lt\n        /* \"#utility.yul\":10161:10281   */\n      iszero\n      tag_271\n      jumpi\n        /* \"#utility.yul\":10232:10271   */\n      tag_272\n        /* \"#utility.yul\":10269:10270   */\n      0x00\n        /* \"#utility.yul\":10262:10267   */\n      dup3\n        /* \"#utility.yul\":10232:10271   */\n      tag_142\n      jump\t// in\n    tag_272:\n        /* \"#utility.yul\":10205:10206   */\n      0x01\n        /* \"#utility.yul\":10198:10203   */\n      dup2\n        /* \"#utility.yul\":10194:10207   */\n      add\n        /* \"#utility.yul\":10185:10207   */\n      swap1\n      pop\n        /* \"#utility.yul\":10161:10281   */\n      jump(tag_269)\n    tag_271:\n        /* \"#utility.yul\":10101:10287   */\n      pop\n      pop\n      jump\t// out\n        /* \"#utility.yul\":10293:10836   */\n    tag_144:\n        /* \"#utility.yul\":10394:10396   */\n      0x1f\n        /* \"#utility.yul\":10389:10392   */\n      dup3\n        /* \"#utility.yul\":10386:10397   */\n      gt\n        /* \"#utility.yul\":10383:10829   */\n      iszero\n      tag_274\n      jumpi\n        /* \"#utility.yul\":10428:10466   */\n      tag_275\n        /* \"#utility.yul\":10460:10465   */\n      dup2\n        /* \"#utility.yul\":10428:10466   */\n      tag_132\n      jump\t// in\n    tag_275:\n        /* \"#utility.yul\":10512:10541   */\n      tag_276\n        /* \"#utility.yul\":10530:10540   */\n      dup5\n        /* \"#utility.yul\":10512:10541   */\n      tag_133\n      jump\t// in\n    tag_276:\n        /* \"#utility.yul\":10502:10510   */\n      dup2\n        /* \"#utility.yul\":10498:10542   */\n      add\n        /* \"#utility.yul\":10695:10697   */\n      0x20\n        /* \"#utility.yul\":10683:10693   */\n      dup6\n        /* \"#utility.yul\":10680:10698   */\n      lt\n        /* \"#utility.yul\":10677:10726   */\n      iszero\n      tag_277\n      jumpi\n        /* \"#utility.yul\":10716:10724   */\n      dup2\n        /* \"#utility.yul\":10701:10724   */\n      swap1\n      pop\n        /* \"#utility.yul\":10677:10726   */\n    tag_277:\n        /* \"#utility.yul\":10739:10819   */\n      tag_278\n        /* \"#utility.yul\":10795:10817   */\n      tag_279\n        /* \"#utility.yul\":10813:10816   */\n      dup6\n        /* \"#utility.yul\":10795:10817   */\n      tag_133\n      jump\t// in\n    tag_279:\n        /* \"#utility.yul\":10785:10793   */\n      dup4\n        /* \"#utility.yul\":10781:10818   */\n      add\n        /* \"#utility.yul\":10768:10779   */\n      dup3\n        /* \"#utility.yul\":10739:10819   */\n      tag_143\n      jump\t// in\n    tag_278:\n        /* \"#utility.yul\":10398:10829   */\n      pop\n      pop\n        /* \"#utility.yul\":10383:10829   */\n    tag_274:\n        /* \"#utility.yul\":10293:10836   */\n      pop\n      pop\n      pop\n      jump\t// out\n        /* \"#utility.yul\":10842:10959   */\n    tag_145:\n        /* \"#utility.yul\":10896:10904   */\n      0x00\n        /* \"#utility.yul\":10946:10951   */\n      dup3\n        /* \"#utility.yul\":10940:10944   */\n      dup3\n        /* \"#utility.yul\":10936:10952   */\n      shr\n        /* \"#utility.yul\":10915:10952   */\n      swap1\n      pop\n        /* \"#utility.yul\":10842:10959   */\n      swap3\n      swap2\n      pop\n      pop\n      jump\t// out\n        /* \"#utility.yul\":10965:11134   */\n    tag_146:\n        /* \"#utility.yul\":11009:11015   */\n      0x00\n        /* \"#utility.yul\":11042:11093   */\n      tag_282\n        /* \"#utility.yul\":11090:11091   */\n      0x00\n        /* \"#utility.yul\":11086:11092   */\n      not\n        /* \"#utility.yul\":11078:11083   */\n      dup5\n        /* \"#utility.yul\":11075:11076   */\n      0x08\n        /* \"#utility.yul\":11071:11084   */\n      mul\n        /* \"#utility.yul\":11042:11093   */\n      tag_145\n      jump\t// in\n    tag_282:\n        /* \"#utility.yul\":11038:11094   */\n      not\n        /* \"#utility.yul\":11123:11127   */\n      dup1\n        /* \"#utility.yul\":11117:11121   */\n      dup4\n        /* \"#utility.yul\":11113:11128   */\n      and\n        /* \"#utility.yul\":11103:11128   */\n      swap2\n      pop\n        /* \"#utility.yul\":11016:11134   */\n      pop\n        /* \"#utility.yul\":10965:11134   */\n      swap3\n      swap2\n      pop\n      pop\n      jump\t// out\n        /* \"#utility.yul\":11139:11434   */\n    tag_147:\n        /* \"#utility.yul\":11215:11219   */\n      0x00\n        /* \"#utility.yul\":11361:11390   */\n      tag_284\n        /* \"#utility.yul\":11386:11389   */\n      dup4\n        /* \"#utility.yul\":11380:11384   */\n      dup4\n        /* \"#utility.yul\":11361:11390   */\n      tag_146\n      jump\t// in\n    tag_284:\n        /* \"#utility.yul\":11353:11390   */\n      swap2\n      pop\n        /* \"#utility.yul\":11423:11426   */\n      dup3\n        /* \"#utility.yul\":11420:11421   */\n      0x02\n        /* \"#utility.yul\":11416:11427   */\n      mul\n        /* \"#utility.yul\":11410:11414   */\n      dup3\n        /* \"#utility.yul\":11407:11428   */\n      or\n        /* \"#utility.yul\":11399:11428   */\n      swap1\n      pop\n        /* \"#utility.yul\":11139:11434   */\n      swap3\n      swap2\n      pop\n      pop\n      jump\t// out\n        /* \"#utility.yul\":11439:12834   */\n    tag_34:\n        /* \"#utility.yul\":11556:11593   */\n      tag_286\n        /* \"#utility.yul\":11589:11592   */\n      dup3\n        /* \"#utility.yul\":11556:11593   */\n      tag_119\n      jump\t// in\n    tag_286:\n        /* \"#utility.yul\":11658:11676   */\n      0xffffffffffffffff\n        /* \"#utility.yul\":11650:11656   */\n      dup2\n        /* \"#utility.yul\":11647:11677   */\n      gt\n        /* \"#utility.yul\":11644:11700   */\n      iszero\n      tag_287\n      jumpi\n        /* \"#utility.yul\":11680:11698   */\n      tag_288\n      tag_112\n      jump\t// in\n    tag_288:\n        /* \"#utility.yul\":11644:11700   */\n    tag_287:\n        /* \"#utility.yul\":11724:11762   */\n      tag_289\n        /* \"#utility.yul\":11756:11760   */\n      dup3\n        /* \"#utility.yul\":11750:11761   */\n      sload\n        /* \"#utility.yul\":11724:11762   */\n      tag_66\n      jump\t// in\n    tag_289:\n        /* \"#utility.yul\":11809:11876   */\n      tag_290\n        /* \"#utility.yul\":11869:11875   */\n      dup3\n        /* \"#utility.yul\":11861:11867   */\n      dup3\n        /* \"#utility.yul\":11855:11859   */\n      dup6\n        /* \"#utility.yul\":11809:11876   */\n      tag_144\n      jump\t// in\n    tag_290:\n        /* \"#utility.yul\":11903:11904   */\n      0x00\n        /* \"#utility.yul\":11927:11931   */\n      0x20\n        /* \"#utility.yul\":11914:11931   */\n      swap1\n      pop\n        /* \"#utility.yul\":11959:11961   */\n      0x1f\n        /* \"#utility.yul\":11951:11957   */\n      dup4\n        /* \"#utility.yul\":11948:11962   */\n      gt\n        /* \"#utility.yul\":11976:11977   */\n      0x01\n        /* \"#utility.yul\":11971:12589   */\n      dup2\n      eq\n      tag_292\n      jumpi\n        /* \"#utility.yul\":12633:12634   */\n      0x00\n        /* \"#utility.yul\":12650:12656   */\n      dup5\n        /* \"#utility.yul\":12647:12724   */\n      iszero\n      tag_293\n      jumpi\n        /* \"#utility.yul\":12699:12708   */\n      dup3\n        /* \"#utility.yul\":12694:12697   */\n      dup8\n        /* \"#utility.yul\":12690:12709   */\n      add\n        /* \"#utility.yul\":12684:12710   */\n      mload\n        /* \"#utility.yul\":12675:12710   */\n      swap1\n      pop\n        /* \"#utility.yul\":12647:12724   */\n    tag_293:\n        /* \"#utility.yul\":12750:12817   */\n      tag_294\n        /* \"#utility.yul\":12810:12816   */\n      dup6\n        /* \"#utility.yul\":12803:12808   */\n      dup3\n        /* \"#utility.yul\":12750:12817   */\n      tag_147\n      jump\t// in\n    tag_294:\n        /* \"#utility.yul\":12744:12748   */\n      dup7\n        /* \"#utility.yul\":12737:12818   */\n      sstore\n        /* \"#utility.yul\":12606:12828   */\n      pop\n        /* \"#utility.yul\":11941:12828   */\n      jump(tag_291)\n        /* \"#utility.yul\":11971:12589   */\n    tag_292:\n        /* \"#utility.yul\":12023:12027   */\n      0x1f\n        /* \"#utility.yul\":12019:12028   */\n      not\n        /* \"#utility.yul\":12011:12017   */\n      dup5\n        /* \"#utility.yul\":12007:12029   */\n      and\n        /* \"#utility.yul\":12057:12094   */\n      tag_295\n        /* \"#utility.yul\":12089:12093   */\n      dup7\n        /* \"#utility.yul\":12057:12094   */\n      tag_132\n      jump\t// in\n    tag_295:\n        /* \"#utility.yul\":12116:12117   */\n      0x00\n        /* \"#utility.yul\":12130:12338   */\n    tag_296:\n        /* \"#utility.yul\":12144:12151   */\n      dup3\n        /* \"#utility.yul\":12141:12142   */\n      dup2\n        /* \"#utility.yul\":12138:12152   */\n      lt\n        /* \"#utility.yul\":12130:12338   */\n      iszero\n      tag_298\n      jumpi\n        /* \"#utility.yul\":12223:12232   */\n      dup5\n        /* \"#utility.yul\":12218:12221   */\n      dup10\n        /* \"#utility.yul\":12214:12233   */\n      add\n        /* \"#utility.yul\":12208:12234   */\n      mload\n        /* \"#utility.yul\":12200:12206   */\n      dup3\n        /* \"#utility.yul\":12193:12235   */\n      sstore\n        /* \"#utility.yul\":12274:12275   */\n      0x01\n        /* \"#utility.yul\":12266:12272   */\n      dup3\n        /* \"#utility.yul\":12262:12276   */\n      add\n        /* \"#utility.yul\":12252:12276   */\n      swap2\n      pop\n        /* \"#utility.yul\":12321:12323   */\n      0x20\n        /* \"#utility.yul\":12310:12319   */\n      dup6\n        /* \"#utility.yul\":12306:12324   */\n      add\n        /* \"#utility.yul\":12293:12324   */\n      swap5\n      pop\n        /* \"#utility.yul\":12167:12171   */\n      0x20\n        /* \"#utility.yul\":12164:12165   */\n      dup2\n        /* \"#utility.yul\":12160:12172   */\n      add\n        /* \"#utility.yul\":12155:12172   */\n      swap1\n      pop\n        /* \"#utility.yul\":12130:12338   */\n      jump(tag_296)\n    tag_298:\n        /* \"#utility.yul\":12366:12372   */\n      dup7\n        /* \"#utility.yul\":12357:12364   */\n      dup4\n        /* \"#utility.yul\":12354:12373   */\n      lt\n        /* \"#utility.yul\":12351:12530   */\n      iszero\n      tag_299\n      jumpi\n        /* \"#utility.yul\":12424:12433   */\n      dup5\n        /* \"#utility.yul\":12419:12422   */\n      dup10\n        /* \"#utility.yul\":12415:12434   */\n      add\n        /* \"#utility.yul\":12409:12435   */\n      mload\n        /* \"#utility.yul\":12467:12515   */\n      tag_300\n        /* \"#utility.yul\":12509:12513   */\n      0x1f\n        /* \"#utility.yul\":12501:12507   */\n      dup10\n        /* \"#utility.yul\":12497:12514   */\n      and\n        /* \"#utility.yul\":12486:12495   */\n      dup3\n        /* \"#utility.yul\":12467:12515   */\n      tag_146\n      jump\t// in\n    tag_300:\n        /* \"#utility.yul\":12459:12465   */\n      dup4\n        /* \"#utility.yul\":12452:12516   */\n      sstore\n        /* \"#utility.yul\":12374:12530   */\n      pop\n        /* \"#utility.yul\":12351:12530   */\n    tag_299:\n        /* \"#utility.yul\":12576:12577   */\n      0x01\n        /* \"#utility.yul\":12572:12573   */\n      0x02\n        /* \"#utility.yul\":12564:12570   */\n      dup9\n        /* \"#utility.yul\":12560:12574   */\n      mul\n        /* \"#utility.yul\":12556:12578   */\n      add\n        /* \"#utility.yul\":12550:12554   */\n      dup9\n        /* \"#utility.yul\":12543:12579   */\n      sstore\n        /* \"#utility.yul\":11978:12589   */\n      pop\n      pop\n      pop\n        /* \"#utility.yul\":11941:12828   */\n    tag_291:\n      pop\n        /* \"#utility.yul\":11531:12834   */\n      pop\n      pop\n      pop\n        /* \"#utility.yul\":11439:12834   */\n      pop\n      pop\n      jump\t// out\n        /* \"#utility.yul\":12840:12979   */\n    tag_148:\n        /* \"#utility.yul\":12931:12972   */\n      tag_302\n        /* \"#utility.yul\":12966:12971   */\n      dup2\n        /* \"#utility.yul\":12931:12972   */\n      tag_125\n      jump\t// in\n    tag_302:\n        /* \"#utility.yul\":12926:12929   */\n      dup3\n        /* \"#utility.yul\":12919:12973   */\n      mstore\n        /* \"#utility.yul\":12840:12979   */\n      pop\n      pop\n      jump\t// out\n        /* \"#utility.yul\":12985:13215   */\n    tag_38:\n        /* \"#utility.yul\":13082:13086   */\n      0x00\n        /* \"#utility.yul\":13120:13122   */\n      0x20\n        /* \"#utility.yul\":13109:13118   */\n      dup3\n        /* \"#utility.yul\":13105:13123   */\n      add\n        /* \"#utility.yul\":13097:13123   */\n      swap1\n      pop\n        /* \"#utility.yul\":13133:13208   */\n      tag_304\n        /* \"#utility.yul\":13205:13206   */\n      0x00\n        /* \"#utility.yul\":13194:13203   */\n      dup4\n        /* \"#utility.yul\":13190:13207   */\n      add\n        /* \"#utility.yul\":13181:13187   */\n      dup5\n        /* \"#utility.yul\":13133:13208   */\n      tag_148\n      jump\t// in\n    tag_304:\n        /* \"#utility.yul\":12985:13215   */\n      swap3\n      swap2\n      pop\n      pop\n      jump\t// out\n        /* \"#utility.yul\":13221:13389   */\n    tag_149:\n        /* \"#utility.yul\":13361:13381   */\n      0x416c726561647920726567697374657265640000000000000000000000000000\n        /* \"#utility.yul\":13357:13358   */\n      0x00\n        /* \"#utility.yul\":13349:13355   */\n      dup3\n        /* \"#utility.yul\":13345:13359   */\n      add\n        /* \"#utility.yul\":13338:13382   */\n      mstore\n        /* \"#utility.yul\":13221:13389   */\n      pop\n      jump\t// out\n        /* \"#utility.yul\":13395:13761   */\n    tag_150:\n        /* \"#utility.yul\":13537:13540   */\n      0x00\n        /* \"#utility.yul\":13558:13625   */\n      tag_307\n        /* \"#utility.yul\":13622:13624   */\n      0x12\n        /* \"#utility.yul\":13617:13620   */\n      dup4\n        /* \"#utility.yul\":13558:13625   */\n      tag_129\n      jump\t// in\n    tag_307:\n        /* \"#utility.yul\":13551:13625   */\n      swap2\n      pop\n        /* \"#utility.yul\":13634:13727   */\n      tag_308\n        /* \"#utility.yul\":13723:13726   */\n      dup3\n        /* \"#utility.yul\":13634:13727   */\n      tag_149\n      jump\t// in\n    tag_308:\n        /* \"#utility.yul\":13752:13754   */\n      0x20\n        /* \"#utility.yul\":13747:13750   */\n      dup3\n        /* \"#utility.yul\":13743:13755   */\n      add\n        /* \"#utility.yul\":13736:13755   */\n      swap1\n      pop\n        /* \"#utility.yul\":13395:13761   */\n      swap2\n      swap1\n      pop\n      jump\t// out\n        /* \"#utility.yul\":13767:14186   */\n    tag_42:\n        /* \"#utility.yul\":13933:13937   */\n      0x00\n        /* \"#utility.yul\":13971:13973   */\n      0x20\n        /* \"#utility.yul\":13960:13969   */\n      dup3\n        /* \"#utility.yul\":13956:13974   */\n      add\n        /* \"#utility.yul\":13948:13974   */\n      swap1\n      pop\n        /* \"#utility.yul\":14020:14029   */\n      dup2\n        /* \"#utility.yul\":14014:14018   */\n      dup2\n        /* \"#utility.yul\":14010:14030   */\n      sub\n        /* \"#utility.yul\":14006:14007   */\n      0x00\n        /* \"#utility.yul\":13995:14004   */\n      dup4\n        /* \"#utility.yul\":13991:14008   */\n      add\n        /* \"#utility.yul\":13984:14031   */\n      mstore\n        /* \"#utility.yul\":14048:14179   */\n      tag_310\n        /* \"#utility.yul\":14174:14178   */\n      dup2\n        /* \"#utility.yul\":14048:14179   */\n      tag_150\n      jump\t// in\n    tag_310:\n        /* \"#utility.yul\":14040:14179   */\n      swap1\n      pop\n        /* \"#utility.yul\":13767:14186   */\n      swap2\n      swap1\n      pop\n      jump\t// out\n        /* \"#utility.yul\":14192:14354   */\n    tag_151:\n        /* \"#utility.yul\":14332:14346   */\n      0x496e76616c696420726f6c650000000000000000000000000000000000000000\n        /* \"#utility.yul\":14328:14329   */\n      0x00\n        /* \"#utility.yul\":14320:14326   */\n      dup3\n        /* \"#utility.yul\":14316:14330   */\n      add\n        /* \"#utility.yul\":14309:14347   */\n      mstore\n        /* \"#utility.yul\":14192:14354   */\n      pop\n      jump\t// out\n        /* \"#utility.yul\":14360:14726   */\n    tag_152:\n        /* \"#utility.yul\":14502:14505   */\n      0x00\n        /* \"#utility.yul\":14523:14590   */\n      tag_313\n        /* \"#utility.yul\":14587:14589   */\n      0x0c\n        /* \"#utility.yul\":14582:14585   */\n      dup4\n        /* \"#utility.yul\":14523:14590   */\n      tag_129\n      jump\t// in\n    tag_313:\n        /* \"#utility.yul\":14516:14590   */\n      swap2\n      pop\n        /* \"#utility.yul\":14599:14692   */\n      tag_314\n        /* \"#utility.yul\":14688:14691   */\n      dup3\n        /* \"#utility.yul\":14599:14692   */\n      tag_151\n      jump\t// in\n    tag_314:\n        /* \"#utility.yul\":14717:14719   */\n      0x20\n        /* \"#utility.yul\":14712:14715   */\n      dup3\n        /* \"#utility.yul\":14708:14720   */\n      add\n        /* \"#utility.yul\":14701:14720   */\n      swap1\n      pop\n        /* \"#utility.yul\":14360:14726   */\n      swap2\n      swap1\n      pop\n      jump\t// out\n        /* \"#utility.yul\":14732:15151   */\n    tag_51:\n        /* \"#utility.yul\":14898:14902   */\n      0x00\n        /* \"#utility.yul\":14936:14938   */\n      0x20\n        /* \"#utility.yul\":14925:14934   */\n      dup3\n        /* \"#utility.yul\":14921:14939   */\n      add\n        /* \"#utility.yul\":14913:14939   */\n      swap1\n      pop\n        /* \"#utility.yul\":14985:14994   */\n      dup2\n        /* \"#utility.yul\":14979:14983   */\n      dup2\n        /* \"#utility.yul\":14975:14995   */\n      sub\n        /* \"#utility.yul\":14971:14972   */\n      0x00\n        /* \"#utility.yul\":14960:14969   */\n      dup4\n        /* \"#utility.yul\":14956:14973   */\n      add\n        /* \"#utility.yul\":14949:14996   */\n      mstore\n        /* \"#utility.yul\":15013:15144   */\n      tag_316\n        /* \"#utility.yul\":15139:15143   */\n      dup2\n        /* \"#utility.yul\":15013:15144   */\n      tag_152\n      jump\t// in\n    tag_316:\n        /* \"#utility.yul\":15005:15144   */\n      swap1\n      pop\n        /* \"#utility.yul\":14732:15151   */\n      swap2\n      swap1\n      pop\n      jump\t// out\n        /* \"#utility.yul\":15157:15588   */\n    tag_58:\n        /* \"#utility.yul\":15302:15306   */\n      0x00\n        /* \"#utility.yul\":15340:15342   */\n      0x40\n        /* \"#utility.yul\":15329:15338   */\n      dup3\n        /* \"#utility.yul\":15325:15343   */\n      add\n        /* \"#utility.yul\":15317:15343   */\n      swap1\n      pop\n        /* \"#utility.yul\":15389:15398   */\n      dup2\n        /* \"#utility.yul\":15383:15387   */\n      dup2\n        /* \"#utility.yul\":15379:15399   */\n      sub\n        /* \"#utility.yul\":15375:15376   */\n      0x00\n        /* \"#utility.yul\":15364:15373   */\n      dup4\n        /* \"#utility.yul\":15360:15377   */\n      add\n        /* \"#utility.yul\":15353:15400   */\n      mstore\n        /* \"#utility.yul\":15417:15495   */\n      tag_318\n        /* \"#utility.yul\":15490:15494   */\n      dup2\n        /* \"#utility.yul\":15481:15487   */\n      dup6\n        /* \"#utility.yul\":15417:15495   */\n      tag_130\n      jump\t// in\n    tag_318:\n        /* \"#utility.yul\":15409:15495   */\n      swap1\n      pop\n        /* \"#utility.yul\":15505:15581   */\n      tag_319\n        /* \"#utility.yul\":15577:15579   */\n      0x20\n        /* \"#utility.yul\":15566:15575   */\n      dup4\n        /* \"#utility.yul\":15562:15580   */\n      add\n        /* \"#utility.yul\":15553:15559   */\n      dup5\n        /* \"#utility.yul\":15505:15581   */\n      tag_148\n      jump\t// in\n    tag_319:\n        /* \"#utility.yul\":15157:15588   */\n      swap4\n      swap3\n      pop\n      pop\n      pop\n      jump\t// out\n        /* \"#utility.yul\":15594:15757   */\n    tag_153:\n        /* \"#utility.yul\":15734:15749   */\n      0x4e6f74206c6f6767656420696e00000000000000000000000000000000000000\n        /* \"#utility.yul\":15730:15731   */\n      0x00\n        /* \"#utility.yul\":15722:15728   */\n      dup3\n        /* \"#utility.yul\":15718:15732   */\n      add\n        /* \"#utility.yul\":15711:15750   */\n      mstore\n        /* \"#utility.yul\":15594:15757   */\n      pop\n      jump\t// out\n        /* \"#utility.yul\":15763:16129   */\n    tag_154:\n        /* \"#utility.yul\":15905:15908   */\n      0x00\n        /* \"#utility.yul\":15926:15993   */\n      tag_322\n        /* \"#utility.yul\":15990:15992   */\n      0x0d\n        /* \"#utility.yul\":15985:15988   */\n      dup4\n        /* \"#utility.yul\":15926:15993   */\n      tag_129\n      jump\t// in\n    tag_322:\n        /* \"#utility.yul\":15919:15993   */\n      swap2\n      pop\n        /* \"#utility.yul\":16002:16095   */\n      tag_323\n        /* \"#utility.yul\":16091:16094   */\n      dup3\n        /* \"#utility.yul\":16002:16095   */\n      tag_153\n      jump\t// in\n    tag_323:\n        /* \"#utility.yul\":16120:16122   */\n      0x20\n        /* \"#utility.yul\":16115:16118   */\n      dup3\n        /* \"#utility.yul\":16111:16123   */\n      add\n        /* \"#utility.yul\":16104:16123   */\n      swap1\n      pop\n        /* \"#utility.yul\":15763:16129   */\n      swap2\n      swap1\n      pop\n      jump\t// out\n        /* \"#utility.yul\":16135:16554   */\n    tag_64:\n        /* \"#utility.yul\":16301:16305   */\n      0x00\n        /* \"#utility.yul\":16339:16341   */\n      0x20\n        /* \"#utility.yul\":16328:16337   */\n      dup3\n        /* \"#utility.yul\":16324:16342   */\n      add\n        /* \"#utility.yul\":16316:16342   */\n      swap1\n      pop\n        /* \"#utility.yul\":16388:16397   */\n      dup2\n        /* \"#utility.yul\":16382:16386   */\n      dup2\n        /* \"#utility.yul\":16378:16398   */\n      sub\n        /* \"#utility.yul\":16374:16375   */\n      0x00\n        /* \"#utility.yul\":16363:16372   */\n      dup4\n        /* \"#utility.yul\":16359:16376   */\n      add\n        /* \"#utility.yul\":16352:16399   */\n      mstore\n        /* \"#utility.yul\":16416:16547   */\n      tag_325\n        /* \"#utility.yul\":16542:16546   */\n      dup2\n        /* \"#utility.yul\":16416:16547   */\n      tag_154\n      jump\t// in\n    tag_325:\n        /* \"#utility.yul\":16408:16547   */\n      swap1\n      pop\n        /* \"#utility.yul\":16135:16554   */\n      swap2\n      swap1\n      pop\n      jump\t// out\n        /* \"#utility.yul\":16560:16724   */\n    tag_155:\n        /* \"#utility.yul\":16700:16716   */\n      0x4e6f742072656769737465726564000000000000000000000000000000000000\n        /* \"#utility.yul\":16696:16697   */\n      0x00\n        /* \"#utility.yul\":16688:16694   */\n      dup3\n        /* \"#utility.yul\":16684:16698   */\n      add\n        /* \"#utility.yul\":16677:16717   */\n      mstore\n        /* \"#utility.yul\":16560:16724   */\n      pop\n      jump\t// out\n        /* \"#utility.yul\":16730:17096   */\n    tag_156:\n        /* \"#utility.yul\":16872:16875   */\n      0x00\n        /* \"#utility.yul\":16893:16960   */\n      tag_328\n        /* \"#utility.yul\":16957:16959   */\n      0x0e\n        /* \"#utility.yul\":16952:16955   */\n      dup4\n        /* \"#utility.yul\":16893:16960   */\n      tag_129\n      jump\t// in\n    tag_328:\n        /* \"#utility.yul\":16886:16960   */\n      swap2\n      pop\n        /* \"#utility.yul\":16969:17062   */\n      tag_329\n        /* \"#utility.yul\":17058:17061   */\n      dup3\n        /* \"#utility.yul\":16969:17062   */\n      tag_155\n      jump\t// in\n    tag_329:\n        /* \"#utility.yul\":17087:17089   */\n      0x20\n        /* \"#utility.yul\":17082:17085   */\n      dup3\n        /* \"#utility.yul\":17078:17090   */\n      add\n        /* \"#utility.yul\":17071:17090   */\n      swap1\n      pop\n        /* \"#utility.yul\":16730:17096   */\n      swap2\n      swap1\n      pop\n      jump\t// out\n        /* \"#utility.yul\":17102:17521   */\n    tag_78:\n        /* \"#utility.yul\":17268:17272   */\n      0x00\n        /* \"#utility.yul\":17306:17308   */\n      0x20\n        /* \"#utility.yul\":17295:17304   */\n      dup3\n        /* \"#utility.yul\":17291:17309   */\n      add\n        /* \"#utility.yul\":17283:17309   */\n      swap1\n      pop\n        /* \"#utility.yul\":17355:17364   */\n      dup2\n        /* \"#utility.yul\":17349:17353   */\n      dup2\n        /* \"#utility.yul\":17345:17365   */\n      sub\n        /* \"#utility.yul\":17341:17342   */\n      0x00\n        /* \"#utility.yul\":17330:17339   */\n      dup4\n        /* \"#utility.yul\":17326:17343   */\n      add\n        /* \"#utility.yul\":17319:17366   */\n      mstore\n        /* \"#utility.yul\":17383:17514   */\n      tag_331\n        /* \"#utility.yul\":17509:17513   */\n      dup2\n        /* \"#utility.yul\":17383:17514   */\n      tag_156\n      jump\t// in\n    tag_331:\n        /* \"#utility.yul\":17375:17514   */\n      swap1\n      pop\n        /* \"#utility.yul\":17102:17521   */\n      swap2\n      swap1\n      pop\n      jump\t// out\n        /* \"#utility.yul\":17527:17696   */\n    tag_157:\n        /* \"#utility.yul\":17667:17688   */\n      0x55736572206e6f74207265676973746572656400000000000000000000000000\n        /* \"#utility.yul\":17663:17664   */\n      0x00\n        /* \"#utility.yul\":17655:17661   */\n      dup3\n        /* \"#utility.yul\":17651:17665   */\n      add\n        /* \"#utility.yul\":17644:17689   */\n      mstore\n        /* \"#utility.yul\":17527:17696   */\n      pop\n      jump\t// out\n        /* \"#utility.yul\":17702:18068   */\n    tag_158:\n        /* \"#utility.yul\":17844:17847   */\n      0x00\n        /* \"#utility.yul\":17865:17932   */\n      tag_334\n        /* \"#utility.yul\":17929:17931   */\n      0x13\n        /* \"#utility.yul\":17924:17927   */\n      dup4\n        /* \"#utility.yul\":17865:17932   */\n      tag_129\n      jump\t// in\n    tag_334:\n        /* \"#utility.yul\":17858:17932   */\n      swap2\n      pop\n        /* \"#utility.yul\":17941:18034   */\n      tag_335\n        /* \"#utility.yul\":18030:18033   */\n      dup3\n        /* \"#utility.yul\":17941:18034   */\n      tag_157\n      jump\t// in\n    tag_335:\n        /* \"#utility.yul\":18059:18061   */\n      0x20\n        /* \"#utility.yul\":18054:18057   */\n      dup3\n        /* \"#utility.yul\":18050:18062   */\n      add\n        /* \"#utility.yul\":18043:18062   */\n      swap1\n      pop\n        /* \"#utility.yul\":17702:18068   */\n      swap2\n      swap1\n      pop\n      jump\t// out\n        /* \"#utility.yul\":18074:18493   */\n    tag_84:\n        /* \"#utility.yul\":18240:18244   */\n      0x00\n        /* \"#utility.yul\":18278:18280   */\n      0x20\n        /* \"#utility.yul\":18267:18276   */\n      dup3\n        /* \"#utility.yul\":18263:18281   */\n      add\n        /* \"#utility.yul\":18255:18281   */\n      swap1\n      pop\n        /* \"#utility.yul\":18327:18336   */\n      dup2\n        /* \"#utility.yul\":18321:18325   */\n      dup2\n        /* \"#utility.yul\":18317:18337   */\n      sub\n        /* \"#utility.yul\":18313:18314   */\n      0x00\n        /* \"#utility.yul\":18302:18311   */\n      dup4\n        /* \"#utility.yul\":18298:18315   */\n      add\n        /* \"#utility.yul\":18291:18338   */\n      mstore\n        /* \"#utility.yul\":18355:18486   */\n      tag_337\n        /* \"#utility.yul\":18481:18485   */\n      dup2\n        /* \"#utility.yul\":18355:18486   */\n      tag_158\n      jump\t// in\n    tag_337:\n        /* \"#utility.yul\":18347:18486   */\n      swap1\n      pop\n        /* \"#utility.yul\":18074:18493   */\n      swap2\n      swap1\n      pop\n      jump\t// out\n        /* \"#utility.yul\":18499:18647   */\n    tag_159:\n        /* \"#utility.yul\":18601:18612   */\n      0x00\n        /* \"#utility.yul\":18638:18641   */\n      dup2\n        /* \"#utility.yul\":18623:18641   */\n      swap1\n      pop\n        /* \"#utility.yul\":18499:18647   */\n      swap3\n      swap2\n      pop\n      pop\n      jump\t// out\n        /* \"#utility.yul\":18653:19043   */\n    tag_160:\n        /* \"#utility.yul\":18759:18762   */\n      0x00\n        /* \"#utility.yul\":18787:18826   */\n      tag_340\n        /* \"#utility.yul\":18820:18825   */\n      dup3\n        /* \"#utility.yul\":18787:18826   */\n      tag_119\n      jump\t// in\n    tag_340:\n        /* \"#utility.yul\":18842:18931   */\n      tag_341\n        /* \"#utility.yul\":18924:18930   */\n      dup2\n        /* \"#utility.yul\":18919:18922   */\n      dup6\n        /* \"#utility.yul\":18842:18931   */\n      tag_159\n      jump\t// in\n    tag_341:\n        /* \"#utility.yul\":18835:18931   */\n      swap4\n      pop\n        /* \"#utility.yul\":18940:19005   */\n      tag_342\n        /* \"#utility.yul\":18998:19004   */\n      dup2\n        /* \"#utility.yul\":18993:18996   */\n      dup6\n        /* \"#utility.yul\":18986:18990   */\n      0x20\n        /* \"#utility.yul\":18979:18984   */\n      dup7\n        /* \"#utility.yul\":18975:18991   */\n      add\n        /* \"#utility.yul\":18940:19005   */\n      tag_121\n      jump\t// in\n    tag_342:\n        /* \"#utility.yul\":19030:19036   */\n      dup1\n        /* \"#utility.yul\":19025:19028   */\n      dup5\n        /* \"#utility.yul\":19021:19037   */\n      add\n        /* \"#utility.yul\":19014:19037   */\n      swap2\n      pop\n        /* \"#utility.yul\":18763:19043   */\n      pop\n        /* \"#utility.yul\":18653:19043   */\n      swap3\n      swap2\n      pop\n      pop\n      jump\t// out\n        /* \"#utility.yul\":19049:19324   */\n    tag_88:\n        /* \"#utility.yul\":19181:19184   */\n      0x00\n        /* \"#utility.yul\":19203:19298   */\n      tag_344\n        /* \"#utility.yul\":19294:19297   */\n      dup3\n        /* \"#utility.yul\":19285:19291   */\n      dup5\n        /* \"#utility.yul\":19203:19298   */\n      tag_160\n      jump\t// in\n    tag_344:\n        /* \"#utility.yul\":19196:19298   */\n      swap2\n      pop\n        /* \"#utility.yul\":19315:19318   */\n      dup2\n        /* \"#utility.yul\":19308:19318   */\n      swap1\n      pop\n        /* \"#utility.yul\":19049:19324   */\n      swap3\n      swap2\n      pop\n      pop\n      jump\t// out\n\n    auxdata: 0xa2646970667358221220c8a2c386b78b11bf63918f791fda79a250527748da36c01b1fa5206442244d6264736f6c634300081e0033\n}\n",
				"bytecode": {
					"linkReferences": {},
					"object": "6080604052348015600e575f5ffd5b506114518061001c5f395ff3fe608060405234801561000f575f5ffd5b5060043610610055575f3560e01c80631f3c99c3146100595780633ffbd47f14610077578063431bbb7e146100935780636e3b47fc146100b1578063b34e97e8146100cf575b5f5ffd5b6100616100ee565b60405161006e9190610ad7565b60405180910390f35b610091600480360381019061008c9190610c3d565b61031f565b005b61009b610545565b6040516100a89190610de2565b60405180910390f35b6100b9610709565b6040516100c69190610e4a565b60405180910390f35b6100d76107f0565b6040516100e5929190610e6a565b60405180910390f35b5f5f5f3373ffffffffffffffffffffffffffffffffffffffff1673ffffffffffffffffffffffffffffffffffffffff1681526020019081526020015f2060010160019054906101000a900460ff16610148575f905061031c565b604051806060016040528060405180602001604052805f81525081526020015f600281111561017a57610179610d13565b5b81526020015f15158152505f5f3373ffffffffffffffffffffffffffffffffffffffff1673ffffffffffffffffffffffffffffffffffffffff1681526020019081526020015f205f820151815f0190816101d4919061109e565b506020820151816001015f6101000a81548160ff021916908360028111156101ff576101fe610d13565b5b021790555060408201518160010160016101000a81548160ff0219169083151502179055509050505f5f5f3373ffffffffffffffffffffffffffffffffffffffff1673ffffffffffffffffffffffffffffffffffffffff1681526020019081526020015f2060010160016101000a81548160ff0219169083151502179055503373ffffffffffffffffffffffffffffffffffffffff167fc1e1f43082cc0942da58f0dbc1b91c167501c02c01e62ca603480bbded03b5f35f5f3373ffffffffffffffffffffffffffffffffffffffff1673ffffffffffffffffffffffffffffffffffffffff1681526020019081526020015f206001015f9054906101000a900460ff1660405161030f919061117c565b60405180910390a2600190505b90565b5f5f3373ffffffffffffffffffffffffffffffffffffffff1673ffffffffffffffffffffffffffffffffffffffff1681526020019081526020015f2060010160019054906101000a900460ff16156103ac576040517f08c379a00000000000000000000000000000000000000000000000000000000081526004016103a3906111df565b60405180910390fd5b5f6103b6826108e2565b90505f60028111156103cb576103ca610d13565b5b8160028111156103de576103dd610d13565b5b0361041e576040517f08c379a000000000000000000000000000000000000000000000000000000000815260040161041590611247565b60405180910390fd5b604051806060016040528084815260200182600281111561044257610441610d13565b5b8152602001600115158152505f5f3373ffffffffffffffffffffffffffffffffffffffff1673ffffffffffffffffffffffffffffffffffffffff1681526020019081526020015f205f820151815f01908161049d919061109e565b506020820151816001015f6101000a81548160ff021916908360028111156104c8576104c7610d13565b5b021790555060408201518160010160016101000a81548160ff0219169083151502179055509050503373ffffffffffffffffffffffffffffffffffffffff167fc2e5d5da58bd71d1a2d14cdef02a4256d971b728088f8190d067ccfbae3bd73e8483604051610538929190611265565b60405180910390a2505050565b61054d610a8a565b5f5f3373ffffffffffffffffffffffffffffffffffffffff1673ffffffffffffffffffffffffffffffffffffffff1681526020019081526020015f2060010160019054906101000a900460ff166105d9576040517f08c379a00000000000000000000000000000000000000000000000000000000081526004016105d0906112dd565b60405180910390fd5b5f5f3373ffffffffffffffffffffffffffffffffffffffff1673ffffffffffffffffffffffffffffffffffffffff1681526020019081526020015f206040518060600160405290815f8201805461062f90610ec5565b80601f016020809104026020016040519081016040528092919081815260200182805461065b90610ec5565b80156106a65780601f1061067d576101008083540402835291602001916106a6565b820191905f5260205f20905b81548152906001019060200180831161068957829003601f168201915b50505050508152602001600182015f9054906101000a900460ff1660028111156106d3576106d2610d13565b5b60028111156106e5576106e4610d13565b5b81526020016001820160019054906101000a900460ff161515151581525050905090565b60605f5f3373ffffffffffffffffffffffffffffffffffffffff1673ffffffffffffffffffffffffffffffffffffffff1681526020019081526020015f2060010160019054906101000a900460ff16610797576040517f08c379a000000000000000000000000000000000000000000000000000000000815260040161078e90611345565b60405180910390fd5b6107eb5f5f3373ffffffffffffffffffffffffffffffffffffffff1673ffffffffffffffffffffffffffffffffffffffff1681526020019081526020015f206001015f9054906101000a900460ff16610979565b905090565b5f60605f5f3373ffffffffffffffffffffffffffffffffffffffff1673ffffffffffffffffffffffffffffffffffffffff1681526020019081526020015f2060010160019054906101000a900460ff1661087f576040517f08c379a0000000000000000000000000000000000000000000000000000000008152600401610876906113ad565b60405180910390fd5b5f6108d45f5f3373ffffffffffffffffffffffffffffffffffffffff1673ffffffffffffffffffffffffffffffffffffffff1681526020019081526020015f206001015f9054906101000a900460ff16610979565b905060018192509250509091565b5f5f826040516020016108f59190611405565b6040516020818303038152906040528051906020012090507fe96c7ffef33869246069ebcb32bc72a59fb488c4893c9eb9b3306de7ba74f6d8810361093e576001915050610974565b7f2fcba40a1a605acf57a88f10820dd7f474036e9c73660ce1bafdbb9004b92ded810361096f576002915050610974565b5f9150505b919050565b60606001600281111561098f5761098e610d13565b5b8260028111156109a2576109a1610d13565b5b036109e4576040518060400160405280600581526020017f646f6e6f720000000000000000000000000000000000000000000000000000008152509050610a85565b6002808111156109f7576109f6610d13565b5b826002811115610a0a57610a09610d13565b5b03610a4c576040518060400160405280600781526020017f63686172697479000000000000000000000000000000000000000000000000008152509050610a85565b6040518060400160405280600481526020017f6e6f6e650000000000000000000000000000000000000000000000000000000081525090505b919050565b6040518060600160405280606081526020015f6002811115610aaf57610aae610d13565b5b81526020015f151581525090565b5f8115159050919050565b610ad181610abd565b82525050565b5f602082019050610aea5f830184610ac8565b92915050565b5f604051905090565b5f5ffd5b5f5ffd5b5f5ffd5b5f5ffd5b5f601f19601f8301169050919050565b7f4e487b71000000000000000000000000000000000000000000000000000000005f52604160045260245ffd5b610b4f82610b09565b810181811067ffffffffffffffff82111715610b6e57610b6d610b19565b5b80604052505050565b5f610b80610af0565b9050610b8c8282610b46565b919050565b5f67ffffffffffffffff821115610bab57610baa610b19565b5b610bb482610b09565b9050602081019050919050565b828183375f83830152505050565b5f610be1610bdc84610b91565b610b77565b905082815260208101848484011115610bfd57610bfc610b05565b5b610c08848285610bc1565b509392505050565b5f82601f830112610c2457610c23610b01565b5b8135610c34848260208601610bcf565b91505092915050565b5f5f60408385031215610c5357610c52610af9565b5b5f83013567ffffffffffffffff811115610c7057610c6f610afd565b5b610c7c85828601610c10565b925050602083013567ffffffffffffffff811115610c9d57610c9c610afd565b5b610ca985828601610c10565b9150509250929050565b5f81519050919050565b5f82825260208201905092915050565b8281835e5f83830152505050565b5f610ce582610cb3565b610cef8185610cbd565b9350610cff818560208601610ccd565b610d0881610b09565b840191505092915050565b7f4e487b71000000000000000000000000000000000000000000000000000000005f52602160045260245ffd5b60038110610d5157610d50610d13565b5b50565b5f819050610d6182610d40565b919050565b5f610d7082610d54565b9050919050565b610d8081610d66565b82525050565b610d8f81610abd565b82525050565b5f606083015f8301518482035f860152610daf8282610cdb565b9150506020830151610dc46020860182610d77565b506040830151610dd76040860182610d86565b508091505092915050565b5f6020820190508181035f830152610dfa8184610d95565b905092915050565b5f82825260208201905092915050565b5f610e1c82610cb3565b610e268185610e02565b9350610e36818560208601610ccd565b610e3f81610b09565b840191505092915050565b5f6020820190508181035f830152610e628184610e12565b905092915050565b5f604082019050610e7d5f830185610ac8565b8181036020830152610e8f8184610e12565b90509392505050565b7f4e487b71000000000000000000000000000000000000000000000000000000005f52602260045260245ffd5b5f6002820490506001821680610edc57607f821691505b602082108103610eef57610eee610e98565b5b50919050565b5f819050815f5260205f209050919050565b5f6020601f8301049050919050565b5f82821b905092915050565b5f60088302610f517fffffffffffffffffffffffffffffffffffffffffffffffffffffffffffffffff82610f16565b610f5b8683610f16565b95508019841693508086168417925050509392505050565b5f819050919050565b5f819050919050565b5f610f9f610f9a610f9584610f73565b610f7c565b610f73565b9050919050565b5f819050919050565b610fb883610f85565b610fcc610fc482610fa6565b848454610f22565b825550505050565b5f5f905090565b610fe3610fd4565b610fee818484610faf565b505050565b5b81811015611011576110065f82610fdb565b600181019050610ff4565b5050565b601f8211156110565761102781610ef5565b61103084610f07565b8101602085101561103f578190505b61105361104b85610f07565b830182610ff3565b50505b505050565b5f82821c905092915050565b5f6110765f198460080261105b565b1980831691505092915050565b5f61108e8383611067565b9150826002028217905092915050565b6110a782610cb3565b67ffffffffffffffff8111156110c0576110bf610b19565b5b6110ca8254610ec5565b6110d5828285611015565b5f60209050601f831160018114611106575f84156110f4578287015190505b6110fe8582611083565b865550611165565b601f19841661111486610ef5565b5f5b8281101561113b57848901518255600182019150602085019450602081019050611116565b868310156111585784890151611154601f891682611067565b8355505b6001600288020188555050505b505050505050565b61117681610d66565b82525050565b5f60208201905061118f5f83018461116d565b92915050565b7f416c7265616479207265676973746572656400000000000000000000000000005f82015250565b5f6111c9601283610e02565b91506111d482611195565b602082019050919050565b5f6020820190508181035f8301526111f6816111bd565b9050919050565b7f496e76616c696420726f6c6500000000000000000000000000000000000000005f82015250565b5f611231600c83610e02565b915061123c826111fd565b602082019050919050565b5f6020820190508181035f83015261125e81611225565b9050919050565b5f6040820190508181035f83015261127d8185610e12565b905061128c602083018461116d565b9392505050565b7f4e6f74206c6f6767656420696e000000000000000000000000000000000000005f82015250565b5f6112c7600d83610e02565b91506112d282611293565b602082019050919050565b5f6020820190508181035f8301526112f4816112bb565b9050919050565b7f4e6f7420726567697374657265640000000000000000000000000000000000005f82015250565b5f61132f600e83610e02565b915061133a826112fb565b602082019050919050565b5f6020820190508181035f83015261135c81611323565b9050919050565b7f55736572206e6f742072656769737465726564000000000000000000000000005f82015250565b5f611397601383610e02565b91506113a282611363565b602082019050919050565b5f6020820190508181035f8301526113c48161138b565b9050919050565b5f81905092915050565b5f6113df82610cb3565b6113e981856113cb565b93506113f9818560208601610ccd565b80840191505092915050565b5f61141082846113d5565b91508190509291505056fea2646970667358221220c8a2c386b78b11bf63918f791fda79a250527748da36c01b1fa5206442244d6264736f6c634300081e0033",
					"opcodes": "PUSH1 0x80 PUSH1 0x40 MSTORE CALLVALUE DUP1 ISZERO PUSH1 0xE JUMPI PUSH0 PUSH0 REVERT JUMPDEST POP PUSH2 0x1451 DUP1 PUSH2 0x1C PUSH0 CODECOPY PUSH0 RETURN INVALID PUSH1 0x80 PUSH1 0x40 MSTORE CALLVALUE DUP1 ISZERO PUSH2 0xF JUMPI PUSH0 PUSH0 REVERT JUMPDEST POP PUSH1 0x4 CALLDATASIZE LT PUSH2 0x55 JUMPI PUSH0 CALLDATALOAD PUSH1 0xE0 SHR DUP1 PUSH4 0x1F3C99C3 EQ PUSH2 0x59 JUMPI DUP1 PUSH4 0x3FFBD47F EQ PUSH2 0x77 JUMPI DUP1 PUSH4 0x431BBB7E EQ PUSH2 0x93 JUMPI DUP1 PUSH4 0x6E3B47FC EQ PUSH2 0xB1 JUMPI DUP1 PUSH4 0xB34E97E8 EQ PUSH2 0xCF JUMPI JUMPDEST PUSH0 PUSH0 REVERT JUMPDEST PUSH2 0x61 PUSH2 0xEE JUMP JUMPDEST PUSH1 0x40 MLOAD PUSH2 0x6E SWAP2 SWAP1 PUSH2 0xAD7 JUMP JUMPDEST PUSH1 0x40 MLOAD DUP1 SWAP2 SUB SWAP1 RETURN JUMPDEST PUSH2 0x91 PUSH1 0x4 DUP1 CALLDATASIZE SUB DUP2 ADD SWAP1 PUSH2 0x8C SWAP2 SWAP1 PUSH2 0xC3D JUMP JUMPDEST PUSH2 0x31F JUMP JUMPDEST STOP JUMPDEST PUSH2 0x9B PUSH2 0x545 JUMP JUMPDEST PUSH1 0x40 MLOAD PUSH2 0xA8 SWAP2 SWAP1 PUSH2 0xDE2 JUMP JUMPDEST PUSH1 0x40 MLOAD DUP1 SWAP2 SUB SWAP1 RETURN JUMPDEST PUSH2 0xB9 PUSH2 0x709 JUMP JUMPDEST PUSH1 0x40 MLOAD PUSH2 0xC6 SWAP2 SWAP1 PUSH2 0xE4A JUMP JUMPDEST PUSH1 0x40 MLOAD DUP1 SWAP2 SUB SWAP1 RETURN JUMPDEST PUSH2 0xD7 PUSH2 0x7F0 JUMP JUMPDEST PUSH1 0x40 MLOAD PUSH2 0xE5 SWAP3 SWAP2 SWAP1 PUSH2 0xE6A JUMP JUMPDEST PUSH1 0x40 MLOAD DUP1 SWAP2 SUB SWAP1 RETURN JUMPDEST PUSH0 PUSH0 PUSH0 CALLER PUSH20 0xFFFFFFFFFFFFFFFFFFFFFFFFFFFFFFFFFFFFFFFF AND PUSH20 0xFFFFFFFFFFFFFFFFFFFFFFFFFFFFFFFFFFFFFFFF AND DUP2 MSTORE PUSH1 0x20 ADD SWAP1 DUP2 MSTORE PUSH1 0x20 ADD PUSH0 KECCAK256 PUSH1 0x1 ADD PUSH1 0x1 SWAP1 SLOAD SWAP1 PUSH2 0x100 EXP SWAP1 DIV PUSH1 0xFF AND PUSH2 0x148 JUMPI PUSH0 SWAP1 POP PUSH2 0x31C JUMP JUMPDEST PUSH1 0x40 MLOAD DUP1 PUSH1 0x60 ADD PUSH1 0x40 MSTORE DUP1 PUSH1 0x40 MLOAD DUP1 PUSH1 0x20 ADD PUSH1 0x40 MSTORE DUP1 PUSH0 DUP2 MSTORE POP DUP2 MSTORE PUSH1 0x20 ADD PUSH0 PUSH1 0x2 DUP2 GT ISZERO PUSH2 0x17A JUMPI PUSH2 0x179 PUSH2 0xD13 JUMP JUMPDEST JUMPDEST DUP2 MSTORE PUSH1 0x20 ADD PUSH0 ISZERO ISZERO DUP2 MSTORE POP PUSH0 PUSH0 CALLER PUSH20 0xFFFFFFFFFFFFFFFFFFFFFFFFFFFFFFFFFFFFFFFF AND PUSH20 0xFFFFFFFFFFFFFFFFFFFFFFFFFFFFFFFFFFFFFFFF AND DUP2 MSTORE PUSH1 0x20 ADD SWAP1 DUP2 MSTORE PUSH1 0x20 ADD PUSH0 KECCAK256 PUSH0 DUP3 ADD MLOAD DUP2 PUSH0 ADD SWAP1 DUP2 PUSH2 0x1D4 SWAP2 SWAP1 PUSH2 0x109E JUMP JUMPDEST POP PUSH1 0x20 DUP3 ADD MLOAD DUP2 PUSH1 0x1 ADD PUSH0 PUSH2 0x100 EXP DUP2 SLOAD DUP2 PUSH1 0xFF MUL NOT AND SWAP1 DUP4 PUSH1 0x2 DUP2 GT ISZERO PUSH2 0x1FF JUMPI PUSH2 0x1FE PUSH2 0xD13 JUMP JUMPDEST JUMPDEST MUL OR SWAP1 SSTORE POP PUSH1 0x40 DUP3 ADD MLOAD DUP2 PUSH1 0x1 ADD PUSH1 0x1 PUSH2 0x100 EXP DUP2 SLOAD DUP2 PUSH1 0xFF MUL NOT AND SWAP1 DUP4 ISZERO ISZERO MUL OR SWAP1 SSTORE POP SWAP1 POP POP PUSH0 PUSH0 PUSH0 CALLER PUSH20 0xFFFFFFFFFFFFFFFFFFFFFFFFFFFFFFFFFFFFFFFF AND PUSH20 0xFFFFFFFFFFFFFFFFFFFFFFFFFFFFFFFFFFFFFFFF AND DUP2 MSTORE PUSH1 0x20 ADD SWAP1 DUP2 MSTORE PUSH1 0x20 ADD PUSH0 KECCAK256 PUSH1 0x1 ADD PUSH1 0x1 PUSH2 0x100 EXP DUP2 SLOAD DUP2 PUSH1 0xFF MUL NOT AND SWAP1 DUP4 ISZERO ISZERO MUL OR SWAP1 SSTORE POP CALLER PUSH20 0xFFFFFFFFFFFFFFFFFFFFFFFFFFFFFFFFFFFFFFFF AND PUSH32 0xC1E1F43082CC0942DA58F0DBC1B91C167501C02C01E62CA603480BBDED03B5F3 PUSH0 PUSH0 CALLER PUSH20 0xFFFFFFFFFFFFFFFFFFFFFFFFFFFFFFFFFFFFFFFF AND PUSH20 0xFFFFFFFFFFFFFFFFFFFFFFFFFFFFFFFFFFFFFFFF AND DUP2 MSTORE PUSH1 0x20 ADD SWAP1 DUP2 MSTORE PUSH1 0x20 ADD PUSH0 KECCAK256 PUSH1 0x1 ADD PUSH0 SWAP1 SLOAD SWAP1 PUSH2 0x100 EXP SWAP1 DIV PUSH1 0xFF AND PUSH1 0x40 MLOAD PUSH2 0x30F SWAP2 SWAP1 PUSH2 0x117C JUMP JUMPDEST PUSH1 0x40 MLOAD DUP1 SWAP2 SUB SWAP1 LOG2 PUSH1 0x1 SWAP1 POP JUMPDEST SWAP1 JUMP JUMPDEST PUSH0 PUSH0 CALLER PUSH20 0xFFFFFFFFFFFFFFFFFFFFFFFFFFFFFFFFFFFFFFFF AND PUSH20 0xFFFFFFFFFFFFFFFFFFFFFFFFFFFFFFFFFFFFFFFF AND DUP2 MSTORE PUSH1 0x20 ADD SWAP1 DUP2 MSTORE PUSH1 0x20 ADD PUSH0 KECCAK256 PUSH1 0x1 ADD PUSH1 0x1 SWAP1 SLOAD SWAP1 PUSH2 0x100 EXP SWAP1 DIV PUSH1 0xFF AND ISZERO PUSH2 0x3AC JUMPI PUSH1 0x40 MLOAD PUSH32 0x8C379A000000000000000000000000000000000000000000000000000000000 DUP2 MSTORE PUSH1 0x4 ADD PUSH2 0x3A3 SWAP1 PUSH2 0x11DF JUMP JUMPDEST PUSH1 0x40 MLOAD DUP1 SWAP2 SUB SWAP1 REVERT JUMPDEST PUSH0 PUSH2 0x3B6 DUP3 PUSH2 0x8E2 JUMP JUMPDEST SWAP1 POP PUSH0 PUSH1 0x2 DUP2 GT ISZERO PUSH2 0x3CB JUMPI PUSH2 0x3CA PUSH2 0xD13 JUMP JUMPDEST JUMPDEST DUP2 PUSH1 0x2 DUP2 GT ISZERO PUSH2 0x3DE JUMPI PUSH2 0x3DD PUSH2 0xD13 JUMP JUMPDEST JUMPDEST SUB PUSH2 0x41E JUMPI PUSH1 0x40 MLOAD PUSH32 0x8C379A000000000000000000000000000000000000000000000000000000000 DUP2 MSTORE PUSH1 0x4 ADD PUSH2 0x415 SWAP1 PUSH2 0x1247 JUMP JUMPDEST PUSH1 0x40 MLOAD DUP1 SWAP2 SUB SWAP1 REVERT JUMPDEST PUSH1 0x40 MLOAD DUP1 PUSH1 0x60 ADD PUSH1 0x40 MSTORE DUP1 DUP5 DUP2 MSTORE PUSH1 0x20 ADD DUP3 PUSH1 0x2 DUP2 GT ISZERO PUSH2 0x442 JUMPI PUSH2 0x441 PUSH2 0xD13 JUMP JUMPDEST JUMPDEST DUP2 MSTORE PUSH1 0x20 ADD PUSH1 0x1 ISZERO ISZERO DUP2 MSTORE POP PUSH0 PUSH0 CALLER PUSH20 0xFFFFFFFFFFFFFFFFFFFFFFFFFFFFFFFFFFFFFFFF AND PUSH20 0xFFFFFFFFFFFFFFFFFFFFFFFFFFFFFFFFFFFFFFFF AND DUP2 MSTORE PUSH1 0x20 ADD SWAP1 DUP2 MSTORE PUSH1 0x20 ADD PUSH0 KECCAK256 PUSH0 DUP3 ADD MLOAD DUP2 PUSH0 ADD SWAP1 DUP2 PUSH2 0x49D SWAP2 SWAP1 PUSH2 0x109E JUMP JUMPDEST POP PUSH1 0x20 DUP3 ADD MLOAD DUP2 PUSH1 0x1 ADD PUSH0 PUSH2 0x100 EXP DUP2 SLOAD DUP2 PUSH1 0xFF MUL NOT AND SWAP1 DUP4 PUSH1 0x2 DUP2 GT ISZERO PUSH2 0x4C8 JUMPI PUSH2 0x4C7 PUSH2 0xD13 JUMP JUMPDEST JUMPDEST MUL OR SWAP1 SSTORE POP PUSH1 0x40 DUP3 ADD MLOAD DUP2 PUSH1 0x1 ADD PUSH1 0x1 PUSH2 0x100 EXP DUP2 SLOAD DUP2 PUSH1 0xFF MUL NOT AND SWAP1 DUP4 ISZERO ISZERO MUL OR SWAP1 SSTORE POP SWAP1 POP POP CALLER PUSH20 0xFFFFFFFFFFFFFFFFFFFFFFFFFFFFFFFFFFFFFFFF AND PUSH32 0xC2E5D5DA58BD71D1A2D14CDEF02A4256D971B728088F8190D067CCFBAE3BD73E DUP5 DUP4 PUSH1 0x40 MLOAD PUSH2 0x538 SWAP3 SWAP2 SWAP1 PUSH2 0x1265 JUMP JUMPDEST PUSH1 0x40 MLOAD DUP1 SWAP2 SUB SWAP1 LOG2 POP POP POP JUMP JUMPDEST PUSH2 0x54D PUSH2 0xA8A JUMP JUMPDEST PUSH0 PUSH0 CALLER PUSH20 0xFFFFFFFFFFFFFFFFFFFFFFFFFFFFFFFFFFFFFFFF AND PUSH20 0xFFFFFFFFFFFFFFFFFFFFFFFFFFFFFFFFFFFFFFFF AND DUP2 MSTORE PUSH1 0x20 ADD SWAP1 DUP2 MSTORE PUSH1 0x20 ADD PUSH0 KECCAK256 PUSH1 0x1 ADD PUSH1 0x1 SWAP1 SLOAD SWAP1 PUSH2 0x100 EXP SWAP1 DIV PUSH1 0xFF AND PUSH2 0x5D9 JUMPI PUSH1 0x40 MLOAD PUSH32 0x8C379A000000000000000000000000000000000000000000000000000000000 DUP2 MSTORE PUSH1 0x4 ADD PUSH2 0x5D0 SWAP1 PUSH2 0x12DD JUMP JUMPDEST PUSH1 0x40 MLOAD DUP1 SWAP2 SUB SWAP1 REVERT JUMPDEST PUSH0 PUSH0 CALLER PUSH20 0xFFFFFFFFFFFFFFFFFFFFFFFFFFFFFFFFFFFFFFFF AND PUSH20 0xFFFFFFFFFFFFFFFFFFFFFFFFFFFFFFFFFFFFFFFF AND DUP2 MSTORE PUSH1 0x20 ADD SWAP1 DUP2 MSTORE PUSH1 0x20 ADD PUSH0 KECCAK256 PUSH1 0x40 MLOAD DUP1 PUSH1 0x60 ADD PUSH1 0x40 MSTORE SWAP1 DUP2 PUSH0 DUP3 ADD DUP1 SLOAD PUSH2 0x62F SWAP1 PUSH2 0xEC5 JUMP JUMPDEST DUP1 PUSH1 0x1F ADD PUSH1 0x20 DUP1 SWAP2 DIV MUL PUSH1 0x20 ADD PUSH1 0x40 MLOAD SWAP1 DUP2 ADD PUSH1 0x40 MSTORE DUP1 SWAP3 SWAP2 SWAP1 DUP2 DUP2 MSTORE PUSH1 0x20 ADD DUP3 DUP1 SLOAD PUSH2 0x65B SWAP1 PUSH2 0xEC5 JUMP JUMPDEST DUP1 ISZERO PUSH2 0x6A6 JUMPI DUP1 PUSH1 0x1F LT PUSH2 0x67D JUMPI PUSH2 0x100 DUP1 DUP4 SLOAD DIV MUL DUP4 MSTORE SWAP2 PUSH1 0x20 ADD SWAP2 PUSH2 0x6A6 JUMP JUMPDEST DUP3 ADD SWAP2 SWAP1 PUSH0 MSTORE PUSH1 0x20 PUSH0 KECCAK256 SWAP1 JUMPDEST DUP2 SLOAD DUP2 MSTORE SWAP1 PUSH1 0x1 ADD SWAP1 PUSH1 0x20 ADD DUP1 DUP4 GT PUSH2 0x689 JUMPI DUP3 SWAP1 SUB PUSH1 0x1F AND DUP3 ADD SWAP2 JUMPDEST POP POP POP POP POP DUP2 MSTORE PUSH1 0x20 ADD PUSH1 0x1 DUP3 ADD PUSH0 SWAP1 SLOAD SWAP1 PUSH2 0x100 EXP SWAP1 DIV PUSH1 0xFF AND PUSH1 0x2 DUP2 GT ISZERO PUSH2 0x6D3 JUMPI PUSH2 0x6D2 PUSH2 0xD13 JUMP JUMPDEST JUMPDEST PUSH1 0x2 DUP2 GT ISZERO PUSH2 0x6E5 JUMPI PUSH2 0x6E4 PUSH2 0xD13 JUMP JUMPDEST JUMPDEST DUP2 MSTORE PUSH1 0x20 ADD PUSH1 0x1 DUP3 ADD PUSH1 0x1 SWAP1 SLOAD SWAP1 PUSH2 0x100 EXP SWAP1 DIV PUSH1 0xFF AND ISZERO ISZERO ISZERO ISZERO DUP2 MSTORE POP POP SWAP1 POP SWAP1 JUMP JUMPDEST PUSH1 0x60 PUSH0 PUSH0 CALLER PUSH20 0xFFFFFFFFFFFFFFFFFFFFFFFFFFFFFFFFFFFFFFFF AND PUSH20 0xFFFFFFFFFFFFFFFFFFFFFFFFFFFFFFFFFFFFFFFF AND DUP2 MSTORE PUSH1 0x20 ADD SWAP1 DUP2 MSTORE PUSH1 0x20 ADD PUSH0 KECCAK256 PUSH1 0x1 ADD PUSH1 0x1 SWAP1 SLOAD SWAP1 PUSH2 0x100 EXP SWAP1 DIV PUSH1 0xFF AND PUSH2 0x797 JUMPI PUSH1 0x40 MLOAD PUSH32 0x8C379A000000000000000000000000000000000000000000000000000000000 DUP2 MSTORE PUSH1 0x4 ADD PUSH2 0x78E SWAP1 PUSH2 0x1345 JUMP JUMPDEST PUSH1 0x40 MLOAD DUP1 SWAP2 SUB SWAP1 REVERT JUMPDEST PUSH2 0x7EB PUSH0 PUSH0 CALLER PUSH20 0xFFFFFFFFFFFFFFFFFFFFFFFFFFFFFFFFFFFFFFFF AND PUSH20 0xFFFFFFFFFFFFFFFFFFFFFFFFFFFFFFFFFFFFFFFF AND DUP2 MSTORE PUSH1 0x20 ADD SWAP1 DUP2 MSTORE PUSH1 0x20 ADD PUSH0 KECCAK256 PUSH1 0x1 ADD PUSH0 SWAP1 SLOAD SWAP1 PUSH2 0x100 EXP SWAP1 DIV PUSH1 0xFF AND PUSH2 0x979 JUMP JUMPDEST SWAP1 POP SWAP1 JUMP JUMPDEST PUSH0 PUSH1 0x60 PUSH0 PUSH0 CALLER PUSH20 0xFFFFFFFFFFFFFFFFFFFFFFFFFFFFFFFFFFFFFFFF AND PUSH20 0xFFFFFFFFFFFFFFFFFFFFFFFFFFFFFFFFFFFFFFFF AND DUP2 MSTORE PUSH1 0x20 ADD SWAP1 DUP2 MSTORE PUSH1 0x20 ADD PUSH0 KECCAK256 PUSH1 0x1 ADD PUSH1 0x1 SWAP1 SLOAD SWAP1 PUSH2 0x100 EXP SWAP1 DIV PUSH1 0xFF AND PUSH2 0x87F JUMPI PUSH1 0x40 MLOAD PUSH32 0x8C379A000000000000000000000000000000000000000000000000000000000 DUP2 MSTORE PUSH1 0x4 ADD PUSH2 0x876 SWAP1 PUSH2 0x13AD JUMP JUMPDEST PUSH1 0x40 MLOAD DUP1 SWAP2 SUB SWAP1 REVERT JUMPDEST PUSH0 PUSH2 0x8D4 PUSH0 PUSH0 CALLER PUSH20 0xFFFFFFFFFFFFFFFFFFFFFFFFFFFFFFFFFFFFFFFF AND PUSH20 0xFFFFFFFFFFFFFFFFFFFFFFFFFFFFFFFFFFFFFFFF AND DUP2 MSTORE PUSH1 0x20 ADD SWAP1 DUP2 MSTORE PUSH1 0x20 ADD PUSH0 KECCAK256 PUSH1 0x1 ADD PUSH0 SWAP1 SLOAD SWAP1 PUSH2 0x100 EXP SWAP1 DIV PUSH1 0xFF AND PUSH2 0x979 JUMP JUMPDEST SWAP1 POP PUSH1 0x1 DUP2 SWAP3 POP SWAP3 POP POP SWAP1 SWAP2 JUMP JUMPDEST PUSH0 PUSH0 DUP3 PUSH1 0x40 MLOAD PUSH1 0x20 ADD PUSH2 0x8F5 SWAP2 SWAP1 PUSH2 0x1405 JUMP JUMPDEST PUSH1 0x40 MLOAD PUSH1 0x20 DUP2 DUP4 SUB SUB DUP2 MSTORE SWAP1 PUSH1 0x40 MSTORE DUP1 MLOAD SWAP1 PUSH1 0x20 ADD KECCAK256 SWAP1 POP PUSH32 0xE96C7FFEF33869246069EBCB32BC72A59FB488C4893C9EB9B3306DE7BA74F6D8 DUP2 SUB PUSH2 0x93E JUMPI PUSH1 0x1 SWAP2 POP POP PUSH2 0x974 JUMP JUMPDEST PUSH32 0x2FCBA40A1A605ACF57A88F10820DD7F474036E9C73660CE1BAFDBB9004B92DED DUP2 SUB PUSH2 0x96F JUMPI PUSH1 0x2 SWAP2 POP POP PUSH2 0x974 JUMP JUMPDEST PUSH0 SWAP2 POP POP JUMPDEST SWAP2 SWAP1 POP JUMP JUMPDEST PUSH1 0x60 PUSH1 0x1 PUSH1 0x2 DUP2 GT ISZERO PUSH2 0x98F JUMPI PUSH2 0x98E PUSH2 0xD13 JUMP JUMPDEST JUMPDEST DUP3 PUSH1 0x2 DUP2 GT ISZERO PUSH2 0x9A2 JUMPI PUSH2 0x9A1 PUSH2 0xD13 JUMP JUMPDEST JUMPDEST SUB PUSH2 0x9E4 JUMPI PUSH1 0x40 MLOAD DUP1 PUSH1 0x40 ADD PUSH1 0x40 MSTORE DUP1 PUSH1 0x5 DUP2 MSTORE PUSH1 0x20 ADD PUSH32 0x646F6E6F72000000000000000000000000000000000000000000000000000000 DUP2 MSTORE POP SWAP1 POP PUSH2 0xA85 JUMP JUMPDEST PUSH1 0x2 DUP1 DUP2 GT ISZERO PUSH2 0x9F7 JUMPI PUSH2 0x9F6 PUSH2 0xD13 JUMP JUMPDEST JUMPDEST DUP3 PUSH1 0x2 DUP2 GT ISZERO PUSH2 0xA0A JUMPI PUSH2 0xA09 PUSH2 0xD13 JUMP JUMPDEST JUMPDEST SUB PUSH2 0xA4C JUMPI PUSH1 0x40 MLOAD DUP1 PUSH1 0x40 ADD PUSH1 0x40 MSTORE DUP1 PUSH1 0x7 DUP2 MSTORE PUSH1 0x20 ADD PUSH32 0x6368617269747900000000000000000000000000000000000000000000000000 DUP2 MSTORE POP SWAP1 POP PUSH2 0xA85 JUMP JUMPDEST PUSH1 0x40 MLOAD DUP1 PUSH1 0x40 ADD PUSH1 0x40 MSTORE DUP1 PUSH1 0x4 DUP2 MSTORE PUSH1 0x20 ADD PUSH32 0x6E6F6E6500000000000000000000000000000000000000000000000000000000 DUP2 MSTORE POP SWAP1 POP JUMPDEST SWAP2 SWAP1 POP JUMP JUMPDEST PUSH1 0x40 MLOAD DUP1 PUSH1 0x60 ADD PUSH1 0x40 MSTORE DUP1 PUSH1 0x60 DUP2 MSTORE PUSH1 0x20 ADD PUSH0 PUSH1 0x2 DUP2 GT ISZERO PUSH2 0xAAF JUMPI PUSH2 0xAAE PUSH2 0xD13 JUMP JUMPDEST JUMPDEST DUP2 MSTORE PUSH1 0x20 ADD PUSH0 ISZERO ISZERO DUP2 MSTORE POP SWAP1 JUMP JUMPDEST PUSH0 DUP2 ISZERO ISZERO SWAP1 POP SWAP2 SWAP1 POP JUMP JUMPDEST PUSH2 0xAD1 DUP2 PUSH2 0xABD JUMP JUMPDEST DUP3 MSTORE POP POP JUMP JUMPDEST PUSH0 PUSH1 0x20 DUP3 ADD SWAP1 POP PUSH2 0xAEA PUSH0 DUP4 ADD DUP5 PUSH2 0xAC8 JUMP JUMPDEST SWAP3 SWAP2 POP POP JUMP JUMPDEST PUSH0 PUSH1 0x40 MLOAD SWAP1 POP SWAP1 JUMP JUMPDEST PUSH0 PUSH0 REVERT JUMPDEST PUSH0 PUSH0 REVERT JUMPDEST PUSH0 PUSH0 REVERT JUMPDEST PUSH0 PUSH0 REVERT JUMPDEST PUSH0 PUSH1 0x1F NOT PUSH1 0x1F DUP4 ADD AND SWAP1 POP SWAP2 SWAP1 POP JUMP JUMPDEST PUSH32 0x4E487B7100000000000000000000000000000000000000000000000000000000 PUSH0 MSTORE PUSH1 0x41 PUSH1 0x4 MSTORE PUSH1 0x24 PUSH0 REVERT JUMPDEST PUSH2 0xB4F DUP3 PUSH2 0xB09 JUMP JUMPDEST DUP2 ADD DUP2 DUP2 LT PUSH8 0xFFFFFFFFFFFFFFFF DUP3 GT OR ISZERO PUSH2 0xB6E JUMPI PUSH2 0xB6D PUSH2 0xB19 JUMP JUMPDEST JUMPDEST DUP1 PUSH1 0x40 MSTORE POP POP POP JUMP JUMPDEST PUSH0 PUSH2 0xB80 PUSH2 0xAF0 JUMP JUMPDEST SWAP1 POP PUSH2 0xB8C DUP3 DUP3 PUSH2 0xB46 JUMP JUMPDEST SWAP2 SWAP1 POP JUMP JUMPDEST PUSH0 PUSH8 0xFFFFFFFFFFFFFFFF DUP3 GT ISZERO PUSH2 0xBAB JUMPI PUSH2 0xBAA PUSH2 0xB19 JUMP JUMPDEST JUMPDEST PUSH2 0xBB4 DUP3 PUSH2 0xB09 JUMP JUMPDEST SWAP1 POP PUSH1 0x20 DUP2 ADD SWAP1 POP SWAP2 SWAP1 POP JUMP JUMPDEST DUP3 DUP2 DUP4 CALLDATACOPY PUSH0 DUP4 DUP4 ADD MSTORE POP POP POP JUMP JUMPDEST PUSH0 PUSH2 0xBE1 PUSH2 0xBDC DUP5 PUSH2 0xB91 JUMP JUMPDEST PUSH2 0xB77 JUMP JUMPDEST SWAP1 POP DUP3 DUP2 MSTORE PUSH1 0x20 DUP2 ADD DUP5 DUP5 DUP5 ADD GT ISZERO PUSH2 0xBFD JUMPI PUSH2 0xBFC PUSH2 0xB05 JUMP JUMPDEST JUMPDEST PUSH2 0xC08 DUP5 DUP3 DUP6 PUSH2 0xBC1 JUMP JUMPDEST POP SWAP4 SWAP3 POP POP POP JUMP JUMPDEST PUSH0 DUP3 PUSH1 0x1F DUP4 ADD SLT PUSH2 0xC24 JUMPI PUSH2 0xC23 PUSH2 0xB01 JUMP JUMPDEST JUMPDEST DUP2 CALLDATALOAD PUSH2 0xC34 DUP5 DUP3 PUSH1 0x20 DUP7 ADD PUSH2 0xBCF JUMP JUMPDEST SWAP2 POP POP SWAP3 SWAP2 POP POP JUMP JUMPDEST PUSH0 PUSH0 PUSH1 0x40 DUP4 DUP6 SUB SLT ISZERO PUSH2 0xC53 JUMPI PUSH2 0xC52 PUSH2 0xAF9 JUMP JUMPDEST JUMPDEST PUSH0 DUP4 ADD CALLDATALOAD PUSH8 0xFFFFFFFFFFFFFFFF DUP2 GT ISZERO PUSH2 0xC70 JUMPI PUSH2 0xC6F PUSH2 0xAFD JUMP JUMPDEST JUMPDEST PUSH2 0xC7C DUP6 DUP3 DUP7 ADD PUSH2 0xC10 JUMP JUMPDEST SWAP3 POP POP PUSH1 0x20 DUP4 ADD CALLDATALOAD PUSH8 0xFFFFFFFFFFFFFFFF DUP2 GT ISZERO PUSH2 0xC9D JUMPI PUSH2 0xC9C PUSH2 0xAFD JUMP JUMPDEST JUMPDEST PUSH2 0xCA9 DUP6 DUP3 DUP7 ADD PUSH2 0xC10 JUMP JUMPDEST SWAP2 POP POP SWAP3 POP SWAP3 SWAP1 POP JUMP JUMPDEST PUSH0 DUP2 MLOAD SWAP1 POP SWAP2 SWAP1 POP JUMP JUMPDEST PUSH0 DUP3 DUP3 MSTORE PUSH1 0x20 DUP3 ADD SWAP1 POP SWAP3 SWAP2 POP POP JUMP JUMPDEST DUP3 DUP2 DUP4 MCOPY PUSH0 DUP4 DUP4 ADD MSTORE POP POP POP JUMP JUMPDEST PUSH0 PUSH2 0xCE5 DUP3 PUSH2 0xCB3 JUMP JUMPDEST PUSH2 0xCEF DUP2 DUP6 PUSH2 0xCBD JUMP JUMPDEST SWAP4 POP PUSH2 0xCFF DUP2 DUP6 PUSH1 0x20 DUP7 ADD PUSH2 0xCCD JUMP JUMPDEST PUSH2 0xD08 DUP2 PUSH2 0xB09 JUMP JUMPDEST DUP5 ADD SWAP2 POP POP SWAP3 SWAP2 POP POP JUMP JUMPDEST PUSH32 0x4E487B7100000000000000000000000000000000000000000000000000000000 PUSH0 MSTORE PUSH1 0x21 PUSH1 0x4 MSTORE PUSH1 0x24 PUSH0 REVERT JUMPDEST PUSH1 0x3 DUP2 LT PUSH2 0xD51 JUMPI PUSH2 0xD50 PUSH2 0xD13 JUMP JUMPDEST JUMPDEST POP JUMP JUMPDEST PUSH0 DUP2 SWAP1 POP PUSH2 0xD61 DUP3 PUSH2 0xD40 JUMP JUMPDEST SWAP2 SWAP1 POP JUMP JUMPDEST PUSH0 PUSH2 0xD70 DUP3 PUSH2 0xD54 JUMP JUMPDEST SWAP1 POP SWAP2 SWAP1 POP JUMP JUMPDEST PUSH2 0xD80 DUP2 PUSH2 0xD66 JUMP JUMPDEST DUP3 MSTORE POP POP JUMP JUMPDEST PUSH2 0xD8F DUP2 PUSH2 0xABD JUMP JUMPDEST DUP3 MSTORE POP POP JUMP JUMPDEST PUSH0 PUSH1 0x60 DUP4 ADD PUSH0 DUP4 ADD MLOAD DUP5 DUP3 SUB PUSH0 DUP7 ADD MSTORE PUSH2 0xDAF DUP3 DUP3 PUSH2 0xCDB JUMP JUMPDEST SWAP2 POP POP PUSH1 0x20 DUP4 ADD MLOAD PUSH2 0xDC4 PUSH1 0x20 DUP7 ADD DUP3 PUSH2 0xD77 JUMP JUMPDEST POP PUSH1 0x40 DUP4 ADD MLOAD PUSH2 0xDD7 PUSH1 0x40 DUP7 ADD DUP3 PUSH2 0xD86 JUMP JUMPDEST POP DUP1 SWAP2 POP POP SWAP3 SWAP2 POP POP JUMP JUMPDEST PUSH0 PUSH1 0x20 DUP3 ADD SWAP1 POP DUP2 DUP2 SUB PUSH0 DUP4 ADD MSTORE PUSH2 0xDFA DUP2 DUP5 PUSH2 0xD95 JUMP JUMPDEST SWAP1 POP SWAP3 SWAP2 POP POP JUMP JUMPDEST PUSH0 DUP3 DUP3 MSTORE PUSH1 0x20 DUP3 ADD SWAP1 POP SWAP3 SWAP2 POP POP JUMP JUMPDEST PUSH0 PUSH2 0xE1C DUP3 PUSH2 0xCB3 JUMP JUMPDEST PUSH2 0xE26 DUP2 DUP6 PUSH2 0xE02 JUMP JUMPDEST SWAP4 POP PUSH2 0xE36 DUP2 DUP6 PUSH1 0x20 DUP7 ADD PUSH2 0xCCD JUMP JUMPDEST PUSH2 0xE3F DUP2 PUSH2 0xB09 JUMP JUMPDEST DUP5 ADD SWAP2 POP POP SWAP3 SWAP2 POP POP JUMP JUMPDEST PUSH0 PUSH1 0x20 DUP3 ADD SWAP1 POP DUP2 DUP2 SUB PUSH0 DUP4 ADD MSTORE PUSH2 0xE62 DUP2 DUP5 PUSH2 0xE12 JUMP JUMPDEST SWAP1 POP SWAP3 SWAP2 POP POP JUMP JUMPDEST PUSH0 PUSH1 0x40 DUP3 ADD SWAP1 POP PUSH2 0xE7D PUSH0 DUP4 ADD DUP6 PUSH2 0xAC8 JUMP JUMPDEST DUP2 DUP2 SUB PUSH1 0x20 DUP4 ADD MSTORE PUSH2 0xE8F DUP2 DUP5 PUSH2 0xE12 JUMP JUMPDEST SWAP1 POP SWAP4 SWAP3 POP POP POP JUMP JUMPDEST PUSH32 0x4E487B7100000000000000000000000000000000000000000000000000000000 PUSH0 MSTORE PUSH1 0x22 PUSH1 0x4 MSTORE PUSH1 0x24 PUSH0 REVERT JUMPDEST PUSH0 PUSH1 0x2 DUP3 DIV SWAP1 POP PUSH1 0x1 DUP3 AND DUP1 PUSH2 0xEDC JUMPI PUSH1 0x7F DUP3 AND SWAP2 POP JUMPDEST PUSH1 0x20 DUP3 LT DUP2 SUB PUSH2 0xEEF JUMPI PUSH2 0xEEE PUSH2 0xE98 JUMP JUMPDEST JUMPDEST POP SWAP2 SWAP1 POP JUMP JUMPDEST PUSH0 DUP2 SWAP1 POP DUP2 PUSH0 MSTORE PUSH1 0x20 PUSH0 KECCAK256 SWAP1 POP SWAP2 SWAP1 POP JUMP JUMPDEST PUSH0 PUSH1 0x20 PUSH1 0x1F DUP4 ADD DIV SWAP1 POP SWAP2 SWAP1 POP JUMP JUMPDEST PUSH0 DUP3 DUP3 SHL SWAP1 POP SWAP3 SWAP2 POP POP JUMP JUMPDEST PUSH0 PUSH1 0x8 DUP4 MUL PUSH2 0xF51 PUSH32 0xFFFFFFFFFFFFFFFFFFFFFFFFFFFFFFFFFFFFFFFFFFFFFFFFFFFFFFFFFFFFFFFF DUP3 PUSH2 0xF16 JUMP JUMPDEST PUSH2 0xF5B DUP7 DUP4 PUSH2 0xF16 JUMP JUMPDEST SWAP6 POP DUP1 NOT DUP5 AND SWAP4 POP DUP1 DUP7 AND DUP5 OR SWAP3 POP POP POP SWAP4 SWAP3 POP POP POP JUMP JUMPDEST PUSH0 DUP2 SWAP1 POP SWAP2 SWAP1 POP JUMP JUMPDEST PUSH0 DUP2 SWAP1 POP SWAP2 SWAP1 POP JUMP JUMPDEST PUSH0 PUSH2 0xF9F PUSH2 0xF9A PUSH2 0xF95 DUP5 PUSH2 0xF73 JUMP JUMPDEST PUSH2 0xF7C JUMP JUMPDEST PUSH2 0xF73 JUMP JUMPDEST SWAP1 POP SWAP2 SWAP1 POP JUMP JUMPDEST PUSH0 DUP2 SWAP1 POP SWAP2 SWAP1 POP JUMP JUMPDEST PUSH2 0xFB8 DUP4 PUSH2 0xF85 JUMP JUMPDEST PUSH2 0xFCC PUSH2 0xFC4 DUP3 PUSH2 0xFA6 JUMP JUMPDEST DUP5 DUP5 SLOAD PUSH2 0xF22 JUMP JUMPDEST DUP3 SSTORE POP POP POP POP JUMP JUMPDEST PUSH0 PUSH0 SWAP1 POP SWAP1 JUMP JUMPDEST PUSH2 0xFE3 PUSH2 0xFD4 JUMP JUMPDEST PUSH2 0xFEE DUP2 DUP5 DUP5 PUSH2 0xFAF JUMP JUMPDEST POP POP POP JUMP JUMPDEST JUMPDEST DUP2 DUP2 LT ISZERO PUSH2 0x1011 JUMPI PUSH2 0x1006 PUSH0 DUP3 PUSH2 0xFDB JUMP JUMPDEST PUSH1 0x1 DUP2 ADD SWAP1 POP PUSH2 0xFF4 JUMP JUMPDEST POP POP JUMP JUMPDEST PUSH1 0x1F DUP3 GT ISZERO PUSH2 0x1056 JUMPI PUSH2 0x1027 DUP2 PUSH2 0xEF5 JUMP JUMPDEST PUSH2 0x1030 DUP5 PUSH2 0xF07 JUMP JUMPDEST DUP2 ADD PUSH1 0x20 DUP6 LT ISZERO PUSH2 0x103F JUMPI DUP2 SWAP1 POP JUMPDEST PUSH2 0x1053 PUSH2 0x104B DUP6 PUSH2 0xF07 JUMP JUMPDEST DUP4 ADD DUP3 PUSH2 0xFF3 JUMP JUMPDEST POP POP JUMPDEST POP POP POP JUMP JUMPDEST PUSH0 DUP3 DUP3 SHR SWAP1 POP SWAP3 SWAP2 POP POP JUMP JUMPDEST PUSH0 PUSH2 0x1076 PUSH0 NOT DUP5 PUSH1 0x8 MUL PUSH2 0x105B JUMP JUMPDEST NOT DUP1 DUP4 AND SWAP2 POP POP SWAP3 SWAP2 POP POP JUMP JUMPDEST PUSH0 PUSH2 0x108E DUP4 DUP4 PUSH2 0x1067 JUMP JUMPDEST SWAP2 POP DUP3 PUSH1 0x2 MUL DUP3 OR SWAP1 POP SWAP3 SWAP2 POP POP JUMP JUMPDEST PUSH2 0x10A7 DUP3 PUSH2 0xCB3 JUMP JUMPDEST PUSH8 0xFFFFFFFFFFFFFFFF DUP2 GT ISZERO PUSH2 0x10C0 JUMPI PUSH2 0x10BF PUSH2 0xB19 JUMP JUMPDEST JUMPDEST PUSH2 0x10CA DUP3 SLOAD PUSH2 0xEC5 JUMP JUMPDEST PUSH2 0x10D5 DUP3 DUP3 DUP6 PUSH2 0x1015 JUMP JUMPDEST PUSH0 PUSH1 0x20 SWAP1 POP PUSH1 0x1F DUP4 GT PUSH1 0x1 DUP2 EQ PUSH2 0x1106 JUMPI PUSH0 DUP5 ISZERO PUSH2 0x10F4 JUMPI DUP3 DUP8 ADD MLOAD SWAP1 POP JUMPDEST PUSH2 0x10FE DUP6 DUP3 PUSH2 0x1083 JUMP JUMPDEST DUP7 SSTORE POP PUSH2 0x1165 JUMP JUMPDEST PUSH1 0x1F NOT DUP5 AND PUSH2 0x1114 DUP7 PUSH2 0xEF5 JUMP JUMPDEST PUSH0 JUMPDEST DUP3 DUP2 LT ISZERO PUSH2 0x113B JUMPI DUP5 DUP10 ADD MLOAD DUP3 SSTORE PUSH1 0x1 DUP3 ADD SWAP2 POP PUSH1 0x20 DUP6 ADD SWAP5 POP PUSH1 0x20 DUP2 ADD SWAP1 POP PUSH2 0x1116 JUMP JUMPDEST DUP7 DUP4 LT ISZERO PUSH2 0x1158 JUMPI DUP5 DUP10 ADD MLOAD PUSH2 0x1154 PUSH1 0x1F DUP10 AND DUP3 PUSH2 0x1067 JUMP JUMPDEST DUP4 SSTORE POP JUMPDEST PUSH1 0x1 PUSH1 0x2 DUP9 MUL ADD DUP9 SSTORE POP POP POP JUMPDEST POP POP POP POP POP POP JUMP JUMPDEST PUSH2 0x1176 DUP2 PUSH2 0xD66 JUMP JUMPDEST DUP3 MSTORE POP POP JUMP JUMPDEST PUSH0 PUSH1 0x20 DUP3 ADD SWAP1 POP PUSH2 0x118F PUSH0 DUP4 ADD DUP5 PUSH2 0x116D JUMP JUMPDEST SWAP3 SWAP2 POP POP JUMP JUMPDEST PUSH32 0x416C726561647920726567697374657265640000000000000000000000000000 PUSH0 DUP3 ADD MSTORE POP JUMP JUMPDEST PUSH0 PUSH2 0x11C9 PUSH1 0x12 DUP4 PUSH2 0xE02 JUMP JUMPDEST SWAP2 POP PUSH2 0x11D4 DUP3 PUSH2 0x1195 JUMP JUMPDEST PUSH1 0x20 DUP3 ADD SWAP1 POP SWAP2 SWAP1 POP JUMP JUMPDEST PUSH0 PUSH1 0x20 DUP3 ADD SWAP1 POP DUP2 DUP2 SUB PUSH0 DUP4 ADD MSTORE PUSH2 0x11F6 DUP2 PUSH2 0x11BD JUMP JUMPDEST SWAP1 POP SWAP2 SWAP1 POP JUMP JUMPDEST PUSH32 0x496E76616C696420726F6C650000000000000000000000000000000000000000 PUSH0 DUP3 ADD MSTORE POP JUMP JUMPDEST PUSH0 PUSH2 0x1231 PUSH1 0xC DUP4 PUSH2 0xE02 JUMP JUMPDEST SWAP2 POP PUSH2 0x123C DUP3 PUSH2 0x11FD JUMP JUMPDEST PUSH1 0x20 DUP3 ADD SWAP1 POP SWAP2 SWAP1 POP JUMP JUMPDEST PUSH0 PUSH1 0x20 DUP3 ADD SWAP1 POP DUP2 DUP2 SUB PUSH0 DUP4 ADD MSTORE PUSH2 0x125E DUP2 PUSH2 0x1225 JUMP JUMPDEST SWAP1 POP SWAP2 SWAP1 POP JUMP JUMPDEST PUSH0 PUSH1 0x40 DUP3 ADD SWAP1 POP DUP2 DUP2 SUB PUSH0 DUP4 ADD MSTORE PUSH2 0x127D DUP2 DUP6 PUSH2 0xE12 JUMP JUMPDEST SWAP1 POP PUSH2 0x128C PUSH1 0x20 DUP4 ADD DUP5 PUSH2 0x116D JUMP JUMPDEST SWAP4 SWAP3 POP POP POP JUMP JUMPDEST PUSH32 0x4E6F74206C6F6767656420696E00000000000000000000000000000000000000 PUSH0 DUP3 ADD MSTORE POP JUMP JUMPDEST PUSH0 PUSH2 0x12C7 PUSH1 0xD DUP4 PUSH2 0xE02 JUMP JUMPDEST SWAP2 POP PUSH2 0x12D2 DUP3 PUSH2 0x1293 JUMP JUMPDEST PUSH1 0x20 DUP3 ADD SWAP1 POP SWAP2 SWAP1 POP JUMP JUMPDEST PUSH0 PUSH1 0x20 DUP3 ADD SWAP1 POP DUP2 DUP2 SUB PUSH0 DUP4 ADD MSTORE PUSH2 0x12F4 DUP2 PUSH2 0x12BB JUMP JUMPDEST SWAP1 POP SWAP2 SWAP1 POP JUMP JUMPDEST PUSH32 0x4E6F742072656769737465726564000000000000000000000000000000000000 PUSH0 DUP3 ADD MSTORE POP JUMP JUMPDEST PUSH0 PUSH2 0x132F PUSH1 0xE DUP4 PUSH2 0xE02 JUMP JUMPDEST SWAP2 POP PUSH2 0x133A DUP3 PUSH2 0x12FB JUMP JUMPDEST PUSH1 0x20 DUP3 ADD SWAP1 POP SWAP2 SWAP1 POP JUMP JUMPDEST PUSH0 PUSH1 0x20 DUP3 ADD SWAP1 POP DUP2 DUP2 SUB PUSH0 DUP4 ADD MSTORE PUSH2 0x135C DUP2 PUSH2 0x1323 JUMP JUMPDEST SWAP1 POP SWAP2 SWAP1 POP JUMP JUMPDEST PUSH32 0x55736572206E6F74207265676973746572656400000000000000000000000000 PUSH0 DUP3 ADD MSTORE POP JUMP JUMPDEST PUSH0 PUSH2 0x1397 PUSH1 0x13 DUP4 PUSH2 0xE02 JUMP JUMPDEST SWAP2 POP PUSH2 0x13A2 DUP3 PUSH2 0x1363 JUMP JUMPDEST PUSH1 0x20 DUP3 ADD SWAP1 POP SWAP2 SWAP1 POP JUMP JUMPDEST PUSH0 PUSH1 0x20 DUP3 ADD SWAP1 POP DUP2 DUP2 SUB PUSH0 DUP4 ADD MSTORE PUSH2 0x13C4 DUP2 PUSH2 0x138B JUMP JUMPDEST SWAP1 POP SWAP2 SWAP1 POP JUMP JUMPDEST PUSH0 DUP2 SWAP1 POP SWAP3 SWAP2 POP POP JUMP JUMPDEST PUSH0 PUSH2 0x13DF DUP3 PUSH2 0xCB3 JUMP JUMPDEST PUSH2 0x13E9 DUP2 DUP6 PUSH2 0x13CB JUMP JUMPDEST SWAP4 POP PUSH2 0x13F9 DUP2 DUP6 PUSH1 0x20 DUP7 ADD PUSH2 0xCCD JUMP JUMPDEST DUP1 DUP5 ADD SWAP2 POP POP SWAP3 SWAP2 POP POP JUMP JUMPDEST PUSH0 PUSH2 0x1410 DUP3 DUP5 PUSH2 0x13D5 JUMP JUMPDEST SWAP2 POP DUP2 SWAP1 POP SWAP3 SWAP2 POP POP JUMP INVALID LOG2 PUSH5 0x6970667358 0x22 SLT KECCAK256 0xC8 LOG2 0xC3 DUP7 0xB7 DUP12 GT 0xBF PUSH4 0x918F791F 0xDA PUSH26 0xA250527748DA36C01B1FA5206442244D6264736F6C634300081E STOP CALLER "
				},
				"gasEstimates": {
					"creation": {
						"codeDepositCost": "1040200",
						"executionCost": "1078",
						"totalCost": "1041278"
					},
					"external": {
						"getMyDetails()": "infinite",
						"getMyRole()": "infinite",
						"login()": "infinite",
						"logout()": "infinite",
						"register(string,string)": "infinite"
					},
					"internal": {
						"getRoleAsString(enum RoleBasedLogin.Role)": "infinite",
						"getRoleFromString(string memory)": "infinite"
					}
				},
				"methodIdentifiers": {
					"getMyDetails()": "431bbb7e",
					"getMyRole()": "6e3b47fc",
					"login()": "b34e97e8",
					"logout()": "1f3c99c3",
					"register(string,string)": "3ffbd47f"
				}
			},
			"storageLayout": {
				"storage": [
					{
						"astId": 18,
						"contract": "contracts/rolebasedlogin.sol:RoleBasedLogin",
						"label": "users",
						"offset": 0,
						"slot": "0",
						"type": "t_mapping(t_address,t_struct(User)13_storage)"
					}
				],
				"types": {
					"t_address": {
						"encoding": "inplace",
						"label": "address",
						"numberOfBytes": "20"
					},
					"t_bool": {
						"encoding": "inplace",
						"label": "bool",
						"numberOfBytes": "1"
					},
					"t_enum(Role)5": {
						"encoding": "inplace",
						"label": "enum RoleBasedLogin.Role",
						"numberOfBytes": "1"
					},
					"t_mapping(t_address,t_struct(User)13_storage)": {
						"encoding": "mapping",
						"key": "t_address",
						"label": "mapping(address => struct RoleBasedLogin.User)",
						"numberOfBytes": "32",
						"value": "t_struct(User)13_storage"
					},
					"t_string_storage": {
						"encoding": "bytes",
						"label": "string",
						"numberOfBytes": "32"
					},
					"t_struct(User)13_storage": {
						"encoding": "inplace",
						"label": "struct RoleBasedLogin.User",
						"members": [
							{
								"astId": 7,
								"contract": "contracts/rolebasedlogin.sol:RoleBasedLogin",
								"label": "username",
								"offset": 0,
								"slot": "0",
								"type": "t_string_storage"
							},
							{
								"astId": 10,
								"contract": "contracts/rolebasedlogin.sol:RoleBasedLogin",
								"label": "role",
								"offset": 0,
								"slot": "1",
								"type": "t_enum(Role)5"
							},
							{
								"astId": 12,
								"contract": "contracts/rolebasedlogin.sol:RoleBasedLogin",
								"label": "isRegistered",
								"offset": 1,
								"slot": "1",
								"type": "t_bool"
							}
						],
						"numberOfBytes": "64"
					}
				}
			},
			"userdoc": {
				"kind": "user",
				"methods": {
					"getMyRole()": {
						"notice": "PUBLIC: Returns the role of the calling user in string form."
					},
					"login()": {
						"notice": "Simulates login. - Returns `true` and the user's role if registered."
					},
					"register(string,string)": {
						"notice": "Register a new user with a username and a role. - `_username`: display name for the user. - `_role`: must be either \"donor\" or \"collector\"."
					}
				},
				"version": 1
			}
		}
	}
}