{
	"contracts/rolebasedlogin.sol": {
		"RoleBasedLogin": {
			"abi": [
				{
					"anonymous": false,
					"inputs": [
						{
							"indexed": true,
							"internalType": "address",
							"name": "user",
							"type": "address"
						},
						{
							"indexed": false,
							"internalType": "enum RoleBasedLogin.Role",
							"name": "role",
							"type": "uint8"
						}
					],
					"name": "UserLoggedIn",
					"type": "event"
				},
				{
					"anonymous": false,
					"inputs": [
						{
							"indexed": true,
							"internalType": "address",
							"name": "user",
							"type": "address"
						},
						{
							"indexed": false,
							"internalType": "string",
							"name": "username",
							"type": "string"
						},
						{
							"indexed": false,
							"internalType": "enum RoleBasedLogin.Role",
							"name": "role",
							"type": "uint8"
						}
					],
					"name": "UserRegistered",
					"type": "event"
				},
				{
					"inputs": [],
					"name": "getMyRole",
					"outputs": [
						{
							"internalType": "string",
							"name": "",
							"type": "string"
						}
					],
					"stateMutability": "view",
					"type": "function"
				},
				{
					"inputs": [],
					"name": "login",
					"outputs": [
						{
							"internalType": "bool",
							"name": "success",
							"type": "bool"
						},
						{
							"internalType": "string",
							"name": "role",
							"type": "string"
						}
					],
					"stateMutability": "view",
					"type": "function"
				},
				{
					"inputs": [
						{
							"internalType": "string",
							"name": "_username",
							"type": "string"
						},
						{
							"internalType": "string",
							"name": "_role",
							"type": "string"
						}
					],
					"name": "register",
					"outputs": [],
					"stateMutability": "nonpayable",
					"type": "function"
				}
			],
			"devdoc": {
				"kind": "dev",
				"methods": {},
				"version": 1
			},
			"evm": {
				"assembly": "    /* \"contracts/rolebasedlogin.sol\":57:2875  contract RoleBasedLogin {... */\n  mstore(0x40, 0x80)\n  callvalue\n  dup1\n  iszero\n  tag_1\n  jumpi\n  revert(0x00, 0x00)\ntag_1:\n  pop\n  dataSize(sub_0)\n  dup1\n  dataOffset(sub_0)\n  0x00\n  codecopy\n  0x00\n  return\nstop\n\nsub_0: assembly {\n        /* \"contracts/rolebasedlogin.sol\":57:2875  contract RoleBasedLogin {... */\n      mstore(0x40, 0x80)\n      callvalue\n      dup1\n      iszero\n      tag_1\n      jumpi\n      revert(0x00, 0x00)\n    tag_1:\n      pop\n      jumpi(tag_2, lt(calldatasize, 0x04))\n      shr(0xe0, calldataload(0x00))\n      dup1\n      0x3ffbd47f\n      eq\n      tag_3\n      jumpi\n      dup1\n      0x6e3b47fc\n      eq\n      tag_4\n      jumpi\n      dup1\n      0xb34e97e8\n      eq\n      tag_5\n      jumpi\n    tag_2:\n      revert(0x00, 0x00)\n        /* \"contracts/rolebasedlogin.sol\":887:1420  function register(string memory _username, string memory _role) public {... */\n    tag_3:\n      tag_6\n      0x04\n      dup1\n      calldatasize\n      sub\n      dup2\n      add\n      swap1\n      tag_7\n      swap2\n      swap1\n      tag_8\n      jump\t// in\n    tag_7:\n      tag_9\n      jump\t// in\n    tag_6:\n      stop\n        /* \"contracts/rolebasedlogin.sol\":2686:2873  function getMyRole() public view returns (string memory) {... */\n    tag_4:\n      tag_10\n      tag_11\n      jump\t// in\n    tag_10:\n      mload(0x40)\n      tag_12\n      swap2\n      swap1\n      tag_13\n      jump\t// in\n    tag_12:\n      mload(0x40)\n      dup1\n      swap2\n      sub\n      swap1\n      return\n        /* \"contracts/rolebasedlogin.sol\":1525:1829  function login() public view returns (bool success, string memory role) {... */\n    tag_5:\n      tag_14\n      tag_15\n      jump\t// in\n    tag_14:\n      mload(0x40)\n      tag_16\n      swap3\n      swap2\n      swap1\n      tag_17\n      jump\t// in\n    tag_16:\n      mload(0x40)\n      dup1\n      swap2\n      sub\n      swap1\n      return\n        /* \"contracts/rolebasedlogin.sol\":887:1420  function register(string memory _username, string memory _role) public {... */\n    tag_9:\n        /* \"contracts/rolebasedlogin.sol\":977:982  users */\n      0x00\n        /* \"contracts/rolebasedlogin.sol\":977:994  users[msg.sender] */\n      0x00\n        /* \"contracts/rolebasedlogin.sol\":983:993  msg.sender */\n      caller\n        /* \"contracts/rolebasedlogin.sol\":977:994  users[msg.sender] */\n      0xffffffffffffffffffffffffffffffffffffffff\n      and\n      0xffffffffffffffffffffffffffffffffffffffff\n      and\n      dup2\n      mstore\n      0x20\n      add\n      swap1\n      dup2\n      mstore\n      0x20\n      add\n      0x00\n      keccak256\n        /* \"contracts/rolebasedlogin.sol\":977:1007  users[msg.sender].isRegistered */\n      0x01\n      add\n      0x01\n      swap1\n      sload\n      swap1\n      0x0100\n      exp\n      swap1\n      div\n      0xff\n      and\n        /* \"contracts/rolebasedlogin.sol\":976:1007  !users[msg.sender].isRegistered */\n      iszero\n        /* \"contracts/rolebasedlogin.sol\":968:1030  require(!users[msg.sender].isRegistered, \"Already registered\") */\n      tag_19\n      jumpi\n      mload(0x40)\n      0x08c379a000000000000000000000000000000000000000000000000000000000\n      dup2\n      mstore\n      0x04\n      add\n      tag_20\n      swap1\n      tag_21\n      jump\t// in\n    tag_20:\n      mload(0x40)\n      dup1\n      swap2\n      sub\n      swap1\n      revert\n    tag_19:\n        /* \"contracts/rolebasedlogin.sol\":1097:1114  Role selectedRole */\n      0x00\n        /* \"contracts/rolebasedlogin.sol\":1117:1141  getRoleFromString(_role) */\n      tag_22\n        /* \"contracts/rolebasedlogin.sol\":1135:1140  _role */\n      dup3\n        /* \"contracts/rolebasedlogin.sol\":1117:1134  getRoleFromString */\n      tag_23\n        /* \"contracts/rolebasedlogin.sol\":1117:1141  getRoleFromString(_role) */\n      jump\t// in\n    tag_22:\n        /* \"contracts/rolebasedlogin.sol\":1097:1141  Role selectedRole = getRoleFromString(_role) */\n      swap1\n      pop\n        /* \"contracts/rolebasedlogin.sol\":1175:1184  Role.None */\n      0x00\n        /* \"contracts/rolebasedlogin.sol\":1159:1184  selectedRole != Role.None */\n      0x02\n      dup2\n      gt\n      iszero\n      tag_24\n      jumpi\n      tag_25\n      tag_26\n      jump\t// in\n    tag_25:\n    tag_24:\n        /* \"contracts/rolebasedlogin.sol\":1159:1171  selectedRole */\n      dup2\n        /* \"contracts/rolebasedlogin.sol\":1159:1184  selectedRole != Role.None */\n      0x02\n      dup2\n      gt\n      iszero\n      tag_27\n      jumpi\n      tag_28\n      tag_26\n      jump\t// in\n    tag_28:\n    tag_27:\n      sub\n        /* \"contracts/rolebasedlogin.sol\":1151:1201  require(selectedRole != Role.None, \"Invalid role\") */\n      tag_29\n      jumpi\n      mload(0x40)\n      0x08c379a000000000000000000000000000000000000000000000000000000000\n      dup2\n      mstore\n      0x04\n      add\n      tag_30\n      swap1\n      tag_31\n      jump\t// in\n    tag_30:\n      mload(0x40)\n      dup1\n      swap2\n      sub\n      swap1\n      revert\n    tag_29:\n        /* \"contracts/rolebasedlogin.sol\":1258:1293  User(_username, selectedRole, true) */\n      mload(0x40)\n      dup1\n      0x60\n      add\n      0x40\n      mstore\n      dup1\n        /* \"contracts/rolebasedlogin.sol\":1263:1272  _username */\n      dup5\n        /* \"contracts/rolebasedlogin.sol\":1258:1293  User(_username, selectedRole, true) */\n      dup2\n      mstore\n      0x20\n      add\n        /* \"contracts/rolebasedlogin.sol\":1274:1286  selectedRole */\n      dup3\n        /* \"contracts/rolebasedlogin.sol\":1258:1293  User(_username, selectedRole, true) */\n      0x02\n      dup2\n      gt\n      iszero\n      tag_32\n      jumpi\n      tag_33\n      tag_26\n      jump\t// in\n    tag_33:\n    tag_32:\n      dup2\n      mstore\n      0x20\n      add\n        /* \"contracts/rolebasedlogin.sol\":1288:1292  true */\n      0x01\n        /* \"contracts/rolebasedlogin.sol\":1258:1293  User(_username, selectedRole, true) */\n      iszero\n      iszero\n      dup2\n      mstore\n      pop\n        /* \"contracts/rolebasedlogin.sol\":1238:1243  users */\n      0x00\n        /* \"contracts/rolebasedlogin.sol\":1238:1255  users[msg.sender] */\n      0x00\n        /* \"contracts/rolebasedlogin.sol\":1244:1254  msg.sender */\n      caller\n        /* \"contracts/rolebasedlogin.sol\":1238:1255  users[msg.sender] */\n      0xffffffffffffffffffffffffffffffffffffffff\n      and\n      0xffffffffffffffffffffffffffffffffffffffff\n      and\n      dup2\n      mstore\n      0x20\n      add\n      swap1\n      dup2\n      mstore\n      0x20\n      add\n      0x00\n      keccak256\n        /* \"contracts/rolebasedlogin.sol\":1238:1293  users[msg.sender] = User(_username, selectedRole, true) */\n      0x00\n      dup3\n      add\n      mload\n      dup2\n      0x00\n      add\n      swap1\n      dup2\n      tag_34\n      swap2\n      swap1\n      tag_35\n      jump\t// in\n    tag_34:\n      pop\n      0x20\n      dup3\n      add\n      mload\n      dup2\n      0x01\n      add\n      exp(0x0100, 0x00)\n      dup2\n      sload\n      dup2\n      0xff\n      mul\n      not\n      and\n      swap1\n      dup4\n      0x02\n      dup2\n      gt\n      iszero\n      tag_36\n      jumpi\n      tag_37\n      tag_26\n      jump\t// in\n    tag_37:\n    tag_36:\n      mul\n      or\n      swap1\n      sstore\n      pop\n      0x40\n      dup3\n      add\n      mload\n      dup2\n      0x01\n      add\n      exp(0x0100, 0x01)\n      dup2\n      sload\n      dup2\n      0xff\n      mul\n      not\n      and\n      swap1\n      dup4\n      iszero\n      iszero\n      mul\n      or\n      swap1\n      sstore\n      pop\n      swap1\n      pop\n      pop\n        /* \"contracts/rolebasedlogin.sol\":1377:1387  msg.sender */\n      caller\n        /* \"contracts/rolebasedlogin.sol\":1362:1413  UserRegistered(msg.sender, _username, selectedRole) */\n      0xffffffffffffffffffffffffffffffffffffffff\n      and\n      0xc2e5d5da58bd71d1a2d14cdef02a4256d971b728088f8190d067ccfbae3bd73e\n        /* \"contracts/rolebasedlogin.sol\":1389:1398  _username */\n      dup5\n        /* \"contracts/rolebasedlogin.sol\":1400:1412  selectedRole */\n      dup4\n        /* \"contracts/rolebasedlogin.sol\":1362:1413  UserRegistered(msg.sender, _username, selectedRole) */\n      mload(0x40)\n      tag_38\n      swap3\n      swap2\n      swap1\n      tag_39\n      jump\t// in\n    tag_38:\n      mload(0x40)\n      dup1\n      swap2\n      sub\n      swap1\n      log2\n        /* \"contracts/rolebasedlogin.sol\":958:1420  {... */\n      pop\n        /* \"contracts/rolebasedlogin.sol\":887:1420  function register(string memory _username, string memory _role) public {... */\n      pop\n      pop\n      jump\t// out\n        /* \"contracts/rolebasedlogin.sol\":2686:2873  function getMyRole() public view returns (string memory) {... */\n    tag_11:\n        /* \"contracts/rolebasedlogin.sol\":2728:2741  string memory */\n      0x60\n        /* \"contracts/rolebasedlogin.sol\":2761:2766  users */\n      0x00\n        /* \"contracts/rolebasedlogin.sol\":2761:2778  users[msg.sender] */\n      0x00\n        /* \"contracts/rolebasedlogin.sol\":2767:2777  msg.sender */\n      caller\n        /* \"contracts/rolebasedlogin.sol\":2761:2778  users[msg.sender] */\n      0xffffffffffffffffffffffffffffffffffffffff\n      and\n      0xffffffffffffffffffffffffffffffffffffffff\n      and\n      dup2\n      mstore\n      0x20\n      add\n      swap1\n      dup2\n      mstore\n      0x20\n      add\n      0x00\n      keccak256\n        /* \"contracts/rolebasedlogin.sol\":2761:2791  users[msg.sender].isRegistered */\n      0x01\n      add\n      0x01\n      swap1\n      sload\n      swap1\n      0x0100\n      exp\n      swap1\n      div\n      0xff\n      and\n        /* \"contracts/rolebasedlogin.sol\":2753:2810  require(users[msg.sender].isRegistered, \"Not registered\") */\n      tag_41\n      jumpi\n      mload(0x40)\n      0x08c379a000000000000000000000000000000000000000000000000000000000\n      dup2\n      mstore\n      0x04\n      add\n      tag_42\n      swap1\n      tag_43\n      jump\t// in\n    tag_42:\n      mload(0x40)\n      dup1\n      swap2\n      sub\n      swap1\n      revert\n    tag_41:\n        /* \"contracts/rolebasedlogin.sol\":2827:2866  getRoleAsString(users[msg.sender].role) */\n      tag_44\n        /* \"contracts/rolebasedlogin.sol\":2843:2848  users */\n      0x00\n        /* \"contracts/rolebasedlogin.sol\":2843:2860  users[msg.sender] */\n      0x00\n        /* \"contracts/rolebasedlogin.sol\":2849:2859  msg.sender */\n      caller\n        /* \"contracts/rolebasedlogin.sol\":2843:2860  users[msg.sender] */\n      0xffffffffffffffffffffffffffffffffffffffff\n      and\n      0xffffffffffffffffffffffffffffffffffffffff\n      and\n      dup2\n      mstore\n      0x20\n      add\n      swap1\n      dup2\n      mstore\n      0x20\n      add\n      0x00\n      keccak256\n        /* \"contracts/rolebasedlogin.sol\":2843:2865  users[msg.sender].role */\n      0x01\n      add\n      0x00\n      swap1\n      sload\n      swap1\n      0x0100\n      exp\n      swap1\n      div\n      0xff\n      and\n        /* \"contracts/rolebasedlogin.sol\":2827:2842  getRoleAsString */\n      tag_45\n        /* \"contracts/rolebasedlogin.sol\":2827:2866  getRoleAsString(users[msg.sender].role) */\n      jump\t// in\n    tag_44:\n        /* \"contracts/rolebasedlogin.sol\":2820:2866  return getRoleAsString(users[msg.sender].role) */\n      swap1\n      pop\n        /* \"contracts/rolebasedlogin.sol\":2686:2873  function getMyRole() public view returns (string memory) {... */\n      swap1\n      jump\t// out\n        /* \"contracts/rolebasedlogin.sol\":1525:1829  function login() public view returns (bool success, string memory role) {... */\n    tag_15:\n        /* \"contracts/rolebasedlogin.sol\":1563:1575  bool success */\n      0x00\n        /* \"contracts/rolebasedlogin.sol\":1577:1595  string memory role */\n      0x60\n        /* \"contracts/rolebasedlogin.sol\":1615:1620  users */\n      0x00\n        /* \"contracts/rolebasedlogin.sol\":1615:1632  users[msg.sender] */\n      0x00\n        /* \"contracts/rolebasedlogin.sol\":1621:1631  msg.sender */\n      caller\n        /* \"contracts/rolebasedlogin.sol\":1615:1632  users[msg.sender] */\n      0xffffffffffffffffffffffffffffffffffffffff\n      and\n      0xffffffffffffffffffffffffffffffffffffffff\n      and\n      dup2\n      mstore\n      0x20\n      add\n      swap1\n      dup2\n      mstore\n      0x20\n      add\n      0x00\n      keccak256\n        /* \"contracts/rolebasedlogin.sol\":1615:1645  users[msg.sender].isRegistered */\n      0x01\n      add\n      0x01\n      swap1\n      sload\n      swap1\n      0x0100\n      exp\n      swap1\n      div\n      0xff\n      and\n        /* \"contracts/rolebasedlogin.sol\":1607:1669  require(users[msg.sender].isRegistered, \"User not registered\") */\n      tag_47\n      jumpi\n      mload(0x40)\n      0x08c379a000000000000000000000000000000000000000000000000000000000\n      dup2\n      mstore\n      0x04\n      add\n      tag_48\n      swap1\n      tag_49\n      jump\t// in\n    tag_48:\n      mload(0x40)\n      dup1\n      swap2\n      sub\n      swap1\n      revert\n    tag_47:\n        /* \"contracts/rolebasedlogin.sol\":1724:1746  string memory userRole */\n      0x00\n        /* \"contracts/rolebasedlogin.sol\":1749:1788  getRoleAsString(users[msg.sender].role) */\n      tag_50\n        /* \"contracts/rolebasedlogin.sol\":1765:1770  users */\n      0x00\n        /* \"contracts/rolebasedlogin.sol\":1765:1782  users[msg.sender] */\n      0x00\n        /* \"contracts/rolebasedlogin.sol\":1771:1781  msg.sender */\n      caller\n        /* \"contracts/rolebasedlogin.sol\":1765:1782  users[msg.sender] */\n      0xffffffffffffffffffffffffffffffffffffffff\n      and\n      0xffffffffffffffffffffffffffffffffffffffff\n      and\n      dup2\n      mstore\n      0x20\n      add\n      swap1\n      dup2\n      mstore\n      0x20\n      add\n      0x00\n      keccak256\n        /* \"contracts/rolebasedlogin.sol\":1765:1787  users[msg.sender].role */\n      0x01\n      add\n      0x00\n      swap1\n      sload\n      swap1\n      0x0100\n      exp\n      swap1\n      div\n      0xff\n      and\n        /* \"contracts/rolebasedlogin.sol\":1749:1764  getRoleAsString */\n      tag_45\n        /* \"contracts/rolebasedlogin.sol\":1749:1788  getRoleAsString(users[msg.sender].role) */\n      jump\t// in\n    tag_50:\n        /* \"contracts/rolebasedlogin.sol\":1724:1788  string memory userRole = getRoleAsString(users[msg.sender].role) */\n      swap1\n      pop\n        /* \"contracts/rolebasedlogin.sol\":1807:1811  true */\n      0x01\n        /* \"contracts/rolebasedlogin.sol\":1813:1821  userRole */\n      dup2\n        /* \"contracts/rolebasedlogin.sol\":1799:1822  return (true, userRole) */\n      swap3\n      pop\n      swap3\n      pop\n      pop\n        /* \"contracts/rolebasedlogin.sol\":1525:1829  function login() public view returns (bool success, string memory role) {... */\n      swap1\n      swap2\n      jump\t// out\n        /* \"contracts/rolebasedlogin.sol\":1948:2303  function getRoleFromString(string memory _role) internal pure returns (Role) {... */\n    tag_23:\n        /* \"contracts/rolebasedlogin.sol\":2019:2023  Role */\n      0x00\n        /* \"contracts/rolebasedlogin.sol\":2035:2051  bytes32 roleHash */\n      0x00\n        /* \"contracts/rolebasedlogin.sol\":2081:2086  _role */\n      dup3\n        /* \"contracts/rolebasedlogin.sol\":2064:2087  abi.encodePacked(_role) */\n      add(0x20, mload(0x40))\n      tag_52\n      swap2\n      swap1\n      tag_53\n      jump\t// in\n    tag_52:\n      mload(0x40)\n      0x20\n      dup2\n      dup4\n      sub\n      sub\n      dup2\n      mstore\n      swap1\n      0x40\n      mstore\n        /* \"contracts/rolebasedlogin.sol\":2054:2088  keccak256(abi.encodePacked(_role)) */\n      dup1\n      mload\n      swap1\n      0x20\n      add\n      keccak256\n        /* \"contracts/rolebasedlogin.sol\":2035:2088  bytes32 roleHash = keccak256(abi.encodePacked(_role)) */\n      swap1\n      pop\n        /* \"contracts/rolebasedlogin.sol\":2123:2141  keccak256(\"donor\") */\n      0xe96c7ffef33869246069ebcb32bc72a59fb488c4893c9eb9b3306de7ba74f6d8\n        /* \"contracts/rolebasedlogin.sol\":2111:2119  roleHash */\n      dup2\n        /* \"contracts/rolebasedlogin.sol\":2111:2141  roleHash == keccak256(\"donor\") */\n      sub\n        /* \"contracts/rolebasedlogin.sol\":2107:2160  if (roleHash == keccak256(\"donor\")) return Role.Donor */\n      tag_54\n      jumpi\n        /* \"contracts/rolebasedlogin.sol\":2150:2160  Role.Donor */\n      0x01\n        /* \"contracts/rolebasedlogin.sol\":2143:2160  return Role.Donor */\n      swap2\n      pop\n      pop\n      jump(tag_51)\n        /* \"contracts/rolebasedlogin.sol\":2107:2160  if (roleHash == keccak256(\"donor\")) return Role.Donor */\n    tag_54:\n        /* \"contracts/rolebasedlogin.sol\":2186:2208  keccak256(\"collector\") */\n      0x57cfa32382416828aee86644cafefdbb1cde02d7764467b9d6062b5a1fd2b5a4\n        /* \"contracts/rolebasedlogin.sol\":2174:2182  roleHash */\n      dup2\n        /* \"contracts/rolebasedlogin.sol\":2174:2208  roleHash == keccak256(\"collector\") */\n      sub\n        /* \"contracts/rolebasedlogin.sol\":2170:2231  if (roleHash == keccak256(\"collector\")) return Role.Collector */\n      tag_55\n      jumpi\n        /* \"contracts/rolebasedlogin.sol\":2217:2231  Role.Collector */\n      0x02\n        /* \"contracts/rolebasedlogin.sol\":2210:2231  return Role.Collector */\n      swap2\n      pop\n      pop\n      jump(tag_51)\n        /* \"contracts/rolebasedlogin.sol\":2170:2231  if (roleHash == keccak256(\"collector\")) return Role.Collector */\n    tag_55:\n        /* \"contracts/rolebasedlogin.sol\":2249:2258  Role.None */\n      0x00\n        /* \"contracts/rolebasedlogin.sol\":2242:2258  return Role.None */\n      swap2\n      pop\n      pop\n        /* \"contracts/rolebasedlogin.sol\":1948:2303  function getRoleFromString(string memory _role) internal pure returns (Role) {... */\n    tag_51:\n      swap2\n      swap1\n      pop\n      jump\t// out\n        /* \"contracts/rolebasedlogin.sol\":2385:2596  function getRoleAsString(Role _role) internal pure returns (string memory) {... */\n    tag_45:\n        /* \"contracts/rolebasedlogin.sol\":2445:2458  string memory */\n      0x60\n        /* \"contracts/rolebasedlogin.sol\":2483:2493  Role.Donor */\n      0x01\n        /* \"contracts/rolebasedlogin.sol\":2474:2493  _role == Role.Donor */\n      0x02\n      dup2\n      gt\n      iszero\n      tag_57\n      jumpi\n      tag_58\n      tag_26\n      jump\t// in\n    tag_58:\n    tag_57:\n        /* \"contracts/rolebasedlogin.sol\":2474:2479  _role */\n      dup3\n        /* \"contracts/rolebasedlogin.sol\":2474:2493  _role == Role.Donor */\n      0x02\n      dup2\n      gt\n      iszero\n      tag_59\n      jumpi\n      tag_60\n      tag_26\n      jump\t// in\n    tag_60:\n    tag_59:\n      sub\n        /* \"contracts/rolebasedlogin.sol\":2470:2509  if (_role == Role.Donor) return \"donor\" */\n      tag_61\n      jumpi\n        /* \"contracts/rolebasedlogin.sol\":2495:2509  return \"donor\" */\n      mload(0x40)\n      dup1\n      0x40\n      add\n      0x40\n      mstore\n      dup1\n      0x05\n      dup2\n      mstore\n      0x20\n      add\n      0x646f6e6f72000000000000000000000000000000000000000000000000000000\n      dup2\n      mstore\n      pop\n      swap1\n      pop\n      jump(tag_56)\n        /* \"contracts/rolebasedlogin.sol\":2470:2509  if (_role == Role.Donor) return \"donor\" */\n    tag_61:\n        /* \"contracts/rolebasedlogin.sol\":2532:2546  Role.Collector */\n      0x02\n        /* \"contracts/rolebasedlogin.sol\":2523:2546  _role == Role.Collector */\n      dup1\n      dup2\n      gt\n      iszero\n      tag_62\n      jumpi\n      tag_63\n      tag_26\n      jump\t// in\n    tag_63:\n    tag_62:\n        /* \"contracts/rolebasedlogin.sol\":2523:2528  _role */\n      dup3\n        /* \"contracts/rolebasedlogin.sol\":2523:2546  _role == Role.Collector */\n      0x02\n      dup2\n      gt\n      iszero\n      tag_64\n      jumpi\n      tag_65\n      tag_26\n      jump\t// in\n    tag_65:\n    tag_64:\n      sub\n        /* \"contracts/rolebasedlogin.sol\":2519:2566  if (_role == Role.Collector) return \"collector\" */\n      tag_66\n      jumpi\n        /* \"contracts/rolebasedlogin.sol\":2548:2566  return \"collector\" */\n      mload(0x40)\n      dup1\n      0x40\n      add\n      0x40\n      mstore\n      dup1\n      0x09\n      dup2\n      mstore\n      0x20\n      add\n      0x636f6c6c6563746f720000000000000000000000000000000000000000000000\n      dup2\n      mstore\n      pop\n      swap1\n      pop\n      jump(tag_56)\n        /* \"contracts/rolebasedlogin.sol\":2519:2566  if (_role == Role.Collector) return \"collector\" */\n    tag_66:\n        /* \"contracts/rolebasedlogin.sol\":2576:2589  return \"none\" */\n      mload(0x40)\n      dup1\n      0x40\n      add\n      0x40\n      mstore\n      dup1\n      0x04\n      dup2\n      mstore\n      0x20\n      add\n      0x6e6f6e6500000000000000000000000000000000000000000000000000000000\n      dup2\n      mstore\n      pop\n      swap1\n      pop\n        /* \"contracts/rolebasedlogin.sol\":2385:2596  function getRoleAsString(Role _role) internal pure returns (string memory) {... */\n    tag_56:\n      swap2\n      swap1\n      pop\n      jump\t// out\n        /* \"#utility.yul\":7:82   */\n    tag_67:\n        /* \"#utility.yul\":40:46   */\n      0x00\n        /* \"#utility.yul\":73:75   */\n      0x40\n        /* \"#utility.yul\":67:76   */\n      mload\n        /* \"#utility.yul\":57:76   */\n      swap1\n      pop\n        /* \"#utility.yul\":7:82   */\n      swap1\n      jump\t// out\n        /* \"#utility.yul\":88:205   */\n    tag_68:\n        /* \"#utility.yul\":197:198   */\n      0x00\n        /* \"#utility.yul\":194:195   */\n      0x00\n        /* \"#utility.yul\":187:199   */\n      revert\n        /* \"#utility.yul\":211:328   */\n    tag_69:\n        /* \"#utility.yul\":320:321   */\n      0x00\n        /* \"#utility.yul\":317:318   */\n      0x00\n        /* \"#utility.yul\":310:322   */\n      revert\n        /* \"#utility.yul\":334:451   */\n    tag_70:\n        /* \"#utility.yul\":443:444   */\n      0x00\n        /* \"#utility.yul\":440:441   */\n      0x00\n        /* \"#utility.yul\":433:445   */\n      revert\n        /* \"#utility.yul\":457:574   */\n    tag_71:\n        /* \"#utility.yul\":566:567   */\n      0x00\n        /* \"#utility.yul\":563:564   */\n      0x00\n        /* \"#utility.yul\":556:568   */\n      revert\n        /* \"#utility.yul\":580:682   */\n    tag_72:\n        /* \"#utility.yul\":621:627   */\n      0x00\n        /* \"#utility.yul\":672:674   */\n      0x1f\n        /* \"#utility.yul\":668:675   */\n      not\n        /* \"#utility.yul\":663:665   */\n      0x1f\n        /* \"#utility.yul\":656:661   */\n      dup4\n        /* \"#utility.yul\":652:666   */\n      add\n        /* \"#utility.yul\":648:676   */\n      and\n        /* \"#utility.yul\":638:676   */\n      swap1\n      pop\n        /* \"#utility.yul\":580:682   */\n      swap2\n      swap1\n      pop\n      jump\t// out\n        /* \"#utility.yul\":688:868   */\n    tag_73:\n        /* \"#utility.yul\":736:813   */\n      0x4e487b7100000000000000000000000000000000000000000000000000000000\n        /* \"#utility.yul\":733:734   */\n      0x00\n        /* \"#utility.yul\":726:814   */\n      mstore\n        /* \"#utility.yul\":833:837   */\n      0x41\n        /* \"#utility.yul\":830:831   */\n      0x04\n        /* \"#utility.yul\":823:838   */\n      mstore\n        /* \"#utility.yul\":857:861   */\n      0x24\n        /* \"#utility.yul\":854:855   */\n      0x00\n        /* \"#utility.yul\":847:862   */\n      revert\n        /* \"#utility.yul\":874:1155   */\n    tag_74:\n        /* \"#utility.yul\":957:984   */\n      tag_127\n        /* \"#utility.yul\":979:983   */\n      dup3\n        /* \"#utility.yul\":957:984   */\n      tag_72\n      jump\t// in\n    tag_127:\n        /* \"#utility.yul\":949:955   */\n      dup2\n        /* \"#utility.yul\":945:985   */\n      add\n        /* \"#utility.yul\":1087:1093   */\n      dup2\n        /* \"#utility.yul\":1075:1085   */\n      dup2\n        /* \"#utility.yul\":1072:1094   */\n      lt\n        /* \"#utility.yul\":1051:1069   */\n      0xffffffffffffffff\n        /* \"#utility.yul\":1039:1049   */\n      dup3\n        /* \"#utility.yul\":1036:1070   */\n      gt\n        /* \"#utility.yul\":1033:1095   */\n      or\n        /* \"#utility.yul\":1030:1118   */\n      iszero\n      tag_128\n      jumpi\n        /* \"#utility.yul\":1098:1116   */\n      tag_129\n      tag_73\n      jump\t// in\n    tag_129:\n        /* \"#utility.yul\":1030:1118   */\n    tag_128:\n        /* \"#utility.yul\":1138:1148   */\n      dup1\n        /* \"#utility.yul\":1134:1136   */\n      0x40\n        /* \"#utility.yul\":1127:1149   */\n      mstore\n        /* \"#utility.yul\":917:1155   */\n      pop\n        /* \"#utility.yul\":874:1155   */\n      pop\n      pop\n      jump\t// out\n        /* \"#utility.yul\":1161:1290   */\n    tag_75:\n        /* \"#utility.yul\":1195:1201   */\n      0x00\n        /* \"#utility.yul\":1222:1242   */\n      tag_131\n      tag_67\n      jump\t// in\n    tag_131:\n        /* \"#utility.yul\":1212:1242   */\n      swap1\n      pop\n        /* \"#utility.yul\":1251:1284   */\n      tag_132\n        /* \"#utility.yul\":1279:1283   */\n      dup3\n        /* \"#utility.yul\":1271:1277   */\n      dup3\n        /* \"#utility.yul\":1251:1284   */\n      tag_74\n      jump\t// in\n    tag_132:\n        /* \"#utility.yul\":1161:1290   */\n      swap2\n      swap1\n      pop\n      jump\t// out\n        /* \"#utility.yul\":1296:1604   */\n    tag_76:\n        /* \"#utility.yul\":1358:1362   */\n      0x00\n        /* \"#utility.yul\":1448:1466   */\n      0xffffffffffffffff\n        /* \"#utility.yul\":1440:1446   */\n      dup3\n        /* \"#utility.yul\":1437:1467   */\n      gt\n        /* \"#utility.yul\":1434:1490   */\n      iszero\n      tag_134\n      jumpi\n        /* \"#utility.yul\":1470:1488   */\n      tag_135\n      tag_73\n      jump\t// in\n    tag_135:\n        /* \"#utility.yul\":1434:1490   */\n    tag_134:\n        /* \"#utility.yul\":1508:1537   */\n      tag_136\n        /* \"#utility.yul\":1530:1536   */\n      dup3\n        /* \"#utility.yul\":1508:1537   */\n      tag_72\n      jump\t// in\n    tag_136:\n        /* \"#utility.yul\":1500:1537   */\n      swap1\n      pop\n        /* \"#utility.yul\":1592:1596   */\n      0x20\n        /* \"#utility.yul\":1586:1590   */\n      dup2\n        /* \"#utility.yul\":1582:1597   */\n      add\n        /* \"#utility.yul\":1574:1597   */\n      swap1\n      pop\n        /* \"#utility.yul\":1296:1604   */\n      swap2\n      swap1\n      pop\n      jump\t// out\n        /* \"#utility.yul\":1610:1758   */\n    tag_77:\n        /* \"#utility.yul\":1708:1714   */\n      dup3\n        /* \"#utility.yul\":1703:1706   */\n      dup2\n        /* \"#utility.yul\":1698:1701   */\n      dup4\n        /* \"#utility.yul\":1685:1715   */\n      calldatacopy\n        /* \"#utility.yul\":1749:1750   */\n      0x00\n        /* \"#utility.yul\":1740:1746   */\n      dup4\n        /* \"#utility.yul\":1735:1738   */\n      dup4\n        /* \"#utility.yul\":1731:1747   */\n      add\n        /* \"#utility.yul\":1724:1751   */\n      mstore\n        /* \"#utility.yul\":1610:1758   */\n      pop\n      pop\n      pop\n      jump\t// out\n        /* \"#utility.yul\":1764:2189   */\n    tag_78:\n        /* \"#utility.yul\":1842:1847   */\n      0x00\n        /* \"#utility.yul\":1867:1933   */\n      tag_139\n        /* \"#utility.yul\":1883:1932   */\n      tag_140\n        /* \"#utility.yul\":1925:1931   */\n      dup5\n        /* \"#utility.yul\":1883:1932   */\n      tag_76\n      jump\t// in\n    tag_140:\n        /* \"#utility.yul\":1867:1933   */\n      tag_75\n      jump\t// in\n    tag_139:\n        /* \"#utility.yul\":1858:1933   */\n      swap1\n      pop\n        /* \"#utility.yul\":1956:1962   */\n      dup3\n        /* \"#utility.yul\":1949:1954   */\n      dup2\n        /* \"#utility.yul\":1942:1963   */\n      mstore\n        /* \"#utility.yul\":1994:1998   */\n      0x20\n        /* \"#utility.yul\":1987:1992   */\n      dup2\n        /* \"#utility.yul\":1983:1999   */\n      add\n        /* \"#utility.yul\":2032:2035   */\n      dup5\n        /* \"#utility.yul\":2023:2029   */\n      dup5\n        /* \"#utility.yul\":2018:2021   */\n      dup5\n        /* \"#utility.yul\":2014:2030   */\n      add\n        /* \"#utility.yul\":2011:2036   */\n      gt\n        /* \"#utility.yul\":2008:2120   */\n      iszero\n      tag_141\n      jumpi\n        /* \"#utility.yul\":2039:2118   */\n      tag_142\n      tag_71\n      jump\t// in\n    tag_142:\n        /* \"#utility.yul\":2008:2120   */\n    tag_141:\n        /* \"#utility.yul\":2129:2183   */\n      tag_143\n        /* \"#utility.yul\":2176:2182   */\n      dup5\n        /* \"#utility.yul\":2171:2174   */\n      dup3\n        /* \"#utility.yul\":2166:2169   */\n      dup6\n        /* \"#utility.yul\":2129:2183   */\n      tag_77\n      jump\t// in\n    tag_143:\n        /* \"#utility.yul\":1848:2189   */\n      pop\n        /* \"#utility.yul\":1764:2189   */\n      swap4\n      swap3\n      pop\n      pop\n      pop\n      jump\t// out\n        /* \"#utility.yul\":2209:2549   */\n    tag_79:\n        /* \"#utility.yul\":2265:2270   */\n      0x00\n        /* \"#utility.yul\":2314:2317   */\n      dup3\n        /* \"#utility.yul\":2307:2311   */\n      0x1f\n        /* \"#utility.yul\":2299:2305   */\n      dup4\n        /* \"#utility.yul\":2295:2312   */\n      add\n        /* \"#utility.yul\":2291:2318   */\n      slt\n        /* \"#utility.yul\":2281:2403   */\n      tag_145\n      jumpi\n        /* \"#utility.yul\":2322:2401   */\n      tag_146\n      tag_70\n      jump\t// in\n    tag_146:\n        /* \"#utility.yul\":2281:2403   */\n    tag_145:\n        /* \"#utility.yul\":2439:2445   */\n      dup2\n        /* \"#utility.yul\":2426:2446   */\n      calldataload\n        /* \"#utility.yul\":2464:2543   */\n      tag_147\n        /* \"#utility.yul\":2539:2542   */\n      dup5\n        /* \"#utility.yul\":2531:2537   */\n      dup3\n        /* \"#utility.yul\":2524:2528   */\n      0x20\n        /* \"#utility.yul\":2516:2522   */\n      dup7\n        /* \"#utility.yul\":2512:2529   */\n      add\n        /* \"#utility.yul\":2464:2543   */\n      tag_78\n      jump\t// in\n    tag_147:\n        /* \"#utility.yul\":2455:2543   */\n      swap2\n      pop\n        /* \"#utility.yul\":2271:2549   */\n      pop\n        /* \"#utility.yul\":2209:2549   */\n      swap3\n      swap2\n      pop\n      pop\n      jump\t// out\n        /* \"#utility.yul\":2555:3389   */\n    tag_8:\n        /* \"#utility.yul\":2643:2649   */\n      0x00\n        /* \"#utility.yul\":2651:2657   */\n      0x00\n        /* \"#utility.yul\":2700:2702   */\n      0x40\n        /* \"#utility.yul\":2688:2697   */\n      dup4\n        /* \"#utility.yul\":2679:2686   */\n      dup6\n        /* \"#utility.yul\":2675:2698   */\n      sub\n        /* \"#utility.yul\":2671:2703   */\n      slt\n        /* \"#utility.yul\":2668:2787   */\n      iszero\n      tag_149\n      jumpi\n        /* \"#utility.yul\":2706:2785   */\n      tag_150\n      tag_68\n      jump\t// in\n    tag_150:\n        /* \"#utility.yul\":2668:2787   */\n    tag_149:\n        /* \"#utility.yul\":2854:2855   */\n      0x00\n        /* \"#utility.yul\":2843:2852   */\n      dup4\n        /* \"#utility.yul\":2839:2856   */\n      add\n        /* \"#utility.yul\":2826:2857   */\n      calldataload\n        /* \"#utility.yul\":2884:2902   */\n      0xffffffffffffffff\n        /* \"#utility.yul\":2876:2882   */\n      dup2\n        /* \"#utility.yul\":2873:2903   */\n      gt\n        /* \"#utility.yul\":2870:2987   */\n      iszero\n      tag_151\n      jumpi\n        /* \"#utility.yul\":2906:2985   */\n      tag_152\n      tag_69\n      jump\t// in\n    tag_152:\n        /* \"#utility.yul\":2870:2987   */\n    tag_151:\n        /* \"#utility.yul\":3011:3074   */\n      tag_153\n        /* \"#utility.yul\":3066:3073   */\n      dup6\n        /* \"#utility.yul\":3057:3063   */\n      dup3\n        /* \"#utility.yul\":3046:3055   */\n      dup7\n        /* \"#utility.yul\":3042:3064   */\n      add\n        /* \"#utility.yul\":3011:3074   */\n      tag_79\n      jump\t// in\n    tag_153:\n        /* \"#utility.yul\":3001:3074   */\n      swap3\n      pop\n        /* \"#utility.yul\":2797:3084   */\n      pop\n        /* \"#utility.yul\":3151:3153   */\n      0x20\n        /* \"#utility.yul\":3140:3149   */\n      dup4\n        /* \"#utility.yul\":3136:3154   */\n      add\n        /* \"#utility.yul\":3123:3155   */\n      calldataload\n        /* \"#utility.yul\":3182:3200   */\n      0xffffffffffffffff\n        /* \"#utility.yul\":3174:3180   */\n      dup2\n        /* \"#utility.yul\":3171:3201   */\n      gt\n        /* \"#utility.yul\":3168:3285   */\n      iszero\n      tag_154\n      jumpi\n        /* \"#utility.yul\":3204:3283   */\n      tag_155\n      tag_69\n      jump\t// in\n    tag_155:\n        /* \"#utility.yul\":3168:3285   */\n    tag_154:\n        /* \"#utility.yul\":3309:3372   */\n      tag_156\n        /* \"#utility.yul\":3364:3371   */\n      dup6\n        /* \"#utility.yul\":3355:3361   */\n      dup3\n        /* \"#utility.yul\":3344:3353   */\n      dup7\n        /* \"#utility.yul\":3340:3362   */\n      add\n        /* \"#utility.yul\":3309:3372   */\n      tag_79\n      jump\t// in\n    tag_156:\n        /* \"#utility.yul\":3299:3372   */\n      swap2\n      pop\n        /* \"#utility.yul\":3094:3382   */\n      pop\n        /* \"#utility.yul\":2555:3389   */\n      swap3\n      pop\n      swap3\n      swap1\n      pop\n      jump\t// out\n        /* \"#utility.yul\":3395:3494   */\n    tag_80:\n        /* \"#utility.yul\":3447:3453   */\n      0x00\n        /* \"#utility.yul\":3481:3486   */\n      dup2\n        /* \"#utility.yul\":3475:3487   */\n      mload\n        /* \"#utility.yul\":3465:3487   */\n      swap1\n      pop\n        /* \"#utility.yul\":3395:3494   */\n      swap2\n      swap1\n      pop\n      jump\t// out\n        /* \"#utility.yul\":3500:3669   */\n    tag_81:\n        /* \"#utility.yul\":3584:3595   */\n      0x00\n        /* \"#utility.yul\":3618:3624   */\n      dup3\n        /* \"#utility.yul\":3613:3616   */\n      dup3\n        /* \"#utility.yul\":3606:3625   */\n      mstore\n        /* \"#utility.yul\":3658:3662   */\n      0x20\n        /* \"#utility.yul\":3653:3656   */\n      dup3\n        /* \"#utility.yul\":3649:3663   */\n      add\n        /* \"#utility.yul\":3634:3663   */\n      swap1\n      pop\n        /* \"#utility.yul\":3500:3669   */\n      swap3\n      swap2\n      pop\n      pop\n      jump\t// out\n        /* \"#utility.yul\":3675:3814   */\n    tag_82:\n        /* \"#utility.yul\":3764:3770   */\n      dup3\n        /* \"#utility.yul\":3759:3762   */\n      dup2\n        /* \"#utility.yul\":3754:3757   */\n      dup4\n        /* \"#utility.yul\":3748:3771   */\n      mcopy\n        /* \"#utility.yul\":3805:3806   */\n      0x00\n        /* \"#utility.yul\":3796:3802   */\n      dup4\n        /* \"#utility.yul\":3791:3794   */\n      dup4\n        /* \"#utility.yul\":3787:3803   */\n      add\n        /* \"#utility.yul\":3780:3807   */\n      mstore\n        /* \"#utility.yul\":3675:3814   */\n      pop\n      pop\n      pop\n      jump\t// out\n        /* \"#utility.yul\":3820:4197   */\n    tag_83:\n        /* \"#utility.yul\":3908:3911   */\n      0x00\n        /* \"#utility.yul\":3936:3975   */\n      tag_161\n        /* \"#utility.yul\":3969:3974   */\n      dup3\n        /* \"#utility.yul\":3936:3975   */\n      tag_80\n      jump\t// in\n    tag_161:\n        /* \"#utility.yul\":3991:4062   */\n      tag_162\n        /* \"#utility.yul\":4055:4061   */\n      dup2\n        /* \"#utility.yul\":4050:4053   */\n      dup6\n        /* \"#utility.yul\":3991:4062   */\n      tag_81\n      jump\t// in\n    tag_162:\n        /* \"#utility.yul\":3984:4062   */\n      swap4\n      pop\n        /* \"#utility.yul\":4071:4136   */\n      tag_163\n        /* \"#utility.yul\":4129:4135   */\n      dup2\n        /* \"#utility.yul\":4124:4127   */\n      dup6\n        /* \"#utility.yul\":4117:4121   */\n      0x20\n        /* \"#utility.yul\":4110:4115   */\n      dup7\n        /* \"#utility.yul\":4106:4122   */\n      add\n        /* \"#utility.yul\":4071:4136   */\n      tag_82\n      jump\t// in\n    tag_163:\n        /* \"#utility.yul\":4161:4190   */\n      tag_164\n        /* \"#utility.yul\":4183:4189   */\n      dup2\n        /* \"#utility.yul\":4161:4190   */\n      tag_72\n      jump\t// in\n    tag_164:\n        /* \"#utility.yul\":4156:4159   */\n      dup5\n        /* \"#utility.yul\":4152:4191   */\n      add\n        /* \"#utility.yul\":4145:4191   */\n      swap2\n      pop\n        /* \"#utility.yul\":3912:4197   */\n      pop\n        /* \"#utility.yul\":3820:4197   */\n      swap3\n      swap2\n      pop\n      pop\n      jump\t// out\n        /* \"#utility.yul\":4203:4516   */\n    tag_13:\n        /* \"#utility.yul\":4316:4320   */\n      0x00\n        /* \"#utility.yul\":4354:4356   */\n      0x20\n        /* \"#utility.yul\":4343:4352   */\n      dup3\n        /* \"#utility.yul\":4339:4357   */\n      add\n        /* \"#utility.yul\":4331:4357   */\n      swap1\n      pop\n        /* \"#utility.yul\":4403:4412   */\n      dup2\n        /* \"#utility.yul\":4397:4401   */\n      dup2\n        /* \"#utility.yul\":4393:4413   */\n      sub\n        /* \"#utility.yul\":4389:4390   */\n      0x00\n        /* \"#utility.yul\":4378:4387   */\n      dup4\n        /* \"#utility.yul\":4374:4391   */\n      add\n        /* \"#utility.yul\":4367:4414   */\n      mstore\n        /* \"#utility.yul\":4431:4509   */\n      tag_166\n        /* \"#utility.yul\":4504:4508   */\n      dup2\n        /* \"#utility.yul\":4495:4501   */\n      dup5\n        /* \"#utility.yul\":4431:4509   */\n      tag_83\n      jump\t// in\n    tag_166:\n        /* \"#utility.yul\":4423:4509   */\n      swap1\n      pop\n        /* \"#utility.yul\":4203:4516   */\n      swap3\n      swap2\n      pop\n      pop\n      jump\t// out\n        /* \"#utility.yul\":4522:4612   */\n    tag_84:\n        /* \"#utility.yul\":4556:4563   */\n      0x00\n        /* \"#utility.yul\":4599:4604   */\n      dup2\n        /* \"#utility.yul\":4592:4605   */\n      iszero\n        /* \"#utility.yul\":4585:4606   */\n      iszero\n        /* \"#utility.yul\":4574:4606   */\n      swap1\n      pop\n        /* \"#utility.yul\":4522:4612   */\n      swap2\n      swap1\n      pop\n      jump\t// out\n        /* \"#utility.yul\":4618:4727   */\n    tag_85:\n        /* \"#utility.yul\":4699:4720   */\n      tag_169\n        /* \"#utility.yul\":4714:4719   */\n      dup2\n        /* \"#utility.yul\":4699:4720   */\n      tag_84\n      jump\t// in\n    tag_169:\n        /* \"#utility.yul\":4694:4697   */\n      dup3\n        /* \"#utility.yul\":4687:4721   */\n      mstore\n        /* \"#utility.yul\":4618:4727   */\n      pop\n      pop\n      jump\t// out\n        /* \"#utility.yul\":4733:5144   */\n    tag_17:\n        /* \"#utility.yul\":4868:4872   */\n      0x00\n        /* \"#utility.yul\":4906:4908   */\n      0x40\n        /* \"#utility.yul\":4895:4904   */\n      dup3\n        /* \"#utility.yul\":4891:4909   */\n      add\n        /* \"#utility.yul\":4883:4909   */\n      swap1\n      pop\n        /* \"#utility.yul\":4919:4984   */\n      tag_171\n        /* \"#utility.yul\":4981:4982   */\n      0x00\n        /* \"#utility.yul\":4970:4979   */\n      dup4\n        /* \"#utility.yul\":4966:4983   */\n      add\n        /* \"#utility.yul\":4957:4963   */\n      dup6\n        /* \"#utility.yul\":4919:4984   */\n      tag_85\n      jump\t// in\n    tag_171:\n        /* \"#utility.yul\":5031:5040   */\n      dup2\n        /* \"#utility.yul\":5025:5029   */\n      dup2\n        /* \"#utility.yul\":5021:5041   */\n      sub\n        /* \"#utility.yul\":5016:5018   */\n      0x20\n        /* \"#utility.yul\":5005:5014   */\n      dup4\n        /* \"#utility.yul\":5001:5019   */\n      add\n        /* \"#utility.yul\":4994:5042   */\n      mstore\n        /* \"#utility.yul\":5059:5137   */\n      tag_172\n        /* \"#utility.yul\":5132:5136   */\n      dup2\n        /* \"#utility.yul\":5123:5129   */\n      dup5\n        /* \"#utility.yul\":5059:5137   */\n      tag_83\n      jump\t// in\n    tag_172:\n        /* \"#utility.yul\":5051:5137   */\n      swap1\n      pop\n        /* \"#utility.yul\":4733:5144   */\n      swap4\n      swap3\n      pop\n      pop\n      pop\n      jump\t// out\n        /* \"#utility.yul\":5150:5318   */\n    tag_86:\n        /* \"#utility.yul\":5290:5310   */\n      0x416c726561647920726567697374657265640000000000000000000000000000\n        /* \"#utility.yul\":5286:5287   */\n      0x00\n        /* \"#utility.yul\":5278:5284   */\n      dup3\n        /* \"#utility.yul\":5274:5288   */\n      add\n        /* \"#utility.yul\":5267:5311   */\n      mstore\n        /* \"#utility.yul\":5150:5318   */\n      pop\n      jump\t// out\n        /* \"#utility.yul\":5324:5690   */\n    tag_87:\n        /* \"#utility.yul\":5466:5469   */\n      0x00\n        /* \"#utility.yul\":5487:5554   */\n      tag_175\n        /* \"#utility.yul\":5551:5553   */\n      0x12\n        /* \"#utility.yul\":5546:5549   */\n      dup4\n        /* \"#utility.yul\":5487:5554   */\n      tag_81\n      jump\t// in\n    tag_175:\n        /* \"#utility.yul\":5480:5554   */\n      swap2\n      pop\n        /* \"#utility.yul\":5563:5656   */\n      tag_176\n        /* \"#utility.yul\":5652:5655   */\n      dup3\n        /* \"#utility.yul\":5563:5656   */\n      tag_86\n      jump\t// in\n    tag_176:\n        /* \"#utility.yul\":5681:5683   */\n      0x20\n        /* \"#utility.yul\":5676:5679   */\n      dup3\n        /* \"#utility.yul\":5672:5684   */\n      add\n        /* \"#utility.yul\":5665:5684   */\n      swap1\n      pop\n        /* \"#utility.yul\":5324:5690   */\n      swap2\n      swap1\n      pop\n      jump\t// out\n        /* \"#utility.yul\":5696:6115   */\n    tag_21:\n        /* \"#utility.yul\":5862:5866   */\n      0x00\n        /* \"#utility.yul\":5900:5902   */\n      0x20\n        /* \"#utility.yul\":5889:5898   */\n      dup3\n        /* \"#utility.yul\":5885:5903   */\n      add\n        /* \"#utility.yul\":5877:5903   */\n      swap1\n      pop\n        /* \"#utility.yul\":5949:5958   */\n      dup2\n        /* \"#utility.yul\":5943:5947   */\n      dup2\n        /* \"#utility.yul\":5939:5959   */\n      sub\n        /* \"#utility.yul\":5935:5936   */\n      0x00\n        /* \"#utility.yul\":5924:5933   */\n      dup4\n        /* \"#utility.yul\":5920:5937   */\n      add\n        /* \"#utility.yul\":5913:5960   */\n      mstore\n        /* \"#utility.yul\":5977:6108   */\n      tag_178\n        /* \"#utility.yul\":6103:6107   */\n      dup2\n        /* \"#utility.yul\":5977:6108   */\n      tag_87\n      jump\t// in\n    tag_178:\n        /* \"#utility.yul\":5969:6108   */\n      swap1\n      pop\n        /* \"#utility.yul\":5696:6115   */\n      swap2\n      swap1\n      pop\n      jump\t// out\n        /* \"#utility.yul\":6121:6301   */\n    tag_26:\n        /* \"#utility.yul\":6169:6246   */\n      0x4e487b7100000000000000000000000000000000000000000000000000000000\n        /* \"#utility.yul\":6166:6167   */\n      0x00\n        /* \"#utility.yul\":6159:6247   */\n      mstore\n        /* \"#utility.yul\":6266:6270   */\n      0x21\n        /* \"#utility.yul\":6263:6264   */\n      0x04\n        /* \"#utility.yul\":6256:6271   */\n      mstore\n        /* \"#utility.yul\":6290:6294   */\n      0x24\n        /* \"#utility.yul\":6287:6288   */\n      0x00\n        /* \"#utility.yul\":6280:6295   */\n      revert\n        /* \"#utility.yul\":6307:6469   */\n    tag_88:\n        /* \"#utility.yul\":6447:6461   */\n      0x496e76616c696420726f6c650000000000000000000000000000000000000000\n        /* \"#utility.yul\":6443:6444   */\n      0x00\n        /* \"#utility.yul\":6435:6441   */\n      dup3\n        /* \"#utility.yul\":6431:6445   */\n      add\n        /* \"#utility.yul\":6424:6462   */\n      mstore\n        /* \"#utility.yul\":6307:6469   */\n      pop\n      jump\t// out\n        /* \"#utility.yul\":6475:6841   */\n    tag_89:\n        /* \"#utility.yul\":6617:6620   */\n      0x00\n        /* \"#utility.yul\":6638:6705   */\n      tag_182\n        /* \"#utility.yul\":6702:6704   */\n      0x0c\n        /* \"#utility.yul\":6697:6700   */\n      dup4\n        /* \"#utility.yul\":6638:6705   */\n      tag_81\n      jump\t// in\n    tag_182:\n        /* \"#utility.yul\":6631:6705   */\n      swap2\n      pop\n        /* \"#utility.yul\":6714:6807   */\n      tag_183\n        /* \"#utility.yul\":6803:6806   */\n      dup3\n        /* \"#utility.yul\":6714:6807   */\n      tag_88\n      jump\t// in\n    tag_183:\n        /* \"#utility.yul\":6832:6834   */\n      0x20\n        /* \"#utility.yul\":6827:6830   */\n      dup3\n        /* \"#utility.yul\":6823:6835   */\n      add\n        /* \"#utility.yul\":6816:6835   */\n      swap1\n      pop\n        /* \"#utility.yul\":6475:6841   */\n      swap2\n      swap1\n      pop\n      jump\t// out\n        /* \"#utility.yul\":6847:7266   */\n    tag_31:\n        /* \"#utility.yul\":7013:7017   */\n      0x00\n        /* \"#utility.yul\":7051:7053   */\n      0x20\n        /* \"#utility.yul\":7040:7049   */\n      dup3\n        /* \"#utility.yul\":7036:7054   */\n      add\n        /* \"#utility.yul\":7028:7054   */\n      swap1\n      pop\n        /* \"#utility.yul\":7100:7109   */\n      dup2\n        /* \"#utility.yul\":7094:7098   */\n      dup2\n        /* \"#utility.yul\":7090:7110   */\n      sub\n        /* \"#utility.yul\":7086:7087   */\n      0x00\n        /* \"#utility.yul\":7075:7084   */\n      dup4\n        /* \"#utility.yul\":7071:7088   */\n      add\n        /* \"#utility.yul\":7064:7111   */\n      mstore\n        /* \"#utility.yul\":7128:7259   */\n      tag_185\n        /* \"#utility.yul\":7254:7258   */\n      dup2\n        /* \"#utility.yul\":7128:7259   */\n      tag_89\n      jump\t// in\n    tag_185:\n        /* \"#utility.yul\":7120:7259   */\n      swap1\n      pop\n        /* \"#utility.yul\":6847:7266   */\n      swap2\n      swap1\n      pop\n      jump\t// out\n        /* \"#utility.yul\":7272:7452   */\n    tag_90:\n        /* \"#utility.yul\":7320:7397   */\n      0x4e487b7100000000000000000000000000000000000000000000000000000000\n        /* \"#utility.yul\":7317:7318   */\n      0x00\n        /* \"#utility.yul\":7310:7398   */\n      mstore\n        /* \"#utility.yul\":7417:7421   */\n      0x22\n        /* \"#utility.yul\":7414:7415   */\n      0x04\n        /* \"#utility.yul\":7407:7422   */\n      mstore\n        /* \"#utility.yul\":7441:7445   */\n      0x24\n        /* \"#utility.yul\":7438:7439   */\n      0x00\n        /* \"#utility.yul\":7431:7446   */\n      revert\n        /* \"#utility.yul\":7458:7778   */\n    tag_91:\n        /* \"#utility.yul\":7502:7508   */\n      0x00\n        /* \"#utility.yul\":7539:7540   */\n      0x02\n        /* \"#utility.yul\":7533:7537   */\n      dup3\n        /* \"#utility.yul\":7529:7541   */\n      div\n        /* \"#utility.yul\":7519:7541   */\n      swap1\n      pop\n        /* \"#utility.yul\":7586:7587   */\n      0x01\n        /* \"#utility.yul\":7580:7584   */\n      dup3\n        /* \"#utility.yul\":7576:7588   */\n      and\n        /* \"#utility.yul\":7607:7625   */\n      dup1\n        /* \"#utility.yul\":7597:7678   */\n      tag_188\n      jumpi\n        /* \"#utility.yul\":7663:7667   */\n      0x7f\n        /* \"#utility.yul\":7655:7661   */\n      dup3\n        /* \"#utility.yul\":7651:7668   */\n      and\n        /* \"#utility.yul\":7641:7668   */\n      swap2\n      pop\n        /* \"#utility.yul\":7597:7678   */\n    tag_188:\n        /* \"#utility.yul\":7725:7727   */\n      0x20\n        /* \"#utility.yul\":7717:7723   */\n      dup3\n        /* \"#utility.yul\":7714:7728   */\n      lt\n        /* \"#utility.yul\":7694:7712   */\n      dup2\n        /* \"#utility.yul\":7691:7729   */\n      sub\n        /* \"#utility.yul\":7688:7772   */\n      tag_189\n      jumpi\n        /* \"#utility.yul\":7744:7762   */\n      tag_190\n      tag_90\n      jump\t// in\n    tag_190:\n        /* \"#utility.yul\":7688:7772   */\n    tag_189:\n        /* \"#utility.yul\":7509:7778   */\n      pop\n        /* \"#utility.yul\":7458:7778   */\n      swap2\n      swap1\n      pop\n      jump\t// out\n        /* \"#utility.yul\":7784:7925   */\n    tag_92:\n        /* \"#utility.yul\":7833:7837   */\n      0x00\n        /* \"#utility.yul\":7856:7859   */\n      dup2\n        /* \"#utility.yul\":7848:7859   */\n      swap1\n      pop\n        /* \"#utility.yul\":7879:7882   */\n      dup2\n        /* \"#utility.yul\":7876:7877   */\n      0x00\n        /* \"#utility.yul\":7869:7883   */\n      mstore\n        /* \"#utility.yul\":7913:7917   */\n      0x20\n        /* \"#utility.yul\":7910:7911   */\n      0x00\n        /* \"#utility.yul\":7900:7918   */\n      keccak256\n        /* \"#utility.yul\":7892:7918   */\n      swap1\n      pop\n        /* \"#utility.yul\":7784:7925   */\n      swap2\n      swap1\n      pop\n      jump\t// out\n        /* \"#utility.yul\":7931:8024   */\n    tag_93:\n        /* \"#utility.yul\":7968:7974   */\n      0x00\n        /* \"#utility.yul\":8015:8017   */\n      0x20\n        /* \"#utility.yul\":8010:8012   */\n      0x1f\n        /* \"#utility.yul\":8003:8008   */\n      dup4\n        /* \"#utility.yul\":7999:8013   */\n      add\n        /* \"#utility.yul\":7995:8018   */\n      div\n        /* \"#utility.yul\":7985:8018   */\n      swap1\n      pop\n        /* \"#utility.yul\":7931:8024   */\n      swap2\n      swap1\n      pop\n      jump\t// out\n        /* \"#utility.yul\":8030:8137   */\n    tag_94:\n        /* \"#utility.yul\":8074:8082   */\n      0x00\n        /* \"#utility.yul\":8124:8129   */\n      dup3\n        /* \"#utility.yul\":8118:8122   */\n      dup3\n        /* \"#utility.yul\":8114:8130   */\n      shl\n        /* \"#utility.yul\":8093:8130   */\n      swap1\n      pop\n        /* \"#utility.yul\":8030:8137   */\n      swap3\n      swap2\n      pop\n      pop\n      jump\t// out\n        /* \"#utility.yul\":8143:8536   */\n    tag_95:\n        /* \"#utility.yul\":8212:8218   */\n      0x00\n        /* \"#utility.yul\":8262:8263   */\n      0x08\n        /* \"#utility.yul\":8250:8260   */\n      dup4\n        /* \"#utility.yul\":8246:8264   */\n      mul\n        /* \"#utility.yul\":8285:8382   */\n      tag_195\n        /* \"#utility.yul\":8315:8381   */\n      0xffffffffffffffffffffffffffffffffffffffffffffffffffffffffffffffff\n        /* \"#utility.yul\":8304:8313   */\n      dup3\n        /* \"#utility.yul\":8285:8382   */\n      tag_94\n      jump\t// in\n    tag_195:\n        /* \"#utility.yul\":8403:8442   */\n      tag_196\n        /* \"#utility.yul\":8433:8441   */\n      dup7\n        /* \"#utility.yul\":8422:8431   */\n      dup4\n        /* \"#utility.yul\":8403:8442   */\n      tag_94\n      jump\t// in\n    tag_196:\n        /* \"#utility.yul\":8391:8442   */\n      swap6\n      pop\n        /* \"#utility.yul\":8475:8479   */\n      dup1\n        /* \"#utility.yul\":8471:8480   */\n      not\n        /* \"#utility.yul\":8464:8469   */\n      dup5\n        /* \"#utility.yul\":8460:8481   */\n      and\n        /* \"#utility.yul\":8451:8481   */\n      swap4\n      pop\n        /* \"#utility.yul\":8524:8528   */\n      dup1\n        /* \"#utility.yul\":8514:8522   */\n      dup7\n        /* \"#utility.yul\":8510:8529   */\n      and\n        /* \"#utility.yul\":8503:8508   */\n      dup5\n        /* \"#utility.yul\":8500:8530   */\n      or\n        /* \"#utility.yul\":8490:8530   */\n      swap3\n      pop\n        /* \"#utility.yul\":8219:8536   */\n      pop\n      pop\n        /* \"#utility.yul\":8143:8536   */\n      swap4\n      swap3\n      pop\n      pop\n      pop\n      jump\t// out\n        /* \"#utility.yul\":8542:8619   */\n    tag_96:\n        /* \"#utility.yul\":8579:8586   */\n      0x00\n        /* \"#utility.yul\":8608:8613   */\n      dup2\n        /* \"#utility.yul\":8597:8613   */\n      swap1\n      pop\n        /* \"#utility.yul\":8542:8619   */\n      swap2\n      swap1\n      pop\n      jump\t// out\n        /* \"#utility.yul\":8625:8685   */\n    tag_97:\n        /* \"#utility.yul\":8653:8656   */\n      0x00\n        /* \"#utility.yul\":8674:8679   */\n      dup2\n        /* \"#utility.yul\":8667:8679   */\n      swap1\n      pop\n        /* \"#utility.yul\":8625:8685   */\n      swap2\n      swap1\n      pop\n      jump\t// out\n        /* \"#utility.yul\":8691:8833   */\n    tag_98:\n        /* \"#utility.yul\":8741:8750   */\n      0x00\n        /* \"#utility.yul\":8774:8827   */\n      tag_200\n        /* \"#utility.yul\":8792:8826   */\n      tag_201\n        /* \"#utility.yul\":8801:8825   */\n      tag_202\n        /* \"#utility.yul\":8819:8824   */\n      dup5\n        /* \"#utility.yul\":8801:8825   */\n      tag_96\n      jump\t// in\n    tag_202:\n        /* \"#utility.yul\":8792:8826   */\n      tag_97\n      jump\t// in\n    tag_201:\n        /* \"#utility.yul\":8774:8827   */\n      tag_96\n      jump\t// in\n    tag_200:\n        /* \"#utility.yul\":8761:8827   */\n      swap1\n      pop\n        /* \"#utility.yul\":8691:8833   */\n      swap2\n      swap1\n      pop\n      jump\t// out\n        /* \"#utility.yul\":8839:8914   */\n    tag_99:\n        /* \"#utility.yul\":8882:8885   */\n      0x00\n        /* \"#utility.yul\":8903:8908   */\n      dup2\n        /* \"#utility.yul\":8896:8908   */\n      swap1\n      pop\n        /* \"#utility.yul\":8839:8914   */\n      swap2\n      swap1\n      pop\n      jump\t// out\n        /* \"#utility.yul\":8920:9189   */\n    tag_100:\n        /* \"#utility.yul\":9030:9069   */\n      tag_205\n        /* \"#utility.yul\":9061:9068   */\n      dup4\n        /* \"#utility.yul\":9030:9069   */\n      tag_98\n      jump\t// in\n    tag_205:\n        /* \"#utility.yul\":9091:9182   */\n      tag_206\n        /* \"#utility.yul\":9140:9181   */\n      tag_207\n        /* \"#utility.yul\":9164:9180   */\n      dup3\n        /* \"#utility.yul\":9140:9181   */\n      tag_99\n      jump\t// in\n    tag_207:\n        /* \"#utility.yul\":9132:9138   */\n      dup5\n        /* \"#utility.yul\":9125:9129   */\n      dup5\n        /* \"#utility.yul\":9119:9130   */\n      sload\n        /* \"#utility.yul\":9091:9182   */\n      tag_95\n      jump\t// in\n    tag_206:\n        /* \"#utility.yul\":9085:9089   */\n      dup3\n        /* \"#utility.yul\":9078:9183   */\n      sstore\n        /* \"#utility.yul\":8996:9189   */\n      pop\n        /* \"#utility.yul\":8920:9189   */\n      pop\n      pop\n      pop\n      jump\t// out\n        /* \"#utility.yul\":9195:9268   */\n    tag_101:\n        /* \"#utility.yul\":9240:9243   */\n      0x00\n        /* \"#utility.yul\":9261:9262   */\n      0x00\n        /* \"#utility.yul\":9254:9262   */\n      swap1\n      pop\n        /* \"#utility.yul\":9195:9268   */\n      swap1\n      jump\t// out\n        /* \"#utility.yul\":9274:9463   */\n    tag_102:\n        /* \"#utility.yul\":9351:9383   */\n      tag_210\n      tag_101\n      jump\t// in\n    tag_210:\n        /* \"#utility.yul\":9392:9457   */\n      tag_211\n        /* \"#utility.yul\":9450:9456   */\n      dup2\n        /* \"#utility.yul\":9442:9448   */\n      dup5\n        /* \"#utility.yul\":9436:9440   */\n      dup5\n        /* \"#utility.yul\":9392:9457   */\n      tag_100\n      jump\t// in\n    tag_211:\n        /* \"#utility.yul\":9327:9463   */\n      pop\n        /* \"#utility.yul\":9274:9463   */\n      pop\n      pop\n      jump\t// out\n        /* \"#utility.yul\":9469:9655   */\n    tag_103:\n        /* \"#utility.yul\":9529:9649   */\n    tag_213:\n        /* \"#utility.yul\":9546:9549   */\n      dup2\n        /* \"#utility.yul\":9539:9544   */\n      dup2\n        /* \"#utility.yul\":9536:9550   */\n      lt\n        /* \"#utility.yul\":9529:9649   */\n      iszero\n      tag_215\n      jumpi\n        /* \"#utility.yul\":9600:9639   */\n      tag_216\n        /* \"#utility.yul\":9637:9638   */\n      0x00\n        /* \"#utility.yul\":9630:9635   */\n      dup3\n        /* \"#utility.yul\":9600:9639   */\n      tag_102\n      jump\t// in\n    tag_216:\n        /* \"#utility.yul\":9573:9574   */\n      0x01\n        /* \"#utility.yul\":9566:9571   */\n      dup2\n        /* \"#utility.yul\":9562:9575   */\n      add\n        /* \"#utility.yul\":9553:9575   */\n      swap1\n      pop\n        /* \"#utility.yul\":9529:9649   */\n      jump(tag_213)\n    tag_215:\n        /* \"#utility.yul\":9469:9655   */\n      pop\n      pop\n      jump\t// out\n        /* \"#utility.yul\":9661:10204   */\n    tag_104:\n        /* \"#utility.yul\":9762:9764   */\n      0x1f\n        /* \"#utility.yul\":9757:9760   */\n      dup3\n        /* \"#utility.yul\":9754:9765   */\n      gt\n        /* \"#utility.yul\":9751:10197   */\n      iszero\n      tag_218\n      jumpi\n        /* \"#utility.yul\":9796:9834   */\n      tag_219\n        /* \"#utility.yul\":9828:9833   */\n      dup2\n        /* \"#utility.yul\":9796:9834   */\n      tag_92\n      jump\t// in\n    tag_219:\n        /* \"#utility.yul\":9880:9909   */\n      tag_220\n        /* \"#utility.yul\":9898:9908   */\n      dup5\n        /* \"#utility.yul\":9880:9909   */\n      tag_93\n      jump\t// in\n    tag_220:\n        /* \"#utility.yul\":9870:9878   */\n      dup2\n        /* \"#utility.yul\":9866:9910   */\n      add\n        /* \"#utility.yul\":10063:10065   */\n      0x20\n        /* \"#utility.yul\":10051:10061   */\n      dup6\n        /* \"#utility.yul\":10048:10066   */\n      lt\n        /* \"#utility.yul\":10045:10094   */\n      iszero\n      tag_221\n      jumpi\n        /* \"#utility.yul\":10084:10092   */\n      dup2\n        /* \"#utility.yul\":10069:10092   */\n      swap1\n      pop\n        /* \"#utility.yul\":10045:10094   */\n    tag_221:\n        /* \"#utility.yul\":10107:10187   */\n      tag_222\n        /* \"#utility.yul\":10163:10185   */\n      tag_223\n        /* \"#utility.yul\":10181:10184   */\n      dup6\n        /* \"#utility.yul\":10163:10185   */\n      tag_93\n      jump\t// in\n    tag_223:\n        /* \"#utility.yul\":10153:10161   */\n      dup4\n        /* \"#utility.yul\":10149:10186   */\n      add\n        /* \"#utility.yul\":10136:10147   */\n      dup3\n        /* \"#utility.yul\":10107:10187   */\n      tag_103\n      jump\t// in\n    tag_222:\n        /* \"#utility.yul\":9766:10197   */\n      pop\n      pop\n        /* \"#utility.yul\":9751:10197   */\n    tag_218:\n        /* \"#utility.yul\":9661:10204   */\n      pop\n      pop\n      pop\n      jump\t// out\n        /* \"#utility.yul\":10210:10327   */\n    tag_105:\n        /* \"#utility.yul\":10264:10272   */\n      0x00\n        /* \"#utility.yul\":10314:10319   */\n      dup3\n        /* \"#utility.yul\":10308:10312   */\n      dup3\n        /* \"#utility.yul\":10304:10320   */\n      shr\n        /* \"#utility.yul\":10283:10320   */\n      swap1\n      pop\n        /* \"#utility.yul\":10210:10327   */\n      swap3\n      swap2\n      pop\n      pop\n      jump\t// out\n        /* \"#utility.yul\":10333:10502   */\n    tag_106:\n        /* \"#utility.yul\":10377:10383   */\n      0x00\n        /* \"#utility.yul\":10410:10461   */\n      tag_226\n        /* \"#utility.yul\":10458:10459   */\n      0x00\n        /* \"#utility.yul\":10454:10460   */\n      not\n        /* \"#utility.yul\":10446:10451   */\n      dup5\n        /* \"#utility.yul\":10443:10444   */\n      0x08\n        /* \"#utility.yul\":10439:10452   */\n      mul\n        /* \"#utility.yul\":10410:10461   */\n      tag_105\n      jump\t// in\n    tag_226:\n        /* \"#utility.yul\":10406:10462   */\n      not\n        /* \"#utility.yul\":10491:10495   */\n      dup1\n        /* \"#utility.yul\":10485:10489   */\n      dup4\n        /* \"#utility.yul\":10481:10496   */\n      and\n        /* \"#utility.yul\":10471:10496   */\n      swap2\n      pop\n        /* \"#utility.yul\":10384:10502   */\n      pop\n        /* \"#utility.yul\":10333:10502   */\n      swap3\n      swap2\n      pop\n      pop\n      jump\t// out\n        /* \"#utility.yul\":10507:10802   */\n    tag_107:\n        /* \"#utility.yul\":10583:10587   */\n      0x00\n        /* \"#utility.yul\":10729:10758   */\n      tag_228\n        /* \"#utility.yul\":10754:10757   */\n      dup4\n        /* \"#utility.yul\":10748:10752   */\n      dup4\n        /* \"#utility.yul\":10729:10758   */\n      tag_106\n      jump\t// in\n    tag_228:\n        /* \"#utility.yul\":10721:10758   */\n      swap2\n      pop\n        /* \"#utility.yul\":10791:10794   */\n      dup3\n        /* \"#utility.yul\":10788:10789   */\n      0x02\n        /* \"#utility.yul\":10784:10795   */\n      mul\n        /* \"#utility.yul\":10778:10782   */\n      dup3\n        /* \"#utility.yul\":10775:10796   */\n      or\n        /* \"#utility.yul\":10767:10796   */\n      swap1\n      pop\n        /* \"#utility.yul\":10507:10802   */\n      swap3\n      swap2\n      pop\n      pop\n      jump\t// out\n        /* \"#utility.yul\":10807:12202   */\n    tag_35:\n        /* \"#utility.yul\":10924:10961   */\n      tag_230\n        /* \"#utility.yul\":10957:10960   */\n      dup3\n        /* \"#utility.yul\":10924:10961   */\n      tag_80\n      jump\t// in\n    tag_230:\n        /* \"#utility.yul\":11026:11044   */\n      0xffffffffffffffff\n        /* \"#utility.yul\":11018:11024   */\n      dup2\n        /* \"#utility.yul\":11015:11045   */\n      gt\n        /* \"#utility.yul\":11012:11068   */\n      iszero\n      tag_231\n      jumpi\n        /* \"#utility.yul\":11048:11066   */\n      tag_232\n      tag_73\n      jump\t// in\n    tag_232:\n        /* \"#utility.yul\":11012:11068   */\n    tag_231:\n        /* \"#utility.yul\":11092:11130   */\n      tag_233\n        /* \"#utility.yul\":11124:11128   */\n      dup3\n        /* \"#utility.yul\":11118:11129   */\n      sload\n        /* \"#utility.yul\":11092:11130   */\n      tag_91\n      jump\t// in\n    tag_233:\n        /* \"#utility.yul\":11177:11244   */\n      tag_234\n        /* \"#utility.yul\":11237:11243   */\n      dup3\n        /* \"#utility.yul\":11229:11235   */\n      dup3\n        /* \"#utility.yul\":11223:11227   */\n      dup6\n        /* \"#utility.yul\":11177:11244   */\n      tag_104\n      jump\t// in\n    tag_234:\n        /* \"#utility.yul\":11271:11272   */\n      0x00\n        /* \"#utility.yul\":11295:11299   */\n      0x20\n        /* \"#utility.yul\":11282:11299   */\n      swap1\n      pop\n        /* \"#utility.yul\":11327:11329   */\n      0x1f\n        /* \"#utility.yul\":11319:11325   */\n      dup4\n        /* \"#utility.yul\":11316:11330   */\n      gt\n        /* \"#utility.yul\":11344:11345   */\n      0x01\n        /* \"#utility.yul\":11339:11957   */\n      dup2\n      eq\n      tag_236\n      jumpi\n        /* \"#utility.yul\":12001:12002   */\n      0x00\n        /* \"#utility.yul\":12018:12024   */\n      dup5\n        /* \"#utility.yul\":12015:12092   */\n      iszero\n      tag_237\n      jumpi\n        /* \"#utility.yul\":12067:12076   */\n      dup3\n        /* \"#utility.yul\":12062:12065   */\n      dup8\n        /* \"#utility.yul\":12058:12077   */\n      add\n        /* \"#utility.yul\":12052:12078   */\n      mload\n        /* \"#utility.yul\":12043:12078   */\n      swap1\n      pop\n        /* \"#utility.yul\":12015:12092   */\n    tag_237:\n        /* \"#utility.yul\":12118:12185   */\n      tag_238\n        /* \"#utility.yul\":12178:12184   */\n      dup6\n        /* \"#utility.yul\":12171:12176   */\n      dup3\n        /* \"#utility.yul\":12118:12185   */\n      tag_107\n      jump\t// in\n    tag_238:\n        /* \"#utility.yul\":12112:12116   */\n      dup7\n        /* \"#utility.yul\":12105:12186   */\n      sstore\n        /* \"#utility.yul\":11974:12196   */\n      pop\n        /* \"#utility.yul\":11309:12196   */\n      jump(tag_235)\n        /* \"#utility.yul\":11339:11957   */\n    tag_236:\n        /* \"#utility.yul\":11391:11395   */\n      0x1f\n        /* \"#utility.yul\":11387:11396   */\n      not\n        /* \"#utility.yul\":11379:11385   */\n      dup5\n        /* \"#utility.yul\":11375:11397   */\n      and\n        /* \"#utility.yul\":11425:11462   */\n      tag_239\n        /* \"#utility.yul\":11457:11461   */\n      dup7\n        /* \"#utility.yul\":11425:11462   */\n      tag_92\n      jump\t// in\n    tag_239:\n        /* \"#utility.yul\":11484:11485   */\n      0x00\n        /* \"#utility.yul\":11498:11706   */\n    tag_240:\n        /* \"#utility.yul\":11512:11519   */\n      dup3\n        /* \"#utility.yul\":11509:11510   */\n      dup2\n        /* \"#utility.yul\":11506:11520   */\n      lt\n        /* \"#utility.yul\":11498:11706   */\n      iszero\n      tag_242\n      jumpi\n        /* \"#utility.yul\":11591:11600   */\n      dup5\n        /* \"#utility.yul\":11586:11589   */\n      dup10\n        /* \"#utility.yul\":11582:11601   */\n      add\n        /* \"#utility.yul\":11576:11602   */\n      mload\n        /* \"#utility.yul\":11568:11574   */\n      dup3\n        /* \"#utility.yul\":11561:11603   */\n      sstore\n        /* \"#utility.yul\":11642:11643   */\n      0x01\n        /* \"#utility.yul\":11634:11640   */\n      dup3\n        /* \"#utility.yul\":11630:11644   */\n      add\n        /* \"#utility.yul\":11620:11644   */\n      swap2\n      pop\n        /* \"#utility.yul\":11689:11691   */\n      0x20\n        /* \"#utility.yul\":11678:11687   */\n      dup6\n        /* \"#utility.yul\":11674:11692   */\n      add\n        /* \"#utility.yul\":11661:11692   */\n      swap5\n      pop\n        /* \"#utility.yul\":11535:11539   */\n      0x20\n        /* \"#utility.yul\":11532:11533   */\n      dup2\n        /* \"#utility.yul\":11528:11540   */\n      add\n        /* \"#utility.yul\":11523:11540   */\n      swap1\n      pop\n        /* \"#utility.yul\":11498:11706   */\n      jump(tag_240)\n    tag_242:\n        /* \"#utility.yul\":11734:11740   */\n      dup7\n        /* \"#utility.yul\":11725:11732   */\n      dup4\n        /* \"#utility.yul\":11722:11741   */\n      lt\n        /* \"#utility.yul\":11719:11898   */\n      iszero\n      tag_243\n      jumpi\n        /* \"#utility.yul\":11792:11801   */\n      dup5\n        /* \"#utility.yul\":11787:11790   */\n      dup10\n        /* \"#utility.yul\":11783:11802   */\n      add\n        /* \"#utility.yul\":11777:11803   */\n      mload\n        /* \"#utility.yul\":11835:11883   */\n      tag_244\n        /* \"#utility.yul\":11877:11881   */\n      0x1f\n        /* \"#utility.yul\":11869:11875   */\n      dup10\n        /* \"#utility.yul\":11865:11882   */\n      and\n        /* \"#utility.yul\":11854:11863   */\n      dup3\n        /* \"#utility.yul\":11835:11883   */\n      tag_106\n      jump\t// in\n    tag_244:\n        /* \"#utility.yul\":11827:11833   */\n      dup4\n        /* \"#utility.yul\":11820:11884   */\n      sstore\n        /* \"#utility.yul\":11742:11898   */\n      pop\n        /* \"#utility.yul\":11719:11898   */\n    tag_243:\n        /* \"#utility.yul\":11944:11945   */\n      0x01\n        /* \"#utility.yul\":11940:11941   */\n      0x02\n        /* \"#utility.yul\":11932:11938   */\n      dup9\n        /* \"#utility.yul\":11928:11942   */\n      mul\n        /* \"#utility.yul\":11924:11946   */\n      add\n        /* \"#utility.yul\":11918:11922   */\n      dup9\n        /* \"#utility.yul\":11911:11947   */\n      sstore\n        /* \"#utility.yul\":11346:11957   */\n      pop\n      pop\n      pop\n        /* \"#utility.yul\":11309:12196   */\n    tag_235:\n      pop\n        /* \"#utility.yul\":10899:12202   */\n      pop\n      pop\n      pop\n        /* \"#utility.yul\":10807:12202   */\n      pop\n      pop\n      jump\t// out\n        /* \"#utility.yul\":12208:12319   */\n    tag_108:\n        /* \"#utility.yul\":12287:12288   */\n      0x03\n        /* \"#utility.yul\":12280:12285   */\n      dup2\n        /* \"#utility.yul\":12277:12289   */\n      lt\n        /* \"#utility.yul\":12267:12313   */\n      tag_246\n      jumpi\n        /* \"#utility.yul\":12293:12311   */\n      tag_247\n      tag_26\n      jump\t// in\n    tag_247:\n        /* \"#utility.yul\":12267:12313   */\n    tag_246:\n        /* \"#utility.yul\":12208:12319   */\n      pop\n      jump\t// out\n        /* \"#utility.yul\":12325:12448   */\n    tag_109:\n        /* \"#utility.yul\":12368:12375   */\n      0x00\n        /* \"#utility.yul\":12397:12402   */\n      dup2\n        /* \"#utility.yul\":12386:12402   */\n      swap1\n      pop\n        /* \"#utility.yul\":12403:12442   */\n      tag_249\n        /* \"#utility.yul\":12436:12441   */\n      dup3\n        /* \"#utility.yul\":12403:12442   */\n      tag_108\n      jump\t// in\n    tag_249:\n        /* \"#utility.yul\":12325:12448   */\n      swap2\n      swap1\n      pop\n      jump\t// out\n        /* \"#utility.yul\":12454:12577   */\n    tag_110:\n        /* \"#utility.yul\":12508:12517   */\n      0x00\n        /* \"#utility.yul\":12541:12571   */\n      tag_251\n        /* \"#utility.yul\":12565:12570   */\n      dup3\n        /* \"#utility.yul\":12541:12571   */\n      tag_109\n      jump\t// in\n    tag_251:\n        /* \"#utility.yul\":12528:12571   */\n      swap1\n      pop\n        /* \"#utility.yul\":12454:12577   */\n      swap2\n      swap1\n      pop\n      jump\t// out\n        /* \"#utility.yul\":12583:12722   */\n    tag_111:\n        /* \"#utility.yul\":12674:12715   */\n      tag_253\n        /* \"#utility.yul\":12709:12714   */\n      dup2\n        /* \"#utility.yul\":12674:12715   */\n      tag_110\n      jump\t// in\n    tag_253:\n        /* \"#utility.yul\":12669:12672   */\n      dup3\n        /* \"#utility.yul\":12662:12716   */\n      mstore\n        /* \"#utility.yul\":12583:12722   */\n      pop\n      pop\n      jump\t// out\n        /* \"#utility.yul\":12728:13159   */\n    tag_39:\n        /* \"#utility.yul\":12873:12877   */\n      0x00\n        /* \"#utility.yul\":12911:12913   */\n      0x40\n        /* \"#utility.yul\":12900:12909   */\n      dup3\n        /* \"#utility.yul\":12896:12914   */\n      add\n        /* \"#utility.yul\":12888:12914   */\n      swap1\n      pop\n        /* \"#utility.yul\":12960:12969   */\n      dup2\n        /* \"#utility.yul\":12954:12958   */\n      dup2\n        /* \"#utility.yul\":12950:12970   */\n      sub\n        /* \"#utility.yul\":12946:12947   */\n      0x00\n        /* \"#utility.yul\":12935:12944   */\n      dup4\n        /* \"#utility.yul\":12931:12948   */\n      add\n        /* \"#utility.yul\":12924:12971   */\n      mstore\n        /* \"#utility.yul\":12988:13066   */\n      tag_255\n        /* \"#utility.yul\":13061:13065   */\n      dup2\n        /* \"#utility.yul\":13052:13058   */\n      dup6\n        /* \"#utility.yul\":12988:13066   */\n      tag_83\n      jump\t// in\n    tag_255:\n        /* \"#utility.yul\":12980:13066   */\n      swap1\n      pop\n        /* \"#utility.yul\":13076:13152   */\n      tag_256\n        /* \"#utility.yul\":13148:13150   */\n      0x20\n        /* \"#utility.yul\":13137:13146   */\n      dup4\n        /* \"#utility.yul\":13133:13151   */\n      add\n        /* \"#utility.yul\":13124:13130   */\n      dup5\n        /* \"#utility.yul\":13076:13152   */\n      tag_111\n      jump\t// in\n    tag_256:\n        /* \"#utility.yul\":12728:13159   */\n      swap4\n      swap3\n      pop\n      pop\n      pop\n      jump\t// out\n        /* \"#utility.yul\":13165:13329   */\n    tag_112:\n        /* \"#utility.yul\":13305:13321   */\n      0x4e6f742072656769737465726564000000000000000000000000000000000000\n        /* \"#utility.yul\":13301:13302   */\n      0x00\n        /* \"#utility.yul\":13293:13299   */\n      dup3\n        /* \"#utility.yul\":13289:13303   */\n      add\n        /* \"#utility.yul\":13282:13322   */\n      mstore\n        /* \"#utility.yul\":13165:13329   */\n      pop\n      jump\t// out\n        /* \"#utility.yul\":13335:13701   */\n    tag_113:\n        /* \"#utility.yul\":13477:13480   */\n      0x00\n        /* \"#utility.yul\":13498:13565   */\n      tag_259\n        /* \"#utility.yul\":13562:13564   */\n      0x0e\n        /* \"#utility.yul\":13557:13560   */\n      dup4\n        /* \"#utility.yul\":13498:13565   */\n      tag_81\n      jump\t// in\n    tag_259:\n        /* \"#utility.yul\":13491:13565   */\n      swap2\n      pop\n        /* \"#utility.yul\":13574:13667   */\n      tag_260\n        /* \"#utility.yul\":13663:13666   */\n      dup3\n        /* \"#utility.yul\":13574:13667   */\n      tag_112\n      jump\t// in\n    tag_260:\n        /* \"#utility.yul\":13692:13694   */\n      0x20\n        /* \"#utility.yul\":13687:13690   */\n      dup3\n        /* \"#utility.yul\":13683:13695   */\n      add\n        /* \"#utility.yul\":13676:13695   */\n      swap1\n      pop\n        /* \"#utility.yul\":13335:13701   */\n      swap2\n      swap1\n      pop\n      jump\t// out\n        /* \"#utility.yul\":13707:14126   */\n    tag_43:\n        /* \"#utility.yul\":13873:13877   */\n      0x00\n        /* \"#utility.yul\":13911:13913   */\n      0x20\n        /* \"#utility.yul\":13900:13909   */\n      dup3\n        /* \"#utility.yul\":13896:13914   */\n      add\n        /* \"#utility.yul\":13888:13914   */\n      swap1\n      pop\n        /* \"#utility.yul\":13960:13969   */\n      dup2\n        /* \"#utility.yul\":13954:13958   */\n      dup2\n        /* \"#utility.yul\":13950:13970   */\n      sub\n        /* \"#utility.yul\":13946:13947   */\n      0x00\n        /* \"#utility.yul\":13935:13944   */\n      dup4\n        /* \"#utility.yul\":13931:13948   */\n      add\n        /* \"#utility.yul\":13924:13971   */\n      mstore\n        /* \"#utility.yul\":13988:14119   */\n      tag_262\n        /* \"#utility.yul\":14114:14118   */\n      dup2\n        /* \"#utility.yul\":13988:14119   */\n      tag_113\n      jump\t// in\n    tag_262:\n        /* \"#utility.yul\":13980:14119   */\n      swap1\n      pop\n        /* \"#utility.yul\":13707:14126   */\n      swap2\n      swap1\n      pop\n      jump\t// out\n        /* \"#utility.yul\":14132:14301   */\n    tag_114:\n        /* \"#utility.yul\":14272:14293   */\n      0x55736572206e6f74207265676973746572656400000000000000000000000000\n        /* \"#utility.yul\":14268:14269   */\n      0x00\n        /* \"#utility.yul\":14260:14266   */\n      dup3\n        /* \"#utility.yul\":14256:14270   */\n      add\n        /* \"#utility.yul\":14249:14294   */\n      mstore\n        /* \"#utility.yul\":14132:14301   */\n      pop\n      jump\t// out\n        /* \"#utility.yul\":14307:14673   */\n    tag_115:\n        /* \"#utility.yul\":14449:14452   */\n      0x00\n        /* \"#utility.yul\":14470:14537   */\n      tag_265\n        /* \"#utility.yul\":14534:14536   */\n      0x13\n        /* \"#utility.yul\":14529:14532   */\n      dup4\n        /* \"#utility.yul\":14470:14537   */\n      tag_81\n      jump\t// in\n    tag_265:\n        /* \"#utility.yul\":14463:14537   */\n      swap2\n      pop\n        /* \"#utility.yul\":14546:14639   */\n      tag_266\n        /* \"#utility.yul\":14635:14638   */\n      dup3\n        /* \"#utility.yul\":14546:14639   */\n      tag_114\n      jump\t// in\n    tag_266:\n        /* \"#utility.yul\":14664:14666   */\n      0x20\n        /* \"#utility.yul\":14659:14662   */\n      dup3\n        /* \"#utility.yul\":14655:14667   */\n      add\n        /* \"#utility.yul\":14648:14667   */\n      swap1\n      pop\n        /* \"#utility.yul\":14307:14673   */\n      swap2\n      swap1\n      pop\n      jump\t// out\n        /* \"#utility.yul\":14679:15098   */\n    tag_49:\n        /* \"#utility.yul\":14845:14849   */\n      0x00\n        /* \"#utility.yul\":14883:14885   */\n      0x20\n        /* \"#utility.yul\":14872:14881   */\n      dup3\n        /* \"#utility.yul\":14868:14886   */\n      add\n        /* \"#utility.yul\":14860:14886   */\n      swap1\n      pop\n        /* \"#utility.yul\":14932:14941   */\n      dup2\n        /* \"#utility.yul\":14926:14930   */\n      dup2\n        /* \"#utility.yul\":14922:14942   */\n      sub\n        /* \"#utility.yul\":14918:14919   */\n      0x00\n        /* \"#utility.yul\":14907:14916   */\n      dup4\n        /* \"#utility.yul\":14903:14920   */\n      add\n        /* \"#utility.yul\":14896:14943   */\n      mstore\n        /* \"#utility.yul\":14960:15091   */\n      tag_268\n        /* \"#utility.yul\":15086:15090   */\n      dup2\n        /* \"#utility.yul\":14960:15091   */\n      tag_115\n      jump\t// in\n    tag_268:\n        /* \"#utility.yul\":14952:15091   */\n      swap1\n      pop\n        /* \"#utility.yul\":14679:15098   */\n      swap2\n      swap1\n      pop\n      jump\t// out\n        /* \"#utility.yul\":15104:15252   */\n    tag_116:\n        /* \"#utility.yul\":15206:15217   */\n      0x00\n        /* \"#utility.yul\":15243:15246   */\n      dup2\n        /* \"#utility.yul\":15228:15246   */\n      swap1\n      pop\n        /* \"#utility.yul\":15104:15252   */\n      swap3\n      swap2\n      pop\n      pop\n      jump\t// out\n        /* \"#utility.yul\":15258:15648   */\n    tag_117:\n        /* \"#utility.yul\":15364:15367   */\n      0x00\n        /* \"#utility.yul\":15392:15431   */\n      tag_271\n        /* \"#utility.yul\":15425:15430   */\n      dup3\n        /* \"#utility.yul\":15392:15431   */\n      tag_80\n      jump\t// in\n    tag_271:\n        /* \"#utility.yul\":15447:15536   */\n      tag_272\n        /* \"#utility.yul\":15529:15535   */\n      dup2\n        /* \"#utility.yul\":15524:15527   */\n      dup6\n        /* \"#utility.yul\":15447:15536   */\n      tag_116\n      jump\t// in\n    tag_272:\n        /* \"#utility.yul\":15440:15536   */\n      swap4\n      pop\n        /* \"#utility.yul\":15545:15610   */\n      tag_273\n        /* \"#utility.yul\":15603:15609   */\n      dup2\n        /* \"#utility.yul\":15598:15601   */\n      dup6\n        /* \"#utility.yul\":15591:15595   */\n      0x20\n        /* \"#utility.yul\":15584:15589   */\n      dup7\n        /* \"#utility.yul\":15580:15596   */\n      add\n        /* \"#utility.yul\":15545:15610   */\n      tag_82\n      jump\t// in\n    tag_273:\n        /* \"#utility.yul\":15635:15641   */\n      dup1\n        /* \"#utility.yul\":15630:15633   */\n      dup5\n        /* \"#utility.yul\":15626:15642   */\n      add\n        /* \"#utility.yul\":15619:15642   */\n      swap2\n      pop\n        /* \"#utility.yul\":15368:15648   */\n      pop\n        /* \"#utility.yul\":15258:15648   */\n      swap3\n      swap2\n      pop\n      pop\n      jump\t// out\n        /* \"#utility.yul\":15654:15929   */\n    tag_53:\n        /* \"#utility.yul\":15786:15789   */\n      0x00\n        /* \"#utility.yul\":15808:15903   */\n      tag_275\n        /* \"#utility.yul\":15899:15902   */\n      dup3\n        /* \"#utility.yul\":15890:15896   */\n      dup5\n        /* \"#utility.yul\":15808:15903   */\n      tag_117\n      jump\t// in\n    tag_275:\n        /* \"#utility.yul\":15801:15903   */\n      swap2\n      pop\n        /* \"#utility.yul\":15920:15923   */\n      dup2\n        /* \"#utility.yul\":15913:15923   */\n      swap1\n      pop\n        /* \"#utility.yul\":15654:15929   */\n      swap3\n      swap2\n      pop\n      pop\n      jump\t// out\n\n    auxdata: 0xa26469706673582212202769602a8342fd164239728b1181b31e0ea4968e7565af15eab4e8ade99c41d864736f6c634300081e0033\n}\n",
				"bytecode": {
					"linkReferences": {},
					"object": "6080604052348015600e575f5ffd5b50610e6a8061001c5f395ff3fe608060405234801561000f575f5ffd5b506004361061003f575f3560e01c80633ffbd47f146100435780636e3b47fc1461005f578063b34e97e81461007d575b5f5ffd5b61005d60048036038101906100589190610790565b61009c565b005b6100676102c2565b6040516100749190610866565b60405180910390f35b6100856103a9565b6040516100939291906108a0565b60405180910390f35b5f5f3373ffffffffffffffffffffffffffffffffffffffff1673ffffffffffffffffffffffffffffffffffffffff1681526020019081526020015f2060010160019054906101000a900460ff1615610129576040517f08c379a000000000000000000000000000000000000000000000000000000000815260040161012090610918565b60405180910390fd5b5f6101338261049b565b90505f600281111561014857610147610936565b5b81600281111561015b5761015a610936565b5b0361019b576040517f08c379a0000000000000000000000000000000000000000000000000000000008152600401610192906109ad565b60405180910390fd5b60405180606001604052808481526020018260028111156101bf576101be610936565b5b8152602001600115158152505f5f3373ffffffffffffffffffffffffffffffffffffffff1673ffffffffffffffffffffffffffffffffffffffff1681526020019081526020015f205f820151815f01908161021a9190610bd1565b506020820151816001015f6101000a81548160ff0219169083600281111561024557610244610936565b5b021790555060408201518160010160016101000a81548160ff0219169083151502179055509050503373ffffffffffffffffffffffffffffffffffffffff167fc2e5d5da58bd71d1a2d14cdef02a4256d971b728088f8190d067ccfbae3bd73e84836040516102b5929190610ce6565b60405180910390a2505050565b60605f5f3373ffffffffffffffffffffffffffffffffffffffff1673ffffffffffffffffffffffffffffffffffffffff1681526020019081526020015f2060010160019054906101000a900460ff16610350576040517f08c379a000000000000000000000000000000000000000000000000000000000815260040161034790610d5e565b60405180910390fd5b6103a45f5f3373ffffffffffffffffffffffffffffffffffffffff1673ffffffffffffffffffffffffffffffffffffffff1681526020019081526020015f206001015f9054906101000a900460ff16610532565b905090565b5f60605f5f3373ffffffffffffffffffffffffffffffffffffffff1673ffffffffffffffffffffffffffffffffffffffff1681526020019081526020015f2060010160019054906101000a900460ff16610438576040517f08c379a000000000000000000000000000000000000000000000000000000000815260040161042f90610dc6565b60405180910390fd5b5f61048d5f5f3373ffffffffffffffffffffffffffffffffffffffff1673ffffffffffffffffffffffffffffffffffffffff1681526020019081526020015f206001015f9054906101000a900460ff16610532565b905060018192509250509091565b5f5f826040516020016104ae9190610e1e565b6040516020818303038152906040528051906020012090507fe96c7ffef33869246069ebcb32bc72a59fb488c4893c9eb9b3306de7ba74f6d881036104f757600191505061052d565b7f57cfa32382416828aee86644cafefdbb1cde02d7764467b9d6062b5a1fd2b5a4810361052857600291505061052d565b5f9150505b919050565b60606001600281111561054857610547610936565b5b82600281111561055b5761055a610936565b5b0361059d576040518060400160405280600581526020017f646f6e6f72000000000000000000000000000000000000000000000000000000815250905061063e565b6002808111156105b0576105af610936565b5b8260028111156105c3576105c2610936565b5b03610605576040518060400160405280600981526020017f636f6c6c6563746f720000000000000000000000000000000000000000000000815250905061063e565b6040518060400160405280600481526020017f6e6f6e650000000000000000000000000000000000000000000000000000000081525090505b919050565b5f604051905090565b5f5ffd5b5f5ffd5b5f5ffd5b5f5ffd5b5f601f19601f8301169050919050565b7f4e487b71000000000000000000000000000000000000000000000000000000005f52604160045260245ffd5b6106a28261065c565b810181811067ffffffffffffffff821117156106c1576106c061066c565b5b80604052505050565b5f6106d3610643565b90506106df8282610699565b919050565b5f67ffffffffffffffff8211156106fe576106fd61066c565b5b6107078261065c565b9050602081019050919050565b828183375f83830152505050565b5f61073461072f846106e4565b6106ca565b9050828152602081018484840111156107505761074f610658565b5b61075b848285610714565b509392505050565b5f82601f83011261077757610776610654565b5b8135610787848260208601610722565b91505092915050565b5f5f604083850312156107a6576107a561064c565b5b5f83013567ffffffffffffffff8111156107c3576107c2610650565b5b6107cf85828601610763565b925050602083013567ffffffffffffffff8111156107f0576107ef610650565b5b6107fc85828601610763565b9150509250929050565b5f81519050919050565b5f82825260208201905092915050565b8281835e5f83830152505050565b5f61083882610806565b6108428185610810565b9350610852818560208601610820565b61085b8161065c565b840191505092915050565b5f6020820190508181035f83015261087e818461082e565b905092915050565b5f8115159050919050565b61089a81610886565b82525050565b5f6040820190506108b35f830185610891565b81810360208301526108c5818461082e565b90509392505050565b7f416c7265616479207265676973746572656400000000000000000000000000005f82015250565b5f610902601283610810565b915061090d826108ce565b602082019050919050565b5f6020820190508181035f83015261092f816108f6565b9050919050565b7f4e487b71000000000000000000000000000000000000000000000000000000005f52602160045260245ffd5b7f496e76616c696420726f6c6500000000000000000000000000000000000000005f82015250565b5f610997600c83610810565b91506109a282610963565b602082019050919050565b5f6020820190508181035f8301526109c48161098b565b9050919050565b7f4e487b71000000000000000000000000000000000000000000000000000000005f52602260045260245ffd5b5f6002820490506001821680610a0f57607f821691505b602082108103610a2257610a216109cb565b5b50919050565b5f819050815f5260205f209050919050565b5f6020601f8301049050919050565b5f82821b905092915050565b5f60088302610a847fffffffffffffffffffffffffffffffffffffffffffffffffffffffffffffffff82610a49565b610a8e8683610a49565b95508019841693508086168417925050509392505050565b5f819050919050565b5f819050919050565b5f610ad2610acd610ac884610aa6565b610aaf565b610aa6565b9050919050565b5f819050919050565b610aeb83610ab8565b610aff610af782610ad9565b848454610a55565b825550505050565b5f5f905090565b610b16610b07565b610b21818484610ae2565b505050565b5b81811015610b4457610b395f82610b0e565b600181019050610b27565b5050565b601f821115610b8957610b5a81610a28565b610b6384610a3a565b81016020851015610b72578190505b610b86610b7e85610a3a565b830182610b26565b50505b505050565b5f82821c905092915050565b5f610ba95f1984600802610b8e565b1980831691505092915050565b5f610bc18383610b9a565b9150826002028217905092915050565b610bda82610806565b67ffffffffffffffff811115610bf357610bf261066c565b5b610bfd82546109f8565b610c08828285610b48565b5f60209050601f831160018114610c39575f8415610c27578287015190505b610c318582610bb6565b865550610c98565b601f198416610c4786610a28565b5f5b82811015610c6e57848901518255600182019150602085019450602081019050610c49565b86831015610c8b5784890151610c87601f891682610b9a565b8355505b6001600288020188555050505b505050505050565b60038110610cb157610cb0610936565b5b50565b5f819050610cc182610ca0565b919050565b5f610cd082610cb4565b9050919050565b610ce081610cc6565b82525050565b5f6040820190508181035f830152610cfe818561082e565b9050610d0d6020830184610cd7565b9392505050565b7f4e6f7420726567697374657265640000000000000000000000000000000000005f82015250565b5f610d48600e83610810565b9150610d5382610d14565b602082019050919050565b5f6020820190508181035f830152610d7581610d3c565b9050919050565b7f55736572206e6f742072656769737465726564000000000000000000000000005f82015250565b5f610db0601383610810565b9150610dbb82610d7c565b602082019050919050565b5f6020820190508181035f830152610ddd81610da4565b9050919050565b5f81905092915050565b5f610df882610806565b610e028185610de4565b9350610e12818560208601610820565b80840191505092915050565b5f610e298284610dee565b91508190509291505056fea26469706673582212202769602a8342fd164239728b1181b31e0ea4968e7565af15eab4e8ade99c41d864736f6c634300081e0033",
					"opcodes": "PUSH1 0x80 PUSH1 0x40 MSTORE CALLVALUE DUP1 ISZERO PUSH1 0xE JUMPI PUSH0 PUSH0 REVERT JUMPDEST POP PUSH2 0xE6A DUP1 PUSH2 0x1C PUSH0 CODECOPY PUSH0 RETURN INVALID PUSH1 0x80 PUSH1 0x40 MSTORE CALLVALUE DUP1 ISZERO PUSH2 0xF JUMPI PUSH0 PUSH0 REVERT JUMPDEST POP PUSH1 0x4 CALLDATASIZE LT PUSH2 0x3F JUMPI PUSH0 CALLDATALOAD PUSH1 0xE0 SHR DUP1 PUSH4 0x3FFBD47F EQ PUSH2 0x43 JUMPI DUP1 PUSH4 0x6E3B47FC EQ PUSH2 0x5F JUMPI DUP1 PUSH4 0xB34E97E8 EQ PUSH2 0x7D JUMPI JUMPDEST PUSH0 PUSH0 REVERT JUMPDEST PUSH2 0x5D PUSH1 0x4 DUP1 CALLDATASIZE SUB DUP2 ADD SWAP1 PUSH2 0x58 SWAP2 SWAP1 PUSH2 0x790 JUMP JUMPDEST PUSH2 0x9C JUMP JUMPDEST STOP JUMPDEST PUSH2 0x67 PUSH2 0x2C2 JUMP JUMPDEST PUSH1 0x40 MLOAD PUSH2 0x74 SWAP2 SWAP1 PUSH2 0x866 JUMP JUMPDEST PUSH1 0x40 MLOAD DUP1 SWAP2 SUB SWAP1 RETURN JUMPDEST PUSH2 0x85 PUSH2 0x3A9 JUMP JUMPDEST PUSH1 0x40 MLOAD PUSH2 0x93 SWAP3 SWAP2 SWAP1 PUSH2 0x8A0 JUMP JUMPDEST PUSH1 0x40 MLOAD DUP1 SWAP2 SUB SWAP1 RETURN JUMPDEST PUSH0 PUSH0 CALLER PUSH20 0xFFFFFFFFFFFFFFFFFFFFFFFFFFFFFFFFFFFFFFFF AND PUSH20 0xFFFFFFFFFFFFFFFFFFFFFFFFFFFFFFFFFFFFFFFF AND DUP2 MSTORE PUSH1 0x20 ADD SWAP1 DUP2 MSTORE PUSH1 0x20 ADD PUSH0 KECCAK256 PUSH1 0x1 ADD PUSH1 0x1 SWAP1 SLOAD SWAP1 PUSH2 0x100 EXP SWAP1 DIV PUSH1 0xFF AND ISZERO PUSH2 0x129 JUMPI PUSH1 0x40 MLOAD PUSH32 0x8C379A000000000000000000000000000000000000000000000000000000000 DUP2 MSTORE PUSH1 0x4 ADD PUSH2 0x120 SWAP1 PUSH2 0x918 JUMP JUMPDEST PUSH1 0x40 MLOAD DUP1 SWAP2 SUB SWAP1 REVERT JUMPDEST PUSH0 PUSH2 0x133 DUP3 PUSH2 0x49B JUMP JUMPDEST SWAP1 POP PUSH0 PUSH1 0x2 DUP2 GT ISZERO PUSH2 0x148 JUMPI PUSH2 0x147 PUSH2 0x936 JUMP JUMPDEST JUMPDEST DUP2 PUSH1 0x2 DUP2 GT ISZERO PUSH2 0x15B JUMPI PUSH2 0x15A PUSH2 0x936 JUMP JUMPDEST JUMPDEST SUB PUSH2 0x19B JUMPI PUSH1 0x40 MLOAD PUSH32 0x8C379A000000000000000000000000000000000000000000000000000000000 DUP2 MSTORE PUSH1 0x4 ADD PUSH2 0x192 SWAP1 PUSH2 0x9AD JUMP JUMPDEST PUSH1 0x40 MLOAD DUP1 SWAP2 SUB SWAP1 REVERT JUMPDEST PUSH1 0x40 MLOAD DUP1 PUSH1 0x60 ADD PUSH1 0x40 MSTORE DUP1 DUP5 DUP2 MSTORE PUSH1 0x20 ADD DUP3 PUSH1 0x2 DUP2 GT ISZERO PUSH2 0x1BF JUMPI PUSH2 0x1BE PUSH2 0x936 JUMP JUMPDEST JUMPDEST DUP2 MSTORE PUSH1 0x20 ADD PUSH1 0x1 ISZERO ISZERO DUP2 MSTORE POP PUSH0 PUSH0 CALLER PUSH20 0xFFFFFFFFFFFFFFFFFFFFFFFFFFFFFFFFFFFFFFFF AND PUSH20 0xFFFFFFFFFFFFFFFFFFFFFFFFFFFFFFFFFFFFFFFF AND DUP2 MSTORE PUSH1 0x20 ADD SWAP1 DUP2 MSTORE PUSH1 0x20 ADD PUSH0 KECCAK256 PUSH0 DUP3 ADD MLOAD DUP2 PUSH0 ADD SWAP1 DUP2 PUSH2 0x21A SWAP2 SWAP1 PUSH2 0xBD1 JUMP JUMPDEST POP PUSH1 0x20 DUP3 ADD MLOAD DUP2 PUSH1 0x1 ADD PUSH0 PUSH2 0x100 EXP DUP2 SLOAD DUP2 PUSH1 0xFF MUL NOT AND SWAP1 DUP4 PUSH1 0x2 DUP2 GT ISZERO PUSH2 0x245 JUMPI PUSH2 0x244 PUSH2 0x936 JUMP JUMPDEST JUMPDEST MUL OR SWAP1 SSTORE POP PUSH1 0x40 DUP3 ADD MLOAD DUP2 PUSH1 0x1 ADD PUSH1 0x1 PUSH2 0x100 EXP DUP2 SLOAD DUP2 PUSH1 0xFF MUL NOT AND SWAP1 DUP4 ISZERO ISZERO MUL OR SWAP1 SSTORE POP SWAP1 POP POP CALLER PUSH20 0xFFFFFFFFFFFFFFFFFFFFFFFFFFFFFFFFFFFFFFFF AND PUSH32 0xC2E5D5DA58BD71D1A2D14CDEF02A4256D971B728088F8190D067CCFBAE3BD73E DUP5 DUP4 PUSH1 0x40 MLOAD PUSH2 0x2B5 SWAP3 SWAP2 SWAP1 PUSH2 0xCE6 JUMP JUMPDEST PUSH1 0x40 MLOAD DUP1 SWAP2 SUB SWAP1 LOG2 POP POP POP JUMP JUMPDEST PUSH1 0x60 PUSH0 PUSH0 CALLER PUSH20 0xFFFFFFFFFFFFFFFFFFFFFFFFFFFFFFFFFFFFFFFF AND PUSH20 0xFFFFFFFFFFFFFFFFFFFFFFFFFFFFFFFFFFFFFFFF AND DUP2 MSTORE PUSH1 0x20 ADD SWAP1 DUP2 MSTORE PUSH1 0x20 ADD PUSH0 KECCAK256 PUSH1 0x1 ADD PUSH1 0x1 SWAP1 SLOAD SWAP1 PUSH2 0x100 EXP SWAP1 DIV PUSH1 0xFF AND PUSH2 0x350 JUMPI PUSH1 0x40 MLOAD PUSH32 0x8C379A000000000000000000000000000000000000000000000000000000000 DUP2 MSTORE PUSH1 0x4 ADD PUSH2 0x347 SWAP1 PUSH2 0xD5E JUMP JUMPDEST PUSH1 0x40 MLOAD DUP1 SWAP2 SUB SWAP1 REVERT JUMPDEST PUSH2 0x3A4 PUSH0 PUSH0 CALLER PUSH20 0xFFFFFFFFFFFFFFFFFFFFFFFFFFFFFFFFFFFFFFFF AND PUSH20 0xFFFFFFFFFFFFFFFFFFFFFFFFFFFFFFFFFFFFFFFF AND DUP2 MSTORE PUSH1 0x20 ADD SWAP1 DUP2 MSTORE PUSH1 0x20 ADD PUSH0 KECCAK256 PUSH1 0x1 ADD PUSH0 SWAP1 SLOAD SWAP1 PUSH2 0x100 EXP SWAP1 DIV PUSH1 0xFF AND PUSH2 0x532 JUMP JUMPDEST SWAP1 POP SWAP1 JUMP JUMPDEST PUSH0 PUSH1 0x60 PUSH0 PUSH0 CALLER PUSH20 0xFFFFFFFFFFFFFFFFFFFFFFFFFFFFFFFFFFFFFFFF AND PUSH20 0xFFFFFFFFFFFFFFFFFFFFFFFFFFFFFFFFFFFFFFFF AND DUP2 MSTORE PUSH1 0x20 ADD SWAP1 DUP2 MSTORE PUSH1 0x20 ADD PUSH0 KECCAK256 PUSH1 0x1 ADD PUSH1 0x1 SWAP1 SLOAD SWAP1 PUSH2 0x100 EXP SWAP1 DIV PUSH1 0xFF AND PUSH2 0x438 JUMPI PUSH1 0x40 MLOAD PUSH32 0x8C379A000000000000000000000000000000000000000000000000000000000 DUP2 MSTORE PUSH1 0x4 ADD PUSH2 0x42F SWAP1 PUSH2 0xDC6 JUMP JUMPDEST PUSH1 0x40 MLOAD DUP1 SWAP2 SUB SWAP1 REVERT JUMPDEST PUSH0 PUSH2 0x48D PUSH0 PUSH0 CALLER PUSH20 0xFFFFFFFFFFFFFFFFFFFFFFFFFFFFFFFFFFFFFFFF AND PUSH20 0xFFFFFFFFFFFFFFFFFFFFFFFFFFFFFFFFFFFFFFFF AND DUP2 MSTORE PUSH1 0x20 ADD SWAP1 DUP2 MSTORE PUSH1 0x20 ADD PUSH0 KECCAK256 PUSH1 0x1 ADD PUSH0 SWAP1 SLOAD SWAP1 PUSH2 0x100 EXP SWAP1 DIV PUSH1 0xFF AND PUSH2 0x532 JUMP JUMPDEST SWAP1 POP PUSH1 0x1 DUP2 SWAP3 POP SWAP3 POP POP SWAP1 SWAP2 JUMP JUMPDEST PUSH0 PUSH0 DUP3 PUSH1 0x40 MLOAD PUSH1 0x20 ADD PUSH2 0x4AE SWAP2 SWAP1 PUSH2 0xE1E JUMP JUMPDEST PUSH1 0x40 MLOAD PUSH1 0x20 DUP2 DUP4 SUB SUB DUP2 MSTORE SWAP1 PUSH1 0x40 MSTORE DUP1 MLOAD SWAP1 PUSH1 0x20 ADD KECCAK256 SWAP1 POP PUSH32 0xE96C7FFEF33869246069EBCB32BC72A59FB488C4893C9EB9B3306DE7BA74F6D8 DUP2 SUB PUSH2 0x4F7 JUMPI PUSH1 0x1 SWAP2 POP POP PUSH2 0x52D JUMP JUMPDEST PUSH32 0x57CFA32382416828AEE86644CAFEFDBB1CDE02D7764467B9D6062B5A1FD2B5A4 DUP2 SUB PUSH2 0x528 JUMPI PUSH1 0x2 SWAP2 POP POP PUSH2 0x52D JUMP JUMPDEST PUSH0 SWAP2 POP POP JUMPDEST SWAP2 SWAP1 POP JUMP JUMPDEST PUSH1 0x60 PUSH1 0x1 PUSH1 0x2 DUP2 GT ISZERO PUSH2 0x548 JUMPI PUSH2 0x547 PUSH2 0x936 JUMP JUMPDEST JUMPDEST DUP3 PUSH1 0x2 DUP2 GT ISZERO PUSH2 0x55B JUMPI PUSH2 0x55A PUSH2 0x936 JUMP JUMPDEST JUMPDEST SUB PUSH2 0x59D JUMPI PUSH1 0x40 MLOAD DUP1 PUSH1 0x40 ADD PUSH1 0x40 MSTORE DUP1 PUSH1 0x5 DUP2 MSTORE PUSH1 0x20 ADD PUSH32 0x646F6E6F72000000000000000000000000000000000000000000000000000000 DUP2 MSTORE POP SWAP1 POP PUSH2 0x63E JUMP JUMPDEST PUSH1 0x2 DUP1 DUP2 GT ISZERO PUSH2 0x5B0 JUMPI PUSH2 0x5AF PUSH2 0x936 JUMP JUMPDEST JUMPDEST DUP3 PUSH1 0x2 DUP2 GT ISZERO PUSH2 0x5C3 JUMPI PUSH2 0x5C2 PUSH2 0x936 JUMP JUMPDEST JUMPDEST SUB PUSH2 0x605 JUMPI PUSH1 0x40 MLOAD DUP1 PUSH1 0x40 ADD PUSH1 0x40 MSTORE DUP1 PUSH1 0x9 DUP2 MSTORE PUSH1 0x20 ADD PUSH32 0x636F6C6C6563746F720000000000000000000000000000000000000000000000 DUP2 MSTORE POP SWAP1 POP PUSH2 0x63E JUMP JUMPDEST PUSH1 0x40 MLOAD DUP1 PUSH1 0x40 ADD PUSH1 0x40 MSTORE DUP1 PUSH1 0x4 DUP2 MSTORE PUSH1 0x20 ADD PUSH32 0x6E6F6E6500000000000000000000000000000000000000000000000000000000 DUP2 MSTORE POP SWAP1 POP JUMPDEST SWAP2 SWAP1 POP JUMP JUMPDEST PUSH0 PUSH1 0x40 MLOAD SWAP1 POP SWAP1 JUMP JUMPDEST PUSH0 PUSH0 REVERT JUMPDEST PUSH0 PUSH0 REVERT JUMPDEST PUSH0 PUSH0 REVERT JUMPDEST PUSH0 PUSH0 REVERT JUMPDEST PUSH0 PUSH1 0x1F NOT PUSH1 0x1F DUP4 ADD AND SWAP1 POP SWAP2 SWAP1 POP JUMP JUMPDEST PUSH32 0x4E487B7100000000000000000000000000000000000000000000000000000000 PUSH0 MSTORE PUSH1 0x41 PUSH1 0x4 MSTORE PUSH1 0x24 PUSH0 REVERT JUMPDEST PUSH2 0x6A2 DUP3 PUSH2 0x65C JUMP JUMPDEST DUP2 ADD DUP2 DUP2 LT PUSH8 0xFFFFFFFFFFFFFFFF DUP3 GT OR ISZERO PUSH2 0x6C1 JUMPI PUSH2 0x6C0 PUSH2 0x66C JUMP JUMPDEST JUMPDEST DUP1 PUSH1 0x40 MSTORE POP POP POP JUMP JUMPDEST PUSH0 PUSH2 0x6D3 PUSH2 0x643 JUMP JUMPDEST SWAP1 POP PUSH2 0x6DF DUP3 DUP3 PUSH2 0x699 JUMP JUMPDEST SWAP2 SWAP1 POP JUMP JUMPDEST PUSH0 PUSH8 0xFFFFFFFFFFFFFFFF DUP3 GT ISZERO PUSH2 0x6FE JUMPI PUSH2 0x6FD PUSH2 0x66C JUMP JUMPDEST JUMPDEST PUSH2 0x707 DUP3 PUSH2 0x65C JUMP JUMPDEST SWAP1 POP PUSH1 0x20 DUP2 ADD SWAP1 POP SWAP2 SWAP1 POP JUMP JUMPDEST DUP3 DUP2 DUP4 CALLDATACOPY PUSH0 DUP4 DUP4 ADD MSTORE POP POP POP JUMP JUMPDEST PUSH0 PUSH2 0x734 PUSH2 0x72F DUP5 PUSH2 0x6E4 JUMP JUMPDEST PUSH2 0x6CA JUMP JUMPDEST SWAP1 POP DUP3 DUP2 MSTORE PUSH1 0x20 DUP2 ADD DUP5 DUP5 DUP5 ADD GT ISZERO PUSH2 0x750 JUMPI PUSH2 0x74F PUSH2 0x658 JUMP JUMPDEST JUMPDEST PUSH2 0x75B DUP5 DUP3 DUP6 PUSH2 0x714 JUMP JUMPDEST POP SWAP4 SWAP3 POP POP POP JUMP JUMPDEST PUSH0 DUP3 PUSH1 0x1F DUP4 ADD SLT PUSH2 0x777 JUMPI PUSH2 0x776 PUSH2 0x654 JUMP JUMPDEST JUMPDEST DUP2 CALLDATALOAD PUSH2 0x787 DUP5 DUP3 PUSH1 0x20 DUP7 ADD PUSH2 0x722 JUMP JUMPDEST SWAP2 POP POP SWAP3 SWAP2 POP POP JUMP JUMPDEST PUSH0 PUSH0 PUSH1 0x40 DUP4 DUP6 SUB SLT ISZERO PUSH2 0x7A6 JUMPI PUSH2 0x7A5 PUSH2 0x64C JUMP JUMPDEST JUMPDEST PUSH0 DUP4 ADD CALLDATALOAD PUSH8 0xFFFFFFFFFFFFFFFF DUP2 GT ISZERO PUSH2 0x7C3 JUMPI PUSH2 0x7C2 PUSH2 0x650 JUMP JUMPDEST JUMPDEST PUSH2 0x7CF DUP6 DUP3 DUP7 ADD PUSH2 0x763 JUMP JUMPDEST SWAP3 POP POP PUSH1 0x20 DUP4 ADD CALLDATALOAD PUSH8 0xFFFFFFFFFFFFFFFF DUP2 GT ISZERO PUSH2 0x7F0 JUMPI PUSH2 0x7EF PUSH2 0x650 JUMP JUMPDEST JUMPDEST PUSH2 0x7FC DUP6 DUP3 DUP7 ADD PUSH2 0x763 JUMP JUMPDEST SWAP2 POP POP SWAP3 POP SWAP3 SWAP1 POP JUMP JUMPDEST PUSH0 DUP2 MLOAD SWAP1 POP SWAP2 SWAP1 POP JUMP JUMPDEST PUSH0 DUP3 DUP3 MSTORE PUSH1 0x20 DUP3 ADD SWAP1 POP SWAP3 SWAP2 POP POP JUMP JUMPDEST DUP3 DUP2 DUP4 MCOPY PUSH0 DUP4 DUP4 ADD MSTORE POP POP POP JUMP JUMPDEST PUSH0 PUSH2 0x838 DUP3 PUSH2 0x806 JUMP JUMPDEST PUSH2 0x842 DUP2 DUP6 PUSH2 0x810 JUMP JUMPDEST SWAP4 POP PUSH2 0x852 DUP2 DUP6 PUSH1 0x20 DUP7 ADD PUSH2 0x820 JUMP JUMPDEST PUSH2 0x85B DUP2 PUSH2 0x65C JUMP JUMPDEST DUP5 ADD SWAP2 POP POP SWAP3 SWAP2 POP POP JUMP JUMPDEST PUSH0 PUSH1 0x20 DUP3 ADD SWAP1 POP DUP2 DUP2 SUB PUSH0 DUP4 ADD MSTORE PUSH2 0x87E DUP2 DUP5 PUSH2 0x82E JUMP JUMPDEST SWAP1 POP SWAP3 SWAP2 POP POP JUMP JUMPDEST PUSH0 DUP2 ISZERO ISZERO SWAP1 POP SWAP2 SWAP1 POP JUMP JUMPDEST PUSH2 0x89A DUP2 PUSH2 0x886 JUMP JUMPDEST DUP3 MSTORE POP POP JUMP JUMPDEST PUSH0 PUSH1 0x40 DUP3 ADD SWAP1 POP PUSH2 0x8B3 PUSH0 DUP4 ADD DUP6 PUSH2 0x891 JUMP JUMPDEST DUP2 DUP2 SUB PUSH1 0x20 DUP4 ADD MSTORE PUSH2 0x8C5 DUP2 DUP5 PUSH2 0x82E JUMP JUMPDEST SWAP1 POP SWAP4 SWAP3 POP POP POP JUMP JUMPDEST PUSH32 0x416C726561647920726567697374657265640000000000000000000000000000 PUSH0 DUP3 ADD MSTORE POP JUMP JUMPDEST PUSH0 PUSH2 0x902 PUSH1 0x12 DUP4 PUSH2 0x810 JUMP JUMPDEST SWAP2 POP PUSH2 0x90D DUP3 PUSH2 0x8CE JUMP JUMPDEST PUSH1 0x20 DUP3 ADD SWAP1 POP SWAP2 SWAP1 POP JUMP JUMPDEST PUSH0 PUSH1 0x20 DUP3 ADD SWAP1 POP DUP2 DUP2 SUB PUSH0 DUP4 ADD MSTORE PUSH2 0x92F DUP2 PUSH2 0x8F6 JUMP JUMPDEST SWAP1 POP SWAP2 SWAP1 POP JUMP JUMPDEST PUSH32 0x4E487B7100000000000000000000000000000000000000000000000000000000 PUSH0 MSTORE PUSH1 0x21 PUSH1 0x4 MSTORE PUSH1 0x24 PUSH0 REVERT JUMPDEST PUSH32 0x496E76616C696420726F6C650000000000000000000000000000000000000000 PUSH0 DUP3 ADD MSTORE POP JUMP JUMPDEST PUSH0 PUSH2 0x997 PUSH1 0xC DUP4 PUSH2 0x810 JUMP JUMPDEST SWAP2 POP PUSH2 0x9A2 DUP3 PUSH2 0x963 JUMP JUMPDEST PUSH1 0x20 DUP3 ADD SWAP1 POP SWAP2 SWAP1 POP JUMP JUMPDEST PUSH0 PUSH1 0x20 DUP3 ADD SWAP1 POP DUP2 DUP2 SUB PUSH0 DUP4 ADD MSTORE PUSH2 0x9C4 DUP2 PUSH2 0x98B JUMP JUMPDEST SWAP1 POP SWAP2 SWAP1 POP JUMP JUMPDEST PUSH32 0x4E487B7100000000000000000000000000000000000000000000000000000000 PUSH0 MSTORE PUSH1 0x22 PUSH1 0x4 MSTORE PUSH1 0x24 PUSH0 REVERT JUMPDEST PUSH0 PUSH1 0x2 DUP3 DIV SWAP1 POP PUSH1 0x1 DUP3 AND DUP1 PUSH2 0xA0F JUMPI PUSH1 0x7F DUP3 AND SWAP2 POP JUMPDEST PUSH1 0x20 DUP3 LT DUP2 SUB PUSH2 0xA22 JUMPI PUSH2 0xA21 PUSH2 0x9CB JUMP JUMPDEST JUMPDEST POP SWAP2 SWAP1 POP JUMP JUMPDEST PUSH0 DUP2 SWAP1 POP DUP2 PUSH0 MSTORE PUSH1 0x20 PUSH0 KECCAK256 SWAP1 POP SWAP2 SWAP1 POP JUMP JUMPDEST PUSH0 PUSH1 0x20 PUSH1 0x1F DUP4 ADD DIV SWAP1 POP SWAP2 SWAP1 POP JUMP JUMPDEST PUSH0 DUP3 DUP3 SHL SWAP1 POP SWAP3 SWAP2 POP POP JUMP JUMPDEST PUSH0 PUSH1 0x8 DUP4 MUL PUSH2 0xA84 PUSH32 0xFFFFFFFFFFFFFFFFFFFFFFFFFFFFFFFFFFFFFFFFFFFFFFFFFFFFFFFFFFFFFFFF DUP3 PUSH2 0xA49 JUMP JUMPDEST PUSH2 0xA8E DUP7 DUP4 PUSH2 0xA49 JUMP JUMPDEST SWAP6 POP DUP1 NOT DUP5 AND SWAP4 POP DUP1 DUP7 AND DUP5 OR SWAP3 POP POP POP SWAP4 SWAP3 POP POP POP JUMP JUMPDEST PUSH0 DUP2 SWAP1 POP SWAP2 SWAP1 POP JUMP JUMPDEST PUSH0 DUP2 SWAP1 POP SWAP2 SWAP1 POP JUMP JUMPDEST PUSH0 PUSH2 0xAD2 PUSH2 0xACD PUSH2 0xAC8 DUP5 PUSH2 0xAA6 JUMP JUMPDEST PUSH2 0xAAF JUMP JUMPDEST PUSH2 0xAA6 JUMP JUMPDEST SWAP1 POP SWAP2 SWAP1 POP JUMP JUMPDEST PUSH0 DUP2 SWAP1 POP SWAP2 SWAP1 POP JUMP JUMPDEST PUSH2 0xAEB DUP4 PUSH2 0xAB8 JUMP JUMPDEST PUSH2 0xAFF PUSH2 0xAF7 DUP3 PUSH2 0xAD9 JUMP JUMPDEST DUP5 DUP5 SLOAD PUSH2 0xA55 JUMP JUMPDEST DUP3 SSTORE POP POP POP POP JUMP JUMPDEST PUSH0 PUSH0 SWAP1 POP SWAP1 JUMP JUMPDEST PUSH2 0xB16 PUSH2 0xB07 JUMP JUMPDEST PUSH2 0xB21 DUP2 DUP5 DUP5 PUSH2 0xAE2 JUMP JUMPDEST POP POP POP JUMP JUMPDEST JUMPDEST DUP2 DUP2 LT ISZERO PUSH2 0xB44 JUMPI PUSH2 0xB39 PUSH0 DUP3 PUSH2 0xB0E JUMP JUMPDEST PUSH1 0x1 DUP2 ADD SWAP1 POP PUSH2 0xB27 JUMP JUMPDEST POP POP JUMP JUMPDEST PUSH1 0x1F DUP3 GT ISZERO PUSH2 0xB89 JUMPI PUSH2 0xB5A DUP2 PUSH2 0xA28 JUMP JUMPDEST PUSH2 0xB63 DUP5 PUSH2 0xA3A JUMP JUMPDEST DUP2 ADD PUSH1 0x20 DUP6 LT ISZERO PUSH2 0xB72 JUMPI DUP2 SWAP1 POP JUMPDEST PUSH2 0xB86 PUSH2 0xB7E DUP6 PUSH2 0xA3A JUMP JUMPDEST DUP4 ADD DUP3 PUSH2 0xB26 JUMP JUMPDEST POP POP JUMPDEST POP POP POP JUMP JUMPDEST PUSH0 DUP3 DUP3 SHR SWAP1 POP SWAP3 SWAP2 POP POP JUMP JUMPDEST PUSH0 PUSH2 0xBA9 PUSH0 NOT DUP5 PUSH1 0x8 MUL PUSH2 0xB8E JUMP JUMPDEST NOT DUP1 DUP4 AND SWAP2 POP POP SWAP3 SWAP2 POP POP JUMP JUMPDEST PUSH0 PUSH2 0xBC1 DUP4 DUP4 PUSH2 0xB9A JUMP JUMPDEST SWAP2 POP DUP3 PUSH1 0x2 MUL DUP3 OR SWAP1 POP SWAP3 SWAP2 POP POP JUMP JUMPDEST PUSH2 0xBDA DUP3 PUSH2 0x806 JUMP JUMPDEST PUSH8 0xFFFFFFFFFFFFFFFF DUP2 GT ISZERO PUSH2 0xBF3 JUMPI PUSH2 0xBF2 PUSH2 0x66C JUMP JUMPDEST JUMPDEST PUSH2 0xBFD DUP3 SLOAD PUSH2 0x9F8 JUMP JUMPDEST PUSH2 0xC08 DUP3 DUP3 DUP6 PUSH2 0xB48 JUMP JUMPDEST PUSH0 PUSH1 0x20 SWAP1 POP PUSH1 0x1F DUP4 GT PUSH1 0x1 DUP2 EQ PUSH2 0xC39 JUMPI PUSH0 DUP5 ISZERO PUSH2 0xC27 JUMPI DUP3 DUP8 ADD MLOAD SWAP1 POP JUMPDEST PUSH2 0xC31 DUP6 DUP3 PUSH2 0xBB6 JUMP JUMPDEST DUP7 SSTORE POP PUSH2 0xC98 JUMP JUMPDEST PUSH1 0x1F NOT DUP5 AND PUSH2 0xC47 DUP7 PUSH2 0xA28 JUMP JUMPDEST PUSH0 JUMPDEST DUP3 DUP2 LT ISZERO PUSH2 0xC6E JUMPI DUP5 DUP10 ADD MLOAD DUP3 SSTORE PUSH1 0x1 DUP3 ADD SWAP2 POP PUSH1 0x20 DUP6 ADD SWAP5 POP PUSH1 0x20 DUP2 ADD SWAP1 POP PUSH2 0xC49 JUMP JUMPDEST DUP7 DUP4 LT ISZERO PUSH2 0xC8B JUMPI DUP5 DUP10 ADD MLOAD PUSH2 0xC87 PUSH1 0x1F DUP10 AND DUP3 PUSH2 0xB9A JUMP JUMPDEST DUP4 SSTORE POP JUMPDEST PUSH1 0x1 PUSH1 0x2 DUP9 MUL ADD DUP9 SSTORE POP POP POP JUMPDEST POP POP POP POP POP POP JUMP JUMPDEST PUSH1 0x3 DUP2 LT PUSH2 0xCB1 JUMPI PUSH2 0xCB0 PUSH2 0x936 JUMP JUMPDEST JUMPDEST POP JUMP JUMPDEST PUSH0 DUP2 SWAP1 POP PUSH2 0xCC1 DUP3 PUSH2 0xCA0 JUMP JUMPDEST SWAP2 SWAP1 POP JUMP JUMPDEST PUSH0 PUSH2 0xCD0 DUP3 PUSH2 0xCB4 JUMP JUMPDEST SWAP1 POP SWAP2 SWAP1 POP JUMP JUMPDEST PUSH2 0xCE0 DUP2 PUSH2 0xCC6 JUMP JUMPDEST DUP3 MSTORE POP POP JUMP JUMPDEST PUSH0 PUSH1 0x40 DUP3 ADD SWAP1 POP DUP2 DUP2 SUB PUSH0 DUP4 ADD MSTORE PUSH2 0xCFE DUP2 DUP6 PUSH2 0x82E JUMP JUMPDEST SWAP1 POP PUSH2 0xD0D PUSH1 0x20 DUP4 ADD DUP5 PUSH2 0xCD7 JUMP JUMPDEST SWAP4 SWAP3 POP POP POP JUMP JUMPDEST PUSH32 0x4E6F742072656769737465726564000000000000000000000000000000000000 PUSH0 DUP3 ADD MSTORE POP JUMP JUMPDEST PUSH0 PUSH2 0xD48 PUSH1 0xE DUP4 PUSH2 0x810 JUMP JUMPDEST SWAP2 POP PUSH2 0xD53 DUP3 PUSH2 0xD14 JUMP JUMPDEST PUSH1 0x20 DUP3 ADD SWAP1 POP SWAP2 SWAP1 POP JUMP JUMPDEST PUSH0 PUSH1 0x20 DUP3 ADD SWAP1 POP DUP2 DUP2 SUB PUSH0 DUP4 ADD MSTORE PUSH2 0xD75 DUP2 PUSH2 0xD3C JUMP JUMPDEST SWAP1 POP SWAP2 SWAP1 POP JUMP JUMPDEST PUSH32 0x55736572206E6F74207265676973746572656400000000000000000000000000 PUSH0 DUP3 ADD MSTORE POP JUMP JUMPDEST PUSH0 PUSH2 0xDB0 PUSH1 0x13 DUP4 PUSH2 0x810 JUMP JUMPDEST SWAP2 POP PUSH2 0xDBB DUP3 PUSH2 0xD7C JUMP JUMPDEST PUSH1 0x20 DUP3 ADD SWAP1 POP SWAP2 SWAP1 POP JUMP JUMPDEST PUSH0 PUSH1 0x20 DUP3 ADD SWAP1 POP DUP2 DUP2 SUB PUSH0 DUP4 ADD MSTORE PUSH2 0xDDD DUP2 PUSH2 0xDA4 JUMP JUMPDEST SWAP1 POP SWAP2 SWAP1 POP JUMP JUMPDEST PUSH0 DUP2 SWAP1 POP SWAP3 SWAP2 POP POP JUMP JUMPDEST PUSH0 PUSH2 0xDF8 DUP3 PUSH2 0x806 JUMP JUMPDEST PUSH2 0xE02 DUP2 DUP6 PUSH2 0xDE4 JUMP JUMPDEST SWAP4 POP PUSH2 0xE12 DUP2 DUP6 PUSH1 0x20 DUP7 ADD PUSH2 0x820 JUMP JUMPDEST DUP1 DUP5 ADD SWAP2 POP POP SWAP3 SWAP2 POP POP JUMP JUMPDEST PUSH0 PUSH2 0xE29 DUP3 DUP5 PUSH2 0xDEE JUMP JUMPDEST SWAP2 POP DUP2 SWAP1 POP SWAP3 SWAP2 POP POP JUMP INVALID LOG2 PUSH5 0x6970667358 0x22 SLT KECCAK256 0x27 PUSH10 0x602A8342FD164239728B GT DUP2 0xB3 0x1E 0xE LOG4 SWAP7 DUP15 PUSH22 0x65AF15EAB4E8ADE99C41D864736F6C634300081E0033 "
				},
				"gasEstimates": {
					"creation": {
						"codeDepositCost": "738000",
						"executionCost": "771",
						"totalCost": "738771"
					},
					"external": {
						"getMyRole()": "infinite",
						"login()": "infinite",
						"register(string,string)": "infinite"
					},
					"internal": {
						"getRoleAsString(enum RoleBasedLogin.Role)": "infinite",
						"getRoleFromString(string memory)": "infinite"
					}
				},
				"methodIdentifiers": {
					"getMyRole()": "6e3b47fc",
					"login()": "b34e97e8",
					"register(string,string)": "3ffbd47f"
				}
			},
			"storageLayout": {
				"storage": [
					{
						"astId": 18,
						"contract": "contracts/rolebasedlogin.sol:RoleBasedLogin",
						"label": "users",
						"offset": 0,
						"slot": "0",
						"type": "t_mapping(t_address,t_struct(User)13_storage)"
					}
				],
				"types": {
					"t_address": {
						"encoding": "inplace",
						"label": "address",
						"numberOfBytes": "20"
					},
					"t_bool": {
						"encoding": "inplace",
						"label": "bool",
						"numberOfBytes": "1"
					},
					"t_enum(Role)5": {
						"encoding": "inplace",
						"label": "enum RoleBasedLogin.Role",
						"numberOfBytes": "1"
					},
					"t_mapping(t_address,t_struct(User)13_storage)": {
						"encoding": "mapping",
						"key": "t_address",
						"label": "mapping(address => struct RoleBasedLogin.User)",
						"numberOfBytes": "32",
						"value": "t_struct(User)13_storage"
					},
					"t_string_storage": {
						"encoding": "bytes",
						"label": "string",
						"numberOfBytes": "32"
					},
					"t_struct(User)13_storage": {
						"encoding": "inplace",
						"label": "struct RoleBasedLogin.User",
						"members": [
							{
								"astId": 7,
								"contract": "contracts/rolebasedlogin.sol:RoleBasedLogin",
								"label": "username",
								"offset": 0,
								"slot": "0",
								"type": "t_string_storage"
							},
							{
								"astId": 10,
								"contract": "contracts/rolebasedlogin.sol:RoleBasedLogin",
								"label": "role",
								"offset": 0,
								"slot": "1",
								"type": "t_enum(Role)5"
							},
							{
								"astId": 12,
								"contract": "contracts/rolebasedlogin.sol:RoleBasedLogin",
								"label": "isRegistered",
								"offset": 1,
								"slot": "1",
								"type": "t_bool"
							}
						],
						"numberOfBytes": "64"
					}
				}
			},
			"userdoc": {
				"kind": "user",
				"methods": {
					"getMyRole()": {
						"notice": "PUBLIC: Returns the role of the calling user in string form."
					},
					"login()": {
						"notice": "Simulates login. - Returns `true` and the user's role if registered."
					},
					"register(string,string)": {
						"notice": "Register a new user with a username and a role. - `_username`: display name for the user. - `_role`: must be either \"donor\" or \"collector\"."
					}
				},
				"version": 1
			}
		}
	}
}