{
	"contracts/donation.sol": {
		"DonationContract": {
			"abi": [
				{
					"inputs": [],
					"stateMutability": "nonpayable",
					"type": "constructor"
				},
				{
					"anonymous": false,
					"inputs": [
						{
							"indexed": false,
							"internalType": "uint256",
							"name": "donationID",
							"type": "uint256"
						},
						{
							"indexed": false,
							"internalType": "string",
							"name": "charity",
							"type": "string"
						},
						{
							"indexed": false,
							"internalType": "address",
							"name": "charityAdd",
							"type": "address"
						},
						{
							"indexed": false,
							"internalType": "address",
							"name": "donorAdd",
							"type": "address"
						},
						{
							"indexed": false,
							"internalType": "uint256",
							"name": "donationAmount",
							"type": "uint256"
						}
					],
					"name": "DonationCreated",
					"type": "event"
				},
				{
					"inputs": [
						{
							"internalType": "string",
							"name": "_charity",
							"type": "string"
						},
						{
							"internalType": "address",
							"name": "charityAdd",
							"type": "address"
						},
						{
							"internalType": "address",
							"name": "donorAdd",
							"type": "address"
						},
						{
							"internalType": "uint256",
							"name": "_donationAmount",
							"type": "uint256"
						}
					],
					"name": "donate",
					"outputs": [],
					"stateMutability": "payable",
					"type": "function"
				},
				{
					"inputs": [],
					"name": "donationCount",
					"outputs": [
						{
							"internalType": "uint256",
							"name": "",
							"type": "uint256"
						}
					],
					"stateMutability": "view",
					"type": "function"
				},
				{
					"inputs": [
						{
							"internalType": "uint256",
							"name": "",
							"type": "uint256"
						}
					],
					"name": "donations",
					"outputs": [
						{
							"internalType": "string",
							"name": "charity",
							"type": "string"
						},
						{
							"internalType": "address",
							"name": "charityAdd",
							"type": "address"
						},
						{
							"internalType": "address",
							"name": "donorAdd",
							"type": "address"
						},
						{
							"internalType": "uint256",
							"name": "donationAmount",
							"type": "uint256"
						}
					],
					"stateMutability": "view",
					"type": "function"
				},
				{
					"inputs": [
						{
							"internalType": "string",
							"name": "_charity",
							"type": "string"
						}
					],
					"name": "getDonationsByName",
					"outputs": [
						{
							"components": [
								{
									"internalType": "string",
									"name": "charity",
									"type": "string"
								},
								{
									"internalType": "address",
									"name": "charityAdd",
									"type": "address"
								},
								{
									"internalType": "address",
									"name": "donorAdd",
									"type": "address"
								},
								{
									"internalType": "uint256",
									"name": "donationAmount",
									"type": "uint256"
								}
							],
							"internalType": "struct DonationContract.Donation[]",
							"name": "",
							"type": "tuple[]"
						}
					],
					"stateMutability": "view",
					"type": "function"
				},
				{
					"inputs": [],
					"name": "owner",
					"outputs": [
						{
							"internalType": "address",
							"name": "",
							"type": "address"
						}
					],
					"stateMutability": "view",
					"type": "function"
				}
			],
			"devdoc": {
				"kind": "dev",
				"methods": {},
				"version": 1
			},
			"evm": {
				"assembly": "    /* \"contracts/donation.sol\":282:3055  contract DonationContract {... */\n  mstore(0x40, 0x80)\n    /* \"contracts/donation.sol\":1149:1339  constructor() {... */\n  callvalue\n  dup1\n  iszero\n  tag_1\n  jumpi\n  0x00\n  dup1\n  revert\ntag_1:\n  pop\n    /* \"contracts/donation.sol\":1211:1253  0xcD6a42782d230D7c13A74ddec5dD140e55499Df9 */\n  0xcd6a42782d230d7c13a74ddec5dd140e55499df9\n    /* \"contracts/donation.sol\":1183:1200  verifyContractAdd */\n  0x01\n  0x00\n    /* \"contracts/donation.sol\":1183:1254  verifyContractAdd = address(0xcD6a42782d230D7c13A74ddec5dD140e55499Df9) */\n  0x0100\n  exp\n  dup2\n  sload\n  dup2\n  0xffffffffffffffffffffffffffffffffffffffff\n  mul\n  not\n  and\n  swap1\n  dup4\n  0xffffffffffffffffffffffffffffffffffffffff\n  and\n  mul\n  or\n  swap1\n  sstore\n  pop\n    /* \"contracts/donation.sol\":1288:1330  0xb5465ED8EcD4F79dD4BE10A7C8e7a50664e5eeEB */\n  0xb5465ed8ecd4f79dd4be10a7c8e7a50664e5eeeb\n    /* \"contracts/donation.sol\":1265:1277  milestoneAdd */\n  0x02\n  0x00\n    /* \"contracts/donation.sol\":1265:1331  milestoneAdd = address(0xb5465ED8EcD4F79dD4BE10A7C8e7a50664e5eeEB) */\n  0x0100\n  exp\n  dup2\n  sload\n  dup2\n  0xffffffffffffffffffffffffffffffffffffffff\n  mul\n  not\n  and\n  swap1\n  dup4\n  0xffffffffffffffffffffffffffffffffffffffff\n  and\n  mul\n  or\n  swap1\n  sstore\n  pop\n    /* \"contracts/donation.sol\":282:3055  contract DonationContract {... */\n  dataSize(sub_0)\n  dup1\n  dataOffset(sub_0)\n  0x00\n  codecopy\n  0x00\n  return\nstop\n\nsub_0: assembly {\n        /* \"contracts/donation.sol\":282:3055  contract DonationContract {... */\n      mstore(0x40, 0x80)\n      jumpi(tag_1, lt(calldatasize, 0x04))\n      shr(0xe0, calldataload(0x00))\n      dup1\n      0x20894977\n      eq\n      tag_2\n      jumpi\n      dup1\n      0x2abfab4d\n      eq\n      tag_3\n      jumpi\n      dup1\n      0x8da5cb5b\n      eq\n      tag_4\n      jumpi\n      dup1\n      0xbf8c0325\n      eq\n      tag_5\n      jumpi\n      dup1\n      0xf8626af8\n      eq\n      tag_6\n      jumpi\n    tag_1:\n      0x00\n      dup1\n      revert\n        /* \"contracts/donation.sol\":2157:3050  function getDonationsByName(string memory _charity) public view returns (Donation[] memory) {... */\n    tag_2:\n      callvalue\n      dup1\n      iszero\n      tag_7\n      jumpi\n      0x00\n      dup1\n      revert\n    tag_7:\n      pop\n      tag_8\n      0x04\n      dup1\n      calldatasize\n      sub\n      dup2\n      add\n      swap1\n      tag_9\n      swap2\n      swap1\n      tag_10\n      jump\t// in\n    tag_9:\n      tag_11\n      jump\t// in\n    tag_8:\n      mload(0x40)\n      tag_12\n      swap2\n      swap1\n      tag_13\n      jump\t// in\n    tag_12:\n      mload(0x40)\n      dup1\n      swap2\n      sub\n      swap1\n      return\n        /* \"contracts/donation.sol\":862:890  uint256 public donationCount */\n    tag_3:\n      callvalue\n      dup1\n      iszero\n      tag_14\n      jumpi\n      0x00\n      dup1\n      revert\n    tag_14:\n      pop\n      tag_15\n      tag_16\n      jump\t// in\n    tag_15:\n      mload(0x40)\n      tag_17\n      swap2\n      swap1\n      tag_18\n      jump\t// in\n    tag_17:\n      mload(0x40)\n      dup1\n      swap2\n      sub\n      swap1\n      return\n        /* \"contracts/donation.sol\":354:374  address public owner */\n    tag_4:\n      callvalue\n      dup1\n      iszero\n      tag_19\n      jumpi\n      0x00\n      dup1\n      revert\n    tag_19:\n      pop\n      tag_20\n      tag_21\n      jump\t// in\n    tag_20:\n      mload(0x40)\n      tag_22\n      swap2\n      swap1\n      tag_23\n      jump\t// in\n    tag_22:\n      mload(0x40)\n      dup1\n      swap2\n      sub\n      swap1\n      return\n        /* \"contracts/donation.sol\":1351:2149  function donate(string memory _charity, address charityAdd, address donorAdd, uint _donationAmount) public payable  {... */\n    tag_5:\n      tag_24\n      0x04\n      dup1\n      calldatasize\n      sub\n      dup2\n      add\n      swap1\n      tag_25\n      swap2\n      swap1\n      tag_26\n      jump\t// in\n    tag_25:\n      tag_27\n      jump\t// in\n    tag_24:\n      stop\n        /* \"contracts/donation.sol\":738:784  mapping (uint256 => Donation) public donations */\n    tag_6:\n      callvalue\n      dup1\n      iszero\n      tag_28\n      jumpi\n      0x00\n      dup1\n      revert\n    tag_28:\n      pop\n      tag_29\n      0x04\n      dup1\n      calldatasize\n      sub\n      dup2\n      add\n      swap1\n      tag_30\n      swap2\n      swap1\n      tag_31\n      jump\t// in\n    tag_30:\n      tag_32\n      jump\t// in\n    tag_29:\n      mload(0x40)\n      tag_33\n      swap5\n      swap4\n      swap3\n      swap2\n      swap1\n      tag_34\n      jump\t// in\n    tag_33:\n      mload(0x40)\n      dup1\n      swap2\n      sub\n      swap1\n      return\n        /* \"contracts/donation.sol\":2157:3050  function getDonationsByName(string memory _charity) public view returns (Donation[] memory) {... */\n    tag_11:\n        /* \"contracts/donation.sol\":2230:2247  Donation[] memory */\n      0x60\n        /* \"contracts/donation.sol\":2260:2270  uint count */\n      0x00\n        /* \"contracts/donation.sol\":2346:2352  uint i */\n      dup1\n        /* \"contracts/donation.sol\":2355:2356  1 */\n      0x01\n        /* \"contracts/donation.sol\":2346:2356  uint i = 1 */\n      swap1\n      pop\n        /* \"contracts/donation.sol\":2341:2547  for (uint i = 1; i <= donationCount; i++) {... */\n    tag_36:\n        /* \"contracts/donation.sol\":2363:2376  donationCount */\n      sload(0x04)\n        /* \"contracts/donation.sol\":2358:2359  i */\n      dup2\n        /* \"contracts/donation.sol\":2358:2376  i <= donationCount */\n      gt\n        /* \"contracts/donation.sol\":2341:2547  for (uint i = 1; i <= donationCount; i++) {... */\n      tag_37\n      jumpi\n        /* \"contracts/donation.sol\":2482:2490  _charity */\n      dup4\n        /* \"contracts/donation.sol\":2465:2491  abi.encodePacked(_charity) */\n      add(0x20, mload(0x40))\n      tag_39\n      swap2\n      swap1\n      tag_40\n      jump\t// in\n    tag_39:\n      mload(0x40)\n      0x20\n      dup2\n      dup4\n      sub\n      sub\n      dup2\n      mstore\n      swap1\n      0x40\n      mstore\n        /* \"contracts/donation.sol\":2455:2492  keccak256(abi.encodePacked(_charity)) */\n      dup1\n      mload\n      swap1\n      0x20\n      add\n      keccak256\n        /* \"contracts/donation.sol\":2429:2438  donations */\n      0x03\n        /* \"contracts/donation.sol\":2429:2441  donations[i] */\n      0x00\n        /* \"contracts/donation.sol\":2439:2440  i */\n      dup4\n        /* \"contracts/donation.sol\":2429:2441  donations[i] */\n      dup2\n      mstore\n      0x20\n      add\n      swap1\n      dup2\n      mstore\n      0x20\n      add\n      0x00\n      keccak256\n        /* \"contracts/donation.sol\":2429:2449  donations[i].charity */\n      0x00\n      add\n        /* \"contracts/donation.sol\":2412:2450  abi.encodePacked(donations[i].charity) */\n      add(0x20, mload(0x40))\n      tag_41\n      swap2\n      swap1\n      tag_42\n      jump\t// in\n    tag_41:\n      mload(0x40)\n      0x20\n      dup2\n      dup4\n      sub\n      sub\n      dup2\n      mstore\n      swap1\n      0x40\n      mstore\n        /* \"contracts/donation.sol\":2402:2451  keccak256(abi.encodePacked(donations[i].charity)) */\n      dup1\n      mload\n      swap1\n      0x20\n      add\n      keccak256\n        /* \"contracts/donation.sol\":2402:2492  keccak256(abi.encodePacked(donations[i].charity)) == keccak256(abi.encodePacked(_charity)) */\n      sub\n        /* \"contracts/donation.sol\":2398:2536  if (keccak256(abi.encodePacked(donations[i].charity)) == keccak256(abi.encodePacked(_charity))) {... */\n      tag_43\n      jumpi\n        /* \"contracts/donation.sol\":2513:2520  count++ */\n      dup2\n      dup1\n      tag_44\n      swap1\n      tag_45\n      jump\t// in\n    tag_44:\n      swap3\n      pop\n      pop\n        /* \"contracts/donation.sol\":2398:2536  if (keccak256(abi.encodePacked(donations[i].charity)) == keccak256(abi.encodePacked(_charity))) {... */\n    tag_43:\n        /* \"contracts/donation.sol\":2378:2381  i++ */\n      dup1\n      dup1\n      tag_46\n      swap1\n      tag_45\n      jump\t// in\n    tag_46:\n      swap2\n      pop\n      pop\n        /* \"contracts/donation.sol\":2341:2547  for (uint i = 1; i <= donationCount; i++) {... */\n      jump(tag_36)\n    tag_37:\n      pop\n        /* \"contracts/donation.sol\":2622:2654  Donation[] memory donationsArray */\n      0x00\n        /* \"contracts/donation.sol\":2672:2677  count */\n      dup2\n        /* \"contracts/donation.sol\":2657:2678  new Donation[](count) */\n      0xffffffffffffffff\n      dup2\n      gt\n      iszero\n      tag_47\n      jumpi\n      tag_48\n      tag_49\n      jump\t// in\n    tag_48:\n    tag_47:\n      mload(0x40)\n      swap1\n      dup1\n      dup3\n      mstore\n      dup1\n      0x20\n      mul\n      0x20\n      add\n      dup3\n      add\n      0x40\n      mstore\n      dup1\n      iszero\n      tag_50\n      jumpi\n      dup2\n      0x20\n      add\n    tag_51:\n      tag_52\n      tag_53\n      jump\t// in\n    tag_52:\n      dup2\n      mstore\n      0x20\n      add\n      swap1\n      0x01\n      swap1\n      sub\n      swap1\n      dup2\n      tag_51\n      jumpi\n      swap1\n      pop\n    tag_50:\n      pop\n        /* \"contracts/donation.sol\":2622:2678  Donation[] memory donationsArray = new Donation[](count) */\n      swap1\n      pop\n        /* \"contracts/donation.sol\":2689:2699  uint index */\n      0x00\n        /* \"contracts/donation.sol\":2753:2759  uint i */\n      dup1\n        /* \"contracts/donation.sol\":2762:2763  1 */\n      0x01\n        /* \"contracts/donation.sol\":2753:2763  uint i = 1 */\n      swap1\n      pop\n        /* \"contracts/donation.sol\":2748:3009  for (uint i = 1; i <= donationCount; ++i) {... */\n    tag_54:\n        /* \"contracts/donation.sol\":2770:2783  donationCount */\n      sload(0x04)\n        /* \"contracts/donation.sol\":2765:2766  i */\n      dup2\n        /* \"contracts/donation.sol\":2765:2783  i <= donationCount */\n      gt\n        /* \"contracts/donation.sol\":2748:3009  for (uint i = 1; i <= donationCount; ++i) {... */\n      tag_55\n      jumpi\n        /* \"contracts/donation.sol\":2889:2897  _charity */\n      dup6\n        /* \"contracts/donation.sol\":2872:2898  abi.encodePacked(_charity) */\n      add(0x20, mload(0x40))\n      tag_57\n      swap2\n      swap1\n      tag_40\n      jump\t// in\n    tag_57:\n      mload(0x40)\n      0x20\n      dup2\n      dup4\n      sub\n      sub\n      dup2\n      mstore\n      swap1\n      0x40\n      mstore\n        /* \"contracts/donation.sol\":2862:2899  keccak256(abi.encodePacked(_charity)) */\n      dup1\n      mload\n      swap1\n      0x20\n      add\n      keccak256\n        /* \"contracts/donation.sol\":2836:2845  donations */\n      0x03\n        /* \"contracts/donation.sol\":2836:2848  donations[i] */\n      0x00\n        /* \"contracts/donation.sol\":2846:2847  i */\n      dup4\n        /* \"contracts/donation.sol\":2836:2848  donations[i] */\n      dup2\n      mstore\n      0x20\n      add\n      swap1\n      dup2\n      mstore\n      0x20\n      add\n      0x00\n      keccak256\n        /* \"contracts/donation.sol\":2836:2856  donations[i].charity */\n      0x00\n      add\n        /* \"contracts/donation.sol\":2819:2857  abi.encodePacked(donations[i].charity) */\n      add(0x20, mload(0x40))\n      tag_58\n      swap2\n      swap1\n      tag_42\n      jump\t// in\n    tag_58:\n      mload(0x40)\n      0x20\n      dup2\n      dup4\n      sub\n      sub\n      dup2\n      mstore\n      swap1\n      0x40\n      mstore\n        /* \"contracts/donation.sol\":2809:2858  keccak256(abi.encodePacked(donations[i].charity)) */\n      dup1\n      mload\n      swap1\n      0x20\n      add\n      keccak256\n        /* \"contracts/donation.sol\":2809:2899  keccak256(abi.encodePacked(donations[i].charity)) == keccak256(abi.encodePacked(_charity)) */\n      sub\n        /* \"contracts/donation.sol\":2805:2998  if (keccak256(abi.encodePacked(donations[i].charity)) == keccak256(abi.encodePacked(_charity))) {... */\n      tag_59\n      jumpi\n        /* \"contracts/donation.sol\":2944:2953  donations */\n      0x03\n        /* \"contracts/donation.sol\":2944:2956  donations[i] */\n      0x00\n        /* \"contracts/donation.sol\":2954:2955  i */\n      dup3\n        /* \"contracts/donation.sol\":2944:2956  donations[i] */\n      dup2\n      mstore\n      0x20\n      add\n      swap1\n      dup2\n      mstore\n      0x20\n      add\n      0x00\n      keccak256\n        /* \"contracts/donation.sol\":2920:2956  donationsArray[index] = donations[i] */\n      mload(0x40)\n      dup1\n      0x80\n      add\n      0x40\n      mstore\n      swap1\n      dup2\n      0x00\n      dup3\n      add\n      dup1\n      sload\n      tag_60\n      swap1\n      tag_61\n      jump\t// in\n    tag_60:\n      dup1\n      0x1f\n      add\n      0x20\n      dup1\n      swap2\n      div\n      mul\n      0x20\n      add\n      mload(0x40)\n      swap1\n      dup2\n      add\n      0x40\n      mstore\n      dup1\n      swap3\n      swap2\n      swap1\n      dup2\n      dup2\n      mstore\n      0x20\n      add\n      dup3\n      dup1\n      sload\n      tag_62\n      swap1\n      tag_61\n      jump\t// in\n    tag_62:\n      dup1\n      iszero\n      tag_63\n      jumpi\n      dup1\n      0x1f\n      lt\n      tag_64\n      jumpi\n      0x0100\n      dup1\n      dup4\n      sload\n      div\n      mul\n      dup4\n      mstore\n      swap2\n      0x20\n      add\n      swap2\n      jump(tag_63)\n    tag_64:\n      dup3\n      add\n      swap2\n      swap1\n      0x00\n      mstore\n      keccak256(0x00, 0x20)\n      swap1\n    tag_65:\n      dup2\n      sload\n      dup2\n      mstore\n      swap1\n      0x01\n      add\n      swap1\n      0x20\n      add\n      dup1\n      dup4\n      gt\n      tag_65\n      jumpi\n      dup3\n      swap1\n      sub\n      0x1f\n      and\n      dup3\n      add\n      swap2\n    tag_63:\n      pop\n      pop\n      pop\n      pop\n      pop\n      dup2\n      mstore\n      0x20\n      add\n      0x01\n      dup3\n      add\n      0x00\n      swap1\n      sload\n      swap1\n      0x0100\n      exp\n      swap1\n      div\n      0xffffffffffffffffffffffffffffffffffffffff\n      and\n      0xffffffffffffffffffffffffffffffffffffffff\n      and\n      0xffffffffffffffffffffffffffffffffffffffff\n      and\n      dup2\n      mstore\n      0x20\n      add\n      0x02\n      dup3\n      add\n      0x00\n      swap1\n      sload\n      swap1\n      0x0100\n      exp\n      swap1\n      div\n      0xffffffffffffffffffffffffffffffffffffffff\n      and\n      0xffffffffffffffffffffffffffffffffffffffff\n      and\n      0xffffffffffffffffffffffffffffffffffffffff\n      and\n      dup2\n      mstore\n      0x20\n      add\n      0x03\n      dup3\n      add\n      sload\n      dup2\n      mstore\n      pop\n      pop\n        /* \"contracts/donation.sol\":2920:2934  donationsArray */\n      dup4\n        /* \"contracts/donation.sol\":2935:2940  index */\n      dup4\n        /* \"contracts/donation.sol\":2920:2941  donationsArray[index] */\n      dup2\n      mload\n      dup2\n      lt\n      tag_66\n      jumpi\n      tag_67\n      tag_68\n      jump\t// in\n    tag_67:\n    tag_66:\n      0x20\n      mul\n      0x20\n      add\n      add\n        /* \"contracts/donation.sol\":2920:2956  donationsArray[index] = donations[i] */\n      dup2\n      swap1\n      mstore\n      pop\n        /* \"contracts/donation.sol\":2975:2982  index++ */\n      dup2\n      dup1\n      tag_69\n      swap1\n      tag_45\n      jump\t// in\n    tag_69:\n      swap3\n      pop\n      pop\n        /* \"contracts/donation.sol\":2805:2998  if (keccak256(abi.encodePacked(donations[i].charity)) == keccak256(abi.encodePacked(_charity))) {... */\n    tag_59:\n        /* \"contracts/donation.sol\":2785:2788  ++i */\n      dup1\n      tag_70\n      swap1\n      tag_45\n      jump\t// in\n    tag_70:\n      swap1\n      pop\n        /* \"contracts/donation.sol\":2748:3009  for (uint i = 1; i <= donationCount; ++i) {... */\n      jump(tag_54)\n    tag_55:\n      pop\n        /* \"contracts/donation.sol\":3028:3042  donationsArray */\n      dup2\n        /* \"contracts/donation.sol\":3021:3042  return donationsArray */\n      swap4\n      pop\n      pop\n      pop\n      pop\n        /* \"contracts/donation.sol\":2157:3050  function getDonationsByName(string memory _charity) public view returns (Donation[] memory) {... */\n      swap2\n      swap1\n      pop\n      jump\t// out\n        /* \"contracts/donation.sol\":862:890  uint256 public donationCount */\n    tag_16:\n      sload(0x04)\n      dup2\n      jump\t// out\n        /* \"contracts/donation.sol\":354:374  address public owner */\n    tag_21:\n      0x00\n      dup1\n      sload\n      swap1\n      0x0100\n      exp\n      swap1\n      div\n      0xffffffffffffffffffffffffffffffffffffffff\n      and\n      dup2\n      jump\t// out\n        /* \"contracts/donation.sol\":1351:2149  function donate(string memory _charity, address charityAdd, address donorAdd, uint _donationAmount) public payable  {... */\n    tag_27:\n        /* \"contracts/donation.sol\":1498:1515  verifyContractAdd */\n      0x01\n      0x00\n      swap1\n      sload\n      swap1\n      0x0100\n      exp\n      swap1\n      div\n      0xffffffffffffffffffffffffffffffffffffffff\n      and\n        /* \"contracts/donation.sol\":1483:1530  ICharityVerify(verifyContractAdd).verifyCharity */\n      0xffffffffffffffffffffffffffffffffffffffff\n      and\n      0xdd308cb8\n        /* \"contracts/donation.sol\":1531:1541  charityAdd */\n      dup5\n        /* \"contracts/donation.sol\":1543:1551  _charity */\n      dup7\n        /* \"contracts/donation.sol\":1483:1552  ICharityVerify(verifyContractAdd).verifyCharity(charityAdd, _charity) */\n      mload(0x40)\n      dup4\n      0xffffffff\n      and\n      0xe0\n      shl\n      dup2\n      mstore\n      0x04\n      add\n      tag_72\n      swap3\n      swap2\n      swap1\n      tag_73\n      jump\t// in\n    tag_72:\n      0x20\n      mload(0x40)\n      dup1\n      dup4\n      sub\n      dup2\n      dup7\n      gas\n      staticcall\n      iszero\n      dup1\n      iszero\n      tag_75\n      jumpi\n      returndatasize\n      0x00\n      dup1\n      returndatacopy\n      revert(0x00, returndatasize)\n    tag_75:\n      pop\n      pop\n      pop\n      pop\n      mload(0x40)\n      returndatasize\n      not(0x1f)\n      0x1f\n      dup3\n      add\n      and\n      dup3\n      add\n      dup1\n      0x40\n      mstore\n      pop\n      dup2\n      add\n      swap1\n      tag_76\n      swap2\n      swap1\n      tag_77\n      jump\t// in\n    tag_76:\n        /* \"contracts/donation.sol\":1478:1600  if(!(ICharityVerify(verifyContractAdd).verifyCharity(charityAdd, _charity))){... */\n      tag_78\n      jumpi\n        /* \"contracts/donation.sol\":1569:1588  revert(\"not valid\") */\n      mload(0x40)\n      0x08c379a000000000000000000000000000000000000000000000000000000000\n      dup2\n      mstore\n      0x04\n      add\n      tag_79\n      swap1\n      tag_80\n      jump\t// in\n    tag_79:\n      mload(0x40)\n      dup1\n      swap2\n      sub\n      swap1\n      revert\n        /* \"contracts/donation.sol\":1478:1600  if(!(ICharityVerify(verifyContractAdd).verifyCharity(charityAdd, _charity))){... */\n    tag_78:\n        /* \"contracts/donation.sol\":1623:1635  milestoneAdd */\n      0x02\n      0x00\n      swap1\n      sload\n      swap1\n      0x0100\n      exp\n      swap1\n      div\n      0xffffffffffffffffffffffffffffffffffffffff\n      and\n        /* \"contracts/donation.sol\":1612:1652  IMilestone(milestoneAdd).contributeFunds */\n      0xffffffffffffffffffffffffffffffffffffffff\n      and\n      0xf25d75e7\n        /* \"contracts/donation.sol\":1653:1661  _charity */\n      dup6\n        /* \"contracts/donation.sol\":1663:1678  _donationAmount */\n      dup4\n        /* \"contracts/donation.sol\":1612:1679  IMilestone(milestoneAdd).contributeFunds(_charity, _donationAmount) */\n      mload(0x40)\n      dup4\n      0xffffffff\n      and\n      0xe0\n      shl\n      dup2\n      mstore\n      0x04\n      add\n      tag_81\n      swap3\n      swap2\n      swap1\n      tag_82\n      jump\t// in\n    tag_81:\n      0x00\n      mload(0x40)\n      dup1\n      dup4\n      sub\n      dup2\n      0x00\n      dup8\n      dup1\n      extcodesize\n      iszero\n      dup1\n      iszero\n      tag_83\n      jumpi\n      0x00\n      dup1\n      revert\n    tag_83:\n      pop\n      gas\n      call\n      iszero\n      dup1\n      iszero\n      tag_85\n      jumpi\n      returndatasize\n      0x00\n      dup1\n      returndatacopy\n      revert(0x00, returndatasize)\n    tag_85:\n      pop\n      pop\n      pop\n      pop\n        /* \"contracts/donation.sol\":1769:1782  donationCount */\n      0x04\n      0x00\n        /* \"contracts/donation.sol\":1769:1784  donationCount++ */\n      dup2\n      sload\n      dup1\n      swap3\n      swap2\n      swap1\n      tag_86\n      swap1\n      tag_45\n      jump\t// in\n    tag_86:\n      swap2\n      swap1\n      pop\n      sstore\n      pop\n        /* \"contracts/donation.sol\":1911:1968  Donation(_charity, charityAdd, donorAdd, _donationAmount) */\n      mload(0x40)\n      dup1\n      0x80\n      add\n      0x40\n      mstore\n      dup1\n        /* \"contracts/donation.sol\":1920:1928  _charity */\n      dup6\n        /* \"contracts/donation.sol\":1911:1968  Donation(_charity, charityAdd, donorAdd, _donationAmount) */\n      dup2\n      mstore\n      0x20\n      add\n        /* \"contracts/donation.sol\":1930:1940  charityAdd */\n      dup5\n        /* \"contracts/donation.sol\":1911:1968  Donation(_charity, charityAdd, donorAdd, _donationAmount) */\n      0xffffffffffffffffffffffffffffffffffffffff\n      and\n      dup2\n      mstore\n      0x20\n      add\n        /* \"contracts/donation.sol\":1942:1950  donorAdd */\n      dup4\n        /* \"contracts/donation.sol\":1911:1968  Donation(_charity, charityAdd, donorAdd, _donationAmount) */\n      0xffffffffffffffffffffffffffffffffffffffff\n      and\n      dup2\n      mstore\n      0x20\n      add\n        /* \"contracts/donation.sol\":1952:1967  _donationAmount */\n      dup3\n        /* \"contracts/donation.sol\":1911:1968  Donation(_charity, charityAdd, donorAdd, _donationAmount) */\n      dup2\n      mstore\n      pop\n        /* \"contracts/donation.sol\":1884:1893  donations */\n      0x03\n        /* \"contracts/donation.sol\":1884:1908  donations[donationCount] */\n      0x00\n        /* \"contracts/donation.sol\":1894:1907  donationCount */\n      sload(0x04)\n        /* \"contracts/donation.sol\":1884:1908  donations[donationCount] */\n      dup2\n      mstore\n      0x20\n      add\n      swap1\n      dup2\n      mstore\n      0x20\n      add\n      0x00\n      keccak256\n        /* \"contracts/donation.sol\":1884:1968  donations[donationCount] = Donation(_charity, charityAdd, donorAdd, _donationAmount) */\n      0x00\n      dup3\n      add\n      mload\n      dup2\n      0x00\n      add\n      swap1\n      dup2\n      tag_87\n      swap2\n      swap1\n      tag_88\n      jump\t// in\n    tag_87:\n      pop\n      0x20\n      dup3\n      add\n      mload\n      dup2\n      0x01\n      add\n      exp(0x0100, 0x00)\n      dup2\n      sload\n      dup2\n      0xffffffffffffffffffffffffffffffffffffffff\n      mul\n      not\n      and\n      swap1\n      dup4\n      0xffffffffffffffffffffffffffffffffffffffff\n      and\n      mul\n      or\n      swap1\n      sstore\n      pop\n      0x40\n      dup3\n      add\n      mload\n      dup2\n      0x02\n      add\n      exp(0x0100, 0x00)\n      dup2\n      sload\n      dup2\n      0xffffffffffffffffffffffffffffffffffffffff\n      mul\n      not\n      and\n      swap1\n      dup4\n      0xffffffffffffffffffffffffffffffffffffffff\n      and\n      mul\n      or\n      swap1\n      sstore\n      pop\n      0x60\n      dup3\n      add\n      mload\n      dup2\n      0x03\n      add\n      sstore\n      swap1\n      pop\n      pop\n        /* \"contracts/donation.sol\":2062:2141  DonationCreated(donationCount, _charity, charityAdd, donorAdd, _donationAmount) */\n      0x879f7dd974eda17f1fccff5a63a47d118c632796970e5f357de16aa91c9eb796\n        /* \"contracts/donation.sol\":2078:2091  donationCount */\n      sload(0x04)\n        /* \"contracts/donation.sol\":2093:2101  _charity */\n      dup6\n        /* \"contracts/donation.sol\":2103:2113  charityAdd */\n      dup6\n        /* \"contracts/donation.sol\":2115:2123  donorAdd */\n      dup6\n        /* \"contracts/donation.sol\":2125:2140  _donationAmount */\n      dup6\n        /* \"contracts/donation.sol\":2062:2141  DonationCreated(donationCount, _charity, charityAdd, donorAdd, _donationAmount) */\n      mload(0x40)\n      tag_89\n      swap6\n      swap5\n      swap4\n      swap3\n      swap2\n      swap1\n      tag_90\n      jump\t// in\n    tag_89:\n      mload(0x40)\n      dup1\n      swap2\n      sub\n      swap1\n      log1\n        /* \"contracts/donation.sol\":1351:2149  function donate(string memory _charity, address charityAdd, address donorAdd, uint _donationAmount) public payable  {... */\n      pop\n      pop\n      pop\n      pop\n      jump\t// out\n        /* \"contracts/donation.sol\":738:784  mapping (uint256 => Donation) public donations */\n    tag_32:\n      mstore(0x20, 0x03)\n      dup1\n      0x00\n      mstore\n      keccak256(0x00, 0x40)\n      0x00\n      swap2\n      pop\n      swap1\n      pop\n      dup1\n      0x00\n      add\n      dup1\n      sload\n      tag_91\n      swap1\n      tag_61\n      jump\t// in\n    tag_91:\n      dup1\n      0x1f\n      add\n      0x20\n      dup1\n      swap2\n      div\n      mul\n      0x20\n      add\n      mload(0x40)\n      swap1\n      dup2\n      add\n      0x40\n      mstore\n      dup1\n      swap3\n      swap2\n      swap1\n      dup2\n      dup2\n      mstore\n      0x20\n      add\n      dup3\n      dup1\n      sload\n      tag_92\n      swap1\n      tag_61\n      jump\t// in\n    tag_92:\n      dup1\n      iszero\n      tag_93\n      jumpi\n      dup1\n      0x1f\n      lt\n      tag_94\n      jumpi\n      0x0100\n      dup1\n      dup4\n      sload\n      div\n      mul\n      dup4\n      mstore\n      swap2\n      0x20\n      add\n      swap2\n      jump(tag_93)\n    tag_94:\n      dup3\n      add\n      swap2\n      swap1\n      0x00\n      mstore\n      keccak256(0x00, 0x20)\n      swap1\n    tag_95:\n      dup2\n      sload\n      dup2\n      mstore\n      swap1\n      0x01\n      add\n      swap1\n      0x20\n      add\n      dup1\n      dup4\n      gt\n      tag_95\n      jumpi\n      dup3\n      swap1\n      sub\n      0x1f\n      and\n      dup3\n      add\n      swap2\n    tag_93:\n      pop\n      pop\n      pop\n      pop\n      pop\n      swap1\n      dup1\n      0x01\n      add\n      0x00\n      swap1\n      sload\n      swap1\n      0x0100\n      exp\n      swap1\n      div\n      0xffffffffffffffffffffffffffffffffffffffff\n      and\n      swap1\n      dup1\n      0x02\n      add\n      0x00\n      swap1\n      sload\n      swap1\n      0x0100\n      exp\n      swap1\n      div\n      0xffffffffffffffffffffffffffffffffffffffff\n      and\n      swap1\n      dup1\n      0x03\n      add\n      sload\n      swap1\n      pop\n      dup5\n      jump\t// out\n    tag_53:\n      mload(0x40)\n      dup1\n      0x80\n      add\n      0x40\n      mstore\n      dup1\n      0x60\n      dup2\n      mstore\n      0x20\n      add\n      and(0xffffffffffffffffffffffffffffffffffffffff, 0x00)\n      dup2\n      mstore\n      0x20\n      add\n      and(0xffffffffffffffffffffffffffffffffffffffff, 0x00)\n      dup2\n      mstore\n      0x20\n      add\n      0x00\n      dup2\n      mstore\n      pop\n      swap1\n      jump\t// out\n        /* \"#utility.yul\":7:82   */\n    tag_96:\n        /* \"#utility.yul\":40:46   */\n      0x00\n        /* \"#utility.yul\":73:75   */\n      0x40\n        /* \"#utility.yul\":67:76   */\n      mload\n        /* \"#utility.yul\":57:76   */\n      swap1\n      pop\n        /* \"#utility.yul\":7:82   */\n      swap1\n      jump\t// out\n        /* \"#utility.yul\":88:205   */\n    tag_97:\n        /* \"#utility.yul\":197:198   */\n      0x00\n        /* \"#utility.yul\":194:195   */\n      dup1\n        /* \"#utility.yul\":187:199   */\n      revert\n        /* \"#utility.yul\":211:328   */\n    tag_98:\n        /* \"#utility.yul\":320:321   */\n      0x00\n        /* \"#utility.yul\":317:318   */\n      dup1\n        /* \"#utility.yul\":310:322   */\n      revert\n        /* \"#utility.yul\":334:451   */\n    tag_99:\n        /* \"#utility.yul\":443:444   */\n      0x00\n        /* \"#utility.yul\":440:441   */\n      dup1\n        /* \"#utility.yul\":433:445   */\n      revert\n        /* \"#utility.yul\":457:574   */\n    tag_100:\n        /* \"#utility.yul\":566:567   */\n      0x00\n        /* \"#utility.yul\":563:564   */\n      dup1\n        /* \"#utility.yul\":556:568   */\n      revert\n        /* \"#utility.yul\":580:682   */\n    tag_101:\n        /* \"#utility.yul\":621:627   */\n      0x00\n        /* \"#utility.yul\":672:674   */\n      0x1f\n        /* \"#utility.yul\":668:675   */\n      not\n        /* \"#utility.yul\":663:665   */\n      0x1f\n        /* \"#utility.yul\":656:661   */\n      dup4\n        /* \"#utility.yul\":652:666   */\n      add\n        /* \"#utility.yul\":648:676   */\n      and\n        /* \"#utility.yul\":638:676   */\n      swap1\n      pop\n        /* \"#utility.yul\":580:682   */\n      swap2\n      swap1\n      pop\n      jump\t// out\n        /* \"#utility.yul\":688:868   */\n    tag_49:\n        /* \"#utility.yul\":736:813   */\n      0x4e487b7100000000000000000000000000000000000000000000000000000000\n        /* \"#utility.yul\":733:734   */\n      0x00\n        /* \"#utility.yul\":726:814   */\n      mstore\n        /* \"#utility.yul\":833:837   */\n      0x41\n        /* \"#utility.yul\":830:831   */\n      0x04\n        /* \"#utility.yul\":823:838   */\n      mstore\n        /* \"#utility.yul\":857:861   */\n      0x24\n        /* \"#utility.yul\":854:855   */\n      0x00\n        /* \"#utility.yul\":847:862   */\n      revert\n        /* \"#utility.yul\":874:1155   */\n    tag_102:\n        /* \"#utility.yul\":957:984   */\n      tag_166\n        /* \"#utility.yul\":979:983   */\n      dup3\n        /* \"#utility.yul\":957:984   */\n      tag_101\n      jump\t// in\n    tag_166:\n        /* \"#utility.yul\":949:955   */\n      dup2\n        /* \"#utility.yul\":945:985   */\n      add\n        /* \"#utility.yul\":1087:1093   */\n      dup2\n        /* \"#utility.yul\":1075:1085   */\n      dup2\n        /* \"#utility.yul\":1072:1094   */\n      lt\n        /* \"#utility.yul\":1051:1069   */\n      0xffffffffffffffff\n        /* \"#utility.yul\":1039:1049   */\n      dup3\n        /* \"#utility.yul\":1036:1070   */\n      gt\n        /* \"#utility.yul\":1033:1095   */\n      or\n        /* \"#utility.yul\":1030:1118   */\n      iszero\n      tag_167\n      jumpi\n        /* \"#utility.yul\":1098:1116   */\n      tag_168\n      tag_49\n      jump\t// in\n    tag_168:\n        /* \"#utility.yul\":1030:1118   */\n    tag_167:\n        /* \"#utility.yul\":1138:1148   */\n      dup1\n        /* \"#utility.yul\":1134:1136   */\n      0x40\n        /* \"#utility.yul\":1127:1149   */\n      mstore\n        /* \"#utility.yul\":917:1155   */\n      pop\n        /* \"#utility.yul\":874:1155   */\n      pop\n      pop\n      jump\t// out\n        /* \"#utility.yul\":1161:1290   */\n    tag_103:\n        /* \"#utility.yul\":1195:1201   */\n      0x00\n        /* \"#utility.yul\":1222:1242   */\n      tag_170\n      tag_96\n      jump\t// in\n    tag_170:\n        /* \"#utility.yul\":1212:1242   */\n      swap1\n      pop\n        /* \"#utility.yul\":1251:1284   */\n      tag_171\n        /* \"#utility.yul\":1279:1283   */\n      dup3\n        /* \"#utility.yul\":1271:1277   */\n      dup3\n        /* \"#utility.yul\":1251:1284   */\n      tag_102\n      jump\t// in\n    tag_171:\n        /* \"#utility.yul\":1161:1290   */\n      swap2\n      swap1\n      pop\n      jump\t// out\n        /* \"#utility.yul\":1296:1604   */\n    tag_104:\n        /* \"#utility.yul\":1358:1362   */\n      0x00\n        /* \"#utility.yul\":1448:1466   */\n      0xffffffffffffffff\n        /* \"#utility.yul\":1440:1446   */\n      dup3\n        /* \"#utility.yul\":1437:1467   */\n      gt\n        /* \"#utility.yul\":1434:1490   */\n      iszero\n      tag_173\n      jumpi\n        /* \"#utility.yul\":1470:1488   */\n      tag_174\n      tag_49\n      jump\t// in\n    tag_174:\n        /* \"#utility.yul\":1434:1490   */\n    tag_173:\n        /* \"#utility.yul\":1508:1537   */\n      tag_175\n        /* \"#utility.yul\":1530:1536   */\n      dup3\n        /* \"#utility.yul\":1508:1537   */\n      tag_101\n      jump\t// in\n    tag_175:\n        /* \"#utility.yul\":1500:1537   */\n      swap1\n      pop\n        /* \"#utility.yul\":1592:1596   */\n      0x20\n        /* \"#utility.yul\":1586:1590   */\n      dup2\n        /* \"#utility.yul\":1582:1597   */\n      add\n        /* \"#utility.yul\":1574:1597   */\n      swap1\n      pop\n        /* \"#utility.yul\":1296:1604   */\n      swap2\n      swap1\n      pop\n      jump\t// out\n        /* \"#utility.yul\":1610:1758   */\n    tag_105:\n        /* \"#utility.yul\":1708:1714   */\n      dup3\n        /* \"#utility.yul\":1703:1706   */\n      dup2\n        /* \"#utility.yul\":1698:1701   */\n      dup4\n        /* \"#utility.yul\":1685:1715   */\n      calldatacopy\n        /* \"#utility.yul\":1749:1750   */\n      0x00\n        /* \"#utility.yul\":1740:1746   */\n      dup4\n        /* \"#utility.yul\":1735:1738   */\n      dup4\n        /* \"#utility.yul\":1731:1747   */\n      add\n        /* \"#utility.yul\":1724:1751   */\n      mstore\n        /* \"#utility.yul\":1610:1758   */\n      pop\n      pop\n      pop\n      jump\t// out\n        /* \"#utility.yul\":1764:2189   */\n    tag_106:\n        /* \"#utility.yul\":1842:1847   */\n      0x00\n        /* \"#utility.yul\":1867:1933   */\n      tag_178\n        /* \"#utility.yul\":1883:1932   */\n      tag_179\n        /* \"#utility.yul\":1925:1931   */\n      dup5\n        /* \"#utility.yul\":1883:1932   */\n      tag_104\n      jump\t// in\n    tag_179:\n        /* \"#utility.yul\":1867:1933   */\n      tag_103\n      jump\t// in\n    tag_178:\n        /* \"#utility.yul\":1858:1933   */\n      swap1\n      pop\n        /* \"#utility.yul\":1956:1962   */\n      dup3\n        /* \"#utility.yul\":1949:1954   */\n      dup2\n        /* \"#utility.yul\":1942:1963   */\n      mstore\n        /* \"#utility.yul\":1994:1998   */\n      0x20\n        /* \"#utility.yul\":1987:1992   */\n      dup2\n        /* \"#utility.yul\":1983:1999   */\n      add\n        /* \"#utility.yul\":2032:2035   */\n      dup5\n        /* \"#utility.yul\":2023:2029   */\n      dup5\n        /* \"#utility.yul\":2018:2021   */\n      dup5\n        /* \"#utility.yul\":2014:2030   */\n      add\n        /* \"#utility.yul\":2011:2036   */\n      gt\n        /* \"#utility.yul\":2008:2120   */\n      iszero\n      tag_180\n      jumpi\n        /* \"#utility.yul\":2039:2118   */\n      tag_181\n      tag_100\n      jump\t// in\n    tag_181:\n        /* \"#utility.yul\":2008:2120   */\n    tag_180:\n        /* \"#utility.yul\":2129:2183   */\n      tag_182\n        /* \"#utility.yul\":2176:2182   */\n      dup5\n        /* \"#utility.yul\":2171:2174   */\n      dup3\n        /* \"#utility.yul\":2166:2169   */\n      dup6\n        /* \"#utility.yul\":2129:2183   */\n      tag_105\n      jump\t// in\n    tag_182:\n        /* \"#utility.yul\":1848:2189   */\n      pop\n        /* \"#utility.yul\":1764:2189   */\n      swap4\n      swap3\n      pop\n      pop\n      pop\n      jump\t// out\n        /* \"#utility.yul\":2209:2549   */\n    tag_107:\n        /* \"#utility.yul\":2265:2270   */\n      0x00\n        /* \"#utility.yul\":2314:2317   */\n      dup3\n        /* \"#utility.yul\":2307:2311   */\n      0x1f\n        /* \"#utility.yul\":2299:2305   */\n      dup4\n        /* \"#utility.yul\":2295:2312   */\n      add\n        /* \"#utility.yul\":2291:2318   */\n      slt\n        /* \"#utility.yul\":2281:2403   */\n      tag_184\n      jumpi\n        /* \"#utility.yul\":2322:2401   */\n      tag_185\n      tag_99\n      jump\t// in\n    tag_185:\n        /* \"#utility.yul\":2281:2403   */\n    tag_184:\n        /* \"#utility.yul\":2439:2445   */\n      dup2\n        /* \"#utility.yul\":2426:2446   */\n      calldataload\n        /* \"#utility.yul\":2464:2543   */\n      tag_186\n        /* \"#utility.yul\":2539:2542   */\n      dup5\n        /* \"#utility.yul\":2531:2537   */\n      dup3\n        /* \"#utility.yul\":2524:2528   */\n      0x20\n        /* \"#utility.yul\":2516:2522   */\n      dup7\n        /* \"#utility.yul\":2512:2529   */\n      add\n        /* \"#utility.yul\":2464:2543   */\n      tag_106\n      jump\t// in\n    tag_186:\n        /* \"#utility.yul\":2455:2543   */\n      swap2\n      pop\n        /* \"#utility.yul\":2271:2549   */\n      pop\n        /* \"#utility.yul\":2209:2549   */\n      swap3\n      swap2\n      pop\n      pop\n      jump\t// out\n        /* \"#utility.yul\":2555:3064   */\n    tag_10:\n        /* \"#utility.yul\":2624:2630   */\n      0x00\n        /* \"#utility.yul\":2673:2675   */\n      0x20\n        /* \"#utility.yul\":2661:2670   */\n      dup3\n        /* \"#utility.yul\":2652:2659   */\n      dup5\n        /* \"#utility.yul\":2648:2671   */\n      sub\n        /* \"#utility.yul\":2644:2676   */\n      slt\n        /* \"#utility.yul\":2641:2760   */\n      iszero\n      tag_188\n      jumpi\n        /* \"#utility.yul\":2679:2758   */\n      tag_189\n      tag_97\n      jump\t// in\n    tag_189:\n        /* \"#utility.yul\":2641:2760   */\n    tag_188:\n        /* \"#utility.yul\":2827:2828   */\n      0x00\n        /* \"#utility.yul\":2816:2825   */\n      dup3\n        /* \"#utility.yul\":2812:2829   */\n      add\n        /* \"#utility.yul\":2799:2830   */\n      calldataload\n        /* \"#utility.yul\":2857:2875   */\n      0xffffffffffffffff\n        /* \"#utility.yul\":2849:2855   */\n      dup2\n        /* \"#utility.yul\":2846:2876   */\n      gt\n        /* \"#utility.yul\":2843:2960   */\n      iszero\n      tag_190\n      jumpi\n        /* \"#utility.yul\":2879:2958   */\n      tag_191\n      tag_98\n      jump\t// in\n    tag_191:\n        /* \"#utility.yul\":2843:2960   */\n    tag_190:\n        /* \"#utility.yul\":2984:3047   */\n      tag_192\n        /* \"#utility.yul\":3039:3046   */\n      dup5\n        /* \"#utility.yul\":3030:3036   */\n      dup3\n        /* \"#utility.yul\":3019:3028   */\n      dup6\n        /* \"#utility.yul\":3015:3037   */\n      add\n        /* \"#utility.yul\":2984:3047   */\n      tag_107\n      jump\t// in\n    tag_192:\n        /* \"#utility.yul\":2974:3047   */\n      swap2\n      pop\n        /* \"#utility.yul\":2770:3057   */\n      pop\n        /* \"#utility.yul\":2555:3064   */\n      swap3\n      swap2\n      pop\n      pop\n      jump\t// out\n        /* \"#utility.yul\":3070:3208   */\n    tag_108:\n        /* \"#utility.yul\":3161:3167   */\n      0x00\n        /* \"#utility.yul\":3195:3200   */\n      dup2\n        /* \"#utility.yul\":3189:3201   */\n      mload\n        /* \"#utility.yul\":3179:3201   */\n      swap1\n      pop\n        /* \"#utility.yul\":3070:3208   */\n      swap2\n      swap1\n      pop\n      jump\t// out\n        /* \"#utility.yul\":3214:3422   */\n    tag_109:\n        /* \"#utility.yul\":3337:3348   */\n      0x00\n        /* \"#utility.yul\":3371:3377   */\n      dup3\n        /* \"#utility.yul\":3366:3369   */\n      dup3\n        /* \"#utility.yul\":3359:3378   */\n      mstore\n        /* \"#utility.yul\":3411:3415   */\n      0x20\n        /* \"#utility.yul\":3406:3409   */\n      dup3\n        /* \"#utility.yul\":3402:3416   */\n      add\n        /* \"#utility.yul\":3387:3416   */\n      swap1\n      pop\n        /* \"#utility.yul\":3214:3422   */\n      swap3\n      swap2\n      pop\n      pop\n      jump\t// out\n        /* \"#utility.yul\":3428:3584   */\n    tag_110:\n        /* \"#utility.yul\":3519:3523   */\n      0x00\n        /* \"#utility.yul\":3542:3545   */\n      dup2\n        /* \"#utility.yul\":3534:3545   */\n      swap1\n      pop\n        /* \"#utility.yul\":3572:3576   */\n      0x20\n        /* \"#utility.yul\":3567:3570   */\n      dup3\n        /* \"#utility.yul\":3563:3577   */\n      add\n        /* \"#utility.yul\":3555:3577   */\n      swap1\n      pop\n        /* \"#utility.yul\":3428:3584   */\n      swap2\n      swap1\n      pop\n      jump\t// out\n        /* \"#utility.yul\":3590:3689   */\n    tag_111:\n        /* \"#utility.yul\":3642:3648   */\n      0x00\n        /* \"#utility.yul\":3676:3681   */\n      dup2\n        /* \"#utility.yul\":3670:3682   */\n      mload\n        /* \"#utility.yul\":3660:3682   */\n      swap1\n      pop\n        /* \"#utility.yul\":3590:3689   */\n      swap2\n      swap1\n      pop\n      jump\t// out\n        /* \"#utility.yul\":3695:3854   */\n    tag_112:\n        /* \"#utility.yul\":3769:3780   */\n      0x00\n        /* \"#utility.yul\":3803:3809   */\n      dup3\n        /* \"#utility.yul\":3798:3801   */\n      dup3\n        /* \"#utility.yul\":3791:3810   */\n      mstore\n        /* \"#utility.yul\":3843:3847   */\n      0x20\n        /* \"#utility.yul\":3838:3841   */\n      dup3\n        /* \"#utility.yul\":3834:3848   */\n      add\n        /* \"#utility.yul\":3819:3848   */\n      swap1\n      pop\n        /* \"#utility.yul\":3695:3854   */\n      swap3\n      swap2\n      pop\n      pop\n      jump\t// out\n        /* \"#utility.yul\":3860:3999   */\n    tag_113:\n        /* \"#utility.yul\":3949:3955   */\n      dup3\n        /* \"#utility.yul\":3944:3947   */\n      dup2\n        /* \"#utility.yul\":3939:3942   */\n      dup4\n        /* \"#utility.yul\":3933:3956   */\n      mcopy\n        /* \"#utility.yul\":3990:3991   */\n      0x00\n        /* \"#utility.yul\":3981:3987   */\n      dup4\n        /* \"#utility.yul\":3976:3979   */\n      dup4\n        /* \"#utility.yul\":3972:3988   */\n      add\n        /* \"#utility.yul\":3965:3992   */\n      mstore\n        /* \"#utility.yul\":3860:3999   */\n      pop\n      pop\n      pop\n      jump\t// out\n        /* \"#utility.yul\":4005:4362   */\n    tag_114:\n        /* \"#utility.yul\":4083:4086   */\n      0x00\n        /* \"#utility.yul\":4111:4150   */\n      tag_200\n        /* \"#utility.yul\":4144:4149   */\n      dup3\n        /* \"#utility.yul\":4111:4150   */\n      tag_111\n      jump\t// in\n    tag_200:\n        /* \"#utility.yul\":4166:4227   */\n      tag_201\n        /* \"#utility.yul\":4220:4226   */\n      dup2\n        /* \"#utility.yul\":4215:4218   */\n      dup6\n        /* \"#utility.yul\":4166:4227   */\n      tag_112\n      jump\t// in\n    tag_201:\n        /* \"#utility.yul\":4159:4227   */\n      swap4\n      pop\n        /* \"#utility.yul\":4236:4301   */\n      tag_202\n        /* \"#utility.yul\":4294:4300   */\n      dup2\n        /* \"#utility.yul\":4289:4292   */\n      dup6\n        /* \"#utility.yul\":4282:4286   */\n      0x20\n        /* \"#utility.yul\":4275:4280   */\n      dup7\n        /* \"#utility.yul\":4271:4287   */\n      add\n        /* \"#utility.yul\":4236:4301   */\n      tag_113\n      jump\t// in\n    tag_202:\n        /* \"#utility.yul\":4326:4355   */\n      tag_203\n        /* \"#utility.yul\":4348:4354   */\n      dup2\n        /* \"#utility.yul\":4326:4355   */\n      tag_101\n      jump\t// in\n    tag_203:\n        /* \"#utility.yul\":4321:4324   */\n      dup5\n        /* \"#utility.yul\":4317:4356   */\n      add\n        /* \"#utility.yul\":4310:4356   */\n      swap2\n      pop\n        /* \"#utility.yul\":4087:4362   */\n      pop\n        /* \"#utility.yul\":4005:4362   */\n      swap3\n      swap2\n      pop\n      pop\n      jump\t// out\n        /* \"#utility.yul\":4368:4494   */\n    tag_115:\n        /* \"#utility.yul\":4405:4412   */\n      0x00\n        /* \"#utility.yul\":4445:4487   */\n      0xffffffffffffffffffffffffffffffffffffffff\n        /* \"#utility.yul\":4438:4443   */\n      dup3\n        /* \"#utility.yul\":4434:4488   */\n      and\n        /* \"#utility.yul\":4423:4488   */\n      swap1\n      pop\n        /* \"#utility.yul\":4368:4494   */\n      swap2\n      swap1\n      pop\n      jump\t// out\n        /* \"#utility.yul\":4500:4596   */\n    tag_116:\n        /* \"#utility.yul\":4537:4544   */\n      0x00\n        /* \"#utility.yul\":4566:4590   */\n      tag_206\n        /* \"#utility.yul\":4584:4589   */\n      dup3\n        /* \"#utility.yul\":4566:4590   */\n      tag_115\n      jump\t// in\n    tag_206:\n        /* \"#utility.yul\":4555:4590   */\n      swap1\n      pop\n        /* \"#utility.yul\":4500:4596   */\n      swap2\n      swap1\n      pop\n      jump\t// out\n        /* \"#utility.yul\":4602:4710   */\n    tag_117:\n        /* \"#utility.yul\":4679:4703   */\n      tag_208\n        /* \"#utility.yul\":4697:4702   */\n      dup2\n        /* \"#utility.yul\":4679:4703   */\n      tag_116\n      jump\t// in\n    tag_208:\n        /* \"#utility.yul\":4674:4677   */\n      dup3\n        /* \"#utility.yul\":4667:4704   */\n      mstore\n        /* \"#utility.yul\":4602:4710   */\n      pop\n      pop\n      jump\t// out\n        /* \"#utility.yul\":4716:4793   */\n    tag_118:\n        /* \"#utility.yul\":4753:4760   */\n      0x00\n        /* \"#utility.yul\":4782:4787   */\n      dup2\n        /* \"#utility.yul\":4771:4787   */\n      swap1\n      pop\n        /* \"#utility.yul\":4716:4793   */\n      swap2\n      swap1\n      pop\n      jump\t// out\n        /* \"#utility.yul\":4799:4907   */\n    tag_119:\n        /* \"#utility.yul\":4876:4900   */\n      tag_211\n        /* \"#utility.yul\":4894:4899   */\n      dup2\n        /* \"#utility.yul\":4876:4900   */\n      tag_118\n      jump\t// in\n    tag_211:\n        /* \"#utility.yul\":4871:4874   */\n      dup3\n        /* \"#utility.yul\":4864:4901   */\n      mstore\n        /* \"#utility.yul\":4799:4907   */\n      pop\n      pop\n      jump\t// out\n        /* \"#utility.yul\":4989:5954   */\n    tag_120:\n        /* \"#utility.yul\":5096:5099   */\n      0x00\n        /* \"#utility.yul\":5132:5136   */\n      0x80\n        /* \"#utility.yul\":5127:5130   */\n      dup4\n        /* \"#utility.yul\":5123:5137   */\n      add\n        /* \"#utility.yul\":5222:5226   */\n      0x00\n        /* \"#utility.yul\":5215:5220   */\n      dup4\n        /* \"#utility.yul\":5211:5227   */\n      add\n        /* \"#utility.yul\":5205:5228   */\n      mload\n        /* \"#utility.yul\":5275:5278   */\n      dup5\n        /* \"#utility.yul\":5269:5273   */\n      dup3\n        /* \"#utility.yul\":5265:5279   */\n      sub\n        /* \"#utility.yul\":5258:5262   */\n      0x00\n        /* \"#utility.yul\":5253:5256   */\n      dup7\n        /* \"#utility.yul\":5249:5263   */\n      add\n        /* \"#utility.yul\":5242:5280   */\n      mstore\n        /* \"#utility.yul\":5301:5374   */\n      tag_213\n        /* \"#utility.yul\":5369:5373   */\n      dup3\n        /* \"#utility.yul\":5355:5367   */\n      dup3\n        /* \"#utility.yul\":5301:5374   */\n      tag_114\n      jump\t// in\n    tag_213:\n        /* \"#utility.yul\":5293:5374   */\n      swap2\n      pop\n        /* \"#utility.yul\":5147:5385   */\n      pop\n        /* \"#utility.yul\":5473:5477   */\n      0x20\n        /* \"#utility.yul\":5466:5471   */\n      dup4\n        /* \"#utility.yul\":5462:5478   */\n      add\n        /* \"#utility.yul\":5456:5479   */\n      mload\n        /* \"#utility.yul\":5492:5555   */\n      tag_214\n        /* \"#utility.yul\":5549:5553   */\n      0x20\n        /* \"#utility.yul\":5544:5547   */\n      dup7\n        /* \"#utility.yul\":5540:5554   */\n      add\n        /* \"#utility.yul\":5526:5538   */\n      dup3\n        /* \"#utility.yul\":5492:5555   */\n      tag_117\n      jump\t// in\n    tag_214:\n        /* \"#utility.yul\":5395:5565   */\n      pop\n        /* \"#utility.yul\":5651:5655   */\n      0x40\n        /* \"#utility.yul\":5644:5649   */\n      dup4\n        /* \"#utility.yul\":5640:5656   */\n      add\n        /* \"#utility.yul\":5634:5657   */\n      mload\n        /* \"#utility.yul\":5670:5733   */\n      tag_215\n        /* \"#utility.yul\":5727:5731   */\n      0x40\n        /* \"#utility.yul\":5722:5725   */\n      dup7\n        /* \"#utility.yul\":5718:5732   */\n      add\n        /* \"#utility.yul\":5704:5716   */\n      dup3\n        /* \"#utility.yul\":5670:5733   */\n      tag_117\n      jump\t// in\n    tag_215:\n        /* \"#utility.yul\":5575:5743   */\n      pop\n        /* \"#utility.yul\":5835:5839   */\n      0x60\n        /* \"#utility.yul\":5828:5833   */\n      dup4\n        /* \"#utility.yul\":5824:5840   */\n      add\n        /* \"#utility.yul\":5818:5841   */\n      mload\n        /* \"#utility.yul\":5854:5917   */\n      tag_216\n        /* \"#utility.yul\":5911:5915   */\n      0x60\n        /* \"#utility.yul\":5906:5909   */\n      dup7\n        /* \"#utility.yul\":5902:5916   */\n      add\n        /* \"#utility.yul\":5888:5900   */\n      dup3\n        /* \"#utility.yul\":5854:5917   */\n      tag_119\n      jump\t// in\n    tag_216:\n        /* \"#utility.yul\":5753:5927   */\n      pop\n        /* \"#utility.yul\":5944:5948   */\n      dup1\n        /* \"#utility.yul\":5937:5948   */\n      swap2\n      pop\n        /* \"#utility.yul\":5101:5954   */\n      pop\n        /* \"#utility.yul\":4989:5954   */\n      swap3\n      swap2\n      pop\n      pop\n      jump\t// out\n        /* \"#utility.yul\":5960:6212   */\n    tag_121:\n        /* \"#utility.yul\":6077:6087   */\n      0x00\n        /* \"#utility.yul\":6112:6206   */\n      tag_218\n        /* \"#utility.yul\":6202:6205   */\n      dup4\n        /* \"#utility.yul\":6194:6200   */\n      dup4\n        /* \"#utility.yul\":6112:6206   */\n      tag_120\n      jump\t// in\n    tag_218:\n        /* \"#utility.yul\":6098:6206   */\n      swap1\n      pop\n        /* \"#utility.yul\":5960:6212   */\n      swap3\n      swap2\n      pop\n      pop\n      jump\t// out\n        /* \"#utility.yul\":6218:6355   */\n    tag_122:\n        /* \"#utility.yul\":6312:6316   */\n      0x00\n        /* \"#utility.yul\":6344:6348   */\n      0x20\n        /* \"#utility.yul\":6339:6342   */\n      dup3\n        /* \"#utility.yul\":6335:6349   */\n      add\n        /* \"#utility.yul\":6327:6349   */\n      swap1\n      pop\n        /* \"#utility.yul\":6218:6355   */\n      swap2\n      swap1\n      pop\n      jump\t// out\n        /* \"#utility.yul\":6441:7544   */\n    tag_123:\n        /* \"#utility.yul\":6608:6611   */\n      0x00\n        /* \"#utility.yul\":6637:6715   */\n      tag_221\n        /* \"#utility.yul\":6709:6714   */\n      dup3\n        /* \"#utility.yul\":6637:6715   */\n      tag_108\n      jump\t// in\n    tag_221:\n        /* \"#utility.yul\":6731:6841   */\n      tag_222\n        /* \"#utility.yul\":6834:6840   */\n      dup2\n        /* \"#utility.yul\":6829:6832   */\n      dup6\n        /* \"#utility.yul\":6731:6841   */\n      tag_109\n      jump\t// in\n    tag_222:\n        /* \"#utility.yul\":6724:6841   */\n      swap4\n      pop\n        /* \"#utility.yul\":6867:6870   */\n      dup4\n        /* \"#utility.yul\":6912:6916   */\n      0x20\n        /* \"#utility.yul\":6904:6910   */\n      dup3\n        /* \"#utility.yul\":6900:6917   */\n      mul\n        /* \"#utility.yul\":6895:6898   */\n      dup6\n        /* \"#utility.yul\":6891:6918   */\n      add\n        /* \"#utility.yul\":6942:7022   */\n      tag_223\n        /* \"#utility.yul\":7016:7021   */\n      dup6\n        /* \"#utility.yul\":6942:7022   */\n      tag_110\n      jump\t// in\n    tag_223:\n        /* \"#utility.yul\":7045:7052   */\n      dup1\n        /* \"#utility.yul\":7076:7077   */\n      0x00\n        /* \"#utility.yul\":7061:7499   */\n    tag_224:\n        /* \"#utility.yul\":7086:7092   */\n      dup6\n        /* \"#utility.yul\":7083:7084   */\n      dup2\n        /* \"#utility.yul\":7080:7093   */\n      lt\n        /* \"#utility.yul\":7061:7499   */\n      iszero\n      tag_226\n      jumpi\n        /* \"#utility.yul\":7157:7166   */\n      dup5\n        /* \"#utility.yul\":7151:7155   */\n      dup5\n        /* \"#utility.yul\":7147:7167   */\n      sub\n        /* \"#utility.yul\":7142:7145   */\n      dup10\n        /* \"#utility.yul\":7135:7168   */\n      mstore\n        /* \"#utility.yul\":7208:7214   */\n      dup2\n        /* \"#utility.yul\":7202:7215   */\n      mload\n        /* \"#utility.yul\":7236:7348   */\n      tag_227\n        /* \"#utility.yul\":7343:7347   */\n      dup6\n        /* \"#utility.yul\":7328:7341   */\n      dup3\n        /* \"#utility.yul\":7236:7348   */\n      tag_121\n      jump\t// in\n    tag_227:\n        /* \"#utility.yul\":7228:7348   */\n      swap5\n      pop\n        /* \"#utility.yul\":7371:7455   */\n      tag_228\n        /* \"#utility.yul\":7448:7454   */\n      dup4\n        /* \"#utility.yul\":7371:7455   */\n      tag_122\n      jump\t// in\n    tag_228:\n        /* \"#utility.yul\":7361:7455   */\n      swap3\n      pop\n        /* \"#utility.yul\":7484:7488   */\n      0x20\n        /* \"#utility.yul\":7479:7482   */\n      dup11\n        /* \"#utility.yul\":7475:7489   */\n      add\n        /* \"#utility.yul\":7468:7489   */\n      swap10\n      pop\n        /* \"#utility.yul\":7121:7499   */\n      pop\n        /* \"#utility.yul\":7108:7109   */\n      0x01\n        /* \"#utility.yul\":7105:7106   */\n      dup2\n        /* \"#utility.yul\":7101:7110   */\n      add\n        /* \"#utility.yul\":7096:7110   */\n      swap1\n      pop\n        /* \"#utility.yul\":7061:7499   */\n      jump(tag_224)\n    tag_226:\n        /* \"#utility.yul\":7065:7079   */\n      pop\n        /* \"#utility.yul\":7515:7519   */\n      dup3\n        /* \"#utility.yul\":7508:7519   */\n      swap8\n      pop\n        /* \"#utility.yul\":7535:7538   */\n      dup8\n        /* \"#utility.yul\":7528:7538   */\n      swap6\n      pop\n        /* \"#utility.yul\":6613:7544   */\n      pop\n      pop\n      pop\n      pop\n      pop\n        /* \"#utility.yul\":6441:7544   */\n      swap3\n      swap2\n      pop\n      pop\n      jump\t// out\n        /* \"#utility.yul\":7550:8019   */\n    tag_13:\n        /* \"#utility.yul\":7741:7745   */\n      0x00\n        /* \"#utility.yul\":7779:7781   */\n      0x20\n        /* \"#utility.yul\":7768:7777   */\n      dup3\n        /* \"#utility.yul\":7764:7782   */\n      add\n        /* \"#utility.yul\":7756:7782   */\n      swap1\n      pop\n        /* \"#utility.yul\":7828:7837   */\n      dup2\n        /* \"#utility.yul\":7822:7826   */\n      dup2\n        /* \"#utility.yul\":7818:7838   */\n      sub\n        /* \"#utility.yul\":7814:7815   */\n      0x00\n        /* \"#utility.yul\":7803:7812   */\n      dup4\n        /* \"#utility.yul\":7799:7816   */\n      add\n        /* \"#utility.yul\":7792:7839   */\n      mstore\n        /* \"#utility.yul\":7856:8012   */\n      tag_230\n        /* \"#utility.yul\":8007:8011   */\n      dup2\n        /* \"#utility.yul\":7998:8004   */\n      dup5\n        /* \"#utility.yul\":7856:8012   */\n      tag_123\n      jump\t// in\n    tag_230:\n        /* \"#utility.yul\":7848:8012   */\n      swap1\n      pop\n        /* \"#utility.yul\":7550:8019   */\n      swap3\n      swap2\n      pop\n      pop\n      jump\t// out\n        /* \"#utility.yul\":8025:8143   */\n    tag_124:\n        /* \"#utility.yul\":8112:8136   */\n      tag_232\n        /* \"#utility.yul\":8130:8135   */\n      dup2\n        /* \"#utility.yul\":8112:8136   */\n      tag_118\n      jump\t// in\n    tag_232:\n        /* \"#utility.yul\":8107:8110   */\n      dup3\n        /* \"#utility.yul\":8100:8137   */\n      mstore\n        /* \"#utility.yul\":8025:8143   */\n      pop\n      pop\n      jump\t// out\n        /* \"#utility.yul\":8149:8371   */\n    tag_18:\n        /* \"#utility.yul\":8242:8246   */\n      0x00\n        /* \"#utility.yul\":8280:8282   */\n      0x20\n        /* \"#utility.yul\":8269:8278   */\n      dup3\n        /* \"#utility.yul\":8265:8283   */\n      add\n        /* \"#utility.yul\":8257:8283   */\n      swap1\n      pop\n        /* \"#utility.yul\":8293:8364   */\n      tag_234\n        /* \"#utility.yul\":8361:8362   */\n      0x00\n        /* \"#utility.yul\":8350:8359   */\n      dup4\n        /* \"#utility.yul\":8346:8363   */\n      add\n        /* \"#utility.yul\":8337:8343   */\n      dup5\n        /* \"#utility.yul\":8293:8364   */\n      tag_124\n      jump\t// in\n    tag_234:\n        /* \"#utility.yul\":8149:8371   */\n      swap3\n      swap2\n      pop\n      pop\n      jump\t// out\n        /* \"#utility.yul\":8377:8495   */\n    tag_125:\n        /* \"#utility.yul\":8464:8488   */\n      tag_236\n        /* \"#utility.yul\":8482:8487   */\n      dup2\n        /* \"#utility.yul\":8464:8488   */\n      tag_116\n      jump\t// in\n    tag_236:\n        /* \"#utility.yul\":8459:8462   */\n      dup3\n        /* \"#utility.yul\":8452:8489   */\n      mstore\n        /* \"#utility.yul\":8377:8495   */\n      pop\n      pop\n      jump\t// out\n        /* \"#utility.yul\":8501:8723   */\n    tag_23:\n        /* \"#utility.yul\":8594:8598   */\n      0x00\n        /* \"#utility.yul\":8632:8634   */\n      0x20\n        /* \"#utility.yul\":8621:8630   */\n      dup3\n        /* \"#utility.yul\":8617:8635   */\n      add\n        /* \"#utility.yul\":8609:8635   */\n      swap1\n      pop\n        /* \"#utility.yul\":8645:8716   */\n      tag_238\n        /* \"#utility.yul\":8713:8714   */\n      0x00\n        /* \"#utility.yul\":8702:8711   */\n      dup4\n        /* \"#utility.yul\":8698:8715   */\n      add\n        /* \"#utility.yul\":8689:8695   */\n      dup5\n        /* \"#utility.yul\":8645:8716   */\n      tag_125\n      jump\t// in\n    tag_238:\n        /* \"#utility.yul\":8501:8723   */\n      swap3\n      swap2\n      pop\n      pop\n      jump\t// out\n        /* \"#utility.yul\":8729:8851   */\n    tag_126:\n        /* \"#utility.yul\":8802:8826   */\n      tag_240\n        /* \"#utility.yul\":8820:8825   */\n      dup2\n        /* \"#utility.yul\":8802:8826   */\n      tag_116\n      jump\t// in\n    tag_240:\n        /* \"#utility.yul\":8795:8800   */\n      dup2\n        /* \"#utility.yul\":8792:8827   */\n      eq\n        /* \"#utility.yul\":8782:8845   */\n      tag_241\n      jumpi\n        /* \"#utility.yul\":8841:8842   */\n      0x00\n        /* \"#utility.yul\":8838:8839   */\n      dup1\n        /* \"#utility.yul\":8831:8843   */\n      revert\n        /* \"#utility.yul\":8782:8845   */\n    tag_241:\n        /* \"#utility.yul\":8729:8851   */\n      pop\n      jump\t// out\n        /* \"#utility.yul\":8857:8996   */\n    tag_127:\n        /* \"#utility.yul\":8903:8908   */\n      0x00\n        /* \"#utility.yul\":8941:8947   */\n      dup2\n        /* \"#utility.yul\":8928:8948   */\n      calldataload\n        /* \"#utility.yul\":8919:8948   */\n      swap1\n      pop\n        /* \"#utility.yul\":8957:8990   */\n      tag_243\n        /* \"#utility.yul\":8984:8989   */\n      dup2\n        /* \"#utility.yul\":8957:8990   */\n      tag_126\n      jump\t// in\n    tag_243:\n        /* \"#utility.yul\":8857:8996   */\n      swap3\n      swap2\n      pop\n      pop\n      jump\t// out\n        /* \"#utility.yul\":9002:9124   */\n    tag_128:\n        /* \"#utility.yul\":9075:9099   */\n      tag_245\n        /* \"#utility.yul\":9093:9098   */\n      dup2\n        /* \"#utility.yul\":9075:9099   */\n      tag_118\n      jump\t// in\n    tag_245:\n        /* \"#utility.yul\":9068:9073   */\n      dup2\n        /* \"#utility.yul\":9065:9100   */\n      eq\n        /* \"#utility.yul\":9055:9118   */\n      tag_246\n      jumpi\n        /* \"#utility.yul\":9114:9115   */\n      0x00\n        /* \"#utility.yul\":9111:9112   */\n      dup1\n        /* \"#utility.yul\":9104:9116   */\n      revert\n        /* \"#utility.yul\":9055:9118   */\n    tag_246:\n        /* \"#utility.yul\":9002:9124   */\n      pop\n      jump\t// out\n        /* \"#utility.yul\":9130:9269   */\n    tag_129:\n        /* \"#utility.yul\":9176:9181   */\n      0x00\n        /* \"#utility.yul\":9214:9220   */\n      dup2\n        /* \"#utility.yul\":9201:9221   */\n      calldataload\n        /* \"#utility.yul\":9192:9221   */\n      swap1\n      pop\n        /* \"#utility.yul\":9230:9263   */\n      tag_248\n        /* \"#utility.yul\":9257:9262   */\n      dup2\n        /* \"#utility.yul\":9230:9263   */\n      tag_128\n      jump\t// in\n    tag_248:\n        /* \"#utility.yul\":9130:9269   */\n      swap3\n      swap2\n      pop\n      pop\n      jump\t// out\n        /* \"#utility.yul\":9275:10220   */\n    tag_26:\n        /* \"#utility.yul\":9371:9377   */\n      0x00\n        /* \"#utility.yul\":9379:9385   */\n      dup1\n        /* \"#utility.yul\":9387:9393   */\n      0x00\n        /* \"#utility.yul\":9395:9401   */\n      dup1\n        /* \"#utility.yul\":9444:9447   */\n      0x80\n        /* \"#utility.yul\":9432:9441   */\n      dup6\n        /* \"#utility.yul\":9423:9430   */\n      dup8\n        /* \"#utility.yul\":9419:9442   */\n      sub\n        /* \"#utility.yul\":9415:9448   */\n      slt\n        /* \"#utility.yul\":9412:9532   */\n      iszero\n      tag_250\n      jumpi\n        /* \"#utility.yul\":9451:9530   */\n      tag_251\n      tag_97\n      jump\t// in\n    tag_251:\n        /* \"#utility.yul\":9412:9532   */\n    tag_250:\n        /* \"#utility.yul\":9599:9600   */\n      0x00\n        /* \"#utility.yul\":9588:9597   */\n      dup6\n        /* \"#utility.yul\":9584:9601   */\n      add\n        /* \"#utility.yul\":9571:9602   */\n      calldataload\n        /* \"#utility.yul\":9629:9647   */\n      0xffffffffffffffff\n        /* \"#utility.yul\":9621:9627   */\n      dup2\n        /* \"#utility.yul\":9618:9648   */\n      gt\n        /* \"#utility.yul\":9615:9732   */\n      iszero\n      tag_252\n      jumpi\n        /* \"#utility.yul\":9651:9730   */\n      tag_253\n      tag_98\n      jump\t// in\n    tag_253:\n        /* \"#utility.yul\":9615:9732   */\n    tag_252:\n        /* \"#utility.yul\":9756:9819   */\n      tag_254\n        /* \"#utility.yul\":9811:9818   */\n      dup8\n        /* \"#utility.yul\":9802:9808   */\n      dup3\n        /* \"#utility.yul\":9791:9800   */\n      dup9\n        /* \"#utility.yul\":9787:9809   */\n      add\n        /* \"#utility.yul\":9756:9819   */\n      tag_107\n      jump\t// in\n    tag_254:\n        /* \"#utility.yul\":9746:9819   */\n      swap5\n      pop\n        /* \"#utility.yul\":9542:9829   */\n      pop\n        /* \"#utility.yul\":9868:9870   */\n      0x20\n        /* \"#utility.yul\":9894:9947   */\n      tag_255\n        /* \"#utility.yul\":9939:9946   */\n      dup8\n        /* \"#utility.yul\":9930:9936   */\n      dup3\n        /* \"#utility.yul\":9919:9928   */\n      dup9\n        /* \"#utility.yul\":9915:9937   */\n      add\n        /* \"#utility.yul\":9894:9947   */\n      tag_127\n      jump\t// in\n    tag_255:\n        /* \"#utility.yul\":9884:9947   */\n      swap4\n      pop\n        /* \"#utility.yul\":9839:9957   */\n      pop\n        /* \"#utility.yul\":9996:9998   */\n      0x40\n        /* \"#utility.yul\":10022:10075   */\n      tag_256\n        /* \"#utility.yul\":10067:10074   */\n      dup8\n        /* \"#utility.yul\":10058:10064   */\n      dup3\n        /* \"#utility.yul\":10047:10056   */\n      dup9\n        /* \"#utility.yul\":10043:10065   */\n      add\n        /* \"#utility.yul\":10022:10075   */\n      tag_127\n      jump\t// in\n    tag_256:\n        /* \"#utility.yul\":10012:10075   */\n      swap3\n      pop\n        /* \"#utility.yul\":9967:10085   */\n      pop\n        /* \"#utility.yul\":10124:10126   */\n      0x60\n        /* \"#utility.yul\":10150:10203   */\n      tag_257\n        /* \"#utility.yul\":10195:10202   */\n      dup8\n        /* \"#utility.yul\":10186:10192   */\n      dup3\n        /* \"#utility.yul\":10175:10184   */\n      dup9\n        /* \"#utility.yul\":10171:10193   */\n      add\n        /* \"#utility.yul\":10150:10203   */\n      tag_129\n      jump\t// in\n    tag_257:\n        /* \"#utility.yul\":10140:10203   */\n      swap2\n      pop\n        /* \"#utility.yul\":10095:10213   */\n      pop\n        /* \"#utility.yul\":9275:10220   */\n      swap3\n      swap6\n      swap2\n      swap5\n      pop\n      swap3\n      pop\n      jump\t// out\n        /* \"#utility.yul\":10226:10555   */\n    tag_31:\n        /* \"#utility.yul\":10285:10291   */\n      0x00\n        /* \"#utility.yul\":10334:10336   */\n      0x20\n        /* \"#utility.yul\":10322:10331   */\n      dup3\n        /* \"#utility.yul\":10313:10320   */\n      dup5\n        /* \"#utility.yul\":10309:10332   */\n      sub\n        /* \"#utility.yul\":10305:10337   */\n      slt\n        /* \"#utility.yul\":10302:10421   */\n      iszero\n      tag_259\n      jumpi\n        /* \"#utility.yul\":10340:10419   */\n      tag_260\n      tag_97\n      jump\t// in\n    tag_260:\n        /* \"#utility.yul\":10302:10421   */\n    tag_259:\n        /* \"#utility.yul\":10460:10461   */\n      0x00\n        /* \"#utility.yul\":10485:10538   */\n      tag_261\n        /* \"#utility.yul\":10530:10537   */\n      dup5\n        /* \"#utility.yul\":10521:10527   */\n      dup3\n        /* \"#utility.yul\":10510:10519   */\n      dup6\n        /* \"#utility.yul\":10506:10528   */\n      add\n        /* \"#utility.yul\":10485:10538   */\n      tag_129\n      jump\t// in\n    tag_261:\n        /* \"#utility.yul\":10475:10538   */\n      swap2\n      pop\n        /* \"#utility.yul\":10431:10548   */\n      pop\n        /* \"#utility.yul\":10226:10555   */\n      swap3\n      swap2\n      pop\n      pop\n      jump\t// out\n        /* \"#utility.yul\":10561:10730   */\n    tag_130:\n        /* \"#utility.yul\":10645:10656   */\n      0x00\n        /* \"#utility.yul\":10679:10685   */\n      dup3\n        /* \"#utility.yul\":10674:10677   */\n      dup3\n        /* \"#utility.yul\":10667:10686   */\n      mstore\n        /* \"#utility.yul\":10719:10723   */\n      0x20\n        /* \"#utility.yul\":10714:10717   */\n      dup3\n        /* \"#utility.yul\":10710:10724   */\n      add\n        /* \"#utility.yul\":10695:10724   */\n      swap1\n      pop\n        /* \"#utility.yul\":10561:10730   */\n      swap3\n      swap2\n      pop\n      pop\n      jump\t// out\n        /* \"#utility.yul\":10736:11113   */\n    tag_131:\n        /* \"#utility.yul\":10824:10827   */\n      0x00\n        /* \"#utility.yul\":10852:10891   */\n      tag_264\n        /* \"#utility.yul\":10885:10890   */\n      dup3\n        /* \"#utility.yul\":10852:10891   */\n      tag_111\n      jump\t// in\n    tag_264:\n        /* \"#utility.yul\":10907:10978   */\n      tag_265\n        /* \"#utility.yul\":10971:10977   */\n      dup2\n        /* \"#utility.yul\":10966:10969   */\n      dup6\n        /* \"#utility.yul\":10907:10978   */\n      tag_130\n      jump\t// in\n    tag_265:\n        /* \"#utility.yul\":10900:10978   */\n      swap4\n      pop\n        /* \"#utility.yul\":10987:11052   */\n      tag_266\n        /* \"#utility.yul\":11045:11051   */\n      dup2\n        /* \"#utility.yul\":11040:11043   */\n      dup6\n        /* \"#utility.yul\":11033:11037   */\n      0x20\n        /* \"#utility.yul\":11026:11031   */\n      dup7\n        /* \"#utility.yul\":11022:11038   */\n      add\n        /* \"#utility.yul\":10987:11052   */\n      tag_113\n      jump\t// in\n    tag_266:\n        /* \"#utility.yul\":11077:11106   */\n      tag_267\n        /* \"#utility.yul\":11099:11105   */\n      dup2\n        /* \"#utility.yul\":11077:11106   */\n      tag_101\n      jump\t// in\n    tag_267:\n        /* \"#utility.yul\":11072:11075   */\n      dup5\n        /* \"#utility.yul\":11068:11107   */\n      add\n        /* \"#utility.yul\":11061:11107   */\n      swap2\n      pop\n        /* \"#utility.yul\":10828:11113   */\n      pop\n        /* \"#utility.yul\":10736:11113   */\n      swap3\n      swap2\n      pop\n      pop\n      jump\t// out\n        /* \"#utility.yul\":11119:11763   */\n    tag_34:\n        /* \"#utility.yul\":11316:11320   */\n      0x00\n        /* \"#utility.yul\":11354:11357   */\n      0x80\n        /* \"#utility.yul\":11343:11352   */\n      dup3\n        /* \"#utility.yul\":11339:11358   */\n      add\n        /* \"#utility.yul\":11331:11358   */\n      swap1\n      pop\n        /* \"#utility.yul\":11404:11413   */\n      dup2\n        /* \"#utility.yul\":11398:11402   */\n      dup2\n        /* \"#utility.yul\":11394:11414   */\n      sub\n        /* \"#utility.yul\":11390:11391   */\n      0x00\n        /* \"#utility.yul\":11379:11388   */\n      dup4\n        /* \"#utility.yul\":11375:11392   */\n      add\n        /* \"#utility.yul\":11368:11415   */\n      mstore\n        /* \"#utility.yul\":11432:11510   */\n      tag_269\n        /* \"#utility.yul\":11505:11509   */\n      dup2\n        /* \"#utility.yul\":11496:11502   */\n      dup8\n        /* \"#utility.yul\":11432:11510   */\n      tag_131\n      jump\t// in\n    tag_269:\n        /* \"#utility.yul\":11424:11510   */\n      swap1\n      pop\n        /* \"#utility.yul\":11520:11592   */\n      tag_270\n        /* \"#utility.yul\":11588:11590   */\n      0x20\n        /* \"#utility.yul\":11577:11586   */\n      dup4\n        /* \"#utility.yul\":11573:11591   */\n      add\n        /* \"#utility.yul\":11564:11570   */\n      dup7\n        /* \"#utility.yul\":11520:11592   */\n      tag_125\n      jump\t// in\n    tag_270:\n        /* \"#utility.yul\":11602:11674   */\n      tag_271\n        /* \"#utility.yul\":11670:11672   */\n      0x40\n        /* \"#utility.yul\":11659:11668   */\n      dup4\n        /* \"#utility.yul\":11655:11673   */\n      add\n        /* \"#utility.yul\":11646:11652   */\n      dup6\n        /* \"#utility.yul\":11602:11674   */\n      tag_125\n      jump\t// in\n    tag_271:\n        /* \"#utility.yul\":11684:11756   */\n      tag_272\n        /* \"#utility.yul\":11752:11754   */\n      0x60\n        /* \"#utility.yul\":11741:11750   */\n      dup4\n        /* \"#utility.yul\":11737:11755   */\n      add\n        /* \"#utility.yul\":11728:11734   */\n      dup5\n        /* \"#utility.yul\":11684:11756   */\n      tag_124\n      jump\t// in\n    tag_272:\n        /* \"#utility.yul\":11119:11763   */\n      swap6\n      swap5\n      pop\n      pop\n      pop\n      pop\n      pop\n      jump\t// out\n        /* \"#utility.yul\":11769:11917   */\n    tag_132:\n        /* \"#utility.yul\":11871:11882   */\n      0x00\n        /* \"#utility.yul\":11908:11911   */\n      dup2\n        /* \"#utility.yul\":11893:11911   */\n      swap1\n      pop\n        /* \"#utility.yul\":11769:11917   */\n      swap3\n      swap2\n      pop\n      pop\n      jump\t// out\n        /* \"#utility.yul\":11923:12313   */\n    tag_133:\n        /* \"#utility.yul\":12029:12032   */\n      0x00\n        /* \"#utility.yul\":12057:12096   */\n      tag_275\n        /* \"#utility.yul\":12090:12095   */\n      dup3\n        /* \"#utility.yul\":12057:12096   */\n      tag_111\n      jump\t// in\n    tag_275:\n        /* \"#utility.yul\":12112:12201   */\n      tag_276\n        /* \"#utility.yul\":12194:12200   */\n      dup2\n        /* \"#utility.yul\":12189:12192   */\n      dup6\n        /* \"#utility.yul\":12112:12201   */\n      tag_132\n      jump\t// in\n    tag_276:\n        /* \"#utility.yul\":12105:12201   */\n      swap4\n      pop\n        /* \"#utility.yul\":12210:12275   */\n      tag_277\n        /* \"#utility.yul\":12268:12274   */\n      dup2\n        /* \"#utility.yul\":12263:12266   */\n      dup6\n        /* \"#utility.yul\":12256:12260   */\n      0x20\n        /* \"#utility.yul\":12249:12254   */\n      dup7\n        /* \"#utility.yul\":12245:12261   */\n      add\n        /* \"#utility.yul\":12210:12275   */\n      tag_113\n      jump\t// in\n    tag_277:\n        /* \"#utility.yul\":12300:12306   */\n      dup1\n        /* \"#utility.yul\":12295:12298   */\n      dup5\n        /* \"#utility.yul\":12291:12307   */\n      add\n        /* \"#utility.yul\":12284:12307   */\n      swap2\n      pop\n        /* \"#utility.yul\":12033:12313   */\n      pop\n        /* \"#utility.yul\":11923:12313   */\n      swap3\n      swap2\n      pop\n      pop\n      jump\t// out\n        /* \"#utility.yul\":12319:12594   */\n    tag_40:\n        /* \"#utility.yul\":12451:12454   */\n      0x00\n        /* \"#utility.yul\":12473:12568   */\n      tag_279\n        /* \"#utility.yul\":12564:12567   */\n      dup3\n        /* \"#utility.yul\":12555:12561   */\n      dup5\n        /* \"#utility.yul\":12473:12568   */\n      tag_133\n      jump\t// in\n    tag_279:\n        /* \"#utility.yul\":12466:12568   */\n      swap2\n      pop\n        /* \"#utility.yul\":12585:12588   */\n      dup2\n        /* \"#utility.yul\":12578:12588   */\n      swap1\n      pop\n        /* \"#utility.yul\":12319:12594   */\n      swap3\n      swap2\n      pop\n      pop\n      jump\t// out\n        /* \"#utility.yul\":12600:12780   */\n    tag_134:\n        /* \"#utility.yul\":12648:12725   */\n      0x4e487b7100000000000000000000000000000000000000000000000000000000\n        /* \"#utility.yul\":12645:12646   */\n      0x00\n        /* \"#utility.yul\":12638:12726   */\n      mstore\n        /* \"#utility.yul\":12745:12749   */\n      0x22\n        /* \"#utility.yul\":12742:12743   */\n      0x04\n        /* \"#utility.yul\":12735:12750   */\n      mstore\n        /* \"#utility.yul\":12769:12773   */\n      0x24\n        /* \"#utility.yul\":12766:12767   */\n      0x00\n        /* \"#utility.yul\":12759:12774   */\n      revert\n        /* \"#utility.yul\":12786:13106   */\n    tag_61:\n        /* \"#utility.yul\":12830:12836   */\n      0x00\n        /* \"#utility.yul\":12867:12868   */\n      0x02\n        /* \"#utility.yul\":12861:12865   */\n      dup3\n        /* \"#utility.yul\":12857:12869   */\n      div\n        /* \"#utility.yul\":12847:12869   */\n      swap1\n      pop\n        /* \"#utility.yul\":12914:12915   */\n      0x01\n        /* \"#utility.yul\":12908:12912   */\n      dup3\n        /* \"#utility.yul\":12904:12916   */\n      and\n        /* \"#utility.yul\":12935:12953   */\n      dup1\n        /* \"#utility.yul\":12925:13006   */\n      tag_282\n      jumpi\n        /* \"#utility.yul\":12991:12995   */\n      0x7f\n        /* \"#utility.yul\":12983:12989   */\n      dup3\n        /* \"#utility.yul\":12979:12996   */\n      and\n        /* \"#utility.yul\":12969:12996   */\n      swap2\n      pop\n        /* \"#utility.yul\":12925:13006   */\n    tag_282:\n        /* \"#utility.yul\":13053:13055   */\n      0x20\n        /* \"#utility.yul\":13045:13051   */\n      dup3\n        /* \"#utility.yul\":13042:13056   */\n      lt\n        /* \"#utility.yul\":13022:13040   */\n      dup2\n        /* \"#utility.yul\":13019:13057   */\n      sub\n        /* \"#utility.yul\":13016:13100   */\n      tag_283\n      jumpi\n        /* \"#utility.yul\":13072:13090   */\n      tag_284\n      tag_134\n      jump\t// in\n    tag_284:\n        /* \"#utility.yul\":13016:13100   */\n    tag_283:\n        /* \"#utility.yul\":12837:13106   */\n      pop\n        /* \"#utility.yul\":12786:13106   */\n      swap2\n      swap1\n      pop\n      jump\t// out\n        /* \"#utility.yul\":13112:13253   */\n    tag_135:\n        /* \"#utility.yul\":13161:13165   */\n      0x00\n        /* \"#utility.yul\":13184:13187   */\n      dup2\n        /* \"#utility.yul\":13176:13187   */\n      swap1\n      pop\n        /* \"#utility.yul\":13207:13210   */\n      dup2\n        /* \"#utility.yul\":13204:13205   */\n      0x00\n        /* \"#utility.yul\":13197:13211   */\n      mstore\n        /* \"#utility.yul\":13241:13245   */\n      0x20\n        /* \"#utility.yul\":13238:13239   */\n      0x00\n        /* \"#utility.yul\":13228:13246   */\n      keccak256\n        /* \"#utility.yul\":13220:13246   */\n      swap1\n      pop\n        /* \"#utility.yul\":13112:13253   */\n      swap2\n      swap1\n      pop\n      jump\t// out\n        /* \"#utility.yul\":13283:14157   */\n    tag_136:\n        /* \"#utility.yul\":13386:13389   */\n      0x00\n        /* \"#utility.yul\":13423:13428   */\n      dup2\n        /* \"#utility.yul\":13417:13429   */\n      sload\n        /* \"#utility.yul\":13452:13488   */\n      tag_287\n        /* \"#utility.yul\":13478:13487   */\n      dup2\n        /* \"#utility.yul\":13452:13488   */\n      tag_61\n      jump\t// in\n    tag_287:\n        /* \"#utility.yul\":13504:13593   */\n      tag_288\n        /* \"#utility.yul\":13586:13592   */\n      dup2\n        /* \"#utility.yul\":13581:13584   */\n      dup7\n        /* \"#utility.yul\":13504:13593   */\n      tag_132\n      jump\t// in\n    tag_288:\n        /* \"#utility.yul\":13497:13593   */\n      swap5\n      pop\n        /* \"#utility.yul\":13624:13625   */\n      0x01\n        /* \"#utility.yul\":13613:13622   */\n      dup3\n        /* \"#utility.yul\":13609:13626   */\n      and\n        /* \"#utility.yul\":13640:13641   */\n      0x00\n        /* \"#utility.yul\":13635:13801   */\n      dup2\n      eq\n      tag_290\n      jumpi\n        /* \"#utility.yul\":13815:13816   */\n      0x01\n        /* \"#utility.yul\":13810:14151   */\n      dup2\n      eq\n      tag_291\n      jumpi\n        /* \"#utility.yul\":13602:14151   */\n      jump(tag_289)\n        /* \"#utility.yul\":13635:13801   */\n    tag_290:\n        /* \"#utility.yul\":13719:13723   */\n      0xff\n        /* \"#utility.yul\":13715:13724   */\n      not\n        /* \"#utility.yul\":13704:13713   */\n      dup4\n        /* \"#utility.yul\":13700:13725   */\n      and\n        /* \"#utility.yul\":13695:13698   */\n      dup7\n        /* \"#utility.yul\":13688:13726   */\n      mstore\n        /* \"#utility.yul\":13781:13787   */\n      dup2\n        /* \"#utility.yul\":13774:13788   */\n      iszero\n        /* \"#utility.yul\":13767:13789   */\n      iszero\n        /* \"#utility.yul\":13759:13765   */\n      dup3\n        /* \"#utility.yul\":13755:13790   */\n      mul\n        /* \"#utility.yul\":13750:13753   */\n      dup7\n        /* \"#utility.yul\":13746:13791   */\n      add\n        /* \"#utility.yul\":13739:13791   */\n      swap4\n      pop\n        /* \"#utility.yul\":13635:13801   */\n      jump(tag_289)\n        /* \"#utility.yul\":13810:14151   */\n    tag_291:\n        /* \"#utility.yul\":13877:13915   */\n      tag_292\n        /* \"#utility.yul\":13909:13914   */\n      dup6\n        /* \"#utility.yul\":13877:13915   */\n      tag_135\n      jump\t// in\n    tag_292:\n        /* \"#utility.yul\":13937:13938   */\n      0x00\n        /* \"#utility.yul\":13951:14105   */\n    tag_293:\n        /* \"#utility.yul\":13965:13971   */\n      dup4\n        /* \"#utility.yul\":13962:13963   */\n      dup2\n        /* \"#utility.yul\":13959:13972   */\n      lt\n        /* \"#utility.yul\":13951:14105   */\n      iszero\n      tag_295\n      jumpi\n        /* \"#utility.yul\":14039:14046   */\n      dup2\n        /* \"#utility.yul\":14033:14047   */\n      sload\n        /* \"#utility.yul\":14029:14030   */\n      dup2\n        /* \"#utility.yul\":14024:14027   */\n      dup10\n        /* \"#utility.yul\":14020:14031   */\n      add\n        /* \"#utility.yul\":14013:14048   */\n      mstore\n        /* \"#utility.yul\":14089:14090   */\n      0x01\n        /* \"#utility.yul\":14080:14087   */\n      dup3\n        /* \"#utility.yul\":14076:14091   */\n      add\n        /* \"#utility.yul\":14065:14091   */\n      swap2\n      pop\n        /* \"#utility.yul\":13987:13991   */\n      0x20\n        /* \"#utility.yul\":13984:13985   */\n      dup2\n        /* \"#utility.yul\":13980:13992   */\n      add\n        /* \"#utility.yul\":13975:13992   */\n      swap1\n      pop\n        /* \"#utility.yul\":13951:14105   */\n      jump(tag_293)\n    tag_295:\n        /* \"#utility.yul\":14134:14140   */\n      dup4\n        /* \"#utility.yul\":14129:14132   */\n      dup9\n        /* \"#utility.yul\":14125:14141   */\n      add\n        /* \"#utility.yul\":14118:14141   */\n      swap6\n      pop\n        /* \"#utility.yul\":13817:14151   */\n      pop\n      pop\n        /* \"#utility.yul\":13602:14151   */\n    tag_289:\n      pop\n        /* \"#utility.yul\":13390:14157   */\n      pop\n      pop\n        /* \"#utility.yul\":13283:14157   */\n      swap3\n      swap2\n      pop\n      pop\n      jump\t// out\n        /* \"#utility.yul\":14163:14432   */\n    tag_42:\n        /* \"#utility.yul\":14292:14295   */\n      0x00\n        /* \"#utility.yul\":14314:14406   */\n      tag_297\n        /* \"#utility.yul\":14402:14405   */\n      dup3\n        /* \"#utility.yul\":14393:14399   */\n      dup5\n        /* \"#utility.yul\":14314:14406   */\n      tag_136\n      jump\t// in\n    tag_297:\n        /* \"#utility.yul\":14307:14406   */\n      swap2\n      pop\n        /* \"#utility.yul\":14423:14426   */\n      dup2\n        /* \"#utility.yul\":14416:14426   */\n      swap1\n      pop\n        /* \"#utility.yul\":14163:14432   */\n      swap3\n      swap2\n      pop\n      pop\n      jump\t// out\n        /* \"#utility.yul\":14438:14618   */\n    tag_137:\n        /* \"#utility.yul\":14486:14563   */\n      0x4e487b7100000000000000000000000000000000000000000000000000000000\n        /* \"#utility.yul\":14483:14484   */\n      0x00\n        /* \"#utility.yul\":14476:14564   */\n      mstore\n        /* \"#utility.yul\":14583:14587   */\n      0x11\n        /* \"#utility.yul\":14580:14581   */\n      0x04\n        /* \"#utility.yul\":14573:14588   */\n      mstore\n        /* \"#utility.yul\":14607:14611   */\n      0x24\n        /* \"#utility.yul\":14604:14605   */\n      0x00\n        /* \"#utility.yul\":14597:14612   */\n      revert\n        /* \"#utility.yul\":14624:14857   */\n    tag_45:\n        /* \"#utility.yul\":14663:14666   */\n      0x00\n        /* \"#utility.yul\":14686:14710   */\n      tag_300\n        /* \"#utility.yul\":14704:14709   */\n      dup3\n        /* \"#utility.yul\":14686:14710   */\n      tag_118\n      jump\t// in\n    tag_300:\n        /* \"#utility.yul\":14677:14710   */\n      swap2\n      pop\n        /* \"#utility.yul\":14732:14798   */\n      0xffffffffffffffffffffffffffffffffffffffffffffffffffffffffffffffff\n        /* \"#utility.yul\":14725:14730   */\n      dup3\n        /* \"#utility.yul\":14722:14799   */\n      sub\n        /* \"#utility.yul\":14719:14822   */\n      tag_301\n      jumpi\n        /* \"#utility.yul\":14802:14820   */\n      tag_302\n      tag_137\n      jump\t// in\n    tag_302:\n        /* \"#utility.yul\":14719:14822   */\n    tag_301:\n        /* \"#utility.yul\":14849:14850   */\n      0x01\n        /* \"#utility.yul\":14842:14847   */\n      dup3\n        /* \"#utility.yul\":14838:14851   */\n      add\n        /* \"#utility.yul\":14831:14851   */\n      swap1\n      pop\n        /* \"#utility.yul\":14624:14857   */\n      swap2\n      swap1\n      pop\n      jump\t// out\n        /* \"#utility.yul\":14863:15043   */\n    tag_68:\n        /* \"#utility.yul\":14911:14988   */\n      0x4e487b7100000000000000000000000000000000000000000000000000000000\n        /* \"#utility.yul\":14908:14909   */\n      0x00\n        /* \"#utility.yul\":14901:14989   */\n      mstore\n        /* \"#utility.yul\":15008:15012   */\n      0x32\n        /* \"#utility.yul\":15005:15006   */\n      0x04\n        /* \"#utility.yul\":14998:15013   */\n      mstore\n        /* \"#utility.yul\":15032:15036   */\n      0x24\n        /* \"#utility.yul\":15029:15030   */\n      0x00\n        /* \"#utility.yul\":15022:15037   */\n      revert\n        /* \"#utility.yul\":15049:15472   */\n    tag_73:\n        /* \"#utility.yul\":15190:15194   */\n      0x00\n        /* \"#utility.yul\":15228:15230   */\n      0x40\n        /* \"#utility.yul\":15217:15226   */\n      dup3\n        /* \"#utility.yul\":15213:15231   */\n      add\n        /* \"#utility.yul\":15205:15231   */\n      swap1\n      pop\n        /* \"#utility.yul\":15241:15312   */\n      tag_305\n        /* \"#utility.yul\":15309:15310   */\n      0x00\n        /* \"#utility.yul\":15298:15307   */\n      dup4\n        /* \"#utility.yul\":15294:15311   */\n      add\n        /* \"#utility.yul\":15285:15291   */\n      dup6\n        /* \"#utility.yul\":15241:15312   */\n      tag_125\n      jump\t// in\n    tag_305:\n        /* \"#utility.yul\":15359:15368   */\n      dup2\n        /* \"#utility.yul\":15353:15357   */\n      dup2\n        /* \"#utility.yul\":15349:15369   */\n      sub\n        /* \"#utility.yul\":15344:15346   */\n      0x20\n        /* \"#utility.yul\":15333:15342   */\n      dup4\n        /* \"#utility.yul\":15329:15347   */\n      add\n        /* \"#utility.yul\":15322:15370   */\n      mstore\n        /* \"#utility.yul\":15387:15465   */\n      tag_306\n        /* \"#utility.yul\":15460:15464   */\n      dup2\n        /* \"#utility.yul\":15451:15457   */\n      dup5\n        /* \"#utility.yul\":15387:15465   */\n      tag_131\n      jump\t// in\n    tag_306:\n        /* \"#utility.yul\":15379:15465   */\n      swap1\n      pop\n        /* \"#utility.yul\":15049:15472   */\n      swap4\n      swap3\n      pop\n      pop\n      pop\n      jump\t// out\n        /* \"#utility.yul\":15478:15568   */\n    tag_138:\n        /* \"#utility.yul\":15512:15519   */\n      0x00\n        /* \"#utility.yul\":15555:15560   */\n      dup2\n        /* \"#utility.yul\":15548:15561   */\n      iszero\n        /* \"#utility.yul\":15541:15562   */\n      iszero\n        /* \"#utility.yul\":15530:15562   */\n      swap1\n      pop\n        /* \"#utility.yul\":15478:15568   */\n      swap2\n      swap1\n      pop\n      jump\t// out\n        /* \"#utility.yul\":15574:15690   */\n    tag_139:\n        /* \"#utility.yul\":15644:15665   */\n      tag_309\n        /* \"#utility.yul\":15659:15664   */\n      dup2\n        /* \"#utility.yul\":15644:15665   */\n      tag_138\n      jump\t// in\n    tag_309:\n        /* \"#utility.yul\":15637:15642   */\n      dup2\n        /* \"#utility.yul\":15634:15666   */\n      eq\n        /* \"#utility.yul\":15624:15684   */\n      tag_310\n      jumpi\n        /* \"#utility.yul\":15680:15681   */\n      0x00\n        /* \"#utility.yul\":15677:15678   */\n      dup1\n        /* \"#utility.yul\":15670:15682   */\n      revert\n        /* \"#utility.yul\":15624:15684   */\n    tag_310:\n        /* \"#utility.yul\":15574:15690   */\n      pop\n      jump\t// out\n        /* \"#utility.yul\":15696:15833   */\n    tag_140:\n        /* \"#utility.yul\":15750:15755   */\n      0x00\n        /* \"#utility.yul\":15781:15787   */\n      dup2\n        /* \"#utility.yul\":15775:15788   */\n      mload\n        /* \"#utility.yul\":15766:15788   */\n      swap1\n      pop\n        /* \"#utility.yul\":15797:15827   */\n      tag_312\n        /* \"#utility.yul\":15821:15826   */\n      dup2\n        /* \"#utility.yul\":15797:15827   */\n      tag_139\n      jump\t// in\n    tag_312:\n        /* \"#utility.yul\":15696:15833   */\n      swap3\n      swap2\n      pop\n      pop\n      jump\t// out\n        /* \"#utility.yul\":15839:16184   */\n    tag_77:\n        /* \"#utility.yul\":15906:15912   */\n      0x00\n        /* \"#utility.yul\":15955:15957   */\n      0x20\n        /* \"#utility.yul\":15943:15952   */\n      dup3\n        /* \"#utility.yul\":15934:15941   */\n      dup5\n        /* \"#utility.yul\":15930:15953   */\n      sub\n        /* \"#utility.yul\":15926:15958   */\n      slt\n        /* \"#utility.yul\":15923:16042   */\n      iszero\n      tag_314\n      jumpi\n        /* \"#utility.yul\":15961:16040   */\n      tag_315\n      tag_97\n      jump\t// in\n    tag_315:\n        /* \"#utility.yul\":15923:16042   */\n    tag_314:\n        /* \"#utility.yul\":16081:16082   */\n      0x00\n        /* \"#utility.yul\":16106:16167   */\n      tag_316\n        /* \"#utility.yul\":16159:16166   */\n      dup5\n        /* \"#utility.yul\":16150:16156   */\n      dup3\n        /* \"#utility.yul\":16139:16148   */\n      dup6\n        /* \"#utility.yul\":16135:16157   */\n      add\n        /* \"#utility.yul\":16106:16167   */\n      tag_140\n      jump\t// in\n    tag_316:\n        /* \"#utility.yul\":16096:16167   */\n      swap2\n      pop\n        /* \"#utility.yul\":16052:16177   */\n      pop\n        /* \"#utility.yul\":15839:16184   */\n      swap3\n      swap2\n      pop\n      pop\n      jump\t// out\n        /* \"#utility.yul\":16190:16349   */\n    tag_141:\n        /* \"#utility.yul\":16330:16341   */\n      0x6e6f742076616c69640000000000000000000000000000000000000000000000\n        /* \"#utility.yul\":16326:16327   */\n      0x00\n        /* \"#utility.yul\":16318:16324   */\n      dup3\n        /* \"#utility.yul\":16314:16328   */\n      add\n        /* \"#utility.yul\":16307:16342   */\n      mstore\n        /* \"#utility.yul\":16190:16349   */\n      pop\n      jump\t// out\n        /* \"#utility.yul\":16355:16720   */\n    tag_142:\n        /* \"#utility.yul\":16497:16500   */\n      0x00\n        /* \"#utility.yul\":16518:16584   */\n      tag_319\n        /* \"#utility.yul\":16582:16583   */\n      0x09\n        /* \"#utility.yul\":16577:16580   */\n      dup4\n        /* \"#utility.yul\":16518:16584   */\n      tag_130\n      jump\t// in\n    tag_319:\n        /* \"#utility.yul\":16511:16584   */\n      swap2\n      pop\n        /* \"#utility.yul\":16593:16686   */\n      tag_320\n        /* \"#utility.yul\":16682:16685   */\n      dup3\n        /* \"#utility.yul\":16593:16686   */\n      tag_141\n      jump\t// in\n    tag_320:\n        /* \"#utility.yul\":16711:16713   */\n      0x20\n        /* \"#utility.yul\":16706:16709   */\n      dup3\n        /* \"#utility.yul\":16702:16714   */\n      add\n        /* \"#utility.yul\":16695:16714   */\n      swap1\n      pop\n        /* \"#utility.yul\":16355:16720   */\n      swap2\n      swap1\n      pop\n      jump\t// out\n        /* \"#utility.yul\":16726:17145   */\n    tag_80:\n        /* \"#utility.yul\":16892:16896   */\n      0x00\n        /* \"#utility.yul\":16930:16932   */\n      0x20\n        /* \"#utility.yul\":16919:16928   */\n      dup3\n        /* \"#utility.yul\":16915:16933   */\n      add\n        /* \"#utility.yul\":16907:16933   */\n      swap1\n      pop\n        /* \"#utility.yul\":16979:16988   */\n      dup2\n        /* \"#utility.yul\":16973:16977   */\n      dup2\n        /* \"#utility.yul\":16969:16989   */\n      sub\n        /* \"#utility.yul\":16965:16966   */\n      0x00\n        /* \"#utility.yul\":16954:16963   */\n      dup4\n        /* \"#utility.yul\":16950:16967   */\n      add\n        /* \"#utility.yul\":16943:16990   */\n      mstore\n        /* \"#utility.yul\":17007:17138   */\n      tag_322\n        /* \"#utility.yul\":17133:17137   */\n      dup2\n        /* \"#utility.yul\":17007:17138   */\n      tag_142\n      jump\t// in\n    tag_322:\n        /* \"#utility.yul\":16999:17138   */\n      swap1\n      pop\n        /* \"#utility.yul\":16726:17145   */\n      swap2\n      swap1\n      pop\n      jump\t// out\n        /* \"#utility.yul\":17151:17574   */\n    tag_82:\n        /* \"#utility.yul\":17292:17296   */\n      0x00\n        /* \"#utility.yul\":17330:17332   */\n      0x40\n        /* \"#utility.yul\":17319:17328   */\n      dup3\n        /* \"#utility.yul\":17315:17333   */\n      add\n        /* \"#utility.yul\":17307:17333   */\n      swap1\n      pop\n        /* \"#utility.yul\":17379:17388   */\n      dup2\n        /* \"#utility.yul\":17373:17377   */\n      dup2\n        /* \"#utility.yul\":17369:17389   */\n      sub\n        /* \"#utility.yul\":17365:17366   */\n      0x00\n        /* \"#utility.yul\":17354:17363   */\n      dup4\n        /* \"#utility.yul\":17350:17367   */\n      add\n        /* \"#utility.yul\":17343:17390   */\n      mstore\n        /* \"#utility.yul\":17407:17485   */\n      tag_324\n        /* \"#utility.yul\":17480:17484   */\n      dup2\n        /* \"#utility.yul\":17471:17477   */\n      dup6\n        /* \"#utility.yul\":17407:17485   */\n      tag_131\n      jump\t// in\n    tag_324:\n        /* \"#utility.yul\":17399:17485   */\n      swap1\n      pop\n        /* \"#utility.yul\":17495:17567   */\n      tag_325\n        /* \"#utility.yul\":17563:17565   */\n      0x20\n        /* \"#utility.yul\":17552:17561   */\n      dup4\n        /* \"#utility.yul\":17548:17566   */\n      add\n        /* \"#utility.yul\":17539:17545   */\n      dup5\n        /* \"#utility.yul\":17495:17567   */\n      tag_124\n      jump\t// in\n    tag_325:\n        /* \"#utility.yul\":17151:17574   */\n      swap4\n      swap3\n      pop\n      pop\n      pop\n      jump\t// out\n        /* \"#utility.yul\":17580:17673   */\n    tag_143:\n        /* \"#utility.yul\":17617:17623   */\n      0x00\n        /* \"#utility.yul\":17664:17666   */\n      0x20\n        /* \"#utility.yul\":17659:17661   */\n      0x1f\n        /* \"#utility.yul\":17652:17657   */\n      dup4\n        /* \"#utility.yul\":17648:17662   */\n      add\n        /* \"#utility.yul\":17644:17667   */\n      div\n        /* \"#utility.yul\":17634:17667   */\n      swap1\n      pop\n        /* \"#utility.yul\":17580:17673   */\n      swap2\n      swap1\n      pop\n      jump\t// out\n        /* \"#utility.yul\":17679:17786   */\n    tag_144:\n        /* \"#utility.yul\":17723:17731   */\n      0x00\n        /* \"#utility.yul\":17773:17778   */\n      dup3\n        /* \"#utility.yul\":17767:17771   */\n      dup3\n        /* \"#utility.yul\":17763:17779   */\n      shl\n        /* \"#utility.yul\":17742:17779   */\n      swap1\n      pop\n        /* \"#utility.yul\":17679:17786   */\n      swap3\n      swap2\n      pop\n      pop\n      jump\t// out\n        /* \"#utility.yul\":17792:18185   */\n    tag_145:\n        /* \"#utility.yul\":17861:17867   */\n      0x00\n        /* \"#utility.yul\":17911:17912   */\n      0x08\n        /* \"#utility.yul\":17899:17909   */\n      dup4\n        /* \"#utility.yul\":17895:17913   */\n      mul\n        /* \"#utility.yul\":17934:18031   */\n      tag_329\n        /* \"#utility.yul\":17964:18030   */\n      0xffffffffffffffffffffffffffffffffffffffffffffffffffffffffffffffff\n        /* \"#utility.yul\":17953:17962   */\n      dup3\n        /* \"#utility.yul\":17934:18031   */\n      tag_144\n      jump\t// in\n    tag_329:\n        /* \"#utility.yul\":18052:18091   */\n      tag_330\n        /* \"#utility.yul\":18082:18090   */\n      dup7\n        /* \"#utility.yul\":18071:18080   */\n      dup4\n        /* \"#utility.yul\":18052:18091   */\n      tag_144\n      jump\t// in\n    tag_330:\n        /* \"#utility.yul\":18040:18091   */\n      swap6\n      pop\n        /* \"#utility.yul\":18124:18128   */\n      dup1\n        /* \"#utility.yul\":18120:18129   */\n      not\n        /* \"#utility.yul\":18113:18118   */\n      dup5\n        /* \"#utility.yul\":18109:18130   */\n      and\n        /* \"#utility.yul\":18100:18130   */\n      swap4\n      pop\n        /* \"#utility.yul\":18173:18177   */\n      dup1\n        /* \"#utility.yul\":18163:18171   */\n      dup7\n        /* \"#utility.yul\":18159:18178   */\n      and\n        /* \"#utility.yul\":18152:18157   */\n      dup5\n        /* \"#utility.yul\":18149:18179   */\n      or\n        /* \"#utility.yul\":18139:18179   */\n      swap3\n      pop\n        /* \"#utility.yul\":17868:18185   */\n      pop\n      pop\n        /* \"#utility.yul\":17792:18185   */\n      swap4\n      swap3\n      pop\n      pop\n      pop\n      jump\t// out\n        /* \"#utility.yul\":18191:18251   */\n    tag_146:\n        /* \"#utility.yul\":18219:18222   */\n      0x00\n        /* \"#utility.yul\":18240:18245   */\n      dup2\n        /* \"#utility.yul\":18233:18245   */\n      swap1\n      pop\n        /* \"#utility.yul\":18191:18251   */\n      swap2\n      swap1\n      pop\n      jump\t// out\n        /* \"#utility.yul\":18257:18399   */\n    tag_147:\n        /* \"#utility.yul\":18307:18316   */\n      0x00\n        /* \"#utility.yul\":18340:18393   */\n      tag_333\n        /* \"#utility.yul\":18358:18392   */\n      tag_334\n        /* \"#utility.yul\":18367:18391   */\n      tag_335\n        /* \"#utility.yul\":18385:18390   */\n      dup5\n        /* \"#utility.yul\":18367:18391   */\n      tag_118\n      jump\t// in\n    tag_335:\n        /* \"#utility.yul\":18358:18392   */\n      tag_146\n      jump\t// in\n    tag_334:\n        /* \"#utility.yul\":18340:18393   */\n      tag_118\n      jump\t// in\n    tag_333:\n        /* \"#utility.yul\":18327:18393   */\n      swap1\n      pop\n        /* \"#utility.yul\":18257:18399   */\n      swap2\n      swap1\n      pop\n      jump\t// out\n        /* \"#utility.yul\":18405:18480   */\n    tag_148:\n        /* \"#utility.yul\":18448:18451   */\n      0x00\n        /* \"#utility.yul\":18469:18474   */\n      dup2\n        /* \"#utility.yul\":18462:18474   */\n      swap1\n      pop\n        /* \"#utility.yul\":18405:18480   */\n      swap2\n      swap1\n      pop\n      jump\t// out\n        /* \"#utility.yul\":18486:18755   */\n    tag_149:\n        /* \"#utility.yul\":18596:18635   */\n      tag_338\n        /* \"#utility.yul\":18627:18634   */\n      dup4\n        /* \"#utility.yul\":18596:18635   */\n      tag_147\n      jump\t// in\n    tag_338:\n        /* \"#utility.yul\":18657:18748   */\n      tag_339\n        /* \"#utility.yul\":18706:18747   */\n      tag_340\n        /* \"#utility.yul\":18730:18746   */\n      dup3\n        /* \"#utility.yul\":18706:18747   */\n      tag_148\n      jump\t// in\n    tag_340:\n        /* \"#utility.yul\":18698:18704   */\n      dup5\n        /* \"#utility.yul\":18691:18695   */\n      dup5\n        /* \"#utility.yul\":18685:18696   */\n      sload\n        /* \"#utility.yul\":18657:18748   */\n      tag_145\n      jump\t// in\n    tag_339:\n        /* \"#utility.yul\":18651:18655   */\n      dup3\n        /* \"#utility.yul\":18644:18749   */\n      sstore\n        /* \"#utility.yul\":18562:18755   */\n      pop\n        /* \"#utility.yul\":18486:18755   */\n      pop\n      pop\n      pop\n      jump\t// out\n        /* \"#utility.yul\":18761:18834   */\n    tag_150:\n        /* \"#utility.yul\":18806:18809   */\n      0x00\n        /* \"#utility.yul\":18761:18834   */\n      swap1\n      jump\t// out\n        /* \"#utility.yul\":18840:19029   */\n    tag_151:\n        /* \"#utility.yul\":18917:18949   */\n      tag_343\n      tag_150\n      jump\t// in\n    tag_343:\n        /* \"#utility.yul\":18958:19023   */\n      tag_344\n        /* \"#utility.yul\":19016:19022   */\n      dup2\n        /* \"#utility.yul\":19008:19014   */\n      dup5\n        /* \"#utility.yul\":19002:19006   */\n      dup5\n        /* \"#utility.yul\":18958:19023   */\n      tag_149\n      jump\t// in\n    tag_344:\n        /* \"#utility.yul\":18893:19029   */\n      pop\n        /* \"#utility.yul\":18840:19029   */\n      pop\n      pop\n      jump\t// out\n        /* \"#utility.yul\":19035:19221   */\n    tag_152:\n        /* \"#utility.yul\":19095:19215   */\n    tag_346:\n        /* \"#utility.yul\":19112:19115   */\n      dup2\n        /* \"#utility.yul\":19105:19110   */\n      dup2\n        /* \"#utility.yul\":19102:19116   */\n      lt\n        /* \"#utility.yul\":19095:19215   */\n      iszero\n      tag_348\n      jumpi\n        /* \"#utility.yul\":19166:19205   */\n      tag_349\n        /* \"#utility.yul\":19203:19204   */\n      0x00\n        /* \"#utility.yul\":19196:19201   */\n      dup3\n        /* \"#utility.yul\":19166:19205   */\n      tag_151\n      jump\t// in\n    tag_349:\n        /* \"#utility.yul\":19139:19140   */\n      0x01\n        /* \"#utility.yul\":19132:19137   */\n      dup2\n        /* \"#utility.yul\":19128:19141   */\n      add\n        /* \"#utility.yul\":19119:19141   */\n      swap1\n      pop\n        /* \"#utility.yul\":19095:19215   */\n      jump(tag_346)\n    tag_348:\n        /* \"#utility.yul\":19035:19221   */\n      pop\n      pop\n      jump\t// out\n        /* \"#utility.yul\":19227:19770   */\n    tag_153:\n        /* \"#utility.yul\":19328:19330   */\n      0x1f\n        /* \"#utility.yul\":19323:19326   */\n      dup3\n        /* \"#utility.yul\":19320:19331   */\n      gt\n        /* \"#utility.yul\":19317:19763   */\n      iszero\n      tag_351\n      jumpi\n        /* \"#utility.yul\":19362:19400   */\n      tag_352\n        /* \"#utility.yul\":19394:19399   */\n      dup2\n        /* \"#utility.yul\":19362:19400   */\n      tag_135\n      jump\t// in\n    tag_352:\n        /* \"#utility.yul\":19446:19475   */\n      tag_353\n        /* \"#utility.yul\":19464:19474   */\n      dup5\n        /* \"#utility.yul\":19446:19475   */\n      tag_143\n      jump\t// in\n    tag_353:\n        /* \"#utility.yul\":19436:19444   */\n      dup2\n        /* \"#utility.yul\":19432:19476   */\n      add\n        /* \"#utility.yul\":19629:19631   */\n      0x20\n        /* \"#utility.yul\":19617:19627   */\n      dup6\n        /* \"#utility.yul\":19614:19632   */\n      lt\n        /* \"#utility.yul\":19611:19660   */\n      iszero\n      tag_354\n      jumpi\n        /* \"#utility.yul\":19650:19658   */\n      dup2\n        /* \"#utility.yul\":19635:19658   */\n      swap1\n      pop\n        /* \"#utility.yul\":19611:19660   */\n    tag_354:\n        /* \"#utility.yul\":19673:19753   */\n      tag_355\n        /* \"#utility.yul\":19729:19751   */\n      tag_356\n        /* \"#utility.yul\":19747:19750   */\n      dup6\n        /* \"#utility.yul\":19729:19751   */\n      tag_143\n      jump\t// in\n    tag_356:\n        /* \"#utility.yul\":19719:19727   */\n      dup4\n        /* \"#utility.yul\":19715:19752   */\n      add\n        /* \"#utility.yul\":19702:19713   */\n      dup3\n        /* \"#utility.yul\":19673:19753   */\n      tag_152\n      jump\t// in\n    tag_355:\n        /* \"#utility.yul\":19332:19763   */\n      pop\n      pop\n        /* \"#utility.yul\":19317:19763   */\n    tag_351:\n        /* \"#utility.yul\":19227:19770   */\n      pop\n      pop\n      pop\n      jump\t// out\n        /* \"#utility.yul\":19776:19893   */\n    tag_154:\n        /* \"#utility.yul\":19830:19838   */\n      0x00\n        /* \"#utility.yul\":19880:19885   */\n      dup3\n        /* \"#utility.yul\":19874:19878   */\n      dup3\n        /* \"#utility.yul\":19870:19886   */\n      shr\n        /* \"#utility.yul\":19849:19886   */\n      swap1\n      pop\n        /* \"#utility.yul\":19776:19893   */\n      swap3\n      swap2\n      pop\n      pop\n      jump\t// out\n        /* \"#utility.yul\":19899:20068   */\n    tag_155:\n        /* \"#utility.yul\":19943:19949   */\n      0x00\n        /* \"#utility.yul\":19976:20027   */\n      tag_359\n        /* \"#utility.yul\":20024:20025   */\n      0x00\n        /* \"#utility.yul\":20020:20026   */\n      not\n        /* \"#utility.yul\":20012:20017   */\n      dup5\n        /* \"#utility.yul\":20009:20010   */\n      0x08\n        /* \"#utility.yul\":20005:20018   */\n      mul\n        /* \"#utility.yul\":19976:20027   */\n      tag_154\n      jump\t// in\n    tag_359:\n        /* \"#utility.yul\":19972:20028   */\n      not\n        /* \"#utility.yul\":20057:20061   */\n      dup1\n        /* \"#utility.yul\":20051:20055   */\n      dup4\n        /* \"#utility.yul\":20047:20062   */\n      and\n        /* \"#utility.yul\":20037:20062   */\n      swap2\n      pop\n        /* \"#utility.yul\":19950:20068   */\n      pop\n        /* \"#utility.yul\":19899:20068   */\n      swap3\n      swap2\n      pop\n      pop\n      jump\t// out\n        /* \"#utility.yul\":20073:20368   */\n    tag_156:\n        /* \"#utility.yul\":20149:20153   */\n      0x00\n        /* \"#utility.yul\":20295:20324   */\n      tag_361\n        /* \"#utility.yul\":20320:20323   */\n      dup4\n        /* \"#utility.yul\":20314:20318   */\n      dup4\n        /* \"#utility.yul\":20295:20324   */\n      tag_155\n      jump\t// in\n    tag_361:\n        /* \"#utility.yul\":20287:20324   */\n      swap2\n      pop\n        /* \"#utility.yul\":20357:20360   */\n      dup3\n        /* \"#utility.yul\":20354:20355   */\n      0x02\n        /* \"#utility.yul\":20350:20361   */\n      mul\n        /* \"#utility.yul\":20344:20348   */\n      dup3\n        /* \"#utility.yul\":20341:20362   */\n      or\n        /* \"#utility.yul\":20333:20362   */\n      swap1\n      pop\n        /* \"#utility.yul\":20073:20368   */\n      swap3\n      swap2\n      pop\n      pop\n      jump\t// out\n        /* \"#utility.yul\":20373:21768   */\n    tag_88:\n        /* \"#utility.yul\":20490:20527   */\n      tag_363\n        /* \"#utility.yul\":20523:20526   */\n      dup3\n        /* \"#utility.yul\":20490:20527   */\n      tag_111\n      jump\t// in\n    tag_363:\n        /* \"#utility.yul\":20592:20610   */\n      0xffffffffffffffff\n        /* \"#utility.yul\":20584:20590   */\n      dup2\n        /* \"#utility.yul\":20581:20611   */\n      gt\n        /* \"#utility.yul\":20578:20634   */\n      iszero\n      tag_364\n      jumpi\n        /* \"#utility.yul\":20614:20632   */\n      tag_365\n      tag_49\n      jump\t// in\n    tag_365:\n        /* \"#utility.yul\":20578:20634   */\n    tag_364:\n        /* \"#utility.yul\":20658:20696   */\n      tag_366\n        /* \"#utility.yul\":20690:20694   */\n      dup3\n        /* \"#utility.yul\":20684:20695   */\n      sload\n        /* \"#utility.yul\":20658:20696   */\n      tag_61\n      jump\t// in\n    tag_366:\n        /* \"#utility.yul\":20743:20810   */\n      tag_367\n        /* \"#utility.yul\":20803:20809   */\n      dup3\n        /* \"#utility.yul\":20795:20801   */\n      dup3\n        /* \"#utility.yul\":20789:20793   */\n      dup6\n        /* \"#utility.yul\":20743:20810   */\n      tag_153\n      jump\t// in\n    tag_367:\n        /* \"#utility.yul\":20837:20838   */\n      0x00\n        /* \"#utility.yul\":20861:20865   */\n      0x20\n        /* \"#utility.yul\":20848:20865   */\n      swap1\n      pop\n        /* \"#utility.yul\":20893:20895   */\n      0x1f\n        /* \"#utility.yul\":20885:20891   */\n      dup4\n        /* \"#utility.yul\":20882:20896   */\n      gt\n        /* \"#utility.yul\":20910:20911   */\n      0x01\n        /* \"#utility.yul\":20905:21523   */\n      dup2\n      eq\n      tag_369\n      jumpi\n        /* \"#utility.yul\":21567:21568   */\n      0x00\n        /* \"#utility.yul\":21584:21590   */\n      dup5\n        /* \"#utility.yul\":21581:21658   */\n      iszero\n      tag_370\n      jumpi\n        /* \"#utility.yul\":21633:21642   */\n      dup3\n        /* \"#utility.yul\":21628:21631   */\n      dup8\n        /* \"#utility.yul\":21624:21643   */\n      add\n        /* \"#utility.yul\":21618:21644   */\n      mload\n        /* \"#utility.yul\":21609:21644   */\n      swap1\n      pop\n        /* \"#utility.yul\":21581:21658   */\n    tag_370:\n        /* \"#utility.yul\":21684:21751   */\n      tag_371\n        /* \"#utility.yul\":21744:21750   */\n      dup6\n        /* \"#utility.yul\":21737:21742   */\n      dup3\n        /* \"#utility.yul\":21684:21751   */\n      tag_156\n      jump\t// in\n    tag_371:\n        /* \"#utility.yul\":21678:21682   */\n      dup7\n        /* \"#utility.yul\":21671:21752   */\n      sstore\n        /* \"#utility.yul\":21540:21762   */\n      pop\n        /* \"#utility.yul\":20875:21762   */\n      jump(tag_368)\n        /* \"#utility.yul\":20905:21523   */\n    tag_369:\n        /* \"#utility.yul\":20957:20961   */\n      0x1f\n        /* \"#utility.yul\":20953:20962   */\n      not\n        /* \"#utility.yul\":20945:20951   */\n      dup5\n        /* \"#utility.yul\":20941:20963   */\n      and\n        /* \"#utility.yul\":20991:21028   */\n      tag_372\n        /* \"#utility.yul\":21023:21027   */\n      dup7\n        /* \"#utility.yul\":20991:21028   */\n      tag_135\n      jump\t// in\n    tag_372:\n        /* \"#utility.yul\":21050:21051   */\n      0x00\n        /* \"#utility.yul\":21064:21272   */\n    tag_373:\n        /* \"#utility.yul\":21078:21085   */\n      dup3\n        /* \"#utility.yul\":21075:21076   */\n      dup2\n        /* \"#utility.yul\":21072:21086   */\n      lt\n        /* \"#utility.yul\":21064:21272   */\n      iszero\n      tag_375\n      jumpi\n        /* \"#utility.yul\":21157:21166   */\n      dup5\n        /* \"#utility.yul\":21152:21155   */\n      dup10\n        /* \"#utility.yul\":21148:21167   */\n      add\n        /* \"#utility.yul\":21142:21168   */\n      mload\n        /* \"#utility.yul\":21134:21140   */\n      dup3\n        /* \"#utility.yul\":21127:21169   */\n      sstore\n        /* \"#utility.yul\":21208:21209   */\n      0x01\n        /* \"#utility.yul\":21200:21206   */\n      dup3\n        /* \"#utility.yul\":21196:21210   */\n      add\n        /* \"#utility.yul\":21186:21210   */\n      swap2\n      pop\n        /* \"#utility.yul\":21255:21257   */\n      0x20\n        /* \"#utility.yul\":21244:21253   */\n      dup6\n        /* \"#utility.yul\":21240:21258   */\n      add\n        /* \"#utility.yul\":21227:21258   */\n      swap5\n      pop\n        /* \"#utility.yul\":21101:21105   */\n      0x20\n        /* \"#utility.yul\":21098:21099   */\n      dup2\n        /* \"#utility.yul\":21094:21106   */\n      add\n        /* \"#utility.yul\":21089:21106   */\n      swap1\n      pop\n        /* \"#utility.yul\":21064:21272   */\n      jump(tag_373)\n    tag_375:\n        /* \"#utility.yul\":21300:21306   */\n      dup7\n        /* \"#utility.yul\":21291:21298   */\n      dup4\n        /* \"#utility.yul\":21288:21307   */\n      lt\n        /* \"#utility.yul\":21285:21464   */\n      iszero\n      tag_376\n      jumpi\n        /* \"#utility.yul\":21358:21367   */\n      dup5\n        /* \"#utility.yul\":21353:21356   */\n      dup10\n        /* \"#utility.yul\":21349:21368   */\n      add\n        /* \"#utility.yul\":21343:21369   */\n      mload\n        /* \"#utility.yul\":21401:21449   */\n      tag_377\n        /* \"#utility.yul\":21443:21447   */\n      0x1f\n        /* \"#utility.yul\":21435:21441   */\n      dup10\n        /* \"#utility.yul\":21431:21448   */\n      and\n        /* \"#utility.yul\":21420:21429   */\n      dup3\n        /* \"#utility.yul\":21401:21449   */\n      tag_155\n      jump\t// in\n    tag_377:\n        /* \"#utility.yul\":21393:21399   */\n      dup4\n        /* \"#utility.yul\":21386:21450   */\n      sstore\n        /* \"#utility.yul\":21308:21464   */\n      pop\n        /* \"#utility.yul\":21285:21464   */\n    tag_376:\n        /* \"#utility.yul\":21510:21511   */\n      0x01\n        /* \"#utility.yul\":21506:21507   */\n      0x02\n        /* \"#utility.yul\":21498:21504   */\n      dup9\n        /* \"#utility.yul\":21494:21508   */\n      mul\n        /* \"#utility.yul\":21490:21512   */\n      add\n        /* \"#utility.yul\":21484:21488   */\n      dup9\n        /* \"#utility.yul\":21477:21513   */\n      sstore\n        /* \"#utility.yul\":20912:21523   */\n      pop\n      pop\n      pop\n        /* \"#utility.yul\":20875:21762   */\n    tag_368:\n      pop\n        /* \"#utility.yul\":20465:21768   */\n      pop\n      pop\n      pop\n        /* \"#utility.yul\":20373:21768   */\n      pop\n      pop\n      jump\t// out\n        /* \"#utility.yul\":21774:22529   */\n    tag_90:\n        /* \"#utility.yul\":21999:22003   */\n      0x00\n        /* \"#utility.yul\":22037:22040   */\n      0xa0\n        /* \"#utility.yul\":22026:22035   */\n      dup3\n        /* \"#utility.yul\":22022:22041   */\n      add\n        /* \"#utility.yul\":22014:22041   */\n      swap1\n      pop\n        /* \"#utility.yul\":22051:22122   */\n      tag_379\n        /* \"#utility.yul\":22119:22120   */\n      0x00\n        /* \"#utility.yul\":22108:22117   */\n      dup4\n        /* \"#utility.yul\":22104:22121   */\n      add\n        /* \"#utility.yul\":22095:22101   */\n      dup9\n        /* \"#utility.yul\":22051:22122   */\n      tag_124\n      jump\t// in\n    tag_379:\n        /* \"#utility.yul\":22169:22178   */\n      dup2\n        /* \"#utility.yul\":22163:22167   */\n      dup2\n        /* \"#utility.yul\":22159:22179   */\n      sub\n        /* \"#utility.yul\":22154:22156   */\n      0x20\n        /* \"#utility.yul\":22143:22152   */\n      dup4\n        /* \"#utility.yul\":22139:22157   */\n      add\n        /* \"#utility.yul\":22132:22180   */\n      mstore\n        /* \"#utility.yul\":22197:22275   */\n      tag_380\n        /* \"#utility.yul\":22270:22274   */\n      dup2\n        /* \"#utility.yul\":22261:22267   */\n      dup8\n        /* \"#utility.yul\":22197:22275   */\n      tag_131\n      jump\t// in\n    tag_380:\n        /* \"#utility.yul\":22189:22275   */\n      swap1\n      pop\n        /* \"#utility.yul\":22285:22357   */\n      tag_381\n        /* \"#utility.yul\":22353:22355   */\n      0x40\n        /* \"#utility.yul\":22342:22351   */\n      dup4\n        /* \"#utility.yul\":22338:22356   */\n      add\n        /* \"#utility.yul\":22329:22335   */\n      dup7\n        /* \"#utility.yul\":22285:22357   */\n      tag_125\n      jump\t// in\n    tag_381:\n        /* \"#utility.yul\":22367:22439   */\n      tag_382\n        /* \"#utility.yul\":22435:22437   */\n      0x60\n        /* \"#utility.yul\":22424:22433   */\n      dup4\n        /* \"#utility.yul\":22420:22438   */\n      add\n        /* \"#utility.yul\":22411:22417   */\n      dup6\n        /* \"#utility.yul\":22367:22439   */\n      tag_125\n      jump\t// in\n    tag_382:\n        /* \"#utility.yul\":22449:22522   */\n      tag_383\n        /* \"#utility.yul\":22517:22520   */\n      0x80\n        /* \"#utility.yul\":22506:22515   */\n      dup4\n        /* \"#utility.yul\":22502:22521   */\n      add\n        /* \"#utility.yul\":22493:22499   */\n      dup5\n        /* \"#utility.yul\":22449:22522   */\n      tag_124\n      jump\t// in\n    tag_383:\n        /* \"#utility.yul\":21774:22529   */\n      swap7\n      swap6\n      pop\n      pop\n      pop\n      pop\n      pop\n      pop\n      jump\t// out\n\n    auxdata: 0xa264697066735822122007d393b1e0c97037a268ef1bb86ff4765596e9abcda37698bc566ca7ef9d388f64736f6c634300081a0033\n}\n",
				"bytecode": {
					"linkReferences": {},
					"object": "6080604052348015600e575f80fd5b5073cd6a42782d230d7c13a74ddec5dd140e55499df960015f6101000a81548173ffffffffffffffffffffffffffffffffffffffff021916908373ffffffffffffffffffffffffffffffffffffffff16021790555073b5465ed8ecd4f79dd4be10a7c8e7a50664e5eeeb60025f6101000a81548173ffffffffffffffffffffffffffffffffffffffff021916908373ffffffffffffffffffffffffffffffffffffffff1602179055506113e8806100c45f395ff3fe608060405260043610610049575f3560e01c8063208949771461004d5780632abfab4d146100895780638da5cb5b146100b3578063bf8c0325146100dd578063f8626af8146100f9575b5f80fd5b348015610058575f80fd5b50610073600480360381019061006e91906109cc565b610138565b6040516100809190610be5565b60405180910390f35b348015610094575f80fd5b5061009d610447565b6040516100aa9190610c14565b60405180910390f35b3480156100be575f80fd5b506100c761044d565b6040516100d49190610c3c565b60405180910390f35b6100f760048036038101906100f29190610ca9565b610470565b005b348015610104575f80fd5b5061011f600480360381019061011a9190610d29565b61073e565b60405161012f9493929190610d9c565b60405180910390f35b60605f80600190505b60045481116101d1578360405160200161015b9190610e20565b6040516020818303038152906040528051906020012060035f8381526020019081526020015f205f016040516020016101949190610f25565b60405160208183030381529060405280519060200120036101be5781806101ba90610f68565b9250505b80806101c990610f68565b915050610141565b505f8167ffffffffffffffff8111156101ed576101ec6108a8565b5b60405190808252806020026020018201604052801561022657816020015b61021361082e565b81526020019060019003908161020b5790505b5090505f80600190505b600454811161043b578560405160200161024a9190610e20565b6040516020818303038152906040528051906020012060035f8381526020019081526020015f205f016040516020016102839190610f25565b604051602081830303815290604052805190602001200361042a5760035f8281526020019081526020015f206040518060800160405290815f820180546102c990610e63565b80601f01602080910402602001604051908101604052809291908181526020018280546102f590610e63565b80156103405780601f1061031757610100808354040283529160200191610340565b820191905f5260205f20905b81548152906001019060200180831161032357829003601f168201915b50505050508152602001600182015f9054906101000a900473ffffffffffffffffffffffffffffffffffffffff1673ffffffffffffffffffffffffffffffffffffffff1673ffffffffffffffffffffffffffffffffffffffff168152602001600282015f9054906101000a900473ffffffffffffffffffffffffffffffffffffffff1673ffffffffffffffffffffffffffffffffffffffff1673ffffffffffffffffffffffffffffffffffffffff1681526020016003820154815250508383815181106104105761040f610faf565b5b6020026020010181905250818061042690610f68565b9250505b8061043490610f68565b9050610230565b50819350505050919050565b60045481565b5f8054906101000a900473ffffffffffffffffffffffffffffffffffffffff1681565b60015f9054906101000a900473ffffffffffffffffffffffffffffffffffffffff1673ffffffffffffffffffffffffffffffffffffffff1663dd308cb884866040518363ffffffff1660e01b81526004016104cc929190610fdc565b602060405180830381865afa1580156104e7573d5f803e3d5ffd5b505050506040513d601f19601f8201168201806040525081019061050b919061103f565b61054a576040517f08c379a0000000000000000000000000000000000000000000000000000000008152600401610541906110b4565b60405180910390fd5b60025f9054906101000a900473ffffffffffffffffffffffffffffffffffffffff1673ffffffffffffffffffffffffffffffffffffffff1663f25d75e785836040518363ffffffff1660e01b81526004016105a69291906110d2565b5f604051808303815f87803b1580156105bd575f80fd5b505af11580156105cf573d5f803e3d5ffd5b5050505060045f8154809291906105e590610f68565b919050555060405180608001604052808581526020018473ffffffffffffffffffffffffffffffffffffffff1681526020018373ffffffffffffffffffffffffffffffffffffffff1681526020018281525060035f60045481526020019081526020015f205f820151815f01908161065d919061128b565b506020820151816001015f6101000a81548173ffffffffffffffffffffffffffffffffffffffff021916908373ffffffffffffffffffffffffffffffffffffffff1602179055506040820151816002015f6101000a81548173ffffffffffffffffffffffffffffffffffffffff021916908373ffffffffffffffffffffffffffffffffffffffff160217905550606082015181600301559050507f879f7dd974eda17f1fccff5a63a47d118c632796970e5f357de16aa91c9eb7966004548585858560405161073095949392919061135a565b60405180910390a150505050565b6003602052805f5260405f205f91509050805f01805461075d90610e63565b80601f016020809104026020016040519081016040528092919081815260200182805461078990610e63565b80156107d45780601f106107ab576101008083540402835291602001916107d4565b820191905f5260205f20905b8154815290600101906020018083116107b757829003601f168201915b505050505090806001015f9054906101000a900473ffffffffffffffffffffffffffffffffffffffff1690806002015f9054906101000a900473ffffffffffffffffffffffffffffffffffffffff16908060030154905084565b6040518060800160405280606081526020015f73ffffffffffffffffffffffffffffffffffffffff1681526020015f73ffffffffffffffffffffffffffffffffffffffff1681526020015f81525090565b5f604051905090565b5f80fd5b5f80fd5b5f80fd5b5f80fd5b5f601f19601f8301169050919050565b7f4e487b71000000000000000000000000000000000000000000000000000000005f52604160045260245ffd5b6108de82610898565b810181811067ffffffffffffffff821117156108fd576108fc6108a8565b5b80604052505050565b5f61090f61087f565b905061091b82826108d5565b919050565b5f67ffffffffffffffff82111561093a576109396108a8565b5b61094382610898565b9050602081019050919050565b828183375f83830152505050565b5f61097061096b84610920565b610906565b90508281526020810184848401111561098c5761098b610894565b5b610997848285610950565b509392505050565b5f82601f8301126109b3576109b2610890565b5b81356109c384826020860161095e565b91505092915050565b5f602082840312156109e1576109e0610888565b5b5f82013567ffffffffffffffff8111156109fe576109fd61088c565b5b610a0a8482850161099f565b91505092915050565b5f81519050919050565b5f82825260208201905092915050565b5f819050602082019050919050565b5f81519050919050565b5f82825260208201905092915050565b8281835e5f83830152505050565b5f610a6e82610a3c565b610a788185610a46565b9350610a88818560208601610a56565b610a9181610898565b840191505092915050565b5f73ffffffffffffffffffffffffffffffffffffffff82169050919050565b5f610ac582610a9c565b9050919050565b610ad581610abb565b82525050565b5f819050919050565b610aed81610adb565b82525050565b5f608083015f8301518482035f860152610b0d8282610a64565b9150506020830151610b226020860182610acc565b506040830151610b356040860182610acc565b506060830151610b486060860182610ae4565b508091505092915050565b5f610b5e8383610af3565b905092915050565b5f602082019050919050565b5f610b7c82610a13565b610b868185610a1d565b935083602082028501610b9885610a2d565b805f5b85811015610bd35784840389528151610bb48582610b53565b9450610bbf83610b66565b925060208a01995050600181019050610b9b565b50829750879550505050505092915050565b5f6020820190508181035f830152610bfd8184610b72565b905092915050565b610c0e81610adb565b82525050565b5f602082019050610c275f830184610c05565b92915050565b610c3681610abb565b82525050565b5f602082019050610c4f5f830184610c2d565b92915050565b610c5e81610abb565b8114610c68575f80fd5b50565b5f81359050610c7981610c55565b92915050565b610c8881610adb565b8114610c92575f80fd5b50565b5f81359050610ca381610c7f565b92915050565b5f805f8060808587031215610cc157610cc0610888565b5b5f85013567ffffffffffffffff811115610cde57610cdd61088c565b5b610cea8782880161099f565b9450506020610cfb87828801610c6b565b9350506040610d0c87828801610c6b565b9250506060610d1d87828801610c95565b91505092959194509250565b5f60208284031215610d3e57610d3d610888565b5b5f610d4b84828501610c95565b91505092915050565b5f82825260208201905092915050565b5f610d6e82610a3c565b610d788185610d54565b9350610d88818560208601610a56565b610d9181610898565b840191505092915050565b5f6080820190508181035f830152610db48187610d64565b9050610dc36020830186610c2d565b610dd06040830185610c2d565b610ddd6060830184610c05565b95945050505050565b5f81905092915050565b5f610dfa82610a3c565b610e048185610de6565b9350610e14818560208601610a56565b80840191505092915050565b5f610e2b8284610df0565b915081905092915050565b7f4e487b71000000000000000000000000000000000000000000000000000000005f52602260045260245ffd5b5f6002820490506001821680610e7a57607f821691505b602082108103610e8d57610e8c610e36565b5b50919050565b5f819050815f5260205f209050919050565b5f8154610eb181610e63565b610ebb8186610de6565b9450600182165f8114610ed55760018114610eea57610f1c565b60ff1983168652811515820286019350610f1c565b610ef385610e93565b5f5b83811015610f1457815481890152600182019150602081019050610ef5565b838801955050505b50505092915050565b5f610f308284610ea5565b915081905092915050565b7f4e487b71000000000000000000000000000000000000000000000000000000005f52601160045260245ffd5b5f610f7282610adb565b91507fffffffffffffffffffffffffffffffffffffffffffffffffffffffffffffffff8203610fa457610fa3610f3b565b5b600182019050919050565b7f4e487b71000000000000000000000000000000000000000000000000000000005f52603260045260245ffd5b5f604082019050610fef5f830185610c2d565b81810360208301526110018184610d64565b90509392505050565b5f8115159050919050565b61101e8161100a565b8114611028575f80fd5b50565b5f8151905061103981611015565b92915050565b5f6020828403121561105457611053610888565b5b5f6110618482850161102b565b91505092915050565b7f6e6f742076616c696400000000000000000000000000000000000000000000005f82015250565b5f61109e600983610d54565b91506110a98261106a565b602082019050919050565b5f6020820190508181035f8301526110cb81611092565b9050919050565b5f6040820190508181035f8301526110ea8185610d64565b90506110f96020830184610c05565b9392505050565b5f6020601f8301049050919050565b5f82821b905092915050565b5f6008830261114a7fffffffffffffffffffffffffffffffffffffffffffffffffffffffffffffffff8261110f565b611154868361110f565b95508019841693508086168417925050509392505050565b5f819050919050565b5f61118f61118a61118584610adb565b61116c565b610adb565b9050919050565b5f819050919050565b6111a883611175565b6111bc6111b482611196565b84845461111b565b825550505050565b5f90565b6111d06111c4565b6111db81848461119f565b505050565b5b818110156111fe576111f35f826111c8565b6001810190506111e1565b5050565b601f8211156112435761121481610e93565b61121d84611100565b8101602085101561122c578190505b61124061123885611100565b8301826111e0565b50505b505050565b5f82821c905092915050565b5f6112635f1984600802611248565b1980831691505092915050565b5f61127b8383611254565b9150826002028217905092915050565b61129482610a3c565b67ffffffffffffffff8111156112ad576112ac6108a8565b5b6112b78254610e63565b6112c2828285611202565b5f60209050601f8311600181146112f3575f84156112e1578287015190505b6112eb8582611270565b865550611352565b601f19841661130186610e93565b5f5b8281101561132857848901518255600182019150602085019450602081019050611303565b868310156113455784890151611341601f891682611254565b8355505b6001600288020188555050505b505050505050565b5f60a08201905061136d5f830188610c05565b818103602083015261137f8187610d64565b905061138e6040830186610c2d565b61139b6060830185610c2d565b6113a86080830184610c05565b969550505050505056fea264697066735822122007d393b1e0c97037a268ef1bb86ff4765596e9abcda37698bc566ca7ef9d388f64736f6c634300081a0033",
					"opcodes": "PUSH1 0x80 PUSH1 0x40 MSTORE CALLVALUE DUP1 ISZERO PUSH1 0xE JUMPI PUSH0 DUP1 REVERT JUMPDEST POP PUSH20 0xCD6A42782D230D7C13A74DDEC5DD140E55499DF9 PUSH1 0x1 PUSH0 PUSH2 0x100 EXP DUP2 SLOAD DUP2 PUSH20 0xFFFFFFFFFFFFFFFFFFFFFFFFFFFFFFFFFFFFFFFF MUL NOT AND SWAP1 DUP4 PUSH20 0xFFFFFFFFFFFFFFFFFFFFFFFFFFFFFFFFFFFFFFFF AND MUL OR SWAP1 SSTORE POP PUSH20 0xB5465ED8ECD4F79DD4BE10A7C8E7A50664E5EEEB PUSH1 0x2 PUSH0 PUSH2 0x100 EXP DUP2 SLOAD DUP2 PUSH20 0xFFFFFFFFFFFFFFFFFFFFFFFFFFFFFFFFFFFFFFFF MUL NOT AND SWAP1 DUP4 PUSH20 0xFFFFFFFFFFFFFFFFFFFFFFFFFFFFFFFFFFFFFFFF AND MUL OR SWAP1 SSTORE POP PUSH2 0x13E8 DUP1 PUSH2 0xC4 PUSH0 CODECOPY PUSH0 RETURN INVALID PUSH1 0x80 PUSH1 0x40 MSTORE PUSH1 0x4 CALLDATASIZE LT PUSH2 0x49 JUMPI PUSH0 CALLDATALOAD PUSH1 0xE0 SHR DUP1 PUSH4 0x20894977 EQ PUSH2 0x4D JUMPI DUP1 PUSH4 0x2ABFAB4D EQ PUSH2 0x89 JUMPI DUP1 PUSH4 0x8DA5CB5B EQ PUSH2 0xB3 JUMPI DUP1 PUSH4 0xBF8C0325 EQ PUSH2 0xDD JUMPI DUP1 PUSH4 0xF8626AF8 EQ PUSH2 0xF9 JUMPI JUMPDEST PUSH0 DUP1 REVERT JUMPDEST CALLVALUE DUP1 ISZERO PUSH2 0x58 JUMPI PUSH0 DUP1 REVERT JUMPDEST POP PUSH2 0x73 PUSH1 0x4 DUP1 CALLDATASIZE SUB DUP2 ADD SWAP1 PUSH2 0x6E SWAP2 SWAP1 PUSH2 0x9CC JUMP JUMPDEST PUSH2 0x138 JUMP JUMPDEST PUSH1 0x40 MLOAD PUSH2 0x80 SWAP2 SWAP1 PUSH2 0xBE5 JUMP JUMPDEST PUSH1 0x40 MLOAD DUP1 SWAP2 SUB SWAP1 RETURN JUMPDEST CALLVALUE DUP1 ISZERO PUSH2 0x94 JUMPI PUSH0 DUP1 REVERT JUMPDEST POP PUSH2 0x9D PUSH2 0x447 JUMP JUMPDEST PUSH1 0x40 MLOAD PUSH2 0xAA SWAP2 SWAP1 PUSH2 0xC14 JUMP JUMPDEST PUSH1 0x40 MLOAD DUP1 SWAP2 SUB SWAP1 RETURN JUMPDEST CALLVALUE DUP1 ISZERO PUSH2 0xBE JUMPI PUSH0 DUP1 REVERT JUMPDEST POP PUSH2 0xC7 PUSH2 0x44D JUMP JUMPDEST PUSH1 0x40 MLOAD PUSH2 0xD4 SWAP2 SWAP1 PUSH2 0xC3C JUMP JUMPDEST PUSH1 0x40 MLOAD DUP1 SWAP2 SUB SWAP1 RETURN JUMPDEST PUSH2 0xF7 PUSH1 0x4 DUP1 CALLDATASIZE SUB DUP2 ADD SWAP1 PUSH2 0xF2 SWAP2 SWAP1 PUSH2 0xCA9 JUMP JUMPDEST PUSH2 0x470 JUMP JUMPDEST STOP JUMPDEST CALLVALUE DUP1 ISZERO PUSH2 0x104 JUMPI PUSH0 DUP1 REVERT JUMPDEST POP PUSH2 0x11F PUSH1 0x4 DUP1 CALLDATASIZE SUB DUP2 ADD SWAP1 PUSH2 0x11A SWAP2 SWAP1 PUSH2 0xD29 JUMP JUMPDEST PUSH2 0x73E JUMP JUMPDEST PUSH1 0x40 MLOAD PUSH2 0x12F SWAP5 SWAP4 SWAP3 SWAP2 SWAP1 PUSH2 0xD9C JUMP JUMPDEST PUSH1 0x40 MLOAD DUP1 SWAP2 SUB SWAP1 RETURN JUMPDEST PUSH1 0x60 PUSH0 DUP1 PUSH1 0x1 SWAP1 POP JUMPDEST PUSH1 0x4 SLOAD DUP2 GT PUSH2 0x1D1 JUMPI DUP4 PUSH1 0x40 MLOAD PUSH1 0x20 ADD PUSH2 0x15B SWAP2 SWAP1 PUSH2 0xE20 JUMP JUMPDEST PUSH1 0x40 MLOAD PUSH1 0x20 DUP2 DUP4 SUB SUB DUP2 MSTORE SWAP1 PUSH1 0x40 MSTORE DUP1 MLOAD SWAP1 PUSH1 0x20 ADD KECCAK256 PUSH1 0x3 PUSH0 DUP4 DUP2 MSTORE PUSH1 0x20 ADD SWAP1 DUP2 MSTORE PUSH1 0x20 ADD PUSH0 KECCAK256 PUSH0 ADD PUSH1 0x40 MLOAD PUSH1 0x20 ADD PUSH2 0x194 SWAP2 SWAP1 PUSH2 0xF25 JUMP JUMPDEST PUSH1 0x40 MLOAD PUSH1 0x20 DUP2 DUP4 SUB SUB DUP2 MSTORE SWAP1 PUSH1 0x40 MSTORE DUP1 MLOAD SWAP1 PUSH1 0x20 ADD KECCAK256 SUB PUSH2 0x1BE JUMPI DUP2 DUP1 PUSH2 0x1BA SWAP1 PUSH2 0xF68 JUMP JUMPDEST SWAP3 POP POP JUMPDEST DUP1 DUP1 PUSH2 0x1C9 SWAP1 PUSH2 0xF68 JUMP JUMPDEST SWAP2 POP POP PUSH2 0x141 JUMP JUMPDEST POP PUSH0 DUP2 PUSH8 0xFFFFFFFFFFFFFFFF DUP2 GT ISZERO PUSH2 0x1ED JUMPI PUSH2 0x1EC PUSH2 0x8A8 JUMP JUMPDEST JUMPDEST PUSH1 0x40 MLOAD SWAP1 DUP1 DUP3 MSTORE DUP1 PUSH1 0x20 MUL PUSH1 0x20 ADD DUP3 ADD PUSH1 0x40 MSTORE DUP1 ISZERO PUSH2 0x226 JUMPI DUP2 PUSH1 0x20 ADD JUMPDEST PUSH2 0x213 PUSH2 0x82E JUMP JUMPDEST DUP2 MSTORE PUSH1 0x20 ADD SWAP1 PUSH1 0x1 SWAP1 SUB SWAP1 DUP2 PUSH2 0x20B JUMPI SWAP1 POP JUMPDEST POP SWAP1 POP PUSH0 DUP1 PUSH1 0x1 SWAP1 POP JUMPDEST PUSH1 0x4 SLOAD DUP2 GT PUSH2 0x43B JUMPI DUP6 PUSH1 0x40 MLOAD PUSH1 0x20 ADD PUSH2 0x24A SWAP2 SWAP1 PUSH2 0xE20 JUMP JUMPDEST PUSH1 0x40 MLOAD PUSH1 0x20 DUP2 DUP4 SUB SUB DUP2 MSTORE SWAP1 PUSH1 0x40 MSTORE DUP1 MLOAD SWAP1 PUSH1 0x20 ADD KECCAK256 PUSH1 0x3 PUSH0 DUP4 DUP2 MSTORE PUSH1 0x20 ADD SWAP1 DUP2 MSTORE PUSH1 0x20 ADD PUSH0 KECCAK256 PUSH0 ADD PUSH1 0x40 MLOAD PUSH1 0x20 ADD PUSH2 0x283 SWAP2 SWAP1 PUSH2 0xF25 JUMP JUMPDEST PUSH1 0x40 MLOAD PUSH1 0x20 DUP2 DUP4 SUB SUB DUP2 MSTORE SWAP1 PUSH1 0x40 MSTORE DUP1 MLOAD SWAP1 PUSH1 0x20 ADD KECCAK256 SUB PUSH2 0x42A JUMPI PUSH1 0x3 PUSH0 DUP3 DUP2 MSTORE PUSH1 0x20 ADD SWAP1 DUP2 MSTORE PUSH1 0x20 ADD PUSH0 KECCAK256 PUSH1 0x40 MLOAD DUP1 PUSH1 0x80 ADD PUSH1 0x40 MSTORE SWAP1 DUP2 PUSH0 DUP3 ADD DUP1 SLOAD PUSH2 0x2C9 SWAP1 PUSH2 0xE63 JUMP JUMPDEST DUP1 PUSH1 0x1F ADD PUSH1 0x20 DUP1 SWAP2 DIV MUL PUSH1 0x20 ADD PUSH1 0x40 MLOAD SWAP1 DUP2 ADD PUSH1 0x40 MSTORE DUP1 SWAP3 SWAP2 SWAP1 DUP2 DUP2 MSTORE PUSH1 0x20 ADD DUP3 DUP1 SLOAD PUSH2 0x2F5 SWAP1 PUSH2 0xE63 JUMP JUMPDEST DUP1 ISZERO PUSH2 0x340 JUMPI DUP1 PUSH1 0x1F LT PUSH2 0x317 JUMPI PUSH2 0x100 DUP1 DUP4 SLOAD DIV MUL DUP4 MSTORE SWAP2 PUSH1 0x20 ADD SWAP2 PUSH2 0x340 JUMP JUMPDEST DUP3 ADD SWAP2 SWAP1 PUSH0 MSTORE PUSH1 0x20 PUSH0 KECCAK256 SWAP1 JUMPDEST DUP2 SLOAD DUP2 MSTORE SWAP1 PUSH1 0x1 ADD SWAP1 PUSH1 0x20 ADD DUP1 DUP4 GT PUSH2 0x323 JUMPI DUP3 SWAP1 SUB PUSH1 0x1F AND DUP3 ADD SWAP2 JUMPDEST POP POP POP POP POP DUP2 MSTORE PUSH1 0x20 ADD PUSH1 0x1 DUP3 ADD PUSH0 SWAP1 SLOAD SWAP1 PUSH2 0x100 EXP SWAP1 DIV PUSH20 0xFFFFFFFFFFFFFFFFFFFFFFFFFFFFFFFFFFFFFFFF AND PUSH20 0xFFFFFFFFFFFFFFFFFFFFFFFFFFFFFFFFFFFFFFFF AND PUSH20 0xFFFFFFFFFFFFFFFFFFFFFFFFFFFFFFFFFFFFFFFF AND DUP2 MSTORE PUSH1 0x20 ADD PUSH1 0x2 DUP3 ADD PUSH0 SWAP1 SLOAD SWAP1 PUSH2 0x100 EXP SWAP1 DIV PUSH20 0xFFFFFFFFFFFFFFFFFFFFFFFFFFFFFFFFFFFFFFFF AND PUSH20 0xFFFFFFFFFFFFFFFFFFFFFFFFFFFFFFFFFFFFFFFF AND PUSH20 0xFFFFFFFFFFFFFFFFFFFFFFFFFFFFFFFFFFFFFFFF AND DUP2 MSTORE PUSH1 0x20 ADD PUSH1 0x3 DUP3 ADD SLOAD DUP2 MSTORE POP POP DUP4 DUP4 DUP2 MLOAD DUP2 LT PUSH2 0x410 JUMPI PUSH2 0x40F PUSH2 0xFAF JUMP JUMPDEST JUMPDEST PUSH1 0x20 MUL PUSH1 0x20 ADD ADD DUP2 SWAP1 MSTORE POP DUP2 DUP1 PUSH2 0x426 SWAP1 PUSH2 0xF68 JUMP JUMPDEST SWAP3 POP POP JUMPDEST DUP1 PUSH2 0x434 SWAP1 PUSH2 0xF68 JUMP JUMPDEST SWAP1 POP PUSH2 0x230 JUMP JUMPDEST POP DUP2 SWAP4 POP POP POP POP SWAP2 SWAP1 POP JUMP JUMPDEST PUSH1 0x4 SLOAD DUP2 JUMP JUMPDEST PUSH0 DUP1 SLOAD SWAP1 PUSH2 0x100 EXP SWAP1 DIV PUSH20 0xFFFFFFFFFFFFFFFFFFFFFFFFFFFFFFFFFFFFFFFF AND DUP2 JUMP JUMPDEST PUSH1 0x1 PUSH0 SWAP1 SLOAD SWAP1 PUSH2 0x100 EXP SWAP1 DIV PUSH20 0xFFFFFFFFFFFFFFFFFFFFFFFFFFFFFFFFFFFFFFFF AND PUSH20 0xFFFFFFFFFFFFFFFFFFFFFFFFFFFFFFFFFFFFFFFF AND PUSH4 0xDD308CB8 DUP5 DUP7 PUSH1 0x40 MLOAD DUP4 PUSH4 0xFFFFFFFF AND PUSH1 0xE0 SHL DUP2 MSTORE PUSH1 0x4 ADD PUSH2 0x4CC SWAP3 SWAP2 SWAP1 PUSH2 0xFDC JUMP JUMPDEST PUSH1 0x20 PUSH1 0x40 MLOAD DUP1 DUP4 SUB DUP2 DUP7 GAS STATICCALL ISZERO DUP1 ISZERO PUSH2 0x4E7 JUMPI RETURNDATASIZE PUSH0 DUP1 RETURNDATACOPY RETURNDATASIZE PUSH0 REVERT JUMPDEST POP POP POP POP PUSH1 0x40 MLOAD RETURNDATASIZE PUSH1 0x1F NOT PUSH1 0x1F DUP3 ADD AND DUP3 ADD DUP1 PUSH1 0x40 MSTORE POP DUP2 ADD SWAP1 PUSH2 0x50B SWAP2 SWAP1 PUSH2 0x103F JUMP JUMPDEST PUSH2 0x54A JUMPI PUSH1 0x40 MLOAD PUSH32 0x8C379A000000000000000000000000000000000000000000000000000000000 DUP2 MSTORE PUSH1 0x4 ADD PUSH2 0x541 SWAP1 PUSH2 0x10B4 JUMP JUMPDEST PUSH1 0x40 MLOAD DUP1 SWAP2 SUB SWAP1 REVERT JUMPDEST PUSH1 0x2 PUSH0 SWAP1 SLOAD SWAP1 PUSH2 0x100 EXP SWAP1 DIV PUSH20 0xFFFFFFFFFFFFFFFFFFFFFFFFFFFFFFFFFFFFFFFF AND PUSH20 0xFFFFFFFFFFFFFFFFFFFFFFFFFFFFFFFFFFFFFFFF AND PUSH4 0xF25D75E7 DUP6 DUP4 PUSH1 0x40 MLOAD DUP4 PUSH4 0xFFFFFFFF AND PUSH1 0xE0 SHL DUP2 MSTORE PUSH1 0x4 ADD PUSH2 0x5A6 SWAP3 SWAP2 SWAP1 PUSH2 0x10D2 JUMP JUMPDEST PUSH0 PUSH1 0x40 MLOAD DUP1 DUP4 SUB DUP2 PUSH0 DUP8 DUP1 EXTCODESIZE ISZERO DUP1 ISZERO PUSH2 0x5BD JUMPI PUSH0 DUP1 REVERT JUMPDEST POP GAS CALL ISZERO DUP1 ISZERO PUSH2 0x5CF JUMPI RETURNDATASIZE PUSH0 DUP1 RETURNDATACOPY RETURNDATASIZE PUSH0 REVERT JUMPDEST POP POP POP POP PUSH1 0x4 PUSH0 DUP2 SLOAD DUP1 SWAP3 SWAP2 SWAP1 PUSH2 0x5E5 SWAP1 PUSH2 0xF68 JUMP JUMPDEST SWAP2 SWAP1 POP SSTORE POP PUSH1 0x40 MLOAD DUP1 PUSH1 0x80 ADD PUSH1 0x40 MSTORE DUP1 DUP6 DUP2 MSTORE PUSH1 0x20 ADD DUP5 PUSH20 0xFFFFFFFFFFFFFFFFFFFFFFFFFFFFFFFFFFFFFFFF AND DUP2 MSTORE PUSH1 0x20 ADD DUP4 PUSH20 0xFFFFFFFFFFFFFFFFFFFFFFFFFFFFFFFFFFFFFFFF AND DUP2 MSTORE PUSH1 0x20 ADD DUP3 DUP2 MSTORE POP PUSH1 0x3 PUSH0 PUSH1 0x4 SLOAD DUP2 MSTORE PUSH1 0x20 ADD SWAP1 DUP2 MSTORE PUSH1 0x20 ADD PUSH0 KECCAK256 PUSH0 DUP3 ADD MLOAD DUP2 PUSH0 ADD SWAP1 DUP2 PUSH2 0x65D SWAP2 SWAP1 PUSH2 0x128B JUMP JUMPDEST POP PUSH1 0x20 DUP3 ADD MLOAD DUP2 PUSH1 0x1 ADD PUSH0 PUSH2 0x100 EXP DUP2 SLOAD DUP2 PUSH20 0xFFFFFFFFFFFFFFFFFFFFFFFFFFFFFFFFFFFFFFFF MUL NOT AND SWAP1 DUP4 PUSH20 0xFFFFFFFFFFFFFFFFFFFFFFFFFFFFFFFFFFFFFFFF AND MUL OR SWAP1 SSTORE POP PUSH1 0x40 DUP3 ADD MLOAD DUP2 PUSH1 0x2 ADD PUSH0 PUSH2 0x100 EXP DUP2 SLOAD DUP2 PUSH20 0xFFFFFFFFFFFFFFFFFFFFFFFFFFFFFFFFFFFFFFFF MUL NOT AND SWAP1 DUP4 PUSH20 0xFFFFFFFFFFFFFFFFFFFFFFFFFFFFFFFFFFFFFFFF AND MUL OR SWAP1 SSTORE POP PUSH1 0x60 DUP3 ADD MLOAD DUP2 PUSH1 0x3 ADD SSTORE SWAP1 POP POP PUSH32 0x879F7DD974EDA17F1FCCFF5A63A47D118C632796970E5F357DE16AA91C9EB796 PUSH1 0x4 SLOAD DUP6 DUP6 DUP6 DUP6 PUSH1 0x40 MLOAD PUSH2 0x730 SWAP6 SWAP5 SWAP4 SWAP3 SWAP2 SWAP1 PUSH2 0x135A JUMP JUMPDEST PUSH1 0x40 MLOAD DUP1 SWAP2 SUB SWAP1 LOG1 POP POP POP POP JUMP JUMPDEST PUSH1 0x3 PUSH1 0x20 MSTORE DUP1 PUSH0 MSTORE PUSH1 0x40 PUSH0 KECCAK256 PUSH0 SWAP2 POP SWAP1 POP DUP1 PUSH0 ADD DUP1 SLOAD PUSH2 0x75D SWAP1 PUSH2 0xE63 JUMP JUMPDEST DUP1 PUSH1 0x1F ADD PUSH1 0x20 DUP1 SWAP2 DIV MUL PUSH1 0x20 ADD PUSH1 0x40 MLOAD SWAP1 DUP2 ADD PUSH1 0x40 MSTORE DUP1 SWAP3 SWAP2 SWAP1 DUP2 DUP2 MSTORE PUSH1 0x20 ADD DUP3 DUP1 SLOAD PUSH2 0x789 SWAP1 PUSH2 0xE63 JUMP JUMPDEST DUP1 ISZERO PUSH2 0x7D4 JUMPI DUP1 PUSH1 0x1F LT PUSH2 0x7AB JUMPI PUSH2 0x100 DUP1 DUP4 SLOAD DIV MUL DUP4 MSTORE SWAP2 PUSH1 0x20 ADD SWAP2 PUSH2 0x7D4 JUMP JUMPDEST DUP3 ADD SWAP2 SWAP1 PUSH0 MSTORE PUSH1 0x20 PUSH0 KECCAK256 SWAP1 JUMPDEST DUP2 SLOAD DUP2 MSTORE SWAP1 PUSH1 0x1 ADD SWAP1 PUSH1 0x20 ADD DUP1 DUP4 GT PUSH2 0x7B7 JUMPI DUP3 SWAP1 SUB PUSH1 0x1F AND DUP3 ADD SWAP2 JUMPDEST POP POP POP POP POP SWAP1 DUP1 PUSH1 0x1 ADD PUSH0 SWAP1 SLOAD SWAP1 PUSH2 0x100 EXP SWAP1 DIV PUSH20 0xFFFFFFFFFFFFFFFFFFFFFFFFFFFFFFFFFFFFFFFF AND SWAP1 DUP1 PUSH1 0x2 ADD PUSH0 SWAP1 SLOAD SWAP1 PUSH2 0x100 EXP SWAP1 DIV PUSH20 0xFFFFFFFFFFFFFFFFFFFFFFFFFFFFFFFFFFFFFFFF AND SWAP1 DUP1 PUSH1 0x3 ADD SLOAD SWAP1 POP DUP5 JUMP JUMPDEST PUSH1 0x40 MLOAD DUP1 PUSH1 0x80 ADD PUSH1 0x40 MSTORE DUP1 PUSH1 0x60 DUP2 MSTORE PUSH1 0x20 ADD PUSH0 PUSH20 0xFFFFFFFFFFFFFFFFFFFFFFFFFFFFFFFFFFFFFFFF AND DUP2 MSTORE PUSH1 0x20 ADD PUSH0 PUSH20 0xFFFFFFFFFFFFFFFFFFFFFFFFFFFFFFFFFFFFFFFF AND DUP2 MSTORE PUSH1 0x20 ADD PUSH0 DUP2 MSTORE POP SWAP1 JUMP JUMPDEST PUSH0 PUSH1 0x40 MLOAD SWAP1 POP SWAP1 JUMP JUMPDEST PUSH0 DUP1 REVERT JUMPDEST PUSH0 DUP1 REVERT JUMPDEST PUSH0 DUP1 REVERT JUMPDEST PUSH0 DUP1 REVERT JUMPDEST PUSH0 PUSH1 0x1F NOT PUSH1 0x1F DUP4 ADD AND SWAP1 POP SWAP2 SWAP1 POP JUMP JUMPDEST PUSH32 0x4E487B7100000000000000000000000000000000000000000000000000000000 PUSH0 MSTORE PUSH1 0x41 PUSH1 0x4 MSTORE PUSH1 0x24 PUSH0 REVERT JUMPDEST PUSH2 0x8DE DUP3 PUSH2 0x898 JUMP JUMPDEST DUP2 ADD DUP2 DUP2 LT PUSH8 0xFFFFFFFFFFFFFFFF DUP3 GT OR ISZERO PUSH2 0x8FD JUMPI PUSH2 0x8FC PUSH2 0x8A8 JUMP JUMPDEST JUMPDEST DUP1 PUSH1 0x40 MSTORE POP POP POP JUMP JUMPDEST PUSH0 PUSH2 0x90F PUSH2 0x87F JUMP JUMPDEST SWAP1 POP PUSH2 0x91B DUP3 DUP3 PUSH2 0x8D5 JUMP JUMPDEST SWAP2 SWAP1 POP JUMP JUMPDEST PUSH0 PUSH8 0xFFFFFFFFFFFFFFFF DUP3 GT ISZERO PUSH2 0x93A JUMPI PUSH2 0x939 PUSH2 0x8A8 JUMP JUMPDEST JUMPDEST PUSH2 0x943 DUP3 PUSH2 0x898 JUMP JUMPDEST SWAP1 POP PUSH1 0x20 DUP2 ADD SWAP1 POP SWAP2 SWAP1 POP JUMP JUMPDEST DUP3 DUP2 DUP4 CALLDATACOPY PUSH0 DUP4 DUP4 ADD MSTORE POP POP POP JUMP JUMPDEST PUSH0 PUSH2 0x970 PUSH2 0x96B DUP5 PUSH2 0x920 JUMP JUMPDEST PUSH2 0x906 JUMP JUMPDEST SWAP1 POP DUP3 DUP2 MSTORE PUSH1 0x20 DUP2 ADD DUP5 DUP5 DUP5 ADD GT ISZERO PUSH2 0x98C JUMPI PUSH2 0x98B PUSH2 0x894 JUMP JUMPDEST JUMPDEST PUSH2 0x997 DUP5 DUP3 DUP6 PUSH2 0x950 JUMP JUMPDEST POP SWAP4 SWAP3 POP POP POP JUMP JUMPDEST PUSH0 DUP3 PUSH1 0x1F DUP4 ADD SLT PUSH2 0x9B3 JUMPI PUSH2 0x9B2 PUSH2 0x890 JUMP JUMPDEST JUMPDEST DUP2 CALLDATALOAD PUSH2 0x9C3 DUP5 DUP3 PUSH1 0x20 DUP7 ADD PUSH2 0x95E JUMP JUMPDEST SWAP2 POP POP SWAP3 SWAP2 POP POP JUMP JUMPDEST PUSH0 PUSH1 0x20 DUP3 DUP5 SUB SLT ISZERO PUSH2 0x9E1 JUMPI PUSH2 0x9E0 PUSH2 0x888 JUMP JUMPDEST JUMPDEST PUSH0 DUP3 ADD CALLDATALOAD PUSH8 0xFFFFFFFFFFFFFFFF DUP2 GT ISZERO PUSH2 0x9FE JUMPI PUSH2 0x9FD PUSH2 0x88C JUMP JUMPDEST JUMPDEST PUSH2 0xA0A DUP5 DUP3 DUP6 ADD PUSH2 0x99F JUMP JUMPDEST SWAP2 POP POP SWAP3 SWAP2 POP POP JUMP JUMPDEST PUSH0 DUP2 MLOAD SWAP1 POP SWAP2 SWAP1 POP JUMP JUMPDEST PUSH0 DUP3 DUP3 MSTORE PUSH1 0x20 DUP3 ADD SWAP1 POP SWAP3 SWAP2 POP POP JUMP JUMPDEST PUSH0 DUP2 SWAP1 POP PUSH1 0x20 DUP3 ADD SWAP1 POP SWAP2 SWAP1 POP JUMP JUMPDEST PUSH0 DUP2 MLOAD SWAP1 POP SWAP2 SWAP1 POP JUMP JUMPDEST PUSH0 DUP3 DUP3 MSTORE PUSH1 0x20 DUP3 ADD SWAP1 POP SWAP3 SWAP2 POP POP JUMP JUMPDEST DUP3 DUP2 DUP4 MCOPY PUSH0 DUP4 DUP4 ADD MSTORE POP POP POP JUMP JUMPDEST PUSH0 PUSH2 0xA6E DUP3 PUSH2 0xA3C JUMP JUMPDEST PUSH2 0xA78 DUP2 DUP6 PUSH2 0xA46 JUMP JUMPDEST SWAP4 POP PUSH2 0xA88 DUP2 DUP6 PUSH1 0x20 DUP7 ADD PUSH2 0xA56 JUMP JUMPDEST PUSH2 0xA91 DUP2 PUSH2 0x898 JUMP JUMPDEST DUP5 ADD SWAP2 POP POP SWAP3 SWAP2 POP POP JUMP JUMPDEST PUSH0 PUSH20 0xFFFFFFFFFFFFFFFFFFFFFFFFFFFFFFFFFFFFFFFF DUP3 AND SWAP1 POP SWAP2 SWAP1 POP JUMP JUMPDEST PUSH0 PUSH2 0xAC5 DUP3 PUSH2 0xA9C JUMP JUMPDEST SWAP1 POP SWAP2 SWAP1 POP JUMP JUMPDEST PUSH2 0xAD5 DUP2 PUSH2 0xABB JUMP JUMPDEST DUP3 MSTORE POP POP JUMP JUMPDEST PUSH0 DUP2 SWAP1 POP SWAP2 SWAP1 POP JUMP JUMPDEST PUSH2 0xAED DUP2 PUSH2 0xADB JUMP JUMPDEST DUP3 MSTORE POP POP JUMP JUMPDEST PUSH0 PUSH1 0x80 DUP4 ADD PUSH0 DUP4 ADD MLOAD DUP5 DUP3 SUB PUSH0 DUP7 ADD MSTORE PUSH2 0xB0D DUP3 DUP3 PUSH2 0xA64 JUMP JUMPDEST SWAP2 POP POP PUSH1 0x20 DUP4 ADD MLOAD PUSH2 0xB22 PUSH1 0x20 DUP7 ADD DUP3 PUSH2 0xACC JUMP JUMPDEST POP PUSH1 0x40 DUP4 ADD MLOAD PUSH2 0xB35 PUSH1 0x40 DUP7 ADD DUP3 PUSH2 0xACC JUMP JUMPDEST POP PUSH1 0x60 DUP4 ADD MLOAD PUSH2 0xB48 PUSH1 0x60 DUP7 ADD DUP3 PUSH2 0xAE4 JUMP JUMPDEST POP DUP1 SWAP2 POP POP SWAP3 SWAP2 POP POP JUMP JUMPDEST PUSH0 PUSH2 0xB5E DUP4 DUP4 PUSH2 0xAF3 JUMP JUMPDEST SWAP1 POP SWAP3 SWAP2 POP POP JUMP JUMPDEST PUSH0 PUSH1 0x20 DUP3 ADD SWAP1 POP SWAP2 SWAP1 POP JUMP JUMPDEST PUSH0 PUSH2 0xB7C DUP3 PUSH2 0xA13 JUMP JUMPDEST PUSH2 0xB86 DUP2 DUP6 PUSH2 0xA1D JUMP JUMPDEST SWAP4 POP DUP4 PUSH1 0x20 DUP3 MUL DUP6 ADD PUSH2 0xB98 DUP6 PUSH2 0xA2D JUMP JUMPDEST DUP1 PUSH0 JUMPDEST DUP6 DUP2 LT ISZERO PUSH2 0xBD3 JUMPI DUP5 DUP5 SUB DUP10 MSTORE DUP2 MLOAD PUSH2 0xBB4 DUP6 DUP3 PUSH2 0xB53 JUMP JUMPDEST SWAP5 POP PUSH2 0xBBF DUP4 PUSH2 0xB66 JUMP JUMPDEST SWAP3 POP PUSH1 0x20 DUP11 ADD SWAP10 POP POP PUSH1 0x1 DUP2 ADD SWAP1 POP PUSH2 0xB9B JUMP JUMPDEST POP DUP3 SWAP8 POP DUP8 SWAP6 POP POP POP POP POP POP SWAP3 SWAP2 POP POP JUMP JUMPDEST PUSH0 PUSH1 0x20 DUP3 ADD SWAP1 POP DUP2 DUP2 SUB PUSH0 DUP4 ADD MSTORE PUSH2 0xBFD DUP2 DUP5 PUSH2 0xB72 JUMP JUMPDEST SWAP1 POP SWAP3 SWAP2 POP POP JUMP JUMPDEST PUSH2 0xC0E DUP2 PUSH2 0xADB JUMP JUMPDEST DUP3 MSTORE POP POP JUMP JUMPDEST PUSH0 PUSH1 0x20 DUP3 ADD SWAP1 POP PUSH2 0xC27 PUSH0 DUP4 ADD DUP5 PUSH2 0xC05 JUMP JUMPDEST SWAP3 SWAP2 POP POP JUMP JUMPDEST PUSH2 0xC36 DUP2 PUSH2 0xABB JUMP JUMPDEST DUP3 MSTORE POP POP JUMP JUMPDEST PUSH0 PUSH1 0x20 DUP3 ADD SWAP1 POP PUSH2 0xC4F PUSH0 DUP4 ADD DUP5 PUSH2 0xC2D JUMP JUMPDEST SWAP3 SWAP2 POP POP JUMP JUMPDEST PUSH2 0xC5E DUP2 PUSH2 0xABB JUMP JUMPDEST DUP2 EQ PUSH2 0xC68 JUMPI PUSH0 DUP1 REVERT JUMPDEST POP JUMP JUMPDEST PUSH0 DUP2 CALLDATALOAD SWAP1 POP PUSH2 0xC79 DUP2 PUSH2 0xC55 JUMP JUMPDEST SWAP3 SWAP2 POP POP JUMP JUMPDEST PUSH2 0xC88 DUP2 PUSH2 0xADB JUMP JUMPDEST DUP2 EQ PUSH2 0xC92 JUMPI PUSH0 DUP1 REVERT JUMPDEST POP JUMP JUMPDEST PUSH0 DUP2 CALLDATALOAD SWAP1 POP PUSH2 0xCA3 DUP2 PUSH2 0xC7F JUMP JUMPDEST SWAP3 SWAP2 POP POP JUMP JUMPDEST PUSH0 DUP1 PUSH0 DUP1 PUSH1 0x80 DUP6 DUP8 SUB SLT ISZERO PUSH2 0xCC1 JUMPI PUSH2 0xCC0 PUSH2 0x888 JUMP JUMPDEST JUMPDEST PUSH0 DUP6 ADD CALLDATALOAD PUSH8 0xFFFFFFFFFFFFFFFF DUP2 GT ISZERO PUSH2 0xCDE JUMPI PUSH2 0xCDD PUSH2 0x88C JUMP JUMPDEST JUMPDEST PUSH2 0xCEA DUP8 DUP3 DUP9 ADD PUSH2 0x99F JUMP JUMPDEST SWAP5 POP POP PUSH1 0x20 PUSH2 0xCFB DUP8 DUP3 DUP9 ADD PUSH2 0xC6B JUMP JUMPDEST SWAP4 POP POP PUSH1 0x40 PUSH2 0xD0C DUP8 DUP3 DUP9 ADD PUSH2 0xC6B JUMP JUMPDEST SWAP3 POP POP PUSH1 0x60 PUSH2 0xD1D DUP8 DUP3 DUP9 ADD PUSH2 0xC95 JUMP JUMPDEST SWAP2 POP POP SWAP3 SWAP6 SWAP2 SWAP5 POP SWAP3 POP JUMP JUMPDEST PUSH0 PUSH1 0x20 DUP3 DUP5 SUB SLT ISZERO PUSH2 0xD3E JUMPI PUSH2 0xD3D PUSH2 0x888 JUMP JUMPDEST JUMPDEST PUSH0 PUSH2 0xD4B DUP5 DUP3 DUP6 ADD PUSH2 0xC95 JUMP JUMPDEST SWAP2 POP POP SWAP3 SWAP2 POP POP JUMP JUMPDEST PUSH0 DUP3 DUP3 MSTORE PUSH1 0x20 DUP3 ADD SWAP1 POP SWAP3 SWAP2 POP POP JUMP JUMPDEST PUSH0 PUSH2 0xD6E DUP3 PUSH2 0xA3C JUMP JUMPDEST PUSH2 0xD78 DUP2 DUP6 PUSH2 0xD54 JUMP JUMPDEST SWAP4 POP PUSH2 0xD88 DUP2 DUP6 PUSH1 0x20 DUP7 ADD PUSH2 0xA56 JUMP JUMPDEST PUSH2 0xD91 DUP2 PUSH2 0x898 JUMP JUMPDEST DUP5 ADD SWAP2 POP POP SWAP3 SWAP2 POP POP JUMP JUMPDEST PUSH0 PUSH1 0x80 DUP3 ADD SWAP1 POP DUP2 DUP2 SUB PUSH0 DUP4 ADD MSTORE PUSH2 0xDB4 DUP2 DUP8 PUSH2 0xD64 JUMP JUMPDEST SWAP1 POP PUSH2 0xDC3 PUSH1 0x20 DUP4 ADD DUP7 PUSH2 0xC2D JUMP JUMPDEST PUSH2 0xDD0 PUSH1 0x40 DUP4 ADD DUP6 PUSH2 0xC2D JUMP JUMPDEST PUSH2 0xDDD PUSH1 0x60 DUP4 ADD DUP5 PUSH2 0xC05 JUMP JUMPDEST SWAP6 SWAP5 POP POP POP POP POP JUMP JUMPDEST PUSH0 DUP2 SWAP1 POP SWAP3 SWAP2 POP POP JUMP JUMPDEST PUSH0 PUSH2 0xDFA DUP3 PUSH2 0xA3C JUMP JUMPDEST PUSH2 0xE04 DUP2 DUP6 PUSH2 0xDE6 JUMP JUMPDEST SWAP4 POP PUSH2 0xE14 DUP2 DUP6 PUSH1 0x20 DUP7 ADD PUSH2 0xA56 JUMP JUMPDEST DUP1 DUP5 ADD SWAP2 POP POP SWAP3 SWAP2 POP POP JUMP JUMPDEST PUSH0 PUSH2 0xE2B DUP3 DUP5 PUSH2 0xDF0 JUMP JUMPDEST SWAP2 POP DUP2 SWAP1 POP SWAP3 SWAP2 POP POP JUMP JUMPDEST PUSH32 0x4E487B7100000000000000000000000000000000000000000000000000000000 PUSH0 MSTORE PUSH1 0x22 PUSH1 0x4 MSTORE PUSH1 0x24 PUSH0 REVERT JUMPDEST PUSH0 PUSH1 0x2 DUP3 DIV SWAP1 POP PUSH1 0x1 DUP3 AND DUP1 PUSH2 0xE7A JUMPI PUSH1 0x7F DUP3 AND SWAP2 POP JUMPDEST PUSH1 0x20 DUP3 LT DUP2 SUB PUSH2 0xE8D JUMPI PUSH2 0xE8C PUSH2 0xE36 JUMP JUMPDEST JUMPDEST POP SWAP2 SWAP1 POP JUMP JUMPDEST PUSH0 DUP2 SWAP1 POP DUP2 PUSH0 MSTORE PUSH1 0x20 PUSH0 KECCAK256 SWAP1 POP SWAP2 SWAP1 POP JUMP JUMPDEST PUSH0 DUP2 SLOAD PUSH2 0xEB1 DUP2 PUSH2 0xE63 JUMP JUMPDEST PUSH2 0xEBB DUP2 DUP7 PUSH2 0xDE6 JUMP JUMPDEST SWAP5 POP PUSH1 0x1 DUP3 AND PUSH0 DUP2 EQ PUSH2 0xED5 JUMPI PUSH1 0x1 DUP2 EQ PUSH2 0xEEA JUMPI PUSH2 0xF1C JUMP JUMPDEST PUSH1 0xFF NOT DUP4 AND DUP7 MSTORE DUP2 ISZERO ISZERO DUP3 MUL DUP7 ADD SWAP4 POP PUSH2 0xF1C JUMP JUMPDEST PUSH2 0xEF3 DUP6 PUSH2 0xE93 JUMP JUMPDEST PUSH0 JUMPDEST DUP4 DUP2 LT ISZERO PUSH2 0xF14 JUMPI DUP2 SLOAD DUP2 DUP10 ADD MSTORE PUSH1 0x1 DUP3 ADD SWAP2 POP PUSH1 0x20 DUP2 ADD SWAP1 POP PUSH2 0xEF5 JUMP JUMPDEST DUP4 DUP9 ADD SWAP6 POP POP POP JUMPDEST POP POP POP SWAP3 SWAP2 POP POP JUMP JUMPDEST PUSH0 PUSH2 0xF30 DUP3 DUP5 PUSH2 0xEA5 JUMP JUMPDEST SWAP2 POP DUP2 SWAP1 POP SWAP3 SWAP2 POP POP JUMP JUMPDEST PUSH32 0x4E487B7100000000000000000000000000000000000000000000000000000000 PUSH0 MSTORE PUSH1 0x11 PUSH1 0x4 MSTORE PUSH1 0x24 PUSH0 REVERT JUMPDEST PUSH0 PUSH2 0xF72 DUP3 PUSH2 0xADB JUMP JUMPDEST SWAP2 POP PUSH32 0xFFFFFFFFFFFFFFFFFFFFFFFFFFFFFFFFFFFFFFFFFFFFFFFFFFFFFFFFFFFFFFFF DUP3 SUB PUSH2 0xFA4 JUMPI PUSH2 0xFA3 PUSH2 0xF3B JUMP JUMPDEST JUMPDEST PUSH1 0x1 DUP3 ADD SWAP1 POP SWAP2 SWAP1 POP JUMP JUMPDEST PUSH32 0x4E487B7100000000000000000000000000000000000000000000000000000000 PUSH0 MSTORE PUSH1 0x32 PUSH1 0x4 MSTORE PUSH1 0x24 PUSH0 REVERT JUMPDEST PUSH0 PUSH1 0x40 DUP3 ADD SWAP1 POP PUSH2 0xFEF PUSH0 DUP4 ADD DUP6 PUSH2 0xC2D JUMP JUMPDEST DUP2 DUP2 SUB PUSH1 0x20 DUP4 ADD MSTORE PUSH2 0x1001 DUP2 DUP5 PUSH2 0xD64 JUMP JUMPDEST SWAP1 POP SWAP4 SWAP3 POP POP POP JUMP JUMPDEST PUSH0 DUP2 ISZERO ISZERO SWAP1 POP SWAP2 SWAP1 POP JUMP JUMPDEST PUSH2 0x101E DUP2 PUSH2 0x100A JUMP JUMPDEST DUP2 EQ PUSH2 0x1028 JUMPI PUSH0 DUP1 REVERT JUMPDEST POP JUMP JUMPDEST PUSH0 DUP2 MLOAD SWAP1 POP PUSH2 0x1039 DUP2 PUSH2 0x1015 JUMP JUMPDEST SWAP3 SWAP2 POP POP JUMP JUMPDEST PUSH0 PUSH1 0x20 DUP3 DUP5 SUB SLT ISZERO PUSH2 0x1054 JUMPI PUSH2 0x1053 PUSH2 0x888 JUMP JUMPDEST JUMPDEST PUSH0 PUSH2 0x1061 DUP5 DUP3 DUP6 ADD PUSH2 0x102B JUMP JUMPDEST SWAP2 POP POP SWAP3 SWAP2 POP POP JUMP JUMPDEST PUSH32 0x6E6F742076616C69640000000000000000000000000000000000000000000000 PUSH0 DUP3 ADD MSTORE POP JUMP JUMPDEST PUSH0 PUSH2 0x109E PUSH1 0x9 DUP4 PUSH2 0xD54 JUMP JUMPDEST SWAP2 POP PUSH2 0x10A9 DUP3 PUSH2 0x106A JUMP JUMPDEST PUSH1 0x20 DUP3 ADD SWAP1 POP SWAP2 SWAP1 POP JUMP JUMPDEST PUSH0 PUSH1 0x20 DUP3 ADD SWAP1 POP DUP2 DUP2 SUB PUSH0 DUP4 ADD MSTORE PUSH2 0x10CB DUP2 PUSH2 0x1092 JUMP JUMPDEST SWAP1 POP SWAP2 SWAP1 POP JUMP JUMPDEST PUSH0 PUSH1 0x40 DUP3 ADD SWAP1 POP DUP2 DUP2 SUB PUSH0 DUP4 ADD MSTORE PUSH2 0x10EA DUP2 DUP6 PUSH2 0xD64 JUMP JUMPDEST SWAP1 POP PUSH2 0x10F9 PUSH1 0x20 DUP4 ADD DUP5 PUSH2 0xC05 JUMP JUMPDEST SWAP4 SWAP3 POP POP POP JUMP JUMPDEST PUSH0 PUSH1 0x20 PUSH1 0x1F DUP4 ADD DIV SWAP1 POP SWAP2 SWAP1 POP JUMP JUMPDEST PUSH0 DUP3 DUP3 SHL SWAP1 POP SWAP3 SWAP2 POP POP JUMP JUMPDEST PUSH0 PUSH1 0x8 DUP4 MUL PUSH2 0x114A PUSH32 0xFFFFFFFFFFFFFFFFFFFFFFFFFFFFFFFFFFFFFFFFFFFFFFFFFFFFFFFFFFFFFFFF DUP3 PUSH2 0x110F JUMP JUMPDEST PUSH2 0x1154 DUP7 DUP4 PUSH2 0x110F JUMP JUMPDEST SWAP6 POP DUP1 NOT DUP5 AND SWAP4 POP DUP1 DUP7 AND DUP5 OR SWAP3 POP POP POP SWAP4 SWAP3 POP POP POP JUMP JUMPDEST PUSH0 DUP2 SWAP1 POP SWAP2 SWAP1 POP JUMP JUMPDEST PUSH0 PUSH2 0x118F PUSH2 0x118A PUSH2 0x1185 DUP5 PUSH2 0xADB JUMP JUMPDEST PUSH2 0x116C JUMP JUMPDEST PUSH2 0xADB JUMP JUMPDEST SWAP1 POP SWAP2 SWAP1 POP JUMP JUMPDEST PUSH0 DUP2 SWAP1 POP SWAP2 SWAP1 POP JUMP JUMPDEST PUSH2 0x11A8 DUP4 PUSH2 0x1175 JUMP JUMPDEST PUSH2 0x11BC PUSH2 0x11B4 DUP3 PUSH2 0x1196 JUMP JUMPDEST DUP5 DUP5 SLOAD PUSH2 0x111B JUMP JUMPDEST DUP3 SSTORE POP POP POP POP JUMP JUMPDEST PUSH0 SWAP1 JUMP JUMPDEST PUSH2 0x11D0 PUSH2 0x11C4 JUMP JUMPDEST PUSH2 0x11DB DUP2 DUP5 DUP5 PUSH2 0x119F JUMP JUMPDEST POP POP POP JUMP JUMPDEST JUMPDEST DUP2 DUP2 LT ISZERO PUSH2 0x11FE JUMPI PUSH2 0x11F3 PUSH0 DUP3 PUSH2 0x11C8 JUMP JUMPDEST PUSH1 0x1 DUP2 ADD SWAP1 POP PUSH2 0x11E1 JUMP JUMPDEST POP POP JUMP JUMPDEST PUSH1 0x1F DUP3 GT ISZERO PUSH2 0x1243 JUMPI PUSH2 0x1214 DUP2 PUSH2 0xE93 JUMP JUMPDEST PUSH2 0x121D DUP5 PUSH2 0x1100 JUMP JUMPDEST DUP2 ADD PUSH1 0x20 DUP6 LT ISZERO PUSH2 0x122C JUMPI DUP2 SWAP1 POP JUMPDEST PUSH2 0x1240 PUSH2 0x1238 DUP6 PUSH2 0x1100 JUMP JUMPDEST DUP4 ADD DUP3 PUSH2 0x11E0 JUMP JUMPDEST POP POP JUMPDEST POP POP POP JUMP JUMPDEST PUSH0 DUP3 DUP3 SHR SWAP1 POP SWAP3 SWAP2 POP POP JUMP JUMPDEST PUSH0 PUSH2 0x1263 PUSH0 NOT DUP5 PUSH1 0x8 MUL PUSH2 0x1248 JUMP JUMPDEST NOT DUP1 DUP4 AND SWAP2 POP POP SWAP3 SWAP2 POP POP JUMP JUMPDEST PUSH0 PUSH2 0x127B DUP4 DUP4 PUSH2 0x1254 JUMP JUMPDEST SWAP2 POP DUP3 PUSH1 0x2 MUL DUP3 OR SWAP1 POP SWAP3 SWAP2 POP POP JUMP JUMPDEST PUSH2 0x1294 DUP3 PUSH2 0xA3C JUMP JUMPDEST PUSH8 0xFFFFFFFFFFFFFFFF DUP2 GT ISZERO PUSH2 0x12AD JUMPI PUSH2 0x12AC PUSH2 0x8A8 JUMP JUMPDEST JUMPDEST PUSH2 0x12B7 DUP3 SLOAD PUSH2 0xE63 JUMP JUMPDEST PUSH2 0x12C2 DUP3 DUP3 DUP6 PUSH2 0x1202 JUMP JUMPDEST PUSH0 PUSH1 0x20 SWAP1 POP PUSH1 0x1F DUP4 GT PUSH1 0x1 DUP2 EQ PUSH2 0x12F3 JUMPI PUSH0 DUP5 ISZERO PUSH2 0x12E1 JUMPI DUP3 DUP8 ADD MLOAD SWAP1 POP JUMPDEST PUSH2 0x12EB DUP6 DUP3 PUSH2 0x1270 JUMP JUMPDEST DUP7 SSTORE POP PUSH2 0x1352 JUMP JUMPDEST PUSH1 0x1F NOT DUP5 AND PUSH2 0x1301 DUP7 PUSH2 0xE93 JUMP JUMPDEST PUSH0 JUMPDEST DUP3 DUP2 LT ISZERO PUSH2 0x1328 JUMPI DUP5 DUP10 ADD MLOAD DUP3 SSTORE PUSH1 0x1 DUP3 ADD SWAP2 POP PUSH1 0x20 DUP6 ADD SWAP5 POP PUSH1 0x20 DUP2 ADD SWAP1 POP PUSH2 0x1303 JUMP JUMPDEST DUP7 DUP4 LT ISZERO PUSH2 0x1345 JUMPI DUP5 DUP10 ADD MLOAD PUSH2 0x1341 PUSH1 0x1F DUP10 AND DUP3 PUSH2 0x1254 JUMP JUMPDEST DUP4 SSTORE POP JUMPDEST PUSH1 0x1 PUSH1 0x2 DUP9 MUL ADD DUP9 SSTORE POP POP POP JUMPDEST POP POP POP POP POP POP JUMP JUMPDEST PUSH0 PUSH1 0xA0 DUP3 ADD SWAP1 POP PUSH2 0x136D PUSH0 DUP4 ADD DUP9 PUSH2 0xC05 JUMP JUMPDEST DUP2 DUP2 SUB PUSH1 0x20 DUP4 ADD MSTORE PUSH2 0x137F DUP2 DUP8 PUSH2 0xD64 JUMP JUMPDEST SWAP1 POP PUSH2 0x138E PUSH1 0x40 DUP4 ADD DUP7 PUSH2 0xC2D JUMP JUMPDEST PUSH2 0x139B PUSH1 0x60 DUP4 ADD DUP6 PUSH2 0xC2D JUMP JUMPDEST PUSH2 0x13A8 PUSH1 0x80 DUP4 ADD DUP5 PUSH2 0xC05 JUMP JUMPDEST SWAP7 SWAP6 POP POP POP POP POP POP JUMP INVALID LOG2 PUSH5 0x6970667358 0x22 SLT KECCAK256 SMOD 0xD3 SWAP4 0xB1 0xE0 0xC9 PUSH17 0x37A268EF1BB86FF4765596E9ABCDA37698 0xBC JUMP PUSH13 0xA7EF9D388F64736F6C63430008 BYTE STOP CALLER "
				},
				"gasEstimates": {
					"creation": {
						"codeDepositCost": "1019200",
						"executionCost": "49591",
						"totalCost": "1068791"
					},
					"external": {
						"donate(string,address,address,uint256)": "infinite",
						"donationCount()": "2425",
						"donations(uint256)": "infinite",
						"getDonationsByName(string)": "infinite",
						"owner()": "2527"
					}
				},
				"methodIdentifiers": {
					"donate(string,address,address,uint256)": "bf8c0325",
					"donationCount()": "2abfab4d",
					"donations(uint256)": "f8626af8",
					"getDonationsByName(string)": "20894977",
					"owner()": "8da5cb5b"
				}
			},
			"storageLayout": {
				"storage": [
					{
						"astId": 21,
						"contract": "contracts/donation.sol:DonationContract",
						"label": "owner",
						"offset": 0,
						"slot": "0",
						"type": "t_address"
					},
					{
						"astId": 23,
						"contract": "contracts/donation.sol:DonationContract",
						"label": "verifyContractAdd",
						"offset": 0,
						"slot": "1",
						"type": "t_address"
					},
					{
						"astId": 25,
						"contract": "contracts/donation.sol:DonationContract",
						"label": "milestoneAdd",
						"offset": 0,
						"slot": "2",
						"type": "t_address"
					},
					{
						"astId": 39,
						"contract": "contracts/donation.sol:DonationContract",
						"label": "donations",
						"offset": 0,
						"slot": "3",
						"type": "t_mapping(t_uint256,t_struct(Donation)34_storage)"
					},
					{
						"astId": 41,
						"contract": "contracts/donation.sol:DonationContract",
						"label": "donationCount",
						"offset": 0,
						"slot": "4",
						"type": "t_uint256"
					}
				],
				"types": {
					"t_address": {
						"encoding": "inplace",
						"label": "address",
						"numberOfBytes": "20"
					},
					"t_mapping(t_uint256,t_struct(Donation)34_storage)": {
						"encoding": "mapping",
						"key": "t_uint256",
						"label": "mapping(uint256 => struct DonationContract.Donation)",
						"numberOfBytes": "32",
						"value": "t_struct(Donation)34_storage"
					},
					"t_string_storage": {
						"encoding": "bytes",
						"label": "string",
						"numberOfBytes": "32"
					},
					"t_struct(Donation)34_storage": {
						"encoding": "inplace",
						"label": "struct DonationContract.Donation",
						"members": [
							{
								"astId": 27,
								"contract": "contracts/donation.sol:DonationContract",
								"label": "charity",
								"offset": 0,
								"slot": "0",
								"type": "t_string_storage"
							},
							{
								"astId": 29,
								"contract": "contracts/donation.sol:DonationContract",
								"label": "charityAdd",
								"offset": 0,
								"slot": "1",
								"type": "t_address"
							},
							{
								"astId": 31,
								"contract": "contracts/donation.sol:DonationContract",
								"label": "donorAdd",
								"offset": 0,
								"slot": "2",
								"type": "t_address"
							},
							{
								"astId": 33,
								"contract": "contracts/donation.sol:DonationContract",
								"label": "donationAmount",
								"offset": 0,
								"slot": "3",
								"type": "t_uint256"
							}
						],
						"numberOfBytes": "128"
					},
					"t_uint256": {
						"encoding": "inplace",
						"label": "uint256",
						"numberOfBytes": "32"
					}
				}
			},
			"userdoc": {
				"kind": "user",
				"methods": {},
				"version": 1
			}
		}
	}
}