{
	"contracts/milestone_distribution.sol": {
		"DistributionContract": {
			"abi": [
				{
					"anonymous": false,
					"inputs": [
						{
							"indexed": false,
							"internalType": "uint256",
							"name": "charityID",
							"type": "uint256"
						},
						{
							"indexed": false,
							"internalType": "string",
							"name": "name",
							"type": "string"
						},
						{
							"indexed": false,
							"internalType": "address",
							"name": "charityAddress",
							"type": "address"
						},
						{
							"indexed": false,
							"internalType": "uint256",
							"name": "totalRaised",
							"type": "uint256"
						},
						{
							"indexed": false,
							"internalType": "uint256",
							"name": "targetDonation",
							"type": "uint256"
						},
						{
							"indexed": false,
							"internalType": "bool",
							"name": "fundsLocked",
							"type": "bool"
						}
					],
					"name": "CharityCreated",
					"type": "event"
				},
				{
					"inputs": [
						{
							"internalType": "string",
							"name": "_name",
							"type": "string"
						},
						{
							"internalType": "address",
							"name": "_charityAddress",
							"type": "address"
						}
					],
					"name": "addCharity",
					"outputs": [],
					"stateMutability": "nonpayable",
					"type": "function"
				},
				{
					"inputs": [
						{
							"internalType": "uint256",
							"name": "",
							"type": "uint256"
						}
					],
					"name": "charities",
					"outputs": [
						{
							"internalType": "string",
							"name": "name",
							"type": "string"
						},
						{
							"internalType": "address",
							"name": "charityAddress",
							"type": "address"
						},
						{
							"internalType": "uint256",
							"name": "totalRaised",
							"type": "uint256"
						},
						{
							"internalType": "uint256",
							"name": "targetDonation",
							"type": "uint256"
						},
						{
							"internalType": "bool",
							"name": "fundsLocked",
							"type": "bool"
						}
					],
					"stateMutability": "view",
					"type": "function"
				},
				{
					"inputs": [],
					"name": "charityCount",
					"outputs": [
						{
							"internalType": "uint256",
							"name": "",
							"type": "uint256"
						}
					],
					"stateMutability": "view",
					"type": "function"
				},
				{
					"inputs": [
						{
							"internalType": "string",
							"name": "_charity",
							"type": "string"
						}
					],
					"name": "charityExists",
					"outputs": [
						{
							"internalType": "int256",
							"name": "",
							"type": "int256"
						}
					],
					"stateMutability": "view",
					"type": "function"
				},
				{
					"inputs": [
						{
							"internalType": "string",
							"name": "_charity",
							"type": "string"
						},
						{
							"internalType": "uint256",
							"name": "_amount",
							"type": "uint256"
						}
					],
					"name": "contributeFunds",
					"outputs": [],
					"stateMutability": "nonpayable",
					"type": "function"
				}
			],
			"devdoc": {
				"kind": "dev",
				"methods": {},
				"version": 1
			},
			"evm": {
				"assembly": "    /* \"contracts/milestone_distribution.sol\":60:2037  contract DistributionContract {... */\n  mstore(0x40, 0x80)\n  callvalue\n  dup1\n  iszero\n  tag_1\n  jumpi\n  0x00\n  dup1\n  revert\ntag_1:\n  pop\n  dataSize(sub_0)\n  dup1\n  dataOffset(sub_0)\n  0x00\n  codecopy\n  0x00\n  return\nstop\n\nsub_0: assembly {\n        /* \"contracts/milestone_distribution.sol\":60:2037  contract DistributionContract {... */\n      mstore(0x40, 0x80)\n      callvalue\n      dup1\n      iszero\n      tag_1\n      jumpi\n      0x00\n      dup1\n      revert\n    tag_1:\n      pop\n      jumpi(tag_2, lt(calldatasize, 0x04))\n      shr(0xe0, calldataload(0x00))\n      dup1\n      0x1ab91517\n      eq\n      tag_3\n      jumpi\n      dup1\n      0x91329493\n      eq\n      tag_4\n      jumpi\n      dup1\n      0x9d32c186\n      eq\n      tag_5\n      jumpi\n      dup1\n      0xf25d75e7\n      eq\n      tag_6\n      jumpi\n      dup1\n      0xfb709d2e\n      eq\n      tag_7\n      jumpi\n    tag_2:\n      0x00\n      dup1\n      revert\n        /* \"contracts/milestone_distribution.sol\":1510:2028  function addCharity(string memory _name, address _charityAddress) public {... */\n    tag_3:\n      tag_8\n      0x04\n      dup1\n      calldatasize\n      sub\n      dup2\n      add\n      swap1\n      tag_9\n      swap2\n      swap1\n      tag_10\n      jump\t// in\n    tag_9:\n      tag_11\n      jump\t// in\n    tag_8:\n      stop\n        /* \"contracts/milestone_distribution.sol\":100:127  uint256 public charityCount */\n    tag_4:\n      tag_12\n      tag_13\n      jump\t// in\n    tag_12:\n      mload(0x40)\n      tag_14\n      swap2\n      swap1\n      tag_15\n      jump\t// in\n    tag_14:\n      mload(0x40)\n      dup1\n      swap2\n      sub\n      swap1\n      return\n        /* \"contracts/milestone_distribution.sol\":588:943  function charityExists(string memory _charity) public view returns (int){... */\n    tag_5:\n      tag_16\n      0x04\n      dup1\n      calldatasize\n      sub\n      dup2\n      add\n      swap1\n      tag_17\n      swap2\n      swap1\n      tag_18\n      jump\t// in\n    tag_17:\n      tag_19\n      jump\t// in\n    tag_16:\n      mload(0x40)\n      tag_20\n      swap2\n      swap1\n      tag_21\n      jump\t// in\n    tag_20:\n      mload(0x40)\n      dup1\n      swap2\n      sub\n      swap1\n      return\n        /* \"contracts/milestone_distribution.sol\":951:1501  function contributeFunds(string memory _charity, uint _amount) external {... */\n    tag_6:\n      tag_22\n      0x04\n      dup1\n      calldatasize\n      sub\n      dup2\n      add\n      swap1\n      tag_23\n      swap2\n      swap1\n      tag_24\n      jump\t// in\n    tag_23:\n      tag_25\n      jump\t// in\n    tag_22:\n      stop\n        /* \"contracts/milestone_distribution.sol\":390:442  mapping (uint256 => CharityDetails) public charities */\n    tag_7:\n      tag_26\n      0x04\n      dup1\n      calldatasize\n      sub\n      dup2\n      add\n      swap1\n      tag_27\n      swap2\n      swap1\n      tag_28\n      jump\t// in\n    tag_27:\n      tag_29\n      jump\t// in\n    tag_26:\n      mload(0x40)\n      tag_30\n      swap6\n      swap5\n      swap4\n      swap3\n      swap2\n      swap1\n      tag_31\n      jump\t// in\n    tag_30:\n      mload(0x40)\n      dup1\n      swap2\n      sub\n      swap1\n      return\n        /* \"contracts/milestone_distribution.sol\":1510:2028  function addCharity(string memory _name, address _charityAddress) public {... */\n    tag_11:\n        /* \"contracts/milestone_distribution.sol\":1663:1675  charityCount */\n      0x00\n      dup1\n        /* \"contracts/milestone_distribution.sol\":1663:1677  charityCount++ */\n      dup2\n      sload\n      dup1\n      swap3\n      swap2\n      swap1\n      tag_33\n      swap1\n      tag_34\n      jump\t// in\n    tag_33:\n      swap2\n      swap1\n      pop\n      sstore\n      pop\n        /* \"contracts/milestone_distribution.sol\":1803:1858  CharityDetails(_name, _charityAddress , 0, 10000, true) */\n      mload(0x40)\n      dup1\n      0xa0\n      add\n      0x40\n      mstore\n      dup1\n        /* \"contracts/milestone_distribution.sol\":1818:1823  _name */\n      dup4\n        /* \"contracts/milestone_distribution.sol\":1803:1858  CharityDetails(_name, _charityAddress , 0, 10000, true) */\n      dup2\n      mstore\n      0x20\n      add\n        /* \"contracts/milestone_distribution.sol\":1825:1840  _charityAddress */\n      dup3\n        /* \"contracts/milestone_distribution.sol\":1803:1858  CharityDetails(_name, _charityAddress , 0, 10000, true) */\n      0xffffffffffffffffffffffffffffffffffffffff\n      and\n      dup2\n      mstore\n      0x20\n      add\n        /* \"contracts/milestone_distribution.sol\":1843:1844  0 */\n      0x00\n        /* \"contracts/milestone_distribution.sol\":1803:1858  CharityDetails(_name, _charityAddress , 0, 10000, true) */\n      dup2\n      mstore\n      0x20\n      add\n        /* \"contracts/milestone_distribution.sol\":1846:1851  10000 */\n      0x2710\n        /* \"contracts/milestone_distribution.sol\":1803:1858  CharityDetails(_name, _charityAddress , 0, 10000, true) */\n      dup2\n      mstore\n      0x20\n      add\n        /* \"contracts/milestone_distribution.sol\":1853:1857  true */\n      0x01\n        /* \"contracts/milestone_distribution.sol\":1803:1858  CharityDetails(_name, _charityAddress , 0, 10000, true) */\n      iszero\n      iszero\n      dup2\n      mstore\n      pop\n        /* \"contracts/milestone_distribution.sol\":1777:1786  charities */\n      0x01\n        /* \"contracts/milestone_distribution.sol\":1777:1800  charities[charityCount] */\n      0x00\n        /* \"contracts/milestone_distribution.sol\":1787:1799  charityCount */\n      dup1\n      sload\n        /* \"contracts/milestone_distribution.sol\":1777:1800  charities[charityCount] */\n      dup2\n      mstore\n      0x20\n      add\n      swap1\n      dup2\n      mstore\n      0x20\n      add\n      0x00\n      keccak256\n        /* \"contracts/milestone_distribution.sol\":1777:1858  charities[charityCount] = CharityDetails(_name, _charityAddress , 0, 10000, true) */\n      0x00\n      dup3\n      add\n      mload\n      dup2\n      0x00\n      add\n      swap1\n      dup2\n      tag_35\n      swap2\n      swap1\n      tag_36\n      jump\t// in\n    tag_35:\n      pop\n      0x20\n      dup3\n      add\n      mload\n      dup2\n      0x01\n      add\n      exp(0x0100, 0x00)\n      dup2\n      sload\n      dup2\n      0xffffffffffffffffffffffffffffffffffffffff\n      mul\n      not\n      and\n      swap1\n      dup4\n      0xffffffffffffffffffffffffffffffffffffffff\n      and\n      mul\n      or\n      swap1\n      sstore\n      pop\n      0x40\n      dup3\n      add\n      mload\n      dup2\n      0x02\n      add\n      sstore\n      0x60\n      dup3\n      add\n      mload\n      dup2\n      0x03\n      add\n      sstore\n      0x80\n      dup3\n      add\n      mload\n      dup2\n      0x04\n      add\n      exp(0x0100, 0x00)\n      dup2\n      sload\n      dup2\n      0xff\n      mul\n      not\n      and\n      swap1\n      dup4\n      iszero\n      iszero\n      mul\n      or\n      swap1\n      sstore\n      pop\n      swap1\n      pop\n      pop\n        /* \"contracts/milestone_distribution.sol\":1952:2020  CharityCreated(charityCount, _name, _charityAddress, 0, 10000, true) */\n      0x9738ee50ef49bc3ba8025ef429ffc26a3c6427e51abca46e5ea80429f1c17b4b\n        /* \"contracts/milestone_distribution.sol\":1967:1979  charityCount */\n      sload(0x00)\n        /* \"contracts/milestone_distribution.sol\":1981:1986  _name */\n      dup4\n        /* \"contracts/milestone_distribution.sol\":1988:2003  _charityAddress */\n      dup4\n        /* \"contracts/milestone_distribution.sol\":2005:2006  0 */\n      0x00\n        /* \"contracts/milestone_distribution.sol\":2008:2013  10000 */\n      0x2710\n        /* \"contracts/milestone_distribution.sol\":2015:2019  true */\n      0x01\n        /* \"contracts/milestone_distribution.sol\":1952:2020  CharityCreated(charityCount, _name, _charityAddress, 0, 10000, true) */\n      mload(0x40)\n      tag_37\n      swap7\n      swap6\n      swap5\n      swap4\n      swap3\n      swap2\n      swap1\n      tag_38\n      jump\t// in\n    tag_37:\n      mload(0x40)\n      dup1\n      swap2\n      sub\n      swap1\n      log1\n        /* \"contracts/milestone_distribution.sol\":1510:2028  function addCharity(string memory _name, address _charityAddress) public {... */\n      pop\n      pop\n      jump\t// out\n        /* \"contracts/milestone_distribution.sol\":100:127  uint256 public charityCount */\n    tag_13:\n      sload(0x00)\n      dup2\n      jump\t// out\n        /* \"contracts/milestone_distribution.sol\":588:943  function charityExists(string memory _charity) public view returns (int){... */\n    tag_19:\n        /* \"contracts/milestone_distribution.sol\":656:659  int */\n      0x00\n        /* \"contracts/milestone_distribution.sol\":676:682  uint i */\n      dup1\n        /* \"contracts/milestone_distribution.sol\":685:686  1 */\n      0x01\n        /* \"contracts/milestone_distribution.sol\":676:686  uint i = 1 */\n      swap1\n      pop\n        /* \"contracts/milestone_distribution.sol\":671:916  for (uint i = 1; i < (charityCount+1); i++) {... */\n    tag_40:\n        /* \"contracts/milestone_distribution.sol\":706:707  1 */\n      0x01\n        /* \"contracts/milestone_distribution.sol\":693:705  charityCount */\n      sload(0x00)\n        /* \"contracts/milestone_distribution.sol\":693:707  charityCount+1 */\n      tag_43\n      swap2\n      swap1\n      tag_44\n      jump\t// in\n    tag_43:\n        /* \"contracts/milestone_distribution.sol\":688:689  i */\n      dup2\n        /* \"contracts/milestone_distribution.sol\":688:708  i < (charityCount+1) */\n      lt\n        /* \"contracts/milestone_distribution.sol\":671:916  for (uint i = 1; i < (charityCount+1); i++) {... */\n      iszero\n      tag_41\n      jumpi\n        /* \"contracts/milestone_distribution.sol\":810:818  _charity */\n      dup3\n        /* \"contracts/milestone_distribution.sol\":793:819  abi.encodePacked(_charity) */\n      add(0x20, mload(0x40))\n      tag_45\n      swap2\n      swap1\n      tag_46\n      jump\t// in\n    tag_45:\n      mload(0x40)\n      0x20\n      dup2\n      dup4\n      sub\n      sub\n      dup2\n      mstore\n      swap1\n      0x40\n      mstore\n        /* \"contracts/milestone_distribution.sol\":783:820  keccak256(abi.encodePacked(_charity)) */\n      dup1\n      mload\n      swap1\n      0x20\n      add\n      keccak256\n        /* \"contracts/milestone_distribution.sol\":760:769  charities */\n      0x01\n        /* \"contracts/milestone_distribution.sol\":760:772  charities[i] */\n      0x00\n        /* \"contracts/milestone_distribution.sol\":770:771  i */\n      dup4\n        /* \"contracts/milestone_distribution.sol\":760:772  charities[i] */\n      dup2\n      mstore\n      0x20\n      add\n      swap1\n      dup2\n      mstore\n      0x20\n      add\n      0x00\n      keccak256\n        /* \"contracts/milestone_distribution.sol\":760:777  charities[i].name */\n      0x00\n      add\n        /* \"contracts/milestone_distribution.sol\":743:778  abi.encodePacked(charities[i].name) */\n      add(0x20, mload(0x40))\n      tag_47\n      swap2\n      swap1\n      tag_48\n      jump\t// in\n    tag_47:\n      mload(0x40)\n      0x20\n      dup2\n      dup4\n      sub\n      sub\n      dup2\n      mstore\n      swap1\n      0x40\n      mstore\n        /* \"contracts/milestone_distribution.sol\":733:779  keccak256(abi.encodePacked(charities[i].name)) */\n      dup1\n      mload\n      swap1\n      0x20\n      add\n      keccak256\n        /* \"contracts/milestone_distribution.sol\":733:820  keccak256(abi.encodePacked(charities[i].name)) == keccak256(abi.encodePacked(_charity)) */\n      sub\n        /* \"contracts/milestone_distribution.sol\":730:905  if(keccak256(abi.encodePacked(charities[i].name)) == keccak256(abi.encodePacked(_charity))){... */\n      tag_49\n      jumpi\n        /* \"contracts/milestone_distribution.sol\":840:845  int x */\n      0x00\n        /* \"contracts/milestone_distribution.sol\":852:853  i */\n      dup2\n        /* \"contracts/milestone_distribution.sol\":840:854  int x = int(i) */\n      swap1\n      pop\n        /* \"contracts/milestone_distribution.sol\":880:881  x */\n      dup1\n        /* \"contracts/milestone_distribution.sol\":873:881  return x */\n      swap3\n      pop\n      pop\n      pop\n      jump(tag_39)\n        /* \"contracts/milestone_distribution.sol\":730:905  if(keccak256(abi.encodePacked(charities[i].name)) == keccak256(abi.encodePacked(_charity))){... */\n    tag_49:\n        /* \"contracts/milestone_distribution.sol\":710:713  i++ */\n      dup1\n      dup1\n      0x01\n      add\n      swap2\n      pop\n      pop\n        /* \"contracts/milestone_distribution.sol\":671:916  for (uint i = 1; i < (charityCount+1); i++) {... */\n      jump(tag_40)\n    tag_41:\n      pop\n        /* \"contracts/milestone_distribution.sol\":933:935  -1 */\n      0xffffffffffffffffffffffffffffffffffffffffffffffffffffffffffffffff\n        /* \"contracts/milestone_distribution.sol\":926:935  return -1 */\n      swap1\n      pop\n        /* \"contracts/milestone_distribution.sol\":588:943  function charityExists(string memory _charity) public view returns (int){... */\n    tag_39:\n      swap2\n      swap1\n      pop\n      jump\t// out\n        /* \"contracts/milestone_distribution.sol\":951:1501  function contributeFunds(string memory _charity, uint _amount) external {... */\n    tag_25:\n        /* \"contracts/milestone_distribution.sol\":1034:1051  int _charityIndex */\n      0x00\n        /* \"contracts/milestone_distribution.sol\":1054:1077  charityExists(_charity) */\n      tag_51\n        /* \"contracts/milestone_distribution.sol\":1068:1076  _charity */\n      dup4\n        /* \"contracts/milestone_distribution.sol\":1054:1067  charityExists */\n      tag_19\n        /* \"contracts/milestone_distribution.sol\":1054:1077  charityExists(_charity) */\n      jump\t// in\n    tag_51:\n        /* \"contracts/milestone_distribution.sol\":1034:1077  int _charityIndex = charityExists(_charity) */\n      swap1\n      pop\n        /* \"contracts/milestone_distribution.sol\":1108:1110  -1 */\n      0xffffffffffffffffffffffffffffffffffffffffffffffffffffffffffffffff\n        /* \"contracts/milestone_distribution.sol\":1091:1104  _charityIndex */\n      dup2\n        /* \"contracts/milestone_distribution.sol\":1091:1110  _charityIndex == -1 */\n      sub\n        /* \"contracts/milestone_distribution.sol\":1088:1472  if(_charityIndex == -1){... */\n      tag_52\n      jumpi\n        /* \"contracts/milestone_distribution.sol\":1140:1148  revert() */\n      0x00\n      dup1\n      revert\n        /* \"contracts/milestone_distribution.sol\":1088:1472  if(_charityIndex == -1){... */\n    tag_52:\n        /* \"contracts/milestone_distribution.sol\":1181:1217  CharityDetails storage targetCharity */\n      0x00\n        /* \"contracts/milestone_distribution.sol\":1220:1229  charities */\n      0x01\n        /* \"contracts/milestone_distribution.sol\":1220:1250  charities[uint(_charityIndex)] */\n      0x00\n        /* \"contracts/milestone_distribution.sol\":1235:1248  _charityIndex */\n      dup4\n        /* \"contracts/milestone_distribution.sol\":1220:1250  charities[uint(_charityIndex)] */\n      dup2\n      mstore\n      0x20\n      add\n      swap1\n      dup2\n      mstore\n      0x20\n      add\n      0x00\n      keccak256\n        /* \"contracts/milestone_distribution.sol\":1181:1250  CharityDetails storage targetCharity = charities[uint(_charityIndex)] */\n      swap1\n      pop\n        /* \"contracts/milestone_distribution.sol\":1308:1315  _amount */\n      dup3\n        /* \"contracts/milestone_distribution.sol\":1279:1292  targetCharity */\n      dup2\n        /* \"contracts/milestone_distribution.sol\":1279:1304  targetCharity.totalRaised */\n      0x02\n      add\n      0x00\n        /* \"contracts/milestone_distribution.sol\":1279:1315  targetCharity.totalRaised += _amount */\n      dup3\n      dup3\n      sload\n      tag_54\n      swap2\n      swap1\n      tag_44\n      jump\t// in\n    tag_54:\n      swap3\n      pop\n      pop\n      dup2\n      swap1\n      sstore\n      pop\n        /* \"contracts/milestone_distribution.sol\":1364:1377  targetCharity */\n      dup1\n        /* \"contracts/milestone_distribution.sol\":1364:1392  targetCharity.targetDonation */\n      0x03\n      add\n      sload\n        /* \"contracts/milestone_distribution.sol\":1335:1348  targetCharity */\n      dup2\n        /* \"contracts/milestone_distribution.sol\":1335:1360  targetCharity.totalRaised */\n      0x02\n      add\n      sload\n        /* \"contracts/milestone_distribution.sol\":1335:1392  targetCharity.totalRaised >= targetCharity.targetDonation */\n      lt\n        /* \"contracts/milestone_distribution.sol\":1332:1461  if(targetCharity.totalRaised >= targetCharity.targetDonation){... */\n      tag_55\n      jumpi\n        /* \"contracts/milestone_distribution.sol\":1440:1445  false */\n      0x00\n        /* \"contracts/milestone_distribution.sol\":1412:1425  targetCharity */\n      dup2\n        /* \"contracts/milestone_distribution.sol\":1412:1437  targetCharity.fundsLocked */\n      0x04\n      add\n      0x00\n        /* \"contracts/milestone_distribution.sol\":1412:1445  targetCharity.fundsLocked = false */\n      0x0100\n      exp\n      dup2\n      sload\n      dup2\n      0xff\n      mul\n      not\n      and\n      swap1\n      dup4\n      iszero\n      iszero\n      mul\n      or\n      swap1\n      sstore\n      pop\n        /* \"contracts/milestone_distribution.sol\":1332:1461  if(targetCharity.totalRaised >= targetCharity.targetDonation){... */\n    tag_55:\n        /* \"contracts/milestone_distribution.sol\":1166:1472  {... */\n      pop\n        /* \"contracts/milestone_distribution.sol\":1023:1501  {... */\n      pop\n        /* \"contracts/milestone_distribution.sol\":951:1501  function contributeFunds(string memory _charity, uint _amount) external {... */\n      pop\n      pop\n      jump\t// out\n        /* \"contracts/milestone_distribution.sol\":390:442  mapping (uint256 => CharityDetails) public charities */\n    tag_29:\n      mstore(0x20, 0x01)\n      dup1\n      0x00\n      mstore\n      keccak256(0x00, 0x40)\n      0x00\n      swap2\n      pop\n      swap1\n      pop\n      dup1\n      0x00\n      add\n      dup1\n      sload\n      tag_56\n      swap1\n      tag_57\n      jump\t// in\n    tag_56:\n      dup1\n      0x1f\n      add\n      0x20\n      dup1\n      swap2\n      div\n      mul\n      0x20\n      add\n      mload(0x40)\n      swap1\n      dup2\n      add\n      0x40\n      mstore\n      dup1\n      swap3\n      swap2\n      swap1\n      dup2\n      dup2\n      mstore\n      0x20\n      add\n      dup3\n      dup1\n      sload\n      tag_58\n      swap1\n      tag_57\n      jump\t// in\n    tag_58:\n      dup1\n      iszero\n      tag_59\n      jumpi\n      dup1\n      0x1f\n      lt\n      tag_60\n      jumpi\n      0x0100\n      dup1\n      dup4\n      sload\n      div\n      mul\n      dup4\n      mstore\n      swap2\n      0x20\n      add\n      swap2\n      jump(tag_59)\n    tag_60:\n      dup3\n      add\n      swap2\n      swap1\n      0x00\n      mstore\n      keccak256(0x00, 0x20)\n      swap1\n    tag_61:\n      dup2\n      sload\n      dup2\n      mstore\n      swap1\n      0x01\n      add\n      swap1\n      0x20\n      add\n      dup1\n      dup4\n      gt\n      tag_61\n      jumpi\n      dup3\n      swap1\n      sub\n      0x1f\n      and\n      dup3\n      add\n      swap2\n    tag_59:\n      pop\n      pop\n      pop\n      pop\n      pop\n      swap1\n      dup1\n      0x01\n      add\n      0x00\n      swap1\n      sload\n      swap1\n      0x0100\n      exp\n      swap1\n      div\n      0xffffffffffffffffffffffffffffffffffffffff\n      and\n      swap1\n      dup1\n      0x02\n      add\n      sload\n      swap1\n      dup1\n      0x03\n      add\n      sload\n      swap1\n      dup1\n      0x04\n      add\n      0x00\n      swap1\n      sload\n      swap1\n      0x0100\n      exp\n      swap1\n      div\n      0xff\n      and\n      swap1\n      pop\n      dup6\n      jump\t// out\n        /* \"#utility.yul\":7:82   */\n    tag_62:\n        /* \"#utility.yul\":40:46   */\n      0x00\n        /* \"#utility.yul\":73:75   */\n      0x40\n        /* \"#utility.yul\":67:76   */\n      mload\n        /* \"#utility.yul\":57:76   */\n      swap1\n      pop\n        /* \"#utility.yul\":7:82   */\n      swap1\n      jump\t// out\n        /* \"#utility.yul\":88:205   */\n    tag_63:\n        /* \"#utility.yul\":197:198   */\n      0x00\n        /* \"#utility.yul\":194:195   */\n      dup1\n        /* \"#utility.yul\":187:199   */\n      revert\n        /* \"#utility.yul\":211:328   */\n    tag_64:\n        /* \"#utility.yul\":320:321   */\n      0x00\n        /* \"#utility.yul\":317:318   */\n      dup1\n        /* \"#utility.yul\":310:322   */\n      revert\n        /* \"#utility.yul\":334:451   */\n    tag_65:\n        /* \"#utility.yul\":443:444   */\n      0x00\n        /* \"#utility.yul\":440:441   */\n      dup1\n        /* \"#utility.yul\":433:445   */\n      revert\n        /* \"#utility.yul\":457:574   */\n    tag_66:\n        /* \"#utility.yul\":566:567   */\n      0x00\n        /* \"#utility.yul\":563:564   */\n      dup1\n        /* \"#utility.yul\":556:568   */\n      revert\n        /* \"#utility.yul\":580:682   */\n    tag_67:\n        /* \"#utility.yul\":621:627   */\n      0x00\n        /* \"#utility.yul\":672:674   */\n      0x1f\n        /* \"#utility.yul\":668:675   */\n      not\n        /* \"#utility.yul\":663:665   */\n      0x1f\n        /* \"#utility.yul\":656:661   */\n      dup4\n        /* \"#utility.yul\":652:666   */\n      add\n        /* \"#utility.yul\":648:676   */\n      and\n        /* \"#utility.yul\":638:676   */\n      swap1\n      pop\n        /* \"#utility.yul\":580:682   */\n      swap2\n      swap1\n      pop\n      jump\t// out\n        /* \"#utility.yul\":688:868   */\n    tag_68:\n        /* \"#utility.yul\":736:813   */\n      0x4e487b7100000000000000000000000000000000000000000000000000000000\n        /* \"#utility.yul\":733:734   */\n      0x00\n        /* \"#utility.yul\":726:814   */\n      mstore\n        /* \"#utility.yul\":833:837   */\n      0x41\n        /* \"#utility.yul\":830:831   */\n      0x04\n        /* \"#utility.yul\":823:838   */\n      mstore\n        /* \"#utility.yul\":857:861   */\n      0x24\n        /* \"#utility.yul\":854:855   */\n      0x00\n        /* \"#utility.yul\":847:862   */\n      revert\n        /* \"#utility.yul\":874:1155   */\n    tag_69:\n        /* \"#utility.yul\":957:984   */\n      tag_127\n        /* \"#utility.yul\":979:983   */\n      dup3\n        /* \"#utility.yul\":957:984   */\n      tag_67\n      jump\t// in\n    tag_127:\n        /* \"#utility.yul\":949:955   */\n      dup2\n        /* \"#utility.yul\":945:985   */\n      add\n        /* \"#utility.yul\":1087:1093   */\n      dup2\n        /* \"#utility.yul\":1075:1085   */\n      dup2\n        /* \"#utility.yul\":1072:1094   */\n      lt\n        /* \"#utility.yul\":1051:1069   */\n      0xffffffffffffffff\n        /* \"#utility.yul\":1039:1049   */\n      dup3\n        /* \"#utility.yul\":1036:1070   */\n      gt\n        /* \"#utility.yul\":1033:1095   */\n      or\n        /* \"#utility.yul\":1030:1118   */\n      iszero\n      tag_128\n      jumpi\n        /* \"#utility.yul\":1098:1116   */\n      tag_129\n      tag_68\n      jump\t// in\n    tag_129:\n        /* \"#utility.yul\":1030:1118   */\n    tag_128:\n        /* \"#utility.yul\":1138:1148   */\n      dup1\n        /* \"#utility.yul\":1134:1136   */\n      0x40\n        /* \"#utility.yul\":1127:1149   */\n      mstore\n        /* \"#utility.yul\":917:1155   */\n      pop\n        /* \"#utility.yul\":874:1155   */\n      pop\n      pop\n      jump\t// out\n        /* \"#utility.yul\":1161:1290   */\n    tag_70:\n        /* \"#utility.yul\":1195:1201   */\n      0x00\n        /* \"#utility.yul\":1222:1242   */\n      tag_131\n      tag_62\n      jump\t// in\n    tag_131:\n        /* \"#utility.yul\":1212:1242   */\n      swap1\n      pop\n        /* \"#utility.yul\":1251:1284   */\n      tag_132\n        /* \"#utility.yul\":1279:1283   */\n      dup3\n        /* \"#utility.yul\":1271:1277   */\n      dup3\n        /* \"#utility.yul\":1251:1284   */\n      tag_69\n      jump\t// in\n    tag_132:\n        /* \"#utility.yul\":1161:1290   */\n      swap2\n      swap1\n      pop\n      jump\t// out\n        /* \"#utility.yul\":1296:1604   */\n    tag_71:\n        /* \"#utility.yul\":1358:1362   */\n      0x00\n        /* \"#utility.yul\":1448:1466   */\n      0xffffffffffffffff\n        /* \"#utility.yul\":1440:1446   */\n      dup3\n        /* \"#utility.yul\":1437:1467   */\n      gt\n        /* \"#utility.yul\":1434:1490   */\n      iszero\n      tag_134\n      jumpi\n        /* \"#utility.yul\":1470:1488   */\n      tag_135\n      tag_68\n      jump\t// in\n    tag_135:\n        /* \"#utility.yul\":1434:1490   */\n    tag_134:\n        /* \"#utility.yul\":1508:1537   */\n      tag_136\n        /* \"#utility.yul\":1530:1536   */\n      dup3\n        /* \"#utility.yul\":1508:1537   */\n      tag_67\n      jump\t// in\n    tag_136:\n        /* \"#utility.yul\":1500:1537   */\n      swap1\n      pop\n        /* \"#utility.yul\":1592:1596   */\n      0x20\n        /* \"#utility.yul\":1586:1590   */\n      dup2\n        /* \"#utility.yul\":1582:1597   */\n      add\n        /* \"#utility.yul\":1574:1597   */\n      swap1\n      pop\n        /* \"#utility.yul\":1296:1604   */\n      swap2\n      swap1\n      pop\n      jump\t// out\n        /* \"#utility.yul\":1610:1758   */\n    tag_72:\n        /* \"#utility.yul\":1708:1714   */\n      dup3\n        /* \"#utility.yul\":1703:1706   */\n      dup2\n        /* \"#utility.yul\":1698:1701   */\n      dup4\n        /* \"#utility.yul\":1685:1715   */\n      calldatacopy\n        /* \"#utility.yul\":1749:1750   */\n      0x00\n        /* \"#utility.yul\":1740:1746   */\n      dup4\n        /* \"#utility.yul\":1735:1738   */\n      dup4\n        /* \"#utility.yul\":1731:1747   */\n      add\n        /* \"#utility.yul\":1724:1751   */\n      mstore\n        /* \"#utility.yul\":1610:1758   */\n      pop\n      pop\n      pop\n      jump\t// out\n        /* \"#utility.yul\":1764:2189   */\n    tag_73:\n        /* \"#utility.yul\":1842:1847   */\n      0x00\n        /* \"#utility.yul\":1867:1933   */\n      tag_139\n        /* \"#utility.yul\":1883:1932   */\n      tag_140\n        /* \"#utility.yul\":1925:1931   */\n      dup5\n        /* \"#utility.yul\":1883:1932   */\n      tag_71\n      jump\t// in\n    tag_140:\n        /* \"#utility.yul\":1867:1933   */\n      tag_70\n      jump\t// in\n    tag_139:\n        /* \"#utility.yul\":1858:1933   */\n      swap1\n      pop\n        /* \"#utility.yul\":1956:1962   */\n      dup3\n        /* \"#utility.yul\":1949:1954   */\n      dup2\n        /* \"#utility.yul\":1942:1963   */\n      mstore\n        /* \"#utility.yul\":1994:1998   */\n      0x20\n        /* \"#utility.yul\":1987:1992   */\n      dup2\n        /* \"#utility.yul\":1983:1999   */\n      add\n        /* \"#utility.yul\":2032:2035   */\n      dup5\n        /* \"#utility.yul\":2023:2029   */\n      dup5\n        /* \"#utility.yul\":2018:2021   */\n      dup5\n        /* \"#utility.yul\":2014:2030   */\n      add\n        /* \"#utility.yul\":2011:2036   */\n      gt\n        /* \"#utility.yul\":2008:2120   */\n      iszero\n      tag_141\n      jumpi\n        /* \"#utility.yul\":2039:2118   */\n      tag_142\n      tag_66\n      jump\t// in\n    tag_142:\n        /* \"#utility.yul\":2008:2120   */\n    tag_141:\n        /* \"#utility.yul\":2129:2183   */\n      tag_143\n        /* \"#utility.yul\":2176:2182   */\n      dup5\n        /* \"#utility.yul\":2171:2174   */\n      dup3\n        /* \"#utility.yul\":2166:2169   */\n      dup6\n        /* \"#utility.yul\":2129:2183   */\n      tag_72\n      jump\t// in\n    tag_143:\n        /* \"#utility.yul\":1848:2189   */\n      pop\n        /* \"#utility.yul\":1764:2189   */\n      swap4\n      swap3\n      pop\n      pop\n      pop\n      jump\t// out\n        /* \"#utility.yul\":2209:2549   */\n    tag_74:\n        /* \"#utility.yul\":2265:2270   */\n      0x00\n        /* \"#utility.yul\":2314:2317   */\n      dup3\n        /* \"#utility.yul\":2307:2311   */\n      0x1f\n        /* \"#utility.yul\":2299:2305   */\n      dup4\n        /* \"#utility.yul\":2295:2312   */\n      add\n        /* \"#utility.yul\":2291:2318   */\n      slt\n        /* \"#utility.yul\":2281:2403   */\n      tag_145\n      jumpi\n        /* \"#utility.yul\":2322:2401   */\n      tag_146\n      tag_65\n      jump\t// in\n    tag_146:\n        /* \"#utility.yul\":2281:2403   */\n    tag_145:\n        /* \"#utility.yul\":2439:2445   */\n      dup2\n        /* \"#utility.yul\":2426:2446   */\n      calldataload\n        /* \"#utility.yul\":2464:2543   */\n      tag_147\n        /* \"#utility.yul\":2539:2542   */\n      dup5\n        /* \"#utility.yul\":2531:2537   */\n      dup3\n        /* \"#utility.yul\":2524:2528   */\n      0x20\n        /* \"#utility.yul\":2516:2522   */\n      dup7\n        /* \"#utility.yul\":2512:2529   */\n      add\n        /* \"#utility.yul\":2464:2543   */\n      tag_73\n      jump\t// in\n    tag_147:\n        /* \"#utility.yul\":2455:2543   */\n      swap2\n      pop\n        /* \"#utility.yul\":2271:2549   */\n      pop\n        /* \"#utility.yul\":2209:2549   */\n      swap3\n      swap2\n      pop\n      pop\n      jump\t// out\n        /* \"#utility.yul\":2555:2681   */\n    tag_75:\n        /* \"#utility.yul\":2592:2599   */\n      0x00\n        /* \"#utility.yul\":2632:2674   */\n      0xffffffffffffffffffffffffffffffffffffffff\n        /* \"#utility.yul\":2625:2630   */\n      dup3\n        /* \"#utility.yul\":2621:2675   */\n      and\n        /* \"#utility.yul\":2610:2675   */\n      swap1\n      pop\n        /* \"#utility.yul\":2555:2681   */\n      swap2\n      swap1\n      pop\n      jump\t// out\n        /* \"#utility.yul\":2687:2783   */\n    tag_76:\n        /* \"#utility.yul\":2724:2731   */\n      0x00\n        /* \"#utility.yul\":2753:2777   */\n      tag_150\n        /* \"#utility.yul\":2771:2776   */\n      dup3\n        /* \"#utility.yul\":2753:2777   */\n      tag_75\n      jump\t// in\n    tag_150:\n        /* \"#utility.yul\":2742:2777   */\n      swap1\n      pop\n        /* \"#utility.yul\":2687:2783   */\n      swap2\n      swap1\n      pop\n      jump\t// out\n        /* \"#utility.yul\":2789:2911   */\n    tag_77:\n        /* \"#utility.yul\":2862:2886   */\n      tag_152\n        /* \"#utility.yul\":2880:2885   */\n      dup2\n        /* \"#utility.yul\":2862:2886   */\n      tag_76\n      jump\t// in\n    tag_152:\n        /* \"#utility.yul\":2855:2860   */\n      dup2\n        /* \"#utility.yul\":2852:2887   */\n      eq\n        /* \"#utility.yul\":2842:2905   */\n      tag_153\n      jumpi\n        /* \"#utility.yul\":2901:2902   */\n      0x00\n        /* \"#utility.yul\":2898:2899   */\n      dup1\n        /* \"#utility.yul\":2891:2903   */\n      revert\n        /* \"#utility.yul\":2842:2905   */\n    tag_153:\n        /* \"#utility.yul\":2789:2911   */\n      pop\n      jump\t// out\n        /* \"#utility.yul\":2917:3056   */\n    tag_78:\n        /* \"#utility.yul\":2963:2968   */\n      0x00\n        /* \"#utility.yul\":3001:3007   */\n      dup2\n        /* \"#utility.yul\":2988:3008   */\n      calldataload\n        /* \"#utility.yul\":2979:3008   */\n      swap1\n      pop\n        /* \"#utility.yul\":3017:3050   */\n      tag_155\n        /* \"#utility.yul\":3044:3049   */\n      dup2\n        /* \"#utility.yul\":3017:3050   */\n      tag_77\n      jump\t// in\n    tag_155:\n        /* \"#utility.yul\":2917:3056   */\n      swap3\n      swap2\n      pop\n      pop\n      jump\t// out\n        /* \"#utility.yul\":3062:3716   */\n    tag_10:\n        /* \"#utility.yul\":3140:3146   */\n      0x00\n        /* \"#utility.yul\":3148:3154   */\n      dup1\n        /* \"#utility.yul\":3197:3199   */\n      0x40\n        /* \"#utility.yul\":3185:3194   */\n      dup4\n        /* \"#utility.yul\":3176:3183   */\n      dup6\n        /* \"#utility.yul\":3172:3195   */\n      sub\n        /* \"#utility.yul\":3168:3200   */\n      slt\n        /* \"#utility.yul\":3165:3284   */\n      iszero\n      tag_157\n      jumpi\n        /* \"#utility.yul\":3203:3282   */\n      tag_158\n      tag_63\n      jump\t// in\n    tag_158:\n        /* \"#utility.yul\":3165:3284   */\n    tag_157:\n        /* \"#utility.yul\":3351:3352   */\n      0x00\n        /* \"#utility.yul\":3340:3349   */\n      dup4\n        /* \"#utility.yul\":3336:3353   */\n      add\n        /* \"#utility.yul\":3323:3354   */\n      calldataload\n        /* \"#utility.yul\":3381:3399   */\n      0xffffffffffffffff\n        /* \"#utility.yul\":3373:3379   */\n      dup2\n        /* \"#utility.yul\":3370:3400   */\n      gt\n        /* \"#utility.yul\":3367:3484   */\n      iszero\n      tag_159\n      jumpi\n        /* \"#utility.yul\":3403:3482   */\n      tag_160\n      tag_64\n      jump\t// in\n    tag_160:\n        /* \"#utility.yul\":3367:3484   */\n    tag_159:\n        /* \"#utility.yul\":3508:3571   */\n      tag_161\n        /* \"#utility.yul\":3563:3570   */\n      dup6\n        /* \"#utility.yul\":3554:3560   */\n      dup3\n        /* \"#utility.yul\":3543:3552   */\n      dup7\n        /* \"#utility.yul\":3539:3561   */\n      add\n        /* \"#utility.yul\":3508:3571   */\n      tag_74\n      jump\t// in\n    tag_161:\n        /* \"#utility.yul\":3498:3571   */\n      swap3\n      pop\n        /* \"#utility.yul\":3294:3581   */\n      pop\n        /* \"#utility.yul\":3620:3622   */\n      0x20\n        /* \"#utility.yul\":3646:3699   */\n      tag_162\n        /* \"#utility.yul\":3691:3698   */\n      dup6\n        /* \"#utility.yul\":3682:3688   */\n      dup3\n        /* \"#utility.yul\":3671:3680   */\n      dup7\n        /* \"#utility.yul\":3667:3689   */\n      add\n        /* \"#utility.yul\":3646:3699   */\n      tag_78\n      jump\t// in\n    tag_162:\n        /* \"#utility.yul\":3636:3699   */\n      swap2\n      pop\n        /* \"#utility.yul\":3591:3709   */\n      pop\n        /* \"#utility.yul\":3062:3716   */\n      swap3\n      pop\n      swap3\n      swap1\n      pop\n      jump\t// out\n        /* \"#utility.yul\":3722:3799   */\n    tag_79:\n        /* \"#utility.yul\":3759:3766   */\n      0x00\n        /* \"#utility.yul\":3788:3793   */\n      dup2\n        /* \"#utility.yul\":3777:3793   */\n      swap1\n      pop\n        /* \"#utility.yul\":3722:3799   */\n      swap2\n      swap1\n      pop\n      jump\t// out\n        /* \"#utility.yul\":3805:3923   */\n    tag_80:\n        /* \"#utility.yul\":3892:3916   */\n      tag_165\n        /* \"#utility.yul\":3910:3915   */\n      dup2\n        /* \"#utility.yul\":3892:3916   */\n      tag_79\n      jump\t// in\n    tag_165:\n        /* \"#utility.yul\":3887:3890   */\n      dup3\n        /* \"#utility.yul\":3880:3917   */\n      mstore\n        /* \"#utility.yul\":3805:3923   */\n      pop\n      pop\n      jump\t// out\n        /* \"#utility.yul\":3929:4151   */\n    tag_15:\n        /* \"#utility.yul\":4022:4026   */\n      0x00\n        /* \"#utility.yul\":4060:4062   */\n      0x20\n        /* \"#utility.yul\":4049:4058   */\n      dup3\n        /* \"#utility.yul\":4045:4063   */\n      add\n        /* \"#utility.yul\":4037:4063   */\n      swap1\n      pop\n        /* \"#utility.yul\":4073:4144   */\n      tag_167\n        /* \"#utility.yul\":4141:4142   */\n      0x00\n        /* \"#utility.yul\":4130:4139   */\n      dup4\n        /* \"#utility.yul\":4126:4143   */\n      add\n        /* \"#utility.yul\":4117:4123   */\n      dup5\n        /* \"#utility.yul\":4073:4144   */\n      tag_80\n      jump\t// in\n    tag_167:\n        /* \"#utility.yul\":3929:4151   */\n      swap3\n      swap2\n      pop\n      pop\n      jump\t// out\n        /* \"#utility.yul\":4157:4666   */\n    tag_18:\n        /* \"#utility.yul\":4226:4232   */\n      0x00\n        /* \"#utility.yul\":4275:4277   */\n      0x20\n        /* \"#utility.yul\":4263:4272   */\n      dup3\n        /* \"#utility.yul\":4254:4261   */\n      dup5\n        /* \"#utility.yul\":4250:4273   */\n      sub\n        /* \"#utility.yul\":4246:4278   */\n      slt\n        /* \"#utility.yul\":4243:4362   */\n      iszero\n      tag_169\n      jumpi\n        /* \"#utility.yul\":4281:4360   */\n      tag_170\n      tag_63\n      jump\t// in\n    tag_170:\n        /* \"#utility.yul\":4243:4362   */\n    tag_169:\n        /* \"#utility.yul\":4429:4430   */\n      0x00\n        /* \"#utility.yul\":4418:4427   */\n      dup3\n        /* \"#utility.yul\":4414:4431   */\n      add\n        /* \"#utility.yul\":4401:4432   */\n      calldataload\n        /* \"#utility.yul\":4459:4477   */\n      0xffffffffffffffff\n        /* \"#utility.yul\":4451:4457   */\n      dup2\n        /* \"#utility.yul\":4448:4478   */\n      gt\n        /* \"#utility.yul\":4445:4562   */\n      iszero\n      tag_171\n      jumpi\n        /* \"#utility.yul\":4481:4560   */\n      tag_172\n      tag_64\n      jump\t// in\n    tag_172:\n        /* \"#utility.yul\":4445:4562   */\n    tag_171:\n        /* \"#utility.yul\":4586:4649   */\n      tag_173\n        /* \"#utility.yul\":4641:4648   */\n      dup5\n        /* \"#utility.yul\":4632:4638   */\n      dup3\n        /* \"#utility.yul\":4621:4630   */\n      dup6\n        /* \"#utility.yul\":4617:4639   */\n      add\n        /* \"#utility.yul\":4586:4649   */\n      tag_74\n      jump\t// in\n    tag_173:\n        /* \"#utility.yul\":4576:4649   */\n      swap2\n      pop\n        /* \"#utility.yul\":4372:4659   */\n      pop\n        /* \"#utility.yul\":4157:4666   */\n      swap3\n      swap2\n      pop\n      pop\n      jump\t// out\n        /* \"#utility.yul\":4672:4748   */\n    tag_81:\n        /* \"#utility.yul\":4708:4715   */\n      0x00\n        /* \"#utility.yul\":4737:4742   */\n      dup2\n        /* \"#utility.yul\":4726:4742   */\n      swap1\n      pop\n        /* \"#utility.yul\":4672:4748   */\n      swap2\n      swap1\n      pop\n      jump\t// out\n        /* \"#utility.yul\":4754:4869   */\n    tag_82:\n        /* \"#utility.yul\":4839:4862   */\n      tag_176\n        /* \"#utility.yul\":4856:4861   */\n      dup2\n        /* \"#utility.yul\":4839:4862   */\n      tag_81\n      jump\t// in\n    tag_176:\n        /* \"#utility.yul\":4834:4837   */\n      dup3\n        /* \"#utility.yul\":4827:4863   */\n      mstore\n        /* \"#utility.yul\":4754:4869   */\n      pop\n      pop\n      jump\t// out\n        /* \"#utility.yul\":4875:5093   */\n    tag_21:\n        /* \"#utility.yul\":4966:4970   */\n      0x00\n        /* \"#utility.yul\":5004:5006   */\n      0x20\n        /* \"#utility.yul\":4993:5002   */\n      dup3\n        /* \"#utility.yul\":4989:5007   */\n      add\n        /* \"#utility.yul\":4981:5007   */\n      swap1\n      pop\n        /* \"#utility.yul\":5017:5086   */\n      tag_178\n        /* \"#utility.yul\":5083:5084   */\n      0x00\n        /* \"#utility.yul\":5072:5081   */\n      dup4\n        /* \"#utility.yul\":5068:5085   */\n      add\n        /* \"#utility.yul\":5059:5065   */\n      dup5\n        /* \"#utility.yul\":5017:5086   */\n      tag_82\n      jump\t// in\n    tag_178:\n        /* \"#utility.yul\":4875:5093   */\n      swap3\n      swap2\n      pop\n      pop\n      jump\t// out\n        /* \"#utility.yul\":5099:5221   */\n    tag_83:\n        /* \"#utility.yul\":5172:5196   */\n      tag_180\n        /* \"#utility.yul\":5190:5195   */\n      dup2\n        /* \"#utility.yul\":5172:5196   */\n      tag_79\n      jump\t// in\n    tag_180:\n        /* \"#utility.yul\":5165:5170   */\n      dup2\n        /* \"#utility.yul\":5162:5197   */\n      eq\n        /* \"#utility.yul\":5152:5215   */\n      tag_181\n      jumpi\n        /* \"#utility.yul\":5211:5212   */\n      0x00\n        /* \"#utility.yul\":5208:5209   */\n      dup1\n        /* \"#utility.yul\":5201:5213   */\n      revert\n        /* \"#utility.yul\":5152:5215   */\n    tag_181:\n        /* \"#utility.yul\":5099:5221   */\n      pop\n      jump\t// out\n        /* \"#utility.yul\":5227:5366   */\n    tag_84:\n        /* \"#utility.yul\":5273:5278   */\n      0x00\n        /* \"#utility.yul\":5311:5317   */\n      dup2\n        /* \"#utility.yul\":5298:5318   */\n      calldataload\n        /* \"#utility.yul\":5289:5318   */\n      swap1\n      pop\n        /* \"#utility.yul\":5327:5360   */\n      tag_183\n        /* \"#utility.yul\":5354:5359   */\n      dup2\n        /* \"#utility.yul\":5327:5360   */\n      tag_83\n      jump\t// in\n    tag_183:\n        /* \"#utility.yul\":5227:5366   */\n      swap3\n      swap2\n      pop\n      pop\n      jump\t// out\n        /* \"#utility.yul\":5372:6026   */\n    tag_24:\n        /* \"#utility.yul\":5450:5456   */\n      0x00\n        /* \"#utility.yul\":5458:5464   */\n      dup1\n        /* \"#utility.yul\":5507:5509   */\n      0x40\n        /* \"#utility.yul\":5495:5504   */\n      dup4\n        /* \"#utility.yul\":5486:5493   */\n      dup6\n        /* \"#utility.yul\":5482:5505   */\n      sub\n        /* \"#utility.yul\":5478:5510   */\n      slt\n        /* \"#utility.yul\":5475:5594   */\n      iszero\n      tag_185\n      jumpi\n        /* \"#utility.yul\":5513:5592   */\n      tag_186\n      tag_63\n      jump\t// in\n    tag_186:\n        /* \"#utility.yul\":5475:5594   */\n    tag_185:\n        /* \"#utility.yul\":5661:5662   */\n      0x00\n        /* \"#utility.yul\":5650:5659   */\n      dup4\n        /* \"#utility.yul\":5646:5663   */\n      add\n        /* \"#utility.yul\":5633:5664   */\n      calldataload\n        /* \"#utility.yul\":5691:5709   */\n      0xffffffffffffffff\n        /* \"#utility.yul\":5683:5689   */\n      dup2\n        /* \"#utility.yul\":5680:5710   */\n      gt\n        /* \"#utility.yul\":5677:5794   */\n      iszero\n      tag_187\n      jumpi\n        /* \"#utility.yul\":5713:5792   */\n      tag_188\n      tag_64\n      jump\t// in\n    tag_188:\n        /* \"#utility.yul\":5677:5794   */\n    tag_187:\n        /* \"#utility.yul\":5818:5881   */\n      tag_189\n        /* \"#utility.yul\":5873:5880   */\n      dup6\n        /* \"#utility.yul\":5864:5870   */\n      dup3\n        /* \"#utility.yul\":5853:5862   */\n      dup7\n        /* \"#utility.yul\":5849:5871   */\n      add\n        /* \"#utility.yul\":5818:5881   */\n      tag_74\n      jump\t// in\n    tag_189:\n        /* \"#utility.yul\":5808:5881   */\n      swap3\n      pop\n        /* \"#utility.yul\":5604:5891   */\n      pop\n        /* \"#utility.yul\":5930:5932   */\n      0x20\n        /* \"#utility.yul\":5956:6009   */\n      tag_190\n        /* \"#utility.yul\":6001:6008   */\n      dup6\n        /* \"#utility.yul\":5992:5998   */\n      dup3\n        /* \"#utility.yul\":5981:5990   */\n      dup7\n        /* \"#utility.yul\":5977:5999   */\n      add\n        /* \"#utility.yul\":5956:6009   */\n      tag_84\n      jump\t// in\n    tag_190:\n        /* \"#utility.yul\":5946:6009   */\n      swap2\n      pop\n        /* \"#utility.yul\":5901:6019   */\n      pop\n        /* \"#utility.yul\":5372:6026   */\n      swap3\n      pop\n      swap3\n      swap1\n      pop\n      jump\t// out\n        /* \"#utility.yul\":6032:6361   */\n    tag_28:\n        /* \"#utility.yul\":6091:6097   */\n      0x00\n        /* \"#utility.yul\":6140:6142   */\n      0x20\n        /* \"#utility.yul\":6128:6137   */\n      dup3\n        /* \"#utility.yul\":6119:6126   */\n      dup5\n        /* \"#utility.yul\":6115:6138   */\n      sub\n        /* \"#utility.yul\":6111:6143   */\n      slt\n        /* \"#utility.yul\":6108:6227   */\n      iszero\n      tag_192\n      jumpi\n        /* \"#utility.yul\":6146:6225   */\n      tag_193\n      tag_63\n      jump\t// in\n    tag_193:\n        /* \"#utility.yul\":6108:6227   */\n    tag_192:\n        /* \"#utility.yul\":6266:6267   */\n      0x00\n        /* \"#utility.yul\":6291:6344   */\n      tag_194\n        /* \"#utility.yul\":6336:6343   */\n      dup5\n        /* \"#utility.yul\":6327:6333   */\n      dup3\n        /* \"#utility.yul\":6316:6325   */\n      dup6\n        /* \"#utility.yul\":6312:6334   */\n      add\n        /* \"#utility.yul\":6291:6344   */\n      tag_84\n      jump\t// in\n    tag_194:\n        /* \"#utility.yul\":6281:6344   */\n      swap2\n      pop\n        /* \"#utility.yul\":6237:6354   */\n      pop\n        /* \"#utility.yul\":6032:6361   */\n      swap3\n      swap2\n      pop\n      pop\n      jump\t// out\n        /* \"#utility.yul\":6367:6466   */\n    tag_85:\n        /* \"#utility.yul\":6419:6425   */\n      0x00\n        /* \"#utility.yul\":6453:6458   */\n      dup2\n        /* \"#utility.yul\":6447:6459   */\n      mload\n        /* \"#utility.yul\":6437:6459   */\n      swap1\n      pop\n        /* \"#utility.yul\":6367:6466   */\n      swap2\n      swap1\n      pop\n      jump\t// out\n        /* \"#utility.yul\":6472:6641   */\n    tag_86:\n        /* \"#utility.yul\":6556:6567   */\n      0x00\n        /* \"#utility.yul\":6590:6596   */\n      dup3\n        /* \"#utility.yul\":6585:6588   */\n      dup3\n        /* \"#utility.yul\":6578:6597   */\n      mstore\n        /* \"#utility.yul\":6630:6634   */\n      0x20\n        /* \"#utility.yul\":6625:6628   */\n      dup3\n        /* \"#utility.yul\":6621:6635   */\n      add\n        /* \"#utility.yul\":6606:6635   */\n      swap1\n      pop\n        /* \"#utility.yul\":6472:6641   */\n      swap3\n      swap2\n      pop\n      pop\n      jump\t// out\n        /* \"#utility.yul\":6647:6786   */\n    tag_87:\n        /* \"#utility.yul\":6736:6742   */\n      dup3\n        /* \"#utility.yul\":6731:6734   */\n      dup2\n        /* \"#utility.yul\":6726:6729   */\n      dup4\n        /* \"#utility.yul\":6720:6743   */\n      mcopy\n        /* \"#utility.yul\":6777:6778   */\n      0x00\n        /* \"#utility.yul\":6768:6774   */\n      dup4\n        /* \"#utility.yul\":6763:6766   */\n      dup4\n        /* \"#utility.yul\":6759:6775   */\n      add\n        /* \"#utility.yul\":6752:6779   */\n      mstore\n        /* \"#utility.yul\":6647:6786   */\n      pop\n      pop\n      pop\n      jump\t// out\n        /* \"#utility.yul\":6792:7169   */\n    tag_88:\n        /* \"#utility.yul\":6880:6883   */\n      0x00\n        /* \"#utility.yul\":6908:6947   */\n      tag_199\n        /* \"#utility.yul\":6941:6946   */\n      dup3\n        /* \"#utility.yul\":6908:6947   */\n      tag_85\n      jump\t// in\n    tag_199:\n        /* \"#utility.yul\":6963:7034   */\n      tag_200\n        /* \"#utility.yul\":7027:7033   */\n      dup2\n        /* \"#utility.yul\":7022:7025   */\n      dup6\n        /* \"#utility.yul\":6963:7034   */\n      tag_86\n      jump\t// in\n    tag_200:\n        /* \"#utility.yul\":6956:7034   */\n      swap4\n      pop\n        /* \"#utility.yul\":7043:7108   */\n      tag_201\n        /* \"#utility.yul\":7101:7107   */\n      dup2\n        /* \"#utility.yul\":7096:7099   */\n      dup6\n        /* \"#utility.yul\":7089:7093   */\n      0x20\n        /* \"#utility.yul\":7082:7087   */\n      dup7\n        /* \"#utility.yul\":7078:7094   */\n      add\n        /* \"#utility.yul\":7043:7108   */\n      tag_87\n      jump\t// in\n    tag_201:\n        /* \"#utility.yul\":7133:7162   */\n      tag_202\n        /* \"#utility.yul\":7155:7161   */\n      dup2\n        /* \"#utility.yul\":7133:7162   */\n      tag_67\n      jump\t// in\n    tag_202:\n        /* \"#utility.yul\":7128:7131   */\n      dup5\n        /* \"#utility.yul\":7124:7163   */\n      add\n        /* \"#utility.yul\":7117:7163   */\n      swap2\n      pop\n        /* \"#utility.yul\":6884:7169   */\n      pop\n        /* \"#utility.yul\":6792:7169   */\n      swap3\n      swap2\n      pop\n      pop\n      jump\t// out\n        /* \"#utility.yul\":7175:7293   */\n    tag_89:\n        /* \"#utility.yul\":7262:7286   */\n      tag_204\n        /* \"#utility.yul\":7280:7285   */\n      dup2\n        /* \"#utility.yul\":7262:7286   */\n      tag_76\n      jump\t// in\n    tag_204:\n        /* \"#utility.yul\":7257:7260   */\n      dup3\n        /* \"#utility.yul\":7250:7287   */\n      mstore\n        /* \"#utility.yul\":7175:7293   */\n      pop\n      pop\n      jump\t// out\n        /* \"#utility.yul\":7299:7389   */\n    tag_90:\n        /* \"#utility.yul\":7333:7340   */\n      0x00\n        /* \"#utility.yul\":7376:7381   */\n      dup2\n        /* \"#utility.yul\":7369:7382   */\n      iszero\n        /* \"#utility.yul\":7362:7383   */\n      iszero\n        /* \"#utility.yul\":7351:7383   */\n      swap1\n      pop\n        /* \"#utility.yul\":7299:7389   */\n      swap2\n      swap1\n      pop\n      jump\t// out\n        /* \"#utility.yul\":7395:7504   */\n    tag_91:\n        /* \"#utility.yul\":7476:7497   */\n      tag_207\n        /* \"#utility.yul\":7491:7496   */\n      dup2\n        /* \"#utility.yul\":7476:7497   */\n      tag_90\n      jump\t// in\n    tag_207:\n        /* \"#utility.yul\":7471:7474   */\n      dup3\n        /* \"#utility.yul\":7464:7498   */\n      mstore\n        /* \"#utility.yul\":7395:7504   */\n      pop\n      pop\n      jump\t// out\n        /* \"#utility.yul\":7510:8253   */\n    tag_31:\n        /* \"#utility.yul\":7729:7733   */\n      0x00\n        /* \"#utility.yul\":7767:7770   */\n      0xa0\n        /* \"#utility.yul\":7756:7765   */\n      dup3\n        /* \"#utility.yul\":7752:7771   */\n      add\n        /* \"#utility.yul\":7744:7771   */\n      swap1\n      pop\n        /* \"#utility.yul\":7817:7826   */\n      dup2\n        /* \"#utility.yul\":7811:7815   */\n      dup2\n        /* \"#utility.yul\":7807:7827   */\n      sub\n        /* \"#utility.yul\":7803:7804   */\n      0x00\n        /* \"#utility.yul\":7792:7801   */\n      dup4\n        /* \"#utility.yul\":7788:7805   */\n      add\n        /* \"#utility.yul\":7781:7828   */\n      mstore\n        /* \"#utility.yul\":7845:7923   */\n      tag_209\n        /* \"#utility.yul\":7918:7922   */\n      dup2\n        /* \"#utility.yul\":7909:7915   */\n      dup9\n        /* \"#utility.yul\":7845:7923   */\n      tag_88\n      jump\t// in\n    tag_209:\n        /* \"#utility.yul\":7837:7923   */\n      swap1\n      pop\n        /* \"#utility.yul\":7933:8005   */\n      tag_210\n        /* \"#utility.yul\":8001:8003   */\n      0x20\n        /* \"#utility.yul\":7990:7999   */\n      dup4\n        /* \"#utility.yul\":7986:8004   */\n      add\n        /* \"#utility.yul\":7977:7983   */\n      dup8\n        /* \"#utility.yul\":7933:8005   */\n      tag_89\n      jump\t// in\n    tag_210:\n        /* \"#utility.yul\":8015:8087   */\n      tag_211\n        /* \"#utility.yul\":8083:8085   */\n      0x40\n        /* \"#utility.yul\":8072:8081   */\n      dup4\n        /* \"#utility.yul\":8068:8086   */\n      add\n        /* \"#utility.yul\":8059:8065   */\n      dup7\n        /* \"#utility.yul\":8015:8087   */\n      tag_80\n      jump\t// in\n    tag_211:\n        /* \"#utility.yul\":8097:8169   */\n      tag_212\n        /* \"#utility.yul\":8165:8167   */\n      0x60\n        /* \"#utility.yul\":8154:8163   */\n      dup4\n        /* \"#utility.yul\":8150:8168   */\n      add\n        /* \"#utility.yul\":8141:8147   */\n      dup6\n        /* \"#utility.yul\":8097:8169   */\n      tag_80\n      jump\t// in\n    tag_212:\n        /* \"#utility.yul\":8179:8246   */\n      tag_213\n        /* \"#utility.yul\":8241:8244   */\n      0x80\n        /* \"#utility.yul\":8230:8239   */\n      dup4\n        /* \"#utility.yul\":8226:8245   */\n      add\n        /* \"#utility.yul\":8217:8223   */\n      dup5\n        /* \"#utility.yul\":8179:8246   */\n      tag_91\n      jump\t// in\n    tag_213:\n        /* \"#utility.yul\":7510:8253   */\n      swap7\n      swap6\n      pop\n      pop\n      pop\n      pop\n      pop\n      pop\n      jump\t// out\n        /* \"#utility.yul\":8259:8439   */\n    tag_92:\n        /* \"#utility.yul\":8307:8384   */\n      0x4e487b7100000000000000000000000000000000000000000000000000000000\n        /* \"#utility.yul\":8304:8305   */\n      0x00\n        /* \"#utility.yul\":8297:8385   */\n      mstore\n        /* \"#utility.yul\":8404:8408   */\n      0x11\n        /* \"#utility.yul\":8401:8402   */\n      0x04\n        /* \"#utility.yul\":8394:8409   */\n      mstore\n        /* \"#utility.yul\":8428:8432   */\n      0x24\n        /* \"#utility.yul\":8425:8426   */\n      0x00\n        /* \"#utility.yul\":8418:8433   */\n      revert\n        /* \"#utility.yul\":8445:8678   */\n    tag_34:\n        /* \"#utility.yul\":8484:8487   */\n      0x00\n        /* \"#utility.yul\":8507:8531   */\n      tag_216\n        /* \"#utility.yul\":8525:8530   */\n      dup3\n        /* \"#utility.yul\":8507:8531   */\n      tag_79\n      jump\t// in\n    tag_216:\n        /* \"#utility.yul\":8498:8531   */\n      swap2\n      pop\n        /* \"#utility.yul\":8553:8619   */\n      0xffffffffffffffffffffffffffffffffffffffffffffffffffffffffffffffff\n        /* \"#utility.yul\":8546:8551   */\n      dup3\n        /* \"#utility.yul\":8543:8620   */\n      sub\n        /* \"#utility.yul\":8540:8643   */\n      tag_217\n      jumpi\n        /* \"#utility.yul\":8623:8641   */\n      tag_218\n      tag_92\n      jump\t// in\n    tag_218:\n        /* \"#utility.yul\":8540:8643   */\n    tag_217:\n        /* \"#utility.yul\":8670:8671   */\n      0x01\n        /* \"#utility.yul\":8663:8668   */\n      dup3\n        /* \"#utility.yul\":8659:8672   */\n      add\n        /* \"#utility.yul\":8652:8672   */\n      swap1\n      pop\n        /* \"#utility.yul\":8445:8678   */\n      swap2\n      swap1\n      pop\n      jump\t// out\n        /* \"#utility.yul\":8684:8864   */\n    tag_93:\n        /* \"#utility.yul\":8732:8809   */\n      0x4e487b7100000000000000000000000000000000000000000000000000000000\n        /* \"#utility.yul\":8729:8730   */\n      0x00\n        /* \"#utility.yul\":8722:8810   */\n      mstore\n        /* \"#utility.yul\":8829:8833   */\n      0x22\n        /* \"#utility.yul\":8826:8827   */\n      0x04\n        /* \"#utility.yul\":8819:8834   */\n      mstore\n        /* \"#utility.yul\":8853:8857   */\n      0x24\n        /* \"#utility.yul\":8850:8851   */\n      0x00\n        /* \"#utility.yul\":8843:8858   */\n      revert\n        /* \"#utility.yul\":8870:9190   */\n    tag_57:\n        /* \"#utility.yul\":8914:8920   */\n      0x00\n        /* \"#utility.yul\":8951:8952   */\n      0x02\n        /* \"#utility.yul\":8945:8949   */\n      dup3\n        /* \"#utility.yul\":8941:8953   */\n      div\n        /* \"#utility.yul\":8931:8953   */\n      swap1\n      pop\n        /* \"#utility.yul\":8998:8999   */\n      0x01\n        /* \"#utility.yul\":8992:8996   */\n      dup3\n        /* \"#utility.yul\":8988:9000   */\n      and\n        /* \"#utility.yul\":9019:9037   */\n      dup1\n        /* \"#utility.yul\":9009:9090   */\n      tag_221\n      jumpi\n        /* \"#utility.yul\":9075:9079   */\n      0x7f\n        /* \"#utility.yul\":9067:9073   */\n      dup3\n        /* \"#utility.yul\":9063:9080   */\n      and\n        /* \"#utility.yul\":9053:9080   */\n      swap2\n      pop\n        /* \"#utility.yul\":9009:9090   */\n    tag_221:\n        /* \"#utility.yul\":9137:9139   */\n      0x20\n        /* \"#utility.yul\":9129:9135   */\n      dup3\n        /* \"#utility.yul\":9126:9140   */\n      lt\n        /* \"#utility.yul\":9106:9124   */\n      dup2\n        /* \"#utility.yul\":9103:9141   */\n      sub\n        /* \"#utility.yul\":9100:9184   */\n      tag_222\n      jumpi\n        /* \"#utility.yul\":9156:9174   */\n      tag_223\n      tag_93\n      jump\t// in\n    tag_223:\n        /* \"#utility.yul\":9100:9184   */\n    tag_222:\n        /* \"#utility.yul\":8921:9190   */\n      pop\n        /* \"#utility.yul\":8870:9190   */\n      swap2\n      swap1\n      pop\n      jump\t// out\n        /* \"#utility.yul\":9196:9337   */\n    tag_94:\n        /* \"#utility.yul\":9245:9249   */\n      0x00\n        /* \"#utility.yul\":9268:9271   */\n      dup2\n        /* \"#utility.yul\":9260:9271   */\n      swap1\n      pop\n        /* \"#utility.yul\":9291:9294   */\n      dup2\n        /* \"#utility.yul\":9288:9289   */\n      0x00\n        /* \"#utility.yul\":9281:9295   */\n      mstore\n        /* \"#utility.yul\":9325:9329   */\n      0x20\n        /* \"#utility.yul\":9322:9323   */\n      0x00\n        /* \"#utility.yul\":9312:9330   */\n      keccak256\n        /* \"#utility.yul\":9304:9330   */\n      swap1\n      pop\n        /* \"#utility.yul\":9196:9337   */\n      swap2\n      swap1\n      pop\n      jump\t// out\n        /* \"#utility.yul\":9343:9436   */\n    tag_95:\n        /* \"#utility.yul\":9380:9386   */\n      0x00\n        /* \"#utility.yul\":9427:9429   */\n      0x20\n        /* \"#utility.yul\":9422:9424   */\n      0x1f\n        /* \"#utility.yul\":9415:9420   */\n      dup4\n        /* \"#utility.yul\":9411:9425   */\n      add\n        /* \"#utility.yul\":9407:9430   */\n      div\n        /* \"#utility.yul\":9397:9430   */\n      swap1\n      pop\n        /* \"#utility.yul\":9343:9436   */\n      swap2\n      swap1\n      pop\n      jump\t// out\n        /* \"#utility.yul\":9442:9549   */\n    tag_96:\n        /* \"#utility.yul\":9486:9494   */\n      0x00\n        /* \"#utility.yul\":9536:9541   */\n      dup3\n        /* \"#utility.yul\":9530:9534   */\n      dup3\n        /* \"#utility.yul\":9526:9542   */\n      shl\n        /* \"#utility.yul\":9505:9542   */\n      swap1\n      pop\n        /* \"#utility.yul\":9442:9549   */\n      swap3\n      swap2\n      pop\n      pop\n      jump\t// out\n        /* \"#utility.yul\":9555:9948   */\n    tag_97:\n        /* \"#utility.yul\":9624:9630   */\n      0x00\n        /* \"#utility.yul\":9674:9675   */\n      0x08\n        /* \"#utility.yul\":9662:9672   */\n      dup4\n        /* \"#utility.yul\":9658:9676   */\n      mul\n        /* \"#utility.yul\":9697:9794   */\n      tag_228\n        /* \"#utility.yul\":9727:9793   */\n      0xffffffffffffffffffffffffffffffffffffffffffffffffffffffffffffffff\n        /* \"#utility.yul\":9716:9725   */\n      dup3\n        /* \"#utility.yul\":9697:9794   */\n      tag_96\n      jump\t// in\n    tag_228:\n        /* \"#utility.yul\":9815:9854   */\n      tag_229\n        /* \"#utility.yul\":9845:9853   */\n      dup7\n        /* \"#utility.yul\":9834:9843   */\n      dup4\n        /* \"#utility.yul\":9815:9854   */\n      tag_96\n      jump\t// in\n    tag_229:\n        /* \"#utility.yul\":9803:9854   */\n      swap6\n      pop\n        /* \"#utility.yul\":9887:9891   */\n      dup1\n        /* \"#utility.yul\":9883:9892   */\n      not\n        /* \"#utility.yul\":9876:9881   */\n      dup5\n        /* \"#utility.yul\":9872:9893   */\n      and\n        /* \"#utility.yul\":9863:9893   */\n      swap4\n      pop\n        /* \"#utility.yul\":9936:9940   */\n      dup1\n        /* \"#utility.yul\":9926:9934   */\n      dup7\n        /* \"#utility.yul\":9922:9941   */\n      and\n        /* \"#utility.yul\":9915:9920   */\n      dup5\n        /* \"#utility.yul\":9912:9942   */\n      or\n        /* \"#utility.yul\":9902:9942   */\n      swap3\n      pop\n        /* \"#utility.yul\":9631:9948   */\n      pop\n      pop\n        /* \"#utility.yul\":9555:9948   */\n      swap4\n      swap3\n      pop\n      pop\n      pop\n      jump\t// out\n        /* \"#utility.yul\":9954:10014   */\n    tag_98:\n        /* \"#utility.yul\":9982:9985   */\n      0x00\n        /* \"#utility.yul\":10003:10008   */\n      dup2\n        /* \"#utility.yul\":9996:10008   */\n      swap1\n      pop\n        /* \"#utility.yul\":9954:10014   */\n      swap2\n      swap1\n      pop\n      jump\t// out\n        /* \"#utility.yul\":10020:10162   */\n    tag_99:\n        /* \"#utility.yul\":10070:10079   */\n      0x00\n        /* \"#utility.yul\":10103:10156   */\n      tag_232\n        /* \"#utility.yul\":10121:10155   */\n      tag_233\n        /* \"#utility.yul\":10130:10154   */\n      tag_234\n        /* \"#utility.yul\":10148:10153   */\n      dup5\n        /* \"#utility.yul\":10130:10154   */\n      tag_79\n      jump\t// in\n    tag_234:\n        /* \"#utility.yul\":10121:10155   */\n      tag_98\n      jump\t// in\n    tag_233:\n        /* \"#utility.yul\":10103:10156   */\n      tag_79\n      jump\t// in\n    tag_232:\n        /* \"#utility.yul\":10090:10156   */\n      swap1\n      pop\n        /* \"#utility.yul\":10020:10162   */\n      swap2\n      swap1\n      pop\n      jump\t// out\n        /* \"#utility.yul\":10168:10243   */\n    tag_100:\n        /* \"#utility.yul\":10211:10214   */\n      0x00\n        /* \"#utility.yul\":10232:10237   */\n      dup2\n        /* \"#utility.yul\":10225:10237   */\n      swap1\n      pop\n        /* \"#utility.yul\":10168:10243   */\n      swap2\n      swap1\n      pop\n      jump\t// out\n        /* \"#utility.yul\":10249:10518   */\n    tag_101:\n        /* \"#utility.yul\":10359:10398   */\n      tag_237\n        /* \"#utility.yul\":10390:10397   */\n      dup4\n        /* \"#utility.yul\":10359:10398   */\n      tag_99\n      jump\t// in\n    tag_237:\n        /* \"#utility.yul\":10420:10511   */\n      tag_238\n        /* \"#utility.yul\":10469:10510   */\n      tag_239\n        /* \"#utility.yul\":10493:10509   */\n      dup3\n        /* \"#utility.yul\":10469:10510   */\n      tag_100\n      jump\t// in\n    tag_239:\n        /* \"#utility.yul\":10461:10467   */\n      dup5\n        /* \"#utility.yul\":10454:10458   */\n      dup5\n        /* \"#utility.yul\":10448:10459   */\n      sload\n        /* \"#utility.yul\":10420:10511   */\n      tag_97\n      jump\t// in\n    tag_238:\n        /* \"#utility.yul\":10414:10418   */\n      dup3\n        /* \"#utility.yul\":10407:10512   */\n      sstore\n        /* \"#utility.yul\":10325:10518   */\n      pop\n        /* \"#utility.yul\":10249:10518   */\n      pop\n      pop\n      pop\n      jump\t// out\n        /* \"#utility.yul\":10524:10597   */\n    tag_102:\n        /* \"#utility.yul\":10569:10572   */\n      0x00\n        /* \"#utility.yul\":10524:10597   */\n      swap1\n      jump\t// out\n        /* \"#utility.yul\":10603:10792   */\n    tag_103:\n        /* \"#utility.yul\":10680:10712   */\n      tag_242\n      tag_102\n      jump\t// in\n    tag_242:\n        /* \"#utility.yul\":10721:10786   */\n      tag_243\n        /* \"#utility.yul\":10779:10785   */\n      dup2\n        /* \"#utility.yul\":10771:10777   */\n      dup5\n        /* \"#utility.yul\":10765:10769   */\n      dup5\n        /* \"#utility.yul\":10721:10786   */\n      tag_101\n      jump\t// in\n    tag_243:\n        /* \"#utility.yul\":10656:10792   */\n      pop\n        /* \"#utility.yul\":10603:10792   */\n      pop\n      pop\n      jump\t// out\n        /* \"#utility.yul\":10798:10984   */\n    tag_104:\n        /* \"#utility.yul\":10858:10978   */\n    tag_245:\n        /* \"#utility.yul\":10875:10878   */\n      dup2\n        /* \"#utility.yul\":10868:10873   */\n      dup2\n        /* \"#utility.yul\":10865:10879   */\n      lt\n        /* \"#utility.yul\":10858:10978   */\n      iszero\n      tag_247\n      jumpi\n        /* \"#utility.yul\":10929:10968   */\n      tag_248\n        /* \"#utility.yul\":10966:10967   */\n      0x00\n        /* \"#utility.yul\":10959:10964   */\n      dup3\n        /* \"#utility.yul\":10929:10968   */\n      tag_103\n      jump\t// in\n    tag_248:\n        /* \"#utility.yul\":10902:10903   */\n      0x01\n        /* \"#utility.yul\":10895:10900   */\n      dup2\n        /* \"#utility.yul\":10891:10904   */\n      add\n        /* \"#utility.yul\":10882:10904   */\n      swap1\n      pop\n        /* \"#utility.yul\":10858:10978   */\n      jump(tag_245)\n    tag_247:\n        /* \"#utility.yul\":10798:10984   */\n      pop\n      pop\n      jump\t// out\n        /* \"#utility.yul\":10990:11533   */\n    tag_105:\n        /* \"#utility.yul\":11091:11093   */\n      0x1f\n        /* \"#utility.yul\":11086:11089   */\n      dup3\n        /* \"#utility.yul\":11083:11094   */\n      gt\n        /* \"#utility.yul\":11080:11526   */\n      iszero\n      tag_250\n      jumpi\n        /* \"#utility.yul\":11125:11163   */\n      tag_251\n        /* \"#utility.yul\":11157:11162   */\n      dup2\n        /* \"#utility.yul\":11125:11163   */\n      tag_94\n      jump\t// in\n    tag_251:\n        /* \"#utility.yul\":11209:11238   */\n      tag_252\n        /* \"#utility.yul\":11227:11237   */\n      dup5\n        /* \"#utility.yul\":11209:11238   */\n      tag_95\n      jump\t// in\n    tag_252:\n        /* \"#utility.yul\":11199:11207   */\n      dup2\n        /* \"#utility.yul\":11195:11239   */\n      add\n        /* \"#utility.yul\":11392:11394   */\n      0x20\n        /* \"#utility.yul\":11380:11390   */\n      dup6\n        /* \"#utility.yul\":11377:11395   */\n      lt\n        /* \"#utility.yul\":11374:11423   */\n      iszero\n      tag_253\n      jumpi\n        /* \"#utility.yul\":11413:11421   */\n      dup2\n        /* \"#utility.yul\":11398:11421   */\n      swap1\n      pop\n        /* \"#utility.yul\":11374:11423   */\n    tag_253:\n        /* \"#utility.yul\":11436:11516   */\n      tag_254\n        /* \"#utility.yul\":11492:11514   */\n      tag_255\n        /* \"#utility.yul\":11510:11513   */\n      dup6\n        /* \"#utility.yul\":11492:11514   */\n      tag_95\n      jump\t// in\n    tag_255:\n        /* \"#utility.yul\":11482:11490   */\n      dup4\n        /* \"#utility.yul\":11478:11515   */\n      add\n        /* \"#utility.yul\":11465:11476   */\n      dup3\n        /* \"#utility.yul\":11436:11516   */\n      tag_104\n      jump\t// in\n    tag_254:\n        /* \"#utility.yul\":11095:11526   */\n      pop\n      pop\n        /* \"#utility.yul\":11080:11526   */\n    tag_250:\n        /* \"#utility.yul\":10990:11533   */\n      pop\n      pop\n      pop\n      jump\t// out\n        /* \"#utility.yul\":11539:11656   */\n    tag_106:\n        /* \"#utility.yul\":11593:11601   */\n      0x00\n        /* \"#utility.yul\":11643:11648   */\n      dup3\n        /* \"#utility.yul\":11637:11641   */\n      dup3\n        /* \"#utility.yul\":11633:11649   */\n      shr\n        /* \"#utility.yul\":11612:11649   */\n      swap1\n      pop\n        /* \"#utility.yul\":11539:11656   */\n      swap3\n      swap2\n      pop\n      pop\n      jump\t// out\n        /* \"#utility.yul\":11662:11831   */\n    tag_107:\n        /* \"#utility.yul\":11706:11712   */\n      0x00\n        /* \"#utility.yul\":11739:11790   */\n      tag_258\n        /* \"#utility.yul\":11787:11788   */\n      0x00\n        /* \"#utility.yul\":11783:11789   */\n      not\n        /* \"#utility.yul\":11775:11780   */\n      dup5\n        /* \"#utility.yul\":11772:11773   */\n      0x08\n        /* \"#utility.yul\":11768:11781   */\n      mul\n        /* \"#utility.yul\":11739:11790   */\n      tag_106\n      jump\t// in\n    tag_258:\n        /* \"#utility.yul\":11735:11791   */\n      not\n        /* \"#utility.yul\":11820:11824   */\n      dup1\n        /* \"#utility.yul\":11814:11818   */\n      dup4\n        /* \"#utility.yul\":11810:11825   */\n      and\n        /* \"#utility.yul\":11800:11825   */\n      swap2\n      pop\n        /* \"#utility.yul\":11713:11831   */\n      pop\n        /* \"#utility.yul\":11662:11831   */\n      swap3\n      swap2\n      pop\n      pop\n      jump\t// out\n        /* \"#utility.yul\":11836:12131   */\n    tag_108:\n        /* \"#utility.yul\":11912:11916   */\n      0x00\n        /* \"#utility.yul\":12058:12087   */\n      tag_260\n        /* \"#utility.yul\":12083:12086   */\n      dup4\n        /* \"#utility.yul\":12077:12081   */\n      dup4\n        /* \"#utility.yul\":12058:12087   */\n      tag_107\n      jump\t// in\n    tag_260:\n        /* \"#utility.yul\":12050:12087   */\n      swap2\n      pop\n        /* \"#utility.yul\":12120:12123   */\n      dup3\n        /* \"#utility.yul\":12117:12118   */\n      0x02\n        /* \"#utility.yul\":12113:12124   */\n      mul\n        /* \"#utility.yul\":12107:12111   */\n      dup3\n        /* \"#utility.yul\":12104:12125   */\n      or\n        /* \"#utility.yul\":12096:12125   */\n      swap1\n      pop\n        /* \"#utility.yul\":11836:12131   */\n      swap3\n      swap2\n      pop\n      pop\n      jump\t// out\n        /* \"#utility.yul\":12136:13531   */\n    tag_36:\n        /* \"#utility.yul\":12253:12290   */\n      tag_262\n        /* \"#utility.yul\":12286:12289   */\n      dup3\n        /* \"#utility.yul\":12253:12290   */\n      tag_85\n      jump\t// in\n    tag_262:\n        /* \"#utility.yul\":12355:12373   */\n      0xffffffffffffffff\n        /* \"#utility.yul\":12347:12353   */\n      dup2\n        /* \"#utility.yul\":12344:12374   */\n      gt\n        /* \"#utility.yul\":12341:12397   */\n      iszero\n      tag_263\n      jumpi\n        /* \"#utility.yul\":12377:12395   */\n      tag_264\n      tag_68\n      jump\t// in\n    tag_264:\n        /* \"#utility.yul\":12341:12397   */\n    tag_263:\n        /* \"#utility.yul\":12421:12459   */\n      tag_265\n        /* \"#utility.yul\":12453:12457   */\n      dup3\n        /* \"#utility.yul\":12447:12458   */\n      sload\n        /* \"#utility.yul\":12421:12459   */\n      tag_57\n      jump\t// in\n    tag_265:\n        /* \"#utility.yul\":12506:12573   */\n      tag_266\n        /* \"#utility.yul\":12566:12572   */\n      dup3\n        /* \"#utility.yul\":12558:12564   */\n      dup3\n        /* \"#utility.yul\":12552:12556   */\n      dup6\n        /* \"#utility.yul\":12506:12573   */\n      tag_105\n      jump\t// in\n    tag_266:\n        /* \"#utility.yul\":12600:12601   */\n      0x00\n        /* \"#utility.yul\":12624:12628   */\n      0x20\n        /* \"#utility.yul\":12611:12628   */\n      swap1\n      pop\n        /* \"#utility.yul\":12656:12658   */\n      0x1f\n        /* \"#utility.yul\":12648:12654   */\n      dup4\n        /* \"#utility.yul\":12645:12659   */\n      gt\n        /* \"#utility.yul\":12673:12674   */\n      0x01\n        /* \"#utility.yul\":12668:13286   */\n      dup2\n      eq\n      tag_268\n      jumpi\n        /* \"#utility.yul\":13330:13331   */\n      0x00\n        /* \"#utility.yul\":13347:13353   */\n      dup5\n        /* \"#utility.yul\":13344:13421   */\n      iszero\n      tag_269\n      jumpi\n        /* \"#utility.yul\":13396:13405   */\n      dup3\n        /* \"#utility.yul\":13391:13394   */\n      dup8\n        /* \"#utility.yul\":13387:13406   */\n      add\n        /* \"#utility.yul\":13381:13407   */\n      mload\n        /* \"#utility.yul\":13372:13407   */\n      swap1\n      pop\n        /* \"#utility.yul\":13344:13421   */\n    tag_269:\n        /* \"#utility.yul\":13447:13514   */\n      tag_270\n        /* \"#utility.yul\":13507:13513   */\n      dup6\n        /* \"#utility.yul\":13500:13505   */\n      dup3\n        /* \"#utility.yul\":13447:13514   */\n      tag_108\n      jump\t// in\n    tag_270:\n        /* \"#utility.yul\":13441:13445   */\n      dup7\n        /* \"#utility.yul\":13434:13515   */\n      sstore\n        /* \"#utility.yul\":13303:13525   */\n      pop\n        /* \"#utility.yul\":12638:13525   */\n      jump(tag_267)\n        /* \"#utility.yul\":12668:13286   */\n    tag_268:\n        /* \"#utility.yul\":12720:12724   */\n      0x1f\n        /* \"#utility.yul\":12716:12725   */\n      not\n        /* \"#utility.yul\":12708:12714   */\n      dup5\n        /* \"#utility.yul\":12704:12726   */\n      and\n        /* \"#utility.yul\":12754:12791   */\n      tag_271\n        /* \"#utility.yul\":12786:12790   */\n      dup7\n        /* \"#utility.yul\":12754:12791   */\n      tag_94\n      jump\t// in\n    tag_271:\n        /* \"#utility.yul\":12813:12814   */\n      0x00\n        /* \"#utility.yul\":12827:13035   */\n    tag_272:\n        /* \"#utility.yul\":12841:12848   */\n      dup3\n        /* \"#utility.yul\":12838:12839   */\n      dup2\n        /* \"#utility.yul\":12835:12849   */\n      lt\n        /* \"#utility.yul\":12827:13035   */\n      iszero\n      tag_274\n      jumpi\n        /* \"#utility.yul\":12920:12929   */\n      dup5\n        /* \"#utility.yul\":12915:12918   */\n      dup10\n        /* \"#utility.yul\":12911:12930   */\n      add\n        /* \"#utility.yul\":12905:12931   */\n      mload\n        /* \"#utility.yul\":12897:12903   */\n      dup3\n        /* \"#utility.yul\":12890:12932   */\n      sstore\n        /* \"#utility.yul\":12971:12972   */\n      0x01\n        /* \"#utility.yul\":12963:12969   */\n      dup3\n        /* \"#utility.yul\":12959:12973   */\n      add\n        /* \"#utility.yul\":12949:12973   */\n      swap2\n      pop\n        /* \"#utility.yul\":13018:13020   */\n      0x20\n        /* \"#utility.yul\":13007:13016   */\n      dup6\n        /* \"#utility.yul\":13003:13021   */\n      add\n        /* \"#utility.yul\":12990:13021   */\n      swap5\n      pop\n        /* \"#utility.yul\":12864:12868   */\n      0x20\n        /* \"#utility.yul\":12861:12862   */\n      dup2\n        /* \"#utility.yul\":12857:12869   */\n      add\n        /* \"#utility.yul\":12852:12869   */\n      swap1\n      pop\n        /* \"#utility.yul\":12827:13035   */\n      jump(tag_272)\n    tag_274:\n        /* \"#utility.yul\":13063:13069   */\n      dup7\n        /* \"#utility.yul\":13054:13061   */\n      dup4\n        /* \"#utility.yul\":13051:13070   */\n      lt\n        /* \"#utility.yul\":13048:13227   */\n      iszero\n      tag_275\n      jumpi\n        /* \"#utility.yul\":13121:13130   */\n      dup5\n        /* \"#utility.yul\":13116:13119   */\n      dup10\n        /* \"#utility.yul\":13112:13131   */\n      add\n        /* \"#utility.yul\":13106:13132   */\n      mload\n        /* \"#utility.yul\":13164:13212   */\n      tag_276\n        /* \"#utility.yul\":13206:13210   */\n      0x1f\n        /* \"#utility.yul\":13198:13204   */\n      dup10\n        /* \"#utility.yul\":13194:13211   */\n      and\n        /* \"#utility.yul\":13183:13192   */\n      dup3\n        /* \"#utility.yul\":13164:13212   */\n      tag_107\n      jump\t// in\n    tag_276:\n        /* \"#utility.yul\":13156:13162   */\n      dup4\n        /* \"#utility.yul\":13149:13213   */\n      sstore\n        /* \"#utility.yul\":13071:13227   */\n      pop\n        /* \"#utility.yul\":13048:13227   */\n    tag_275:\n        /* \"#utility.yul\":13273:13274   */\n      0x01\n        /* \"#utility.yul\":13269:13270   */\n      0x02\n        /* \"#utility.yul\":13261:13267   */\n      dup9\n        /* \"#utility.yul\":13257:13271   */\n      mul\n        /* \"#utility.yul\":13253:13275   */\n      add\n        /* \"#utility.yul\":13247:13251   */\n      dup9\n        /* \"#utility.yul\":13240:13276   */\n      sstore\n        /* \"#utility.yul\":12675:13286   */\n      pop\n      pop\n      pop\n        /* \"#utility.yul\":12638:13525   */\n    tag_267:\n      pop\n        /* \"#utility.yul\":12228:13531   */\n      pop\n      pop\n      pop\n        /* \"#utility.yul\":12136:13531   */\n      pop\n      pop\n      jump\t// out\n        /* \"#utility.yul\":13537:13622   */\n    tag_109:\n        /* \"#utility.yul\":13582:13589   */\n      0x00\n        /* \"#utility.yul\":13611:13616   */\n      dup2\n        /* \"#utility.yul\":13600:13616   */\n      swap1\n      pop\n        /* \"#utility.yul\":13537:13622   */\n      swap2\n      swap1\n      pop\n      jump\t// out\n        /* \"#utility.yul\":13628:13786   */\n    tag_110:\n        /* \"#utility.yul\":13686:13695   */\n      0x00\n        /* \"#utility.yul\":13719:13780   */\n      tag_279\n        /* \"#utility.yul\":13737:13779   */\n      tag_280\n        /* \"#utility.yul\":13746:13778   */\n      tag_281\n        /* \"#utility.yul\":13772:13777   */\n      dup5\n        /* \"#utility.yul\":13746:13778   */\n      tag_109\n      jump\t// in\n    tag_281:\n        /* \"#utility.yul\":13737:13779   */\n      tag_98\n      jump\t// in\n    tag_280:\n        /* \"#utility.yul\":13719:13780   */\n      tag_79\n      jump\t// in\n    tag_279:\n        /* \"#utility.yul\":13706:13780   */\n      swap1\n      pop\n        /* \"#utility.yul\":13628:13786   */\n      swap2\n      swap1\n      pop\n      jump\t// out\n        /* \"#utility.yul\":13792:13939   */\n    tag_111:\n        /* \"#utility.yul\":13887:13932   */\n      tag_283\n        /* \"#utility.yul\":13926:13931   */\n      dup2\n        /* \"#utility.yul\":13887:13932   */\n      tag_110\n      jump\t// in\n    tag_283:\n        /* \"#utility.yul\":13882:13885   */\n      dup3\n        /* \"#utility.yul\":13875:13933   */\n      mstore\n        /* \"#utility.yul\":13792:13939   */\n      pop\n      pop\n      jump\t// out\n        /* \"#utility.yul\":13945:14034   */\n    tag_112:\n        /* \"#utility.yul\":13994:14001   */\n      0x00\n        /* \"#utility.yul\":14023:14028   */\n      dup2\n        /* \"#utility.yul\":14012:14028   */\n      swap1\n      pop\n        /* \"#utility.yul\":13945:14034   */\n      swap2\n      swap1\n      pop\n      jump\t// out\n        /* \"#utility.yul\":14040:14206   */\n    tag_113:\n        /* \"#utility.yul\":14102:14111   */\n      0x00\n        /* \"#utility.yul\":14135:14200   */\n      tag_286\n        /* \"#utility.yul\":14153:14199   */\n      tag_287\n        /* \"#utility.yul\":14162:14198   */\n      tag_288\n        /* \"#utility.yul\":14192:14197   */\n      dup5\n        /* \"#utility.yul\":14162:14198   */\n      tag_112\n      jump\t// in\n    tag_288:\n        /* \"#utility.yul\":14153:14199   */\n      tag_98\n      jump\t// in\n    tag_287:\n        /* \"#utility.yul\":14135:14200   */\n      tag_79\n      jump\t// in\n    tag_286:\n        /* \"#utility.yul\":14122:14200   */\n      swap1\n      pop\n        /* \"#utility.yul\":14040:14206   */\n      swap2\n      swap1\n      pop\n      jump\t// out\n        /* \"#utility.yul\":14212:14367   */\n    tag_114:\n        /* \"#utility.yul\":14311:14360   */\n      tag_290\n        /* \"#utility.yul\":14354:14359   */\n      dup2\n        /* \"#utility.yul\":14311:14360   */\n      tag_113\n      jump\t// in\n    tag_290:\n        /* \"#utility.yul\":14306:14309   */\n      dup3\n        /* \"#utility.yul\":14299:14361   */\n      mstore\n        /* \"#utility.yul\":14212:14367   */\n      pop\n      pop\n      jump\t// out\n        /* \"#utility.yul\":14373:15267   */\n    tag_38:\n        /* \"#utility.yul\":14640:14644   */\n      0x00\n        /* \"#utility.yul\":14678:14681   */\n      0xc0\n        /* \"#utility.yul\":14667:14676   */\n      dup3\n        /* \"#utility.yul\":14663:14682   */\n      add\n        /* \"#utility.yul\":14655:14682   */\n      swap1\n      pop\n        /* \"#utility.yul\":14692:14763   */\n      tag_292\n        /* \"#utility.yul\":14760:14761   */\n      0x00\n        /* \"#utility.yul\":14749:14758   */\n      dup4\n        /* \"#utility.yul\":14745:14762   */\n      add\n        /* \"#utility.yul\":14736:14742   */\n      dup10\n        /* \"#utility.yul\":14692:14763   */\n      tag_80\n      jump\t// in\n    tag_292:\n        /* \"#utility.yul\":14810:14819   */\n      dup2\n        /* \"#utility.yul\":14804:14808   */\n      dup2\n        /* \"#utility.yul\":14800:14820   */\n      sub\n        /* \"#utility.yul\":14795:14797   */\n      0x20\n        /* \"#utility.yul\":14784:14793   */\n      dup4\n        /* \"#utility.yul\":14780:14798   */\n      add\n        /* \"#utility.yul\":14773:14821   */\n      mstore\n        /* \"#utility.yul\":14838:14916   */\n      tag_293\n        /* \"#utility.yul\":14911:14915   */\n      dup2\n        /* \"#utility.yul\":14902:14908   */\n      dup9\n        /* \"#utility.yul\":14838:14916   */\n      tag_88\n      jump\t// in\n    tag_293:\n        /* \"#utility.yul\":14830:14916   */\n      swap1\n      pop\n        /* \"#utility.yul\":14926:14998   */\n      tag_294\n        /* \"#utility.yul\":14994:14996   */\n      0x40\n        /* \"#utility.yul\":14983:14992   */\n      dup4\n        /* \"#utility.yul\":14979:14997   */\n      add\n        /* \"#utility.yul\":14970:14976   */\n      dup8\n        /* \"#utility.yul\":14926:14998   */\n      tag_89\n      jump\t// in\n    tag_294:\n        /* \"#utility.yul\":15008:15088   */\n      tag_295\n        /* \"#utility.yul\":15084:15086   */\n      0x60\n        /* \"#utility.yul\":15073:15082   */\n      dup4\n        /* \"#utility.yul\":15069:15087   */\n      add\n        /* \"#utility.yul\":15060:15066   */\n      dup7\n        /* \"#utility.yul\":15008:15088   */\n      tag_111\n      jump\t// in\n    tag_295:\n        /* \"#utility.yul\":15098:15183   */\n      tag_296\n        /* \"#utility.yul\":15178:15181   */\n      0x80\n        /* \"#utility.yul\":15167:15176   */\n      dup4\n        /* \"#utility.yul\":15163:15182   */\n      add\n        /* \"#utility.yul\":15154:15160   */\n      dup6\n        /* \"#utility.yul\":15098:15183   */\n      tag_114\n      jump\t// in\n    tag_296:\n        /* \"#utility.yul\":15193:15260   */\n      tag_297\n        /* \"#utility.yul\":15255:15258   */\n      0xa0\n        /* \"#utility.yul\":15244:15253   */\n      dup4\n        /* \"#utility.yul\":15240:15259   */\n      add\n        /* \"#utility.yul\":15231:15237   */\n      dup5\n        /* \"#utility.yul\":15193:15260   */\n      tag_91\n      jump\t// in\n    tag_297:\n        /* \"#utility.yul\":14373:15267   */\n      swap8\n      swap7\n      pop\n      pop\n      pop\n      pop\n      pop\n      pop\n      pop\n      jump\t// out\n        /* \"#utility.yul\":15273:15464   */\n    tag_44:\n        /* \"#utility.yul\":15313:15316   */\n      0x00\n        /* \"#utility.yul\":15332:15352   */\n      tag_299\n        /* \"#utility.yul\":15350:15351   */\n      dup3\n        /* \"#utility.yul\":15332:15352   */\n      tag_79\n      jump\t// in\n    tag_299:\n        /* \"#utility.yul\":15327:15352   */\n      swap2\n      pop\n        /* \"#utility.yul\":15366:15386   */\n      tag_300\n        /* \"#utility.yul\":15384:15385   */\n      dup4\n        /* \"#utility.yul\":15366:15386   */\n      tag_79\n      jump\t// in\n    tag_300:\n        /* \"#utility.yul\":15361:15386   */\n      swap3\n      pop\n        /* \"#utility.yul\":15409:15410   */\n      dup3\n        /* \"#utility.yul\":15406:15407   */\n      dup3\n        /* \"#utility.yul\":15402:15411   */\n      add\n        /* \"#utility.yul\":15395:15411   */\n      swap1\n      pop\n        /* \"#utility.yul\":15430:15433   */\n      dup1\n        /* \"#utility.yul\":15427:15428   */\n      dup3\n        /* \"#utility.yul\":15424:15434   */\n      gt\n        /* \"#utility.yul\":15421:15457   */\n      iszero\n      tag_301\n      jumpi\n        /* \"#utility.yul\":15437:15455   */\n      tag_302\n      tag_92\n      jump\t// in\n    tag_302:\n        /* \"#utility.yul\":15421:15457   */\n    tag_301:\n        /* \"#utility.yul\":15273:15464   */\n      swap3\n      swap2\n      pop\n      pop\n      jump\t// out\n        /* \"#utility.yul\":15470:15618   */\n    tag_115:\n        /* \"#utility.yul\":15572:15583   */\n      0x00\n        /* \"#utility.yul\":15609:15612   */\n      dup2\n        /* \"#utility.yul\":15594:15612   */\n      swap1\n      pop\n        /* \"#utility.yul\":15470:15618   */\n      swap3\n      swap2\n      pop\n      pop\n      jump\t// out\n        /* \"#utility.yul\":15624:16014   */\n    tag_116:\n        /* \"#utility.yul\":15730:15733   */\n      0x00\n        /* \"#utility.yul\":15758:15797   */\n      tag_305\n        /* \"#utility.yul\":15791:15796   */\n      dup3\n        /* \"#utility.yul\":15758:15797   */\n      tag_85\n      jump\t// in\n    tag_305:\n        /* \"#utility.yul\":15813:15902   */\n      tag_306\n        /* \"#utility.yul\":15895:15901   */\n      dup2\n        /* \"#utility.yul\":15890:15893   */\n      dup6\n        /* \"#utility.yul\":15813:15902   */\n      tag_115\n      jump\t// in\n    tag_306:\n        /* \"#utility.yul\":15806:15902   */\n      swap4\n      pop\n        /* \"#utility.yul\":15911:15976   */\n      tag_307\n        /* \"#utility.yul\":15969:15975   */\n      dup2\n        /* \"#utility.yul\":15964:15967   */\n      dup6\n        /* \"#utility.yul\":15957:15961   */\n      0x20\n        /* \"#utility.yul\":15950:15955   */\n      dup7\n        /* \"#utility.yul\":15946:15962   */\n      add\n        /* \"#utility.yul\":15911:15976   */\n      tag_87\n      jump\t// in\n    tag_307:\n        /* \"#utility.yul\":16001:16007   */\n      dup1\n        /* \"#utility.yul\":15996:15999   */\n      dup5\n        /* \"#utility.yul\":15992:16008   */\n      add\n        /* \"#utility.yul\":15985:16008   */\n      swap2\n      pop\n        /* \"#utility.yul\":15734:16014   */\n      pop\n        /* \"#utility.yul\":15624:16014   */\n      swap3\n      swap2\n      pop\n      pop\n      jump\t// out\n        /* \"#utility.yul\":16020:16295   */\n    tag_46:\n        /* \"#utility.yul\":16152:16155   */\n      0x00\n        /* \"#utility.yul\":16174:16269   */\n      tag_309\n        /* \"#utility.yul\":16265:16268   */\n      dup3\n        /* \"#utility.yul\":16256:16262   */\n      dup5\n        /* \"#utility.yul\":16174:16269   */\n      tag_116\n      jump\t// in\n    tag_309:\n        /* \"#utility.yul\":16167:16269   */\n      swap2\n      pop\n        /* \"#utility.yul\":16286:16289   */\n      dup2\n        /* \"#utility.yul\":16279:16289   */\n      swap1\n      pop\n        /* \"#utility.yul\":16020:16295   */\n      swap3\n      swap2\n      pop\n      pop\n      jump\t// out\n        /* \"#utility.yul\":16325:17199   */\n    tag_117:\n        /* \"#utility.yul\":16428:16431   */\n      0x00\n        /* \"#utility.yul\":16465:16470   */\n      dup2\n        /* \"#utility.yul\":16459:16471   */\n      sload\n        /* \"#utility.yul\":16494:16530   */\n      tag_311\n        /* \"#utility.yul\":16520:16529   */\n      dup2\n        /* \"#utility.yul\":16494:16530   */\n      tag_57\n      jump\t// in\n    tag_311:\n        /* \"#utility.yul\":16546:16635   */\n      tag_312\n        /* \"#utility.yul\":16628:16634   */\n      dup2\n        /* \"#utility.yul\":16623:16626   */\n      dup7\n        /* \"#utility.yul\":16546:16635   */\n      tag_115\n      jump\t// in\n    tag_312:\n        /* \"#utility.yul\":16539:16635   */\n      swap5\n      pop\n        /* \"#utility.yul\":16666:16667   */\n      0x01\n        /* \"#utility.yul\":16655:16664   */\n      dup3\n        /* \"#utility.yul\":16651:16668   */\n      and\n        /* \"#utility.yul\":16682:16683   */\n      0x00\n        /* \"#utility.yul\":16677:16843   */\n      dup2\n      eq\n      tag_314\n      jumpi\n        /* \"#utility.yul\":16857:16858   */\n      0x01\n        /* \"#utility.yul\":16852:17193   */\n      dup2\n      eq\n      tag_315\n      jumpi\n        /* \"#utility.yul\":16644:17193   */\n      jump(tag_313)\n        /* \"#utility.yul\":16677:16843   */\n    tag_314:\n        /* \"#utility.yul\":16761:16765   */\n      0xff\n        /* \"#utility.yul\":16757:16766   */\n      not\n        /* \"#utility.yul\":16746:16755   */\n      dup4\n        /* \"#utility.yul\":16742:16767   */\n      and\n        /* \"#utility.yul\":16737:16740   */\n      dup7\n        /* \"#utility.yul\":16730:16768   */\n      mstore\n        /* \"#utility.yul\":16823:16829   */\n      dup2\n        /* \"#utility.yul\":16816:16830   */\n      iszero\n        /* \"#utility.yul\":16809:16831   */\n      iszero\n        /* \"#utility.yul\":16801:16807   */\n      dup3\n        /* \"#utility.yul\":16797:16832   */\n      mul\n        /* \"#utility.yul\":16792:16795   */\n      dup7\n        /* \"#utility.yul\":16788:16833   */\n      add\n        /* \"#utility.yul\":16781:16833   */\n      swap4\n      pop\n        /* \"#utility.yul\":16677:16843   */\n      jump(tag_313)\n        /* \"#utility.yul\":16852:17193   */\n    tag_315:\n        /* \"#utility.yul\":16919:16957   */\n      tag_316\n        /* \"#utility.yul\":16951:16956   */\n      dup6\n        /* \"#utility.yul\":16919:16957   */\n      tag_94\n      jump\t// in\n    tag_316:\n        /* \"#utility.yul\":16979:16980   */\n      0x00\n        /* \"#utility.yul\":16993:17147   */\n    tag_317:\n        /* \"#utility.yul\":17007:17013   */\n      dup4\n        /* \"#utility.yul\":17004:17005   */\n      dup2\n        /* \"#utility.yul\":17001:17014   */\n      lt\n        /* \"#utility.yul\":16993:17147   */\n      iszero\n      tag_319\n      jumpi\n        /* \"#utility.yul\":17081:17088   */\n      dup2\n        /* \"#utility.yul\":17075:17089   */\n      sload\n        /* \"#utility.yul\":17071:17072   */\n      dup2\n        /* \"#utility.yul\":17066:17069   */\n      dup10\n        /* \"#utility.yul\":17062:17073   */\n      add\n        /* \"#utility.yul\":17055:17090   */\n      mstore\n        /* \"#utility.yul\":17131:17132   */\n      0x01\n        /* \"#utility.yul\":17122:17129   */\n      dup3\n        /* \"#utility.yul\":17118:17133   */\n      add\n        /* \"#utility.yul\":17107:17133   */\n      swap2\n      pop\n        /* \"#utility.yul\":17029:17033   */\n      0x20\n        /* \"#utility.yul\":17026:17027   */\n      dup2\n        /* \"#utility.yul\":17022:17034   */\n      add\n        /* \"#utility.yul\":17017:17034   */\n      swap1\n      pop\n        /* \"#utility.yul\":16993:17147   */\n      jump(tag_317)\n    tag_319:\n        /* \"#utility.yul\":17176:17182   */\n      dup4\n        /* \"#utility.yul\":17171:17174   */\n      dup9\n        /* \"#utility.yul\":17167:17183   */\n      add\n        /* \"#utility.yul\":17160:17183   */\n      swap6\n      pop\n        /* \"#utility.yul\":16859:17193   */\n      pop\n      pop\n        /* \"#utility.yul\":16644:17193   */\n    tag_313:\n      pop\n        /* \"#utility.yul\":16432:17199   */\n      pop\n      pop\n        /* \"#utility.yul\":16325:17199   */\n      swap3\n      swap2\n      pop\n      pop\n      jump\t// out\n        /* \"#utility.yul\":17205:17474   */\n    tag_48:\n        /* \"#utility.yul\":17334:17337   */\n      0x00\n        /* \"#utility.yul\":17356:17448   */\n      tag_321\n        /* \"#utility.yul\":17444:17447   */\n      dup3\n        /* \"#utility.yul\":17435:17441   */\n      dup5\n        /* \"#utility.yul\":17356:17448   */\n      tag_117\n      jump\t// in\n    tag_321:\n        /* \"#utility.yul\":17349:17448   */\n      swap2\n      pop\n        /* \"#utility.yul\":17465:17468   */\n      dup2\n        /* \"#utility.yul\":17458:17468   */\n      swap1\n      pop\n        /* \"#utility.yul\":17205:17474   */\n      swap3\n      swap2\n      pop\n      pop\n      jump\t// out\n\n    auxdata: 0xa26469706673582212207141368db3cdf802f74e7364418434948c783e19ac279cf632525eda5adf086e64736f6c634300081a0033\n}\n",
				"bytecode": {
					"linkReferences": {},
					"object": "6080604052348015600e575f80fd5b50610e388061001c5f395ff3fe608060405234801561000f575f80fd5b5060043610610055575f3560e01c80631ab915171461005957806391329493146100755780639d32c18614610093578063f25d75e7146100c3578063fb709d2e146100df575b5f80fd5b610073600480360381019061006e9190610641565b610113565b005b61007d610256565b60405161008a91906106b3565b60405180910390f35b6100ad60048036038101906100a891906106cc565b61025b565b6040516100ba919061072b565b60405180910390f35b6100dd60048036038101906100d8919061076e565b610321565b005b6100f960048036038101906100f491906107c8565b6103b7565b60405161010a95949392919061087c565b60405180910390f35b5f8081548092919061012490610901565b91905055506040518060a001604052808381526020018273ffffffffffffffffffffffffffffffffffffffff1681526020015f815260200161271081526020016001151581525060015f805481526020019081526020015f205f820151815f0190816101909190610b42565b506020820151816001015f6101000a81548173ffffffffffffffffffffffffffffffffffffffff021916908373ffffffffffffffffffffffffffffffffffffffff16021790555060408201518160020155606082015181600301556080820151816004015f6101000a81548160ff0219169083151502179055509050507f9738ee50ef49bc3ba8025ef429ffc26a3c6427e51abca46e5ea80429f1c17b4b5f5483835f612710600160405161024a96959493929190610c83565b60405180910390a15050565b5f5481565b5f80600190505b60015f546102709190610ce9565b8110156102f757826040516020016102889190610d56565b6040516020818303038152906040528051906020012060015f8381526020019081526020015f205f016040516020016102c19190610dec565b60405160208183030381529060405280519060200120036102ea575f819050809250505061031c565b8080600101915050610262565b507fffffffffffffffffffffffffffffffffffffffffffffffffffffffffffffffff90505b919050565b5f61032b8361025b565b90507fffffffffffffffffffffffffffffffffffffffffffffffffffffffffffffffff8103610358575f80fd5b5f60015f8381526020019081526020015f20905082816002015f82825461037f9190610ce9565b9250508190555080600301548160020154106103b1575f816004015f6101000a81548160ff0219169083151502179055505b50505050565b6001602052805f5260405f205f91509050805f0180546103d690610975565b80601f016020809104026020016040519081016040528092919081815260200182805461040290610975565b801561044d5780601f106104245761010080835404028352916020019161044d565b820191905f5260205f20905b81548152906001019060200180831161043057829003601f168201915b505050505090806001015f9054906101000a900473ffffffffffffffffffffffffffffffffffffffff1690806002015490806003015490806004015f9054906101000a900460ff16905085565b5f604051905090565b5f80fd5b5f80fd5b5f80fd5b5f80fd5b5f601f19601f8301169050919050565b7f4e487b71000000000000000000000000000000000000000000000000000000005f52604160045260245ffd5b6104f9826104b3565b810181811067ffffffffffffffff82111715610518576105176104c3565b5b80604052505050565b5f61052a61049a565b905061053682826104f0565b919050565b5f67ffffffffffffffff821115610555576105546104c3565b5b61055e826104b3565b9050602081019050919050565b828183375f83830152505050565b5f61058b6105868461053b565b610521565b9050828152602081018484840111156105a7576105a66104af565b5b6105b284828561056b565b509392505050565b5f82601f8301126105ce576105cd6104ab565b5b81356105de848260208601610579565b91505092915050565b5f73ffffffffffffffffffffffffffffffffffffffff82169050919050565b5f610610826105e7565b9050919050565b61062081610606565b811461062a575f80fd5b50565b5f8135905061063b81610617565b92915050565b5f8060408385031215610657576106566104a3565b5b5f83013567ffffffffffffffff811115610674576106736104a7565b5b610680858286016105ba565b92505060206106918582860161062d565b9150509250929050565b5f819050919050565b6106ad8161069b565b82525050565b5f6020820190506106c65f8301846106a4565b92915050565b5f602082840312156106e1576106e06104a3565b5b5f82013567ffffffffffffffff8111156106fe576106fd6104a7565b5b61070a848285016105ba565b91505092915050565b5f819050919050565b61072581610713565b82525050565b5f60208201905061073e5f83018461071c565b92915050565b61074d8161069b565b8114610757575f80fd5b50565b5f8135905061076881610744565b92915050565b5f8060408385031215610784576107836104a3565b5b5f83013567ffffffffffffffff8111156107a1576107a06104a7565b5b6107ad858286016105ba565b92505060206107be8582860161075a565b9150509250929050565b5f602082840312156107dd576107dc6104a3565b5b5f6107ea8482850161075a565b91505092915050565b5f81519050919050565b5f82825260208201905092915050565b8281835e5f83830152505050565b5f610825826107f3565b61082f81856107fd565b935061083f81856020860161080d565b610848816104b3565b840191505092915050565b61085c81610606565b82525050565b5f8115159050919050565b61087681610862565b82525050565b5f60a0820190508181035f830152610894818861081b565b90506108a36020830187610853565b6108b060408301866106a4565b6108bd60608301856106a4565b6108ca608083018461086d565b9695505050505050565b7f4e487b71000000000000000000000000000000000000000000000000000000005f52601160045260245ffd5b5f61090b8261069b565b91507fffffffffffffffffffffffffffffffffffffffffffffffffffffffffffffffff820361093d5761093c6108d4565b5b600182019050919050565b7f4e487b71000000000000000000000000000000000000000000000000000000005f52602260045260245ffd5b5f600282049050600182168061098c57607f821691505b60208210810361099f5761099e610948565b5b50919050565b5f819050815f5260205f209050919050565b5f6020601f8301049050919050565b5f82821b905092915050565b5f60088302610a017fffffffffffffffffffffffffffffffffffffffffffffffffffffffffffffffff826109c6565b610a0b86836109c6565b95508019841693508086168417925050509392505050565b5f819050919050565b5f610a46610a41610a3c8461069b565b610a23565b61069b565b9050919050565b5f819050919050565b610a5f83610a2c565b610a73610a6b82610a4d565b8484546109d2565b825550505050565b5f90565b610a87610a7b565b610a92818484610a56565b505050565b5b81811015610ab557610aaa5f82610a7f565b600181019050610a98565b5050565b601f821115610afa57610acb816109a5565b610ad4846109b7565b81016020851015610ae3578190505b610af7610aef856109b7565b830182610a97565b50505b505050565b5f82821c905092915050565b5f610b1a5f1984600802610aff565b1980831691505092915050565b5f610b328383610b0b565b9150826002028217905092915050565b610b4b826107f3565b67ffffffffffffffff811115610b6457610b636104c3565b5b610b6e8254610975565b610b79828285610ab9565b5f60209050601f831160018114610baa575f8415610b98578287015190505b610ba28582610b27565b865550610c09565b601f198416610bb8866109a5565b5f5b82811015610bdf57848901518255600182019150602085019450602081019050610bba565b86831015610bfc5784890151610bf8601f891682610b0b565b8355505b6001600288020188555050505b505050505050565b5f819050919050565b5f610c34610c2f610c2a84610c11565b610a23565b61069b565b9050919050565b610c4481610c1a565b82525050565b5f819050919050565b5f610c6d610c68610c6384610c4a565b610a23565b61069b565b9050919050565b610c7d81610c53565b82525050565b5f60c082019050610c965f8301896106a4565b8181036020830152610ca8818861081b565b9050610cb76040830187610853565b610cc46060830186610c3b565b610cd16080830185610c74565b610cde60a083018461086d565b979650505050505050565b5f610cf38261069b565b9150610cfe8361069b565b9250828201905080821115610d1657610d156108d4565b5b92915050565b5f81905092915050565b5f610d30826107f3565b610d3a8185610d1c565b9350610d4a81856020860161080d565b80840191505092915050565b5f610d618284610d26565b915081905092915050565b5f8154610d7881610975565b610d828186610d1c565b9450600182165f8114610d9c5760018114610db157610de3565b60ff1983168652811515820286019350610de3565b610dba856109a5565b5f5b83811015610ddb57815481890152600182019150602081019050610dbc565b838801955050505b50505092915050565b5f610df78284610d6c565b91508190509291505056fea26469706673582212207141368db3cdf802f74e7364418434948c783e19ac279cf632525eda5adf086e64736f6c634300081a0033",
					"opcodes": "PUSH1 0x80 PUSH1 0x40 MSTORE CALLVALUE DUP1 ISZERO PUSH1 0xE JUMPI PUSH0 DUP1 REVERT JUMPDEST POP PUSH2 0xE38 DUP1 PUSH2 0x1C PUSH0 CODECOPY PUSH0 RETURN INVALID PUSH1 0x80 PUSH1 0x40 MSTORE CALLVALUE DUP1 ISZERO PUSH2 0xF JUMPI PUSH0 DUP1 REVERT JUMPDEST POP PUSH1 0x4 CALLDATASIZE LT PUSH2 0x55 JUMPI PUSH0 CALLDATALOAD PUSH1 0xE0 SHR DUP1 PUSH4 0x1AB91517 EQ PUSH2 0x59 JUMPI DUP1 PUSH4 0x91329493 EQ PUSH2 0x75 JUMPI DUP1 PUSH4 0x9D32C186 EQ PUSH2 0x93 JUMPI DUP1 PUSH4 0xF25D75E7 EQ PUSH2 0xC3 JUMPI DUP1 PUSH4 0xFB709D2E EQ PUSH2 0xDF JUMPI JUMPDEST PUSH0 DUP1 REVERT JUMPDEST PUSH2 0x73 PUSH1 0x4 DUP1 CALLDATASIZE SUB DUP2 ADD SWAP1 PUSH2 0x6E SWAP2 SWAP1 PUSH2 0x641 JUMP JUMPDEST PUSH2 0x113 JUMP JUMPDEST STOP JUMPDEST PUSH2 0x7D PUSH2 0x256 JUMP JUMPDEST PUSH1 0x40 MLOAD PUSH2 0x8A SWAP2 SWAP1 PUSH2 0x6B3 JUMP JUMPDEST PUSH1 0x40 MLOAD DUP1 SWAP2 SUB SWAP1 RETURN JUMPDEST PUSH2 0xAD PUSH1 0x4 DUP1 CALLDATASIZE SUB DUP2 ADD SWAP1 PUSH2 0xA8 SWAP2 SWAP1 PUSH2 0x6CC JUMP JUMPDEST PUSH2 0x25B JUMP JUMPDEST PUSH1 0x40 MLOAD PUSH2 0xBA SWAP2 SWAP1 PUSH2 0x72B JUMP JUMPDEST PUSH1 0x40 MLOAD DUP1 SWAP2 SUB SWAP1 RETURN JUMPDEST PUSH2 0xDD PUSH1 0x4 DUP1 CALLDATASIZE SUB DUP2 ADD SWAP1 PUSH2 0xD8 SWAP2 SWAP1 PUSH2 0x76E JUMP JUMPDEST PUSH2 0x321 JUMP JUMPDEST STOP JUMPDEST PUSH2 0xF9 PUSH1 0x4 DUP1 CALLDATASIZE SUB DUP2 ADD SWAP1 PUSH2 0xF4 SWAP2 SWAP1 PUSH2 0x7C8 JUMP JUMPDEST PUSH2 0x3B7 JUMP JUMPDEST PUSH1 0x40 MLOAD PUSH2 0x10A SWAP6 SWAP5 SWAP4 SWAP3 SWAP2 SWAP1 PUSH2 0x87C JUMP JUMPDEST PUSH1 0x40 MLOAD DUP1 SWAP2 SUB SWAP1 RETURN JUMPDEST PUSH0 DUP1 DUP2 SLOAD DUP1 SWAP3 SWAP2 SWAP1 PUSH2 0x124 SWAP1 PUSH2 0x901 JUMP JUMPDEST SWAP2 SWAP1 POP SSTORE POP PUSH1 0x40 MLOAD DUP1 PUSH1 0xA0 ADD PUSH1 0x40 MSTORE DUP1 DUP4 DUP2 MSTORE PUSH1 0x20 ADD DUP3 PUSH20 0xFFFFFFFFFFFFFFFFFFFFFFFFFFFFFFFFFFFFFFFF AND DUP2 MSTORE PUSH1 0x20 ADD PUSH0 DUP2 MSTORE PUSH1 0x20 ADD PUSH2 0x2710 DUP2 MSTORE PUSH1 0x20 ADD PUSH1 0x1 ISZERO ISZERO DUP2 MSTORE POP PUSH1 0x1 PUSH0 DUP1 SLOAD DUP2 MSTORE PUSH1 0x20 ADD SWAP1 DUP2 MSTORE PUSH1 0x20 ADD PUSH0 KECCAK256 PUSH0 DUP3 ADD MLOAD DUP2 PUSH0 ADD SWAP1 DUP2 PUSH2 0x190 SWAP2 SWAP1 PUSH2 0xB42 JUMP JUMPDEST POP PUSH1 0x20 DUP3 ADD MLOAD DUP2 PUSH1 0x1 ADD PUSH0 PUSH2 0x100 EXP DUP2 SLOAD DUP2 PUSH20 0xFFFFFFFFFFFFFFFFFFFFFFFFFFFFFFFFFFFFFFFF MUL NOT AND SWAP1 DUP4 PUSH20 0xFFFFFFFFFFFFFFFFFFFFFFFFFFFFFFFFFFFFFFFF AND MUL OR SWAP1 SSTORE POP PUSH1 0x40 DUP3 ADD MLOAD DUP2 PUSH1 0x2 ADD SSTORE PUSH1 0x60 DUP3 ADD MLOAD DUP2 PUSH1 0x3 ADD SSTORE PUSH1 0x80 DUP3 ADD MLOAD DUP2 PUSH1 0x4 ADD PUSH0 PUSH2 0x100 EXP DUP2 SLOAD DUP2 PUSH1 0xFF MUL NOT AND SWAP1 DUP4 ISZERO ISZERO MUL OR SWAP1 SSTORE POP SWAP1 POP POP PUSH32 0x9738EE50EF49BC3BA8025EF429FFC26A3C6427E51ABCA46E5EA80429F1C17B4B PUSH0 SLOAD DUP4 DUP4 PUSH0 PUSH2 0x2710 PUSH1 0x1 PUSH1 0x40 MLOAD PUSH2 0x24A SWAP7 SWAP6 SWAP5 SWAP4 SWAP3 SWAP2 SWAP1 PUSH2 0xC83 JUMP JUMPDEST PUSH1 0x40 MLOAD DUP1 SWAP2 SUB SWAP1 LOG1 POP POP JUMP JUMPDEST PUSH0 SLOAD DUP2 JUMP JUMPDEST PUSH0 DUP1 PUSH1 0x1 SWAP1 POP JUMPDEST PUSH1 0x1 PUSH0 SLOAD PUSH2 0x270 SWAP2 SWAP1 PUSH2 0xCE9 JUMP JUMPDEST DUP2 LT ISZERO PUSH2 0x2F7 JUMPI DUP3 PUSH1 0x40 MLOAD PUSH1 0x20 ADD PUSH2 0x288 SWAP2 SWAP1 PUSH2 0xD56 JUMP JUMPDEST PUSH1 0x40 MLOAD PUSH1 0x20 DUP2 DUP4 SUB SUB DUP2 MSTORE SWAP1 PUSH1 0x40 MSTORE DUP1 MLOAD SWAP1 PUSH1 0x20 ADD KECCAK256 PUSH1 0x1 PUSH0 DUP4 DUP2 MSTORE PUSH1 0x20 ADD SWAP1 DUP2 MSTORE PUSH1 0x20 ADD PUSH0 KECCAK256 PUSH0 ADD PUSH1 0x40 MLOAD PUSH1 0x20 ADD PUSH2 0x2C1 SWAP2 SWAP1 PUSH2 0xDEC JUMP JUMPDEST PUSH1 0x40 MLOAD PUSH1 0x20 DUP2 DUP4 SUB SUB DUP2 MSTORE SWAP1 PUSH1 0x40 MSTORE DUP1 MLOAD SWAP1 PUSH1 0x20 ADD KECCAK256 SUB PUSH2 0x2EA JUMPI PUSH0 DUP2 SWAP1 POP DUP1 SWAP3 POP POP POP PUSH2 0x31C JUMP JUMPDEST DUP1 DUP1 PUSH1 0x1 ADD SWAP2 POP POP PUSH2 0x262 JUMP JUMPDEST POP PUSH32 0xFFFFFFFFFFFFFFFFFFFFFFFFFFFFFFFFFFFFFFFFFFFFFFFFFFFFFFFFFFFFFFFF SWAP1 POP JUMPDEST SWAP2 SWAP1 POP JUMP JUMPDEST PUSH0 PUSH2 0x32B DUP4 PUSH2 0x25B JUMP JUMPDEST SWAP1 POP PUSH32 0xFFFFFFFFFFFFFFFFFFFFFFFFFFFFFFFFFFFFFFFFFFFFFFFFFFFFFFFFFFFFFFFF DUP2 SUB PUSH2 0x358 JUMPI PUSH0 DUP1 REVERT JUMPDEST PUSH0 PUSH1 0x1 PUSH0 DUP4 DUP2 MSTORE PUSH1 0x20 ADD SWAP1 DUP2 MSTORE PUSH1 0x20 ADD PUSH0 KECCAK256 SWAP1 POP DUP3 DUP2 PUSH1 0x2 ADD PUSH0 DUP3 DUP3 SLOAD PUSH2 0x37F SWAP2 SWAP1 PUSH2 0xCE9 JUMP JUMPDEST SWAP3 POP POP DUP2 SWAP1 SSTORE POP DUP1 PUSH1 0x3 ADD SLOAD DUP2 PUSH1 0x2 ADD SLOAD LT PUSH2 0x3B1 JUMPI PUSH0 DUP2 PUSH1 0x4 ADD PUSH0 PUSH2 0x100 EXP DUP2 SLOAD DUP2 PUSH1 0xFF MUL NOT AND SWAP1 DUP4 ISZERO ISZERO MUL OR SWAP1 SSTORE POP JUMPDEST POP POP POP POP JUMP JUMPDEST PUSH1 0x1 PUSH1 0x20 MSTORE DUP1 PUSH0 MSTORE PUSH1 0x40 PUSH0 KECCAK256 PUSH0 SWAP2 POP SWAP1 POP DUP1 PUSH0 ADD DUP1 SLOAD PUSH2 0x3D6 SWAP1 PUSH2 0x975 JUMP JUMPDEST DUP1 PUSH1 0x1F ADD PUSH1 0x20 DUP1 SWAP2 DIV MUL PUSH1 0x20 ADD PUSH1 0x40 MLOAD SWAP1 DUP2 ADD PUSH1 0x40 MSTORE DUP1 SWAP3 SWAP2 SWAP1 DUP2 DUP2 MSTORE PUSH1 0x20 ADD DUP3 DUP1 SLOAD PUSH2 0x402 SWAP1 PUSH2 0x975 JUMP JUMPDEST DUP1 ISZERO PUSH2 0x44D JUMPI DUP1 PUSH1 0x1F LT PUSH2 0x424 JUMPI PUSH2 0x100 DUP1 DUP4 SLOAD DIV MUL DUP4 MSTORE SWAP2 PUSH1 0x20 ADD SWAP2 PUSH2 0x44D JUMP JUMPDEST DUP3 ADD SWAP2 SWAP1 PUSH0 MSTORE PUSH1 0x20 PUSH0 KECCAK256 SWAP1 JUMPDEST DUP2 SLOAD DUP2 MSTORE SWAP1 PUSH1 0x1 ADD SWAP1 PUSH1 0x20 ADD DUP1 DUP4 GT PUSH2 0x430 JUMPI DUP3 SWAP1 SUB PUSH1 0x1F AND DUP3 ADD SWAP2 JUMPDEST POP POP POP POP POP SWAP1 DUP1 PUSH1 0x1 ADD PUSH0 SWAP1 SLOAD SWAP1 PUSH2 0x100 EXP SWAP1 DIV PUSH20 0xFFFFFFFFFFFFFFFFFFFFFFFFFFFFFFFFFFFFFFFF AND SWAP1 DUP1 PUSH1 0x2 ADD SLOAD SWAP1 DUP1 PUSH1 0x3 ADD SLOAD SWAP1 DUP1 PUSH1 0x4 ADD PUSH0 SWAP1 SLOAD SWAP1 PUSH2 0x100 EXP SWAP1 DIV PUSH1 0xFF AND SWAP1 POP DUP6 JUMP JUMPDEST PUSH0 PUSH1 0x40 MLOAD SWAP1 POP SWAP1 JUMP JUMPDEST PUSH0 DUP1 REVERT JUMPDEST PUSH0 DUP1 REVERT JUMPDEST PUSH0 DUP1 REVERT JUMPDEST PUSH0 DUP1 REVERT JUMPDEST PUSH0 PUSH1 0x1F NOT PUSH1 0x1F DUP4 ADD AND SWAP1 POP SWAP2 SWAP1 POP JUMP JUMPDEST PUSH32 0x4E487B7100000000000000000000000000000000000000000000000000000000 PUSH0 MSTORE PUSH1 0x41 PUSH1 0x4 MSTORE PUSH1 0x24 PUSH0 REVERT JUMPDEST PUSH2 0x4F9 DUP3 PUSH2 0x4B3 JUMP JUMPDEST DUP2 ADD DUP2 DUP2 LT PUSH8 0xFFFFFFFFFFFFFFFF DUP3 GT OR ISZERO PUSH2 0x518 JUMPI PUSH2 0x517 PUSH2 0x4C3 JUMP JUMPDEST JUMPDEST DUP1 PUSH1 0x40 MSTORE POP POP POP JUMP JUMPDEST PUSH0 PUSH2 0x52A PUSH2 0x49A JUMP JUMPDEST SWAP1 POP PUSH2 0x536 DUP3 DUP3 PUSH2 0x4F0 JUMP JUMPDEST SWAP2 SWAP1 POP JUMP JUMPDEST PUSH0 PUSH8 0xFFFFFFFFFFFFFFFF DUP3 GT ISZERO PUSH2 0x555 JUMPI PUSH2 0x554 PUSH2 0x4C3 JUMP JUMPDEST JUMPDEST PUSH2 0x55E DUP3 PUSH2 0x4B3 JUMP JUMPDEST SWAP1 POP PUSH1 0x20 DUP2 ADD SWAP1 POP SWAP2 SWAP1 POP JUMP JUMPDEST DUP3 DUP2 DUP4 CALLDATACOPY PUSH0 DUP4 DUP4 ADD MSTORE POP POP POP JUMP JUMPDEST PUSH0 PUSH2 0x58B PUSH2 0x586 DUP5 PUSH2 0x53B JUMP JUMPDEST PUSH2 0x521 JUMP JUMPDEST SWAP1 POP DUP3 DUP2 MSTORE PUSH1 0x20 DUP2 ADD DUP5 DUP5 DUP5 ADD GT ISZERO PUSH2 0x5A7 JUMPI PUSH2 0x5A6 PUSH2 0x4AF JUMP JUMPDEST JUMPDEST PUSH2 0x5B2 DUP5 DUP3 DUP6 PUSH2 0x56B JUMP JUMPDEST POP SWAP4 SWAP3 POP POP POP JUMP JUMPDEST PUSH0 DUP3 PUSH1 0x1F DUP4 ADD SLT PUSH2 0x5CE JUMPI PUSH2 0x5CD PUSH2 0x4AB JUMP JUMPDEST JUMPDEST DUP2 CALLDATALOAD PUSH2 0x5DE DUP5 DUP3 PUSH1 0x20 DUP7 ADD PUSH2 0x579 JUMP JUMPDEST SWAP2 POP POP SWAP3 SWAP2 POP POP JUMP JUMPDEST PUSH0 PUSH20 0xFFFFFFFFFFFFFFFFFFFFFFFFFFFFFFFFFFFFFFFF DUP3 AND SWAP1 POP SWAP2 SWAP1 POP JUMP JUMPDEST PUSH0 PUSH2 0x610 DUP3 PUSH2 0x5E7 JUMP JUMPDEST SWAP1 POP SWAP2 SWAP1 POP JUMP JUMPDEST PUSH2 0x620 DUP2 PUSH2 0x606 JUMP JUMPDEST DUP2 EQ PUSH2 0x62A JUMPI PUSH0 DUP1 REVERT JUMPDEST POP JUMP JUMPDEST PUSH0 DUP2 CALLDATALOAD SWAP1 POP PUSH2 0x63B DUP2 PUSH2 0x617 JUMP JUMPDEST SWAP3 SWAP2 POP POP JUMP JUMPDEST PUSH0 DUP1 PUSH1 0x40 DUP4 DUP6 SUB SLT ISZERO PUSH2 0x657 JUMPI PUSH2 0x656 PUSH2 0x4A3 JUMP JUMPDEST JUMPDEST PUSH0 DUP4 ADD CALLDATALOAD PUSH8 0xFFFFFFFFFFFFFFFF DUP2 GT ISZERO PUSH2 0x674 JUMPI PUSH2 0x673 PUSH2 0x4A7 JUMP JUMPDEST JUMPDEST PUSH2 0x680 DUP6 DUP3 DUP7 ADD PUSH2 0x5BA JUMP JUMPDEST SWAP3 POP POP PUSH1 0x20 PUSH2 0x691 DUP6 DUP3 DUP7 ADD PUSH2 0x62D JUMP JUMPDEST SWAP2 POP POP SWAP3 POP SWAP3 SWAP1 POP JUMP JUMPDEST PUSH0 DUP2 SWAP1 POP SWAP2 SWAP1 POP JUMP JUMPDEST PUSH2 0x6AD DUP2 PUSH2 0x69B JUMP JUMPDEST DUP3 MSTORE POP POP JUMP JUMPDEST PUSH0 PUSH1 0x20 DUP3 ADD SWAP1 POP PUSH2 0x6C6 PUSH0 DUP4 ADD DUP5 PUSH2 0x6A4 JUMP JUMPDEST SWAP3 SWAP2 POP POP JUMP JUMPDEST PUSH0 PUSH1 0x20 DUP3 DUP5 SUB SLT ISZERO PUSH2 0x6E1 JUMPI PUSH2 0x6E0 PUSH2 0x4A3 JUMP JUMPDEST JUMPDEST PUSH0 DUP3 ADD CALLDATALOAD PUSH8 0xFFFFFFFFFFFFFFFF DUP2 GT ISZERO PUSH2 0x6FE JUMPI PUSH2 0x6FD PUSH2 0x4A7 JUMP JUMPDEST JUMPDEST PUSH2 0x70A DUP5 DUP3 DUP6 ADD PUSH2 0x5BA JUMP JUMPDEST SWAP2 POP POP SWAP3 SWAP2 POP POP JUMP JUMPDEST PUSH0 DUP2 SWAP1 POP SWAP2 SWAP1 POP JUMP JUMPDEST PUSH2 0x725 DUP2 PUSH2 0x713 JUMP JUMPDEST DUP3 MSTORE POP POP JUMP JUMPDEST PUSH0 PUSH1 0x20 DUP3 ADD SWAP1 POP PUSH2 0x73E PUSH0 DUP4 ADD DUP5 PUSH2 0x71C JUMP JUMPDEST SWAP3 SWAP2 POP POP JUMP JUMPDEST PUSH2 0x74D DUP2 PUSH2 0x69B JUMP JUMPDEST DUP2 EQ PUSH2 0x757 JUMPI PUSH0 DUP1 REVERT JUMPDEST POP JUMP JUMPDEST PUSH0 DUP2 CALLDATALOAD SWAP1 POP PUSH2 0x768 DUP2 PUSH2 0x744 JUMP JUMPDEST SWAP3 SWAP2 POP POP JUMP JUMPDEST PUSH0 DUP1 PUSH1 0x40 DUP4 DUP6 SUB SLT ISZERO PUSH2 0x784 JUMPI PUSH2 0x783 PUSH2 0x4A3 JUMP JUMPDEST JUMPDEST PUSH0 DUP4 ADD CALLDATALOAD PUSH8 0xFFFFFFFFFFFFFFFF DUP2 GT ISZERO PUSH2 0x7A1 JUMPI PUSH2 0x7A0 PUSH2 0x4A7 JUMP JUMPDEST JUMPDEST PUSH2 0x7AD DUP6 DUP3 DUP7 ADD PUSH2 0x5BA JUMP JUMPDEST SWAP3 POP POP PUSH1 0x20 PUSH2 0x7BE DUP6 DUP3 DUP7 ADD PUSH2 0x75A JUMP JUMPDEST SWAP2 POP POP SWAP3 POP SWAP3 SWAP1 POP JUMP JUMPDEST PUSH0 PUSH1 0x20 DUP3 DUP5 SUB SLT ISZERO PUSH2 0x7DD JUMPI PUSH2 0x7DC PUSH2 0x4A3 JUMP JUMPDEST JUMPDEST PUSH0 PUSH2 0x7EA DUP5 DUP3 DUP6 ADD PUSH2 0x75A JUMP JUMPDEST SWAP2 POP POP SWAP3 SWAP2 POP POP JUMP JUMPDEST PUSH0 DUP2 MLOAD SWAP1 POP SWAP2 SWAP1 POP JUMP JUMPDEST PUSH0 DUP3 DUP3 MSTORE PUSH1 0x20 DUP3 ADD SWAP1 POP SWAP3 SWAP2 POP POP JUMP JUMPDEST DUP3 DUP2 DUP4 MCOPY PUSH0 DUP4 DUP4 ADD MSTORE POP POP POP JUMP JUMPDEST PUSH0 PUSH2 0x825 DUP3 PUSH2 0x7F3 JUMP JUMPDEST PUSH2 0x82F DUP2 DUP6 PUSH2 0x7FD JUMP JUMPDEST SWAP4 POP PUSH2 0x83F DUP2 DUP6 PUSH1 0x20 DUP7 ADD PUSH2 0x80D JUMP JUMPDEST PUSH2 0x848 DUP2 PUSH2 0x4B3 JUMP JUMPDEST DUP5 ADD SWAP2 POP POP SWAP3 SWAP2 POP POP JUMP JUMPDEST PUSH2 0x85C DUP2 PUSH2 0x606 JUMP JUMPDEST DUP3 MSTORE POP POP JUMP JUMPDEST PUSH0 DUP2 ISZERO ISZERO SWAP1 POP SWAP2 SWAP1 POP JUMP JUMPDEST PUSH2 0x876 DUP2 PUSH2 0x862 JUMP JUMPDEST DUP3 MSTORE POP POP JUMP JUMPDEST PUSH0 PUSH1 0xA0 DUP3 ADD SWAP1 POP DUP2 DUP2 SUB PUSH0 DUP4 ADD MSTORE PUSH2 0x894 DUP2 DUP9 PUSH2 0x81B JUMP JUMPDEST SWAP1 POP PUSH2 0x8A3 PUSH1 0x20 DUP4 ADD DUP8 PUSH2 0x853 JUMP JUMPDEST PUSH2 0x8B0 PUSH1 0x40 DUP4 ADD DUP7 PUSH2 0x6A4 JUMP JUMPDEST PUSH2 0x8BD PUSH1 0x60 DUP4 ADD DUP6 PUSH2 0x6A4 JUMP JUMPDEST PUSH2 0x8CA PUSH1 0x80 DUP4 ADD DUP5 PUSH2 0x86D JUMP JUMPDEST SWAP7 SWAP6 POP POP POP POP POP POP JUMP JUMPDEST PUSH32 0x4E487B7100000000000000000000000000000000000000000000000000000000 PUSH0 MSTORE PUSH1 0x11 PUSH1 0x4 MSTORE PUSH1 0x24 PUSH0 REVERT JUMPDEST PUSH0 PUSH2 0x90B DUP3 PUSH2 0x69B JUMP JUMPDEST SWAP2 POP PUSH32 0xFFFFFFFFFFFFFFFFFFFFFFFFFFFFFFFFFFFFFFFFFFFFFFFFFFFFFFFFFFFFFFFF DUP3 SUB PUSH2 0x93D JUMPI PUSH2 0x93C PUSH2 0x8D4 JUMP JUMPDEST JUMPDEST PUSH1 0x1 DUP3 ADD SWAP1 POP SWAP2 SWAP1 POP JUMP JUMPDEST PUSH32 0x4E487B7100000000000000000000000000000000000000000000000000000000 PUSH0 MSTORE PUSH1 0x22 PUSH1 0x4 MSTORE PUSH1 0x24 PUSH0 REVERT JUMPDEST PUSH0 PUSH1 0x2 DUP3 DIV SWAP1 POP PUSH1 0x1 DUP3 AND DUP1 PUSH2 0x98C JUMPI PUSH1 0x7F DUP3 AND SWAP2 POP JUMPDEST PUSH1 0x20 DUP3 LT DUP2 SUB PUSH2 0x99F JUMPI PUSH2 0x99E PUSH2 0x948 JUMP JUMPDEST JUMPDEST POP SWAP2 SWAP1 POP JUMP JUMPDEST PUSH0 DUP2 SWAP1 POP DUP2 PUSH0 MSTORE PUSH1 0x20 PUSH0 KECCAK256 SWAP1 POP SWAP2 SWAP1 POP JUMP JUMPDEST PUSH0 PUSH1 0x20 PUSH1 0x1F DUP4 ADD DIV SWAP1 POP SWAP2 SWAP1 POP JUMP JUMPDEST PUSH0 DUP3 DUP3 SHL SWAP1 POP SWAP3 SWAP2 POP POP JUMP JUMPDEST PUSH0 PUSH1 0x8 DUP4 MUL PUSH2 0xA01 PUSH32 0xFFFFFFFFFFFFFFFFFFFFFFFFFFFFFFFFFFFFFFFFFFFFFFFFFFFFFFFFFFFFFFFF DUP3 PUSH2 0x9C6 JUMP JUMPDEST PUSH2 0xA0B DUP7 DUP4 PUSH2 0x9C6 JUMP JUMPDEST SWAP6 POP DUP1 NOT DUP5 AND SWAP4 POP DUP1 DUP7 AND DUP5 OR SWAP3 POP POP POP SWAP4 SWAP3 POP POP POP JUMP JUMPDEST PUSH0 DUP2 SWAP1 POP SWAP2 SWAP1 POP JUMP JUMPDEST PUSH0 PUSH2 0xA46 PUSH2 0xA41 PUSH2 0xA3C DUP5 PUSH2 0x69B JUMP JUMPDEST PUSH2 0xA23 JUMP JUMPDEST PUSH2 0x69B JUMP JUMPDEST SWAP1 POP SWAP2 SWAP1 POP JUMP JUMPDEST PUSH0 DUP2 SWAP1 POP SWAP2 SWAP1 POP JUMP JUMPDEST PUSH2 0xA5F DUP4 PUSH2 0xA2C JUMP JUMPDEST PUSH2 0xA73 PUSH2 0xA6B DUP3 PUSH2 0xA4D JUMP JUMPDEST DUP5 DUP5 SLOAD PUSH2 0x9D2 JUMP JUMPDEST DUP3 SSTORE POP POP POP POP JUMP JUMPDEST PUSH0 SWAP1 JUMP JUMPDEST PUSH2 0xA87 PUSH2 0xA7B JUMP JUMPDEST PUSH2 0xA92 DUP2 DUP5 DUP5 PUSH2 0xA56 JUMP JUMPDEST POP POP POP JUMP JUMPDEST JUMPDEST DUP2 DUP2 LT ISZERO PUSH2 0xAB5 JUMPI PUSH2 0xAAA PUSH0 DUP3 PUSH2 0xA7F JUMP JUMPDEST PUSH1 0x1 DUP2 ADD SWAP1 POP PUSH2 0xA98 JUMP JUMPDEST POP POP JUMP JUMPDEST PUSH1 0x1F DUP3 GT ISZERO PUSH2 0xAFA JUMPI PUSH2 0xACB DUP2 PUSH2 0x9A5 JUMP JUMPDEST PUSH2 0xAD4 DUP5 PUSH2 0x9B7 JUMP JUMPDEST DUP2 ADD PUSH1 0x20 DUP6 LT ISZERO PUSH2 0xAE3 JUMPI DUP2 SWAP1 POP JUMPDEST PUSH2 0xAF7 PUSH2 0xAEF DUP6 PUSH2 0x9B7 JUMP JUMPDEST DUP4 ADD DUP3 PUSH2 0xA97 JUMP JUMPDEST POP POP JUMPDEST POP POP POP JUMP JUMPDEST PUSH0 DUP3 DUP3 SHR SWAP1 POP SWAP3 SWAP2 POP POP JUMP JUMPDEST PUSH0 PUSH2 0xB1A PUSH0 NOT DUP5 PUSH1 0x8 MUL PUSH2 0xAFF JUMP JUMPDEST NOT DUP1 DUP4 AND SWAP2 POP POP SWAP3 SWAP2 POP POP JUMP JUMPDEST PUSH0 PUSH2 0xB32 DUP4 DUP4 PUSH2 0xB0B JUMP JUMPDEST SWAP2 POP DUP3 PUSH1 0x2 MUL DUP3 OR SWAP1 POP SWAP3 SWAP2 POP POP JUMP JUMPDEST PUSH2 0xB4B DUP3 PUSH2 0x7F3 JUMP JUMPDEST PUSH8 0xFFFFFFFFFFFFFFFF DUP2 GT ISZERO PUSH2 0xB64 JUMPI PUSH2 0xB63 PUSH2 0x4C3 JUMP JUMPDEST JUMPDEST PUSH2 0xB6E DUP3 SLOAD PUSH2 0x975 JUMP JUMPDEST PUSH2 0xB79 DUP3 DUP3 DUP6 PUSH2 0xAB9 JUMP JUMPDEST PUSH0 PUSH1 0x20 SWAP1 POP PUSH1 0x1F DUP4 GT PUSH1 0x1 DUP2 EQ PUSH2 0xBAA JUMPI PUSH0 DUP5 ISZERO PUSH2 0xB98 JUMPI DUP3 DUP8 ADD MLOAD SWAP1 POP JUMPDEST PUSH2 0xBA2 DUP6 DUP3 PUSH2 0xB27 JUMP JUMPDEST DUP7 SSTORE POP PUSH2 0xC09 JUMP JUMPDEST PUSH1 0x1F NOT DUP5 AND PUSH2 0xBB8 DUP7 PUSH2 0x9A5 JUMP JUMPDEST PUSH0 JUMPDEST DUP3 DUP2 LT ISZERO PUSH2 0xBDF JUMPI DUP5 DUP10 ADD MLOAD DUP3 SSTORE PUSH1 0x1 DUP3 ADD SWAP2 POP PUSH1 0x20 DUP6 ADD SWAP5 POP PUSH1 0x20 DUP2 ADD SWAP1 POP PUSH2 0xBBA JUMP JUMPDEST DUP7 DUP4 LT ISZERO PUSH2 0xBFC JUMPI DUP5 DUP10 ADD MLOAD PUSH2 0xBF8 PUSH1 0x1F DUP10 AND DUP3 PUSH2 0xB0B JUMP JUMPDEST DUP4 SSTORE POP JUMPDEST PUSH1 0x1 PUSH1 0x2 DUP9 MUL ADD DUP9 SSTORE POP POP POP JUMPDEST POP POP POP POP POP POP JUMP JUMPDEST PUSH0 DUP2 SWAP1 POP SWAP2 SWAP1 POP JUMP JUMPDEST PUSH0 PUSH2 0xC34 PUSH2 0xC2F PUSH2 0xC2A DUP5 PUSH2 0xC11 JUMP JUMPDEST PUSH2 0xA23 JUMP JUMPDEST PUSH2 0x69B JUMP JUMPDEST SWAP1 POP SWAP2 SWAP1 POP JUMP JUMPDEST PUSH2 0xC44 DUP2 PUSH2 0xC1A JUMP JUMPDEST DUP3 MSTORE POP POP JUMP JUMPDEST PUSH0 DUP2 SWAP1 POP SWAP2 SWAP1 POP JUMP JUMPDEST PUSH0 PUSH2 0xC6D PUSH2 0xC68 PUSH2 0xC63 DUP5 PUSH2 0xC4A JUMP JUMPDEST PUSH2 0xA23 JUMP JUMPDEST PUSH2 0x69B JUMP JUMPDEST SWAP1 POP SWAP2 SWAP1 POP JUMP JUMPDEST PUSH2 0xC7D DUP2 PUSH2 0xC53 JUMP JUMPDEST DUP3 MSTORE POP POP JUMP JUMPDEST PUSH0 PUSH1 0xC0 DUP3 ADD SWAP1 POP PUSH2 0xC96 PUSH0 DUP4 ADD DUP10 PUSH2 0x6A4 JUMP JUMPDEST DUP2 DUP2 SUB PUSH1 0x20 DUP4 ADD MSTORE PUSH2 0xCA8 DUP2 DUP9 PUSH2 0x81B JUMP JUMPDEST SWAP1 POP PUSH2 0xCB7 PUSH1 0x40 DUP4 ADD DUP8 PUSH2 0x853 JUMP JUMPDEST PUSH2 0xCC4 PUSH1 0x60 DUP4 ADD DUP7 PUSH2 0xC3B JUMP JUMPDEST PUSH2 0xCD1 PUSH1 0x80 DUP4 ADD DUP6 PUSH2 0xC74 JUMP JUMPDEST PUSH2 0xCDE PUSH1 0xA0 DUP4 ADD DUP5 PUSH2 0x86D JUMP JUMPDEST SWAP8 SWAP7 POP POP POP POP POP POP POP JUMP JUMPDEST PUSH0 PUSH2 0xCF3 DUP3 PUSH2 0x69B JUMP JUMPDEST SWAP2 POP PUSH2 0xCFE DUP4 PUSH2 0x69B JUMP JUMPDEST SWAP3 POP DUP3 DUP3 ADD SWAP1 POP DUP1 DUP3 GT ISZERO PUSH2 0xD16 JUMPI PUSH2 0xD15 PUSH2 0x8D4 JUMP JUMPDEST JUMPDEST SWAP3 SWAP2 POP POP JUMP JUMPDEST PUSH0 DUP2 SWAP1 POP SWAP3 SWAP2 POP POP JUMP JUMPDEST PUSH0 PUSH2 0xD30 DUP3 PUSH2 0x7F3 JUMP JUMPDEST PUSH2 0xD3A DUP2 DUP6 PUSH2 0xD1C JUMP JUMPDEST SWAP4 POP PUSH2 0xD4A DUP2 DUP6 PUSH1 0x20 DUP7 ADD PUSH2 0x80D JUMP JUMPDEST DUP1 DUP5 ADD SWAP2 POP POP SWAP3 SWAP2 POP POP JUMP JUMPDEST PUSH0 PUSH2 0xD61 DUP3 DUP5 PUSH2 0xD26 JUMP JUMPDEST SWAP2 POP DUP2 SWAP1 POP SWAP3 SWAP2 POP POP JUMP JUMPDEST PUSH0 DUP2 SLOAD PUSH2 0xD78 DUP2 PUSH2 0x975 JUMP JUMPDEST PUSH2 0xD82 DUP2 DUP7 PUSH2 0xD1C JUMP JUMPDEST SWAP5 POP PUSH1 0x1 DUP3 AND PUSH0 DUP2 EQ PUSH2 0xD9C JUMPI PUSH1 0x1 DUP2 EQ PUSH2 0xDB1 JUMPI PUSH2 0xDE3 JUMP JUMPDEST PUSH1 0xFF NOT DUP4 AND DUP7 MSTORE DUP2 ISZERO ISZERO DUP3 MUL DUP7 ADD SWAP4 POP PUSH2 0xDE3 JUMP JUMPDEST PUSH2 0xDBA DUP6 PUSH2 0x9A5 JUMP JUMPDEST PUSH0 JUMPDEST DUP4 DUP2 LT ISZERO PUSH2 0xDDB JUMPI DUP2 SLOAD DUP2 DUP10 ADD MSTORE PUSH1 0x1 DUP3 ADD SWAP2 POP PUSH1 0x20 DUP2 ADD SWAP1 POP PUSH2 0xDBC JUMP JUMPDEST DUP4 DUP9 ADD SWAP6 POP POP POP JUMPDEST POP POP POP SWAP3 SWAP2 POP POP JUMP JUMPDEST PUSH0 PUSH2 0xDF7 DUP3 DUP5 PUSH2 0xD6C JUMP JUMPDEST SWAP2 POP DUP2 SWAP1 POP SWAP3 SWAP2 POP POP JUMP INVALID LOG2 PUSH5 0x6970667358 0x22 SLT KECCAK256 PUSH18 0x41368DB3CDF802F74E7364418434948C783E NOT 0xAC 0x27 SWAP13 0xF6 ORIGIN MSTORE MCOPY 0xDA GAS 0xDF ADDMOD PUSH15 0x64736F6C634300081A003300000000 "
				},
				"gasEstimates": {
					"creation": {
						"codeDepositCost": "728000",
						"executionCost": "758",
						"totalCost": "728758"
					},
					"external": {
						"addCharity(string,address)": "infinite",
						"charities(uint256)": "infinite",
						"charityCount()": "2424",
						"charityExists(string)": "infinite",
						"contributeFunds(string,uint256)": "infinite"
					}
				},
				"methodIdentifiers": {
					"addCharity(string,address)": "1ab91517",
					"charities(uint256)": "fb709d2e",
					"charityCount()": "91329493",
					"charityExists(string)": "9d32c186",
					"contributeFunds(string,uint256)": "f25d75e7"
				}
			},
			"storageLayout": {
				"storage": [
					{
						"astId": 3,
						"contract": "contracts/milestone_distribution.sol:DistributionContract",
						"label": "charityCount",
						"offset": 0,
						"slot": "0",
						"type": "t_uint256"
					},
					{
						"astId": 19,
						"contract": "contracts/milestone_distribution.sol:DistributionContract",
						"label": "charities",
						"offset": 0,
						"slot": "1",
						"type": "t_mapping(t_uint256,t_struct(CharityDetails)14_storage)"
					}
				],
				"types": {
					"t_address": {
						"encoding": "inplace",
						"label": "address",
						"numberOfBytes": "20"
					},
					"t_bool": {
						"encoding": "inplace",
						"label": "bool",
						"numberOfBytes": "1"
					},
					"t_mapping(t_uint256,t_struct(CharityDetails)14_storage)": {
						"encoding": "mapping",
						"key": "t_uint256",
						"label": "mapping(uint256 => struct DistributionContract.CharityDetails)",
						"numberOfBytes": "32",
						"value": "t_struct(CharityDetails)14_storage"
					},
					"t_string_storage": {
						"encoding": "bytes",
						"label": "string",
						"numberOfBytes": "32"
					},
					"t_struct(CharityDetails)14_storage": {
						"encoding": "inplace",
						"label": "struct DistributionContract.CharityDetails",
						"members": [
							{
								"astId": 5,
								"contract": "contracts/milestone_distribution.sol:DistributionContract",
								"label": "name",
								"offset": 0,
								"slot": "0",
								"type": "t_string_storage"
							},
							{
								"astId": 7,
								"contract": "contracts/milestone_distribution.sol:DistributionContract",
								"label": "charityAddress",
								"offset": 0,
								"slot": "1",
								"type": "t_address"
							},
							{
								"astId": 9,
								"contract": "contracts/milestone_distribution.sol:DistributionContract",
								"label": "totalRaised",
								"offset": 0,
								"slot": "2",
								"type": "t_uint256"
							},
							{
								"astId": 11,
								"contract": "contracts/milestone_distribution.sol:DistributionContract",
								"label": "targetDonation",
								"offset": 0,
								"slot": "3",
								"type": "t_uint256"
							},
							{
								"astId": 13,
								"contract": "contracts/milestone_distribution.sol:DistributionContract",
								"label": "fundsLocked",
								"offset": 0,
								"slot": "4",
								"type": "t_bool"
							}
						],
						"numberOfBytes": "160"
					},
					"t_uint256": {
						"encoding": "inplace",
						"label": "uint256",
						"numberOfBytes": "32"
					}
				}
			},
			"userdoc": {
				"kind": "user",
				"methods": {},
				"version": 1
			}
		}
	}
}