{
	"data": {
		"bytecode": {
			"linkReferences": {},
			"object": "608060405234801561000f575f5ffd5b50604051610bf9380380610bf983398181016040528101906100319190610181565b8060015f6101000a81548173ffffffffffffffffffffffffffffffffffffffff021916908373ffffffffffffffffffffffffffffffffffffffff16021790555060015f9054906101000a900473ffffffffffffffffffffffffffffffffffffffff1673ffffffffffffffffffffffffffffffffffffffff16636e3b47fc6040518163ffffffff1660e01b81526004015f60405180830381865afa1580156100da573d5f5f3e3d5ffd5b505050506040513d5f823e3d601f19601f8201168201806040525081019061010291906102e8565b5f908161010f919061053f565b505061060e565b5f604051905090565b5f5ffd5b5f5ffd5b5f73ffffffffffffffffffffffffffffffffffffffff82169050919050565b5f61015082610127565b9050919050565b61016081610146565b811461016a575f5ffd5b50565b5f8151905061017b81610157565b92915050565b5f602082840312156101965761019561011f565b5b5f6101a38482850161016d565b91505092915050565b5f5ffd5b5f5ffd5b5f601f19601f8301169050919050565b7f4e487b71000000000000000000000000000000000000000000000000000000005f52604160045260245ffd5b6101fa826101b4565b810181811067ffffffffffffffff82111715610219576102186101c4565b5b80604052505050565b5f61022b610116565b905061023782826101f1565b919050565b5f67ffffffffffffffff821115610256576102556101c4565b5b61025f826101b4565b9050602081019050919050565b8281835e5f83830152505050565b5f61028c6102878461023c565b610222565b9050828152602081018484840111156102a8576102a76101b0565b5b6102b384828561026c565b509392505050565b5f82601f8301126102cf576102ce6101ac565b5b81516102df84826020860161027a565b91505092915050565b5f602082840312156102fd576102fc61011f565b5b5f82015167ffffffffffffffff81111561031a57610319610123565b5b610326848285016102bb565b91505092915050565b5f81519050919050565b7f4e487b71000000000000000000000000000000000000000000000000000000005f52602260045260245ffd5b5f600282049050600182168061037d57607f821691505b6020821081036103905761038f610339565b5b50919050565b5f819050815f5260205f209050919050565b5f6020601f8301049050919050565b5f82821b905092915050565b5f600883026103f27fffffffffffffffffffffffffffffffffffffffffffffffffffffffffffffffff826103b7565b6103fc86836103b7565b95508019841693508086168417925050509392505050565b5f819050919050565b5f819050919050565b5f61044061043b61043684610414565b61041d565b610414565b9050919050565b5f819050919050565b61045983610426565b61046d61046582610447565b8484546103c3565b825550505050565b5f5f905090565b610484610475565b61048f818484610450565b505050565b5b818110156104b2576104a75f8261047c565b600181019050610495565b5050565b601f8211156104f7576104c881610396565b6104d1846103a8565b810160208510156104e0578190505b6104f46104ec856103a8565b830182610494565b50505b505050565b5f82821c905092915050565b5f6105175f19846008026104fc565b1980831691505092915050565b5f61052f8383610508565b9150826002028217905092915050565b6105488261032f565b67ffffffffffffffff811115610561576105606101c4565b5b61056b8254610366565b6105768282856104b6565b5f60209050601f8311600181146105a7575f8415610595578287015190505b61059f8582610524565b865550610606565b601f1984166105b586610396565b5f5b828110156105dc578489015182556001820191506020850194506020810190506105b7565b868310156105f957848901516105f5601f891682610508565b8355505b6001600288020188555050505b505050505050565b6105de8061061b5f395ff3fe608060405234801561000f575f5ffd5b5060043610610029575f3560e01c8063dd308cb81461002d575b5f5ffd5b61004760048036038101906100429190610486565b61005d565b60405161005491906104fa565b60405180910390f35b5f5f60405180606001604052806040518060400160405280600281526020017f433100000000000000000000000000000000000000000000000000000000000081525081526020016040518060400160405280600281526020017f433200000000000000000000000000000000000000000000000000000000000081525081526020016040518060400160405280600281526020017f433300000000000000000000000000000000000000000000000000000000000081525081525090505f6040518060600160405280735b38da6a701c568545dcfcb03fcb875f56beddc473ffffffffffffffffffffffffffffffffffffffff1673ffffffffffffffffffffffffffffffffffffffff168152602001735b38da6a701c568545dcfcb03fcb875f56beddc473ffffffffffffffffffffffffffffffffffffffff1673ffffffffffffffffffffffffffffffffffffffff168152602001735b38da6a701c568545dcfcb03fcb875f56beddc473ffffffffffffffffffffffffffffffffffffffff1673ffffffffffffffffffffffffffffffffffffffff1681525090505f5b60038110156102d25781816003811061021757610216610513565b5b602002015173ffffffffffffffffffffffffffffffffffffffff168673ffffffffffffffffffffffffffffffffffffffff16036102c5578460405160200161025f9190610592565b6040516020818303038152906040528051906020012083826003811061028857610287610513565b5b602002015160405160200161029d9190610592565b60405160208183030381529060405280519060200120036102c457600193505050506102d9565b5b80806001019150506101fb565b505f925050505b92915050565b5f604051905090565b5f5ffd5b5f5ffd5b5f73ffffffffffffffffffffffffffffffffffffffff82169050919050565b5f610319826102f0565b9050919050565b6103298161030f565b8114610333575f5ffd5b50565b5f8135905061034481610320565b92915050565b5f5ffd5b5f5ffd5b5f601f19601f8301169050919050565b7f4e487b71000000000000000000000000000000000000000000000000000000005f52604160045260245ffd5b61039882610352565b810181811067ffffffffffffffff821117156103b7576103b6610362565b5b80604052505050565b5f6103c96102df565b90506103d5828261038f565b919050565b5f67ffffffffffffffff8211156103f4576103f3610362565b5b6103fd82610352565b9050602081019050919050565b828183375f83830152505050565b5f61042a610425846103da565b6103c0565b9050828152602081018484840111156104465761044561034e565b5b61045184828561040a565b509392505050565b5f82601f83011261046d5761046c61034a565b5b813561047d848260208601610418565b91505092915050565b5f5f6040838503121561049c5761049b6102e8565b5b5f6104a985828601610336565b925050602083013567ffffffffffffffff8111156104ca576104c96102ec565b5b6104d685828601610459565b9150509250929050565b5f8115159050919050565b6104f4816104e0565b82525050565b5f60208201905061050d5f8301846104eb565b92915050565b7f4e487b71000000000000000000000000000000000000000000000000000000005f52603260045260245ffd5b5f81519050919050565b5f81905092915050565b8281835e5f83830152505050565b5f61056c82610540565b610576818561054a565b9350610586818560208601610554565b80840191505092915050565b5f61059d8284610562565b91508190509291505056fea264697066735822122090d0e7d3ad3872be06c6771d841aae85bb4152dd1c78689c1c983ab5a639492b64736f6c634300081e0033",
			"opcodes": "PUSH1 0x80 PUSH1 0x40 MSTORE CALLVALUE DUP1 ISZERO PUSH2 0xF JUMPI PUSH0 PUSH0 REVERT JUMPDEST POP PUSH1 0x40 MLOAD PUSH2 0xBF9 CODESIZE SUB DUP1 PUSH2 0xBF9 DUP4 CODECOPY DUP2 DUP2 ADD PUSH1 0x40 MSTORE DUP2 ADD SWAP1 PUSH2 0x31 SWAP2 SWAP1 PUSH2 0x181 JUMP JUMPDEST DUP1 PUSH1 0x1 PUSH0 PUSH2 0x100 EXP DUP2 SLOAD DUP2 PUSH20 0xFFFFFFFFFFFFFFFFFFFFFFFFFFFFFFFFFFFFFFFF MUL NOT AND SWAP1 DUP4 PUSH20 0xFFFFFFFFFFFFFFFFFFFFFFFFFFFFFFFFFFFFFFFF AND MUL OR SWAP1 SSTORE POP PUSH1 0x1 PUSH0 SWAP1 SLOAD SWAP1 PUSH2 0x100 EXP SWAP1 DIV PUSH20 0xFFFFFFFFFFFFFFFFFFFFFFFFFFFFFFFFFFFFFFFF AND PUSH20 0xFFFFFFFFFFFFFFFFFFFFFFFFFFFFFFFFFFFFFFFF AND PUSH4 0x6E3B47FC PUSH1 0x40 MLOAD DUP2 PUSH4 0xFFFFFFFF AND PUSH1 0xE0 SHL DUP2 MSTORE PUSH1 0x4 ADD PUSH0 PUSH1 0x40 MLOAD DUP1 DUP4 SUB DUP2 DUP7 GAS STATICCALL ISZERO DUP1 ISZERO PUSH2 0xDA JUMPI RETURNDATASIZE PUSH0 PUSH0 RETURNDATACOPY RETURNDATASIZE PUSH0 REVERT JUMPDEST POP POP POP POP PUSH1 0x40 MLOAD RETURNDATASIZE PUSH0 DUP3 RETURNDATACOPY RETURNDATASIZE PUSH1 0x1F NOT PUSH1 0x1F DUP3 ADD AND DUP3 ADD DUP1 PUSH1 0x40 MSTORE POP DUP2 ADD SWAP1 PUSH2 0x102 SWAP2 SWAP1 PUSH2 0x2E8 JUMP JUMPDEST PUSH0 SWAP1 DUP2 PUSH2 0x10F SWAP2 SWAP1 PUSH2 0x53F JUMP JUMPDEST POP POP PUSH2 0x60E JUMP JUMPDEST PUSH0 PUSH1 0x40 MLOAD SWAP1 POP SWAP1 JUMP JUMPDEST PUSH0 PUSH0 REVERT JUMPDEST PUSH0 PUSH0 REVERT JUMPDEST PUSH0 PUSH20 0xFFFFFFFFFFFFFFFFFFFFFFFFFFFFFFFFFFFFFFFF DUP3 AND SWAP1 POP SWAP2 SWAP1 POP JUMP JUMPDEST PUSH0 PUSH2 0x150 DUP3 PUSH2 0x127 JUMP JUMPDEST SWAP1 POP SWAP2 SWAP1 POP JUMP JUMPDEST PUSH2 0x160 DUP2 PUSH2 0x146 JUMP JUMPDEST DUP2 EQ PUSH2 0x16A JUMPI PUSH0 PUSH0 REVERT JUMPDEST POP JUMP JUMPDEST PUSH0 DUP2 MLOAD SWAP1 POP PUSH2 0x17B DUP2 PUSH2 0x157 JUMP JUMPDEST SWAP3 SWAP2 POP POP JUMP JUMPDEST PUSH0 PUSH1 0x20 DUP3 DUP5 SUB SLT ISZERO PUSH2 0x196 JUMPI PUSH2 0x195 PUSH2 0x11F JUMP JUMPDEST JUMPDEST PUSH0 PUSH2 0x1A3 DUP5 DUP3 DUP6 ADD PUSH2 0x16D JUMP JUMPDEST SWAP2 POP POP SWAP3 SWAP2 POP POP JUMP JUMPDEST PUSH0 PUSH0 REVERT JUMPDEST PUSH0 PUSH0 REVERT JUMPDEST PUSH0 PUSH1 0x1F NOT PUSH1 0x1F DUP4 ADD AND SWAP1 POP SWAP2 SWAP1 POP JUMP JUMPDEST PUSH32 0x4E487B7100000000000000000000000000000000000000000000000000000000 PUSH0 MSTORE PUSH1 0x41 PUSH1 0x4 MSTORE PUSH1 0x24 PUSH0 REVERT JUMPDEST PUSH2 0x1FA DUP3 PUSH2 0x1B4 JUMP JUMPDEST DUP2 ADD DUP2 DUP2 LT PUSH8 0xFFFFFFFFFFFFFFFF DUP3 GT OR ISZERO PUSH2 0x219 JUMPI PUSH2 0x218 PUSH2 0x1C4 JUMP JUMPDEST JUMPDEST DUP1 PUSH1 0x40 MSTORE POP POP POP JUMP JUMPDEST PUSH0 PUSH2 0x22B PUSH2 0x116 JUMP JUMPDEST SWAP1 POP PUSH2 0x237 DUP3 DUP3 PUSH2 0x1F1 JUMP JUMPDEST SWAP2 SWAP1 POP JUMP JUMPDEST PUSH0 PUSH8 0xFFFFFFFFFFFFFFFF DUP3 GT ISZERO PUSH2 0x256 JUMPI PUSH2 0x255 PUSH2 0x1C4 JUMP JUMPDEST JUMPDEST PUSH2 0x25F DUP3 PUSH2 0x1B4 JUMP JUMPDEST SWAP1 POP PUSH1 0x20 DUP2 ADD SWAP1 POP SWAP2 SWAP1 POP JUMP JUMPDEST DUP3 DUP2 DUP4 MCOPY PUSH0 DUP4 DUP4 ADD MSTORE POP POP POP JUMP JUMPDEST PUSH0 PUSH2 0x28C PUSH2 0x287 DUP5 PUSH2 0x23C JUMP JUMPDEST PUSH2 0x222 JUMP JUMPDEST SWAP1 POP DUP3 DUP2 MSTORE PUSH1 0x20 DUP2 ADD DUP5 DUP5 DUP5 ADD GT ISZERO PUSH2 0x2A8 JUMPI PUSH2 0x2A7 PUSH2 0x1B0 JUMP JUMPDEST JUMPDEST PUSH2 0x2B3 DUP5 DUP3 DUP6 PUSH2 0x26C JUMP JUMPDEST POP SWAP4 SWAP3 POP POP POP JUMP JUMPDEST PUSH0 DUP3 PUSH1 0x1F DUP4 ADD SLT PUSH2 0x2CF JUMPI PUSH2 0x2CE PUSH2 0x1AC JUMP JUMPDEST JUMPDEST DUP2 MLOAD PUSH2 0x2DF DUP5 DUP3 PUSH1 0x20 DUP7 ADD PUSH2 0x27A JUMP JUMPDEST SWAP2 POP POP SWAP3 SWAP2 POP POP JUMP JUMPDEST PUSH0 PUSH1 0x20 DUP3 DUP5 SUB SLT ISZERO PUSH2 0x2FD JUMPI PUSH2 0x2FC PUSH2 0x11F JUMP JUMPDEST JUMPDEST PUSH0 DUP3 ADD MLOAD PUSH8 0xFFFFFFFFFFFFFFFF DUP2 GT ISZERO PUSH2 0x31A JUMPI PUSH2 0x319 PUSH2 0x123 JUMP JUMPDEST JUMPDEST PUSH2 0x326 DUP5 DUP3 DUP6 ADD PUSH2 0x2BB JUMP JUMPDEST SWAP2 POP POP SWAP3 SWAP2 POP POP JUMP JUMPDEST PUSH0 DUP2 MLOAD SWAP1 POP SWAP2 SWAP1 POP JUMP JUMPDEST PUSH32 0x4E487B7100000000000000000000000000000000000000000000000000000000 PUSH0 MSTORE PUSH1 0x22 PUSH1 0x4 MSTORE PUSH1 0x24 PUSH0 REVERT JUMPDEST PUSH0 PUSH1 0x2 DUP3 DIV SWAP1 POP PUSH1 0x1 DUP3 AND DUP1 PUSH2 0x37D JUMPI PUSH1 0x7F DUP3 AND SWAP2 POP JUMPDEST PUSH1 0x20 DUP3 LT DUP2 SUB PUSH2 0x390 JUMPI PUSH2 0x38F PUSH2 0x339 JUMP JUMPDEST JUMPDEST POP SWAP2 SWAP1 POP JUMP JUMPDEST PUSH0 DUP2 SWAP1 POP DUP2 PUSH0 MSTORE PUSH1 0x20 PUSH0 KECCAK256 SWAP1 POP SWAP2 SWAP1 POP JUMP JUMPDEST PUSH0 PUSH1 0x20 PUSH1 0x1F DUP4 ADD DIV SWAP1 POP SWAP2 SWAP1 POP JUMP JUMPDEST PUSH0 DUP3 DUP3 SHL SWAP1 POP SWAP3 SWAP2 POP POP JUMP JUMPDEST PUSH0 PUSH1 0x8 DUP4 MUL PUSH2 0x3F2 PUSH32 0xFFFFFFFFFFFFFFFFFFFFFFFFFFFFFFFFFFFFFFFFFFFFFFFFFFFFFFFFFFFFFFFF DUP3 PUSH2 0x3B7 JUMP JUMPDEST PUSH2 0x3FC DUP7 DUP4 PUSH2 0x3B7 JUMP JUMPDEST SWAP6 POP DUP1 NOT DUP5 AND SWAP4 POP DUP1 DUP7 AND DUP5 OR SWAP3 POP POP POP SWAP4 SWAP3 POP POP POP JUMP JUMPDEST PUSH0 DUP2 SWAP1 POP SWAP2 SWAP1 POP JUMP JUMPDEST PUSH0 DUP2 SWAP1 POP SWAP2 SWAP1 POP JUMP JUMPDEST PUSH0 PUSH2 0x440 PUSH2 0x43B PUSH2 0x436 DUP5 PUSH2 0x414 JUMP JUMPDEST PUSH2 0x41D JUMP JUMPDEST PUSH2 0x414 JUMP JUMPDEST SWAP1 POP SWAP2 SWAP1 POP JUMP JUMPDEST PUSH0 DUP2 SWAP1 POP SWAP2 SWAP1 POP JUMP JUMPDEST PUSH2 0x459 DUP4 PUSH2 0x426 JUMP JUMPDEST PUSH2 0x46D PUSH2 0x465 DUP3 PUSH2 0x447 JUMP JUMPDEST DUP5 DUP5 SLOAD PUSH2 0x3C3 JUMP JUMPDEST DUP3 SSTORE POP POP POP POP JUMP JUMPDEST PUSH0 PUSH0 SWAP1 POP SWAP1 JUMP JUMPDEST PUSH2 0x484 PUSH2 0x475 JUMP JUMPDEST PUSH2 0x48F DUP2 DUP5 DUP5 PUSH2 0x450 JUMP JUMPDEST POP POP POP JUMP JUMPDEST JUMPDEST DUP2 DUP2 LT ISZERO PUSH2 0x4B2 JUMPI PUSH2 0x4A7 PUSH0 DUP3 PUSH2 0x47C JUMP JUMPDEST PUSH1 0x1 DUP2 ADD SWAP1 POP PUSH2 0x495 JUMP JUMPDEST POP POP JUMP JUMPDEST PUSH1 0x1F DUP3 GT ISZERO PUSH2 0x4F7 JUMPI PUSH2 0x4C8 DUP2 PUSH2 0x396 JUMP JUMPDEST PUSH2 0x4D1 DUP5 PUSH2 0x3A8 JUMP JUMPDEST DUP2 ADD PUSH1 0x20 DUP6 LT ISZERO PUSH2 0x4E0 JUMPI DUP2 SWAP1 POP JUMPDEST PUSH2 0x4F4 PUSH2 0x4EC DUP6 PUSH2 0x3A8 JUMP JUMPDEST DUP4 ADD DUP3 PUSH2 0x494 JUMP JUMPDEST POP POP JUMPDEST POP POP POP JUMP JUMPDEST PUSH0 DUP3 DUP3 SHR SWAP1 POP SWAP3 SWAP2 POP POP JUMP JUMPDEST PUSH0 PUSH2 0x517 PUSH0 NOT DUP5 PUSH1 0x8 MUL PUSH2 0x4FC JUMP JUMPDEST NOT DUP1 DUP4 AND SWAP2 POP POP SWAP3 SWAP2 POP POP JUMP JUMPDEST PUSH0 PUSH2 0x52F DUP4 DUP4 PUSH2 0x508 JUMP JUMPDEST SWAP2 POP DUP3 PUSH1 0x2 MUL DUP3 OR SWAP1 POP SWAP3 SWAP2 POP POP JUMP JUMPDEST PUSH2 0x548 DUP3 PUSH2 0x32F JUMP JUMPDEST PUSH8 0xFFFFFFFFFFFFFFFF DUP2 GT ISZERO PUSH2 0x561 JUMPI PUSH2 0x560 PUSH2 0x1C4 JUMP JUMPDEST JUMPDEST PUSH2 0x56B DUP3 SLOAD PUSH2 0x366 JUMP JUMPDEST PUSH2 0x576 DUP3 DUP3 DUP6 PUSH2 0x4B6 JUMP JUMPDEST PUSH0 PUSH1 0x20 SWAP1 POP PUSH1 0x1F DUP4 GT PUSH1 0x1 DUP2 EQ PUSH2 0x5A7 JUMPI PUSH0 DUP5 ISZERO PUSH2 0x595 JUMPI DUP3 DUP8 ADD MLOAD SWAP1 POP JUMPDEST PUSH2 0x59F DUP6 DUP3 PUSH2 0x524 JUMP JUMPDEST DUP7 SSTORE POP PUSH2 0x606 JUMP JUMPDEST PUSH1 0x1F NOT DUP5 AND PUSH2 0x5B5 DUP7 PUSH2 0x396 JUMP JUMPDEST PUSH0 JUMPDEST DUP3 DUP2 LT ISZERO PUSH2 0x5DC JUMPI DUP5 DUP10 ADD MLOAD DUP3 SSTORE PUSH1 0x1 DUP3 ADD SWAP2 POP PUSH1 0x20 DUP6 ADD SWAP5 POP PUSH1 0x20 DUP2 ADD SWAP1 POP PUSH2 0x5B7 JUMP JUMPDEST DUP7 DUP4 LT ISZERO PUSH2 0x5F9 JUMPI DUP5 DUP10 ADD MLOAD PUSH2 0x5F5 PUSH1 0x1F DUP10 AND DUP3 PUSH2 0x508 JUMP JUMPDEST DUP4 SSTORE POP JUMPDEST PUSH1 0x1 PUSH1 0x2 DUP9 MUL ADD DUP9 SSTORE POP POP POP JUMPDEST POP POP POP POP POP POP JUMP JUMPDEST PUSH2 0x5DE DUP1 PUSH2 0x61B PUSH0 CODECOPY PUSH0 RETURN INVALID PUSH1 0x80 PUSH1 0x40 MSTORE CALLVALUE DUP1 ISZERO PUSH2 0xF JUMPI PUSH0 PUSH0 REVERT JUMPDEST POP PUSH1 0x4 CALLDATASIZE LT PUSH2 0x29 JUMPI PUSH0 CALLDATALOAD PUSH1 0xE0 SHR DUP1 PUSH4 0xDD308CB8 EQ PUSH2 0x2D JUMPI JUMPDEST PUSH0 PUSH0 REVERT JUMPDEST PUSH2 0x47 PUSH1 0x4 DUP1 CALLDATASIZE SUB DUP2 ADD SWAP1 PUSH2 0x42 SWAP2 SWAP1 PUSH2 0x486 JUMP JUMPDEST PUSH2 0x5D JUMP JUMPDEST PUSH1 0x40 MLOAD PUSH2 0x54 SWAP2 SWAP1 PUSH2 0x4FA JUMP JUMPDEST PUSH1 0x40 MLOAD DUP1 SWAP2 SUB SWAP1 RETURN JUMPDEST PUSH0 PUSH0 PUSH1 0x40 MLOAD DUP1 PUSH1 0x60 ADD PUSH1 0x40 MSTORE DUP1 PUSH1 0x40 MLOAD DUP1 PUSH1 0x40 ADD PUSH1 0x40 MSTORE DUP1 PUSH1 0x2 DUP2 MSTORE PUSH1 0x20 ADD PUSH32 0x4331000000000000000000000000000000000000000000000000000000000000 DUP2 MSTORE POP DUP2 MSTORE PUSH1 0x20 ADD PUSH1 0x40 MLOAD DUP1 PUSH1 0x40 ADD PUSH1 0x40 MSTORE DUP1 PUSH1 0x2 DUP2 MSTORE PUSH1 0x20 ADD PUSH32 0x4332000000000000000000000000000000000000000000000000000000000000 DUP2 MSTORE POP DUP2 MSTORE PUSH1 0x20 ADD PUSH1 0x40 MLOAD DUP1 PUSH1 0x40 ADD PUSH1 0x40 MSTORE DUP1 PUSH1 0x2 DUP2 MSTORE PUSH1 0x20 ADD PUSH32 0x4333000000000000000000000000000000000000000000000000000000000000 DUP2 MSTORE POP DUP2 MSTORE POP SWAP1 POP PUSH0 PUSH1 0x40 MLOAD DUP1 PUSH1 0x60 ADD PUSH1 0x40 MSTORE DUP1 PUSH20 0x5B38DA6A701C568545DCFCB03FCB875F56BEDDC4 PUSH20 0xFFFFFFFFFFFFFFFFFFFFFFFFFFFFFFFFFFFFFFFF AND PUSH20 0xFFFFFFFFFFFFFFFFFFFFFFFFFFFFFFFFFFFFFFFF AND DUP2 MSTORE PUSH1 0x20 ADD PUSH20 0x5B38DA6A701C568545DCFCB03FCB875F56BEDDC4 PUSH20 0xFFFFFFFFFFFFFFFFFFFFFFFFFFFFFFFFFFFFFFFF AND PUSH20 0xFFFFFFFFFFFFFFFFFFFFFFFFFFFFFFFFFFFFFFFF AND DUP2 MSTORE PUSH1 0x20 ADD PUSH20 0x5B38DA6A701C568545DCFCB03FCB875F56BEDDC4 PUSH20 0xFFFFFFFFFFFFFFFFFFFFFFFFFFFFFFFFFFFFFFFF AND PUSH20 0xFFFFFFFFFFFFFFFFFFFFFFFFFFFFFFFFFFFFFFFF AND DUP2 MSTORE POP SWAP1 POP PUSH0 JUMPDEST PUSH1 0x3 DUP2 LT ISZERO PUSH2 0x2D2 JUMPI DUP2 DUP2 PUSH1 0x3 DUP2 LT PUSH2 0x217 JUMPI PUSH2 0x216 PUSH2 0x513 JUMP JUMPDEST JUMPDEST PUSH1 0x20 MUL ADD MLOAD PUSH20 0xFFFFFFFFFFFFFFFFFFFFFFFFFFFFFFFFFFFFFFFF AND DUP7 PUSH20 0xFFFFFFFFFFFFFFFFFFFFFFFFFFFFFFFFFFFFFFFF AND SUB PUSH2 0x2C5 JUMPI DUP5 PUSH1 0x40 MLOAD PUSH1 0x20 ADD PUSH2 0x25F SWAP2 SWAP1 PUSH2 0x592 JUMP JUMPDEST PUSH1 0x40 MLOAD PUSH1 0x20 DUP2 DUP4 SUB SUB DUP2 MSTORE SWAP1 PUSH1 0x40 MSTORE DUP1 MLOAD SWAP1 PUSH1 0x20 ADD KECCAK256 DUP4 DUP3 PUSH1 0x3 DUP2 LT PUSH2 0x288 JUMPI PUSH2 0x287 PUSH2 0x513 JUMP JUMPDEST JUMPDEST PUSH1 0x20 MUL ADD MLOAD PUSH1 0x40 MLOAD PUSH1 0x20 ADD PUSH2 0x29D SWAP2 SWAP1 PUSH2 0x592 JUMP JUMPDEST PUSH1 0x40 MLOAD PUSH1 0x20 DUP2 DUP4 SUB SUB DUP2 MSTORE SWAP1 PUSH1 0x40 MSTORE DUP1 MLOAD SWAP1 PUSH1 0x20 ADD KECCAK256 SUB PUSH2 0x2C4 JUMPI PUSH1 0x1 SWAP4 POP POP POP POP PUSH2 0x2D9 JUMP JUMPDEST JUMPDEST DUP1 DUP1 PUSH1 0x1 ADD SWAP2 POP POP PUSH2 0x1FB JUMP JUMPDEST POP PUSH0 SWAP3 POP POP POP JUMPDEST SWAP3 SWAP2 POP POP JUMP JUMPDEST PUSH0 PUSH1 0x40 MLOAD SWAP1 POP SWAP1 JUMP JUMPDEST PUSH0 PUSH0 REVERT JUMPDEST PUSH0 PUSH0 REVERT JUMPDEST PUSH0 PUSH20 0xFFFFFFFFFFFFFFFFFFFFFFFFFFFFFFFFFFFFFFFF DUP3 AND SWAP1 POP SWAP2 SWAP1 POP JUMP JUMPDEST PUSH0 PUSH2 0x319 DUP3 PUSH2 0x2F0 JUMP JUMPDEST SWAP1 POP SWAP2 SWAP1 POP JUMP JUMPDEST PUSH2 0x329 DUP2 PUSH2 0x30F JUMP JUMPDEST DUP2 EQ PUSH2 0x333 JUMPI PUSH0 PUSH0 REVERT JUMPDEST POP JUMP JUMPDEST PUSH0 DUP2 CALLDATALOAD SWAP1 POP PUSH2 0x344 DUP2 PUSH2 0x320 JUMP JUMPDEST SWAP3 SWAP2 POP POP JUMP JUMPDEST PUSH0 PUSH0 REVERT JUMPDEST PUSH0 PUSH0 REVERT JUMPDEST PUSH0 PUSH1 0x1F NOT PUSH1 0x1F DUP4 ADD AND SWAP1 POP SWAP2 SWAP1 POP JUMP JUMPDEST PUSH32 0x4E487B7100000000000000000000000000000000000000000000000000000000 PUSH0 MSTORE PUSH1 0x41 PUSH1 0x4 MSTORE PUSH1 0x24 PUSH0 REVERT JUMPDEST PUSH2 0x398 DUP3 PUSH2 0x352 JUMP JUMPDEST DUP2 ADD DUP2 DUP2 LT PUSH8 0xFFFFFFFFFFFFFFFF DUP3 GT OR ISZERO PUSH2 0x3B7 JUMPI PUSH2 0x3B6 PUSH2 0x362 JUMP JUMPDEST JUMPDEST DUP1 PUSH1 0x40 MSTORE POP POP POP JUMP JUMPDEST PUSH0 PUSH2 0x3C9 PUSH2 0x2DF JUMP JUMPDEST SWAP1 POP PUSH2 0x3D5 DUP3 DUP3 PUSH2 0x38F JUMP JUMPDEST SWAP2 SWAP1 POP JUMP JUMPDEST PUSH0 PUSH8 0xFFFFFFFFFFFFFFFF DUP3 GT ISZERO PUSH2 0x3F4 JUMPI PUSH2 0x3F3 PUSH2 0x362 JUMP JUMPDEST JUMPDEST PUSH2 0x3FD DUP3 PUSH2 0x352 JUMP JUMPDEST SWAP1 POP PUSH1 0x20 DUP2 ADD SWAP1 POP SWAP2 SWAP1 POP JUMP JUMPDEST DUP3 DUP2 DUP4 CALLDATACOPY PUSH0 DUP4 DUP4 ADD MSTORE POP POP POP JUMP JUMPDEST PUSH0 PUSH2 0x42A PUSH2 0x425 DUP5 PUSH2 0x3DA JUMP JUMPDEST PUSH2 0x3C0 JUMP JUMPDEST SWAP1 POP DUP3 DUP2 MSTORE PUSH1 0x20 DUP2 ADD DUP5 DUP5 DUP5 ADD GT ISZERO PUSH2 0x446 JUMPI PUSH2 0x445 PUSH2 0x34E JUMP JUMPDEST JUMPDEST PUSH2 0x451 DUP5 DUP3 DUP6 PUSH2 0x40A JUMP JUMPDEST POP SWAP4 SWAP3 POP POP POP JUMP JUMPDEST PUSH0 DUP3 PUSH1 0x1F DUP4 ADD SLT PUSH2 0x46D JUMPI PUSH2 0x46C PUSH2 0x34A JUMP JUMPDEST JUMPDEST DUP2 CALLDATALOAD PUSH2 0x47D DUP5 DUP3 PUSH1 0x20 DUP7 ADD PUSH2 0x418 JUMP JUMPDEST SWAP2 POP POP SWAP3 SWAP2 POP POP JUMP JUMPDEST PUSH0 PUSH0 PUSH1 0x40 DUP4 DUP6 SUB SLT ISZERO PUSH2 0x49C JUMPI PUSH2 0x49B PUSH2 0x2E8 JUMP JUMPDEST JUMPDEST PUSH0 PUSH2 0x4A9 DUP6 DUP3 DUP7 ADD PUSH2 0x336 JUMP JUMPDEST SWAP3 POP POP PUSH1 0x20 DUP4 ADD CALLDATALOAD PUSH8 0xFFFFFFFFFFFFFFFF DUP2 GT ISZERO PUSH2 0x4CA JUMPI PUSH2 0x4C9 PUSH2 0x2EC JUMP JUMPDEST JUMPDEST PUSH2 0x4D6 DUP6 DUP3 DUP7 ADD PUSH2 0x459 JUMP JUMPDEST SWAP2 POP POP SWAP3 POP SWAP3 SWAP1 POP JUMP JUMPDEST PUSH0 DUP2 ISZERO ISZERO SWAP1 POP SWAP2 SWAP1 POP JUMP JUMPDEST PUSH2 0x4F4 DUP2 PUSH2 0x4E0 JUMP JUMPDEST DUP3 MSTORE POP POP JUMP JUMPDEST PUSH0 PUSH1 0x20 DUP3 ADD SWAP1 POP PUSH2 0x50D PUSH0 DUP4 ADD DUP5 PUSH2 0x4EB JUMP JUMPDEST SWAP3 SWAP2 POP POP JUMP JUMPDEST PUSH32 0x4E487B7100000000000000000000000000000000000000000000000000000000 PUSH0 MSTORE PUSH1 0x32 PUSH1 0x4 MSTORE PUSH1 0x24 PUSH0 REVERT JUMPDEST PUSH0 DUP2 MLOAD SWAP1 POP SWAP2 SWAP1 POP JUMP JUMPDEST PUSH0 DUP2 SWAP1 POP SWAP3 SWAP2 POP POP JUMP JUMPDEST DUP3 DUP2 DUP4 MCOPY PUSH0 DUP4 DUP4 ADD MSTORE POP POP POP JUMP JUMPDEST PUSH0 PUSH2 0x56C DUP3 PUSH2 0x540 JUMP JUMPDEST PUSH2 0x576 DUP2 DUP6 PUSH2 0x54A JUMP JUMPDEST SWAP4 POP PUSH2 0x586 DUP2 DUP6 PUSH1 0x20 DUP7 ADD PUSH2 0x554 JUMP JUMPDEST DUP1 DUP5 ADD SWAP2 POP POP SWAP3 SWAP2 POP POP JUMP JUMPDEST PUSH0 PUSH2 0x59D DUP3 DUP5 PUSH2 0x562 JUMP JUMPDEST SWAP2 POP DUP2 SWAP1 POP SWAP3 SWAP2 POP POP JUMP INVALID LOG2 PUSH5 0x6970667358 0x22 SLT KECCAK256 SWAP1 0xD0 SWAPN 0xD3 0xAD CODESIZE PUSH19 0xBE06C6771D841AAE85BB4152DD1C78689C1C98 GASPRICE 0xB5 0xA6 CODECOPY BLOBHASH 0x2B PUSH5 0x736F6C6343 STOP ADDMOD 0x1E STOP CALLER "
		},
		"gasEstimates": {
			"creation": {
				"codeDepositCost": "300400",
				"executionCost": "infinite",
				"totalCost": "infinite"
			},
			"external": {
				"verifyCharity(address,string)": "infinite"
			}
		},
		"methodIdentifiers": {
			"verifyCharity(address,string)": "dd308cb8"
		}
	},
	"abi": [
		{
			"inputs": [
				{
					"internalType": "address",
					"name": "_roleContract",
					"type": "address"
				}
			],
			"stateMutability": "nonpayable",
			"type": "constructor"
		},
		{
			"inputs": [
				{
					"internalType": "address",
					"name": "charityAddress",
					"type": "address"
				},
				{
					"internalType": "string",
					"name": "name",
					"type": "string"
				}
			],
			"name": "verifyCharity",
			"outputs": [
				{
					"internalType": "bool",
					"name": "success",
					"type": "bool"
				}
			],
			"stateMutability": "pure",
			"type": "function"
		}
	]
}