{
	"data": {
		"bytecode": {
			"linkReferences": {},
			"object": "6080604052348015600e575f5ffd5b50610e3b8061001c5f395ff3fe608060405234801561000f575f5ffd5b5060043610610055575f3560e01c80631ab915171461005957806391329493146100755780639d32c18614610093578063f25d75e7146100c3578063fb709d2e146100df575b5f5ffd5b610073600480360381019061006e9190610641565b610113565b005b61007d610256565b60405161008a91906106b3565b60405180910390f35b6100ad60048036038101906100a891906106cc565b61025b565b6040516100ba919061072b565b60405180910390f35b6100dd60048036038101906100d8919061076e565b610321565b005b6100f960048036038101906100f491906107c8565b6103b7565b60405161010a95949392919061087c565b60405180910390f35b5f5f81548092919061012490610901565b91905055506040518060a001604052808381526020018273ffffffffffffffffffffffffffffffffffffffff1681526020015f815260200161271081526020016001151581525060025f5f5481526020019081526020015f205f820151815f0190816101909190610b45565b506020820151816001015f6101000a81548173ffffffffffffffffffffffffffffffffffffffff021916908373ffffffffffffffffffffffffffffffffffffffff16021790555060408201518160020155606082015181600301556080820151816004015f6101000a81548160ff0219169083151502179055509050507f9738ee50ef49bc3ba8025ef429ffc26a3c6427e51abca46e5ea80429f1c17b4b5f5483835f612710600160405161024a96959493929190610c86565b60405180910390a15050565b5f5481565b5f5f600190505b60015f546102709190610cec565b8110156102f757826040516020016102889190610d59565b6040516020818303038152906040528051906020012060025f8381526020019081526020015f205f016040516020016102c19190610def565b60405160208183030381529060405280519060200120036102ea575f819050809250505061031c565b8080600101915050610262565b507fffffffffffffffffffffffffffffffffffffffffffffffffffffffffffffffff90505b919050565b5f61032b8361025b565b90507fffffffffffffffffffffffffffffffffffffffffffffffffffffffffffffffff8103610358575f5ffd5b5f60025f8381526020019081526020015f20905082816002015f82825461037f9190610cec565b9250508190555080600301548160020154106103b1575f816004015f6101000a81548160ff0219169083151502179055505b50505050565b6002602052805f5260405f205f91509050805f0180546103d690610975565b80601f016020809104026020016040519081016040528092919081815260200182805461040290610975565b801561044d5780601f106104245761010080835404028352916020019161044d565b820191905f5260205f20905b81548152906001019060200180831161043057829003601f168201915b505050505090806001015f9054906101000a900473ffffffffffffffffffffffffffffffffffffffff1690806002015490806003015490806004015f9054906101000a900460ff16905085565b5f604051905090565b5f5ffd5b5f5ffd5b5f5ffd5b5f5ffd5b5f601f19601f8301169050919050565b7f4e487b71000000000000000000000000000000000000000000000000000000005f52604160045260245ffd5b6104f9826104b3565b810181811067ffffffffffffffff82111715610518576105176104c3565b5b80604052505050565b5f61052a61049a565b905061053682826104f0565b919050565b5f67ffffffffffffffff821115610555576105546104c3565b5b61055e826104b3565b9050602081019050919050565b828183375f83830152505050565b5f61058b6105868461053b565b610521565b9050828152602081018484840111156105a7576105a66104af565b5b6105b284828561056b565b509392505050565b5f82601f8301126105ce576105cd6104ab565b5b81356105de848260208601610579565b91505092915050565b5f73ffffffffffffffffffffffffffffffffffffffff82169050919050565b5f610610826105e7565b9050919050565b61062081610606565b811461062a575f5ffd5b50565b5f8135905061063b81610617565b92915050565b5f5f60408385031215610657576106566104a3565b5b5f83013567ffffffffffffffff811115610674576106736104a7565b5b610680858286016105ba565b92505060206106918582860161062d565b9150509250929050565b5f819050919050565b6106ad8161069b565b82525050565b5f6020820190506106c65f8301846106a4565b92915050565b5f602082840312156106e1576106e06104a3565b5b5f82013567ffffffffffffffff8111156106fe576106fd6104a7565b5b61070a848285016105ba565b91505092915050565b5f819050919050565b61072581610713565b82525050565b5f60208201905061073e5f83018461071c565b92915050565b61074d8161069b565b8114610757575f5ffd5b50565b5f8135905061076881610744565b92915050565b5f5f60408385031215610784576107836104a3565b5b5f83013567ffffffffffffffff8111156107a1576107a06104a7565b5b6107ad858286016105ba565b92505060206107be8582860161075a565b9150509250929050565b5f602082840312156107dd576107dc6104a3565b5b5f6107ea8482850161075a565b91505092915050565b5f81519050919050565b5f82825260208201905092915050565b8281835e5f83830152505050565b5f610825826107f3565b61082f81856107fd565b935061083f81856020860161080d565b610848816104b3565b840191505092915050565b61085c81610606565b82525050565b5f8115159050919050565b61087681610862565b82525050565b5f60a0820190508181035f830152610894818861081b565b90506108a36020830187610853565b6108b060408301866106a4565b6108bd60608301856106a4565b6108ca608083018461086d565b9695505050505050565b7f4e487b71000000000000000000000000000000000000000000000000000000005f52601160045260245ffd5b5f61090b8261069b565b91507fffffffffffffffffffffffffffffffffffffffffffffffffffffffffffffffff820361093d5761093c6108d4565b5b600182019050919050565b7f4e487b71000000000000000000000000000000000000000000000000000000005f52602260045260245ffd5b5f600282049050600182168061098c57607f821691505b60208210810361099f5761099e610948565b5b50919050565b5f819050815f5260205f209050919050565b5f6020601f8301049050919050565b5f82821b905092915050565b5f60088302610a017fffffffffffffffffffffffffffffffffffffffffffffffffffffffffffffffff826109c6565b610a0b86836109c6565b95508019841693508086168417925050509392505050565b5f819050919050565b5f610a46610a41610a3c8461069b565b610a23565b61069b565b9050919050565b5f819050919050565b610a5f83610a2c565b610a73610a6b82610a4d565b8484546109d2565b825550505050565b5f5f905090565b610a8a610a7b565b610a95818484610a56565b505050565b5b81811015610ab857610aad5f82610a82565b600181019050610a9b565b5050565b601f821115610afd57610ace816109a5565b610ad7846109b7565b81016020851015610ae6578190505b610afa610af2856109b7565b830182610a9a565b50505b505050565b5f82821c905092915050565b5f610b1d5f1984600802610b02565b1980831691505092915050565b5f610b358383610b0e565b9150826002028217905092915050565b610b4e826107f3565b67ffffffffffffffff811115610b6757610b666104c3565b5b610b718254610975565b610b7c828285610abc565b5f60209050601f831160018114610bad575f8415610b9b578287015190505b610ba58582610b2a565b865550610c0c565b601f198416610bbb866109a5565b5f5b82811015610be257848901518255600182019150602085019450602081019050610bbd565b86831015610bff5784890151610bfb601f891682610b0e565b8355505b6001600288020188555050505b505050505050565b5f819050919050565b5f610c37610c32610c2d84610c14565b610a23565b61069b565b9050919050565b610c4781610c1d565b82525050565b5f819050919050565b5f610c70610c6b610c6684610c4d565b610a23565b61069b565b9050919050565b610c8081610c56565b82525050565b5f60c082019050610c995f8301896106a4565b8181036020830152610cab818861081b565b9050610cba6040830187610853565b610cc76060830186610c3e565b610cd46080830185610c77565b610ce160a083018461086d565b979650505050505050565b5f610cf68261069b565b9150610d018361069b565b9250828201905080821115610d1957610d186108d4565b5b92915050565b5f81905092915050565b5f610d33826107f3565b610d3d8185610d1f565b9350610d4d81856020860161080d565b80840191505092915050565b5f610d648284610d29565b915081905092915050565b5f8154610d7b81610975565b610d858186610d1f565b9450600182165f8114610d9f5760018114610db457610de6565b60ff1983168652811515820286019350610de6565b610dbd856109a5565b5f5b83811015610dde57815481890152600182019150602081019050610dbf565b838801955050505b50505092915050565b5f610dfa8284610d6f565b91508190509291505056fea2646970667358221220070adb734aa165967e30a136820fb14a0c9d39038e7b89ba054acc4dc569578d64736f6c634300081e0033",
			"opcodes": "PUSH1 0x80 PUSH1 0x40 MSTORE CALLVALUE DUP1 ISZERO PUSH1 0xE JUMPI PUSH0 PUSH0 REVERT JUMPDEST POP PUSH2 0xE3B DUP1 PUSH2 0x1C PUSH0 CODECOPY PUSH0 RETURN INVALID PUSH1 0x80 PUSH1 0x40 MSTORE CALLVALUE DUP1 ISZERO PUSH2 0xF JUMPI PUSH0 PUSH0 REVERT JUMPDEST POP PUSH1 0x4 CALLDATASIZE LT PUSH2 0x55 JUMPI PUSH0 CALLDATALOAD PUSH1 0xE0 SHR DUP1 PUSH4 0x1AB91517 EQ PUSH2 0x59 JUMPI DUP1 PUSH4 0x91329493 EQ PUSH2 0x75 JUMPI DUP1 PUSH4 0x9D32C186 EQ PUSH2 0x93 JUMPI DUP1 PUSH4 0xF25D75E7 EQ PUSH2 0xC3 JUMPI DUP1 PUSH4 0xFB709D2E EQ PUSH2 0xDF JUMPI JUMPDEST PUSH0 PUSH0 REVERT JUMPDEST PUSH2 0x73 PUSH1 0x4 DUP1 CALLDATASIZE SUB DUP2 ADD SWAP1 PUSH2 0x6E SWAP2 SWAP1 PUSH2 0x641 JUMP JUMPDEST PUSH2 0x113 JUMP JUMPDEST STOP JUMPDEST PUSH2 0x7D PUSH2 0x256 JUMP JUMPDEST PUSH1 0x40 MLOAD PUSH2 0x8A SWAP2 SWAP1 PUSH2 0x6B3 JUMP JUMPDEST PUSH1 0x40 MLOAD DUP1 SWAP2 SUB SWAP1 RETURN JUMPDEST PUSH2 0xAD PUSH1 0x4 DUP1 CALLDATASIZE SUB DUP2 ADD SWAP1 PUSH2 0xA8 SWAP2 SWAP1 PUSH2 0x6CC JUMP JUMPDEST PUSH2 0x25B JUMP JUMPDEST PUSH1 0x40 MLOAD PUSH2 0xBA SWAP2 SWAP1 PUSH2 0x72B JUMP JUMPDEST PUSH1 0x40 MLOAD DUP1 SWAP2 SUB SWAP1 RETURN JUMPDEST PUSH2 0xDD PUSH1 0x4 DUP1 CALLDATASIZE SUB DUP2 ADD SWAP1 PUSH2 0xD8 SWAP2 SWAP1 PUSH2 0x76E JUMP JUMPDEST PUSH2 0x321 JUMP JUMPDEST STOP JUMPDEST PUSH2 0xF9 PUSH1 0x4 DUP1 CALLDATASIZE SUB DUP2 ADD SWAP1 PUSH2 0xF4 SWAP2 SWAP1 PUSH2 0x7C8 JUMP JUMPDEST PUSH2 0x3B7 JUMP JUMPDEST PUSH1 0x40 MLOAD PUSH2 0x10A SWAP6 SWAP5 SWAP4 SWAP3 SWAP2 SWAP1 PUSH2 0x87C JUMP JUMPDEST PUSH1 0x40 MLOAD DUP1 SWAP2 SUB SWAP1 RETURN JUMPDEST PUSH0 PUSH0 DUP2 SLOAD DUP1 SWAP3 SWAP2 SWAP1 PUSH2 0x124 SWAP1 PUSH2 0x901 JUMP JUMPDEST SWAP2 SWAP1 POP SSTORE POP PUSH1 0x40 MLOAD DUP1 PUSH1 0xA0 ADD PUSH1 0x40 MSTORE DUP1 DUP4 DUP2 MSTORE PUSH1 0x20 ADD DUP3 PUSH20 0xFFFFFFFFFFFFFFFFFFFFFFFFFFFFFFFFFFFFFFFF AND DUP2 MSTORE PUSH1 0x20 ADD PUSH0 DUP2 MSTORE PUSH1 0x20 ADD PUSH2 0x2710 DUP2 MSTORE PUSH1 0x20 ADD PUSH1 0x1 ISZERO ISZERO DUP2 MSTORE POP PUSH1 0x2 PUSH0 PUSH0 SLOAD DUP2 MSTORE PUSH1 0x20 ADD SWAP1 DUP2 MSTORE PUSH1 0x20 ADD PUSH0 KECCAK256 PUSH0 DUP3 ADD MLOAD DUP2 PUSH0 ADD SWAP1 DUP2 PUSH2 0x190 SWAP2 SWAP1 PUSH2 0xB45 JUMP JUMPDEST POP PUSH1 0x20 DUP3 ADD MLOAD DUP2 PUSH1 0x1 ADD PUSH0 PUSH2 0x100 EXP DUP2 SLOAD DUP2 PUSH20 0xFFFFFFFFFFFFFFFFFFFFFFFFFFFFFFFFFFFFFFFF MUL NOT AND SWAP1 DUP4 PUSH20 0xFFFFFFFFFFFFFFFFFFFFFFFFFFFFFFFFFFFFFFFF AND MUL OR SWAP1 SSTORE POP PUSH1 0x40 DUP3 ADD MLOAD DUP2 PUSH1 0x2 ADD SSTORE PUSH1 0x60 DUP3 ADD MLOAD DUP2 PUSH1 0x3 ADD SSTORE PUSH1 0x80 DUP3 ADD MLOAD DUP2 PUSH1 0x4 ADD PUSH0 PUSH2 0x100 EXP DUP2 SLOAD DUP2 PUSH1 0xFF MUL NOT AND SWAP1 DUP4 ISZERO ISZERO MUL OR SWAP1 SSTORE POP SWAP1 POP POP PUSH32 0x9738EE50EF49BC3BA8025EF429FFC26A3C6427E51ABCA46E5EA80429F1C17B4B PUSH0 SLOAD DUP4 DUP4 PUSH0 PUSH2 0x2710 PUSH1 0x1 PUSH1 0x40 MLOAD PUSH2 0x24A SWAP7 SWAP6 SWAP5 SWAP4 SWAP3 SWAP2 SWAP1 PUSH2 0xC86 JUMP JUMPDEST PUSH1 0x40 MLOAD DUP1 SWAP2 SUB SWAP1 LOG1 POP POP JUMP JUMPDEST PUSH0 SLOAD DUP2 JUMP JUMPDEST PUSH0 PUSH0 PUSH1 0x1 SWAP1 POP JUMPDEST PUSH1 0x1 PUSH0 SLOAD PUSH2 0x270 SWAP2 SWAP1 PUSH2 0xCEC JUMP JUMPDEST DUP2 LT ISZERO PUSH2 0x2F7 JUMPI DUP3 PUSH1 0x40 MLOAD PUSH1 0x20 ADD PUSH2 0x288 SWAP2 SWAP1 PUSH2 0xD59 JUMP JUMPDEST PUSH1 0x40 MLOAD PUSH1 0x20 DUP2 DUP4 SUB SUB DUP2 MSTORE SWAP1 PUSH1 0x40 MSTORE DUP1 MLOAD SWAP1 PUSH1 0x20 ADD KECCAK256 PUSH1 0x2 PUSH0 DUP4 DUP2 MSTORE PUSH1 0x20 ADD SWAP1 DUP2 MSTORE PUSH1 0x20 ADD PUSH0 KECCAK256 PUSH0 ADD PUSH1 0x40 MLOAD PUSH1 0x20 ADD PUSH2 0x2C1 SWAP2 SWAP1 PUSH2 0xDEF JUMP JUMPDEST PUSH1 0x40 MLOAD PUSH1 0x20 DUP2 DUP4 SUB SUB DUP2 MSTORE SWAP1 PUSH1 0x40 MSTORE DUP1 MLOAD SWAP1 PUSH1 0x20 ADD KECCAK256 SUB PUSH2 0x2EA JUMPI PUSH0 DUP2 SWAP1 POP DUP1 SWAP3 POP POP POP PUSH2 0x31C JUMP JUMPDEST DUP1 DUP1 PUSH1 0x1 ADD SWAP2 POP POP PUSH2 0x262 JUMP JUMPDEST POP PUSH32 0xFFFFFFFFFFFFFFFFFFFFFFFFFFFFFFFFFFFFFFFFFFFFFFFFFFFFFFFFFFFFFFFF SWAP1 POP JUMPDEST SWAP2 SWAP1 POP JUMP JUMPDEST PUSH0 PUSH2 0x32B DUP4 PUSH2 0x25B JUMP JUMPDEST SWAP1 POP PUSH32 0xFFFFFFFFFFFFFFFFFFFFFFFFFFFFFFFFFFFFFFFFFFFFFFFFFFFFFFFFFFFFFFFF DUP2 SUB PUSH2 0x358 JUMPI PUSH0 PUSH0 REVERT JUMPDEST PUSH0 PUSH1 0x2 PUSH0 DUP4 DUP2 MSTORE PUSH1 0x20 ADD SWAP1 DUP2 MSTORE PUSH1 0x20 ADD PUSH0 KECCAK256 SWAP1 POP DUP3 DUP2 PUSH1 0x2 ADD PUSH0 DUP3 DUP3 SLOAD PUSH2 0x37F SWAP2 SWAP1 PUSH2 0xCEC JUMP JUMPDEST SWAP3 POP POP DUP2 SWAP1 SSTORE POP DUP1 PUSH1 0x3 ADD SLOAD DUP2 PUSH1 0x2 ADD SLOAD LT PUSH2 0x3B1 JUMPI PUSH0 DUP2 PUSH1 0x4 ADD PUSH0 PUSH2 0x100 EXP DUP2 SLOAD DUP2 PUSH1 0xFF MUL NOT AND SWAP1 DUP4 ISZERO ISZERO MUL OR SWAP1 SSTORE POP JUMPDEST POP POP POP POP JUMP JUMPDEST PUSH1 0x2 PUSH1 0x20 MSTORE DUP1 PUSH0 MSTORE PUSH1 0x40 PUSH0 KECCAK256 PUSH0 SWAP2 POP SWAP1 POP DUP1 PUSH0 ADD DUP1 SLOAD PUSH2 0x3D6 SWAP1 PUSH2 0x975 JUMP JUMPDEST DUP1 PUSH1 0x1F ADD PUSH1 0x20 DUP1 SWAP2 DIV MUL PUSH1 0x20 ADD PUSH1 0x40 MLOAD SWAP1 DUP2 ADD PUSH1 0x40 MSTORE DUP1 SWAP3 SWAP2 SWAP1 DUP2 DUP2 MSTORE PUSH1 0x20 ADD DUP3 DUP1 SLOAD PUSH2 0x402 SWAP1 PUSH2 0x975 JUMP JUMPDEST DUP1 ISZERO PUSH2 0x44D JUMPI DUP1 PUSH1 0x1F LT PUSH2 0x424 JUMPI PUSH2 0x100 DUP1 DUP4 SLOAD DIV MUL DUP4 MSTORE SWAP2 PUSH1 0x20 ADD SWAP2 PUSH2 0x44D JUMP JUMPDEST DUP3 ADD SWAP2 SWAP1 PUSH0 MSTORE PUSH1 0x20 PUSH0 KECCAK256 SWAP1 JUMPDEST DUP2 SLOAD DUP2 MSTORE SWAP1 PUSH1 0x1 ADD SWAP1 PUSH1 0x20 ADD DUP1 DUP4 GT PUSH2 0x430 JUMPI DUP3 SWAP1 SUB PUSH1 0x1F AND DUP3 ADD SWAP2 JUMPDEST POP POP POP POP POP SWAP1 DUP1 PUSH1 0x1 ADD PUSH0 SWAP1 SLOAD SWAP1 PUSH2 0x100 EXP SWAP1 DIV PUSH20 0xFFFFFFFFFFFFFFFFFFFFFFFFFFFFFFFFFFFFFFFF AND SWAP1 DUP1 PUSH1 0x2 ADD SLOAD SWAP1 DUP1 PUSH1 0x3 ADD SLOAD SWAP1 DUP1 PUSH1 0x4 ADD PUSH0 SWAP1 SLOAD SWAP1 PUSH2 0x100 EXP SWAP1 DIV PUSH1 0xFF AND SWAP1 POP DUP6 JUMP JUMPDEST PUSH0 PUSH1 0x40 MLOAD SWAP1 POP SWAP1 JUMP JUMPDEST PUSH0 PUSH0 REVERT JUMPDEST PUSH0 PUSH0 REVERT JUMPDEST PUSH0 PUSH0 REVERT JUMPDEST PUSH0 PUSH0 REVERT JUMPDEST PUSH0 PUSH1 0x1F NOT PUSH1 0x1F DUP4 ADD AND SWAP1 POP SWAP2 SWAP1 POP JUMP JUMPDEST PUSH32 0x4E487B7100000000000000000000000000000000000000000000000000000000 PUSH0 MSTORE PUSH1 0x41 PUSH1 0x4 MSTORE PUSH1 0x24 PUSH0 REVERT JUMPDEST PUSH2 0x4F9 DUP3 PUSH2 0x4B3 JUMP JUMPDEST DUP2 ADD DUP2 DUP2 LT PUSH8 0xFFFFFFFFFFFFFFFF DUP3 GT OR ISZERO PUSH2 0x518 JUMPI PUSH2 0x517 PUSH2 0x4C3 JUMP JUMPDEST JUMPDEST DUP1 PUSH1 0x40 MSTORE POP POP POP JUMP JUMPDEST PUSH0 PUSH2 0x52A PUSH2 0x49A JUMP JUMPDEST SWAP1 POP PUSH2 0x536 DUP3 DUP3 PUSH2 0x4F0 JUMP JUMPDEST SWAP2 SWAP1 POP JUMP JUMPDEST PUSH0 PUSH8 0xFFFFFFFFFFFFFFFF DUP3 GT ISZERO PUSH2 0x555 JUMPI PUSH2 0x554 PUSH2 0x4C3 JUMP JUMPDEST JUMPDEST PUSH2 0x55E DUP3 PUSH2 0x4B3 JUMP JUMPDEST SWAP1 POP PUSH1 0x20 DUP2 ADD SWAP1 POP SWAP2 SWAP1 POP JUMP JUMPDEST DUP3 DUP2 DUP4 CALLDATACOPY PUSH0 DUP4 DUP4 ADD MSTORE POP POP POP JUMP JUMPDEST PUSH0 PUSH2 0x58B PUSH2 0x586 DUP5 PUSH2 0x53B JUMP JUMPDEST PUSH2 0x521 JUMP JUMPDEST SWAP1 POP DUP3 DUP2 MSTORE PUSH1 0x20 DUP2 ADD DUP5 DUP5 DUP5 ADD GT ISZERO PUSH2 0x5A7 JUMPI PUSH2 0x5A6 PUSH2 0x4AF JUMP JUMPDEST JUMPDEST PUSH2 0x5B2 DUP5 DUP3 DUP6 PUSH2 0x56B JUMP JUMPDEST POP SWAP4 SWAP3 POP POP POP JUMP JUMPDEST PUSH0 DUP3 PUSH1 0x1F DUP4 ADD SLT PUSH2 0x5CE JUMPI PUSH2 0x5CD PUSH2 0x4AB JUMP JUMPDEST JUMPDEST DUP2 CALLDATALOAD PUSH2 0x5DE DUP5 DUP3 PUSH1 0x20 DUP7 ADD PUSH2 0x579 JUMP JUMPDEST SWAP2 POP POP SWAP3 SWAP2 POP POP JUMP JUMPDEST PUSH0 PUSH20 0xFFFFFFFFFFFFFFFFFFFFFFFFFFFFFFFFFFFFFFFF DUP3 AND SWAP1 POP SWAP2 SWAP1 POP JUMP JUMPDEST PUSH0 PUSH2 0x610 DUP3 PUSH2 0x5E7 JUMP JUMPDEST SWAP1 POP SWAP2 SWAP1 POP JUMP JUMPDEST PUSH2 0x620 DUP2 PUSH2 0x606 JUMP JUMPDEST DUP2 EQ PUSH2 0x62A JUMPI PUSH0 PUSH0 REVERT JUMPDEST POP JUMP JUMPDEST PUSH0 DUP2 CALLDATALOAD SWAP1 POP PUSH2 0x63B DUP2 PUSH2 0x617 JUMP JUMPDEST SWAP3 SWAP2 POP POP JUMP JUMPDEST PUSH0 PUSH0 PUSH1 0x40 DUP4 DUP6 SUB SLT ISZERO PUSH2 0x657 JUMPI PUSH2 0x656 PUSH2 0x4A3 JUMP JUMPDEST JUMPDEST PUSH0 DUP4 ADD CALLDATALOAD PUSH8 0xFFFFFFFFFFFFFFFF DUP2 GT ISZERO PUSH2 0x674 JUMPI PUSH2 0x673 PUSH2 0x4A7 JUMP JUMPDEST JUMPDEST PUSH2 0x680 DUP6 DUP3 DUP7 ADD PUSH2 0x5BA JUMP JUMPDEST SWAP3 POP POP PUSH1 0x20 PUSH2 0x691 DUP6 DUP3 DUP7 ADD PUSH2 0x62D JUMP JUMPDEST SWAP2 POP POP SWAP3 POP SWAP3 SWAP1 POP JUMP JUMPDEST PUSH0 DUP2 SWAP1 POP SWAP2 SWAP1 POP JUMP JUMPDEST PUSH2 0x6AD DUP2 PUSH2 0x69B JUMP JUMPDEST DUP3 MSTORE POP POP JUMP JUMPDEST PUSH0 PUSH1 0x20 DUP3 ADD SWAP1 POP PUSH2 0x6C6 PUSH0 DUP4 ADD DUP5 PUSH2 0x6A4 JUMP JUMPDEST SWAP3 SWAP2 POP POP JUMP JUMPDEST PUSH0 PUSH1 0x20 DUP3 DUP5 SUB SLT ISZERO PUSH2 0x6E1 JUMPI PUSH2 0x6E0 PUSH2 0x4A3 JUMP JUMPDEST JUMPDEST PUSH0 DUP3 ADD CALLDATALOAD PUSH8 0xFFFFFFFFFFFFFFFF DUP2 GT ISZERO PUSH2 0x6FE JUMPI PUSH2 0x6FD PUSH2 0x4A7 JUMP JUMPDEST JUMPDEST PUSH2 0x70A DUP5 DUP3 DUP6 ADD PUSH2 0x5BA JUMP JUMPDEST SWAP2 POP POP SWAP3 SWAP2 POP POP JUMP JUMPDEST PUSH0 DUP2 SWAP1 POP SWAP2 SWAP1 POP JUMP JUMPDEST PUSH2 0x725 DUP2 PUSH2 0x713 JUMP JUMPDEST DUP3 MSTORE POP POP JUMP JUMPDEST PUSH0 PUSH1 0x20 DUP3 ADD SWAP1 POP PUSH2 0x73E PUSH0 DUP4 ADD DUP5 PUSH2 0x71C JUMP JUMPDEST SWAP3 SWAP2 POP POP JUMP JUMPDEST PUSH2 0x74D DUP2 PUSH2 0x69B JUMP JUMPDEST DUP2 EQ PUSH2 0x757 JUMPI PUSH0 PUSH0 REVERT JUMPDEST POP JUMP JUMPDEST PUSH0 DUP2 CALLDATALOAD SWAP1 POP PUSH2 0x768 DUP2 PUSH2 0x744 JUMP JUMPDEST SWAP3 SWAP2 POP POP JUMP JUMPDEST PUSH0 PUSH0 PUSH1 0x40 DUP4 DUP6 SUB SLT ISZERO PUSH2 0x784 JUMPI PUSH2 0x783 PUSH2 0x4A3 JUMP JUMPDEST JUMPDEST PUSH0 DUP4 ADD CALLDATALOAD PUSH8 0xFFFFFFFFFFFFFFFF DUP2 GT ISZERO PUSH2 0x7A1 JUMPI PUSH2 0x7A0 PUSH2 0x4A7 JUMP JUMPDEST JUMPDEST PUSH2 0x7AD DUP6 DUP3 DUP7 ADD PUSH2 0x5BA JUMP JUMPDEST SWAP3 POP POP PUSH1 0x20 PUSH2 0x7BE DUP6 DUP3 DUP7 ADD PUSH2 0x75A JUMP JUMPDEST SWAP2 POP POP SWAP3 POP SWAP3 SWAP1 POP JUMP JUMPDEST PUSH0 PUSH1 0x20 DUP3 DUP5 SUB SLT ISZERO PUSH2 0x7DD JUMPI PUSH2 0x7DC PUSH2 0x4A3 JUMP JUMPDEST JUMPDEST PUSH0 PUSH2 0x7EA DUP5 DUP3 DUP6 ADD PUSH2 0x75A JUMP JUMPDEST SWAP2 POP POP SWAP3 SWAP2 POP POP JUMP JUMPDEST PUSH0 DUP2 MLOAD SWAP1 POP SWAP2 SWAP1 POP JUMP JUMPDEST PUSH0 DUP3 DUP3 MSTORE PUSH1 0x20 DUP3 ADD SWAP1 POP SWAP3 SWAP2 POP POP JUMP JUMPDEST DUP3 DUP2 DUP4 MCOPY PUSH0 DUP4 DUP4 ADD MSTORE POP POP POP JUMP JUMPDEST PUSH0 PUSH2 0x825 DUP3 PUSH2 0x7F3 JUMP JUMPDEST PUSH2 0x82F DUP2 DUP6 PUSH2 0x7FD JUMP JUMPDEST SWAP4 POP PUSH2 0x83F DUP2 DUP6 PUSH1 0x20 DUP7 ADD PUSH2 0x80D JUMP JUMPDEST PUSH2 0x848 DUP2 PUSH2 0x4B3 JUMP JUMPDEST DUP5 ADD SWAP2 POP POP SWAP3 SWAP2 POP POP JUMP JUMPDEST PUSH2 0x85C DUP2 PUSH2 0x606 JUMP JUMPDEST DUP3 MSTORE POP POP JUMP JUMPDEST PUSH0 DUP2 ISZERO ISZERO SWAP1 POP SWAP2 SWAP1 POP JUMP JUMPDEST PUSH2 0x876 DUP2 PUSH2 0x862 JUMP JUMPDEST DUP3 MSTORE POP POP JUMP JUMPDEST PUSH0 PUSH1 0xA0 DUP3 ADD SWAP1 POP DUP2 DUP2 SUB PUSH0 DUP4 ADD MSTORE PUSH2 0x894 DUP2 DUP9 PUSH2 0x81B JUMP JUMPDEST SWAP1 POP PUSH2 0x8A3 PUSH1 0x20 DUP4 ADD DUP8 PUSH2 0x853 JUMP JUMPDEST PUSH2 0x8B0 PUSH1 0x40 DUP4 ADD DUP7 PUSH2 0x6A4 JUMP JUMPDEST PUSH2 0x8BD PUSH1 0x60 DUP4 ADD DUP6 PUSH2 0x6A4 JUMP JUMPDEST PUSH2 0x8CA PUSH1 0x80 DUP4 ADD DUP5 PUSH2 0x86D JUMP JUMPDEST SWAP7 SWAP6 POP POP POP POP POP POP JUMP JUMPDEST PUSH32 0x4E487B7100000000000000000000000000000000000000000000000000000000 PUSH0 MSTORE PUSH1 0x11 PUSH1 0x4 MSTORE PUSH1 0x24 PUSH0 REVERT JUMPDEST PUSH0 PUSH2 0x90B DUP3 PUSH2 0x69B JUMP JUMPDEST SWAP2 POP PUSH32 0xFFFFFFFFFFFFFFFFFFFFFFFFFFFFFFFFFFFFFFFFFFFFFFFFFFFFFFFFFFFFFFFF DUP3 SUB PUSH2 0x93D JUMPI PUSH2 0x93C PUSH2 0x8D4 JUMP JUMPDEST JUMPDEST PUSH1 0x1 DUP3 ADD SWAP1 POP SWAP2 SWAP1 POP JUMP JUMPDEST PUSH32 0x4E487B7100000000000000000000000000000000000000000000000000000000 PUSH0 MSTORE PUSH1 0x22 PUSH1 0x4 MSTORE PUSH1 0x24 PUSH0 REVERT JUMPDEST PUSH0 PUSH1 0x2 DUP3 DIV SWAP1 POP PUSH1 0x1 DUP3 AND DUP1 PUSH2 0x98C JUMPI PUSH1 0x7F DUP3 AND SWAP2 POP JUMPDEST PUSH1 0x20 DUP3 LT DUP2 SUB PUSH2 0x99F JUMPI PUSH2 0x99E PUSH2 0x948 JUMP JUMPDEST JUMPDEST POP SWAP2 SWAP1 POP JUMP JUMPDEST PUSH0 DUP2 SWAP1 POP DUP2 PUSH0 MSTORE PUSH1 0x20 PUSH0 KECCAK256 SWAP1 POP SWAP2 SWAP1 POP JUMP JUMPDEST PUSH0 PUSH1 0x20 PUSH1 0x1F DUP4 ADD DIV SWAP1 POP SWAP2 SWAP1 POP JUMP JUMPDEST PUSH0 DUP3 DUP3 SHL SWAP1 POP SWAP3 SWAP2 POP POP JUMP JUMPDEST PUSH0 PUSH1 0x8 DUP4 MUL PUSH2 0xA01 PUSH32 0xFFFFFFFFFFFFFFFFFFFFFFFFFFFFFFFFFFFFFFFFFFFFFFFFFFFFFFFFFFFFFFFF DUP3 PUSH2 0x9C6 JUMP JUMPDEST PUSH2 0xA0B DUP7 DUP4 PUSH2 0x9C6 JUMP JUMPDEST SWAP6 POP DUP1 NOT DUP5 AND SWAP4 POP DUP1 DUP7 AND DUP5 OR SWAP3 POP POP POP SWAP4 SWAP3 POP POP POP JUMP JUMPDEST PUSH0 DUP2 SWAP1 POP SWAP2 SWAP1 POP JUMP JUMPDEST PUSH0 PUSH2 0xA46 PUSH2 0xA41 PUSH2 0xA3C DUP5 PUSH2 0x69B JUMP JUMPDEST PUSH2 0xA23 JUMP JUMPDEST PUSH2 0x69B JUMP JUMPDEST SWAP1 POP SWAP2 SWAP1 POP JUMP JUMPDEST PUSH0 DUP2 SWAP1 POP SWAP2 SWAP1 POP JUMP JUMPDEST PUSH2 0xA5F DUP4 PUSH2 0xA2C JUMP JUMPDEST PUSH2 0xA73 PUSH2 0xA6B DUP3 PUSH2 0xA4D JUMP JUMPDEST DUP5 DUP5 SLOAD PUSH2 0x9D2 JUMP JUMPDEST DUP3 SSTORE POP POP POP POP JUMP JUMPDEST PUSH0 PUSH0 SWAP1 POP SWAP1 JUMP JUMPDEST PUSH2 0xA8A PUSH2 0xA7B JUMP JUMPDEST PUSH2 0xA95 DUP2 DUP5 DUP5 PUSH2 0xA56 JUMP JUMPDEST POP POP POP JUMP JUMPDEST JUMPDEST DUP2 DUP2 LT ISZERO PUSH2 0xAB8 JUMPI PUSH2 0xAAD PUSH0 DUP3 PUSH2 0xA82 JUMP JUMPDEST PUSH1 0x1 DUP2 ADD SWAP1 POP PUSH2 0xA9B JUMP JUMPDEST POP POP JUMP JUMPDEST PUSH1 0x1F DUP3 GT ISZERO PUSH2 0xAFD JUMPI PUSH2 0xACE DUP2 PUSH2 0x9A5 JUMP JUMPDEST PUSH2 0xAD7 DUP5 PUSH2 0x9B7 JUMP JUMPDEST DUP2 ADD PUSH1 0x20 DUP6 LT ISZERO PUSH2 0xAE6 JUMPI DUP2 SWAP1 POP JUMPDEST PUSH2 0xAFA PUSH2 0xAF2 DUP6 PUSH2 0x9B7 JUMP JUMPDEST DUP4 ADD DUP3 PUSH2 0xA9A JUMP JUMPDEST POP POP JUMPDEST POP POP POP JUMP JUMPDEST PUSH0 DUP3 DUP3 SHR SWAP1 POP SWAP3 SWAP2 POP POP JUMP JUMPDEST PUSH0 PUSH2 0xB1D PUSH0 NOT DUP5 PUSH1 0x8 MUL PUSH2 0xB02 JUMP JUMPDEST NOT DUP1 DUP4 AND SWAP2 POP POP SWAP3 SWAP2 POP POP JUMP JUMPDEST PUSH0 PUSH2 0xB35 DUP4 DUP4 PUSH2 0xB0E JUMP JUMPDEST SWAP2 POP DUP3 PUSH1 0x2 MUL DUP3 OR SWAP1 POP SWAP3 SWAP2 POP POP JUMP JUMPDEST PUSH2 0xB4E DUP3 PUSH2 0x7F3 JUMP JUMPDEST PUSH8 0xFFFFFFFFFFFFFFFF DUP2 GT ISZERO PUSH2 0xB67 JUMPI PUSH2 0xB66 PUSH2 0x4C3 JUMP JUMPDEST JUMPDEST PUSH2 0xB71 DUP3 SLOAD PUSH2 0x975 JUMP JUMPDEST PUSH2 0xB7C DUP3 DUP3 DUP6 PUSH2 0xABC JUMP JUMPDEST PUSH0 PUSH1 0x20 SWAP1 POP PUSH1 0x1F DUP4 GT PUSH1 0x1 DUP2 EQ PUSH2 0xBAD JUMPI PUSH0 DUP5 ISZERO PUSH2 0xB9B JUMPI DUP3 DUP8 ADD MLOAD SWAP1 POP JUMPDEST PUSH2 0xBA5 DUP6 DUP3 PUSH2 0xB2A JUMP JUMPDEST DUP7 SSTORE POP PUSH2 0xC0C JUMP JUMPDEST PUSH1 0x1F NOT DUP5 AND PUSH2 0xBBB DUP7 PUSH2 0x9A5 JUMP JUMPDEST PUSH0 JUMPDEST DUP3 DUP2 LT ISZERO PUSH2 0xBE2 JUMPI DUP5 DUP10 ADD MLOAD DUP3 SSTORE PUSH1 0x1 DUP3 ADD SWAP2 POP PUSH1 0x20 DUP6 ADD SWAP5 POP PUSH1 0x20 DUP2 ADD SWAP1 POP PUSH2 0xBBD JUMP JUMPDEST DUP7 DUP4 LT ISZERO PUSH2 0xBFF JUMPI DUP5 DUP10 ADD MLOAD PUSH2 0xBFB PUSH1 0x1F DUP10 AND DUP3 PUSH2 0xB0E JUMP JUMPDEST DUP4 SSTORE POP JUMPDEST PUSH1 0x1 PUSH1 0x2 DUP9 MUL ADD DUP9 SSTORE POP POP POP JUMPDEST POP POP POP POP POP POP JUMP JUMPDEST PUSH0 DUP2 SWAP1 POP SWAP2 SWAP1 POP JUMP JUMPDEST PUSH0 PUSH2 0xC37 PUSH2 0xC32 PUSH2 0xC2D DUP5 PUSH2 0xC14 JUMP JUMPDEST PUSH2 0xA23 JUMP JUMPDEST PUSH2 0x69B JUMP JUMPDEST SWAP1 POP SWAP2 SWAP1 POP JUMP JUMPDEST PUSH2 0xC47 DUP2 PUSH2 0xC1D JUMP JUMPDEST DUP3 MSTORE POP POP JUMP JUMPDEST PUSH0 DUP2 SWAP1 POP SWAP2 SWAP1 POP JUMP JUMPDEST PUSH0 PUSH2 0xC70 PUSH2 0xC6B PUSH2 0xC66 DUP5 PUSH2 0xC4D JUMP JUMPDEST PUSH2 0xA23 JUMP JUMPDEST PUSH2 0x69B JUMP JUMPDEST SWAP1 POP SWAP2 SWAP1 POP JUMP JUMPDEST PUSH2 0xC80 DUP2 PUSH2 0xC56 JUMP JUMPDEST DUP3 MSTORE POP POP JUMP JUMPDEST PUSH0 PUSH1 0xC0 DUP3 ADD SWAP1 POP PUSH2 0xC99 PUSH0 DUP4 ADD DUP10 PUSH2 0x6A4 JUMP JUMPDEST DUP2 DUP2 SUB PUSH1 0x20 DUP4 ADD MSTORE PUSH2 0xCAB DUP2 DUP9 PUSH2 0x81B JUMP JUMPDEST SWAP1 POP PUSH2 0xCBA PUSH1 0x40 DUP4 ADD DUP8 PUSH2 0x853 JUMP JUMPDEST PUSH2 0xCC7 PUSH1 0x60 DUP4 ADD DUP7 PUSH2 0xC3E JUMP JUMPDEST PUSH2 0xCD4 PUSH1 0x80 DUP4 ADD DUP6 PUSH2 0xC77 JUMP JUMPDEST PUSH2 0xCE1 PUSH1 0xA0 DUP4 ADD DUP5 PUSH2 0x86D JUMP JUMPDEST SWAP8 SWAP7 POP POP POP POP POP POP POP JUMP JUMPDEST PUSH0 PUSH2 0xCF6 DUP3 PUSH2 0x69B JUMP JUMPDEST SWAP2 POP PUSH2 0xD01 DUP4 PUSH2 0x69B JUMP JUMPDEST SWAP3 POP DUP3 DUP3 ADD SWAP1 POP DUP1 DUP3 GT ISZERO PUSH2 0xD19 JUMPI PUSH2 0xD18 PUSH2 0x8D4 JUMP JUMPDEST JUMPDEST SWAP3 SWAP2 POP POP JUMP JUMPDEST PUSH0 DUP2 SWAP1 POP SWAP3 SWAP2 POP POP JUMP JUMPDEST PUSH0 PUSH2 0xD33 DUP3 PUSH2 0x7F3 JUMP JUMPDEST PUSH2 0xD3D DUP2 DUP6 PUSH2 0xD1F JUMP JUMPDEST SWAP4 POP PUSH2 0xD4D DUP2 DUP6 PUSH1 0x20 DUP7 ADD PUSH2 0x80D JUMP JUMPDEST DUP1 DUP5 ADD SWAP2 POP POP SWAP3 SWAP2 POP POP JUMP JUMPDEST PUSH0 PUSH2 0xD64 DUP3 DUP5 PUSH2 0xD29 JUMP JUMPDEST SWAP2 POP DUP2 SWAP1 POP SWAP3 SWAP2 POP POP JUMP JUMPDEST PUSH0 DUP2 SLOAD PUSH2 0xD7B DUP2 PUSH2 0x975 JUMP JUMPDEST PUSH2 0xD85 DUP2 DUP7 PUSH2 0xD1F JUMP JUMPDEST SWAP5 POP PUSH1 0x1 DUP3 AND PUSH0 DUP2 EQ PUSH2 0xD9F JUMPI PUSH1 0x1 DUP2 EQ PUSH2 0xDB4 JUMPI PUSH2 0xDE6 JUMP JUMPDEST PUSH1 0xFF NOT DUP4 AND DUP7 MSTORE DUP2 ISZERO ISZERO DUP3 MUL DUP7 ADD SWAP4 POP PUSH2 0xDE6 JUMP JUMPDEST PUSH2 0xDBD DUP6 PUSH2 0x9A5 JUMP JUMPDEST PUSH0 JUMPDEST DUP4 DUP2 LT ISZERO PUSH2 0xDDE JUMPI DUP2 SLOAD DUP2 DUP10 ADD MSTORE PUSH1 0x1 DUP3 ADD SWAP2 POP PUSH1 0x20 DUP2 ADD SWAP1 POP PUSH2 0xDBF JUMP JUMPDEST DUP4 DUP9 ADD SWAP6 POP POP POP JUMPDEST POP POP POP SWAP3 SWAP2 POP POP JUMP JUMPDEST PUSH0 PUSH2 0xDFA DUP3 DUP5 PUSH2 0xD6F JUMP JUMPDEST SWAP2 POP DUP2 SWAP1 POP SWAP3 SWAP2 POP POP JUMP INVALID LOG2 PUSH5 0x6970667358 0x22 SLT KECCAK256 SMOD EXP 0xDB PUSH20 0x4AA165967E30A136820FB14A0C9D39038E7B89BA SDIV BLOBBASEFEE 0xCC 0x4D 0xC5 PUSH10 0x578D64736F6C63430008 0x1E STOP CALLER "
		},
		"gasEstimates": {
			"creation": {
				"codeDepositCost": "728600",
				"executionCost": "758",
				"totalCost": "729358"
			},
			"external": {
				"addCharity(string,address)": "infinite",
				"charities(uint256)": "infinite",
				"charityCount()": "2424",
				"charityExists(string)": "infinite",
				"contributeFunds(string,uint256)": "infinite"
			}
		},
		"methodIdentifiers": {
			"addCharity(string,address)": "1ab91517",
			"charities(uint256)": "fb709d2e",
			"charityCount()": "91329493",
			"charityExists(string)": "9d32c186",
			"contributeFunds(string,uint256)": "f25d75e7"
		}
	},
	"abi": [
		{
			"anonymous": false,
			"inputs": [
				{
					"indexed": false,
					"internalType": "uint256",
					"name": "charityID",
					"type": "uint256"
				},
				{
					"indexed": false,
					"internalType": "string",
					"name": "name",
					"type": "string"
				},
				{
					"indexed": false,
					"internalType": "address",
					"name": "charityAddress",
					"type": "address"
				},
				{
					"indexed": false,
					"internalType": "uint256",
					"name": "totalRaised",
					"type": "uint256"
				},
				{
					"indexed": false,
					"internalType": "uint256",
					"name": "targetDonation",
					"type": "uint256"
				},
				{
					"indexed": false,
					"internalType": "bool",
					"name": "fundsLocked",
					"type": "bool"
				}
			],
			"name": "CharityCreated",
			"type": "event"
		},
		{
			"inputs": [
				{
					"internalType": "string",
					"name": "_name",
					"type": "string"
				},
				{
					"internalType": "address",
					"name": "_charityAddress",
					"type": "address"
				}
			],
			"name": "addCharity",
			"outputs": [],
			"stateMutability": "nonpayable",
			"type": "function"
		},
		{
			"inputs": [
				{
					"internalType": "uint256",
					"name": "",
					"type": "uint256"
				}
			],
			"name": "charities",
			"outputs": [
				{
					"internalType": "string",
					"name": "name",
					"type": "string"
				},
				{
					"internalType": "address",
					"name": "charityAddress",
					"type": "address"
				},
				{
					"internalType": "uint256",
					"name": "totalRaised",
					"type": "uint256"
				},
				{
					"internalType": "uint256",
					"name": "targetDonation",
					"type": "uint256"
				},
				{
					"internalType": "bool",
					"name": "fundsLocked",
					"type": "bool"
				}
			],
			"stateMutability": "view",
			"type": "function"
		},
		{
			"inputs": [],
			"name": "charityCount",
			"outputs": [
				{
					"internalType": "uint256",
					"name": "",
					"type": "uint256"
				}
			],
			"stateMutability": "view",
			"type": "function"
		},
		{
			"inputs": [
				{
					"internalType": "string",
					"name": "_charity",
					"type": "string"
				}
			],
			"name": "charityExists",
			"outputs": [
				{
					"internalType": "int256",
					"name": "",
					"type": "int256"
				}
			],
			"stateMutability": "view",
			"type": "function"
		},
		{
			"inputs": [
				{
					"internalType": "string",
					"name": "_charity",
					"type": "string"
				},
				{
					"internalType": "uint256",
					"name": "_amount",
					"type": "uint256"
				}
			],
			"name": "contributeFunds",
			"outputs": [],
			"stateMutability": "nonpayable",
			"type": "function"
		}
	]
}