{
	"data": {
		"bytecode": {
			"linkReferences": {},
			"object": "608060405234801561000f575f5ffd5b50604051610fde380380610fde83398181016040528101906100319190610182565b8060025f6101000a81548173ffffffffffffffffffffffffffffffffffffffff021916908373ffffffffffffffffffffffffffffffffffffffff16021790555060025f9054906101000a900473ffffffffffffffffffffffffffffffffffffffff1673ffffffffffffffffffffffffffffffffffffffff16636e3b47fc6040518163ffffffff1660e01b81526004015f60405180830381865afa1580156100da573d5f5f3e3d5ffd5b505050506040513d5f823e3d601f19601f8201168201806040525081019061010291906102e9565b600190816101109190610540565b505061060f565b5f604051905090565b5f5ffd5b5f5ffd5b5f73ffffffffffffffffffffffffffffffffffffffff82169050919050565b5f61015182610128565b9050919050565b61016181610147565b811461016b575f5ffd5b50565b5f8151905061017c81610158565b92915050565b5f6020828403121561019757610196610120565b5b5f6101a48482850161016e565b91505092915050565b5f5ffd5b5f5ffd5b5f601f19601f8301169050919050565b7f4e487b71000000000000000000000000000000000000000000000000000000005f52604160045260245ffd5b6101fb826101b5565b810181811067ffffffffffffffff8211171561021a576102196101c5565b5b80604052505050565b5f61022c610117565b905061023882826101f2565b919050565b5f67ffffffffffffffff821115610257576102566101c5565b5b610260826101b5565b9050602081019050919050565b8281835e5f83830152505050565b5f61028d6102888461023d565b610223565b9050828152602081018484840111156102a9576102a86101b1565b5b6102b484828561026d565b509392505050565b5f82601f8301126102d0576102cf6101ad565b5b81516102e084826020860161027b565b91505092915050565b5f602082840312156102fe576102fd610120565b5b5f82015167ffffffffffffffff81111561031b5761031a610124565b5b610327848285016102bc565b91505092915050565b5f81519050919050565b7f4e487b71000000000000000000000000000000000000000000000000000000005f52602260045260245ffd5b5f600282049050600182168061037e57607f821691505b6020821081036103915761039061033a565b5b50919050565b5f819050815f5260205f209050919050565b5f6020601f8301049050919050565b5f82821b905092915050565b5f600883026103f37fffffffffffffffffffffffffffffffffffffffffffffffffffffffffffffffff826103b8565b6103fd86836103b8565b95508019841693508086168417925050509392505050565b5f819050919050565b5f819050919050565b5f61044161043c61043784610415565b61041e565b610415565b9050919050565b5f819050919050565b61045a83610427565b61046e61046682610448565b8484546103c4565b825550505050565b5f5f905090565b610485610476565b610490818484610451565b505050565b5b818110156104b3576104a85f8261047d565b600181019050610496565b5050565b601f8211156104f8576104c981610397565b6104d2846103a9565b810160208510156104e1578190505b6104f56104ed856103a9565b830182610495565b50505b505050565b5f82821c905092915050565b5f6105185f19846008026104fd565b1980831691505092915050565b5f6105308383610509565b9150826002028217905092915050565b61054982610330565b67ffffffffffffffff811115610562576105616101c5565b5b61056c8254610367565b6105778282856104b7565b5f60209050601f8311600181146105a8575f8415610596578287015190505b6105a08582610525565b865550610607565b601f1984166105b686610397565b5f5b828110156105dd578489015182556001820191506020850194506020810190506105b8565b868310156105fa57848901516105f6601f891682610509565b8355505b6001600288020188555050505b505050505050565b6109c28061061c5f395ff3fe608060405234801561000f575f5ffd5b506004361061004a575f3560e01c8063913294931461004e5780639d32c1861461006c578063f25d75e71461009c578063fb709d2e146100b8575b5f5ffd5b6100566100ec565b60405161006391906103d1565b60405180910390f35b61008660048036038101906100819190610537565b6100f1565b6040516100939190610596565b60405180910390f35b6100b660048036038101906100b191906105d9565b6101b7565b005b6100d260048036038101906100cd9190610633565b6102d6565b6040516100e3959493929190610717565b60405180910390f35b5f5481565b5f5f600190505b60015f54610106919061079c565b81101561018d578260405160200161011e9190610809565b6040516020818303038152906040528051906020012060035f8381526020019081526020015f205f01604051602001610157919061090e565b6040516020818303038152906040528051906020012003610180575f81905080925050506101b2565b80806001019150506100f8565b507fffffffffffffffffffffffffffffffffffffffffffffffffffffffffffffffff90505b919050565b7f646f6e6f7200000000000000000000000000000000000000000000000000000060016040516020016101ea919061090e565b6040516020818303038152906040528051906020012014610240576040517f08c379a00000000000000000000000000000000000000000000000000000000081526004016102379061096e565b60405180910390fd5b5f61024a836100f1565b90507fffffffffffffffffffffffffffffffffffffffffffffffffffffffffffffffff8103610277575f5ffd5b5f60035f8381526020019081526020015f20905082816002015f82825461029e919061079c565b9250508190555080600301548160020154106102d0575f816004015f6101000a81548160ff0219169083151502179055505b50505050565b6003602052805f5260405f205f91509050805f0180546102f59061084c565b80601f01602080910402602001604051908101604052809291908181526020018280546103219061084c565b801561036c5780601f106103435761010080835404028352916020019161036c565b820191905f5260205f20905b81548152906001019060200180831161034f57829003601f168201915b505050505090806001015f9054906101000a900473ffffffffffffffffffffffffffffffffffffffff1690806002015490806003015490806004015f9054906101000a900460ff16905085565b5f819050919050565b6103cb816103b9565b82525050565b5f6020820190506103e45f8301846103c2565b92915050565b5f604051905090565b5f5ffd5b5f5ffd5b5f5ffd5b5f5ffd5b5f601f19601f8301169050919050565b7f4e487b71000000000000000000000000000000000000000000000000000000005f52604160045260245ffd5b61044982610403565b810181811067ffffffffffffffff8211171561046857610467610413565b5b80604052505050565b5f61047a6103ea565b90506104868282610440565b919050565b5f67ffffffffffffffff8211156104a5576104a4610413565b5b6104ae82610403565b9050602081019050919050565b828183375f83830152505050565b5f6104db6104d68461048b565b610471565b9050828152602081018484840111156104f7576104f66103ff565b5b6105028482856104bb565b509392505050565b5f82601f83011261051e5761051d6103fb565b5b813561052e8482602086016104c9565b91505092915050565b5f6020828403121561054c5761054b6103f3565b5b5f82013567ffffffffffffffff811115610569576105686103f7565b5b6105758482850161050a565b91505092915050565b5f819050919050565b6105908161057e565b82525050565b5f6020820190506105a95f830184610587565b92915050565b6105b8816103b9565b81146105c2575f5ffd5b50565b5f813590506105d3816105af565b92915050565b5f5f604083850312156105ef576105ee6103f3565b5b5f83013567ffffffffffffffff81111561060c5761060b6103f7565b5b6106188582860161050a565b9250506020610629858286016105c5565b9150509250929050565b5f60208284031215610648576106476103f3565b5b5f610655848285016105c5565b91505092915050565b5f81519050919050565b5f82825260208201905092915050565b8281835e5f83830152505050565b5f6106908261065e565b61069a8185610668565b93506106aa818560208601610678565b6106b381610403565b840191505092915050565b5f73ffffffffffffffffffffffffffffffffffffffff82169050919050565b5f6106e7826106be565b9050919050565b6106f7816106dd565b82525050565b5f8115159050919050565b610711816106fd565b82525050565b5f60a0820190508181035f83015261072f8188610686565b905061073e60208301876106ee565b61074b60408301866103c2565b61075860608301856103c2565b6107656080830184610708565b9695505050505050565b7f4e487b71000000000000000000000000000000000000000000000000000000005f52601160045260245ffd5b5f6107a6826103b9565b91506107b1836103b9565b92508282019050808211156107c9576107c861076f565b5b92915050565b5f81905092915050565b5f6107e38261065e565b6107ed81856107cf565b93506107fd818560208601610678565b80840191505092915050565b5f61081482846107d9565b915081905092915050565b7f4e487b71000000000000000000000000000000000000000000000000000000005f52602260045260245ffd5b5f600282049050600182168061086357607f821691505b6020821081036108765761087561081f565b5b50919050565b5f819050815f5260205f209050919050565b5f815461089a8161084c565b6108a481866107cf565b9450600182165f81146108be57600181146108d357610905565b60ff1983168652811515820286019350610905565b6108dc8561087c565b5f5b838110156108fd578154818901526001820191506020810190506108de565b838801955050505b50505092915050565b5f610919828461088e565b915081905092915050565b7f4e6f7420612076616c696420646f6e6f720000000000000000000000000000005f82015250565b5f610958601183610668565b915061096382610924565b602082019050919050565b5f6020820190508181035f8301526109858161094c565b905091905056fea2646970667358221220f1d022e0fb96126c600f8a08ed80a07f2e617efbb78c52b755f4a223b1624e5164736f6c634300081e0033",
			"opcodes": "PUSH1 0x80 PUSH1 0x40 MSTORE CALLVALUE DUP1 ISZERO PUSH2 0xF JUMPI PUSH0 PUSH0 REVERT JUMPDEST POP PUSH1 0x40 MLOAD PUSH2 0xFDE CODESIZE SUB DUP1 PUSH2 0xFDE DUP4 CODECOPY DUP2 DUP2 ADD PUSH1 0x40 MSTORE DUP2 ADD SWAP1 PUSH2 0x31 SWAP2 SWAP1 PUSH2 0x182 JUMP JUMPDEST DUP1 PUSH1 0x2 PUSH0 PUSH2 0x100 EXP DUP2 SLOAD DUP2 PUSH20 0xFFFFFFFFFFFFFFFFFFFFFFFFFFFFFFFFFFFFFFFF MUL NOT AND SWAP1 DUP4 PUSH20 0xFFFFFFFFFFFFFFFFFFFFFFFFFFFFFFFFFFFFFFFF AND MUL OR SWAP1 SSTORE POP PUSH1 0x2 PUSH0 SWAP1 SLOAD SWAP1 PUSH2 0x100 EXP SWAP1 DIV PUSH20 0xFFFFFFFFFFFFFFFFFFFFFFFFFFFFFFFFFFFFFFFF AND PUSH20 0xFFFFFFFFFFFFFFFFFFFFFFFFFFFFFFFFFFFFFFFF AND PUSH4 0x6E3B47FC PUSH1 0x40 MLOAD DUP2 PUSH4 0xFFFFFFFF AND PUSH1 0xE0 SHL DUP2 MSTORE PUSH1 0x4 ADD PUSH0 PUSH1 0x40 MLOAD DUP1 DUP4 SUB DUP2 DUP7 GAS STATICCALL ISZERO DUP1 ISZERO PUSH2 0xDA JUMPI RETURNDATASIZE PUSH0 PUSH0 RETURNDATACOPY RETURNDATASIZE PUSH0 REVERT JUMPDEST POP POP POP POP PUSH1 0x40 MLOAD RETURNDATASIZE PUSH0 DUP3 RETURNDATACOPY RETURNDATASIZE PUSH1 0x1F NOT PUSH1 0x1F DUP3 ADD AND DUP3 ADD DUP1 PUSH1 0x40 MSTORE POP DUP2 ADD SWAP1 PUSH2 0x102 SWAP2 SWAP1 PUSH2 0x2E9 JUMP JUMPDEST PUSH1 0x1 SWAP1 DUP2 PUSH2 0x110 SWAP2 SWAP1 PUSH2 0x540 JUMP JUMPDEST POP POP PUSH2 0x60F JUMP JUMPDEST PUSH0 PUSH1 0x40 MLOAD SWAP1 POP SWAP1 JUMP JUMPDEST PUSH0 PUSH0 REVERT JUMPDEST PUSH0 PUSH0 REVERT JUMPDEST PUSH0 PUSH20 0xFFFFFFFFFFFFFFFFFFFFFFFFFFFFFFFFFFFFFFFF DUP3 AND SWAP1 POP SWAP2 SWAP1 POP JUMP JUMPDEST PUSH0 PUSH2 0x151 DUP3 PUSH2 0x128 JUMP JUMPDEST SWAP1 POP SWAP2 SWAP1 POP JUMP JUMPDEST PUSH2 0x161 DUP2 PUSH2 0x147 JUMP JUMPDEST DUP2 EQ PUSH2 0x16B JUMPI PUSH0 PUSH0 REVERT JUMPDEST POP JUMP JUMPDEST PUSH0 DUP2 MLOAD SWAP1 POP PUSH2 0x17C DUP2 PUSH2 0x158 JUMP JUMPDEST SWAP3 SWAP2 POP POP JUMP JUMPDEST PUSH0 PUSH1 0x20 DUP3 DUP5 SUB SLT ISZERO PUSH2 0x197 JUMPI PUSH2 0x196 PUSH2 0x120 JUMP JUMPDEST JUMPDEST PUSH0 PUSH2 0x1A4 DUP5 DUP3 DUP6 ADD PUSH2 0x16E JUMP JUMPDEST SWAP2 POP POP SWAP3 SWAP2 POP POP JUMP JUMPDEST PUSH0 PUSH0 REVERT JUMPDEST PUSH0 PUSH0 REVERT JUMPDEST PUSH0 PUSH1 0x1F NOT PUSH1 0x1F DUP4 ADD AND SWAP1 POP SWAP2 SWAP1 POP JUMP JUMPDEST PUSH32 0x4E487B7100000000000000000000000000000000000000000000000000000000 PUSH0 MSTORE PUSH1 0x41 PUSH1 0x4 MSTORE PUSH1 0x24 PUSH0 REVERT JUMPDEST PUSH2 0x1FB DUP3 PUSH2 0x1B5 JUMP JUMPDEST DUP2 ADD DUP2 DUP2 LT PUSH8 0xFFFFFFFFFFFFFFFF DUP3 GT OR ISZERO PUSH2 0x21A JUMPI PUSH2 0x219 PUSH2 0x1C5 JUMP JUMPDEST JUMPDEST DUP1 PUSH1 0x40 MSTORE POP POP POP JUMP JUMPDEST PUSH0 PUSH2 0x22C PUSH2 0x117 JUMP JUMPDEST SWAP1 POP PUSH2 0x238 DUP3 DUP3 PUSH2 0x1F2 JUMP JUMPDEST SWAP2 SWAP1 POP JUMP JUMPDEST PUSH0 PUSH8 0xFFFFFFFFFFFFFFFF DUP3 GT ISZERO PUSH2 0x257 JUMPI PUSH2 0x256 PUSH2 0x1C5 JUMP JUMPDEST JUMPDEST PUSH2 0x260 DUP3 PUSH2 0x1B5 JUMP JUMPDEST SWAP1 POP PUSH1 0x20 DUP2 ADD SWAP1 POP SWAP2 SWAP1 POP JUMP JUMPDEST DUP3 DUP2 DUP4 MCOPY PUSH0 DUP4 DUP4 ADD MSTORE POP POP POP JUMP JUMPDEST PUSH0 PUSH2 0x28D PUSH2 0x288 DUP5 PUSH2 0x23D JUMP JUMPDEST PUSH2 0x223 JUMP JUMPDEST SWAP1 POP DUP3 DUP2 MSTORE PUSH1 0x20 DUP2 ADD DUP5 DUP5 DUP5 ADD GT ISZERO PUSH2 0x2A9 JUMPI PUSH2 0x2A8 PUSH2 0x1B1 JUMP JUMPDEST JUMPDEST PUSH2 0x2B4 DUP5 DUP3 DUP6 PUSH2 0x26D JUMP JUMPDEST POP SWAP4 SWAP3 POP POP POP JUMP JUMPDEST PUSH0 DUP3 PUSH1 0x1F DUP4 ADD SLT PUSH2 0x2D0 JUMPI PUSH2 0x2CF PUSH2 0x1AD JUMP JUMPDEST JUMPDEST DUP2 MLOAD PUSH2 0x2E0 DUP5 DUP3 PUSH1 0x20 DUP7 ADD PUSH2 0x27B JUMP JUMPDEST SWAP2 POP POP SWAP3 SWAP2 POP POP JUMP JUMPDEST PUSH0 PUSH1 0x20 DUP3 DUP5 SUB SLT ISZERO PUSH2 0x2FE JUMPI PUSH2 0x2FD PUSH2 0x120 JUMP JUMPDEST JUMPDEST PUSH0 DUP3 ADD MLOAD PUSH8 0xFFFFFFFFFFFFFFFF DUP2 GT ISZERO PUSH2 0x31B JUMPI PUSH2 0x31A PUSH2 0x124 JUMP JUMPDEST JUMPDEST PUSH2 0x327 DUP5 DUP3 DUP6 ADD PUSH2 0x2BC JUMP JUMPDEST SWAP2 POP POP SWAP3 SWAP2 POP POP JUMP JUMPDEST PUSH0 DUP2 MLOAD SWAP1 POP SWAP2 SWAP1 POP JUMP JUMPDEST PUSH32 0x4E487B7100000000000000000000000000000000000000000000000000000000 PUSH0 MSTORE PUSH1 0x22 PUSH1 0x4 MSTORE PUSH1 0x24 PUSH0 REVERT JUMPDEST PUSH0 PUSH1 0x2 DUP3 DIV SWAP1 POP PUSH1 0x1 DUP3 AND DUP1 PUSH2 0x37E JUMPI PUSH1 0x7F DUP3 AND SWAP2 POP JUMPDEST PUSH1 0x20 DUP3 LT DUP2 SUB PUSH2 0x391 JUMPI PUSH2 0x390 PUSH2 0x33A JUMP JUMPDEST JUMPDEST POP SWAP2 SWAP1 POP JUMP JUMPDEST PUSH0 DUP2 SWAP1 POP DUP2 PUSH0 MSTORE PUSH1 0x20 PUSH0 KECCAK256 SWAP1 POP SWAP2 SWAP1 POP JUMP JUMPDEST PUSH0 PUSH1 0x20 PUSH1 0x1F DUP4 ADD DIV SWAP1 POP SWAP2 SWAP1 POP JUMP JUMPDEST PUSH0 DUP3 DUP3 SHL SWAP1 POP SWAP3 SWAP2 POP POP JUMP JUMPDEST PUSH0 PUSH1 0x8 DUP4 MUL PUSH2 0x3F3 PUSH32 0xFFFFFFFFFFFFFFFFFFFFFFFFFFFFFFFFFFFFFFFFFFFFFFFFFFFFFFFFFFFFFFFF DUP3 PUSH2 0x3B8 JUMP JUMPDEST PUSH2 0x3FD DUP7 DUP4 PUSH2 0x3B8 JUMP JUMPDEST SWAP6 POP DUP1 NOT DUP5 AND SWAP4 POP DUP1 DUP7 AND DUP5 OR SWAP3 POP POP POP SWAP4 SWAP3 POP POP POP JUMP JUMPDEST PUSH0 DUP2 SWAP1 POP SWAP2 SWAP1 POP JUMP JUMPDEST PUSH0 DUP2 SWAP1 POP SWAP2 SWAP1 POP JUMP JUMPDEST PUSH0 PUSH2 0x441 PUSH2 0x43C PUSH2 0x437 DUP5 PUSH2 0x415 JUMP JUMPDEST PUSH2 0x41E JUMP JUMPDEST PUSH2 0x415 JUMP JUMPDEST SWAP1 POP SWAP2 SWAP1 POP JUMP JUMPDEST PUSH0 DUP2 SWAP1 POP SWAP2 SWAP1 POP JUMP JUMPDEST PUSH2 0x45A DUP4 PUSH2 0x427 JUMP JUMPDEST PUSH2 0x46E PUSH2 0x466 DUP3 PUSH2 0x448 JUMP JUMPDEST DUP5 DUP5 SLOAD PUSH2 0x3C4 JUMP JUMPDEST DUP3 SSTORE POP POP POP POP JUMP JUMPDEST PUSH0 PUSH0 SWAP1 POP SWAP1 JUMP JUMPDEST PUSH2 0x485 PUSH2 0x476 JUMP JUMPDEST PUSH2 0x490 DUP2 DUP5 DUP5 PUSH2 0x451 JUMP JUMPDEST POP POP POP JUMP JUMPDEST JUMPDEST DUP2 DUP2 LT ISZERO PUSH2 0x4B3 JUMPI PUSH2 0x4A8 PUSH0 DUP3 PUSH2 0x47D JUMP JUMPDEST PUSH1 0x1 DUP2 ADD SWAP1 POP PUSH2 0x496 JUMP JUMPDEST POP POP JUMP JUMPDEST PUSH1 0x1F DUP3 GT ISZERO PUSH2 0x4F8 JUMPI PUSH2 0x4C9 DUP2 PUSH2 0x397 JUMP JUMPDEST PUSH2 0x4D2 DUP5 PUSH2 0x3A9 JUMP JUMPDEST DUP2 ADD PUSH1 0x20 DUP6 LT ISZERO PUSH2 0x4E1 JUMPI DUP2 SWAP1 POP JUMPDEST PUSH2 0x4F5 PUSH2 0x4ED DUP6 PUSH2 0x3A9 JUMP JUMPDEST DUP4 ADD DUP3 PUSH2 0x495 JUMP JUMPDEST POP POP JUMPDEST POP POP POP JUMP JUMPDEST PUSH0 DUP3 DUP3 SHR SWAP1 POP SWAP3 SWAP2 POP POP JUMP JUMPDEST PUSH0 PUSH2 0x518 PUSH0 NOT DUP5 PUSH1 0x8 MUL PUSH2 0x4FD JUMP JUMPDEST NOT DUP1 DUP4 AND SWAP2 POP POP SWAP3 SWAP2 POP POP JUMP JUMPDEST PUSH0 PUSH2 0x530 DUP4 DUP4 PUSH2 0x509 JUMP JUMPDEST SWAP2 POP DUP3 PUSH1 0x2 MUL DUP3 OR SWAP1 POP SWAP3 SWAP2 POP POP JUMP JUMPDEST PUSH2 0x549 DUP3 PUSH2 0x330 JUMP JUMPDEST PUSH8 0xFFFFFFFFFFFFFFFF DUP2 GT ISZERO PUSH2 0x562 JUMPI PUSH2 0x561 PUSH2 0x1C5 JUMP JUMPDEST JUMPDEST PUSH2 0x56C DUP3 SLOAD PUSH2 0x367 JUMP JUMPDEST PUSH2 0x577 DUP3 DUP3 DUP6 PUSH2 0x4B7 JUMP JUMPDEST PUSH0 PUSH1 0x20 SWAP1 POP PUSH1 0x1F DUP4 GT PUSH1 0x1 DUP2 EQ PUSH2 0x5A8 JUMPI PUSH0 DUP5 ISZERO PUSH2 0x596 JUMPI DUP3 DUP8 ADD MLOAD SWAP1 POP JUMPDEST PUSH2 0x5A0 DUP6 DUP3 PUSH2 0x525 JUMP JUMPDEST DUP7 SSTORE POP PUSH2 0x607 JUMP JUMPDEST PUSH1 0x1F NOT DUP5 AND PUSH2 0x5B6 DUP7 PUSH2 0x397 JUMP JUMPDEST PUSH0 JUMPDEST DUP3 DUP2 LT ISZERO PUSH2 0x5DD JUMPI DUP5 DUP10 ADD MLOAD DUP3 SSTORE PUSH1 0x1 DUP3 ADD SWAP2 POP PUSH1 0x20 DUP6 ADD SWAP5 POP PUSH1 0x20 DUP2 ADD SWAP1 POP PUSH2 0x5B8 JUMP JUMPDEST DUP7 DUP4 LT ISZERO PUSH2 0x5FA JUMPI DUP5 DUP10 ADD MLOAD PUSH2 0x5F6 PUSH1 0x1F DUP10 AND DUP3 PUSH2 0x509 JUMP JUMPDEST DUP4 SSTORE POP JUMPDEST PUSH1 0x1 PUSH1 0x2 DUP9 MUL ADD DUP9 SSTORE POP POP POP JUMPDEST POP POP POP POP POP POP JUMP JUMPDEST PUSH2 0x9C2 DUP1 PUSH2 0x61C PUSH0 CODECOPY PUSH0 RETURN INVALID PUSH1 0x80 PUSH1 0x40 MSTORE CALLVALUE DUP1 ISZERO PUSH2 0xF JUMPI PUSH0 PUSH0 REVERT JUMPDEST POP PUSH1 0x4 CALLDATASIZE LT PUSH2 0x4A JUMPI PUSH0 CALLDATALOAD PUSH1 0xE0 SHR DUP1 PUSH4 0x91329493 EQ PUSH2 0x4E JUMPI DUP1 PUSH4 0x9D32C186 EQ PUSH2 0x6C JUMPI DUP1 PUSH4 0xF25D75E7 EQ PUSH2 0x9C JUMPI DUP1 PUSH4 0xFB709D2E EQ PUSH2 0xB8 JUMPI JUMPDEST PUSH0 PUSH0 REVERT JUMPDEST PUSH2 0x56 PUSH2 0xEC JUMP JUMPDEST PUSH1 0x40 MLOAD PUSH2 0x63 SWAP2 SWAP1 PUSH2 0x3D1 JUMP JUMPDEST PUSH1 0x40 MLOAD DUP1 SWAP2 SUB SWAP1 RETURN JUMPDEST PUSH2 0x86 PUSH1 0x4 DUP1 CALLDATASIZE SUB DUP2 ADD SWAP1 PUSH2 0x81 SWAP2 SWAP1 PUSH2 0x537 JUMP JUMPDEST PUSH2 0xF1 JUMP JUMPDEST PUSH1 0x40 MLOAD PUSH2 0x93 SWAP2 SWAP1 PUSH2 0x596 JUMP JUMPDEST PUSH1 0x40 MLOAD DUP1 SWAP2 SUB SWAP1 RETURN JUMPDEST PUSH2 0xB6 PUSH1 0x4 DUP1 CALLDATASIZE SUB DUP2 ADD SWAP1 PUSH2 0xB1 SWAP2 SWAP1 PUSH2 0x5D9 JUMP JUMPDEST PUSH2 0x1B7 JUMP JUMPDEST STOP JUMPDEST PUSH2 0xD2 PUSH1 0x4 DUP1 CALLDATASIZE SUB DUP2 ADD SWAP1 PUSH2 0xCD SWAP2 SWAP1 PUSH2 0x633 JUMP JUMPDEST PUSH2 0x2D6 JUMP JUMPDEST PUSH1 0x40 MLOAD PUSH2 0xE3 SWAP6 SWAP5 SWAP4 SWAP3 SWAP2 SWAP1 PUSH2 0x717 JUMP JUMPDEST PUSH1 0x40 MLOAD DUP1 SWAP2 SUB SWAP1 RETURN JUMPDEST PUSH0 SLOAD DUP2 JUMP JUMPDEST PUSH0 PUSH0 PUSH1 0x1 SWAP1 POP JUMPDEST PUSH1 0x1 PUSH0 SLOAD PUSH2 0x106 SWAP2 SWAP1 PUSH2 0x79C JUMP JUMPDEST DUP2 LT ISZERO PUSH2 0x18D JUMPI DUP3 PUSH1 0x40 MLOAD PUSH1 0x20 ADD PUSH2 0x11E SWAP2 SWAP1 PUSH2 0x809 JUMP JUMPDEST PUSH1 0x40 MLOAD PUSH1 0x20 DUP2 DUP4 SUB SUB DUP2 MSTORE SWAP1 PUSH1 0x40 MSTORE DUP1 MLOAD SWAP1 PUSH1 0x20 ADD KECCAK256 PUSH1 0x3 PUSH0 DUP4 DUP2 MSTORE PUSH1 0x20 ADD SWAP1 DUP2 MSTORE PUSH1 0x20 ADD PUSH0 KECCAK256 PUSH0 ADD PUSH1 0x40 MLOAD PUSH1 0x20 ADD PUSH2 0x157 SWAP2 SWAP1 PUSH2 0x90E JUMP JUMPDEST PUSH1 0x40 MLOAD PUSH1 0x20 DUP2 DUP4 SUB SUB DUP2 MSTORE SWAP1 PUSH1 0x40 MSTORE DUP1 MLOAD SWAP1 PUSH1 0x20 ADD KECCAK256 SUB PUSH2 0x180 JUMPI PUSH0 DUP2 SWAP1 POP DUP1 SWAP3 POP POP POP PUSH2 0x1B2 JUMP JUMPDEST DUP1 DUP1 PUSH1 0x1 ADD SWAP2 POP POP PUSH2 0xF8 JUMP JUMPDEST POP PUSH32 0xFFFFFFFFFFFFFFFFFFFFFFFFFFFFFFFFFFFFFFFFFFFFFFFFFFFFFFFFFFFFFFFF SWAP1 POP JUMPDEST SWAP2 SWAP1 POP JUMP JUMPDEST PUSH32 0x646F6E6F72000000000000000000000000000000000000000000000000000000 PUSH1 0x1 PUSH1 0x40 MLOAD PUSH1 0x20 ADD PUSH2 0x1EA SWAP2 SWAP1 PUSH2 0x90E JUMP JUMPDEST PUSH1 0x40 MLOAD PUSH1 0x20 DUP2 DUP4 SUB SUB DUP2 MSTORE SWAP1 PUSH1 0x40 MSTORE DUP1 MLOAD SWAP1 PUSH1 0x20 ADD KECCAK256 EQ PUSH2 0x240 JUMPI PUSH1 0x40 MLOAD PUSH32 0x8C379A000000000000000000000000000000000000000000000000000000000 DUP2 MSTORE PUSH1 0x4 ADD PUSH2 0x237 SWAP1 PUSH2 0x96E JUMP JUMPDEST PUSH1 0x40 MLOAD DUP1 SWAP2 SUB SWAP1 REVERT JUMPDEST PUSH0 PUSH2 0x24A DUP4 PUSH2 0xF1 JUMP JUMPDEST SWAP1 POP PUSH32 0xFFFFFFFFFFFFFFFFFFFFFFFFFFFFFFFFFFFFFFFFFFFFFFFFFFFFFFFFFFFFFFFF DUP2 SUB PUSH2 0x277 JUMPI PUSH0 PUSH0 REVERT JUMPDEST PUSH0 PUSH1 0x3 PUSH0 DUP4 DUP2 MSTORE PUSH1 0x20 ADD SWAP1 DUP2 MSTORE PUSH1 0x20 ADD PUSH0 KECCAK256 SWAP1 POP DUP3 DUP2 PUSH1 0x2 ADD PUSH0 DUP3 DUP3 SLOAD PUSH2 0x29E SWAP2 SWAP1 PUSH2 0x79C JUMP JUMPDEST SWAP3 POP POP DUP2 SWAP1 SSTORE POP DUP1 PUSH1 0x3 ADD SLOAD DUP2 PUSH1 0x2 ADD SLOAD LT PUSH2 0x2D0 JUMPI PUSH0 DUP2 PUSH1 0x4 ADD PUSH0 PUSH2 0x100 EXP DUP2 SLOAD DUP2 PUSH1 0xFF MUL NOT AND SWAP1 DUP4 ISZERO ISZERO MUL OR SWAP1 SSTORE POP JUMPDEST POP POP POP POP JUMP JUMPDEST PUSH1 0x3 PUSH1 0x20 MSTORE DUP1 PUSH0 MSTORE PUSH1 0x40 PUSH0 KECCAK256 PUSH0 SWAP2 POP SWAP1 POP DUP1 PUSH0 ADD DUP1 SLOAD PUSH2 0x2F5 SWAP1 PUSH2 0x84C JUMP JUMPDEST DUP1 PUSH1 0x1F ADD PUSH1 0x20 DUP1 SWAP2 DIV MUL PUSH1 0x20 ADD PUSH1 0x40 MLOAD SWAP1 DUP2 ADD PUSH1 0x40 MSTORE DUP1 SWAP3 SWAP2 SWAP1 DUP2 DUP2 MSTORE PUSH1 0x20 ADD DUP3 DUP1 SLOAD PUSH2 0x321 SWAP1 PUSH2 0x84C JUMP JUMPDEST DUP1 ISZERO PUSH2 0x36C JUMPI DUP1 PUSH1 0x1F LT PUSH2 0x343 JUMPI PUSH2 0x100 DUP1 DUP4 SLOAD DIV MUL DUP4 MSTORE SWAP2 PUSH1 0x20 ADD SWAP2 PUSH2 0x36C JUMP JUMPDEST DUP3 ADD SWAP2 SWAP1 PUSH0 MSTORE PUSH1 0x20 PUSH0 KECCAK256 SWAP1 JUMPDEST DUP2 SLOAD DUP2 MSTORE SWAP1 PUSH1 0x1 ADD SWAP1 PUSH1 0x20 ADD DUP1 DUP4 GT PUSH2 0x34F JUMPI DUP3 SWAP1 SUB PUSH1 0x1F AND DUP3 ADD SWAP2 JUMPDEST POP POP POP POP POP SWAP1 DUP1 PUSH1 0x1 ADD PUSH0 SWAP1 SLOAD SWAP1 PUSH2 0x100 EXP SWAP1 DIV PUSH20 0xFFFFFFFFFFFFFFFFFFFFFFFFFFFFFFFFFFFFFFFF AND SWAP1 DUP1 PUSH1 0x2 ADD SLOAD SWAP1 DUP1 PUSH1 0x3 ADD SLOAD SWAP1 DUP1 PUSH1 0x4 ADD PUSH0 SWAP1 SLOAD SWAP1 PUSH2 0x100 EXP SWAP1 DIV PUSH1 0xFF AND SWAP1 POP DUP6 JUMP JUMPDEST PUSH0 DUP2 SWAP1 POP SWAP2 SWAP1 POP JUMP JUMPDEST PUSH2 0x3CB DUP2 PUSH2 0x3B9 JUMP JUMPDEST DUP3 MSTORE POP POP JUMP JUMPDEST PUSH0 PUSH1 0x20 DUP3 ADD SWAP1 POP PUSH2 0x3E4 PUSH0 DUP4 ADD DUP5 PUSH2 0x3C2 JUMP JUMPDEST SWAP3 SWAP2 POP POP JUMP JUMPDEST PUSH0 PUSH1 0x40 MLOAD SWAP1 POP SWAP1 JUMP JUMPDEST PUSH0 PUSH0 REVERT JUMPDEST PUSH0 PUSH0 REVERT JUMPDEST PUSH0 PUSH0 REVERT JUMPDEST PUSH0 PUSH0 REVERT JUMPDEST PUSH0 PUSH1 0x1F NOT PUSH1 0x1F DUP4 ADD AND SWAP1 POP SWAP2 SWAP1 POP JUMP JUMPDEST PUSH32 0x4E487B7100000000000000000000000000000000000000000000000000000000 PUSH0 MSTORE PUSH1 0x41 PUSH1 0x4 MSTORE PUSH1 0x24 PUSH0 REVERT JUMPDEST PUSH2 0x449 DUP3 PUSH2 0x403 JUMP JUMPDEST DUP2 ADD DUP2 DUP2 LT PUSH8 0xFFFFFFFFFFFFFFFF DUP3 GT OR ISZERO PUSH2 0x468 JUMPI PUSH2 0x467 PUSH2 0x413 JUMP JUMPDEST JUMPDEST DUP1 PUSH1 0x40 MSTORE POP POP POP JUMP JUMPDEST PUSH0 PUSH2 0x47A PUSH2 0x3EA JUMP JUMPDEST SWAP1 POP PUSH2 0x486 DUP3 DUP3 PUSH2 0x440 JUMP JUMPDEST SWAP2 SWAP1 POP JUMP JUMPDEST PUSH0 PUSH8 0xFFFFFFFFFFFFFFFF DUP3 GT ISZERO PUSH2 0x4A5 JUMPI PUSH2 0x4A4 PUSH2 0x413 JUMP JUMPDEST JUMPDEST PUSH2 0x4AE DUP3 PUSH2 0x403 JUMP JUMPDEST SWAP1 POP PUSH1 0x20 DUP2 ADD SWAP1 POP SWAP2 SWAP1 POP JUMP JUMPDEST DUP3 DUP2 DUP4 CALLDATACOPY PUSH0 DUP4 DUP4 ADD MSTORE POP POP POP JUMP JUMPDEST PUSH0 PUSH2 0x4DB PUSH2 0x4D6 DUP5 PUSH2 0x48B JUMP JUMPDEST PUSH2 0x471 JUMP JUMPDEST SWAP1 POP DUP3 DUP2 MSTORE PUSH1 0x20 DUP2 ADD DUP5 DUP5 DUP5 ADD GT ISZERO PUSH2 0x4F7 JUMPI PUSH2 0x4F6 PUSH2 0x3FF JUMP JUMPDEST JUMPDEST PUSH2 0x502 DUP5 DUP3 DUP6 PUSH2 0x4BB JUMP JUMPDEST POP SWAP4 SWAP3 POP POP POP JUMP JUMPDEST PUSH0 DUP3 PUSH1 0x1F DUP4 ADD SLT PUSH2 0x51E JUMPI PUSH2 0x51D PUSH2 0x3FB JUMP JUMPDEST JUMPDEST DUP2 CALLDATALOAD PUSH2 0x52E DUP5 DUP3 PUSH1 0x20 DUP7 ADD PUSH2 0x4C9 JUMP JUMPDEST SWAP2 POP POP SWAP3 SWAP2 POP POP JUMP JUMPDEST PUSH0 PUSH1 0x20 DUP3 DUP5 SUB SLT ISZERO PUSH2 0x54C JUMPI PUSH2 0x54B PUSH2 0x3F3 JUMP JUMPDEST JUMPDEST PUSH0 DUP3 ADD CALLDATALOAD PUSH8 0xFFFFFFFFFFFFFFFF DUP2 GT ISZERO PUSH2 0x569 JUMPI PUSH2 0x568 PUSH2 0x3F7 JUMP JUMPDEST JUMPDEST PUSH2 0x575 DUP5 DUP3 DUP6 ADD PUSH2 0x50A JUMP JUMPDEST SWAP2 POP POP SWAP3 SWAP2 POP POP JUMP JUMPDEST PUSH0 DUP2 SWAP1 POP SWAP2 SWAP1 POP JUMP JUMPDEST PUSH2 0x590 DUP2 PUSH2 0x57E JUMP JUMPDEST DUP3 MSTORE POP POP JUMP JUMPDEST PUSH0 PUSH1 0x20 DUP3 ADD SWAP1 POP PUSH2 0x5A9 PUSH0 DUP4 ADD DUP5 PUSH2 0x587 JUMP JUMPDEST SWAP3 SWAP2 POP POP JUMP JUMPDEST PUSH2 0x5B8 DUP2 PUSH2 0x3B9 JUMP JUMPDEST DUP2 EQ PUSH2 0x5C2 JUMPI PUSH0 PUSH0 REVERT JUMPDEST POP JUMP JUMPDEST PUSH0 DUP2 CALLDATALOAD SWAP1 POP PUSH2 0x5D3 DUP2 PUSH2 0x5AF JUMP JUMPDEST SWAP3 SWAP2 POP POP JUMP JUMPDEST PUSH0 PUSH0 PUSH1 0x40 DUP4 DUP6 SUB SLT ISZERO PUSH2 0x5EF JUMPI PUSH2 0x5EE PUSH2 0x3F3 JUMP JUMPDEST JUMPDEST PUSH0 DUP4 ADD CALLDATALOAD PUSH8 0xFFFFFFFFFFFFFFFF DUP2 GT ISZERO PUSH2 0x60C JUMPI PUSH2 0x60B PUSH2 0x3F7 JUMP JUMPDEST JUMPDEST PUSH2 0x618 DUP6 DUP3 DUP7 ADD PUSH2 0x50A JUMP JUMPDEST SWAP3 POP POP PUSH1 0x20 PUSH2 0x629 DUP6 DUP3 DUP7 ADD PUSH2 0x5C5 JUMP JUMPDEST SWAP2 POP POP SWAP3 POP SWAP3 SWAP1 POP JUMP JUMPDEST PUSH0 PUSH1 0x20 DUP3 DUP5 SUB SLT ISZERO PUSH2 0x648 JUMPI PUSH2 0x647 PUSH2 0x3F3 JUMP JUMPDEST JUMPDEST PUSH0 PUSH2 0x655 DUP5 DUP3 DUP6 ADD PUSH2 0x5C5 JUMP JUMPDEST SWAP2 POP POP SWAP3 SWAP2 POP POP JUMP JUMPDEST PUSH0 DUP2 MLOAD SWAP1 POP SWAP2 SWAP1 POP JUMP JUMPDEST PUSH0 DUP3 DUP3 MSTORE PUSH1 0x20 DUP3 ADD SWAP1 POP SWAP3 SWAP2 POP POP JUMP JUMPDEST DUP3 DUP2 DUP4 MCOPY PUSH0 DUP4 DUP4 ADD MSTORE POP POP POP JUMP JUMPDEST PUSH0 PUSH2 0x690 DUP3 PUSH2 0x65E JUMP JUMPDEST PUSH2 0x69A DUP2 DUP6 PUSH2 0x668 JUMP JUMPDEST SWAP4 POP PUSH2 0x6AA DUP2 DUP6 PUSH1 0x20 DUP7 ADD PUSH2 0x678 JUMP JUMPDEST PUSH2 0x6B3 DUP2 PUSH2 0x403 JUMP JUMPDEST DUP5 ADD SWAP2 POP POP SWAP3 SWAP2 POP POP JUMP JUMPDEST PUSH0 PUSH20 0xFFFFFFFFFFFFFFFFFFFFFFFFFFFFFFFFFFFFFFFF DUP3 AND SWAP1 POP SWAP2 SWAP1 POP JUMP JUMPDEST PUSH0 PUSH2 0x6E7 DUP3 PUSH2 0x6BE JUMP JUMPDEST SWAP1 POP SWAP2 SWAP1 POP JUMP JUMPDEST PUSH2 0x6F7 DUP2 PUSH2 0x6DD JUMP JUMPDEST DUP3 MSTORE POP POP JUMP JUMPDEST PUSH0 DUP2 ISZERO ISZERO SWAP1 POP SWAP2 SWAP1 POP JUMP JUMPDEST PUSH2 0x711 DUP2 PUSH2 0x6FD JUMP JUMPDEST DUP3 MSTORE POP POP JUMP JUMPDEST PUSH0 PUSH1 0xA0 DUP3 ADD SWAP1 POP DUP2 DUP2 SUB PUSH0 DUP4 ADD MSTORE PUSH2 0x72F DUP2 DUP9 PUSH2 0x686 JUMP JUMPDEST SWAP1 POP PUSH2 0x73E PUSH1 0x20 DUP4 ADD DUP8 PUSH2 0x6EE JUMP JUMPDEST PUSH2 0x74B PUSH1 0x40 DUP4 ADD DUP7 PUSH2 0x3C2 JUMP JUMPDEST PUSH2 0x758 PUSH1 0x60 DUP4 ADD DUP6 PUSH2 0x3C2 JUMP JUMPDEST PUSH2 0x765 PUSH1 0x80 DUP4 ADD DUP5 PUSH2 0x708 JUMP JUMPDEST SWAP7 SWAP6 POP POP POP POP POP POP JUMP JUMPDEST PUSH32 0x4E487B7100000000000000000000000000000000000000000000000000000000 PUSH0 MSTORE PUSH1 0x11 PUSH1 0x4 MSTORE PUSH1 0x24 PUSH0 REVERT JUMPDEST PUSH0 PUSH2 0x7A6 DUP3 PUSH2 0x3B9 JUMP JUMPDEST SWAP2 POP PUSH2 0x7B1 DUP4 PUSH2 0x3B9 JUMP JUMPDEST SWAP3 POP DUP3 DUP3 ADD SWAP1 POP DUP1 DUP3 GT ISZERO PUSH2 0x7C9 JUMPI PUSH2 0x7C8 PUSH2 0x76F JUMP JUMPDEST JUMPDEST SWAP3 SWAP2 POP POP JUMP JUMPDEST PUSH0 DUP2 SWAP1 POP SWAP3 SWAP2 POP POP JUMP JUMPDEST PUSH0 PUSH2 0x7E3 DUP3 PUSH2 0x65E JUMP JUMPDEST PUSH2 0x7ED DUP2 DUP6 PUSH2 0x7CF JUMP JUMPDEST SWAP4 POP PUSH2 0x7FD DUP2 DUP6 PUSH1 0x20 DUP7 ADD PUSH2 0x678 JUMP JUMPDEST DUP1 DUP5 ADD SWAP2 POP POP SWAP3 SWAP2 POP POP JUMP JUMPDEST PUSH0 PUSH2 0x814 DUP3 DUP5 PUSH2 0x7D9 JUMP JUMPDEST SWAP2 POP DUP2 SWAP1 POP SWAP3 SWAP2 POP POP JUMP JUMPDEST PUSH32 0x4E487B7100000000000000000000000000000000000000000000000000000000 PUSH0 MSTORE PUSH1 0x22 PUSH1 0x4 MSTORE PUSH1 0x24 PUSH0 REVERT JUMPDEST PUSH0 PUSH1 0x2 DUP3 DIV SWAP1 POP PUSH1 0x1 DUP3 AND DUP1 PUSH2 0x863 JUMPI PUSH1 0x7F DUP3 AND SWAP2 POP JUMPDEST PUSH1 0x20 DUP3 LT DUP2 SUB PUSH2 0x876 JUMPI PUSH2 0x875 PUSH2 0x81F JUMP JUMPDEST JUMPDEST POP SWAP2 SWAP1 POP JUMP JUMPDEST PUSH0 DUP2 SWAP1 POP DUP2 PUSH0 MSTORE PUSH1 0x20 PUSH0 KECCAK256 SWAP1 POP SWAP2 SWAP1 POP JUMP JUMPDEST PUSH0 DUP2 SLOAD PUSH2 0x89A DUP2 PUSH2 0x84C JUMP JUMPDEST PUSH2 0x8A4 DUP2 DUP7 PUSH2 0x7CF JUMP JUMPDEST SWAP5 POP PUSH1 0x1 DUP3 AND PUSH0 DUP2 EQ PUSH2 0x8BE JUMPI PUSH1 0x1 DUP2 EQ PUSH2 0x8D3 JUMPI PUSH2 0x905 JUMP JUMPDEST PUSH1 0xFF NOT DUP4 AND DUP7 MSTORE DUP2 ISZERO ISZERO DUP3 MUL DUP7 ADD SWAP4 POP PUSH2 0x905 JUMP JUMPDEST PUSH2 0x8DC DUP6 PUSH2 0x87C JUMP JUMPDEST PUSH0 JUMPDEST DUP4 DUP2 LT ISZERO PUSH2 0x8FD JUMPI DUP2 SLOAD DUP2 DUP10 ADD MSTORE PUSH1 0x1 DUP3 ADD SWAP2 POP PUSH1 0x20 DUP2 ADD SWAP1 POP PUSH2 0x8DE JUMP JUMPDEST DUP4 DUP9 ADD SWAP6 POP POP POP JUMPDEST POP POP POP SWAP3 SWAP2 POP POP JUMP JUMPDEST PUSH0 PUSH2 0x919 DUP3 DUP5 PUSH2 0x88E JUMP JUMPDEST SWAP2 POP DUP2 SWAP1 POP SWAP3 SWAP2 POP POP JUMP JUMPDEST PUSH32 0x4E6F7420612076616C696420646F6E6F72000000000000000000000000000000 PUSH0 DUP3 ADD MSTORE POP JUMP JUMPDEST PUSH0 PUSH2 0x958 PUSH1 0x11 DUP4 PUSH2 0x668 JUMP JUMPDEST SWAP2 POP PUSH2 0x963 DUP3 PUSH2 0x924 JUMP JUMPDEST PUSH1 0x20 DUP3 ADD SWAP1 POP SWAP2 SWAP1 POP JUMP JUMPDEST PUSH0 PUSH1 0x20 DUP3 ADD SWAP1 POP DUP2 DUP2 SUB PUSH0 DUP4 ADD MSTORE PUSH2 0x985 DUP2 PUSH2 0x94C JUMP JUMPDEST SWAP1 POP SWAP2 SWAP1 POP JUMP INVALID LOG2 PUSH5 0x6970667358 0x22 SLT KECCAK256 CALL 0xD0 0x22 RJUMP 0xFB96 SLT PUSH13 0x600F8A08ED80A07F2E617EFBB7 DUP13 MSTORE 0xB7 SSTORE DELEGATECALL LOG2 0x23 0xB1 PUSH3 0x4E5164 PUSH20 0x6F6C634300081E00330000000000000000000000 "
		},
		"gasEstimates": {
			"creation": {
				"codeDepositCost": "499600",
				"executionCost": "infinite",
				"totalCost": "infinite"
			},
			"external": {
				"charities(uint256)": "infinite",
				"charityCount()": "2402",
				"charityExists(string)": "infinite",
				"contributeFunds(string,uint256)": "infinite"
			},
			"internal": {
				"addCharity(string memory,address)": "infinite"
			}
		},
		"methodIdentifiers": {
			"charities(uint256)": "fb709d2e",
			"charityCount()": "91329493",
			"charityExists(string)": "9d32c186",
			"contributeFunds(string,uint256)": "f25d75e7"
		}
	},
	"abi": [
		{
			"inputs": [
				{
					"internalType": "address",
					"name": "_roleContract",
					"type": "address"
				}
			],
			"stateMutability": "nonpayable",
			"type": "constructor"
		},
		{
			"anonymous": false,
			"inputs": [
				{
					"indexed": false,
					"internalType": "uint256",
					"name": "charityID",
					"type": "uint256"
				},
				{
					"indexed": false,
					"internalType": "string",
					"name": "name",
					"type": "string"
				},
				{
					"indexed": false,
					"internalType": "address",
					"name": "charityAddress",
					"type": "address"
				},
				{
					"indexed": false,
					"internalType": "uint256",
					"name": "totalRaised",
					"type": "uint256"
				},
				{
					"indexed": false,
					"internalType": "uint256",
					"name": "targetDonation",
					"type": "uint256"
				},
				{
					"indexed": false,
					"internalType": "bool",
					"name": "fundsLocked",
					"type": "bool"
				}
			],
			"name": "CharityCreated",
			"type": "event"
		},
		{
			"inputs": [
				{
					"internalType": "uint256",
					"name": "",
					"type": "uint256"
				}
			],
			"name": "charities",
			"outputs": [
				{
					"internalType": "string",
					"name": "name",
					"type": "string"
				},
				{
					"internalType": "address",
					"name": "charityAddress",
					"type": "address"
				},
				{
					"internalType": "uint256",
					"name": "totalRaised",
					"type": "uint256"
				},
				{
					"internalType": "uint256",
					"name": "targetDonation",
					"type": "uint256"
				},
				{
					"internalType": "bool",
					"name": "fundsLocked",
					"type": "bool"
				}
			],
			"stateMutability": "view",
			"type": "function"
		},
		{
			"inputs": [],
			"name": "charityCount",
			"outputs": [
				{
					"internalType": "uint256",
					"name": "",
					"type": "uint256"
				}
			],
			"stateMutability": "view",
			"type": "function"
		},
		{
			"inputs": [
				{
					"internalType": "string",
					"name": "_charity",
					"type": "string"
				}
			],
			"name": "charityExists",
			"outputs": [
				{
					"internalType": "int256",
					"name": "",
					"type": "int256"
				}
			],
			"stateMutability": "view",
			"type": "function"
		},
		{
			"inputs": [
				{
					"internalType": "string",
					"name": "_charity",
					"type": "string"
				},
				{
					"internalType": "uint256",
					"name": "_amount",
					"type": "uint256"
				}
			],
			"name": "contributeFunds",
			"outputs": [],
			"stateMutability": "nonpayable",
			"type": "function"
		}
	]
}