{
	"data": {
		"bytecode": {
			"linkReferences": {},
			"object": "6080604052348015600e575f80fd5b506110298061001c5f395ff3fe608060405234801561000f575f80fd5b506004361061004a575f3560e01c80633ffbd47f1461004e5780636e3b47fc1461006a578063a87430ba14610088578063b34e97e8146100ba575b5f80fd5b61006860048036038101906100639190610891565b6100d9565b005b6100726102ff565b60405161007f9190610967565b60405180910390f35b6100a2600480360381019061009d91906109e1565b6103e6565b6040516100b193929190610a99565b60405180910390f35b6100c26104aa565b6040516100d0929190610ad5565b60405180910390f35b5f803373ffffffffffffffffffffffffffffffffffffffff1673ffffffffffffffffffffffffffffffffffffffff1681526020019081526020015f2060010160019054906101000a900460ff1615610166576040517f08c379a000000000000000000000000000000000000000000000000000000000815260040161015d90610b4d565b60405180910390fd5b5f6101708261059c565b90505f600281111561018557610184610a0c565b5b81600281111561019857610197610a0c565b5b036101d8576040517f08c379a00000000000000000000000000000000000000000000000000000000081526004016101cf90610bb5565b60405180910390fd5b60405180606001604052808481526020018260028111156101fc576101fb610a0c565b5b8152602001600115158152505f803373ffffffffffffffffffffffffffffffffffffffff1673ffffffffffffffffffffffffffffffffffffffff1681526020019081526020015f205f820151815f0190816102579190610dd6565b506020820151816001015f6101000a81548160ff0219169083600281111561028257610281610a0c565b5b021790555060408201518160010160016101000a81548160ff0219169083151502179055509050503373ffffffffffffffffffffffffffffffffffffffff167fc2e5d5da58bd71d1a2d14cdef02a4256d971b728088f8190d067ccfbae3bd73e84836040516102f2929190610ea5565b60405180910390a2505050565b60605f803373ffffffffffffffffffffffffffffffffffffffff1673ffffffffffffffffffffffffffffffffffffffff1681526020019081526020015f2060010160019054906101000a900460ff1661038d576040517f08c379a000000000000000000000000000000000000000000000000000000000815260040161038490610f1d565b60405180910390fd5b6103e15f803373ffffffffffffffffffffffffffffffffffffffff1673ffffffffffffffffffffffffffffffffffffffff1681526020019081526020015f206001015f9054906101000a900460ff16610633565b905090565b5f602052805f5260405f205f91509050805f01805461040490610c00565b80601f016020809104026020016040519081016040528092919081815260200182805461043090610c00565b801561047b5780601f106104525761010080835404028352916020019161047b565b820191905f5260205f20905b81548152906001019060200180831161045e57829003601f168201915b505050505090806001015f9054906101000a900460ff16908060010160019054906101000a900460ff16905083565b5f60605f803373ffffffffffffffffffffffffffffffffffffffff1673ffffffffffffffffffffffffffffffffffffffff1681526020019081526020015f2060010160019054906101000a900460ff16610539576040517f08c379a000000000000000000000000000000000000000000000000000000000815260040161053090610f85565b60405180910390fd5b5f61058e5f803373ffffffffffffffffffffffffffffffffffffffff1673ffffffffffffffffffffffffffffffffffffffff1681526020019081526020015f206001015f9054906101000a900460ff16610633565b905060018192509250509091565b5f80826040516020016105af9190610fdd565b6040516020818303038152906040528051906020012090507fe96c7ffef33869246069ebcb32bc72a59fb488c4893c9eb9b3306de7ba74f6d881036105f857600191505061062e565b7f57cfa32382416828aee86644cafefdbb1cde02d7764467b9d6062b5a1fd2b5a4810361062957600291505061062e565b5f9150505b919050565b60606001600281111561064957610648610a0c565b5b82600281111561065c5761065b610a0c565b5b0361069e576040518060400160405280600581526020017f646f6e6f72000000000000000000000000000000000000000000000000000000815250905061073f565b6002808111156106b1576106b0610a0c565b5b8260028111156106c4576106c3610a0c565b5b03610706576040518060400160405280600981526020017f636f6c6c6563746f720000000000000000000000000000000000000000000000815250905061073f565b6040518060400160405280600481526020017f6e6f6e650000000000000000000000000000000000000000000000000000000081525090505b919050565b5f604051905090565b5f80fd5b5f80fd5b5f80fd5b5f80fd5b5f601f19601f8301169050919050565b7f4e487b71000000000000000000000000000000000000000000000000000000005f52604160045260245ffd5b6107a38261075d565b810181811067ffffffffffffffff821117156107c2576107c161076d565b5b80604052505050565b5f6107d4610744565b90506107e0828261079a565b919050565b5f67ffffffffffffffff8211156107ff576107fe61076d565b5b6108088261075d565b9050602081019050919050565b828183375f83830152505050565b5f610835610830846107e5565b6107cb565b90508281526020810184848401111561085157610850610759565b5b61085c848285610815565b509392505050565b5f82601f83011261087857610877610755565b5b8135610888848260208601610823565b91505092915050565b5f80604083850312156108a7576108a661074d565b5b5f83013567ffffffffffffffff8111156108c4576108c3610751565b5b6108d085828601610864565b925050602083013567ffffffffffffffff8111156108f1576108f0610751565b5b6108fd85828601610864565b9150509250929050565b5f81519050919050565b5f82825260208201905092915050565b8281835e5f83830152505050565b5f61093982610907565b6109438185610911565b9350610953818560208601610921565b61095c8161075d565b840191505092915050565b5f6020820190508181035f83015261097f818461092f565b905092915050565b5f73ffffffffffffffffffffffffffffffffffffffff82169050919050565b5f6109b082610987565b9050919050565b6109c0816109a6565b81146109ca575f80fd5b50565b5f813590506109db816109b7565b92915050565b5f602082840312156109f6576109f561074d565b5b5f610a03848285016109cd565b91505092915050565b7f4e487b71000000000000000000000000000000000000000000000000000000005f52602160045260245ffd5b60038110610a4a57610a49610a0c565b5b50565b5f819050610a5a82610a39565b919050565b5f610a6982610a4d565b9050919050565b610a7981610a5f565b82525050565b5f8115159050919050565b610a9381610a7f565b82525050565b5f6060820190508181035f830152610ab1818661092f565b9050610ac06020830185610a70565b610acd6040830184610a8a565b949350505050565b5f604082019050610ae85f830185610a8a565b8181036020830152610afa818461092f565b90509392505050565b7f416c7265616479207265676973746572656400000000000000000000000000005f82015250565b5f610b37601283610911565b9150610b4282610b03565b602082019050919050565b5f6020820190508181035f830152610b6481610b2b565b9050919050565b7f496e76616c696420726f6c6500000000000000000000000000000000000000005f82015250565b5f610b9f600c83610911565b9150610baa82610b6b565b602082019050919050565b5f6020820190508181035f830152610bcc81610b93565b9050919050565b7f4e487b71000000000000000000000000000000000000000000000000000000005f52602260045260245ffd5b5f6002820490506001821680610c1757607f821691505b602082108103610c2a57610c29610bd3565b5b50919050565b5f819050815f5260205f209050919050565b5f6020601f8301049050919050565b5f82821b905092915050565b5f60088302610c8c7fffffffffffffffffffffffffffffffffffffffffffffffffffffffffffffffff82610c51565b610c968683610c51565b95508019841693508086168417925050509392505050565b5f819050919050565b5f819050919050565b5f610cda610cd5610cd084610cae565b610cb7565b610cae565b9050919050565b5f819050919050565b610cf383610cc0565b610d07610cff82610ce1565b848454610c5d565b825550505050565b5f90565b610d1b610d0f565b610d26818484610cea565b505050565b5b81811015610d4957610d3e5f82610d13565b600181019050610d2c565b5050565b601f821115610d8e57610d5f81610c30565b610d6884610c42565b81016020851015610d77578190505b610d8b610d8385610c42565b830182610d2b565b50505b505050565b5f82821c905092915050565b5f610dae5f1984600802610d93565b1980831691505092915050565b5f610dc68383610d9f565b9150826002028217905092915050565b610ddf82610907565b67ffffffffffffffff811115610df857610df761076d565b5b610e028254610c00565b610e0d828285610d4d565b5f60209050601f831160018114610e3e575f8415610e2c578287015190505b610e368582610dbb565b865550610e9d565b601f198416610e4c86610c30565b5f5b82811015610e7357848901518255600182019150602085019450602081019050610e4e565b86831015610e905784890151610e8c601f891682610d9f565b8355505b6001600288020188555050505b505050505050565b5f6040820190508181035f830152610ebd818561092f565b9050610ecc6020830184610a70565b9392505050565b7f4e6f7420726567697374657265640000000000000000000000000000000000005f82015250565b5f610f07600e83610911565b9150610f1282610ed3565b602082019050919050565b5f6020820190508181035f830152610f3481610efb565b9050919050565b7f55736572206e6f742072656769737465726564000000000000000000000000005f82015250565b5f610f6f601383610911565b9150610f7a82610f3b565b602082019050919050565b5f6020820190508181035f830152610f9c81610f63565b9050919050565b5f81905092915050565b5f610fb782610907565b610fc18185610fa3565b9350610fd1818560208601610921565b80840191505092915050565b5f610fe88284610fad565b91508190509291505056fea264697066735822122075c4f96946f646d35df593da4d9ea0b6b8fa8e1b0e21f859f3b4a866756adcad64736f6c634300081a0033",
			"opcodes": "PUSH1 0x80 PUSH1 0x40 MSTORE CALLVALUE DUP1 ISZERO PUSH1 0xE JUMPI PUSH0 DUP1 REVERT JUMPDEST POP PUSH2 0x1029 DUP1 PUSH2 0x1C PUSH0 CODECOPY PUSH0 RETURN INVALID PUSH1 0x80 PUSH1 0x40 MSTORE CALLVALUE DUP1 ISZERO PUSH2 0xF JUMPI PUSH0 DUP1 REVERT JUMPDEST POP PUSH1 0x4 CALLDATASIZE LT PUSH2 0x4A JUMPI PUSH0 CALLDATALOAD PUSH1 0xE0 SHR DUP1 PUSH4 0x3FFBD47F EQ PUSH2 0x4E JUMPI DUP1 PUSH4 0x6E3B47FC EQ PUSH2 0x6A JUMPI DUP1 PUSH4 0xA87430BA EQ PUSH2 0x88 JUMPI DUP1 PUSH4 0xB34E97E8 EQ PUSH2 0xBA JUMPI JUMPDEST PUSH0 DUP1 REVERT JUMPDEST PUSH2 0x68 PUSH1 0x4 DUP1 CALLDATASIZE SUB DUP2 ADD SWAP1 PUSH2 0x63 SWAP2 SWAP1 PUSH2 0x891 JUMP JUMPDEST PUSH2 0xD9 JUMP JUMPDEST STOP JUMPDEST PUSH2 0x72 PUSH2 0x2FF JUMP JUMPDEST PUSH1 0x40 MLOAD PUSH2 0x7F SWAP2 SWAP1 PUSH2 0x967 JUMP JUMPDEST PUSH1 0x40 MLOAD DUP1 SWAP2 SUB SWAP1 RETURN JUMPDEST PUSH2 0xA2 PUSH1 0x4 DUP1 CALLDATASIZE SUB DUP2 ADD SWAP1 PUSH2 0x9D SWAP2 SWAP1 PUSH2 0x9E1 JUMP JUMPDEST PUSH2 0x3E6 JUMP JUMPDEST PUSH1 0x40 MLOAD PUSH2 0xB1 SWAP4 SWAP3 SWAP2 SWAP1 PUSH2 0xA99 JUMP JUMPDEST PUSH1 0x40 MLOAD DUP1 SWAP2 SUB SWAP1 RETURN JUMPDEST PUSH2 0xC2 PUSH2 0x4AA JUMP JUMPDEST PUSH1 0x40 MLOAD PUSH2 0xD0 SWAP3 SWAP2 SWAP1 PUSH2 0xAD5 JUMP JUMPDEST PUSH1 0x40 MLOAD DUP1 SWAP2 SUB SWAP1 RETURN JUMPDEST PUSH0 DUP1 CALLER PUSH20 0xFFFFFFFFFFFFFFFFFFFFFFFFFFFFFFFFFFFFFFFF AND PUSH20 0xFFFFFFFFFFFFFFFFFFFFFFFFFFFFFFFFFFFFFFFF AND DUP2 MSTORE PUSH1 0x20 ADD SWAP1 DUP2 MSTORE PUSH1 0x20 ADD PUSH0 KECCAK256 PUSH1 0x1 ADD PUSH1 0x1 SWAP1 SLOAD SWAP1 PUSH2 0x100 EXP SWAP1 DIV PUSH1 0xFF AND ISZERO PUSH2 0x166 JUMPI PUSH1 0x40 MLOAD PUSH32 0x8C379A000000000000000000000000000000000000000000000000000000000 DUP2 MSTORE PUSH1 0x4 ADD PUSH2 0x15D SWAP1 PUSH2 0xB4D JUMP JUMPDEST PUSH1 0x40 MLOAD DUP1 SWAP2 SUB SWAP1 REVERT JUMPDEST PUSH0 PUSH2 0x170 DUP3 PUSH2 0x59C JUMP JUMPDEST SWAP1 POP PUSH0 PUSH1 0x2 DUP2 GT ISZERO PUSH2 0x185 JUMPI PUSH2 0x184 PUSH2 0xA0C JUMP JUMPDEST JUMPDEST DUP2 PUSH1 0x2 DUP2 GT ISZERO PUSH2 0x198 JUMPI PUSH2 0x197 PUSH2 0xA0C JUMP JUMPDEST JUMPDEST SUB PUSH2 0x1D8 JUMPI PUSH1 0x40 MLOAD PUSH32 0x8C379A000000000000000000000000000000000000000000000000000000000 DUP2 MSTORE PUSH1 0x4 ADD PUSH2 0x1CF SWAP1 PUSH2 0xBB5 JUMP JUMPDEST PUSH1 0x40 MLOAD DUP1 SWAP2 SUB SWAP1 REVERT JUMPDEST PUSH1 0x40 MLOAD DUP1 PUSH1 0x60 ADD PUSH1 0x40 MSTORE DUP1 DUP5 DUP2 MSTORE PUSH1 0x20 ADD DUP3 PUSH1 0x2 DUP2 GT ISZERO PUSH2 0x1FC JUMPI PUSH2 0x1FB PUSH2 0xA0C JUMP JUMPDEST JUMPDEST DUP2 MSTORE PUSH1 0x20 ADD PUSH1 0x1 ISZERO ISZERO DUP2 MSTORE POP PUSH0 DUP1 CALLER PUSH20 0xFFFFFFFFFFFFFFFFFFFFFFFFFFFFFFFFFFFFFFFF AND PUSH20 0xFFFFFFFFFFFFFFFFFFFFFFFFFFFFFFFFFFFFFFFF AND DUP2 MSTORE PUSH1 0x20 ADD SWAP1 DUP2 MSTORE PUSH1 0x20 ADD PUSH0 KECCAK256 PUSH0 DUP3 ADD MLOAD DUP2 PUSH0 ADD SWAP1 DUP2 PUSH2 0x257 SWAP2 SWAP1 PUSH2 0xDD6 JUMP JUMPDEST POP PUSH1 0x20 DUP3 ADD MLOAD DUP2 PUSH1 0x1 ADD PUSH0 PUSH2 0x100 EXP DUP2 SLOAD DUP2 PUSH1 0xFF MUL NOT AND SWAP1 DUP4 PUSH1 0x2 DUP2 GT ISZERO PUSH2 0x282 JUMPI PUSH2 0x281 PUSH2 0xA0C JUMP JUMPDEST JUMPDEST MUL OR SWAP1 SSTORE POP PUSH1 0x40 DUP3 ADD MLOAD DUP2 PUSH1 0x1 ADD PUSH1 0x1 PUSH2 0x100 EXP DUP2 SLOAD DUP2 PUSH1 0xFF MUL NOT AND SWAP1 DUP4 ISZERO ISZERO MUL OR SWAP1 SSTORE POP SWAP1 POP POP CALLER PUSH20 0xFFFFFFFFFFFFFFFFFFFFFFFFFFFFFFFFFFFFFFFF AND PUSH32 0xC2E5D5DA58BD71D1A2D14CDEF02A4256D971B728088F8190D067CCFBAE3BD73E DUP5 DUP4 PUSH1 0x40 MLOAD PUSH2 0x2F2 SWAP3 SWAP2 SWAP1 PUSH2 0xEA5 JUMP JUMPDEST PUSH1 0x40 MLOAD DUP1 SWAP2 SUB SWAP1 LOG2 POP POP POP JUMP JUMPDEST PUSH1 0x60 PUSH0 DUP1 CALLER PUSH20 0xFFFFFFFFFFFFFFFFFFFFFFFFFFFFFFFFFFFFFFFF AND PUSH20 0xFFFFFFFFFFFFFFFFFFFFFFFFFFFFFFFFFFFFFFFF AND DUP2 MSTORE PUSH1 0x20 ADD SWAP1 DUP2 MSTORE PUSH1 0x20 ADD PUSH0 KECCAK256 PUSH1 0x1 ADD PUSH1 0x1 SWAP1 SLOAD SWAP1 PUSH2 0x100 EXP SWAP1 DIV PUSH1 0xFF AND PUSH2 0x38D JUMPI PUSH1 0x40 MLOAD PUSH32 0x8C379A000000000000000000000000000000000000000000000000000000000 DUP2 MSTORE PUSH1 0x4 ADD PUSH2 0x384 SWAP1 PUSH2 0xF1D JUMP JUMPDEST PUSH1 0x40 MLOAD DUP1 SWAP2 SUB SWAP1 REVERT JUMPDEST PUSH2 0x3E1 PUSH0 DUP1 CALLER PUSH20 0xFFFFFFFFFFFFFFFFFFFFFFFFFFFFFFFFFFFFFFFF AND PUSH20 0xFFFFFFFFFFFFFFFFFFFFFFFFFFFFFFFFFFFFFFFF AND DUP2 MSTORE PUSH1 0x20 ADD SWAP1 DUP2 MSTORE PUSH1 0x20 ADD PUSH0 KECCAK256 PUSH1 0x1 ADD PUSH0 SWAP1 SLOAD SWAP1 PUSH2 0x100 EXP SWAP1 DIV PUSH1 0xFF AND PUSH2 0x633 JUMP JUMPDEST SWAP1 POP SWAP1 JUMP JUMPDEST PUSH0 PUSH1 0x20 MSTORE DUP1 PUSH0 MSTORE PUSH1 0x40 PUSH0 KECCAK256 PUSH0 SWAP2 POP SWAP1 POP DUP1 PUSH0 ADD DUP1 SLOAD PUSH2 0x404 SWAP1 PUSH2 0xC00 JUMP JUMPDEST DUP1 PUSH1 0x1F ADD PUSH1 0x20 DUP1 SWAP2 DIV MUL PUSH1 0x20 ADD PUSH1 0x40 MLOAD SWAP1 DUP2 ADD PUSH1 0x40 MSTORE DUP1 SWAP3 SWAP2 SWAP1 DUP2 DUP2 MSTORE PUSH1 0x20 ADD DUP3 DUP1 SLOAD PUSH2 0x430 SWAP1 PUSH2 0xC00 JUMP JUMPDEST DUP1 ISZERO PUSH2 0x47B JUMPI DUP1 PUSH1 0x1F LT PUSH2 0x452 JUMPI PUSH2 0x100 DUP1 DUP4 SLOAD DIV MUL DUP4 MSTORE SWAP2 PUSH1 0x20 ADD SWAP2 PUSH2 0x47B JUMP JUMPDEST DUP3 ADD SWAP2 SWAP1 PUSH0 MSTORE PUSH1 0x20 PUSH0 KECCAK256 SWAP1 JUMPDEST DUP2 SLOAD DUP2 MSTORE SWAP1 PUSH1 0x1 ADD SWAP1 PUSH1 0x20 ADD DUP1 DUP4 GT PUSH2 0x45E JUMPI DUP3 SWAP1 SUB PUSH1 0x1F AND DUP3 ADD SWAP2 JUMPDEST POP POP POP POP POP SWAP1 DUP1 PUSH1 0x1 ADD PUSH0 SWAP1 SLOAD SWAP1 PUSH2 0x100 EXP SWAP1 DIV PUSH1 0xFF AND SWAP1 DUP1 PUSH1 0x1 ADD PUSH1 0x1 SWAP1 SLOAD SWAP1 PUSH2 0x100 EXP SWAP1 DIV PUSH1 0xFF AND SWAP1 POP DUP4 JUMP JUMPDEST PUSH0 PUSH1 0x60 PUSH0 DUP1 CALLER PUSH20 0xFFFFFFFFFFFFFFFFFFFFFFFFFFFFFFFFFFFFFFFF AND PUSH20 0xFFFFFFFFFFFFFFFFFFFFFFFFFFFFFFFFFFFFFFFF AND DUP2 MSTORE PUSH1 0x20 ADD SWAP1 DUP2 MSTORE PUSH1 0x20 ADD PUSH0 KECCAK256 PUSH1 0x1 ADD PUSH1 0x1 SWAP1 SLOAD SWAP1 PUSH2 0x100 EXP SWAP1 DIV PUSH1 0xFF AND PUSH2 0x539 JUMPI PUSH1 0x40 MLOAD PUSH32 0x8C379A000000000000000000000000000000000000000000000000000000000 DUP2 MSTORE PUSH1 0x4 ADD PUSH2 0x530 SWAP1 PUSH2 0xF85 JUMP JUMPDEST PUSH1 0x40 MLOAD DUP1 SWAP2 SUB SWAP1 REVERT JUMPDEST PUSH0 PUSH2 0x58E PUSH0 DUP1 CALLER PUSH20 0xFFFFFFFFFFFFFFFFFFFFFFFFFFFFFFFFFFFFFFFF AND PUSH20 0xFFFFFFFFFFFFFFFFFFFFFFFFFFFFFFFFFFFFFFFF AND DUP2 MSTORE PUSH1 0x20 ADD SWAP1 DUP2 MSTORE PUSH1 0x20 ADD PUSH0 KECCAK256 PUSH1 0x1 ADD PUSH0 SWAP1 SLOAD SWAP1 PUSH2 0x100 EXP SWAP1 DIV PUSH1 0xFF AND PUSH2 0x633 JUMP JUMPDEST SWAP1 POP PUSH1 0x1 DUP2 SWAP3 POP SWAP3 POP POP SWAP1 SWAP2 JUMP JUMPDEST PUSH0 DUP1 DUP3 PUSH1 0x40 MLOAD PUSH1 0x20 ADD PUSH2 0x5AF SWAP2 SWAP1 PUSH2 0xFDD JUMP JUMPDEST PUSH1 0x40 MLOAD PUSH1 0x20 DUP2 DUP4 SUB SUB DUP2 MSTORE SWAP1 PUSH1 0x40 MSTORE DUP1 MLOAD SWAP1 PUSH1 0x20 ADD KECCAK256 SWAP1 POP PUSH32 0xE96C7FFEF33869246069EBCB32BC72A59FB488C4893C9EB9B3306DE7BA74F6D8 DUP2 SUB PUSH2 0x5F8 JUMPI PUSH1 0x1 SWAP2 POP POP PUSH2 0x62E JUMP JUMPDEST PUSH32 0x57CFA32382416828AEE86644CAFEFDBB1CDE02D7764467B9D6062B5A1FD2B5A4 DUP2 SUB PUSH2 0x629 JUMPI PUSH1 0x2 SWAP2 POP POP PUSH2 0x62E JUMP JUMPDEST PUSH0 SWAP2 POP POP JUMPDEST SWAP2 SWAP1 POP JUMP JUMPDEST PUSH1 0x60 PUSH1 0x1 PUSH1 0x2 DUP2 GT ISZERO PUSH2 0x649 JUMPI PUSH2 0x648 PUSH2 0xA0C JUMP JUMPDEST JUMPDEST DUP3 PUSH1 0x2 DUP2 GT ISZERO PUSH2 0x65C JUMPI PUSH2 0x65B PUSH2 0xA0C JUMP JUMPDEST JUMPDEST SUB PUSH2 0x69E JUMPI PUSH1 0x40 MLOAD DUP1 PUSH1 0x40 ADD PUSH1 0x40 MSTORE DUP1 PUSH1 0x5 DUP2 MSTORE PUSH1 0x20 ADD PUSH32 0x646F6E6F72000000000000000000000000000000000000000000000000000000 DUP2 MSTORE POP SWAP1 POP PUSH2 0x73F JUMP JUMPDEST PUSH1 0x2 DUP1 DUP2 GT ISZERO PUSH2 0x6B1 JUMPI PUSH2 0x6B0 PUSH2 0xA0C JUMP JUMPDEST JUMPDEST DUP3 PUSH1 0x2 DUP2 GT ISZERO PUSH2 0x6C4 JUMPI PUSH2 0x6C3 PUSH2 0xA0C JUMP JUMPDEST JUMPDEST SUB PUSH2 0x706 JUMPI PUSH1 0x40 MLOAD DUP1 PUSH1 0x40 ADD PUSH1 0x40 MSTORE DUP1 PUSH1 0x9 DUP2 MSTORE PUSH1 0x20 ADD PUSH32 0x636F6C6C6563746F720000000000000000000000000000000000000000000000 DUP2 MSTORE POP SWAP1 POP PUSH2 0x73F JUMP JUMPDEST PUSH1 0x40 MLOAD DUP1 PUSH1 0x40 ADD PUSH1 0x40 MSTORE DUP1 PUSH1 0x4 DUP2 MSTORE PUSH1 0x20 ADD PUSH32 0x6E6F6E6500000000000000000000000000000000000000000000000000000000 DUP2 MSTORE POP SWAP1 POP JUMPDEST SWAP2 SWAP1 POP JUMP JUMPDEST PUSH0 PUSH1 0x40 MLOAD SWAP1 POP SWAP1 JUMP JUMPDEST PUSH0 DUP1 REVERT JUMPDEST PUSH0 DUP1 REVERT JUMPDEST PUSH0 DUP1 REVERT JUMPDEST PUSH0 DUP1 REVERT JUMPDEST PUSH0 PUSH1 0x1F NOT PUSH1 0x1F DUP4 ADD AND SWAP1 POP SWAP2 SWAP1 POP JUMP JUMPDEST PUSH32 0x4E487B7100000000000000000000000000000000000000000000000000000000 PUSH0 MSTORE PUSH1 0x41 PUSH1 0x4 MSTORE PUSH1 0x24 PUSH0 REVERT JUMPDEST PUSH2 0x7A3 DUP3 PUSH2 0x75D JUMP JUMPDEST DUP2 ADD DUP2 DUP2 LT PUSH8 0xFFFFFFFFFFFFFFFF DUP3 GT OR ISZERO PUSH2 0x7C2 JUMPI PUSH2 0x7C1 PUSH2 0x76D JUMP JUMPDEST JUMPDEST DUP1 PUSH1 0x40 MSTORE POP POP POP JUMP JUMPDEST PUSH0 PUSH2 0x7D4 PUSH2 0x744 JUMP JUMPDEST SWAP1 POP PUSH2 0x7E0 DUP3 DUP3 PUSH2 0x79A JUMP JUMPDEST SWAP2 SWAP1 POP JUMP JUMPDEST PUSH0 PUSH8 0xFFFFFFFFFFFFFFFF DUP3 GT ISZERO PUSH2 0x7FF JUMPI PUSH2 0x7FE PUSH2 0x76D JUMP JUMPDEST JUMPDEST PUSH2 0x808 DUP3 PUSH2 0x75D JUMP JUMPDEST SWAP1 POP PUSH1 0x20 DUP2 ADD SWAP1 POP SWAP2 SWAP1 POP JUMP JUMPDEST DUP3 DUP2 DUP4 CALLDATACOPY PUSH0 DUP4 DUP4 ADD MSTORE POP POP POP JUMP JUMPDEST PUSH0 PUSH2 0x835 PUSH2 0x830 DUP5 PUSH2 0x7E5 JUMP JUMPDEST PUSH2 0x7CB JUMP JUMPDEST SWAP1 POP DUP3 DUP2 MSTORE PUSH1 0x20 DUP2 ADD DUP5 DUP5 DUP5 ADD GT ISZERO PUSH2 0x851 JUMPI PUSH2 0x850 PUSH2 0x759 JUMP JUMPDEST JUMPDEST PUSH2 0x85C DUP5 DUP3 DUP6 PUSH2 0x815 JUMP JUMPDEST POP SWAP4 SWAP3 POP POP POP JUMP JUMPDEST PUSH0 DUP3 PUSH1 0x1F DUP4 ADD SLT PUSH2 0x878 JUMPI PUSH2 0x877 PUSH2 0x755 JUMP JUMPDEST JUMPDEST DUP2 CALLDATALOAD PUSH2 0x888 DUP5 DUP3 PUSH1 0x20 DUP7 ADD PUSH2 0x823 JUMP JUMPDEST SWAP2 POP POP SWAP3 SWAP2 POP POP JUMP JUMPDEST PUSH0 DUP1 PUSH1 0x40 DUP4 DUP6 SUB SLT ISZERO PUSH2 0x8A7 JUMPI PUSH2 0x8A6 PUSH2 0x74D JUMP JUMPDEST JUMPDEST PUSH0 DUP4 ADD CALLDATALOAD PUSH8 0xFFFFFFFFFFFFFFFF DUP2 GT ISZERO PUSH2 0x8C4 JUMPI PUSH2 0x8C3 PUSH2 0x751 JUMP JUMPDEST JUMPDEST PUSH2 0x8D0 DUP6 DUP3 DUP7 ADD PUSH2 0x864 JUMP JUMPDEST SWAP3 POP POP PUSH1 0x20 DUP4 ADD CALLDATALOAD PUSH8 0xFFFFFFFFFFFFFFFF DUP2 GT ISZERO PUSH2 0x8F1 JUMPI PUSH2 0x8F0 PUSH2 0x751 JUMP JUMPDEST JUMPDEST PUSH2 0x8FD DUP6 DUP3 DUP7 ADD PUSH2 0x864 JUMP JUMPDEST SWAP2 POP POP SWAP3 POP SWAP3 SWAP1 POP JUMP JUMPDEST PUSH0 DUP2 MLOAD SWAP1 POP SWAP2 SWAP1 POP JUMP JUMPDEST PUSH0 DUP3 DUP3 MSTORE PUSH1 0x20 DUP3 ADD SWAP1 POP SWAP3 SWAP2 POP POP JUMP JUMPDEST DUP3 DUP2 DUP4 MCOPY PUSH0 DUP4 DUP4 ADD MSTORE POP POP POP JUMP JUMPDEST PUSH0 PUSH2 0x939 DUP3 PUSH2 0x907 JUMP JUMPDEST PUSH2 0x943 DUP2 DUP6 PUSH2 0x911 JUMP JUMPDEST SWAP4 POP PUSH2 0x953 DUP2 DUP6 PUSH1 0x20 DUP7 ADD PUSH2 0x921 JUMP JUMPDEST PUSH2 0x95C DUP2 PUSH2 0x75D JUMP JUMPDEST DUP5 ADD SWAP2 POP POP SWAP3 SWAP2 POP POP JUMP JUMPDEST PUSH0 PUSH1 0x20 DUP3 ADD SWAP1 POP DUP2 DUP2 SUB PUSH0 DUP4 ADD MSTORE PUSH2 0x97F DUP2 DUP5 PUSH2 0x92F JUMP JUMPDEST SWAP1 POP SWAP3 SWAP2 POP POP JUMP JUMPDEST PUSH0 PUSH20 0xFFFFFFFFFFFFFFFFFFFFFFFFFFFFFFFFFFFFFFFF DUP3 AND SWAP1 POP SWAP2 SWAP1 POP JUMP JUMPDEST PUSH0 PUSH2 0x9B0 DUP3 PUSH2 0x987 JUMP JUMPDEST SWAP1 POP SWAP2 SWAP1 POP JUMP JUMPDEST PUSH2 0x9C0 DUP2 PUSH2 0x9A6 JUMP JUMPDEST DUP2 EQ PUSH2 0x9CA JUMPI PUSH0 DUP1 REVERT JUMPDEST POP JUMP JUMPDEST PUSH0 DUP2 CALLDATALOAD SWAP1 POP PUSH2 0x9DB DUP2 PUSH2 0x9B7 JUMP JUMPDEST SWAP3 SWAP2 POP POP JUMP JUMPDEST PUSH0 PUSH1 0x20 DUP3 DUP5 SUB SLT ISZERO PUSH2 0x9F6 JUMPI PUSH2 0x9F5 PUSH2 0x74D JUMP JUMPDEST JUMPDEST PUSH0 PUSH2 0xA03 DUP5 DUP3 DUP6 ADD PUSH2 0x9CD JUMP JUMPDEST SWAP2 POP POP SWAP3 SWAP2 POP POP JUMP JUMPDEST PUSH32 0x4E487B7100000000000000000000000000000000000000000000000000000000 PUSH0 MSTORE PUSH1 0x21 PUSH1 0x4 MSTORE PUSH1 0x24 PUSH0 REVERT JUMPDEST PUSH1 0x3 DUP2 LT PUSH2 0xA4A JUMPI PUSH2 0xA49 PUSH2 0xA0C JUMP JUMPDEST JUMPDEST POP JUMP JUMPDEST PUSH0 DUP2 SWAP1 POP PUSH2 0xA5A DUP3 PUSH2 0xA39 JUMP JUMPDEST SWAP2 SWAP1 POP JUMP JUMPDEST PUSH0 PUSH2 0xA69 DUP3 PUSH2 0xA4D JUMP JUMPDEST SWAP1 POP SWAP2 SWAP1 POP JUMP JUMPDEST PUSH2 0xA79 DUP2 PUSH2 0xA5F JUMP JUMPDEST DUP3 MSTORE POP POP JUMP JUMPDEST PUSH0 DUP2 ISZERO ISZERO SWAP1 POP SWAP2 SWAP1 POP JUMP JUMPDEST PUSH2 0xA93 DUP2 PUSH2 0xA7F JUMP JUMPDEST DUP3 MSTORE POP POP JUMP JUMPDEST PUSH0 PUSH1 0x60 DUP3 ADD SWAP1 POP DUP2 DUP2 SUB PUSH0 DUP4 ADD MSTORE PUSH2 0xAB1 DUP2 DUP7 PUSH2 0x92F JUMP JUMPDEST SWAP1 POP PUSH2 0xAC0 PUSH1 0x20 DUP4 ADD DUP6 PUSH2 0xA70 JUMP JUMPDEST PUSH2 0xACD PUSH1 0x40 DUP4 ADD DUP5 PUSH2 0xA8A JUMP JUMPDEST SWAP5 SWAP4 POP POP POP POP JUMP JUMPDEST PUSH0 PUSH1 0x40 DUP3 ADD SWAP1 POP PUSH2 0xAE8 PUSH0 DUP4 ADD DUP6 PUSH2 0xA8A JUMP JUMPDEST DUP2 DUP2 SUB PUSH1 0x20 DUP4 ADD MSTORE PUSH2 0xAFA DUP2 DUP5 PUSH2 0x92F JUMP JUMPDEST SWAP1 POP SWAP4 SWAP3 POP POP POP JUMP JUMPDEST PUSH32 0x416C726561647920726567697374657265640000000000000000000000000000 PUSH0 DUP3 ADD MSTORE POP JUMP JUMPDEST PUSH0 PUSH2 0xB37 PUSH1 0x12 DUP4 PUSH2 0x911 JUMP JUMPDEST SWAP2 POP PUSH2 0xB42 DUP3 PUSH2 0xB03 JUMP JUMPDEST PUSH1 0x20 DUP3 ADD SWAP1 POP SWAP2 SWAP1 POP JUMP JUMPDEST PUSH0 PUSH1 0x20 DUP3 ADD SWAP1 POP DUP2 DUP2 SUB PUSH0 DUP4 ADD MSTORE PUSH2 0xB64 DUP2 PUSH2 0xB2B JUMP JUMPDEST SWAP1 POP SWAP2 SWAP1 POP JUMP JUMPDEST PUSH32 0x496E76616C696420726F6C650000000000000000000000000000000000000000 PUSH0 DUP3 ADD MSTORE POP JUMP JUMPDEST PUSH0 PUSH2 0xB9F PUSH1 0xC DUP4 PUSH2 0x911 JUMP JUMPDEST SWAP2 POP PUSH2 0xBAA DUP3 PUSH2 0xB6B JUMP JUMPDEST PUSH1 0x20 DUP3 ADD SWAP1 POP SWAP2 SWAP1 POP JUMP JUMPDEST PUSH0 PUSH1 0x20 DUP3 ADD SWAP1 POP DUP2 DUP2 SUB PUSH0 DUP4 ADD MSTORE PUSH2 0xBCC DUP2 PUSH2 0xB93 JUMP JUMPDEST SWAP1 POP SWAP2 SWAP1 POP JUMP JUMPDEST PUSH32 0x4E487B7100000000000000000000000000000000000000000000000000000000 PUSH0 MSTORE PUSH1 0x22 PUSH1 0x4 MSTORE PUSH1 0x24 PUSH0 REVERT JUMPDEST PUSH0 PUSH1 0x2 DUP3 DIV SWAP1 POP PUSH1 0x1 DUP3 AND DUP1 PUSH2 0xC17 JUMPI PUSH1 0x7F DUP3 AND SWAP2 POP JUMPDEST PUSH1 0x20 DUP3 LT DUP2 SUB PUSH2 0xC2A JUMPI PUSH2 0xC29 PUSH2 0xBD3 JUMP JUMPDEST JUMPDEST POP SWAP2 SWAP1 POP JUMP JUMPDEST PUSH0 DUP2 SWAP1 POP DUP2 PUSH0 MSTORE PUSH1 0x20 PUSH0 KECCAK256 SWAP1 POP SWAP2 SWAP1 POP JUMP JUMPDEST PUSH0 PUSH1 0x20 PUSH1 0x1F DUP4 ADD DIV SWAP1 POP SWAP2 SWAP1 POP JUMP JUMPDEST PUSH0 DUP3 DUP3 SHL SWAP1 POP SWAP3 SWAP2 POP POP JUMP JUMPDEST PUSH0 PUSH1 0x8 DUP4 MUL PUSH2 0xC8C PUSH32 0xFFFFFFFFFFFFFFFFFFFFFFFFFFFFFFFFFFFFFFFFFFFFFFFFFFFFFFFFFFFFFFFF DUP3 PUSH2 0xC51 JUMP JUMPDEST PUSH2 0xC96 DUP7 DUP4 PUSH2 0xC51 JUMP JUMPDEST SWAP6 POP DUP1 NOT DUP5 AND SWAP4 POP DUP1 DUP7 AND DUP5 OR SWAP3 POP POP POP SWAP4 SWAP3 POP POP POP JUMP JUMPDEST PUSH0 DUP2 SWAP1 POP SWAP2 SWAP1 POP JUMP JUMPDEST PUSH0 DUP2 SWAP1 POP SWAP2 SWAP1 POP JUMP JUMPDEST PUSH0 PUSH2 0xCDA PUSH2 0xCD5 PUSH2 0xCD0 DUP5 PUSH2 0xCAE JUMP JUMPDEST PUSH2 0xCB7 JUMP JUMPDEST PUSH2 0xCAE JUMP JUMPDEST SWAP1 POP SWAP2 SWAP1 POP JUMP JUMPDEST PUSH0 DUP2 SWAP1 POP SWAP2 SWAP1 POP JUMP JUMPDEST PUSH2 0xCF3 DUP4 PUSH2 0xCC0 JUMP JUMPDEST PUSH2 0xD07 PUSH2 0xCFF DUP3 PUSH2 0xCE1 JUMP JUMPDEST DUP5 DUP5 SLOAD PUSH2 0xC5D JUMP JUMPDEST DUP3 SSTORE POP POP POP POP JUMP JUMPDEST PUSH0 SWAP1 JUMP JUMPDEST PUSH2 0xD1B PUSH2 0xD0F JUMP JUMPDEST PUSH2 0xD26 DUP2 DUP5 DUP5 PUSH2 0xCEA JUMP JUMPDEST POP POP POP JUMP JUMPDEST JUMPDEST DUP2 DUP2 LT ISZERO PUSH2 0xD49 JUMPI PUSH2 0xD3E PUSH0 DUP3 PUSH2 0xD13 JUMP JUMPDEST PUSH1 0x1 DUP2 ADD SWAP1 POP PUSH2 0xD2C JUMP JUMPDEST POP POP JUMP JUMPDEST PUSH1 0x1F DUP3 GT ISZERO PUSH2 0xD8E JUMPI PUSH2 0xD5F DUP2 PUSH2 0xC30 JUMP JUMPDEST PUSH2 0xD68 DUP5 PUSH2 0xC42 JUMP JUMPDEST DUP2 ADD PUSH1 0x20 DUP6 LT ISZERO PUSH2 0xD77 JUMPI DUP2 SWAP1 POP JUMPDEST PUSH2 0xD8B PUSH2 0xD83 DUP6 PUSH2 0xC42 JUMP JUMPDEST DUP4 ADD DUP3 PUSH2 0xD2B JUMP JUMPDEST POP POP JUMPDEST POP POP POP JUMP JUMPDEST PUSH0 DUP3 DUP3 SHR SWAP1 POP SWAP3 SWAP2 POP POP JUMP JUMPDEST PUSH0 PUSH2 0xDAE PUSH0 NOT DUP5 PUSH1 0x8 MUL PUSH2 0xD93 JUMP JUMPDEST NOT DUP1 DUP4 AND SWAP2 POP POP SWAP3 SWAP2 POP POP JUMP JUMPDEST PUSH0 PUSH2 0xDC6 DUP4 DUP4 PUSH2 0xD9F JUMP JUMPDEST SWAP2 POP DUP3 PUSH1 0x2 MUL DUP3 OR SWAP1 POP SWAP3 SWAP2 POP POP JUMP JUMPDEST PUSH2 0xDDF DUP3 PUSH2 0x907 JUMP JUMPDEST PUSH8 0xFFFFFFFFFFFFFFFF DUP2 GT ISZERO PUSH2 0xDF8 JUMPI PUSH2 0xDF7 PUSH2 0x76D JUMP JUMPDEST JUMPDEST PUSH2 0xE02 DUP3 SLOAD PUSH2 0xC00 JUMP JUMPDEST PUSH2 0xE0D DUP3 DUP3 DUP6 PUSH2 0xD4D JUMP JUMPDEST PUSH0 PUSH1 0x20 SWAP1 POP PUSH1 0x1F DUP4 GT PUSH1 0x1 DUP2 EQ PUSH2 0xE3E JUMPI PUSH0 DUP5 ISZERO PUSH2 0xE2C JUMPI DUP3 DUP8 ADD MLOAD SWAP1 POP JUMPDEST PUSH2 0xE36 DUP6 DUP3 PUSH2 0xDBB JUMP JUMPDEST DUP7 SSTORE POP PUSH2 0xE9D JUMP JUMPDEST PUSH1 0x1F NOT DUP5 AND PUSH2 0xE4C DUP7 PUSH2 0xC30 JUMP JUMPDEST PUSH0 JUMPDEST DUP3 DUP2 LT ISZERO PUSH2 0xE73 JUMPI DUP5 DUP10 ADD MLOAD DUP3 SSTORE PUSH1 0x1 DUP3 ADD SWAP2 POP PUSH1 0x20 DUP6 ADD SWAP5 POP PUSH1 0x20 DUP2 ADD SWAP1 POP PUSH2 0xE4E JUMP JUMPDEST DUP7 DUP4 LT ISZERO PUSH2 0xE90 JUMPI DUP5 DUP10 ADD MLOAD PUSH2 0xE8C PUSH1 0x1F DUP10 AND DUP3 PUSH2 0xD9F JUMP JUMPDEST DUP4 SSTORE POP JUMPDEST PUSH1 0x1 PUSH1 0x2 DUP9 MUL ADD DUP9 SSTORE POP POP POP JUMPDEST POP POP POP POP POP POP JUMP JUMPDEST PUSH0 PUSH1 0x40 DUP3 ADD SWAP1 POP DUP2 DUP2 SUB PUSH0 DUP4 ADD MSTORE PUSH2 0xEBD DUP2 DUP6 PUSH2 0x92F JUMP JUMPDEST SWAP1 POP PUSH2 0xECC PUSH1 0x20 DUP4 ADD DUP5 PUSH2 0xA70 JUMP JUMPDEST SWAP4 SWAP3 POP POP POP JUMP JUMPDEST PUSH32 0x4E6F742072656769737465726564000000000000000000000000000000000000 PUSH0 DUP3 ADD MSTORE POP JUMP JUMPDEST PUSH0 PUSH2 0xF07 PUSH1 0xE DUP4 PUSH2 0x911 JUMP JUMPDEST SWAP2 POP PUSH2 0xF12 DUP3 PUSH2 0xED3 JUMP JUMPDEST PUSH1 0x20 DUP3 ADD SWAP1 POP SWAP2 SWAP1 POP JUMP JUMPDEST PUSH0 PUSH1 0x20 DUP3 ADD SWAP1 POP DUP2 DUP2 SUB PUSH0 DUP4 ADD MSTORE PUSH2 0xF34 DUP2 PUSH2 0xEFB JUMP JUMPDEST SWAP1 POP SWAP2 SWAP1 POP JUMP JUMPDEST PUSH32 0x55736572206E6F74207265676973746572656400000000000000000000000000 PUSH0 DUP3 ADD MSTORE POP JUMP JUMPDEST PUSH0 PUSH2 0xF6F PUSH1 0x13 DUP4 PUSH2 0x911 JUMP JUMPDEST SWAP2 POP PUSH2 0xF7A DUP3 PUSH2 0xF3B JUMP JUMPDEST PUSH1 0x20 DUP3 ADD SWAP1 POP SWAP2 SWAP1 POP JUMP JUMPDEST PUSH0 PUSH1 0x20 DUP3 ADD SWAP1 POP DUP2 DUP2 SUB PUSH0 DUP4 ADD MSTORE PUSH2 0xF9C DUP2 PUSH2 0xF63 JUMP JUMPDEST SWAP1 POP SWAP2 SWAP1 POP JUMP JUMPDEST PUSH0 DUP2 SWAP1 POP SWAP3 SWAP2 POP POP JUMP JUMPDEST PUSH0 PUSH2 0xFB7 DUP3 PUSH2 0x907 JUMP JUMPDEST PUSH2 0xFC1 DUP2 DUP6 PUSH2 0xFA3 JUMP JUMPDEST SWAP4 POP PUSH2 0xFD1 DUP2 DUP6 PUSH1 0x20 DUP7 ADD PUSH2 0x921 JUMP JUMPDEST DUP1 DUP5 ADD SWAP2 POP POP SWAP3 SWAP2 POP POP JUMP JUMPDEST PUSH0 PUSH2 0xFE8 DUP3 DUP5 PUSH2 0xFAD JUMP JUMPDEST SWAP2 POP DUP2 SWAP1 POP SWAP3 SWAP2 POP POP JUMP INVALID LOG2 PUSH5 0x6970667358 0x22 SLT KECCAK256 PUSH22 0xC4F96946F646D35DF593DA4D9EA0B6B8FA8E1B0E21F8 MSIZE RETURN 0xB4 0xA8 PUSH7 0x756ADCAD64736F PUSH13 0x634300081A0033000000000000 "
		},
		"gasEstimates": {
			"creation": {
				"codeDepositCost": "827400",
				"executionCost": "862",
				"totalCost": "828262"
			},
			"external": {
				"getMyRole()": "infinite",
				"login()": "infinite",
				"register(string,string)": "infinite",
				"users(address)": "infinite"
			},
			"internal": {
				"getRoleAsString(enum RoleBasedLogin.Role)": "infinite",
				"getRoleFromString(string memory)": "infinite"
			}
		},
		"methodIdentifiers": {
			"getMyRole()": "6e3b47fc",
			"login()": "b34e97e8",
			"register(string,string)": "3ffbd47f",
			"users(address)": "a87430ba"
		}
	},
	"abi": [
		{
			"anonymous": false,
			"inputs": [
				{
					"indexed": true,
					"internalType": "address",
					"name": "user",
					"type": "address"
				},
				{
					"indexed": false,
					"internalType": "enum RoleBasedLogin.Role",
					"name": "role",
					"type": "uint8"
				}
			],
			"name": "UserLoggedIn",
			"type": "event"
		},
		{
			"anonymous": false,
			"inputs": [
				{
					"indexed": true,
					"internalType": "address",
					"name": "user",
					"type": "address"
				},
				{
					"indexed": false,
					"internalType": "string",
					"name": "username",
					"type": "string"
				},
				{
					"indexed": false,
					"internalType": "enum RoleBasedLogin.Role",
					"name": "role",
					"type": "uint8"
				}
			],
			"name": "UserRegistered",
			"type": "event"
		},
		{
			"inputs": [],
			"name": "getMyRole",
			"outputs": [
				{
					"internalType": "string",
					"name": "",
					"type": "string"
				}
			],
			"stateMutability": "view",
			"type": "function"
		},
		{
			"inputs": [],
			"name": "login",
			"outputs": [
				{
					"internalType": "bool",
					"name": "success",
					"type": "bool"
				},
				{
					"internalType": "string",
					"name": "role",
					"type": "string"
				}
			],
			"stateMutability": "view",
			"type": "function"
		},
		{
			"inputs": [
				{
					"internalType": "string",
					"name": "_username",
					"type": "string"
				},
				{
					"internalType": "string",
					"name": "_role",
					"type": "string"
				}
			],
			"name": "register",
			"outputs": [],
			"stateMutability": "nonpayable",
			"type": "function"
		},
		{
			"inputs": [
				{
					"internalType": "address",
					"name": "",
					"type": "address"
				}
			],
			"name": "users",
			"outputs": [
				{
					"internalType": "string",
					"name": "username",
					"type": "string"
				},
				{
					"internalType": "enum RoleBasedLogin.Role",
					"name": "role",
					"type": "uint8"
				},
				{
					"internalType": "bool",
					"name": "isRegistered",
					"type": "bool"
				}
			],
			"stateMutability": "view",
			"type": "function"
		}
	]
}